{
  "_format": "hh-sol-artifact-1",
  "contractName": "Admin",
  "sourceName": "src/Admin.sol",
  "abi": [
    {
      "anonymous": false,
      "inputs": [
        {
          "indexed": true,
          "internalType": "uint256",
          "name": "eventId",
          "type": "uint256"
        },
        {
          "indexed": false,
          "internalType": "uint256",
          "name": "newRoyalty",
          "type": "uint256"
        }
      ],
      "name": "CreatorRoyaltyModifiedOnEvent",
      "type": "event"
    },
    {
      "anonymous": false,
      "inputs": [
        {
          "indexed": true,
          "internalType": "uint256",
          "name": "eventId",
          "type": "uint256"
        },
        {
          "indexed": false,
          "internalType": "address",
          "name": "organizer",
          "type": "address"
        },
        {
          "indexed": false,
          "internalType": "string",
          "name": "uri",
          "type": "string"
        }
      ],
      "name": "EventCreated",
      "type": "event"
    },
    {
      "anonymous": false,
      "inputs": [
        {
          "indexed": true,
          "internalType": "uint256",
          "name": "eventId",
          "type": "uint256"
        }
      ],
      "name": "EventDeleted",
      "type": "event"
    },
    {
      "anonymous": false,
      "inputs": [
        {
          "indexed": true,
          "internalType": "uint256",
          "name": "eventId",
          "type": "uint256"
        },
        {
          "indexed": false,
          "internalType": "string",
          "name": "newUri",
          "type": "string"
        }
      ],
      "name": "EventEdited",
      "type": "event"
    },
    {
      "anonymous": false,
      "inputs": [
        {
          "indexed": true,
          "internalType": "uint256",
          "name": "eventId",
          "type": "uint256"
        },
        {
          "indexed": false,
          "internalType": "address",
          "name": "newOwner",
          "type": "address"
        }
      ],
      "name": "EventOwnershipTransferred",
      "type": "event"
    },
    {
      "anonymous": false,
      "inputs": [
        {
          "indexed": true,
          "internalType": "uint256",
          "name": "ticketId",
          "type": "uint256"
        },
        {
          "indexed": false,
          "internalType": "address",
          "name": "contractAddress",
          "type": "address"
        },
        {
          "indexed": false,
          "internalType": "uint256[]",
          "name": "ids",
          "type": "uint256[]"
        }
      ],
      "name": "MembershipAssignedToTicket",
      "type": "event"
    },
    {
      "anonymous": false,
      "inputs": [
        {
          "indexed": true,
          "internalType": "uint256",
          "name": "ticketId",
          "type": "uint256"
        },
        {
          "indexed": false,
          "internalType": "address",
          "name": "contractAddress",
          "type": "address"
        }
      ],
      "name": "MembershipRemovedFromTicket",
      "type": "event"
    },
    {
      "anonymous": false,
      "inputs": [
        {
          "indexed": true,
          "internalType": "uint256",
          "name": "ticketId",
          "type": "uint256"
        },
        {
          "indexed": false,
          "internalType": "address",
          "name": "contractAddress",
          "type": "address"
        },
        {
          "indexed": false,
          "internalType": "uint256",
          "name": "tokenId",
          "type": "uint256"
        }
      ],
      "name": "MembershipTokenIdRemovedFromTicket",
      "type": "event"
    },
    {
      "anonymous": false,
      "inputs": [
        {
          "indexed": true,
          "internalType": "address",
          "name": "previousOwner",
          "type": "address"
        },
        {
          "indexed": true,
          "internalType": "address",
          "name": "newOwner",
          "type": "address"
        }
      ],
      "name": "OwnershipTransferred",
      "type": "event"
    },
    {
      "anonymous": false,
      "inputs": [
        {
          "indexed": false,
          "internalType": "address",
          "name": "account",
          "type": "address"
        }
      ],
      "name": "Paused",
      "type": "event"
    },
    {
      "anonymous": false,
      "inputs": [
        {
          "indexed": false,
          "internalType": "uint256",
          "name": "newRoyalty",
          "type": "uint256"
        }
      ],
      "name": "PrimaryMarketRoyaltyModified",
      "type": "event"
    },
    {
      "anonymous": false,
      "inputs": [
        {
          "indexed": true,
          "internalType": "uint256",
          "name": "eventId",
          "type": "uint256"
        },
        {
          "indexed": false,
          "internalType": "uint256",
          "name": "newRoyalty",
          "type": "uint256"
        }
      ],
      "name": "PrimaryMarketRoyaltyModifiedOnEvent",
      "type": "event"
    },
    {
      "anonymous": false,
      "inputs": [
        {
          "indexed": false,
          "internalType": "uint256",
          "name": "newRoyalty",
          "type": "uint256"
        }
      ],
      "name": "SecondaryMarketRoyaltyModified",
      "type": "event"
    },
    {
      "anonymous": false,
      "inputs": [
        {
          "indexed": true,
          "internalType": "uint256",
          "name": "eventId",
          "type": "uint256"
        },
        {
          "indexed": false,
          "internalType": "uint256",
          "name": "newRoyalty",
          "type": "uint256"
        }
      ],
      "name": "SecondaryMarketRoyaltyModifiedOnEvent",
      "type": "event"
    },
    {
      "anonymous": false,
      "inputs": [
        {
          "indexed": false,
          "internalType": "address",
          "name": "account",
          "type": "address"
        }
      ],
      "name": "Unpaused",
      "type": "event"
    },
    {
      "inputs": [
        {
          "internalType": "uint256",
          "name": "eventId",
          "type": "uint256"
        },
        {
          "internalType": "address",
          "name": "newOwner",
          "type": "address"
        }
      ],
      "name": "changeEventOwnership",
      "outputs": [],
      "stateMutability": "nonpayable",
      "type": "function"
    },
    {
      "inputs": [
        {
          "internalType": "string",
          "name": "eventUri",
          "type": "string"
        },
        {
          "components": [
            {
              "internalType": "uint256",
              "name": "amount",
              "type": "uint256"
            },
            {
              "internalType": "uint256",
              "name": "price",
              "type": "uint256"
            },
            {
              "internalType": "uint256",
              "name": "royalty",
              "type": "uint256"
            },
            {
              "internalType": "uint256",
              "name": "amountToSell",
              "type": "uint256"
            },
            {
              "internalType": "bool",
              "name": "isResellable",
              "type": "bool"
            },
            {
              "internalType": "string",
              "name": "uri",
              "type": "string"
            }
          ],
          "internalType": "struct NewAssetSaleInfo[]",
          "name": "tickets",
          "type": "tuple[]"
        }
      ],
      "name": "createEvent",
      "outputs": [
        {
          "internalType": "uint256",
          "name": "",
          "type": "uint256"
        }
      ],
      "stateMutability": "nonpayable",
      "type": "function"
    },
    {
      "inputs": [
        {
          "internalType": "uint256",
          "name": "eventId",
          "type": "uint256"
        }
      ],
      "name": "deleteEvent",
      "outputs": [],
      "stateMutability": "nonpayable",
      "type": "function"
    },
    {
      "inputs": [
        {
          "internalType": "uint256",
          "name": "ticketId",
          "type": "uint256"
        },
        {
          "internalType": "address",
          "name": "contractAddress",
          "type": "address"
        }
      ],
      "name": "disallowMembershipForTicket",
      "outputs": [],
      "stateMutability": "nonpayable",
      "type": "function"
    },
    {
      "inputs": [
        {
          "internalType": "uint256",
          "name": "ticketId",
          "type": "uint256"
        },
        {
          "internalType": "address",
          "name": "contractAddress",
          "type": "address"
        },
        {
          "internalType": "uint256",
          "name": "tokenId",
          "type": "uint256"
        }
      ],
      "name": "disallowMembershipTokenIdForTicket",
      "outputs": [],
      "stateMutability": "nonpayable",
      "type": "function"
    },
    {
      "inputs": [],
      "name": "eventAddress",
      "outputs": [
        {
          "internalType": "address",
          "name": "",
          "type": "address"
        }
      ],
      "stateMutability": "view",
      "type": "function"
    },
    {
      "inputs": [
        {
          "internalType": "address",
          "name": "_ticketMarketplaceAddress",
          "type": "address"
        },
        {
          "internalType": "address",
          "name": "_eventAddress",
          "type": "address"
        }
      ],
      "name": "initialize",
      "outputs": [],
      "stateMutability": "nonpayable",
      "type": "function"
    },
    {
      "inputs": [
        {
          "internalType": "uint256",
          "name": "ticketId",
          "type": "uint256"
        },
        {
          "internalType": "address",
          "name": "contractAddress",
          "type": "address"
        }
      ],
      "name": "isMembershipAllowedForTicket",
      "outputs": [
        {
          "internalType": "bool",
          "name": "",
          "type": "bool"
        }
      ],
      "stateMutability": "view",
      "type": "function"
    },
    {
      "inputs": [
        {
          "internalType": "uint256",
          "name": "ticketId",
          "type": "uint256"
        },
        {
          "internalType": "address",
          "name": "contractAddress",
          "type": "address"
        },
        {
          "internalType": "uint256",
          "name": "tokenId",
          "type": "uint256"
        }
      ],
      "name": "isTokenIdAllowedForTicket",
      "outputs": [
        {
          "internalType": "bool",
          "name": "",
          "type": "bool"
        }
      ],
      "stateMutability": "view",
      "type": "function"
    },
    {
      "inputs": [
        {
          "internalType": "uint256",
          "name": "ticketId",
          "type": "uint256"
        },
        {
          "internalType": "address",
          "name": "contractAddress",
          "type": "address"
        }
      ],
      "name": "isTokenIdNeededForTicket",
      "outputs": [
        {
          "internalType": "bool",
          "name": "",
          "type": "bool"
        }
      ],
      "stateMutability": "view",
      "type": "function"
    },
    {
      "inputs": [
        {
          "internalType": "uint256",
          "name": "eventId",
          "type": "uint256"
        },
        {
          "internalType": "uint256",
          "name": "newCreatorRoyalty",
          "type": "uint256"
        }
      ],
      "name": "modifyCreatorRoyaltyOnEvent",
      "outputs": [],
      "stateMutability": "nonpayable",
      "type": "function"
    },
    {
      "inputs": [
        {
          "internalType": "uint16",
          "name": "newMarketplaceRoyalty",
          "type": "uint16"
        }
      ],
      "name": "modifyPrimaryMarketplaceRoyalty",
      "outputs": [],
      "stateMutability": "nonpayable",
      "type": "function"
    },
    {
      "inputs": [
        {
          "internalType": "uint16",
          "name": "newMarketplaceRoyalty",
          "type": "uint16"
        }
      ],
      "name": "modifySecondaryMarketplaceRoyalty",
      "outputs": [],
      "stateMutability": "nonpayable",
      "type": "function"
    },
    {
      "inputs": [],
      "name": "owner",
      "outputs": [
        {
          "internalType": "address",
          "name": "",
          "type": "address"
        }
      ],
      "stateMutability": "view",
      "type": "function"
    },
    {
      "inputs": [],
      "name": "pause",
      "outputs": [],
      "stateMutability": "nonpayable",
      "type": "function"
    },
    {
      "inputs": [],
      "name": "paused",
      "outputs": [
        {
          "internalType": "bool",
          "name": "",
          "type": "bool"
        }
      ],
      "stateMutability": "view",
      "type": "function"
    },
    {
      "inputs": [],
      "name": "primaryMarketplaceRoyalty",
      "outputs": [
        {
          "internalType": "uint16",
          "name": "",
          "type": "uint16"
        }
      ],
      "stateMutability": "view",
      "type": "function"
    },
    {
      "inputs": [],
      "name": "renounceOwnership",
      "outputs": [],
      "stateMutability": "nonpayable",
      "type": "function"
    },
    {
      "inputs": [],
      "name": "secondaryMarketplaceRoyalty",
      "outputs": [
        {
          "internalType": "uint16",
          "name": "",
          "type": "uint16"
        }
      ],
      "stateMutability": "view",
      "type": "function"
    },
    {
      "inputs": [
        {
          "internalType": "uint256",
          "name": "eventId",
          "type": "uint256"
        },
        {
          "internalType": "string",
          "name": "newUri",
          "type": "string"
        }
      ],
      "name": "setEventUri",
      "outputs": [],
      "stateMutability": "nonpayable",
      "type": "function"
    },
    {
      "inputs": [],
      "name": "ticketMarketplaceAddress",
      "outputs": [
        {
          "internalType": "address",
          "name": "",
          "type": "address"
        }
      ],
      "stateMutability": "view",
      "type": "function"
    },
    {
      "inputs": [
        {
          "internalType": "address",
          "name": "newOwner",
          "type": "address"
        }
      ],
      "name": "transferOwnership",
      "outputs": [],
      "stateMutability": "nonpayable",
      "type": "function"
    },
    {
      "inputs": [],
      "name": "unpause",
      "outputs": [],
      "stateMutability": "nonpayable",
      "type": "function"
    }
  ],
  "bytecode": "0x608060405234801561001057600080fd5b5061285d806100206000396000f3fe608060405234801561001057600080fd5b50600436106101585760003560e01c80638456cb59116100c3578063d411a7c71161007c578063d411a7c7146102d7578063e8f0f580146102ea578063f2fde38b146102fd578063f363fb0514610310578063f8749a5814610349578063fad567791461035c57600080fd5b80638456cb59146102565780638da5cb5b1461025e578063a696ac7b14610283578063b13eb65914610297578063b4785bde146102aa578063c8be174f146102c457600080fd5b8063485cc95511610115578063485cc955146101f75780634c88afe41461020a57806355a76d4b1461021d5780635c975abb146102305780635ca1c6591461023b578063715018a61461024e57600080fd5b806308a2ca971461015d5780630ba7edf9146101835780630c341f9a146101a457806310e6e83e146101c75780633f4ba83a146101dc578063434e58dd146101e4575b600080fd5b61017061016b366004611e6c565b61036f565b6040519081526020015b60405180910390f35b6097546101919061ffff1681565b60405161ffff909116815260200161017a565b6101b76101b2366004611f63565b610509565b604051901515815260200161017a565b6101da6101d5366004611f93565b610538565b005b6101da610c11565b6101da6101f236600461202d565b610c45565b6101da610205366004612065565b610e3f565b6101da610218366004612093565b610f50565b6101da61022b366004611f63565b610ff2565b60655460ff166101b7565b6101da610249366004612093565b611123565b6101da6111b4565b6101da6111e8565b6033546001600160a01b03165b6040516001600160a01b03909116815260200161017a565b6097546101919062010000900461ffff1681565b6101da6102a5366004611f63565b61121a565b60975461026b90600160201b90046001600160a01b031681565b6101b76102d236600461202d565b611340565b6101da6102e53660046120b7565b6113d4565b6101da6102f83660046120d9565b61156a565b6101da61030b366004612155565b611784565b6101b761031e366004611f63565b60009182526099602090815260408084206001600160a01b0393909316845291905290205460ff1690565b6101da610357366004612172565b61181f565b60985461026b906001600160a01b031681565b600061037d60655460ff1690565b156103a35760405162461bcd60e51b815260040161039a9061218b565b60405180910390fd5b609854604051636902622f60e11b81526000916001600160a01b03169063d204c45e906103d69033908a906004016121e5565b602060405180830381600087803b1580156103f057600080fd5b505af1158015610404573d6000803e3d6000fd5b505050506040513d601f19601f820116820180604052508101906104289190612227565b9050807ffc695dea2478fb938a11068aeedddd7046a5fe655f136e30a325d353fe187a45338860405161045c9291906121e5565b60405180910390a2831561050057609754604051630f2f2c7960e01b8152600160201b9091046001600160a01b031690630f2f2c79906104a890849033908a908a908a90600401612455565b600060405180830381600087803b1580156104c257600080fd5b505af11580156104d6573d6000803e3d6000fd5b505050506040513d6000823e601f3d908101601f191682016040526104fe9190810190612579565b505b95945050505050565b60008281526099602090815260408083206001600160a01b038516845260010190915290205415155b92915050565b60655460ff161561055b5760405162461bcd60e51b815260040161039a9061218b565b60005b85811015610c0857609754600160201b90046001600160a01b03163314806106355750609754600160201b90046001600160a01b0316637b41686d8888848181106105ab576105ab61261f565b905060200201356040518263ffffffff1660e01b81526004016105d091815260200190565b60206040518083038186803b1580156105e857600080fd5b505afa1580156105fc573d6000803e3d6000fd5b505050506040513d601f19601f820116820180604052508101906106209190612635565b6001600160a01b0316336001600160a01b0316145b6106515760405162461bcd60e51b815260040161039a90612652565b60005b8585838181106106665761066661261f565b90506020028101906106789190612689565b9050811015610bf5576106da8686848181106106965761069661261f565b90506020028101906106a89190612689565b838181106106b8576106b861261f565b90506020020160208101906106cd9190612155565b636cdb3d1360e11b611a84565b8061073957506107398686848181106106f5576106f561261f565b90506020028101906107079190612689565b838181106107175761071761261f565b905060200201602081019061072c9190612155565b6380ac58cd60e01b611a84565b6107855760405162461bcd60e51b815260206004820152601c60248201527f53686f756c6420626520455243373231206f7220455243313135352100000000604482015260640161039a565b6001609960008a8a8681811061079d5761079d61261f565b90506020020135815260200190815260200160002060000160008888868181106107c9576107c961261f565b90506020028101906107db9190612689565b858181106107eb576107eb61261f565b90506020020160208101906108009190612155565b6001600160a01b031681526020810191909152604001600020805460ff191691151591909117905561083d8686848181106106965761069661261f565b156108d95760008484848181106108565761085661261f565b90506020028101906108689190612689565b838181106108785761087861261f565b905060200281019061088a9190612689565b9050116108d95760405162461bcd60e51b815260206004820152601a60248201527f4552433131353520726571756972657320746f6b656e49647321000000000000604482015260640161039a565b60005b8484848181106108ee576108ee61261f565b90506020028101906109009190612689565b838181106109105761091061261f565b90506020028101906109229190612689565b9050811015610b0257609960008a8a868181106109415761094161261f565b905060200201358152602001908152602001600020600101600088888681811061096d5761096d61261f565b905060200281019061097f9190612689565b8581811061098f5761098f61261f565b90506020020160208101906109a49190612155565b6001600160a01b03168152602081019190915260400160009081208054916109cb836126e9565b91905055506001609960008b8b878181106109e8576109e861261f565b9050602002013581526020019081526020016000206002016000898987818110610a1457610a1461261f565b9050602002810190610a269190612689565b86818110610a3657610a3661261f565b9050602002016020810190610a4b9190612155565b6001600160a01b03166001600160a01b031681526020019081526020016000206000878787818110610a7f57610a7f61261f565b9050602002810190610a919190612689565b86818110610aa157610aa161261f565b9050602002810190610ab39190612689565b85818110610ac357610ac361261f565b90506020020135815260200190815260200160002060006101000a81548160ff0219169083151502179055508080610afa906126e9565b9150506108dc565b50878783818110610b1557610b1561261f565b905060200201357f55b427e2bb93f69f96cb6bdae82d8184cb4f1a461b729b335be1a6f2d3943556878785818110610b4f57610b4f61261f565b9050602002810190610b619190612689565b84818110610b7157610b7161261f565b9050602002016020810190610b869190612155565b868686818110610b9857610b9861261f565b9050602002810190610baa9190612689565b85818110610bba57610bba61261f565b9050602002810190610bcc9190612689565b604051610bdb93929190612704565b60405180910390a280610bed816126e9565b915050610654565b5080610c00816126e9565b91505061055e565b50505050505050565b6033546001600160a01b03163314610c3b5760405162461bcd60e51b815260040161039a90612729565b610c43611aa7565b565b609754600160201b90046001600160a01b0316331480610cf75750609754604051637b41686d60e01b815260048101859052600160201b9091046001600160a01b031690637b41686d9060240160206040518083038186803b158015610caa57600080fd5b505afa158015610cbe573d6000803e3d6000fd5b505050506040513d601f19601f82011682018060405250810190610ce29190612635565b6001600160a01b0316336001600160a01b0316145b610d135760405162461bcd60e51b815260040161039a90612652565b60008381526099602090815260408083206001600160a01b0386168452600201825280832084845290915290205460ff16151560011415610dfb5760008381526099602090815260408083206001600160a01b03861684526001019091528120805491610d7f8361275e565b909155505060008381526099602090815260408083206001600160a01b03861680855260029091018352818420858552835292819020805460ff19169055805192835290820183905284917f9ce9ab1541dc1a870a882f9e2a7bd29a5041e4c2d6bdd2cb47da7f5c0bc03e1391015b60405180910390a2505050565b60405162461bcd60e51b8152602060048201526014602482015273546f6b656e4964206e6f7420616c6c6f7765642160601b604482015260640161039a565b505050565b600054610100900460ff16610e5a5760005460ff1615610e5e565b303b155b610ec15760405162461bcd60e51b815260206004820152602e60248201527f496e697469616c697a61626c653a20636f6e747261637420697320616c72656160448201526d191e481a5b9a5d1a585b1a5e995960921b606482015260840161039a565b600054610100900460ff16158015610ee3576000805461ffff19166101011790555b609780546001600160a01b03808616600160201b026001600160c01b0319909216919091176302ee05dc17909155609880549184166001600160a01b0319909216919091179055610f32611b3a565b610f3a611b69565b8015610e3a576000805461ff0019169055505050565b6033546001600160a01b03163314610f7a5760405162461bcd60e51b815260040161039a90612729565b60655460ff1615610f9d5760405162461bcd60e51b815260040161039a9061218b565b6097805463ffff000019166201000061ffff8416908102919091179091556040519081527fbe506fe4f6285e680de20e9c021ddfae052ca462d3ca93429e3e3aac5ad89803906020015b60405180910390a150565b609754600160201b90046001600160a01b03163314806110a45750609754604051637b41686d60e01b815260048101849052600160201b9091046001600160a01b031690637b41686d9060240160206040518083038186803b15801561105757600080fd5b505afa15801561106b573d6000803e3d6000fd5b505050506040513d601f19601f8201168201806040525081019061108f9190612635565b6001600160a01b0316336001600160a01b0316145b6110c05760405162461bcd60e51b815260040161039a90612652565b60008281526099602090815260408083206001600160a01b03851680855290835292819020805460ff191690555191825283917fe937f40377bdd86562a30d120cf76a1ea07cc0de3f0685f32dabb33739762ea991015b60405180910390a25050565b6033546001600160a01b0316331461114d5760405162461bcd60e51b815260040161039a90612729565b60655460ff16156111705760405162461bcd60e51b815260040161039a9061218b565b6097805461ffff191661ffff83169081179091556040519081527f89ca5fa36586def428993c4a97cf7eea1a13531071f301bb5f1398008da9d3bc90602001610fe7565b6033546001600160a01b031633146111de5760405162461bcd60e51b815260040161039a90612729565b610c436000611b98565b6033546001600160a01b031633146112125760405162461bcd60e51b815260040161039a90612729565b610c43611bea565b60655460ff161561123d5760405162461bcd60e51b815260040161039a9061218b565b6098546001600160a01b031633146112975760405162461bcd60e51b815260206004820152601f60248201527f4f6e6c79204576656e7420636f6e747261637420697320616c6c6f7765642100604482015260640161039a565b609754604051638a0c770160e01b8152600481018490526001600160a01b038381166024830152600160201b90920490911690638a0c770190604401600060405180830381600087803b1580156112ed57600080fd5b505af1158015611301573d6000803e3d6000fd5b50506040516001600160a01b03841681528492507f74a10ab8b8106921a945137cc7bc5007a2618bbefe949f1e11e04fd07d59c26b9150602001611117565b60008381526099602090815260408083206001600160a01b038616845290915281205460ff1680156113cc575060008481526099602090815260408083206001600160a01b038716845260010190915290205415806113cc575060008481526099602090815260408083206001600160a01b0387168452600201825280832085845290915290205460ff165b949350505050565b6098546040516331a9108f60e11b815260048101849052839133916001600160a01b0390911690636352211e9060240160206040518083038186803b15801561141c57600080fd5b505afa158015611430573d6000803e3d6000fd5b505050506040513d601f19601f820116820180604052508101906114549190612635565b6001600160a01b0316146114aa5760405162461bcd60e51b815260206004820152601860248201527f4f6e6c792063726561746f7220697320616c6c6f776564210000000000000000604482015260640161039a565b60655460ff16156114cd5760405162461bcd60e51b815260040161039a9061218b565b60975460405163d411a7c760e01b81526004810185905260248101849052600160201b9091046001600160a01b03169063d411a7c790604401600060405180830381600087803b15801561152057600080fd5b505af1158015611534573d6000803e3d6000fd5b50505050827fc5bac6c600b65335a8baf4b0b32ed562307c63b916100134eea3629abae2042a83604051610dee91815260200190565b60655460ff161561158d5760405162461bcd60e51b815260040161039a9061218b565b6098546040516331a9108f60e11b815260048101859052849133916001600160a01b0390911690636352211e9060240160206040518083038186803b1580156115d557600080fd5b505afa1580156115e9573d6000803e3d6000fd5b505050506040513d601f19601f8201168201806040525081019061160d9190612635565b6001600160a01b031614806116a35750336001600160a01b0316306001600160a01b0316638da5cb5b6040518163ffffffff1660e01b815260040160206040518083038186803b15801561166057600080fd5b505afa158015611674573d6000803e3d6000fd5b505050506040513d601f19601f820116820180604052508101906116989190612635565b6001600160a01b0316145b6116de5760405162461bcd60e51b815260206004820152600c60248201526b4e6f7420616c6c6f7765642160a01b604482015260640161039a565b609854604051630588253160e21b81526001600160a01b039091169063162094c49061171290879087908790600401612775565b600060405180830381600087803b15801561172c57600080fd5b505af1158015611740573d6000803e3d6000fd5b50505050837f9f94ecc1e535a2ab156118309c2a92f77a424118d09ee982536ede8604d43579848460405161177692919061278f565b60405180910390a250505050565b6033546001600160a01b031633146117ae5760405162461bcd60e51b815260040161039a90612729565b6001600160a01b0381166118135760405162461bcd60e51b815260206004820152602660248201527f4f776e61626c653a206e6577206f776e657220697320746865207a65726f206160448201526564647265737360d01b606482015260840161039a565b61181c81611b98565b50565b60655460ff16156118425760405162461bcd60e51b815260040161039a9061218b565b6098546040516331a9108f60e11b815260048101839052829133916001600160a01b0390911690636352211e9060240160206040518083038186803b15801561188a57600080fd5b505afa15801561189e573d6000803e3d6000fd5b505050506040513d601f19601f820116820180604052508101906118c29190612635565b6001600160a01b031614806119585750336001600160a01b0316306001600160a01b0316638da5cb5b6040518163ffffffff1660e01b815260040160206040518083038186803b15801561191557600080fd5b505afa158015611929573d6000803e3d6000fd5b505050506040513d601f19601f8201168201806040525081019061194d9190612635565b6001600160a01b0316145b6119935760405162461bcd60e51b815260206004820152600c60248201526b4e6f7420616c6c6f7765642160a01b604482015260640161039a565b609754604051631f0e934b60e31b815260048101849052600160201b9091046001600160a01b03169063f8749a5890602401600060405180830381600087803b1580156119df57600080fd5b505af11580156119f3573d6000803e3d6000fd5b5050609854604051630852cd8d60e31b8152600481018690526001600160a01b0390911692506342966c689150602401600060405180830381600087803b158015611a3d57600080fd5b505af1158015611a51573d6000803e3d6000fd5b50506040518492507f24089da2b94d456671c6e08e154081718367fe1b3eb2bf048f9ded0b2ce2270a9150600090a25050565b6000611a8f83611c42565b8015611aa05750611aa08383611c75565b9392505050565b60655460ff16611af05760405162461bcd60e51b815260206004820152601460248201527314185d5cd8589b194e881b9bdd081c185d5cd95960621b604482015260640161039a565b6065805460ff191690557f5db9ee0a495bf2e6ff9c91a7834c1ba4fdd244a5e8aa4e537bd38aeae4b073aa335b6040516001600160a01b03909116815260200160405180910390a1565b600054610100900460ff16611b615760405162461bcd60e51b815260040161039a906127a3565b610c43611d5e565b600054610100900460ff16611b905760405162461bcd60e51b815260040161039a906127a3565b610c43611d8e565b603380546001600160a01b038381166001600160a01b0319831681179093556040519116919082907f8be0079c531659141344cd1fd0a4f28419497f9722a3daafe3b4186f6b6457e090600090a35050565b60655460ff1615611c0d5760405162461bcd60e51b815260040161039a9061218b565b6065805460ff191660011790557f62e78cea01bee320cd4e420270b5ea74000d11b0c9f74754ebdbfc544b05a258611b1d3390565b6000611c55826301ffc9a760e01b611c75565b80156105325750611c6e826001600160e01b0319611c75565b1592915050565b604080516001600160e01b0319831660248083019190915282518083039091018152604490910182526020810180516001600160e01b03166301ffc9a760e01b179052905160009190829081906001600160a01b0387169061753090611cdc9086906127ee565b6000604051808303818686fa925050503d8060008114611d18576040519150601f19603f3d011682016040523d82523d6000602084013e611d1d565b606091505b5091509150602081511015611d385760009350505050610532565b818015611d54575080806020019051810190611d54919061280a565b9695505050505050565b600054610100900460ff16611d855760405162461bcd60e51b815260040161039a906127a3565b610c4333611b98565b600054610100900460ff16611db55760405162461bcd60e51b815260040161039a906127a3565b6065805460ff19169055565b634e487b7160e01b600052604160045260246000fd5b604051601f8201601f1916810167ffffffffffffffff81118282101715611e0057611e00611dc1565b604052919050565b60008083601f840112611e1a57600080fd5b50813567ffffffffffffffff811115611e3257600080fd5b6020830191508360208260051b8501011115611e4d57600080fd5b9250929050565b600060408284031215611e6657600080fd5b50919050565b60008060008060608587031215611e8257600080fd5b843567ffffffffffffffff80821115611e9a57600080fd5b818701915087601f830112611eae57600080fd5b8135602082821115611ec257611ec2611dc1565b611ed4601f8301601f19168201611dd7565b8281528a82848701011115611ee857600080fd5b82828601838301376000928101820192909252909650870135915080821115611f1057600080fd5b611f1c88838901611e08565b90955093506040870135915080821115611f3557600080fd5b50611f4287828801611e54565b91505092959194509250565b6001600160a01b038116811461181c57600080fd5b60008060408385031215611f7657600080fd5b823591506020830135611f8881611f4e565b809150509250929050565b60008060008060008060608789031215611fac57600080fd5b863567ffffffffffffffff80821115611fc457600080fd5b611fd08a838b01611e08565b90985096506020890135915080821115611fe957600080fd5b611ff58a838b01611e08565b9096509450604089013591508082111561200e57600080fd5b5061201b89828a01611e08565b979a9699509497509295939492505050565b60008060006060848603121561204257600080fd5b83359250602084013561205481611f4e565b929592945050506040919091013590565b6000806040838503121561207857600080fd5b823561208381611f4e565b91506020830135611f8881611f4e565b6000602082840312156120a557600080fd5b813561ffff81168114611aa057600080fd5b600080604083850312156120ca57600080fd5b50508035926020909101359150565b6000806000604084860312156120ee57600080fd5b83359250602084013567ffffffffffffffff8082111561210d57600080fd5b818601915086601f83011261212157600080fd5b81358181111561213057600080fd5b87602082850101111561214257600080fd5b6020830194508093505050509250925092565b60006020828403121561216757600080fd5b8135611aa081611f4e565b60006020828403121561218457600080fd5b5035919050565b60208082526010908201526f14185d5cd8589b194e881c185d5cd95960821b604082015260600190565b60005b838110156121d05781810151838201526020016121b8565b838111156121df576000848401525b50505050565b60018060a01b038316815260406020820152600082518060408401526122128160608501602087016121b5565b601f01601f1916919091016060019392505050565b60006020828403121561223957600080fd5b5051919050565b801515811461181c57600080fd5b81835281816020850137506000828201602090810191909152601f909101601f19169091010190565b6000808335601e1984360301811261228e57600080fd5b830160208101925035905067ffffffffffffffff8111156122ae57600080fd5b8060051b3603831315611e4d57600080fd5b81835260006001600160fb1b038311156122d957600080fd5b8260051b8083602087013760009401602001938452509192915050565b81835260006020808501945084600585811b8701856000805b89811015612387578584038b52612326838a612277565b80865288860181881b87018a0183865b8481101561237057898303601f190184526123518287612277565b61235c8582846122c0565b958f019594505050908c0190600101612336565b50509d8a019d96505050928701925060010161230f565b50919998505050505050505050565b6000604083016123a68384612277565b604086528281845260608701905060608260051b8801019350826000805b8481101561242f57898703605f190184526123df8387612277565b8089526020808a0190855b838110156124185784356123fd81611f4e565b6001600160a01b0316835293810193918101916001016123ea565b5090995095860195949094019350506001016123c4565b5050505050506124426020840184612277565b8583036020870152611d548382846122f6565b8581526001600160a01b0385166020808301919091526080604080840182905283820186905260009260a091828601600589901b870184018a875b8b81101561255457898303609f190184528135368e900360be190181126124b657600080fd5b8d0180358452868101358785015285810135868501526060808201359085015260c0898201356124e581612240565b1515858b01528189013536839003601e1901811261250257600080fd5b8201803567ffffffffffffffff81111561251b57600080fd5b80360384131561252a57600080fd5b828b88015261253e838801828c850161224e565b978a019796505050928701925050600101612490565b50508781036060890152612568818a612396565b9d9c50505050505050505050505050565b6000602080838503121561258c57600080fd5b825167ffffffffffffffff808211156125a457600080fd5b818501915085601f8301126125b857600080fd5b8151818111156125ca576125ca611dc1565b8060051b91506125db848301611dd7565b81815291830184019184810190888411156125f557600080fd5b938501935b83851015612613578451825293850193908501906125fa565b98975050505050505050565b634e487b7160e01b600052603260045260246000fd5b60006020828403121561264757600080fd5b8151611aa081611f4e565b6020808252601c908201527f4f6e6c79204d61726b6574706c616365206f722063726561746f722100000000604082015260600190565b6000808335601e198436030181126126a057600080fd5b83018035915067ffffffffffffffff8211156126bb57600080fd5b6020019150600581901b3603821315611e4d57600080fd5b634e487b7160e01b600052601160045260246000fd5b60006000198214156126fd576126fd6126d3565b5060010190565b6001600160a01b038416815260406020820181905260009061050090830184866122c0565b6020808252818101527f4f776e61626c653a2063616c6c6572206973206e6f7420746865206f776e6572604082015260600190565b60008161276d5761276d6126d3565b506000190190565b83815260406020820152600061050060408301848661224e565b6020815260006113cc60208301848661224e565b6020808252602b908201527f496e697469616c697a61626c653a20636f6e7472616374206973206e6f74206960408201526a6e697469616c697a696e6760a81b606082015260800190565b600082516128008184602087016121b5565b9190910192915050565b60006020828403121561281c57600080fd5b8151611aa08161224056fea26469706673582212207f5af65863c81aa116331474eae5b0b51ffce296f85fff2239c40c99d250a0ee64736f6c63430008090033",
  "linkReferences": {},
  "deployedLinkReferences": {}
}