{
  "_format": "hh-sol-artifact-1",
  "contractName": "Admin",
  "sourceName": "src/Admin.sol",
  "abi": [
    {
      "anonymous": false,
      "inputs": [
        {
          "indexed": true,
          "internalType": "uint256",
          "name": "eventId",
          "type": "uint256"
        },
        {
          "indexed": false,
          "internalType": "uint256",
          "name": "newRoyalty",
          "type": "uint256"
        }
      ],
      "name": "CreatorRoyaltyModifiedOnEvent",
      "type": "event"
    },
    {
      "anonymous": false,
      "inputs": [
        {
          "indexed": true,
          "internalType": "uint256",
          "name": "eventId",
          "type": "uint256"
        },
        {
          "indexed": false,
          "internalType": "address",
          "name": "organizer",
          "type": "address"
        },
        {
          "indexed": false,
          "internalType": "string",
          "name": "uri",
          "type": "string"
        }
      ],
      "name": "EventCreated",
      "type": "event"
    },
    {
      "anonymous": false,
      "inputs": [
        {
          "indexed": true,
          "internalType": "uint256",
          "name": "eventId",
          "type": "uint256"
        }
      ],
      "name": "EventDeleted",
      "type": "event"
    },
    {
      "anonymous": false,
      "inputs": [
        {
          "indexed": true,
          "internalType": "uint256",
          "name": "eventId",
          "type": "uint256"
        },
        {
          "indexed": false,
          "internalType": "string",
          "name": "newUri",
          "type": "string"
        }
      ],
      "name": "EventEdited",
      "type": "event"
    },
    {
      "anonymous": false,
      "inputs": [
        {
          "indexed": true,
          "internalType": "uint256",
          "name": "eventId",
          "type": "uint256"
        },
        {
          "indexed": false,
          "internalType": "address",
          "name": "newOwner",
          "type": "address"
        }
      ],
      "name": "EventOwnershipTransferred",
      "type": "event"
    },
    {
      "anonymous": false,
      "inputs": [
        {
          "indexed": true,
          "internalType": "uint256",
          "name": "ticketId",
          "type": "uint256"
        },
        {
          "indexed": false,
          "internalType": "address",
          "name": "contractAddress",
          "type": "address"
        },
        {
          "indexed": false,
          "internalType": "uint256[]",
          "name": "ids",
          "type": "uint256[]"
        }
      ],
      "name": "MembershipAssignedToTicket",
      "type": "event"
    },
    {
      "anonymous": false,
      "inputs": [
        {
          "indexed": true,
          "internalType": "uint256",
          "name": "ticketId",
          "type": "uint256"
        },
        {
          "indexed": false,
          "internalType": "address",
          "name": "contractAddress",
          "type": "address"
        }
      ],
      "name": "MembershipRemovedFromTicket",
      "type": "event"
    },
    {
      "anonymous": false,
      "inputs": [
        {
          "indexed": true,
          "internalType": "uint256",
          "name": "ticketId",
          "type": "uint256"
        },
        {
          "indexed": false,
          "internalType": "address",
          "name": "contractAddress",
          "type": "address"
        },
        {
          "indexed": false,
          "internalType": "uint256",
          "name": "tokenId",
          "type": "uint256"
        }
      ],
      "name": "MembershipTokenIdRemovedFromTicket",
      "type": "event"
    },
    {
      "anonymous": false,
      "inputs": [
        {
          "indexed": true,
          "internalType": "address",
          "name": "previousOwner",
          "type": "address"
        },
        {
          "indexed": true,
          "internalType": "address",
          "name": "newOwner",
          "type": "address"
        }
      ],
      "name": "OwnershipTransferred",
      "type": "event"
    },
    {
      "anonymous": false,
      "inputs": [
        {
          "indexed": false,
          "internalType": "address",
          "name": "account",
          "type": "address"
        }
      ],
      "name": "Paused",
      "type": "event"
    },
    {
      "anonymous": false,
      "inputs": [
        {
          "indexed": false,
          "internalType": "uint256",
          "name": "newRoyalty",
          "type": "uint256"
        }
      ],
      "name": "PrimaryMarketRoyaltyModified",
      "type": "event"
    },
    {
      "anonymous": false,
      "inputs": [
        {
          "indexed": true,
          "internalType": "uint256",
          "name": "eventId",
          "type": "uint256"
        },
        {
          "indexed": false,
          "internalType": "uint256",
          "name": "newRoyalty",
          "type": "uint256"
        }
      ],
      "name": "PrimaryMarketRoyaltyModifiedOnEvent",
      "type": "event"
    },
    {
      "anonymous": false,
      "inputs": [
        {
          "indexed": false,
          "internalType": "uint256",
          "name": "newRoyalty",
          "type": "uint256"
        }
      ],
      "name": "SecondaryMarketRoyaltyModified",
      "type": "event"
    },
    {
      "anonymous": false,
      "inputs": [
        {
          "indexed": true,
          "internalType": "uint256",
          "name": "eventId",
          "type": "uint256"
        },
        {
          "indexed": false,
          "internalType": "uint256",
          "name": "newRoyalty",
          "type": "uint256"
        }
      ],
      "name": "SecondaryMarketRoyaltyModifiedOnEvent",
      "type": "event"
    },
    {
      "anonymous": false,
      "inputs": [
        {
          "indexed": false,
          "internalType": "address",
          "name": "account",
          "type": "address"
        }
      ],
      "name": "Unpaused",
      "type": "event"
    },
    {
      "inputs": [
        {
          "internalType": "uint256",
          "name": "eventId",
          "type": "uint256"
        },
        {
          "internalType": "address",
          "name": "newOwner",
          "type": "address"
        }
      ],
      "name": "changeEventOwnership",
      "outputs": [],
      "stateMutability": "nonpayable",
      "type": "function"
    },
    {
      "inputs": [
        {
          "internalType": "address",
          "name": "organizer",
          "type": "address"
        },
        {
          "internalType": "string",
          "name": "eventUri",
          "type": "string"
        },
        {
          "components": [
            {
              "internalType": "uint256",
              "name": "amount",
              "type": "uint256"
            },
            {
              "internalType": "uint256",
              "name": "price",
              "type": "uint256"
            },
            {
              "internalType": "uint256",
              "name": "royalty",
              "type": "uint256"
            },
            {
              "internalType": "uint256",
              "name": "amountToSell",
              "type": "uint256"
            },
            {
              "internalType": "bool",
              "name": "isResellable",
              "type": "bool"
            },
            {
              "internalType": "string",
              "name": "uri",
              "type": "string"
            }
          ],
          "internalType": "struct NewAssetSaleInfo[]",
          "name": "tickets",
          "type": "tuple[]"
        }
      ],
      "name": "createEvent",
      "outputs": [
        {
          "internalType": "uint256",
          "name": "",
          "type": "uint256"
        }
      ],
      "stateMutability": "nonpayable",
      "type": "function"
    },
    {
      "inputs": [
        {
          "internalType": "uint256",
          "name": "eventId",
          "type": "uint256"
        }
      ],
      "name": "deleteEvent",
      "outputs": [],
      "stateMutability": "nonpayable",
      "type": "function"
    },
    {
      "inputs": [
        {
          "internalType": "uint256",
          "name": "ticketId",
          "type": "uint256"
        },
        {
          "internalType": "address",
          "name": "contractAddress",
          "type": "address"
        }
      ],
      "name": "disallowMembershipForTicket",
      "outputs": [],
      "stateMutability": "nonpayable",
      "type": "function"
    },
    {
      "inputs": [
        {
          "internalType": "uint256",
          "name": "ticketId",
          "type": "uint256"
        },
        {
          "internalType": "address",
          "name": "contractAddress",
          "type": "address"
        },
        {
          "internalType": "uint256",
          "name": "tokenId",
          "type": "uint256"
        }
      ],
      "name": "disallowMembershipTokenIdForTicket",
      "outputs": [],
      "stateMutability": "nonpayable",
      "type": "function"
    },
    {
      "inputs": [],
      "name": "eventAddress",
      "outputs": [
        {
          "internalType": "address",
          "name": "",
          "type": "address"
        }
      ],
      "stateMutability": "view",
      "type": "function"
    },
    {
      "inputs": [
        {
          "internalType": "address",
          "name": "_ticketMarketplaceAddress",
          "type": "address"
        },
        {
          "internalType": "address",
          "name": "_eventAddress",
          "type": "address"
        }
      ],
      "name": "initialize",
      "outputs": [],
      "stateMutability": "nonpayable",
      "type": "function"
    },
    {
      "inputs": [
        {
          "internalType": "uint256",
          "name": "ticketId",
          "type": "uint256"
        },
        {
          "internalType": "address",
          "name": "contractAddress",
          "type": "address"
        }
      ],
      "name": "isMembershipAllowedForTicket",
      "outputs": [
        {
          "internalType": "bool",
          "name": "",
          "type": "bool"
        }
      ],
      "stateMutability": "view",
      "type": "function"
    },
    {
      "inputs": [
        {
          "internalType": "uint256",
          "name": "ticketId",
          "type": "uint256"
        },
        {
          "internalType": "address",
          "name": "contractAddress",
          "type": "address"
        },
        {
          "internalType": "uint256",
          "name": "tokenId",
          "type": "uint256"
        }
      ],
      "name": "isTokenIdAllowedForTicket",
      "outputs": [
        {
          "internalType": "bool",
          "name": "",
          "type": "bool"
        }
      ],
      "stateMutability": "view",
      "type": "function"
    },
    {
      "inputs": [
        {
          "internalType": "uint256",
          "name": "ticketId",
          "type": "uint256"
        },
        {
          "internalType": "address",
          "name": "contractAddress",
          "type": "address"
        }
      ],
      "name": "isTokenIdNeededForTicket",
      "outputs": [
        {
          "internalType": "bool",
          "name": "",
          "type": "bool"
        }
      ],
      "stateMutability": "view",
      "type": "function"
    },
    {
      "inputs": [
        {
          "internalType": "uint256",
          "name": "eventId",
          "type": "uint256"
        },
        {
          "internalType": "uint256",
          "name": "newCreatorRoyalty",
          "type": "uint256"
        }
      ],
      "name": "modifyCreatorRoyaltyOnEvent",
      "outputs": [],
      "stateMutability": "nonpayable",
      "type": "function"
    },
    {
      "inputs": [
        {
          "internalType": "uint16",
          "name": "newMarketplaceRoyalty",
          "type": "uint16"
        }
      ],
      "name": "modifyPrimaryMarketplaceRoyalty",
      "outputs": [],
      "stateMutability": "nonpayable",
      "type": "function"
    },
    {
      "inputs": [
        {
          "internalType": "uint16",
          "name": "newMarketplaceRoyalty",
          "type": "uint16"
        }
      ],
      "name": "modifySecondaryMarketplaceRoyalty",
      "outputs": [],
      "stateMutability": "nonpayable",
      "type": "function"
    },
    {
      "inputs": [],
      "name": "owner",
      "outputs": [
        {
          "internalType": "address",
          "name": "",
          "type": "address"
        }
      ],
      "stateMutability": "view",
      "type": "function"
    },
    {
      "inputs": [],
      "name": "pause",
      "outputs": [],
      "stateMutability": "nonpayable",
      "type": "function"
    },
    {
      "inputs": [],
      "name": "paused",
      "outputs": [
        {
          "internalType": "bool",
          "name": "",
          "type": "bool"
        }
      ],
      "stateMutability": "view",
      "type": "function"
    },
    {
      "inputs": [],
      "name": "primaryMarketplaceRoyalty",
      "outputs": [
        {
          "internalType": "uint16",
          "name": "",
          "type": "uint16"
        }
      ],
      "stateMutability": "view",
      "type": "function"
    },
    {
      "inputs": [],
      "name": "renounceOwnership",
      "outputs": [],
      "stateMutability": "nonpayable",
      "type": "function"
    },
    {
      "inputs": [],
      "name": "secondaryMarketplaceRoyalty",
      "outputs": [
        {
          "internalType": "uint16",
          "name": "",
          "type": "uint16"
        }
      ],
      "stateMutability": "view",
      "type": "function"
    },
    {
      "inputs": [
        {
          "internalType": "uint256",
          "name": "eventId",
          "type": "uint256"
        },
        {
          "internalType": "string",
          "name": "newUri",
          "type": "string"
        }
      ],
      "name": "setEventUri",
      "outputs": [],
      "stateMutability": "nonpayable",
      "type": "function"
    },
    {
      "inputs": [],
      "name": "ticketMarketplaceAddress",
      "outputs": [
        {
          "internalType": "address",
          "name": "",
          "type": "address"
        }
      ],
      "stateMutability": "view",
      "type": "function"
    },
    {
      "inputs": [
        {
          "internalType": "address",
          "name": "newOwner",
          "type": "address"
        }
      ],
      "name": "transferOwnership",
      "outputs": [],
      "stateMutability": "nonpayable",
      "type": "function"
    },
    {
      "inputs": [],
      "name": "unpause",
      "outputs": [],
      "stateMutability": "nonpayable",
      "type": "function"
    }
  ],
  "bytecode": "0x608060405234801561001057600080fd5b50612875806100206000396000f3fe608060405234801561001057600080fd5b50600436106101585760003560e01c80638da5cb5b116100c3578063d411a7c71161007c578063d411a7c7146102d7578063e8f0f580146102ea578063f2fde38b146102fd578063f363fb0514610310578063f8749a5814610349578063fad567791461035c57600080fd5b80638da5cb5b1461023d5780639119ffd914610262578063a696ac7b14610283578063b13eb65914610297578063b4785bde146102aa578063c8be174f146102c457600080fd5b80634c88afe4116101155780634c88afe4146101e957806355a76d4b146101fc5780635c975abb1461020f5780635ca1c6591461021a578063715018a61461022d5780638456cb591461023557600080fd5b80630ba7edf91461015d5780630c341f9a1461018357806310e6e83e146101a65780633f4ba83a146101bb578063434e58dd146101c3578063485cc955146101d6575b600080fd5b60975461016b9061ffff1681565b60405161ffff90911681526020015b60405180910390f35b610196610191366004611dcd565b61036f565b604051901515815260200161017a565b6101b96101b4366004611e49565b61039e565b005b6101b9610a80565b6101b96101d1366004611ee3565b610ab4565b6101b96101e4366004611f1b565b610cae565b6101b96101f7366004611f49565b610dbf565b6101b961020a366004611dcd565b610e61565b60655460ff16610196565b6101b9610228366004611f49565b610f92565b6101b9611023565b6101b9611057565b6033546001600160a01b03165b6040516001600160a01b03909116815260200161017a565b610275610270366004611fcc565b611089565b60405190815260200161017a565b60975461016b9062010000900461ffff1681565b6101b96102a5366004611dcd565b61121b565b60975461024a90600160201b90046001600160a01b031681565b6101966102d2366004611ee3565b611341565b6101b96102e53660046120c3565b6113d5565b6101b96102f83660046120e5565b61156b565b6101b961030b366004612161565b611785565b61019661031e366004611dcd565b60009182526099602090815260408084206001600160a01b0393909316845291905290205460ff1690565b6101b961035736600461217e565b611820565b60985461024a906001600160a01b031681565b60008281526099602090815260408083206001600160a01b038516845260010190915290205415155b92915050565b60655460ff16156103ca5760405162461bcd60e51b81526004016103c190612197565b60405180910390fd5b60005b85811015610a7757609754600160201b90046001600160a01b03163314806104a45750609754600160201b90046001600160a01b0316637b41686d88888481811061041a5761041a6121c1565b905060200201356040518263ffffffff1660e01b815260040161043f91815260200190565b60206040518083038186803b15801561045757600080fd5b505afa15801561046b573d6000803e3d6000fd5b505050506040513d601f19601f8201168201806040525081019061048f91906121d7565b6001600160a01b0316336001600160a01b0316145b6104c05760405162461bcd60e51b81526004016103c1906121f4565b60005b8585838181106104d5576104d56121c1565b90506020028101906104e7919061222b565b9050811015610a6457610549868684818110610505576105056121c1565b9050602002810190610517919061222b565b83818110610527576105276121c1565b905060200201602081019061053c9190612161565b636cdb3d1360e11b611a85565b806105a857506105a8868684818110610564576105646121c1565b9050602002810190610576919061222b565b83818110610586576105866121c1565b905060200201602081019061059b9190612161565b6380ac58cd60e01b611a85565b6105f45760405162461bcd60e51b815260206004820152601c60248201527f53686f756c6420626520455243373231206f722045524331313535210000000060448201526064016103c1565b6001609960008a8a8681811061060c5761060c6121c1565b9050602002013581526020019081526020016000206000016000888886818110610638576106386121c1565b905060200281019061064a919061222b565b8581811061065a5761065a6121c1565b905060200201602081019061066f9190612161565b6001600160a01b031681526020810191909152604001600020805460ff19169115159190911790556106ac868684818110610505576105056121c1565b156107485760008484848181106106c5576106c56121c1565b90506020028101906106d7919061222b565b838181106106e7576106e76121c1565b90506020028101906106f9919061222b565b9050116107485760405162461bcd60e51b815260206004820152601a60248201527f4552433131353520726571756972657320746f6b656e4964732100000000000060448201526064016103c1565b60005b84848481811061075d5761075d6121c1565b905060200281019061076f919061222b565b8381811061077f5761077f6121c1565b9050602002810190610791919061222b565b905081101561097157609960008a8a868181106107b0576107b06121c1565b90506020020135815260200190815260200160002060010160008888868181106107dc576107dc6121c1565b90506020028101906107ee919061222b565b858181106107fe576107fe6121c1565b90506020020160208101906108139190612161565b6001600160a01b031681526020810191909152604001600090812080549161083a8361228b565b91905055506001609960008b8b87818110610857576108576121c1565b9050602002013581526020019081526020016000206002016000898987818110610883576108836121c1565b9050602002810190610895919061222b565b868181106108a5576108a56121c1565b90506020020160208101906108ba9190612161565b6001600160a01b03166001600160a01b0316815260200190815260200160002060008787878181106108ee576108ee6121c1565b9050602002810190610900919061222b565b86818110610910576109106121c1565b9050602002810190610922919061222b565b85818110610932576109326121c1565b90506020020135815260200190815260200160002060006101000a81548160ff02191690831515021790555080806109699061228b565b91505061074b565b50878783818110610984576109846121c1565b905060200201357f55b427e2bb93f69f96cb6bdae82d8184cb4f1a461b729b335be1a6f2d39435568787858181106109be576109be6121c1565b90506020028101906109d0919061222b565b848181106109e0576109e06121c1565b90506020020160208101906109f59190612161565b868686818110610a0757610a076121c1565b9050602002810190610a19919061222b565b85818110610a2957610a296121c1565b9050602002810190610a3b919061222b565b604051610a4a939291906122dc565b60405180910390a280610a5c8161228b565b9150506104c3565b5080610a6f8161228b565b9150506103cd565b50505050505050565b6033546001600160a01b03163314610aaa5760405162461bcd60e51b81526004016103c19061230a565b610ab2611aa8565b565b609754600160201b90046001600160a01b0316331480610b665750609754604051637b41686d60e01b815260048101859052600160201b9091046001600160a01b031690637b41686d9060240160206040518083038186803b158015610b1957600080fd5b505afa158015610b2d573d6000803e3d6000fd5b505050506040513d601f19601f82011682018060405250810190610b5191906121d7565b6001600160a01b0316336001600160a01b0316145b610b825760405162461bcd60e51b81526004016103c1906121f4565b60008381526099602090815260408083206001600160a01b0386168452600201825280832084845290915290205460ff16151560011415610c6a5760008381526099602090815260408083206001600160a01b03861684526001019091528120805491610bee8361233f565b909155505060008381526099602090815260408083206001600160a01b03861680855260029091018352818420858552835292819020805460ff19169055805192835290820183905284917f9ce9ab1541dc1a870a882f9e2a7bd29a5041e4c2d6bdd2cb47da7f5c0bc03e1391015b60405180910390a2505050565b60405162461bcd60e51b8152602060048201526014602482015273546f6b656e4964206e6f7420616c6c6f7765642160601b60448201526064016103c1565b505050565b600054610100900460ff16610cc95760005460ff1615610ccd565b303b155b610d305760405162461bcd60e51b815260206004820152602e60248201527f496e697469616c697a61626c653a20636f6e747261637420697320616c72656160448201526d191e481a5b9a5d1a585b1a5e995960921b60648201526084016103c1565b600054610100900460ff16158015610d52576000805461ffff19166101011790555b609780546001600160a01b03808616600160201b026001600160c01b0319909216919091176302ee05dc17909155609880549184166001600160a01b0319909216919091179055610da1611b3b565b610da9611b6a565b8015610ca9576000805461ff0019169055505050565b6033546001600160a01b03163314610de95760405162461bcd60e51b81526004016103c19061230a565b60655460ff1615610e0c5760405162461bcd60e51b81526004016103c190612197565b6097805463ffff000019166201000061ffff8416908102919091179091556040519081527fbe506fe4f6285e680de20e9c021ddfae052ca462d3ca93429e3e3aac5ad89803906020015b60405180910390a150565b609754600160201b90046001600160a01b0316331480610f135750609754604051637b41686d60e01b815260048101849052600160201b9091046001600160a01b031690637b41686d9060240160206040518083038186803b158015610ec657600080fd5b505afa158015610eda573d6000803e3d6000fd5b505050506040513d601f19601f82011682018060405250810190610efe91906121d7565b6001600160a01b0316336001600160a01b0316145b610f2f5760405162461bcd60e51b81526004016103c1906121f4565b60008281526099602090815260408083206001600160a01b03851680855290835292819020805460ff191690555191825283917fe937f40377bdd86562a30d120cf76a1ea07cc0de3f0685f32dabb33739762ea991015b60405180910390a25050565b6033546001600160a01b03163314610fbc5760405162461bcd60e51b81526004016103c19061230a565b60655460ff1615610fdf5760405162461bcd60e51b81526004016103c190612197565b6097805461ffff191661ffff83169081179091556040519081527f89ca5fa36586def428993c4a97cf7eea1a13531071f301bb5f1398008da9d3bc90602001610e56565b6033546001600160a01b0316331461104d5760405162461bcd60e51b81526004016103c19061230a565b610ab26000611b99565b6033546001600160a01b031633146110815760405162461bcd60e51b81526004016103c19061230a565b610ab2611beb565b600061109760655460ff1690565b156110b45760405162461bcd60e51b81526004016103c190612197565b609854604051636902622f60e11b81526000916001600160a01b03169063d204c45e906110e7908a908a90600401612386565b602060405180830381600087803b15801561110157600080fd5b505af1158015611115573d6000803e3d6000fd5b505050506040513d601f19601f8201168201806040525081019061113991906123c8565b9050807ffc695dea2478fb938a11068aeedddd7046a5fe655f136e30a325d353fe187a45888860405161116d929190612386565b60405180910390a2831561121157609754604051630f2f2c7960e01b8152600160201b9091046001600160a01b031690630f2f2c79906111b99084908b908a908a908a906004016125c3565b600060405180830381600087803b1580156111d357600080fd5b505af11580156111e7573d6000803e3d6000fd5b505050506040513d6000823e601f3d908101601f1916820160405261120f91908101906126e7565b505b9695505050505050565b60655460ff161561123e5760405162461bcd60e51b81526004016103c190612197565b6098546001600160a01b031633146112985760405162461bcd60e51b815260206004820152601f60248201527f4f6e6c79204576656e7420636f6e747261637420697320616c6c6f776564210060448201526064016103c1565b609754604051638a0c770160e01b8152600481018490526001600160a01b038381166024830152600160201b90920490911690638a0c770190604401600060405180830381600087803b1580156112ee57600080fd5b505af1158015611302573d6000803e3d6000fd5b50506040516001600160a01b03841681528492507f74a10ab8b8106921a945137cc7bc5007a2618bbefe949f1e11e04fd07d59c26b9150602001610f86565b60008381526099602090815260408083206001600160a01b038616845290915281205460ff1680156113cd575060008481526099602090815260408083206001600160a01b038716845260010190915290205415806113cd575060008481526099602090815260408083206001600160a01b0387168452600201825280832085845290915290205460ff165b949350505050565b6098546040516331a9108f60e11b815260048101849052839133916001600160a01b0390911690636352211e9060240160206040518083038186803b15801561141d57600080fd5b505afa158015611431573d6000803e3d6000fd5b505050506040513d601f19601f8201168201806040525081019061145591906121d7565b6001600160a01b0316146114ab5760405162461bcd60e51b815260206004820152601860248201527f4f6e6c792063726561746f7220697320616c6c6f77656421000000000000000060448201526064016103c1565b60655460ff16156114ce5760405162461bcd60e51b81526004016103c190612197565b60975460405163d411a7c760e01b81526004810185905260248101849052600160201b9091046001600160a01b03169063d411a7c790604401600060405180830381600087803b15801561152157600080fd5b505af1158015611535573d6000803e3d6000fd5b50505050827fc5bac6c600b65335a8baf4b0b32ed562307c63b916100134eea3629abae2042a83604051610c5d91815260200190565b60655460ff161561158e5760405162461bcd60e51b81526004016103c190612197565b6098546040516331a9108f60e11b815260048101859052849133916001600160a01b0390911690636352211e9060240160206040518083038186803b1580156115d657600080fd5b505afa1580156115ea573d6000803e3d6000fd5b505050506040513d601f19601f8201168201806040525081019061160e91906121d7565b6001600160a01b031614806116a45750336001600160a01b0316306001600160a01b0316638da5cb5b6040518163ffffffff1660e01b815260040160206040518083038186803b15801561166157600080fd5b505afa158015611675573d6000803e3d6000fd5b505050506040513d601f19601f8201168201806040525081019061169991906121d7565b6001600160a01b0316145b6116df5760405162461bcd60e51b815260206004820152600c60248201526b4e6f7420616c6c6f7765642160a01b60448201526064016103c1565b609854604051630588253160e21b81526001600160a01b039091169063162094c4906117139087908790879060040161278d565b600060405180830381600087803b15801561172d57600080fd5b505af1158015611741573d6000803e3d6000fd5b50505050837f9f94ecc1e535a2ab156118309c2a92f77a424118d09ee982536ede8604d4357984846040516117779291906127a7565b60405180910390a250505050565b6033546001600160a01b031633146117af5760405162461bcd60e51b81526004016103c19061230a565b6001600160a01b0381166118145760405162461bcd60e51b815260206004820152602660248201527f4f776e61626c653a206e6577206f776e657220697320746865207a65726f206160448201526564647265737360d01b60648201526084016103c1565b61181d81611b99565b50565b60655460ff16156118435760405162461bcd60e51b81526004016103c190612197565b6098546040516331a9108f60e11b815260048101839052829133916001600160a01b0390911690636352211e9060240160206040518083038186803b15801561188b57600080fd5b505afa15801561189f573d6000803e3d6000fd5b505050506040513d601f19601f820116820180604052508101906118c391906121d7565b6001600160a01b031614806119595750336001600160a01b0316306001600160a01b0316638da5cb5b6040518163ffffffff1660e01b815260040160206040518083038186803b15801561191657600080fd5b505afa15801561192a573d6000803e3d6000fd5b505050506040513d601f19601f8201168201806040525081019061194e91906121d7565b6001600160a01b0316145b6119945760405162461bcd60e51b815260206004820152600c60248201526b4e6f7420616c6c6f7765642160a01b60448201526064016103c1565b609754604051631f0e934b60e31b815260048101849052600160201b9091046001600160a01b03169063f8749a5890602401600060405180830381600087803b1580156119e057600080fd5b505af11580156119f4573d6000803e3d6000fd5b5050609854604051630852cd8d60e31b8152600481018690526001600160a01b0390911692506342966c689150602401600060405180830381600087803b158015611a3e57600080fd5b505af1158015611a52573d6000803e3d6000fd5b50506040518492507f24089da2b94d456671c6e08e154081718367fe1b3eb2bf048f9ded0b2ce2270a9150600090a25050565b6000611a9083611c43565b8015611aa15750611aa18383611c76565b9392505050565b60655460ff16611af15760405162461bcd60e51b815260206004820152601460248201527314185d5cd8589b194e881b9bdd081c185d5cd95960621b60448201526064016103c1565b6065805460ff191690557f5db9ee0a495bf2e6ff9c91a7834c1ba4fdd244a5e8aa4e537bd38aeae4b073aa335b6040516001600160a01b03909116815260200160405180910390a1565b600054610100900460ff16611b625760405162461bcd60e51b81526004016103c1906127bb565b610ab2611d55565b600054610100900460ff16611b915760405162461bcd60e51b81526004016103c1906127bb565b610ab2611d85565b603380546001600160a01b038381166001600160a01b0319831681179093556040519116919082907f8be0079c531659141344cd1fd0a4f28419497f9722a3daafe3b4186f6b6457e090600090a35050565b60655460ff1615611c0e5760405162461bcd60e51b81526004016103c190612197565b6065805460ff191660011790557f62e78cea01bee320cd4e420270b5ea74000d11b0c9f74754ebdbfc544b05a258611b1e3390565b6000611c56826301ffc9a760e01b611c76565b80156103985750611c6f826001600160e01b0319611c76565b1592915050565b604080516001600160e01b0319831660248083019190915282518083039091018152604490910182526020810180516001600160e01b03166301ffc9a760e01b179052905160009190829081906001600160a01b0387169061753090611cdd908690612806565b6000604051808303818686fa925050503d8060008114611d19576040519150601f19603f3d011682016040523d82523d6000602084013e611d1e565b606091505b5091509150602081511015611d395760009350505050610398565b8180156112115750808060200190518101906112119190612822565b600054610100900460ff16611d7c5760405162461bcd60e51b81526004016103c1906127bb565b610ab233611b99565b600054610100900460ff16611dac5760405162461bcd60e51b81526004016103c1906127bb565b6065805460ff19169055565b6001600160a01b038116811461181d57600080fd5b60008060408385031215611de057600080fd5b823591506020830135611df281611db8565b809150509250929050565b60008083601f840112611e0f57600080fd5b50813567ffffffffffffffff811115611e2757600080fd5b6020830191508360208260051b8501011115611e4257600080fd5b9250929050565b60008060008060008060608789031215611e6257600080fd5b863567ffffffffffffffff80821115611e7a57600080fd5b611e868a838b01611dfd565b90985096506020890135915080821115611e9f57600080fd5b611eab8a838b01611dfd565b90965094506040890135915080821115611ec457600080fd5b50611ed189828a01611dfd565b979a9699509497509295939492505050565b600080600060608486031215611ef857600080fd5b833592506020840135611f0a81611db8565b929592945050506040919091013590565b60008060408385031215611f2e57600080fd5b8235611f3981611db8565b91506020830135611df281611db8565b600060208284031215611f5b57600080fd5b813561ffff81168114611aa157600080fd5b634e487b7160e01b600052604160045260246000fd5b604051601f8201601f1916810167ffffffffffffffff81118282101715611fac57611fac611f6d565b604052919050565b600060408284031215611fc657600080fd5b50919050565b600080600080600060808688031215611fe457600080fd5b8535611fef81611db8565b945060208681013567ffffffffffffffff8082111561200d57600080fd5b818901915089601f83011261202157600080fd5b81358181111561203357612033611f6d565b612045601f8201601f19168501611f83565b8181528b8583860101111561205957600080fd5b81858501868301376000918101909401529195506040880135918083111561208057600080fd5b61208c8a848b01611dfd565b909650945060608901359250859150808311156120a857600080fd5b50506120b688828901611fb4565b9150509295509295909350565b600080604083850312156120d657600080fd5b50508035926020909101359150565b6000806000604084860312156120fa57600080fd5b83359250602084013567ffffffffffffffff8082111561211957600080fd5b818601915086601f83011261212d57600080fd5b81358181111561213c57600080fd5b87602082850101111561214e57600080fd5b6020830194508093505050509250925092565b60006020828403121561217357600080fd5b8135611aa181611db8565b60006020828403121561219057600080fd5b5035919050565b60208082526010908201526f14185d5cd8589b194e881c185d5cd95960821b604082015260600190565b634e487b7160e01b600052603260045260246000fd5b6000602082840312156121e957600080fd5b8151611aa181611db8565b6020808252601c908201527f4f6e6c79204d61726b6574706c616365206f722063726561746f722100000000604082015260600190565b6000808335601e1984360301811261224257600080fd5b83018035915067ffffffffffffffff82111561225d57600080fd5b6020019150600581901b3603821315611e4257600080fd5b634e487b7160e01b600052601160045260246000fd5b600060001982141561229f5761229f612275565b5060010190565b81835260006001600160fb1b038311156122bf57600080fd5b8260051b8083602087013760009401602001938452509192915050565b6001600160a01b038416815260406020820181905260009061230190830184866122a6565b95945050505050565b6020808252818101527f4f776e61626c653a2063616c6c6572206973206e6f7420746865206f776e6572604082015260600190565b60008161234e5761234e612275565b506000190190565b60005b83811015612371578181015183820152602001612359565b83811115612380576000848401525b50505050565b60018060a01b038316815260406020820152600082518060408401526123b3816060850160208701612356565b601f01601f1916919091016060019392505050565b6000602082840312156123da57600080fd5b5051919050565b801515811461181d57600080fd5b81835281816020850137506000828201602090810191909152601f909101601f19169091010190565b6000808335601e1984360301811261242f57600080fd5b830160208101925035905067ffffffffffffffff81111561244f57600080fd5b8060051b3603831315611e4257600080fd5b81835260006020808501808196506005915085821b8101856000805b898110156124f5578484038b52612494838a612418565b80865288860181891b87018a0183865b848110156124de57898303601f190184526124bf8287612418565b6124ca8582846122a6565b958f019594505050908c01906001016124a4565b50509d8a019d96505050928701925060010161247d565b50919998505050505050505050565b6000604083016125148384612418565b604086528281845260608701905060608260051b8801019350826000805b8481101561259d57898703605f1901845261254d8387612418565b8089526020808a0190855b8381101561258657843561256b81611db8565b6001600160a01b031683529381019391810191600101612558565b509099509586019594909401935050600101612532565b5050505050506125b06020840184612418565b8583036020870152611211838284612461565b8581526001600160a01b0385166020808301919091526080604080840182905283820186905260009260a091828601600589901b870184018a875b8b8110156126c257898303609f190184528135368e900360be1901811261262457600080fd5b8d0180358452868101358785015285810135868501526060808201359085015260c089820135612653816123e1565b1515858b01528189013536839003601e1901811261267057600080fd5b8201803567ffffffffffffffff81111561268957600080fd5b80360384131561269857600080fd5b828b8801526126ac838801828c85016123ef565b978a0197965050509287019250506001016125fe565b505087810360608901526126d6818a612504565b9d9c50505050505050505050505050565b600060208083850312156126fa57600080fd5b825167ffffffffffffffff8082111561271257600080fd5b818501915085601f83011261272657600080fd5b81518181111561273857612738611f6d565b8060051b9150612749848301611f83565b818152918301840191848101908884111561276357600080fd5b938501935b8385101561278157845182529385019390850190612768565b98975050505050505050565b8381526040602082015260006123016040830184866123ef565b6020815260006113cd6020830184866123ef565b6020808252602b908201527f496e697469616c697a61626c653a20636f6e7472616374206973206e6f74206960408201526a6e697469616c697a696e6760a81b606082015260800190565b60008251612818818460208701612356565b9190910192915050565b60006020828403121561283457600080fd5b8151611aa1816123e156fea26469706673582212207464efe1d1a0a3f44b11a5005521e889531eaa335d77b4cfa7a0661890b4630a64736f6c63430008090033",
  "linkReferences": {},
  "deployedLinkReferences": {}
}