{
  "_format": "hh-sol-artifact-1",
  "contractName": "Admin",
  "sourceName": "src/Admin.sol",
  "abi": [
    {
      "anonymous": false,
      "inputs": [
        {
          "indexed": true,
          "internalType": "uint256",
          "name": "eventId",
          "type": "uint256"
        },
        {
          "indexed": false,
          "internalType": "uint256",
          "name": "newRoyalty",
          "type": "uint256"
        }
      ],
      "name": "CreatorRoyaltyModifiedOnEvent",
      "type": "event"
    },
    {
      "anonymous": false,
      "inputs": [
        {
          "indexed": true,
          "internalType": "uint256",
          "name": "eventId",
          "type": "uint256"
        },
        {
          "indexed": false,
          "internalType": "address",
          "name": "organizer",
          "type": "address"
        },
        {
          "indexed": false,
          "internalType": "string",
          "name": "uri",
          "type": "string"
        }
      ],
      "name": "EventCreated",
      "type": "event"
    },
    {
      "anonymous": false,
      "inputs": [
        {
          "indexed": true,
          "internalType": "uint256",
          "name": "eventId",
          "type": "uint256"
        }
      ],
      "name": "EventDeleted",
      "type": "event"
    },
    {
      "anonymous": false,
      "inputs": [
        {
          "indexed": true,
          "internalType": "uint256",
          "name": "eventId",
          "type": "uint256"
        },
        {
          "indexed": false,
          "internalType": "string",
          "name": "newUri",
          "type": "string"
        }
      ],
      "name": "EventEdited",
      "type": "event"
    },
    {
      "anonymous": false,
      "inputs": [
        {
          "indexed": true,
          "internalType": "uint256",
          "name": "eventId",
          "type": "uint256"
        },
        {
          "indexed": false,
          "internalType": "address",
          "name": "newOwner",
          "type": "address"
        }
      ],
      "name": "EventOwnershipTransferred",
      "type": "event"
    },
    {
      "anonymous": false,
      "inputs": [
        {
          "indexed": true,
          "internalType": "uint256",
          "name": "ticketId",
          "type": "uint256"
        },
        {
          "indexed": false,
          "internalType": "address",
          "name": "contractAddress",
          "type": "address"
        },
        {
          "indexed": false,
          "internalType": "uint256[]",
          "name": "ids",
          "type": "uint256[]"
        }
      ],
      "name": "MembershipAssignedToTicket",
      "type": "event"
    },
    {
      "anonymous": false,
      "inputs": [
        {
          "indexed": true,
          "internalType": "uint256",
          "name": "ticketId",
          "type": "uint256"
        },
        {
          "indexed": false,
          "internalType": "address",
          "name": "contractAddress",
          "type": "address"
        }
      ],
      "name": "MembershipRemovedFromTicket",
      "type": "event"
    },
    {
      "anonymous": false,
      "inputs": [
        {
          "indexed": true,
          "internalType": "uint256",
          "name": "ticketId",
          "type": "uint256"
        },
        {
          "indexed": false,
          "internalType": "address",
          "name": "contractAddress",
          "type": "address"
        },
        {
          "indexed": false,
          "internalType": "uint256",
          "name": "tokenId",
          "type": "uint256"
        }
      ],
      "name": "MembershipTokenIdRemovedFromTicket",
      "type": "event"
    },
    {
      "anonymous": false,
      "inputs": [
        {
          "indexed": true,
          "internalType": "address",
          "name": "previousOwner",
          "type": "address"
        },
        {
          "indexed": true,
          "internalType": "address",
          "name": "newOwner",
          "type": "address"
        }
      ],
      "name": "OwnershipTransferred",
      "type": "event"
    },
    {
      "anonymous": false,
      "inputs": [
        {
          "indexed": false,
          "internalType": "address",
          "name": "account",
          "type": "address"
        }
      ],
      "name": "Paused",
      "type": "event"
    },
    {
      "anonymous": false,
      "inputs": [
        {
          "indexed": false,
          "internalType": "uint256",
          "name": "newRoyalty",
          "type": "uint256"
        }
      ],
      "name": "PrimaryMarketRoyaltyModified",
      "type": "event"
    },
    {
      "anonymous": false,
      "inputs": [
        {
          "indexed": true,
          "internalType": "uint256",
          "name": "eventId",
          "type": "uint256"
        },
        {
          "indexed": false,
          "internalType": "uint256",
          "name": "newRoyalty",
          "type": "uint256"
        }
      ],
      "name": "PrimaryMarketRoyaltyModifiedOnEvent",
      "type": "event"
    },
    {
      "anonymous": false,
      "inputs": [
        {
          "indexed": false,
          "internalType": "uint256",
          "name": "newRoyalty",
          "type": "uint256"
        }
      ],
      "name": "SecondaryMarketRoyaltyModified",
      "type": "event"
    },
    {
      "anonymous": false,
      "inputs": [
        {
          "indexed": true,
          "internalType": "uint256",
          "name": "eventId",
          "type": "uint256"
        },
        {
          "indexed": false,
          "internalType": "uint256",
          "name": "newRoyalty",
          "type": "uint256"
        }
      ],
      "name": "SecondaryMarketRoyaltyModifiedOnEvent",
      "type": "event"
    },
    {
      "anonymous": false,
      "inputs": [
        {
          "indexed": false,
          "internalType": "address",
          "name": "account",
          "type": "address"
        }
      ],
      "name": "Unpaused",
      "type": "event"
    },
    {
      "inputs": [
        {
          "internalType": "uint256",
          "name": "eventId",
          "type": "uint256"
        },
        {
          "internalType": "address",
          "name": "newOwner",
          "type": "address"
        }
      ],
      "name": "changeEventOwnership",
      "outputs": [],
      "stateMutability": "nonpayable",
      "type": "function"
    },
    {
      "inputs": [
        {
          "internalType": "string",
          "name": "eventUri",
          "type": "string"
        },
        {
          "components": [
            {
              "internalType": "uint256",
              "name": "amount",
              "type": "uint256"
            },
            {
              "internalType": "uint256",
              "name": "price",
              "type": "uint256"
            },
            {
              "internalType": "uint256",
              "name": "royalty",
              "type": "uint256"
            },
            {
              "internalType": "uint256",
              "name": "amountToSell",
              "type": "uint256"
            },
            {
              "internalType": "bool",
              "name": "isResellable",
              "type": "bool"
            },
            {
              "internalType": "string",
              "name": "uri",
              "type": "string"
            }
          ],
          "internalType": "struct NewAssetSaleInfo[]",
          "name": "tickets",
          "type": "tuple[]"
        }
      ],
      "name": "createEvent",
      "outputs": [
        {
          "internalType": "uint256",
          "name": "",
          "type": "uint256"
        }
      ],
      "stateMutability": "nonpayable",
      "type": "function"
    },
    {
      "inputs": [
        {
          "internalType": "uint256",
          "name": "eventId",
          "type": "uint256"
        }
      ],
      "name": "deleteEvent",
      "outputs": [],
      "stateMutability": "nonpayable",
      "type": "function"
    },
    {
      "inputs": [
        {
          "internalType": "uint256",
          "name": "ticketId",
          "type": "uint256"
        },
        {
          "internalType": "address",
          "name": "contractAddress",
          "type": "address"
        }
      ],
      "name": "disallowMembershipForTicket",
      "outputs": [],
      "stateMutability": "nonpayable",
      "type": "function"
    },
    {
      "inputs": [
        {
          "internalType": "uint256",
          "name": "ticketId",
          "type": "uint256"
        },
        {
          "internalType": "address",
          "name": "contractAddress",
          "type": "address"
        },
        {
          "internalType": "uint256",
          "name": "tokenId",
          "type": "uint256"
        }
      ],
      "name": "disallowMembershipTokenIdForTicket",
      "outputs": [],
      "stateMutability": "nonpayable",
      "type": "function"
    },
    {
      "inputs": [],
      "name": "eventAddress",
      "outputs": [
        {
          "internalType": "address",
          "name": "",
          "type": "address"
        }
      ],
      "stateMutability": "view",
      "type": "function"
    },
    {
      "inputs": [
        {
          "internalType": "address",
          "name": "_ticketMarketplaceAddress",
          "type": "address"
        },
        {
          "internalType": "address",
          "name": "_eventAddress",
          "type": "address"
        }
      ],
      "name": "initialize",
      "outputs": [],
      "stateMutability": "nonpayable",
      "type": "function"
    },
    {
      "inputs": [
        {
          "internalType": "uint256",
          "name": "ticketId",
          "type": "uint256"
        },
        {
          "internalType": "address",
          "name": "contractAddress",
          "type": "address"
        }
      ],
      "name": "isMembershipAllowedForTicket",
      "outputs": [
        {
          "internalType": "bool",
          "name": "",
          "type": "bool"
        }
      ],
      "stateMutability": "view",
      "type": "function"
    },
    {
      "inputs": [
        {
          "internalType": "uint256",
          "name": "ticketId",
          "type": "uint256"
        },
        {
          "internalType": "address",
          "name": "contractAddress",
          "type": "address"
        },
        {
          "internalType": "uint256",
          "name": "tokenId",
          "type": "uint256"
        }
      ],
      "name": "isTokenIdAllowedForTicket",
      "outputs": [
        {
          "internalType": "bool",
          "name": "",
          "type": "bool"
        }
      ],
      "stateMutability": "view",
      "type": "function"
    },
    {
      "inputs": [
        {
          "internalType": "uint256",
          "name": "eventId",
          "type": "uint256"
        },
        {
          "internalType": "uint256",
          "name": "newCreatorRoyalty",
          "type": "uint256"
        }
      ],
      "name": "modifyCreatorRoyaltyOnEvent",
      "outputs": [],
      "stateMutability": "nonpayable",
      "type": "function"
    },
    {
      "inputs": [
        {
          "internalType": "uint16",
          "name": "newMarketplaceRoyalty",
          "type": "uint16"
        }
      ],
      "name": "modifyPrimaryMarketplaceRoyalty",
      "outputs": [],
      "stateMutability": "nonpayable",
      "type": "function"
    },
    {
      "inputs": [
        {
          "internalType": "uint16",
          "name": "newMarketplaceRoyalty",
          "type": "uint16"
        }
      ],
      "name": "modifySecondaryMarketplaceRoyalty",
      "outputs": [],
      "stateMutability": "nonpayable",
      "type": "function"
    },
    {
      "inputs": [],
      "name": "owner",
      "outputs": [
        {
          "internalType": "address",
          "name": "",
          "type": "address"
        }
      ],
      "stateMutability": "view",
      "type": "function"
    },
    {
      "inputs": [],
      "name": "pause",
      "outputs": [],
      "stateMutability": "nonpayable",
      "type": "function"
    },
    {
      "inputs": [],
      "name": "paused",
      "outputs": [
        {
          "internalType": "bool",
          "name": "",
          "type": "bool"
        }
      ],
      "stateMutability": "view",
      "type": "function"
    },
    {
      "inputs": [],
      "name": "primaryMarketplaceRoyalty",
      "outputs": [
        {
          "internalType": "uint16",
          "name": "",
          "type": "uint16"
        }
      ],
      "stateMutability": "view",
      "type": "function"
    },
    {
      "inputs": [],
      "name": "renounceOwnership",
      "outputs": [],
      "stateMutability": "nonpayable",
      "type": "function"
    },
    {
      "inputs": [],
      "name": "secondaryMarketplaceRoyalty",
      "outputs": [
        {
          "internalType": "uint16",
          "name": "",
          "type": "uint16"
        }
      ],
      "stateMutability": "view",
      "type": "function"
    },
    {
      "inputs": [
        {
          "internalType": "uint256",
          "name": "eventId",
          "type": "uint256"
        },
        {
          "internalType": "string",
          "name": "newUri",
          "type": "string"
        }
      ],
      "name": "setEventUri",
      "outputs": [],
      "stateMutability": "nonpayable",
      "type": "function"
    },
    {
      "inputs": [],
      "name": "ticketMarketplaceAddress",
      "outputs": [
        {
          "internalType": "address",
          "name": "",
          "type": "address"
        }
      ],
      "stateMutability": "view",
      "type": "function"
    },
    {
      "inputs": [
        {
          "internalType": "address",
          "name": "newOwner",
          "type": "address"
        }
      ],
      "name": "transferOwnership",
      "outputs": [],
      "stateMutability": "nonpayable",
      "type": "function"
    },
    {
      "inputs": [],
      "name": "unpause",
      "outputs": [],
      "stateMutability": "nonpayable",
      "type": "function"
    }
  ],
  "bytecode": "0x608060405234801561001057600080fd5b506125c1806100206000396000f3fe608060405234801561001057600080fd5b506004361061014d5760003560e01c80638456cb59116100c3578063d411a7c71161007c578063d411a7c7146102b5578063e8f0f580146102c8578063f2fde38b146102db578063f363fb05146102ee578063f8749a5814610301578063fad567791461031457600080fd5b80638456cb59146102345780638da5cb5b1461023c578063a696ac7b14610261578063b13eb65914610275578063b4785bde14610288578063c8be174f146102a257600080fd5b8063485cc95511610115578063485cc955146101c95780634c88afe4146101dc57806355a76d4b146101ef5780635c975abb146102025780635ca1c65914610219578063715018a61461022c57600080fd5b806308a2ca97146101525780630ba7edf91461017857806310e6e83e146101995780633f4ba83a146101ae578063434e58dd146101b6575b600080fd5b610165610160366004611bec565b610327565b6040519081526020015b60405180910390f35b6097546101869061ffff1681565b60405161ffff909116815260200161016f565b6101ac6101a7366004611cce565b6104c1565b005b6101ac610a45565b6101ac6101c4366004611d7d565b610a79565b6101ac6101d7366004611db5565b610bbe565b6101ac6101ea366004611dee565b610cd0565b6101ac6101fd366004611e12565b610d72565b60655460ff165b604051901515815260200161016f565b6101ac610227366004611dee565b610ea3565b6101ac610f34565b6101ac610f68565b6033546001600160a01b03165b6040516001600160a01b03909116815260200161016f565b6097546101869062010000900461ffff1681565b6101ac610283366004611e12565b610f9a565b60975461024990600160201b90046001600160a01b031681565b6102096102b0366004611d7d565b6110c0565b6101ac6102c3366004611e37565b611127565b6101ac6102d6366004611e59565b6112bd565b6101ac6102e9366004611ed5565b6114d7565b6102096102fc366004611e12565b611572565b6101ac61030f366004611ef2565b61159f565b609854610249906001600160a01b031681565b600061033560655460ff1690565b1561035b5760405162461bcd60e51b815260040161035290611f0b565b60405180910390fd5b609854604051636902622f60e11b81526000916001600160a01b03169063d204c45e9061038e9033908a90600401611f65565b602060405180830381600087803b1580156103a857600080fd5b505af11580156103bc573d6000803e3d6000fd5b505050506040513d601f19601f820116820180604052508101906103e09190611fa7565b9050807ffc695dea2478fb938a11068aeedddd7046a5fe655f136e30a325d353fe187a453388604051610414929190611f65565b60405180910390a283156104b857609754604051630f2f2c7960e01b8152600160201b9091046001600160a01b031690630f2f2c799061046090849033908a908a908a906004016121d8565b600060405180830381600087803b15801561047a57600080fd5b505af115801561048e573d6000803e3d6000fd5b505050506040513d6000823e601f3d908101601f191682016040526104b691908101906122fc565b505b95945050505050565b60655460ff16156104e45760405162461bcd60e51b815260040161035290611f0b565b60005b85811015610a3c57609754600160201b90046001600160a01b03163314806105be5750609754600160201b90046001600160a01b0316637b41686d888884818110610534576105346123a2565b905060200201356040518263ffffffff1660e01b815260040161055991815260200190565b60206040518083038186803b15801561057157600080fd5b505afa158015610585573d6000803e3d6000fd5b505050506040513d601f19601f820116820180604052508101906105a991906123b8565b6001600160a01b0316336001600160a01b0316145b6105da5760405162461bcd60e51b8152600401610352906123d5565b60005b8585838181106105ef576105ef6123a2565b9050602002810190610601919061240c565b9050811015610a295761066386868481811061061f5761061f6123a2565b9050602002810190610631919061240c565b83818110610641576106416123a2565b90506020020160208101906106569190611ed5565b636cdb3d1360e11b611804565b806106c257506106c286868481811061067e5761067e6123a2565b9050602002810190610690919061240c565b838181106106a0576106a06123a2565b90506020020160208101906106b59190611ed5565b6380ac58cd60e01b611804565b61070e5760405162461bcd60e51b815260206004820152601c60248201527f53686f756c6420626520455243373231206f72204552433131353521000000006044820152606401610352565b6001609960008a8a86818110610726576107266123a2565b9050602002013581526020019081526020016000206000016000888886818110610752576107526123a2565b9050602002810190610764919061240c565b85818110610774576107746123a2565b90506020020160208101906107899190611ed5565b6001600160a01b0316815260208101919091526040016000908120805460ff1916921515929092179091555b8484848181106107c7576107c76123a2565b90506020028101906107d9919061240c565b838181106107e9576107e96123a2565b90506020028101906107fb919061240c565b9050811015610936576001609960008b8b8781811061081c5761081c6123a2565b9050602002013581526020019081526020016000206001016000898987818110610848576108486123a2565b905060200281019061085a919061240c565b8681811061086a5761086a6123a2565b905060200201602081019061087f9190611ed5565b6001600160a01b03166001600160a01b0316815260200190815260200160002060008787878181106108b3576108b36123a2565b90506020028101906108c5919061240c565b868181106108d5576108d56123a2565b90506020028101906108e7919061240c565b858181106108f7576108f76123a2565b90506020020135815260200190815260200160002060006101000a81548160ff021916908315150217905550808061092e90612456565b9150506107b5565b50878783818110610949576109496123a2565b905060200201357f55b427e2bb93f69f96cb6bdae82d8184cb4f1a461b729b335be1a6f2d3943556878785818110610983576109836123a2565b9050602002810190610995919061240c565b848181106109a5576109a56123a2565b90506020020160208101906109ba9190611ed5565b8686868181106109cc576109cc6123a2565b90506020028101906109de919061240c565b858181106109ee576109ee6123a2565b9050602002810190610a00919061240c565b604051610a0f9392919061247f565b60405180910390a280610a2181612456565b9150506105dd565b5080610a3481612456565b9150506104e7565b50505050505050565b6033546001600160a01b03163314610a6f5760405162461bcd60e51b8152600401610352906124a4565b610a77611827565b565b609754600160201b90046001600160a01b0316331480610b2b5750609754604051637b41686d60e01b815260048101859052600160201b9091046001600160a01b031690637b41686d9060240160206040518083038186803b158015610ade57600080fd5b505afa158015610af2573d6000803e3d6000fd5b505050506040513d601f19601f82011682018060405250810190610b1691906123b8565b6001600160a01b0316336001600160a01b0316145b610b475760405162461bcd60e51b8152600401610352906123d5565b60008381526099602090815260408083206001600160a01b03861680855260019091018352818420858552835292819020805460ff19169055805192835290820183905284917f9ce9ab1541dc1a870a882f9e2a7bd29a5041e4c2d6bdd2cb47da7f5c0bc03e1391015b60405180910390a2505050565b600054610100900460ff16610bd95760005460ff1615610bdd565b303b155b610c405760405162461bcd60e51b815260206004820152602e60248201527f496e697469616c697a61626c653a20636f6e747261637420697320616c72656160448201526d191e481a5b9a5d1a585b1a5e995960921b6064820152608401610352565b600054610100900460ff16158015610c62576000805461ffff19166101011790555b609780546001600160a01b03808616600160201b026001600160c01b0319909216919091176302ee05dc17909155609880549184166001600160a01b0319909216919091179055610cb16118ba565b610cb96118e9565b8015610ccb576000805461ff00191690555b505050565b6033546001600160a01b03163314610cfa5760405162461bcd60e51b8152600401610352906124a4565b60655460ff1615610d1d5760405162461bcd60e51b815260040161035290611f0b565b6097805463ffff000019166201000061ffff8416908102919091179091556040519081527fbe506fe4f6285e680de20e9c021ddfae052ca462d3ca93429e3e3aac5ad89803906020015b60405180910390a150565b609754600160201b90046001600160a01b0316331480610e245750609754604051637b41686d60e01b815260048101849052600160201b9091046001600160a01b031690637b41686d9060240160206040518083038186803b158015610dd757600080fd5b505afa158015610deb573d6000803e3d6000fd5b505050506040513d601f19601f82011682018060405250810190610e0f91906123b8565b6001600160a01b0316336001600160a01b0316145b610e405760405162461bcd60e51b8152600401610352906123d5565b60008281526099602090815260408083206001600160a01b03851680855290835292819020805460ff191690555191825283917fe937f40377bdd86562a30d120cf76a1ea07cc0de3f0685f32dabb33739762ea991015b60405180910390a25050565b6033546001600160a01b03163314610ecd5760405162461bcd60e51b8152600401610352906124a4565b60655460ff1615610ef05760405162461bcd60e51b815260040161035290611f0b565b6097805461ffff191661ffff83169081179091556040519081527f89ca5fa36586def428993c4a97cf7eea1a13531071f301bb5f1398008da9d3bc90602001610d67565b6033546001600160a01b03163314610f5e5760405162461bcd60e51b8152600401610352906124a4565b610a776000611918565b6033546001600160a01b03163314610f925760405162461bcd60e51b8152600401610352906124a4565b610a7761196a565b60655460ff1615610fbd5760405162461bcd60e51b815260040161035290611f0b565b6098546001600160a01b031633146110175760405162461bcd60e51b815260206004820152601f60248201527f4f6e6c79204576656e7420636f6e747261637420697320616c6c6f77656421006044820152606401610352565b609754604051638a0c770160e01b8152600481018490526001600160a01b038381166024830152600160201b90920490911690638a0c770190604401600060405180830381600087803b15801561106d57600080fd5b505af1158015611081573d6000803e3d6000fd5b50506040516001600160a01b03841681528492507f74a10ab8b8106921a945137cc7bc5007a2618bbefe949f1e11e04fd07d59c26b9150602001610e97565b60008381526099602090815260408083206001600160a01b038616845290915281205460ff16801561111f575060008481526099602090815260408083206001600160a01b0387168452600101825280832085845290915290205460ff165b949350505050565b6098546040516331a9108f60e11b815260048101849052839133916001600160a01b0390911690636352211e9060240160206040518083038186803b15801561116f57600080fd5b505afa158015611183573d6000803e3d6000fd5b505050506040513d601f19601f820116820180604052508101906111a791906123b8565b6001600160a01b0316146111fd5760405162461bcd60e51b815260206004820152601860248201527f4f6e6c792063726561746f7220697320616c6c6f7765642100000000000000006044820152606401610352565b60655460ff16156112205760405162461bcd60e51b815260040161035290611f0b565b60975460405163d411a7c760e01b81526004810185905260248101849052600160201b9091046001600160a01b03169063d411a7c790604401600060405180830381600087803b15801561127357600080fd5b505af1158015611287573d6000803e3d6000fd5b50505050827fc5bac6c600b65335a8baf4b0b32ed562307c63b916100134eea3629abae2042a83604051610bb191815260200190565b60655460ff16156112e05760405162461bcd60e51b815260040161035290611f0b565b6098546040516331a9108f60e11b815260048101859052849133916001600160a01b0390911690636352211e9060240160206040518083038186803b15801561132857600080fd5b505afa15801561133c573d6000803e3d6000fd5b505050506040513d601f19601f8201168201806040525081019061136091906123b8565b6001600160a01b031614806113f65750336001600160a01b0316306001600160a01b0316638da5cb5b6040518163ffffffff1660e01b815260040160206040518083038186803b1580156113b357600080fd5b505afa1580156113c7573d6000803e3d6000fd5b505050506040513d601f19601f820116820180604052508101906113eb91906123b8565b6001600160a01b0316145b6114315760405162461bcd60e51b815260206004820152600c60248201526b4e6f7420616c6c6f7765642160a01b6044820152606401610352565b609854604051630588253160e21b81526001600160a01b039091169063162094c490611465908790879087906004016124d9565b600060405180830381600087803b15801561147f57600080fd5b505af1158015611493573d6000803e3d6000fd5b50505050837f9f94ecc1e535a2ab156118309c2a92f77a424118d09ee982536ede8604d4357984846040516114c99291906124f3565b60405180910390a250505050565b6033546001600160a01b031633146115015760405162461bcd60e51b8152600401610352906124a4565b6001600160a01b0381166115665760405162461bcd60e51b815260206004820152602660248201527f4f776e61626c653a206e6577206f776e657220697320746865207a65726f206160448201526564647265737360d01b6064820152608401610352565b61156f81611918565b50565b60008281526099602090815260408083206001600160a01b038516845290915290205460ff165b92915050565b60655460ff16156115c25760405162461bcd60e51b815260040161035290611f0b565b6098546040516331a9108f60e11b815260048101839052829133916001600160a01b0390911690636352211e9060240160206040518083038186803b15801561160a57600080fd5b505afa15801561161e573d6000803e3d6000fd5b505050506040513d601f19601f8201168201806040525081019061164291906123b8565b6001600160a01b031614806116d85750336001600160a01b0316306001600160a01b0316638da5cb5b6040518163ffffffff1660e01b815260040160206040518083038186803b15801561169557600080fd5b505afa1580156116a9573d6000803e3d6000fd5b505050506040513d601f19601f820116820180604052508101906116cd91906123b8565b6001600160a01b0316145b6117135760405162461bcd60e51b815260206004820152600c60248201526b4e6f7420616c6c6f7765642160a01b6044820152606401610352565b609754604051631f0e934b60e31b815260048101849052600160201b9091046001600160a01b03169063f8749a5890602401600060405180830381600087803b15801561175f57600080fd5b505af1158015611773573d6000803e3d6000fd5b5050609854604051630852cd8d60e31b8152600481018690526001600160a01b0390911692506342966c689150602401600060405180830381600087803b1580156117bd57600080fd5b505af11580156117d1573d6000803e3d6000fd5b50506040518492507f24089da2b94d456671c6e08e154081718367fe1b3eb2bf048f9ded0b2ce2270a9150600090a25050565b600061180f836119c2565b8015611820575061182083836119f5565b9392505050565b60655460ff166118705760405162461bcd60e51b815260206004820152601460248201527314185d5cd8589b194e881b9bdd081c185d5cd95960621b6044820152606401610352565b6065805460ff191690557f5db9ee0a495bf2e6ff9c91a7834c1ba4fdd244a5e8aa4e537bd38aeae4b073aa335b6040516001600160a01b03909116815260200160405180910390a1565b600054610100900460ff166118e15760405162461bcd60e51b815260040161035290612507565b610a77611ade565b600054610100900460ff166119105760405162461bcd60e51b815260040161035290612507565b610a77611b0e565b603380546001600160a01b038381166001600160a01b0319831681179093556040519116919082907f8be0079c531659141344cd1fd0a4f28419497f9722a3daafe3b4186f6b6457e090600090a35050565b60655460ff161561198d5760405162461bcd60e51b815260040161035290611f0b565b6065805460ff191660011790557f62e78cea01bee320cd4e420270b5ea74000d11b0c9f74754ebdbfc544b05a25861189d3390565b60006119d5826301ffc9a760e01b6119f5565b801561159957506119ee826001600160e01b03196119f5565b1592915050565b604080516001600160e01b0319831660248083019190915282518083039091018152604490910182526020810180516001600160e01b03166301ffc9a760e01b179052905160009190829081906001600160a01b0387169061753090611a5c908690612552565b6000604051808303818686fa925050503d8060008114611a98576040519150601f19603f3d011682016040523d82523d6000602084013e611a9d565b606091505b5091509150602081511015611ab85760009350505050611599565b818015611ad4575080806020019051810190611ad4919061256e565b9695505050505050565b600054610100900460ff16611b055760405162461bcd60e51b815260040161035290612507565b610a7733611918565b600054610100900460ff16611b355760405162461bcd60e51b815260040161035290612507565b6065805460ff19169055565b634e487b7160e01b600052604160045260246000fd5b604051601f8201601f1916810167ffffffffffffffff81118282101715611b8057611b80611b41565b604052919050565b60008083601f840112611b9a57600080fd5b50813567ffffffffffffffff811115611bb257600080fd5b6020830191508360208260051b8501011115611bcd57600080fd5b9250929050565b600060408284031215611be657600080fd5b50919050565b60008060008060608587031215611c0257600080fd5b843567ffffffffffffffff80821115611c1a57600080fd5b818701915087601f830112611c2e57600080fd5b8135602082821115611c4257611c42611b41565b611c54601f8301601f19168201611b57565b8281528a82848701011115611c6857600080fd5b82828601838301376000928101820192909252909650870135915080821115611c9057600080fd5b611c9c88838901611b88565b90955093506040870135915080821115611cb557600080fd5b50611cc287828801611bd4565b91505092959194509250565b60008060008060008060608789031215611ce757600080fd5b863567ffffffffffffffff80821115611cff57600080fd5b611d0b8a838b01611b88565b90985096506020890135915080821115611d2457600080fd5b611d308a838b01611b88565b90965094506040890135915080821115611d4957600080fd5b50611d5689828a01611b88565b979a9699509497509295939492505050565b6001600160a01b038116811461156f57600080fd5b600080600060608486031215611d9257600080fd5b833592506020840135611da481611d68565b929592945050506040919091013590565b60008060408385031215611dc857600080fd5b8235611dd381611d68565b91506020830135611de381611d68565b809150509250929050565b600060208284031215611e0057600080fd5b813561ffff8116811461182057600080fd5b60008060408385031215611e2557600080fd5b823591506020830135611de381611d68565b60008060408385031215611e4a57600080fd5b50508035926020909101359150565b600080600060408486031215611e6e57600080fd5b83359250602084013567ffffffffffffffff80821115611e8d57600080fd5b818601915086601f830112611ea157600080fd5b813581811115611eb057600080fd5b876020828501011115611ec257600080fd5b6020830194508093505050509250925092565b600060208284031215611ee757600080fd5b813561182081611d68565b600060208284031215611f0457600080fd5b5035919050565b60208082526010908201526f14185d5cd8589b194e881c185d5cd95960821b604082015260600190565b60005b83811015611f50578181015183820152602001611f38565b83811115611f5f576000848401525b50505050565b60018060a01b03831681526040602082015260008251806040840152611f92816060850160208701611f35565b601f01601f1916919091016060019392505050565b600060208284031215611fb957600080fd5b5051919050565b801515811461156f57600080fd5b81835281816020850137506000828201602090810191909152601f909101601f19169091010190565b6000808335601e1984360301811261200e57600080fd5b830160208101925035905067ffffffffffffffff81111561202e57600080fd5b8060051b3603831315611bcd57600080fd5b81835260006001600160fb1b0383111561205957600080fd5b8260051b8083602087013760009401602001938452509192915050565b81835260006020808501808196506005915085821b8101856000805b8981101561210a578484038b526120a9838a611ff7565b80865288860181891b87018a0183865b848110156120f357898303601f190184526120d48287611ff7565b6120df858284612040565b958f019594505050908c01906001016120b9565b50509d8a019d965050509287019250600101612092565b50919998505050505050505050565b6000604083016121298384611ff7565b604086528281845260608701905060608260051b8801019350826000805b848110156121b257898703605f190184526121628387611ff7565b8089526020808a0190855b8381101561219b57843561218081611d68565b6001600160a01b03168352938101939181019160010161216d565b509099509586019594909401935050600101612147565b5050505050506121c56020840184611ff7565b8583036020870152611ad4838284612076565b8581526001600160a01b0385166020808301919091526080604080840182905283820186905260009260a091828601600589901b870184018a875b8b8110156122d757898303609f190184528135368e900360be1901811261223957600080fd5b8d0180358452868101358785015285810135868501526060808201359085015260c08982013561226881611fc0565b1515858b01528189013536839003601e1901811261228557600080fd5b8201803567ffffffffffffffff81111561229e57600080fd5b8036038413156122ad57600080fd5b828b8801526122c1838801828c8501611fce565b978a019796505050928701925050600101612213565b505087810360608901526122eb818a612119565b9d9c50505050505050505050505050565b6000602080838503121561230f57600080fd5b825167ffffffffffffffff8082111561232757600080fd5b818501915085601f83011261233b57600080fd5b81518181111561234d5761234d611b41565b8060051b915061235e848301611b57565b818152918301840191848101908884111561237857600080fd5b938501935b838510156123965784518252938501939085019061237d565b98975050505050505050565b634e487b7160e01b600052603260045260246000fd5b6000602082840312156123ca57600080fd5b815161182081611d68565b6020808252601c908201527f4f6e6c79204d61726b6574706c616365206f722063726561746f722100000000604082015260600190565b6000808335601e1984360301811261242357600080fd5b83018035915067ffffffffffffffff82111561243e57600080fd5b6020019150600581901b3603821315611bcd57600080fd5b600060001982141561247857634e487b7160e01b600052601160045260246000fd5b5060010190565b6001600160a01b03841681526040602082018190526000906104b89083018486612040565b6020808252818101527f4f776e61626c653a2063616c6c6572206973206e6f7420746865206f776e6572604082015260600190565b8381526040602082015260006104b8604083018486611fce565b60208152600061111f602083018486611fce565b6020808252602b908201527f496e697469616c697a61626c653a20636f6e7472616374206973206e6f74206960408201526a6e697469616c697a696e6760a81b606082015260800190565b60008251612564818460208701611f35565b9190910192915050565b60006020828403121561258057600080fd5b815161182081611fc056fea26469706673582212208d8e0b488f72cefc915354b436e4145aa1695c1be5ffd784ad0c223f1e53658764736f6c63430008090033",
  "linkReferences": {},
  "deployedLinkReferences": {}
}