{
  "_format": "hh-sol-artifact-1",
  "contractName": "Admin",
  "sourceName": "src/Admin.sol",
  "abi": [
    {
      "anonymous": false,
      "inputs": [
        {
          "indexed": true,
          "internalType": "uint256",
          "name": "eventId",
          "type": "uint256"
        },
        {
          "indexed": true,
          "internalType": "address",
          "name": "collaborator",
          "type": "address"
        }
      ],
      "name": "CollaboratorAdded",
      "type": "event"
    },
    {
      "anonymous": false,
      "inputs": [
        {
          "indexed": true,
          "internalType": "uint256",
          "name": "eventId",
          "type": "uint256"
        },
        {
          "indexed": true,
          "internalType": "address",
          "name": "collaborator",
          "type": "address"
        }
      ],
      "name": "CollaboratorRemoved",
      "type": "event"
    },
    {
      "anonymous": false,
      "inputs": [
        {
          "indexed": true,
          "internalType": "uint256",
          "name": "eventId",
          "type": "uint256"
        },
        {
          "indexed": false,
          "internalType": "uint256",
          "name": "newRoyalty",
          "type": "uint256"
        }
      ],
      "name": "CreatorRoyaltyModifiedOnEvent",
      "type": "event"
    },
    {
      "anonymous": false,
      "inputs": [
        {
          "indexed": true,
          "internalType": "uint256",
          "name": "eventId",
          "type": "uint256"
        },
        {
          "indexed": false,
          "internalType": "address",
          "name": "organizer",
          "type": "address"
        },
        {
          "indexed": false,
          "internalType": "string",
          "name": "uri",
          "type": "string"
        }
      ],
      "name": "EventCreated",
      "type": "event"
    },
    {
      "anonymous": false,
      "inputs": [
        {
          "indexed": true,
          "internalType": "uint256",
          "name": "eventId",
          "type": "uint256"
        }
      ],
      "name": "EventDeleted",
      "type": "event"
    },
    {
      "anonymous": false,
      "inputs": [
        {
          "indexed": true,
          "internalType": "uint256",
          "name": "eventId",
          "type": "uint256"
        },
        {
          "indexed": false,
          "internalType": "string",
          "name": "newUri",
          "type": "string"
        }
      ],
      "name": "EventEdited",
      "type": "event"
    },
    {
      "anonymous": false,
      "inputs": [
        {
          "indexed": true,
          "internalType": "uint256",
          "name": "eventId",
          "type": "uint256"
        },
        {
          "indexed": false,
          "internalType": "address",
          "name": "newOwner",
          "type": "address"
        }
      ],
      "name": "EventOwnershipTransferred",
      "type": "event"
    },
    {
      "anonymous": false,
      "inputs": [
        {
          "indexed": true,
          "internalType": "uint256",
          "name": "eventId",
          "type": "uint256"
        }
      ],
      "name": "EventPaused",
      "type": "event"
    },
    {
      "anonymous": false,
      "inputs": [
        {
          "indexed": true,
          "internalType": "uint256",
          "name": "eventId",
          "type": "uint256"
        }
      ],
      "name": "EventUnpaused",
      "type": "event"
    },
    {
      "anonymous": false,
      "inputs": [
        {
          "indexed": true,
          "internalType": "uint256",
          "name": "ticketId",
          "type": "uint256"
        },
        {
          "indexed": false,
          "internalType": "address",
          "name": "contractAddress",
          "type": "address"
        },
        {
          "indexed": false,
          "internalType": "uint256[]",
          "name": "ids",
          "type": "uint256[]"
        }
      ],
      "name": "MembershipAssignedToTicket",
      "type": "event"
    },
    {
      "anonymous": false,
      "inputs": [
        {
          "indexed": true,
          "internalType": "uint256",
          "name": "ticketId",
          "type": "uint256"
        },
        {
          "indexed": false,
          "internalType": "address",
          "name": "contractAddress",
          "type": "address"
        }
      ],
      "name": "MembershipRemovedFromTicket",
      "type": "event"
    },
    {
      "anonymous": false,
      "inputs": [
        {
          "indexed": true,
          "internalType": "uint256",
          "name": "ticketId",
          "type": "uint256"
        },
        {
          "indexed": false,
          "internalType": "address",
          "name": "contractAddress",
          "type": "address"
        },
        {
          "indexed": false,
          "internalType": "uint256",
          "name": "tokenId",
          "type": "uint256"
        }
      ],
      "name": "MembershipTokenIdRemovedFromTicket",
      "type": "event"
    },
    {
      "anonymous": false,
      "inputs": [
        {
          "indexed": true,
          "internalType": "address",
          "name": "previousOwner",
          "type": "address"
        },
        {
          "indexed": true,
          "internalType": "address",
          "name": "newOwner",
          "type": "address"
        }
      ],
      "name": "OwnershipTransferred",
      "type": "event"
    },
    {
      "anonymous": false,
      "inputs": [
        {
          "indexed": false,
          "internalType": "address",
          "name": "account",
          "type": "address"
        }
      ],
      "name": "Paused",
      "type": "event"
    },
    {
      "anonymous": false,
      "inputs": [
        {
          "indexed": false,
          "internalType": "uint256",
          "name": "newRoyalty",
          "type": "uint256"
        }
      ],
      "name": "PrimaryMarketRoyaltyModified",
      "type": "event"
    },
    {
      "anonymous": false,
      "inputs": [
        {
          "indexed": true,
          "internalType": "uint256",
          "name": "eventId",
          "type": "uint256"
        },
        {
          "indexed": false,
          "internalType": "uint256",
          "name": "newRoyalty",
          "type": "uint256"
        }
      ],
      "name": "PrimaryMarketRoyaltyModifiedOnEvent",
      "type": "event"
    },
    {
      "anonymous": false,
      "inputs": [
        {
          "indexed": false,
          "internalType": "uint256",
          "name": "newRoyalty",
          "type": "uint256"
        }
      ],
      "name": "SecondaryMarketRoyaltyModified",
      "type": "event"
    },
    {
      "anonymous": false,
      "inputs": [
        {
          "indexed": true,
          "internalType": "uint256",
          "name": "id",
          "type": "uint256"
        },
        {
          "indexed": false,
          "internalType": "string",
          "name": "entityType",
          "type": "string"
        }
      ],
      "name": "MetadataCancelation",
      "type": "event"
    },
    {
      "anonymous": false,
      "inputs": [
        {
          "indexed": true,
          "internalType": "uint256",
          "name": "eventId",
          "type": "uint256"
        },
        {
          "indexed": false,
          "internalType": "uint256",
          "name": "newRoyalty",
          "type": "uint256"
        }
      ],
      "name": "SecondaryMarketRoyaltyModifiedOnEvent",
      "type": "event"
    },
    {
      "anonymous": false,
      "inputs": [
        {
          "indexed": true,
          "internalType": "uint256",
          "type": "uint256",
          "name": "ticketId"
        },
        {
          "indexed": false,
          "internalType": "address",
          "type": "address",
          "name": "ticketOwner"
        },
        {
          "indexed": false,
          "internalType": "address",
          "type": "address",
          "name": "ticketBuyer"
        },
        {
          "indexed": false,
          "internalType": "uint256",
          "type": "uint256",
          "name": "amount"
        }
      ],
      "name": "BookedTicket",
      "type": "event"
    },
    {
      "anonymous": false,
      "inputs": [
        {
          "indexed": true,
          "internalType": "uint256",
          "type": "uint256",
          "name": "ticketId"
        },
        {
          "indexed": false,
          "internalType": "address",
          "type": "address",
          "name": "ticketOwner"
        },
        {
          "indexed": false,
          "internalType": "address",
          "type": "address",
          "name": "ticketBuyer"
        }
      ],
      "name": "BookedTicketTransfered",
      "type": "event"
    },
    {
      "anonymous": false,
      "inputs": [
        {
          "indexed": true,
          "internalType": "uint256",
          "type": "uint256",
          "name": "ticketId"
        },
        {
          "indexed": false,
          "internalType": "address",
          "type": "address",
          "name": "ticketOwner"
        },
        {
          "indexed": false,
          "internalType": "address",
          "type": "address",
          "name": "ticketBuyer"
        }
      ],
      "name": "CancelTicketBooking",
      "type": "event"
    },
    {
      "anonymous": false,
      "inputs": [
        {
          "indexed": false,
          "internalType": "address",
          "name": "account",
          "type": "address"
        }
      ],
      "name": "Unpaused",
      "type": "event"
    },
    {
      "inputs": [
        {
          "internalType": "uint256",
          "name": "eventId",
          "type": "uint256"
        },
        {
          "internalType": "address",
          "name": "collaborator",
          "type": "address"
        }
      ],
      "name": "addCollaborator",
      "outputs": [],
      "stateMutability": "nonpayable",
      "type": "function"
    },
    {
      "inputs": [
        {
          "internalType": "uint256",
          "name": "eventId",
          "type": "uint256"
        },
        {
          "internalType": "address",
          "name": "newOwner",
          "type": "address"
        }
      ],
      "name": "changeEventOwnership",
      "outputs": [],
      "stateMutability": "nonpayable",
      "type": "function"
    },
    {
      "inputs": [
        {
          "internalType": "uint256",
          "name": "",
          "type": "uint256"
        },
        {
          "internalType": "address",
          "name": "",
          "type": "address"
        }
      ],
      "name": "collaborators",
      "outputs": [
        {
          "internalType": "bool",
          "name": "",
          "type": "bool"
        }
      ],
      "stateMutability": "view",
      "type": "function"
    },
    {
      "inputs": [
        {
          "internalType": "address",
          "name": "organizer",
          "type": "address"
        },
        {
          "internalType": "string",
          "name": "eventUri",
          "type": "string"
        },
        {
          "components": [
            {
              "internalType": "uint256",
              "name": "amount",
              "type": "uint256"
            },
            {
              "internalType": "uint256",
              "name": "price",
              "type": "uint256"
            },
            {
              "internalType": "uint256",
              "name": "royalty",
              "type": "uint256"
            },
            {
              "internalType": "uint256",
              "name": "amountToSell",
              "type": "uint256"
            },
            {
              "internalType": "bool",
              "name": "isResellable",
              "type": "bool"
            },
            {
              "internalType": "string",
              "name": "uri",
              "type": "string"
            },
            {
              "internalType": "bool",
              "name": "isPrivate",
              "type": "bool"
            },
            {
              "components": [
                {
                  "internalType": "uint256",
                  "name": "amount",
                  "type": "uint256"
                },
                {
                  "internalType": "address[]",
                  "name": "allowedAddresses",
                  "type": "address[]"
                }
              ],
              "internalType": "struct AllowanceInput[]",
              "name": "allowances",
              "type": "tuple[]"
            }
          ],
          "internalType": "struct NewAssetSaleInfo[]",
          "name": "tickets",
          "type": "tuple[]"
        },
        {
          "internalType": "address[]",
          "name": "_collaborators",
          "type": "address[]"
        }
      ],
      "name": "createEvent",
      "outputs": [
        {
          "internalType": "uint256",
          "name": "",
          "type": "uint256"
        }
      ],
      "stateMutability": "nonpayable",
      "type": "function"
    },
    {
      "inputs": [
        {
          "internalType": "uint256",
          "name": "eventId",
          "type": "uint256"
        }
      ],
      "name": "deleteEvent",
      "outputs": [],
      "stateMutability": "nonpayable",
      "type": "function"
    },
    {
      "inputs": [
        {
          "internalType": "uint256",
          "name": "ticketId",
          "type": "uint256"
        },
        {
          "internalType": "address",
          "name": "contractAddress",
          "type": "address"
        }
      ],
      "name": "disallowMembershipForTicket",
      "outputs": [],
      "stateMutability": "nonpayable",
      "type": "function"
    },
    {
      "inputs": [
        {
          "internalType": "uint256",
          "name": "ticketId",
          "type": "uint256"
        },
        {
          "internalType": "address",
          "name": "contractAddress",
          "type": "address"
        },
        {
          "internalType": "uint256",
          "name": "tokenId",
          "type": "uint256"
        }
      ],
      "name": "disallowMembershipTokenIdForTicket",
      "outputs": [],
      "stateMutability": "nonpayable",
      "type": "function"
    },
    {
      "inputs": [],
      "name": "eventAddress",
      "outputs": [
        {
          "internalType": "address",
          "name": "",
          "type": "address"
        }
      ],
      "stateMutability": "view",
      "type": "function"
    },
    {
      "inputs": [
        {
          "internalType": "address",
          "name": "_ticketMarketplaceAddress",
          "type": "address"
        },
        {
          "internalType": "address",
          "name": "_eventAddress",
          "type": "address"
        }
      ],
      "name": "initialize",
      "outputs": [],
      "stateMutability": "nonpayable",
      "type": "function"
    },
    {
      "inputs": [
        {
          "internalType": "uint256",
          "name": "ticketId",
          "type": "uint256"
        },
        {
          "internalType": "address",
          "name": "contractAddress",
          "type": "address"
        }
      ],
      "name": "isMembershipAllowedForTicket",
      "outputs": [
        {
          "internalType": "bool",
          "name": "",
          "type": "bool"
        }
      ],
      "stateMutability": "view",
      "type": "function"
    },
    {
      "inputs": [
        {
          "internalType": "uint256",
          "name": "ticketId",
          "type": "uint256"
        },
        {
          "internalType": "address",
          "name": "contractAddress",
          "type": "address"
        },
        {
          "internalType": "uint256",
          "name": "tokenId",
          "type": "uint256"
        }
      ],
      "name": "isTokenIdAllowedForTicket",
      "outputs": [
        {
          "internalType": "bool",
          "name": "",
          "type": "bool"
        }
      ],
      "stateMutability": "view",
      "type": "function"
    },
    {
      "inputs": [
        {
          "internalType": "uint256",
          "name": "ticketId",
          "type": "uint256"
        },
        {
          "internalType": "address",
          "name": "contractAddress",
          "type": "address"
        }
      ],
      "name": "isTokenIdNeededForTicket",
      "outputs": [
        {
          "internalType": "bool",
          "name": "",
          "type": "bool"
        }
      ],
      "stateMutability": "view",
      "type": "function"
    },
    {
      "inputs": [
        {
          "internalType": "uint256",
          "name": "eventId",
          "type": "uint256"
        },
        {
          "internalType": "uint256",
          "name": "newCreatorRoyalty",
          "type": "uint256"
        }
      ],
      "name": "modifyCreatorRoyaltyOnEvent",
      "outputs": [],
      "stateMutability": "nonpayable",
      "type": "function"
    },
    {
      "inputs": [
        {
          "internalType": "uint16",
          "name": "newMarketplaceRoyalty",
          "type": "uint16"
        }
      ],
      "name": "modifyPrimaryMarketplaceRoyalty",
      "outputs": [],
      "stateMutability": "nonpayable",
      "type": "function"
    },
    {
      "inputs": [
        {
          "internalType": "uint16",
          "name": "newMarketplaceRoyalty",
          "type": "uint16"
        }
      ],
      "name": "modifySecondaryMarketplaceRoyalty",
      "outputs": [],
      "stateMutability": "nonpayable",
      "type": "function"
    },
    {
      "inputs": [],
      "name": "owner",
      "outputs": [
        {
          "internalType": "address",
          "name": "",
          "type": "address"
        }
      ],
      "stateMutability": "view",
      "type": "function"
    },
    {
      "inputs": [],
      "name": "pause",
      "outputs": [],
      "stateMutability": "nonpayable",
      "type": "function"
    },
    {
      "inputs": [
        {
          "internalType": "uint256",
          "name": "eventId",
          "type": "uint256"
        }
      ],
      "name": "pauseEvent",
      "outputs": [],
      "stateMutability": "nonpayable",
      "type": "function"
    },
    {
      "inputs": [],
      "name": "paused",
      "outputs": [
        {
          "internalType": "bool",
          "name": "",
          "type": "bool"
        }
      ],
      "stateMutability": "view",
      "type": "function"
    },
    {
      "inputs": [
        {
          "internalType": "uint256",
          "name": "",
          "type": "uint256"
        }
      ],
      "name": "pausedEvents",
      "outputs": [
        {
          "internalType": "bool",
          "name": "",
          "type": "bool"
        }
      ],
      "stateMutability": "view",
      "type": "function"
    },
    {
      "inputs": [],
      "name": "primaryMarketplaceRoyalty",
      "outputs": [
        {
          "internalType": "uint16",
          "name": "",
          "type": "uint16"
        }
      ],
      "stateMutability": "view",
      "type": "function"
    },
    {
      "inputs": [
        {
          "internalType": "uint256",
          "name": "eventId",
          "type": "uint256"
        },
        {
          "internalType": "address",
          "name": "collaborator",
          "type": "address"
        }
      ],
      "name": "removeCollaborator",
      "outputs": [],
      "stateMutability": "nonpayable",
      "type": "function"
    },
    {
      "inputs": [],
      "name": "renounceOwnership",
      "outputs": [],
      "stateMutability": "nonpayable",
      "type": "function"
    },
    {
      "inputs": [],
      "name": "secondaryMarketplaceRoyalty",
      "outputs": [
        {
          "internalType": "uint16",
          "name": "",
          "type": "uint16"
        }
      ],
      "stateMutability": "view",
      "type": "function"
    },
    {
      "inputs": [
        {
          "internalType": "uint256",
          "name": "eventId",
          "type": "uint256"
        },
        {
          "internalType": "string",
          "name": "newUri",
          "type": "string"
        }
      ],
      "name": "setEventUri",
      "outputs": [],
      "stateMutability": "nonpayable",
      "type": "function"
    },
    {
      "inputs": [],
      "name": "ticketMarketplaceAddress",
      "outputs": [
        {
          "internalType": "address",
          "name": "",
          "type": "address"
        }
      ],
      "stateMutability": "view",
      "type": "function"
    },
    {
      "inputs": [
        {
          "internalType": "address",
          "name": "newOwner",
          "type": "address"
        }
      ],
      "name": "transferOwnership",
      "outputs": [],
      "stateMutability": "nonpayable",
      "type": "function"
    },
    {
      "inputs": [],
      "name": "unpause",
      "outputs": [],
      "stateMutability": "nonpayable",
      "type": "function"
    },
    {
      "inputs": [
        {
          "internalType": "uint256",
          "name": "eventId",
          "type": "uint256"
        }
      ],
      "name": "unpauseEvent",
      "outputs": [],
      "stateMutability": "nonpayable",
      "type": "function"
    },
    {
      "inputs": [
        {
          "internalType": "string",
          "name": "entityType",
          "type": "string"
        },
        {
          "internalType": "uint256",
          "name": "id",
          "type": "uint256"
        }
      ],
      "name": "forceMetadataCancelation",
      "outputs": [],
      "stateMutability": "nonpayable",
      "type": "function"
    }
  ],
  "bytecode": "0x608060405234801561001057600080fd5b5061308a806100206000396000f3fe608060405234801561001057600080fd5b50600436106101da5760003560e01c8063601b349c11610104578063c8be174f116100a2578063f2fde38b11610071578063f2fde38b1461041c578063f363fb051461042f578063f8749a5814610468578063fad567791461047b57600080fd5b8063c8be174f146103d0578063d411a7c7146103e3578063d4bd5a0d146103f6578063e8f0f5801461040957600080fd5b80638da5cb5b116100de5780638da5cb5b1461036a578063a696ac7b1461038f578063b13eb659146103a3578063b4785bde146103b657600080fd5b8063601b349c14610347578063715018a61461035a5780638456cb591461036257600080fd5b80633f4ba83a1161017c5780634c88afe41161014b5780634c88afe41461030357806355a76d4b146103165780635c975abb146103295780635ca1c6591461033457600080fd5b80633f4ba83a146102c2578063434e58dd146102ca578063485cc955146102dd5780634abfcac7146102f057600080fd5b80630c341f9a116101b85780630c341f9a1461023b57806310e6e83e1461025e5780631368e7c3146102715780631552a8551461029f57600080fd5b8063048c6416146101df5780630b871eba146102055780630ba7edf91461021a575b600080fd5b6101f26101ed366004612521565b61048e565b6040519081526020015b60405180910390f35b610218610213366004612641565b610674565b005b6097546102289061ffff1681565b60405161ffff90911681526020016101fc565b61024e61024936600461265a565b6107aa565b60405190151581526020016101fc565b61021861026c36600461268a565b6107d9565b61024e61027f36600461265a565b609b60209081526000928352604080842090915290825290205460ff1681565b61024e6102ad366004612641565b609a6020526000908152604090205460ff1681565b610218610eb2565b6102186102d8366004612724565b610ee6565b6102186102eb36600461275c565b6110e0565b6102186102fe366004612641565b6111f1565b61021861031136600461278a565b611324565b61021861032436600461265a565b6113c6565b60655460ff1661024e565b61021861034236600461278a565b6114f7565b61021861035536600461265a565b611588565b610218611721565b610218611755565b6033546001600160a01b03165b6040516001600160a01b0390911681526020016101fc565b6097546102289062010000900461ffff1681565b6102186103b136600461265a565b611787565b60975461037790600160201b90046001600160a01b031681565b61024e6103de366004612724565b6118ad565b6102186103f13660046127ae565b611941565b61021861040436600461265a565b611aa7565b6102186104173660046127d0565b611b7a565b61021861042a36600461284c565b611d75565b61024e61043d36600461265a565b60009182526099602090815260408084206001600160a01b0393909316845291905290205460ff1690565b610218610476366004612641565b611e10565b609854610377906001600160a01b031681565b600061049c60655460ff1690565b156104c25760405162461bcd60e51b81526004016104b990612869565b60405180910390fd5b609854604051636902622f60e11b81526000916001600160a01b03169063d204c45e906104f5908c908c906004016128c3565b602060405180830381600087803b15801561050f57600080fd5b505af1158015610523573d6000803e3d6000fd5b505050506040513d601f19601f820116820180604052508101906105479190612905565b9050807ffc695dea2478fb938a11068aeedddd7046a5fe655f136e30a325d353fe187a458a8a60405161057b9291906128c3565b60405180910390a260005b838110156105cb576105b9828686848181106105a4576105a461291e565b9050602002016020810190610404919061284c565b806105c38161294a565b915050610586565b5085156106685760975460405163ce6d9f1760e01b8152600160201b9091046001600160a01b03169063ce6d9f17906106109084908d908c908c908c90600401612c69565b600060405180830381600087803b15801561062a57600080fd5b505af115801561063e573d6000803e3d6000fd5b505050506040513d6000823e601f3d908101601f191682016040526106669190810190612d93565b505b98975050505050505050565b60655460ff16156106975760405162461bcd60e51b81526004016104b990612869565b6098546040516331a9108f60e11b815260048101839052829133916001600160a01b0390911690636352211e9060240160206040518083038186803b1580156106df57600080fd5b505afa1580156106f3573d6000803e3d6000fd5b505050506040513d601f19601f820116820180604052508101906107179190612e2d565b6001600160a01b0316148061074a57506000818152609b6020908152604080832033845290915290205460ff1615156001145b6107665760405162461bcd60e51b81526004016104b990612e4a565b6000828152609a6020526040808220805460ff191660011790555183917ffdb456e665aa5cdbe3bd91babd696c20184ff9664fb5544c37869f078c2cd71c91a25050565b60008281526099602090815260408083206001600160a01b038516845260010190915290205415155b92915050565b60655460ff16156107fc5760405162461bcd60e51b81526004016104b990612869565b60005b85811015610ea957609754600160201b90046001600160a01b03163314806108d65750609754600160201b90046001600160a01b0316637b41686d88888481811061084c5761084c61291e565b905060200201356040518263ffffffff1660e01b815260040161087191815260200190565b60206040518083038186803b15801561088957600080fd5b505afa15801561089d573d6000803e3d6000fd5b505050506040513d601f19601f820116820180604052508101906108c19190612e2d565b6001600160a01b0316336001600160a01b0316145b6108f25760405162461bcd60e51b81526004016104b990612e70565b60005b8585838181106109075761090761291e565b90506020028101906109199190612ea7565b9050811015610e965761097b8686848181106109375761093761291e565b90506020028101906109499190612ea7565b838181106109595761095961291e565b905060200201602081019061096e919061284c565b636cdb3d1360e11b612056565b806109da57506109da8686848181106109965761099661291e565b90506020028101906109a89190612ea7565b838181106109b8576109b861291e565b90506020020160208101906109cd919061284c565b6380ac58cd60e01b612056565b610a265760405162461bcd60e51b815260206004820152601c60248201527f53686f756c6420626520455243373231206f722045524331313535210000000060448201526064016104b9565b6001609960008a8a86818110610a3e57610a3e61291e565b9050602002013581526020019081526020016000206000016000888886818110610a6a57610a6a61291e565b9050602002810190610a7c9190612ea7565b85818110610a8c57610a8c61291e565b9050602002016020810190610aa1919061284c565b6001600160a01b031681526020810191909152604001600020805460ff1916911515919091179055610ade8686848181106109375761093761291e565b15610b7a576000848484818110610af757610af761291e565b9050602002810190610b099190612ea7565b83818110610b1957610b1961291e565b9050602002810190610b2b9190612ea7565b905011610b7a5760405162461bcd60e51b815260206004820152601a60248201527f4552433131353520726571756972657320746f6b656e4964732100000000000060448201526064016104b9565b60005b848484818110610b8f57610b8f61291e565b9050602002810190610ba19190612ea7565b83818110610bb157610bb161291e565b9050602002810190610bc39190612ea7565b9050811015610da357609960008a8a86818110610be257610be261291e565b9050602002013581526020019081526020016000206001016000888886818110610c0e57610c0e61291e565b9050602002810190610c209190612ea7565b85818110610c3057610c3061291e565b9050602002016020810190610c45919061284c565b6001600160a01b0316815260208101919091526040016000908120805491610c6c8361294a565b91905055506001609960008b8b87818110610c8957610c8961291e565b9050602002013581526020019081526020016000206002016000898987818110610cb557610cb561291e565b9050602002810190610cc79190612ea7565b86818110610cd757610cd761291e565b9050602002016020810190610cec919061284c565b6001600160a01b03166001600160a01b031681526020019081526020016000206000878787818110610d2057610d2061291e565b9050602002810190610d329190612ea7565b86818110610d4257610d4261291e565b9050602002810190610d549190612ea7565b85818110610d6457610d6461291e565b90506020020135815260200190815260200160002060006101000a81548160ff0219169083151502179055508080610d9b9061294a565b915050610b7d565b50878783818110610db657610db661291e565b905060200201357f55b427e2bb93f69f96cb6bdae82d8184cb4f1a461b729b335be1a6f2d3943556878785818110610df057610df061291e565b9050602002810190610e029190612ea7565b84818110610e1257610e1261291e565b9050602002016020810190610e27919061284c565b868686818110610e3957610e3961291e565b9050602002810190610e4b9190612ea7565b85818110610e5b57610e5b61291e565b9050602002810190610e6d9190612ea7565b604051610e7c93929190612ef1565b60405180910390a280610e8e8161294a565b9150506108f5565b5080610ea18161294a565b9150506107ff565b50505050505050565b6033546001600160a01b03163314610edc5760405162461bcd60e51b81526004016104b990612f1f565b610ee4612079565b565b609754600160201b90046001600160a01b0316331480610f985750609754604051637b41686d60e01b815260048101859052600160201b9091046001600160a01b031690637b41686d9060240160206040518083038186803b158015610f4b57600080fd5b505afa158015610f5f573d6000803e3d6000fd5b505050506040513d601f19601f82011682018060405250810190610f839190612e2d565b6001600160a01b0316336001600160a01b0316145b610fb45760405162461bcd60e51b81526004016104b990612e70565b60008381526099602090815260408083206001600160a01b0386168452600201825280832084845290915290205460ff1615156001141561109c5760008381526099602090815260408083206001600160a01b0386168452600101909152812080549161102083612f54565b909155505060008381526099602090815260408083206001600160a01b03861680855260029091018352818420858552835292819020805460ff19169055805192835290820183905284917f9ce9ab1541dc1a870a882f9e2a7bd29a5041e4c2d6bdd2cb47da7f5c0bc03e1391015b60405180910390a2505050565b60405162461bcd60e51b8152602060048201526014602482015273546f6b656e4964206e6f7420616c6c6f7765642160601b60448201526064016104b9565b505050565b600054610100900460ff166110fb5760005460ff16156110ff565b303b155b6111625760405162461bcd60e51b815260206004820152602e60248201527f496e697469616c697a61626c653a20636f6e747261637420697320616c72656160448201526d191e481a5b9a5d1a585b1a5e995960921b60648201526084016104b9565b600054610100900460ff16158015611184576000805461ffff19166101011790555b609780546001600160a01b03808616600160201b026001600160c01b0319909216919091176302ee05dc17909155609880549184166001600160a01b03199092169190911790556111d361210c565b6111db61213b565b80156110db576000805461ff0019169055505050565b60655460ff16156112145760405162461bcd60e51b81526004016104b990612869565b6098546040516331a9108f60e11b815260048101839052829133916001600160a01b0390911690636352211e9060240160206040518083038186803b15801561125c57600080fd5b505afa158015611270573d6000803e3d6000fd5b505050506040513d601f19601f820116820180604052508101906112949190612e2d565b6001600160a01b031614806112c757506000818152609b6020908152604080832033845290915290205460ff1615156001145b6112e35760405162461bcd60e51b81526004016104b990612e4a565b6000828152609a6020526040808220805460ff191690555183917f6e944842b926006db1c67ea74cd89fe2c9bae25554171143a28f51db252fa12891a25050565b6033546001600160a01b0316331461134e5760405162461bcd60e51b81526004016104b990612f1f565b60655460ff16156113715760405162461bcd60e51b81526004016104b990612869565b6097805463ffff000019166201000061ffff8416908102919091179091556040519081527fbe506fe4f6285e680de20e9c021ddfae052ca462d3ca93429e3e3aac5ad89803906020015b60405180910390a150565b609754600160201b90046001600160a01b03163314806114785750609754604051637b41686d60e01b815260048101849052600160201b9091046001600160a01b031690637b41686d9060240160206040518083038186803b15801561142b57600080fd5b505afa15801561143f573d6000803e3d6000fd5b505050506040513d601f19601f820116820180604052508101906114639190612e2d565b6001600160a01b0316336001600160a01b0316145b6114945760405162461bcd60e51b81526004016104b990612e70565b60008281526099602090815260408083206001600160a01b03851680855290835292819020805460ff191690555191825283917fe937f40377bdd86562a30d120cf76a1ea07cc0de3f0685f32dabb33739762ea991015b60405180910390a25050565b6033546001600160a01b031633146115215760405162461bcd60e51b81526004016104b990612f1f565b60655460ff16156115445760405162461bcd60e51b81526004016104b990612869565b6097805461ffff191661ffff83169081179091556040519081527f89ca5fa36586def428993c4a97cf7eea1a13531071f301bb5f1398008da9d3bc906020016113bb565b60655460ff16156115ab5760405162461bcd60e51b81526004016104b990612869565b6098546040516331a9108f60e11b815260048101849052839133916001600160a01b0390911690636352211e9060240160206040518083038186803b1580156115f357600080fd5b505afa158015611607573d6000803e3d6000fd5b505050506040513d601f19601f8201168201806040525081019061162b9190612e2d565b6001600160a01b0316146116515760405162461bcd60e51b81526004016104b990612f6b565b6000838152609b602090815260408083206001600160a01b038616845290915290205460ff1615156001146116c85760405162461bcd60e51b815260206004820152601760248201527f436f6c6c61626f7261746f72206e6f7420666f756e642100000000000000000060448201526064016104b9565b6000838152609b602090815260408083206001600160a01b0386168085529252808320805460ff1916905551909185917f213b7098f6bea4c344296a98893000df5975db0f186aa7c5b6997768669685549190a3505050565b6033546001600160a01b0316331461174b5760405162461bcd60e51b81526004016104b990612f1f565b610ee4600061216a565b6033546001600160a01b0316331461177f5760405162461bcd60e51b81526004016104b990612f1f565b610ee46121bc565b60655460ff16156117aa5760405162461bcd60e51b81526004016104b990612869565b6098546001600160a01b031633146118045760405162461bcd60e51b815260206004820152601f60248201527f4f6e6c79204576656e7420636f6e747261637420697320616c6c6f776564210060448201526064016104b9565b609754604051638a0c770160e01b8152600481018490526001600160a01b038381166024830152600160201b90920490911690638a0c770190604401600060405180830381600087803b15801561185a57600080fd5b505af115801561186e573d6000803e3d6000fd5b50506040516001600160a01b03841681528492507f74a10ab8b8106921a945137cc7bc5007a2618bbefe949f1e11e04fd07d59c26b91506020016114eb565b60008381526099602090815260408083206001600160a01b038616845290915281205460ff168015611939575060008481526099602090815260408083206001600160a01b03871684526001019091529020541580611939575060008481526099602090815260408083206001600160a01b0387168452600201825280832085845290915290205460ff165b949350505050565b6098546040516331a9108f60e11b815260048101849052839133916001600160a01b0390911690636352211e9060240160206040518083038186803b15801561198957600080fd5b505afa15801561199d573d6000803e3d6000fd5b505050506040513d601f19601f820116820180604052508101906119c19190612e2d565b6001600160a01b0316146119e75760405162461bcd60e51b81526004016104b990612f6b565b60655460ff1615611a0a5760405162461bcd60e51b81526004016104b990612869565b60975460405163d411a7c760e01b81526004810185905260248101849052600160201b9091046001600160a01b03169063d411a7c790604401600060405180830381600087803b158015611a5d57600080fd5b505af1158015611a71573d6000803e3d6000fd5b50505050827fc5bac6c600b65335a8baf4b0b32ed562307c63b916100134eea3629abae2042a8360405161108f91815260200190565b60655460ff1615611aca5760405162461bcd60e51b81526004016104b990612869565b6098546040516331a9108f60e11b815260048101849052839133916001600160a01b0390911690636352211e9060240160206040518083038186803b158015611b1257600080fd5b505afa158015611b26573d6000803e3d6000fd5b505050506040513d601f19601f82011682018060405250810190611b4a9190612e2d565b6001600160a01b031614611b705760405162461bcd60e51b81526004016104b990612f6b565b6110db8383612214565b60655460ff1615611b9d5760405162461bcd60e51b81526004016104b990612869565b6098546040516331a9108f60e11b815260048101859052849133916001600160a01b0390911690636352211e9060240160206040518083038186803b158015611be557600080fd5b505afa158015611bf9573d6000803e3d6000fd5b505050506040513d601f19601f82011682018060405250810190611c1d9190612e2d565b6001600160a01b03161480611cb35750336001600160a01b0316306001600160a01b0316638da5cb5b6040518163ffffffff1660e01b815260040160206040518083038186803b158015611c7057600080fd5b505afa158015611c84573d6000803e3d6000fd5b505050506040513d601f19601f82011682018060405250810190611ca89190612e2d565b6001600160a01b0316145b611ccf5760405162461bcd60e51b81526004016104b990612e4a565b609854604051630588253160e21b81526001600160a01b039091169063162094c490611d0390879087908790600401612fa2565b600060405180830381600087803b158015611d1d57600080fd5b505af1158015611d31573d6000803e3d6000fd5b50505050837f9f94ecc1e535a2ab156118309c2a92f77a424118d09ee982536ede8604d435798484604051611d67929190612fbc565b60405180910390a250505050565b6033546001600160a01b03163314611d9f5760405162461bcd60e51b81526004016104b990612f1f565b6001600160a01b038116611e045760405162461bcd60e51b815260206004820152602660248201527f4f776e61626c653a206e6577206f776e657220697320746865207a65726f206160448201526564647265737360d01b60648201526084016104b9565b611e0d8161216a565b50565b60655460ff1615611e335760405162461bcd60e51b81526004016104b990612869565b6098546040516331a9108f60e11b815260048101839052829133916001600160a01b0390911690636352211e9060240160206040518083038186803b158015611e7b57600080fd5b505afa158015611e8f573d6000803e3d6000fd5b505050506040513d601f19601f82011682018060405250810190611eb39190612e2d565b6001600160a01b03161480611f495750336001600160a01b0316306001600160a01b0316638da5cb5b6040518163ffffffff1660e01b815260040160206040518083038186803b158015611f0657600080fd5b505afa158015611f1a573d6000803e3d6000fd5b505050506040513d601f19601f82011682018060405250810190611f3e9190612e2d565b6001600160a01b0316145b611f655760405162461bcd60e51b81526004016104b990612e4a565b609754604051631f0e934b60e31b815260048101849052600160201b9091046001600160a01b03169063f8749a5890602401600060405180830381600087803b158015611fb157600080fd5b505af1158015611fc5573d6000803e3d6000fd5b5050609854604051630852cd8d60e31b8152600481018690526001600160a01b0390911692506342966c689150602401600060405180830381600087803b15801561200f57600080fd5b505af1158015612023573d6000803e3d6000fd5b50506040518492507f24089da2b94d456671c6e08e154081718367fe1b3eb2bf048f9ded0b2ce2270a9150600090a25050565b6000612061836122e2565b801561207257506120728383612315565b9392505050565b60655460ff166120c25760405162461bcd60e51b815260206004820152601460248201527314185d5cd8589b194e881b9bdd081c185d5cd95960621b60448201526064016104b9565b6065805460ff191690557f5db9ee0a495bf2e6ff9c91a7834c1ba4fdd244a5e8aa4e537bd38aeae4b073aa335b6040516001600160a01b03909116815260200160405180910390a1565b600054610100900460ff166121335760405162461bcd60e51b81526004016104b990612fd0565b610ee46123fe565b600054610100900460ff166121625760405162461bcd60e51b81526004016104b990612fd0565b610ee461242e565b603380546001600160a01b038381166001600160a01b0319831681179093556040519116919082907f8be0079c531659141344cd1fd0a4f28419497f9722a3daafe3b4186f6b6457e090600090a35050565b60655460ff16156121df5760405162461bcd60e51b81526004016104b990612869565b6065805460ff191660011790557f62e78cea01bee320cd4e420270b5ea74000d11b0c9f74754ebdbfc544b05a2586120ef3390565b6000828152609b602090815260408083206001600160a01b038516845290915290205460ff16156122875760405162461bcd60e51b815260206004820152601c60248201527f436f6c6c61626f7261746f7220616c726561647920736574746564210000000060448201526064016104b9565b6000828152609b602090815260408083206001600160a01b0385168085529252808320805460ff1916600117905551909184917f4486767bf1b4c9809ec2021de5f1555d0a96d0cc9d7c3008bfafd13f3c69ca8c9190a35050565b60006122f5826301ffc9a760e01b612315565b80156107d3575061230e826001600160e01b0319612315565b1592915050565b604080516001600160e01b0319831660248083019190915282518083039091018152604490910182526020810180516001600160e01b03166301ffc9a760e01b179052905160009190829081906001600160a01b038716906175309061237c90869061301b565b6000604051808303818686fa925050503d80600081146123b8576040519150601f19603f3d011682016040523d82523d6000602084013e6123bd565b606091505b50915091506020815110156123d857600093505050506107d3565b8180156123f45750808060200190518101906123f49190613037565b9695505050505050565b600054610100900460ff166124255760405162461bcd60e51b81526004016104b990612fd0565b610ee43361216a565b600054610100900460ff166124555760405162461bcd60e51b81526004016104b990612fd0565b6065805460ff19169055565b6001600160a01b0381168114611e0d57600080fd5b634e487b7160e01b600052604160045260246000fd5b604051601f8201601f1916810167ffffffffffffffff811182821017156124b5576124b5612476565b604052919050565b60008083601f8401126124cf57600080fd5b50813567ffffffffffffffff8111156124e757600080fd5b6020830191508360208260051b850101111561250257600080fd5b9250929050565b60006040828403121561251b57600080fd5b50919050565b600080600080600080600060a0888a03121561253c57600080fd5b873561254781612461565b965060208881013567ffffffffffffffff8082111561256557600080fd5b818b0191508b601f83011261257957600080fd5b81358181111561258b5761258b612476565b61259d601f8201601f1916850161248c565b8181528d858386010111156125b157600080fd5b8185850186830137600091810190940181905292985060408b0135929150808311156125db578182fd5b6125e78c848d016124bd565b909850965060608b01359250808311156125ff578182fd5b61260b8c848d01612509565b955060808b0135925080831115612620578182fd5b505061262e8a828b016124bd565b989b979a50959850939692959293505050565b60006020828403121561265357600080fd5b5035919050565b6000806040838503121561266d57600080fd5b82359150602083013561267f81612461565b809150509250929050565b600080600080600080606087890312156126a357600080fd5b863567ffffffffffffffff808211156126bb57600080fd5b6126c78a838b016124bd565b909850965060208901359150808211156126e057600080fd5b6126ec8a838b016124bd565b9096509450604089013591508082111561270557600080fd5b5061271289828a016124bd565b979a9699509497509295939492505050565b60008060006060848603121561273957600080fd5b83359250602084013561274b81612461565b929592945050506040919091013590565b6000806040838503121561276f57600080fd5b823561277a81612461565b9150602083013561267f81612461565b60006020828403121561279c57600080fd5b813561ffff8116811461207257600080fd5b600080604083850312156127c157600080fd5b50508035926020909101359150565b6000806000604084860312156127e557600080fd5b83359250602084013567ffffffffffffffff8082111561280457600080fd5b818601915086601f83011261281857600080fd5b81358181111561282757600080fd5b87602082850101111561283957600080fd5b6020830194508093505050509250925092565b60006020828403121561285e57600080fd5b813561207281612461565b60208082526010908201526f14185d5cd8589b194e881c185d5cd95960821b604082015260600190565b60005b838110156128ae578181015183820152602001612896565b838111156128bd576000848401525b50505050565b60018060a01b038316815260406020820152600082518060408401526128f0816060850160208701612893565b601f01601f1916919091016060019392505050565b60006020828403121561291757600080fd5b5051919050565b634e487b7160e01b600052603260045260246000fd5b634e487b7160e01b600052601160045260246000fd5b600060001982141561295e5761295e612934565b5060010190565b8015158114611e0d57600080fd5b803561297e81612965565b919050565b6000808335601e1984360301811261299a57600080fd5b830160208101925035905067ffffffffffffffff8111156129ba57600080fd5b80360383131561250257600080fd5b81835281816020850137506000828201602090810191909152601f909101601f19169091010190565b6000808335601e19843603018112612a0957600080fd5b830160208101925035905067ffffffffffffffff811115612a2957600080fd5b8060051b360383131561250257600080fd5b8183526000602080850194508260005b85811015612a79578135612a5e81612461565b6001600160a01b031687529582019590820190600101612a4b565b509495945050505050565b81835260006020808501808196508560051b81019150846000805b88811015612afc578385038a528235603e19893603018112612abf578283fd5b8801803586526040612ad3888301836129f2565b92508189890152612ae78289018483612a3b565b9c89019c975050509286019250600101612a9f565b509298975050505050505050565b81835260006001600160fb1b03831115612b2357600080fd5b8260051b8083602087013760009401602001938452509192915050565b600060408301612b5083846129f2565b604086529182905260059160608087019082851b8801018360005b84811015612ba957898303605f19018452612b8682876129f2565b612b91858284612a3b565b60209687019690955093909301925050600101612b6b565b505060209350612bbb848801886129f2565b898303868b01528083529350915083810183861b820185018360005b86811015612c5957601f1980868503018552612bf383886129f2565b8086528a8601818d1b87018c018360005b84811015612c4157868a8403018452612c1d82876129f2565b612c28858284612b0a565b945050508e820191508e84019350600181019050612c04565b5050978c019796505050928901925050600101612bd7565b50909a9950505050505050505050565b8581526001600160a01b0385166020808301919091526080604080840182905283820186905260009260a091828601600589901b870184018a87805b8c811015612d6d578a8403609f190185528235368f900360fe19018112612cca578283fd5b8e018035855287810135888601528681013587860152606080820135908601526101008a820135612cfa81612965565b15158b870152612d0c828b0183612983565b828c890152612d1e83890182846129c9565b9250505060c0612d2f818401612973565b15159087015260e0612d43838201846129f2565b935087830382890152612d57838583612a84565b988b019897505050938801935050600101612ca5565b5050508781036060890152612d82818a612b40565b9d9c50505050505050505050505050565b60006020808385031215612da657600080fd5b825167ffffffffffffffff80821115612dbe57600080fd5b818501915085601f830112612dd257600080fd5b815181811115612de457612de4612476565b8060051b9150612df584830161248c565b8181529183018401918481019088841115612e0f57600080fd5b938501935b8385101561066857845182529385019390850190612e14565b600060208284031215612e3f57600080fd5b815161207281612461565b6020808252600c908201526b4e6f7420616c6c6f7765642160a01b604082015260600190565b6020808252601c908201527f4f6e6c79204d61726b6574706c616365206f722063726561746f722100000000604082015260600190565b6000808335601e19843603018112612ebe57600080fd5b83018035915067ffffffffffffffff821115612ed957600080fd5b6020019150600581901b360382131561250257600080fd5b6001600160a01b0384168152604060208201819052600090612f169083018486612b0a565b95945050505050565b6020808252818101527f4f776e61626c653a2063616c6c6572206973206e6f7420746865206f776e6572604082015260600190565b600081612f6357612f63612934565b506000190190565b60208082526018908201527f4f6e6c792063726561746f7220697320616c6c6f776564210000000000000000604082015260600190565b838152604060208201526000612f166040830184866129c9565b6020815260006119396020830184866129c9565b6020808252602b908201527f496e697469616c697a61626c653a20636f6e7472616374206973206e6f74206960408201526a6e697469616c697a696e6760a81b606082015260800190565b6000825161302d818460208701612893565b9190910192915050565b60006020828403121561304957600080fd5b81516120728161296556fea26469706673582212208955d7e4a177144c5d101dac02293b784a4752b6a64f63ac5f80066a439d709664736f6c63430008090033",
  "linkReferences": {},
  "deployedLinkReferences": {}
}