{
  "_format": "hh-sol-artifact-1",
  "contractName": "Event",
  "sourceName": "src/Event.sol",
  "abi": [
    {
      "anonymous": false,
      "inputs": [
        {
          "indexed": true,
          "internalType": "address",
          "name": "owner",
          "type": "address"
        },
        {
          "indexed": true,
          "internalType": "address",
          "name": "approved",
          "type": "address"
        },
        {
          "indexed": true,
          "internalType": "uint256",
          "name": "tokenId",
          "type": "uint256"
        }
      ],
      "name": "Approval",
      "type": "event"
    },
    {
      "anonymous": false,
      "inputs": [
        {
          "indexed": true,
          "internalType": "address",
          "name": "owner",
          "type": "address"
        },
        {
          "indexed": true,
          "internalType": "address",
          "name": "operator",
          "type": "address"
        },
        {
          "indexed": false,
          "internalType": "bool",
          "name": "approved",
          "type": "bool"
        }
      ],
      "name": "ApprovalForAll",
      "type": "event"
    },
    {
      "anonymous": false,
      "inputs": [
        {
          "indexed": true,
          "internalType": "address",
          "name": "previousOwner",
          "type": "address"
        },
        {
          "indexed": true,
          "internalType": "address",
          "name": "newOwner",
          "type": "address"
        }
      ],
      "name": "OwnershipTransferred",
      "type": "event"
    },
    {
      "anonymous": false,
      "inputs": [
        {
          "indexed": false,
          "internalType": "address",
          "name": "account",
          "type": "address"
        }
      ],
      "name": "Paused",
      "type": "event"
    },
    {
      "anonymous": false,
      "inputs": [
        {
          "indexed": true,
          "internalType": "address",
          "name": "from",
          "type": "address"
        },
        {
          "indexed": true,
          "internalType": "address",
          "name": "to",
          "type": "address"
        },
        {
          "indexed": true,
          "internalType": "uint256",
          "name": "tokenId",
          "type": "uint256"
        }
      ],
      "name": "Transfer",
      "type": "event"
    },
    {
      "anonymous": false,
      "inputs": [
        {
          "indexed": false,
          "internalType": "address",
          "name": "account",
          "type": "address"
        }
      ],
      "name": "Unpaused",
      "type": "event"
    },
    {
      "inputs": [
        {
          "internalType": "address",
          "name": "to",
          "type": "address"
        },
        {
          "internalType": "uint256",
          "name": "tokenId",
          "type": "uint256"
        }
      ],
      "name": "approve",
      "outputs": [],
      "stateMutability": "nonpayable",
      "type": "function"
    },
    {
      "inputs": [
        {
          "internalType": "address",
          "name": "owner",
          "type": "address"
        }
      ],
      "name": "balanceOf",
      "outputs": [
        {
          "internalType": "uint256",
          "name": "",
          "type": "uint256"
        }
      ],
      "stateMutability": "view",
      "type": "function"
    },
    {
      "inputs": [
        {
          "internalType": "uint256",
          "name": "tokenId",
          "type": "uint256"
        }
      ],
      "name": "burn",
      "outputs": [],
      "stateMutability": "nonpayable",
      "type": "function"
    },
    {
      "inputs": [
        {
          "internalType": "uint256",
          "name": "tokenId",
          "type": "uint256"
        }
      ],
      "name": "getApproved",
      "outputs": [
        {
          "internalType": "address",
          "name": "",
          "type": "address"
        }
      ],
      "stateMutability": "view",
      "type": "function"
    },
    {
      "inputs": [
        {
          "internalType": "address",
          "name": "_marketplaceAddress",
          "type": "address"
        }
      ],
      "name": "initialize",
      "outputs": [],
      "stateMutability": "nonpayable",
      "type": "function"
    },
    {
      "inputs": [
        {
          "internalType": "address",
          "name": "owner",
          "type": "address"
        },
        {
          "internalType": "address",
          "name": "operator",
          "type": "address"
        }
      ],
      "name": "isApprovedForAll",
      "outputs": [
        {
          "internalType": "bool",
          "name": "",
          "type": "bool"
        }
      ],
      "stateMutability": "view",
      "type": "function"
    },
    {
      "inputs": [],
      "name": "marketplaceAddress",
      "outputs": [
        {
          "internalType": "address",
          "name": "",
          "type": "address"
        }
      ],
      "stateMutability": "view",
      "type": "function"
    },
    {
      "inputs": [],
      "name": "name",
      "outputs": [
        {
          "internalType": "string",
          "name": "",
          "type": "string"
        }
      ],
      "stateMutability": "view",
      "type": "function"
    },
    {
      "inputs": [],
      "name": "owner",
      "outputs": [
        {
          "internalType": "address",
          "name": "",
          "type": "address"
        }
      ],
      "stateMutability": "view",
      "type": "function"
    },
    {
      "inputs": [
        {
          "internalType": "uint256",
          "name": "tokenId",
          "type": "uint256"
        }
      ],
      "name": "ownerOf",
      "outputs": [
        {
          "internalType": "address",
          "name": "",
          "type": "address"
        }
      ],
      "stateMutability": "view",
      "type": "function"
    },
    {
      "inputs": [],
      "name": "pause",
      "outputs": [],
      "stateMutability": "nonpayable",
      "type": "function"
    },
    {
      "inputs": [],
      "name": "paused",
      "outputs": [
        {
          "internalType": "bool",
          "name": "",
          "type": "bool"
        }
      ],
      "stateMutability": "view",
      "type": "function"
    },
    {
      "inputs": [],
      "name": "renounceOwnership",
      "outputs": [],
      "stateMutability": "nonpayable",
      "type": "function"
    },
    {
      "inputs": [
        {
          "internalType": "address",
          "name": "to",
          "type": "address"
        },
        {
          "internalType": "string",
          "name": "uri",
          "type": "string"
        }
      ],
      "name": "safeMint",
      "outputs": [
        {
          "internalType": "uint256",
          "name": "",
          "type": "uint256"
        }
      ],
      "stateMutability": "nonpayable",
      "type": "function"
    },
    {
      "inputs": [
        {
          "internalType": "address",
          "name": "from",
          "type": "address"
        },
        {
          "internalType": "address",
          "name": "to",
          "type": "address"
        },
        {
          "internalType": "uint256",
          "name": "tokenId",
          "type": "uint256"
        }
      ],
      "name": "safeTransferFrom",
      "outputs": [],
      "stateMutability": "nonpayable",
      "type": "function"
    },
    {
      "inputs": [
        {
          "internalType": "address",
          "name": "from",
          "type": "address"
        },
        {
          "internalType": "address",
          "name": "to",
          "type": "address"
        },
        {
          "internalType": "uint256",
          "name": "tokenId",
          "type": "uint256"
        },
        {
          "internalType": "bytes",
          "name": "_data",
          "type": "bytes"
        }
      ],
      "name": "safeTransferFrom",
      "outputs": [],
      "stateMutability": "nonpayable",
      "type": "function"
    },
    {
      "inputs": [
        {
          "internalType": "address",
          "name": "operator",
          "type": "address"
        },
        {
          "internalType": "bool",
          "name": "approved",
          "type": "bool"
        }
      ],
      "name": "setApprovalForAll",
      "outputs": [],
      "stateMutability": "nonpayable",
      "type": "function"
    },
    {
      "inputs": [
        {
          "internalType": "uint256",
          "name": "tokenId",
          "type": "uint256"
        },
        {
          "internalType": "string",
          "name": "_tokenURI",
          "type": "string"
        }
      ],
      "name": "setTokenURI",
      "outputs": [],
      "stateMutability": "nonpayable",
      "type": "function"
    },
    {
      "inputs": [
        {
          "internalType": "bytes4",
          "name": "interfaceId",
          "type": "bytes4"
        }
      ],
      "name": "supportsInterface",
      "outputs": [
        {
          "internalType": "bool",
          "name": "",
          "type": "bool"
        }
      ],
      "stateMutability": "view",
      "type": "function"
    },
    {
      "inputs": [],
      "name": "symbol",
      "outputs": [
        {
          "internalType": "string",
          "name": "",
          "type": "string"
        }
      ],
      "stateMutability": "view",
      "type": "function"
    },
    {
      "inputs": [
        {
          "internalType": "uint256",
          "name": "tokenId",
          "type": "uint256"
        }
      ],
      "name": "tokenURI",
      "outputs": [
        {
          "internalType": "string",
          "name": "",
          "type": "string"
        }
      ],
      "stateMutability": "view",
      "type": "function"
    },
    {
      "inputs": [
        {
          "internalType": "address",
          "name": "from",
          "type": "address"
        },
        {
          "internalType": "address",
          "name": "to",
          "type": "address"
        },
        {
          "internalType": "uint256",
          "name": "tokenId",
          "type": "uint256"
        }
      ],
      "name": "transferFrom",
      "outputs": [],
      "stateMutability": "nonpayable",
      "type": "function"
    },
    {
      "inputs": [
        {
          "internalType": "address",
          "name": "newOwner",
          "type": "address"
        }
      ],
      "name": "transferOwnership",
      "outputs": [],
      "stateMutability": "nonpayable",
      "type": "function"
    },
    {
      "inputs": [],
      "name": "unpause",
      "outputs": [],
      "stateMutability": "nonpayable",
      "type": "function"
    }
  ],
  "bytecode": "0x608060405234801561001057600080fd5b506121b2806100206000396000f3fe608060405234801561001057600080fd5b50600436106101585760003560e01c8063715018a6116100c3578063c4d66de81161007c578063c4d66de8146102bc578063c87b56dd146102cf578063d204c45e146102e2578063daa17f49146102f5578063e985e9c514610309578063f2fde38b1461034557600080fd5b8063715018a61461026d5780638456cb59146102755780638da5cb5b1461027d57806395d89b411461028e578063a22cb46514610296578063b88d4fde146102a957600080fd5b80633f4ba83a116101155780633f4ba83a1461020057806342842e0e1461020857806342966c681461021b5780635c975abb1461022e5780636352211e1461023957806370a082311461024c57600080fd5b806301ffc9a71461015d57806306fdde0314610185578063081812fc1461019a578063095ea7b3146101c5578063162094c4146101da57806323b872dd146101ed575b600080fd5b61017061016b366004611b2c565b610358565b60405190151581526020015b60405180910390f35b61018d6103aa565b60405161017c9190611ba1565b6101ad6101a8366004611bb4565b61043c565b6040516001600160a01b03909116815260200161017c565b6101d86101d3366004611be9565b6104c9565b005b6101d86101e8366004611cbf565b6105df565b6101d86101fb366004611d06565b61063b565b6101d861066c565b6101d8610216366004611d06565b6106a0565b6101d8610229366004611bb4565b61073a565b60c95460ff16610170565b6101ad610247366004611bb4565b610794565b61025f61025a366004611d42565b61080b565b60405190815260200161017c565b6101d8610892565b6101d86108c6565b60fb546001600160a01b03166101ad565b61018d6108f8565b6101d86102a4366004611d5d565b610907565b6101d86102b7366004611d99565b610912565b6101d86102ca366004611d42565b61094a565b61018d6102dd366004611bb4565b610a7e565b61025f6102f0366004611e15565b610a89565b610160546101ad906001600160a01b031681565b610170610317366004611e4d565b6001600160a01b039182166000908152606a6020908152604080832093909416825291909152205460ff1690565b6101d8610353366004611d42565b610b2c565b60006001600160e01b031982166380ac58cd60e01b148061038957506001600160e01b03198216635b5e139f60e01b145b806103a457506301ffc9a760e01b6001600160e01b03198316145b92915050565b6060606580546103b990611e80565b80601f01602080910402602001604051908101604052809291908181526020018280546103e590611e80565b80156104325780601f1061040757610100808354040283529160200191610432565b820191906000526020600020905b81548152906001019060200180831161041557829003601f168201915b5050505050905090565b600061044782610bc4565b6104ad5760405162461bcd60e51b815260206004820152602c60248201527f4552433732313a20617070726f76656420717565727920666f72206e6f6e657860448201526b34b9ba32b73a103a37b5b2b760a11b60648201526084015b60405180910390fd5b506000908152606960205260409020546001600160a01b031690565b60006104d482610794565b9050806001600160a01b0316836001600160a01b031614156105425760405162461bcd60e51b815260206004820152602160248201527f4552433732313a20617070726f76616c20746f2063757272656e74206f776e656044820152603960f91b60648201526084016104a4565b336001600160a01b038216148061055e575061055e8133610317565b6105d05760405162461bcd60e51b815260206004820152603860248201527f4552433732313a20617070726f76652063616c6c6572206973206e6f74206f7760448201527f6e6572206e6f7220617070726f76656420666f7220616c6c000000000000000060648201526084016104a4565b6105da8383610be1565b505050565b610160546001600160a01b0316331461060a5760405162461bcd60e51b81526004016104a490611ebb565b60c95460ff161561062d5760405162461bcd60e51b81526004016104a490611ef2565b6106378282610c4f565b5050565b6106453382610cda565b6106615760405162461bcd60e51b81526004016104a490611f1c565b6105da838383610dc4565b60fb546001600160a01b031633146106965760405162461bcd60e51b81526004016104a490611f6d565b61069e610f6b565b565b60c95460ff16156106c35760405162461bcd60e51b81526004016104a490611ef2565b6106ce838383610ffe565b6101605460405163b13eb65960e01b8152600481018390526001600160a01b0384811660248301529091169063b13eb65990604401600060405180830381600087803b15801561071d57600080fd5b505af1158015610731573d6000803e3d6000fd5b50505050505050565b610160546001600160a01b031633146107655760405162461bcd60e51b81526004016104a490611ebb565b60c95460ff16156107885760405162461bcd60e51b81526004016104a490611ef2565b61079181611019565b50565b6000818152606760205260408120546001600160a01b0316806103a45760405162461bcd60e51b815260206004820152602960248201527f4552433732313a206f776e657220717565727920666f72206e6f6e657869737460448201526832b73a103a37b5b2b760b91b60648201526084016104a4565b60006001600160a01b0382166108765760405162461bcd60e51b815260206004820152602a60248201527f4552433732313a2062616c616e636520717565727920666f7220746865207a65604482015269726f206164647265737360b01b60648201526084016104a4565b506001600160a01b031660009081526068602052604090205490565b60fb546001600160a01b031633146108bc5760405162461bcd60e51b81526004016104a490611f6d565b61069e6000611022565b60fb546001600160a01b031633146108f05760405162461bcd60e51b81526004016104a490611f6d565b61069e611074565b6060606680546103b990611e80565b6106373383836110cc565b61091c3383610cda565b6109385760405162461bcd60e51b81526004016104a490611f1c565b6109448484848461119b565b50505050565b600054610100900460ff166109655760005460ff1615610969565b303b155b6109cc5760405162461bcd60e51b815260206004820152602e60248201527f496e697469616c697a61626c653a20636f6e747261637420697320616c72656160448201526d191e481a5b9a5d1a585b1a5e995960921b60648201526084016104a4565b600054610100900460ff161580156109ee576000805461ffff19166101011790555b61016080546001600160a01b0319166001600160a01b0384161790556040805180820182526005815264115d995b9d60da1b6020808301919091528251808401909352600383526245564560e81b90830152610a49916111ce565b610a516111ff565b610a59611226565b610a61611255565b610a696111ff565b8015610637576000805461ff00191690555050565b60606103a482611284565b610160546000906001600160a01b03163314610ab75760405162461bcd60e51b81526004016104a490611ebb565b60c95460ff1615610ada5760405162461bcd60e51b81526004016104a490611ef2565b6000610ae661015f5490565b9050610af761015f80546001019055565b610b018482611410565b61016054610b1b9085906001600160a01b031660016110cc565b610b258184610c4f565b9392505050565b60fb546001600160a01b03163314610b565760405162461bcd60e51b81526004016104a490611f6d565b6001600160a01b038116610bbb5760405162461bcd60e51b815260206004820152602660248201527f4f776e61626c653a206e6577206f776e657220697320746865207a65726f206160448201526564647265737360d01b60648201526084016104a4565b61079181611022565b6000908152606760205260409020546001600160a01b0316151590565b600081815260696020526040902080546001600160a01b0319166001600160a01b0384169081179091558190610c1682610794565b6001600160a01b03167f8c5be1e5ebec7d5bd14f71427d1e84f3dd0314c0f7b2291e5b200ac8c7c3b92560405160405180910390a45050565b610c5882610bc4565b610cbb5760405162461bcd60e51b815260206004820152602e60248201527f45524337323155524953746f726167653a2055524920736574206f66206e6f6e60448201526d32bc34b9ba32b73a103a37b5b2b760911b60648201526084016104a4565b600082815260976020908152604090912082516105da92840190611a47565b6000610ce582610bc4565b610d465760405162461bcd60e51b815260206004820152602c60248201527f4552433732313a206f70657261746f7220717565727920666f72206e6f6e657860448201526b34b9ba32b73a103a37b5b2b760a11b60648201526084016104a4565b6000610d5183610794565b9050806001600160a01b0316846001600160a01b03161480610d8c5750836001600160a01b0316610d818461043c565b6001600160a01b0316145b80610dbc57506001600160a01b038082166000908152606a602090815260408083209388168352929052205460ff165b949350505050565b826001600160a01b0316610dd782610794565b6001600160a01b031614610e3b5760405162461bcd60e51b815260206004820152602560248201527f4552433732313a207472616e736665722066726f6d20696e636f72726563742060448201526437bbb732b960d91b60648201526084016104a4565b6001600160a01b038216610e9d5760405162461bcd60e51b8152602060048201526024808201527f4552433732313a207472616e7366657220746f20746865207a65726f206164646044820152637265737360e01b60648201526084016104a4565b610ea883838361142a565b610eb3600082610be1565b6001600160a01b0383166000908152606860205260408120805460019290610edc908490611fb8565b90915550506001600160a01b0382166000908152606860205260408120805460019290610f0a908490611fcf565b909155505060008181526067602052604080822080546001600160a01b0319166001600160a01b0386811691821790925591518493918716917fddf252ad1be2c89b69c2b068fc378daa952ba7f163c4a11628f55a4df523b3ef91a4505050565b60c95460ff16610fb45760405162461bcd60e51b815260206004820152601460248201527314185d5cd8589b194e881b9bdd081c185d5cd95960621b60448201526064016104a4565b60c9805460ff191690557f5db9ee0a495bf2e6ff9c91a7834c1ba4fdd244a5e8aa4e537bd38aeae4b073aa335b6040516001600160a01b03909116815260200160405180910390a1565b6105da83838360405180602001604052806000815250610912565b6107918161144d565b60fb80546001600160a01b038381166001600160a01b0319831681179093556040519116919082907f8be0079c531659141344cd1fd0a4f28419497f9722a3daafe3b4186f6b6457e090600090a35050565b60c95460ff16156110975760405162461bcd60e51b81526004016104a490611ef2565b60c9805460ff191660011790557f62e78cea01bee320cd4e420270b5ea74000d11b0c9f74754ebdbfc544b05a258610fe13390565b816001600160a01b0316836001600160a01b0316141561112e5760405162461bcd60e51b815260206004820152601960248201527f4552433732313a20617070726f766520746f2063616c6c65720000000000000060448201526064016104a4565b6001600160a01b038381166000818152606a6020908152604080832094871680845294825291829020805460ff191686151590811790915591519182527f17307eab39ab6107e8899845ad3d59bd9653f200f220920489ca2b5937696c31910160405180910390a3505050565b6111a6848484610dc4565b6111b28484848461148d565b6109445760405162461bcd60e51b81526004016104a490611fe7565b600054610100900460ff166111f55760405162461bcd60e51b81526004016104a490612039565b610637828261158b565b600054610100900460ff1661069e5760405162461bcd60e51b81526004016104a490612039565b600054610100900460ff1661124d5760405162461bcd60e51b81526004016104a490612039565b61069e6115d9565b600054610100900460ff1661127c5760405162461bcd60e51b81526004016104a490612039565b61069e61160c565b606061128f82610bc4565b6112f55760405162461bcd60e51b815260206004820152603160248201527f45524337323155524953746f726167653a2055524920717565727920666f72206044820152703737b732bc34b9ba32b73a103a37b5b2b760791b60648201526084016104a4565b6000828152609760205260408120805461130e90611e80565b80601f016020809104026020016040519081016040528092919081815260200182805461133a90611e80565b80156113875780601f1061135c57610100808354040283529160200191611387565b820191906000526020600020905b81548152906001019060200180831161136a57829003601f168201915b5050505050905060006113c260408051808201909152601581527468747470733a2f2f697066732e696f2f697066732f60581b602082015290565b90508051600014156113d5575092915050565b8151156114075780826040516020016113ef929190612084565b60405160208183030381529060405292505050919050565b610dbc8461163c565b610637828260405180602001604052806000815250611730565b60c95460ff16156105da5760405162461bcd60e51b81526004016104a490611ef2565b61145681611763565b6000818152609760205260409020805461146f90611e80565b15905061079157600081815260976020526040812061079191611acb565b60006001600160a01b0384163b1561158057604051630a85bd0160e11b81526001600160a01b0385169063150b7a02906114d19033908990889088906004016120b3565b6020604051808303816000875af192505050801561150c575060408051601f3d908101601f19168201909252611509918101906120f0565b60015b611566573d80801561153a576040519150601f19603f3d011682016040523d82523d6000602084013e61153f565b606091505b50805161155e5760405162461bcd60e51b81526004016104a490611fe7565b805181602001fd5b6001600160e01b031916630a85bd0160e11b149050610dbc565b506001949350505050565b600054610100900460ff166115b25760405162461bcd60e51b81526004016104a490612039565b81516115c5906065906020850190611a47565b5080516105da906066906020840190611a47565b600054610100900460ff166116005760405162461bcd60e51b81526004016104a490612039565b60c9805460ff19169055565b600054610100900460ff166116335760405162461bcd60e51b81526004016104a490612039565b61069e33611022565b606061164782610bc4565b6116ab5760405162461bcd60e51b815260206004820152602f60248201527f4552433732314d657461646174613a2055524920717565727920666f72206e6f60448201526e3732bc34b9ba32b73a103a37b5b2b760891b60648201526084016104a4565b60006116df60408051808201909152601581527468747470733a2f2f697066732e696f2f697066732f60581b602082015290565b905060008151116116ff5760405180602001604052806000815250610b25565b806117098461180a565b60405160200161171a929190612084565b6040516020818303038152906040529392505050565b61173a8383611908565b611747600084848461148d565b6105da5760405162461bcd60e51b81526004016104a490611fe7565b600061176e82610794565b905061177c8160008461142a565b611787600083610be1565b6001600160a01b03811660009081526068602052604081208054600192906117b0908490611fb8565b909155505060008281526067602052604080822080546001600160a01b0319169055518391906001600160a01b038416907fddf252ad1be2c89b69c2b068fc378daa952ba7f163c4a11628f55a4df523b3ef908390a45050565b60608161182e5750506040805180820190915260018152600360fc1b602082015290565b8160005b811561185857806118428161210d565b91506118519050600a8361213e565b9150611832565b60008167ffffffffffffffff81111561187357611873611c13565b6040519080825280601f01601f19166020018201604052801561189d576020820181803683370190505b5090505b8415610dbc576118b2600183611fb8565b91506118bf600a86612152565b6118ca906030611fcf565b60f81b8183815181106118df576118df612166565b60200101906001600160f81b031916908160001a905350611901600a8661213e565b94506118a1565b6001600160a01b03821661195e5760405162461bcd60e51b815260206004820181905260248201527f4552433732313a206d696e7420746f20746865207a65726f206164647265737360448201526064016104a4565b61196781610bc4565b156119b45760405162461bcd60e51b815260206004820152601c60248201527f4552433732313a20746f6b656e20616c7265616479206d696e7465640000000060448201526064016104a4565b6119c06000838361142a565b6001600160a01b03821660009081526068602052604081208054600192906119e9908490611fcf565b909155505060008181526067602052604080822080546001600160a01b0319166001600160a01b03861690811790915590518392907fddf252ad1be2c89b69c2b068fc378daa952ba7f163c4a11628f55a4df523b3ef908290a45050565b828054611a5390611e80565b90600052602060002090601f016020900481019282611a755760008555611abb565b82601f10611a8e57805160ff1916838001178555611abb565b82800160010185558215611abb579182015b82811115611abb578251825591602001919060010190611aa0565b50611ac7929150611b01565b5090565b508054611ad790611e80565b6000825580601f10611ae7575050565b601f01602090049060005260206000209081019061079191905b5b80821115611ac75760008155600101611b02565b6001600160e01b03198116811461079157600080fd5b600060208284031215611b3e57600080fd5b8135610b2581611b16565b60005b83811015611b64578181015183820152602001611b4c565b838111156109445750506000910152565b60008151808452611b8d816020860160208601611b49565b601f01601f19169290920160200192915050565b602081526000610b256020830184611b75565b600060208284031215611bc657600080fd5b5035919050565b80356001600160a01b0381168114611be457600080fd5b919050565b60008060408385031215611bfc57600080fd5b611c0583611bcd565b946020939093013593505050565b634e487b7160e01b600052604160045260246000fd5b600067ffffffffffffffff80841115611c4457611c44611c13565b604051601f8501601f19908116603f01168101908282118183101715611c6c57611c6c611c13565b81604052809350858152868686011115611c8557600080fd5b858560208301376000602087830101525050509392505050565b600082601f830112611cb057600080fd5b610b2583833560208501611c29565b60008060408385031215611cd257600080fd5b82359150602083013567ffffffffffffffff811115611cf057600080fd5b611cfc85828601611c9f565b9150509250929050565b600080600060608486031215611d1b57600080fd5b611d2484611bcd565b9250611d3260208501611bcd565b9150604084013590509250925092565b600060208284031215611d5457600080fd5b610b2582611bcd565b60008060408385031215611d7057600080fd5b611d7983611bcd565b915060208301358015158114611d8e57600080fd5b809150509250929050565b60008060008060808587031215611daf57600080fd5b611db885611bcd565b9350611dc660208601611bcd565b925060408501359150606085013567ffffffffffffffff811115611de957600080fd5b8501601f81018713611dfa57600080fd5b611e0987823560208401611c29565b91505092959194509250565b60008060408385031215611e2857600080fd5b611e3183611bcd565b9150602083013567ffffffffffffffff811115611cf057600080fd5b60008060408385031215611e6057600080fd5b611e6983611bcd565b9150611e7760208401611bcd565b90509250929050565b600181811c90821680611e9457607f821691505b60208210811415611eb557634e487b7160e01b600052602260045260246000fd5b50919050565b6020808252601c908201527f4f6e6c79204d61726b6574706c61636520697320616c6c6f7765642100000000604082015260600190565b60208082526010908201526f14185d5cd8589b194e881c185d5cd95960821b604082015260600190565b60208082526031908201527f4552433732313a207472616e736665722063616c6c6572206973206e6f74206f6040820152701ddb995c881b9bdc88185c1c1c9bdd9959607a1b606082015260800190565b6020808252818101527f4f776e61626c653a2063616c6c6572206973206e6f7420746865206f776e6572604082015260600190565b634e487b7160e01b600052601160045260246000fd5b600082821015611fca57611fca611fa2565b500390565b60008219821115611fe257611fe2611fa2565b500190565b60208082526032908201527f4552433732313a207472616e7366657220746f206e6f6e20455243373231526560408201527131b2b4bb32b91034b6b83632b6b2b73a32b960711b606082015260800190565b6020808252602b908201527f496e697469616c697a61626c653a20636f6e7472616374206973206e6f74206960408201526a6e697469616c697a696e6760a81b606082015260800190565b60008351612096818460208801611b49565b8351908301906120aa818360208801611b49565b01949350505050565b6001600160a01b03858116825284166020820152604081018390526080606082018190526000906120e690830184611b75565b9695505050505050565b60006020828403121561210257600080fd5b8151610b2581611b16565b600060001982141561212157612121611fa2565b5060010190565b634e487b7160e01b600052601260045260246000fd5b60008261214d5761214d612128565b500490565b60008261216157612161612128565b500690565b634e487b7160e01b600052603260045260246000fdfea26469706673582212201632da0691d8d5ae08eb353c2485747731452b320546a7ea20455ecff7cf265b64736f6c634300080c0033",
  "linkReferences": {},
  "deployedLinkReferences": {}
}