{
  "_format": "hh-sol-artifact-1",
  "contractName": "Event",
  "sourceName": "src/Event.sol",
  "abi": [
    {
      "anonymous": false,
      "inputs": [
        {
          "indexed": true,
          "internalType": "address",
          "name": "owner",
          "type": "address"
        },
        {
          "indexed": true,
          "internalType": "address",
          "name": "approved",
          "type": "address"
        },
        {
          "indexed": true,
          "internalType": "uint256",
          "name": "tokenId",
          "type": "uint256"
        }
      ],
      "name": "Approval",
      "type": "event"
    },
    {
      "anonymous": false,
      "inputs": [
        {
          "indexed": true,
          "internalType": "address",
          "name": "owner",
          "type": "address"
        },
        {
          "indexed": true,
          "internalType": "address",
          "name": "operator",
          "type": "address"
        },
        {
          "indexed": false,
          "internalType": "bool",
          "name": "approved",
          "type": "bool"
        }
      ],
      "name": "ApprovalForAll",
      "type": "event"
    },
    {
      "anonymous": false,
      "inputs": [
        {
          "indexed": true,
          "internalType": "address",
          "name": "previousOwner",
          "type": "address"
        },
        {
          "indexed": true,
          "internalType": "address",
          "name": "newOwner",
          "type": "address"
        }
      ],
      "name": "OwnershipTransferred",
      "type": "event"
    },
    {
      "anonymous": false,
      "inputs": [
        {
          "indexed": false,
          "internalType": "address",
          "name": "account",
          "type": "address"
        }
      ],
      "name": "Paused",
      "type": "event"
    },
    {
      "anonymous": false,
      "inputs": [
        {
          "indexed": true,
          "internalType": "address",
          "name": "from",
          "type": "address"
        },
        {
          "indexed": true,
          "internalType": "address",
          "name": "to",
          "type": "address"
        },
        {
          "indexed": true,
          "internalType": "uint256",
          "name": "tokenId",
          "type": "uint256"
        }
      ],
      "name": "Transfer",
      "type": "event"
    },
    {
      "anonymous": false,
      "inputs": [
        {
          "indexed": false,
          "internalType": "address",
          "name": "account",
          "type": "address"
        }
      ],
      "name": "Unpaused",
      "type": "event"
    },
    {
      "inputs": [],
      "name": "adminAddress",
      "outputs": [
        {
          "internalType": "address",
          "name": "",
          "type": "address"
        }
      ],
      "stateMutability": "view",
      "type": "function"
    },
    {
      "inputs": [
        {
          "internalType": "address",
          "name": "to",
          "type": "address"
        },
        {
          "internalType": "uint256",
          "name": "tokenId",
          "type": "uint256"
        }
      ],
      "name": "approve",
      "outputs": [],
      "stateMutability": "nonpayable",
      "type": "function"
    },
    {
      "inputs": [
        {
          "internalType": "address",
          "name": "owner",
          "type": "address"
        }
      ],
      "name": "balanceOf",
      "outputs": [
        {
          "internalType": "uint256",
          "name": "",
          "type": "uint256"
        }
      ],
      "stateMutability": "view",
      "type": "function"
    },
    {
      "inputs": [
        {
          "internalType": "uint256",
          "name": "tokenId",
          "type": "uint256"
        }
      ],
      "name": "burn",
      "outputs": [],
      "stateMutability": "nonpayable",
      "type": "function"
    },
    {
      "inputs": [
        {
          "internalType": "uint256",
          "name": "tokenId",
          "type": "uint256"
        }
      ],
      "name": "getApproved",
      "outputs": [
        {
          "internalType": "address",
          "name": "",
          "type": "address"
        }
      ],
      "stateMutability": "view",
      "type": "function"
    },
    {
      "inputs": [
        {
          "internalType": "address",
          "name": "_adminAddress",
          "type": "address"
        }
      ],
      "name": "initialize",
      "outputs": [],
      "stateMutability": "nonpayable",
      "type": "function"
    },
    {
      "inputs": [
        {
          "internalType": "address",
          "name": "owner",
          "type": "address"
        },
        {
          "internalType": "address",
          "name": "operator",
          "type": "address"
        }
      ],
      "name": "isApprovedForAll",
      "outputs": [
        {
          "internalType": "bool",
          "name": "",
          "type": "bool"
        }
      ],
      "stateMutability": "view",
      "type": "function"
    },
    {
      "inputs": [],
      "name": "name",
      "outputs": [
        {
          "internalType": "string",
          "name": "",
          "type": "string"
        }
      ],
      "stateMutability": "view",
      "type": "function"
    },
    {
      "inputs": [],
      "name": "owner",
      "outputs": [
        {
          "internalType": "address",
          "name": "",
          "type": "address"
        }
      ],
      "stateMutability": "view",
      "type": "function"
    },
    {
      "inputs": [
        {
          "internalType": "uint256",
          "name": "tokenId",
          "type": "uint256"
        }
      ],
      "name": "ownerOf",
      "outputs": [
        {
          "internalType": "address",
          "name": "",
          "type": "address"
        }
      ],
      "stateMutability": "view",
      "type": "function"
    },
    {
      "inputs": [],
      "name": "pause",
      "outputs": [],
      "stateMutability": "nonpayable",
      "type": "function"
    },
    {
      "inputs": [],
      "name": "paused",
      "outputs": [
        {
          "internalType": "bool",
          "name": "",
          "type": "bool"
        }
      ],
      "stateMutability": "view",
      "type": "function"
    },
    {
      "inputs": [],
      "name": "renounceOwnership",
      "outputs": [],
      "stateMutability": "nonpayable",
      "type": "function"
    },
    {
      "inputs": [
        {
          "internalType": "address",
          "name": "to",
          "type": "address"
        },
        {
          "internalType": "string",
          "name": "uri",
          "type": "string"
        }
      ],
      "name": "safeMint",
      "outputs": [
        {
          "internalType": "uint256",
          "name": "",
          "type": "uint256"
        }
      ],
      "stateMutability": "nonpayable",
      "type": "function"
    },
    {
      "inputs": [
        {
          "internalType": "address",
          "name": "from",
          "type": "address"
        },
        {
          "internalType": "address",
          "name": "to",
          "type": "address"
        },
        {
          "internalType": "uint256",
          "name": "tokenId",
          "type": "uint256"
        }
      ],
      "name": "safeTransferFrom",
      "outputs": [],
      "stateMutability": "nonpayable",
      "type": "function"
    },
    {
      "inputs": [
        {
          "internalType": "address",
          "name": "from",
          "type": "address"
        },
        {
          "internalType": "address",
          "name": "to",
          "type": "address"
        },
        {
          "internalType": "uint256",
          "name": "tokenId",
          "type": "uint256"
        },
        {
          "internalType": "bytes",
          "name": "_data",
          "type": "bytes"
        }
      ],
      "name": "safeTransferFrom",
      "outputs": [],
      "stateMutability": "nonpayable",
      "type": "function"
    },
    {
      "inputs": [
        {
          "internalType": "address",
          "name": "operator",
          "type": "address"
        },
        {
          "internalType": "bool",
          "name": "approved",
          "type": "bool"
        }
      ],
      "name": "setApprovalForAll",
      "outputs": [],
      "stateMutability": "nonpayable",
      "type": "function"
    },
    {
      "inputs": [
        {
          "internalType": "uint256",
          "name": "tokenId",
          "type": "uint256"
        },
        {
          "internalType": "string",
          "name": "_tokenURI",
          "type": "string"
        }
      ],
      "name": "setTokenURI",
      "outputs": [],
      "stateMutability": "nonpayable",
      "type": "function"
    },
    {
      "inputs": [
        {
          "internalType": "bytes4",
          "name": "interfaceId",
          "type": "bytes4"
        }
      ],
      "name": "supportsInterface",
      "outputs": [
        {
          "internalType": "bool",
          "name": "",
          "type": "bool"
        }
      ],
      "stateMutability": "view",
      "type": "function"
    },
    {
      "inputs": [],
      "name": "symbol",
      "outputs": [
        {
          "internalType": "string",
          "name": "",
          "type": "string"
        }
      ],
      "stateMutability": "view",
      "type": "function"
    },
    {
      "inputs": [
        {
          "internalType": "uint256",
          "name": "tokenId",
          "type": "uint256"
        }
      ],
      "name": "tokenURI",
      "outputs": [
        {
          "internalType": "string",
          "name": "",
          "type": "string"
        }
      ],
      "stateMutability": "view",
      "type": "function"
    },
    {
      "inputs": [
        {
          "internalType": "address",
          "name": "from",
          "type": "address"
        },
        {
          "internalType": "address",
          "name": "to",
          "type": "address"
        },
        {
          "internalType": "uint256",
          "name": "tokenId",
          "type": "uint256"
        }
      ],
      "name": "transferFrom",
      "outputs": [],
      "stateMutability": "nonpayable",
      "type": "function"
    },
    {
      "inputs": [
        {
          "internalType": "address",
          "name": "newOwner",
          "type": "address"
        }
      ],
      "name": "transferOwnership",
      "outputs": [],
      "stateMutability": "nonpayable",
      "type": "function"
    },
    {
      "inputs": [],
      "name": "unpause",
      "outputs": [],
      "stateMutability": "nonpayable",
      "type": "function"
    }
  ],
  "bytecode": "0x608060405234801561001057600080fd5b506121d3806100206000396000f3fe608060405234801561001057600080fd5b50600436106101585760003560e01c8063715018a6116100c3578063c4d66de81161007c578063c4d66de8146102bc578063c87b56dd146102cf578063d204c45e146102e2578063e985e9c5146102f5578063f2fde38b14610331578063fc6f94681461034457600080fd5b8063715018a61461026d5780638456cb59146102755780638da5cb5b1461027d57806395d89b411461028e578063a22cb46514610296578063b88d4fde146102a957600080fd5b80633f4ba83a116101155780633f4ba83a1461020057806342842e0e1461020857806342966c681461021b5780635c975abb1461022e5780636352211e1461023957806370a082311461024c57600080fd5b806301ffc9a71461015d57806306fdde0314610185578063081812fc1461019a578063095ea7b3146101c5578063162094c4146101da57806323b872dd146101ed575b600080fd5b61017061016b366004611b54565b610358565b60405190151581526020015b60405180910390f35b61018d6103aa565b60405161017c9190611bc9565b6101ad6101a8366004611bdc565b61043c565b6040516001600160a01b03909116815260200161017c565b6101d86101d3366004611c11565b6104c9565b005b6101d86101e8366004611ce7565b6105df565b6101d86101fb366004611d2e565b61063b565b6101d861066c565b6101d8610216366004611d2e565b6106a0565b6101d8610229366004611bdc565b61073a565b60c95460ff16610170565b6101ad610247366004611bdc565b610794565b61025f61025a366004611d6a565b61080b565b60405190815260200161017c565b6101d8610892565b6101d86108c6565b60fb546001600160a01b03166101ad565b61018d6108f8565b6101d86102a4366004611d85565b610907565b6101d86102b7366004611dc1565b610912565b6101d86102ca366004611d6a565b61094a565b61018d6102dd366004611bdc565b610a87565b61025f6102f0366004611e3d565b610a92565b610170610303366004611e75565b6001600160a01b039182166000908152606a6020908152604080832093909416825291909152205460ff1690565b6101d861033f366004611d6a565b610b35565b610160546101ad906001600160a01b031681565b60006001600160e01b031982166380ac58cd60e01b148061038957506001600160e01b03198216635b5e139f60e01b145b806103a457506301ffc9a760e01b6001600160e01b03198316145b92915050565b6060606580546103b990611ea8565b80601f01602080910402602001604051908101604052809291908181526020018280546103e590611ea8565b80156104325780601f1061040757610100808354040283529160200191610432565b820191906000526020600020905b81548152906001019060200180831161041557829003601f168201915b5050505050905090565b600061044782610bcd565b6104ad5760405162461bcd60e51b815260206004820152602c60248201527f4552433732313a20617070726f76656420717565727920666f72206e6f6e657860448201526b34b9ba32b73a103a37b5b2b760a11b60648201526084015b60405180910390fd5b506000908152606960205260409020546001600160a01b031690565b60006104d482610794565b9050806001600160a01b0316836001600160a01b031614156105425760405162461bcd60e51b815260206004820152602160248201527f4552433732313a20617070726f76616c20746f2063757272656e74206f776e656044820152603960f91b60648201526084016104a4565b336001600160a01b038216148061055e575061055e8133610303565b6105d05760405162461bcd60e51b815260206004820152603860248201527f4552433732313a20617070726f76652063616c6c6572206973206e6f74206f7760448201527f6e6572206e6f7220617070726f76656420666f7220616c6c000000000000000060648201526084016104a4565b6105da8383610bea565b505050565b610160546001600160a01b0316331461060a5760405162461bcd60e51b81526004016104a490611ee3565b60c95460ff161561062d5760405162461bcd60e51b81526004016104a490611f13565b6106378282610c58565b5050565b6106453382610ce3565b6106615760405162461bcd60e51b81526004016104a490611f3d565b6105da838383610dcd565b60fb546001600160a01b031633146106965760405162461bcd60e51b81526004016104a490611f8e565b61069e610f74565b565b60c95460ff16156106c35760405162461bcd60e51b81526004016104a490611f13565b6106ce838383611007565b6101605460405163b13eb65960e01b8152600481018390526001600160a01b0384811660248301529091169063b13eb65990604401600060405180830381600087803b15801561071d57600080fd5b505af1158015610731573d6000803e3d6000fd5b50505050505050565b610160546001600160a01b031633146107655760405162461bcd60e51b81526004016104a490611ee3565b60c95460ff16156107885760405162461bcd60e51b81526004016104a490611f13565b61079181611022565b50565b6000818152606760205260408120546001600160a01b0316806103a45760405162461bcd60e51b815260206004820152602960248201527f4552433732313a206f776e657220717565727920666f72206e6f6e657869737460448201526832b73a103a37b5b2b760b91b60648201526084016104a4565b60006001600160a01b0382166108765760405162461bcd60e51b815260206004820152602a60248201527f4552433732313a2062616c616e636520717565727920666f7220746865207a65604482015269726f206164647265737360b01b60648201526084016104a4565b506001600160a01b031660009081526068602052604090205490565b60fb546001600160a01b031633146108bc5760405162461bcd60e51b81526004016104a490611f8e565b61069e600061102b565b60fb546001600160a01b031633146108f05760405162461bcd60e51b81526004016104a490611f8e565b61069e61107d565b6060606680546103b990611ea8565b6106373383836110d5565b61091c3383610ce3565b6109385760405162461bcd60e51b81526004016104a490611f3d565b610944848484846111a4565b50505050565b600054610100900460ff166109655760005460ff1615610969565b303b155b6109cc5760405162461bcd60e51b815260206004820152602e60248201527f496e697469616c697a61626c653a20636f6e747261637420697320616c72656160448201526d191e481a5b9a5d1a585b1a5e995960921b60648201526084016104a4565b600054610100900460ff161580156109ee576000805461ffff19166101011790555b61016080546001600160a01b0319166001600160a01b038416179055604080518082018252600e81526d11985b9cde9bda5908115d995b9d60921b6020808301919091528251808401909352600383526245564560e81b90830152610a52916111d7565b610a5a611208565b610a6261122f565b610a6a61125e565b610a72611208565b8015610637576000805461ff00191690555050565b60606103a48261128d565b610160546000906001600160a01b03163314610ac05760405162461bcd60e51b81526004016104a490611ee3565b60c95460ff1615610ae35760405162461bcd60e51b81526004016104a490611f13565b6000610aef61015f5490565b9050610b0061015f80546001019055565b610b0a8482611421565b61016054610b249085906001600160a01b031660016110d5565b610b2e8184610c58565b9392505050565b60fb546001600160a01b03163314610b5f5760405162461bcd60e51b81526004016104a490611f8e565b6001600160a01b038116610bc45760405162461bcd60e51b815260206004820152602660248201527f4f776e61626c653a206e6577206f776e657220697320746865207a65726f206160448201526564647265737360d01b60648201526084016104a4565b6107918161102b565b6000908152606760205260409020546001600160a01b0316151590565b600081815260696020526040902080546001600160a01b0319166001600160a01b0384169081179091558190610c1f82610794565b6001600160a01b03167f8c5be1e5ebec7d5bd14f71427d1e84f3dd0314c0f7b2291e5b200ac8c7c3b92560405160405180910390a45050565b610c6182610bcd565b610cc45760405162461bcd60e51b815260206004820152602e60248201527f45524337323155524953746f726167653a2055524920736574206f66206e6f6e60448201526d32bc34b9ba32b73a103a37b5b2b760911b60648201526084016104a4565b600082815260976020908152604090912082516105da92840190611a6f565b6000610cee82610bcd565b610d4f5760405162461bcd60e51b815260206004820152602c60248201527f4552433732313a206f70657261746f7220717565727920666f72206e6f6e657860448201526b34b9ba32b73a103a37b5b2b760a11b60648201526084016104a4565b6000610d5a83610794565b9050806001600160a01b0316846001600160a01b03161480610d955750836001600160a01b0316610d8a8461043c565b6001600160a01b0316145b80610dc557506001600160a01b038082166000908152606a602090815260408083209388168352929052205460ff165b949350505050565b826001600160a01b0316610de082610794565b6001600160a01b031614610e445760405162461bcd60e51b815260206004820152602560248201527f4552433732313a207472616e736665722066726f6d20696e636f72726563742060448201526437bbb732b960d91b60648201526084016104a4565b6001600160a01b038216610ea65760405162461bcd60e51b8152602060048201526024808201527f4552433732313a207472616e7366657220746f20746865207a65726f206164646044820152637265737360e01b60648201526084016104a4565b610eb183838361143b565b610ebc600082610bea565b6001600160a01b0383166000908152606860205260408120805460019290610ee5908490611fd9565b90915550506001600160a01b0382166000908152606860205260408120805460019290610f13908490611ff0565b909155505060008181526067602052604080822080546001600160a01b0319166001600160a01b0386811691821790925591518493918716917fddf252ad1be2c89b69c2b068fc378daa952ba7f163c4a11628f55a4df523b3ef91a4505050565b60c95460ff16610fbd5760405162461bcd60e51b815260206004820152601460248201527314185d5cd8589b194e881b9bdd081c185d5cd95960621b60448201526064016104a4565b60c9805460ff191690557f5db9ee0a495bf2e6ff9c91a7834c1ba4fdd244a5e8aa4e537bd38aeae4b073aa335b6040516001600160a01b03909116815260200160405180910390a1565b6105da83838360405180602001604052806000815250610912565b6107918161145e565b60fb80546001600160a01b038381166001600160a01b0319831681179093556040519116919082907f8be0079c531659141344cd1fd0a4f28419497f9722a3daafe3b4186f6b6457e090600090a35050565b60c95460ff16156110a05760405162461bcd60e51b81526004016104a490611f13565b60c9805460ff191660011790557f62e78cea01bee320cd4e420270b5ea74000d11b0c9f74754ebdbfc544b05a258610fea3390565b816001600160a01b0316836001600160a01b031614156111375760405162461bcd60e51b815260206004820152601960248201527f4552433732313a20617070726f766520746f2063616c6c65720000000000000060448201526064016104a4565b6001600160a01b038381166000818152606a6020908152604080832094871680845294825291829020805460ff191686151590811790915591519182527f17307eab39ab6107e8899845ad3d59bd9653f200f220920489ca2b5937696c31910160405180910390a3505050565b6111af848484610dcd565b6111bb8484848461149e565b6109445760405162461bcd60e51b81526004016104a490612008565b600054610100900460ff166111fe5760405162461bcd60e51b81526004016104a49061205a565b61063782826115ab565b600054610100900460ff1661069e5760405162461bcd60e51b81526004016104a49061205a565b600054610100900460ff166112565760405162461bcd60e51b81526004016104a49061205a565b61069e6115f9565b600054610100900460ff166112855760405162461bcd60e51b81526004016104a49061205a565b61069e61162c565b606061129882610bcd565b6112fe5760405162461bcd60e51b815260206004820152603160248201527f45524337323155524953746f726167653a2055524920717565727920666f72206044820152703737b732bc34b9ba32b73a103a37b5b2b760791b60648201526084016104a4565b6000828152609760205260408120805461131790611ea8565b80601f016020809104026020016040519081016040528092919081815260200182805461134390611ea8565b80156113905780601f1061136557610100808354040283529160200191611390565b820191906000526020600020905b81548152906001019060200180831161137357829003601f168201915b5050505050905060006113d360408051808201909152601f81527f68747470733a2f2f697066732e66616e737a6f69642e636f6d2f697066732f00602082015290565b90508051600014156113e6575092915050565b8151156114185780826040516020016114009291906120a5565b60405160208183030381529060405292505050919050565b610dc58461165c565b610637828260405180602001604052806000815250611758565b60c95460ff16156105da5760405162461bcd60e51b81526004016104a490611f13565b6114678161178b565b6000818152609760205260409020805461148090611ea8565b15905061079157600081815260976020526040812061079191611af3565b60006001600160a01b0384163b156115a057604051630a85bd0160e11b81526001600160a01b0385169063150b7a02906114e29033908990889088906004016120d4565b602060405180830381600087803b1580156114fc57600080fd5b505af192505050801561152c575060408051601f3d908101601f1916820190925261152991810190612111565b60015b611586573d80801561155a576040519150601f19603f3d011682016040523d82523d6000602084013e61155f565b606091505b50805161157e5760405162461bcd60e51b81526004016104a490612008565b805181602001fd5b6001600160e01b031916630a85bd0160e11b149050610dc5565b506001949350505050565b600054610100900460ff166115d25760405162461bcd60e51b81526004016104a49061205a565b81516115e5906065906020850190611a6f565b5080516105da906066906020840190611a6f565b600054610100900460ff166116205760405162461bcd60e51b81526004016104a49061205a565b60c9805460ff19169055565b600054610100900460ff166116535760405162461bcd60e51b81526004016104a49061205a565b61069e3361102b565b606061166782610bcd565b6116cb5760405162461bcd60e51b815260206004820152602f60248201527f4552433732314d657461646174613a2055524920717565727920666f72206e6f60448201526e3732bc34b9ba32b73a103a37b5b2b760891b60648201526084016104a4565b600061170760408051808201909152601f81527f68747470733a2f2f697066732e66616e737a6f69642e636f6d2f697066732f00602082015290565b905060008151116117275760405180602001604052806000815250610b2e565b8061173184611832565b6040516020016117429291906120a5565b6040516020818303038152906040529392505050565b6117628383611930565b61176f600084848461149e565b6105da5760405162461bcd60e51b81526004016104a490612008565b600061179682610794565b90506117a48160008461143b565b6117af600083610bea565b6001600160a01b03811660009081526068602052604081208054600192906117d8908490611fd9565b909155505060008281526067602052604080822080546001600160a01b0319169055518391906001600160a01b038416907fddf252ad1be2c89b69c2b068fc378daa952ba7f163c4a11628f55a4df523b3ef908390a45050565b6060816118565750506040805180820190915260018152600360fc1b602082015290565b8160005b8115611880578061186a8161212e565b91506118799050600a8361215f565b915061185a565b60008167ffffffffffffffff81111561189b5761189b611c3b565b6040519080825280601f01601f1916602001820160405280156118c5576020820181803683370190505b5090505b8415610dc5576118da600183611fd9565b91506118e7600a86612173565b6118f2906030611ff0565b60f81b81838151811061190757611907612187565b60200101906001600160f81b031916908160001a905350611929600a8661215f565b94506118c9565b6001600160a01b0382166119865760405162461bcd60e51b815260206004820181905260248201527f4552433732313a206d696e7420746f20746865207a65726f206164647265737360448201526064016104a4565b61198f81610bcd565b156119dc5760405162461bcd60e51b815260206004820152601c60248201527f4552433732313a20746f6b656e20616c7265616479206d696e7465640000000060448201526064016104a4565b6119e86000838361143b565b6001600160a01b0382166000908152606860205260408120805460019290611a11908490611ff0565b909155505060008181526067602052604080822080546001600160a01b0319166001600160a01b03861690811790915590518392907fddf252ad1be2c89b69c2b068fc378daa952ba7f163c4a11628f55a4df523b3ef908290a45050565b828054611a7b90611ea8565b90600052602060002090601f016020900481019282611a9d5760008555611ae3565b82601f10611ab657805160ff1916838001178555611ae3565b82800160010185558215611ae3579182015b82811115611ae3578251825591602001919060010190611ac8565b50611aef929150611b29565b5090565b508054611aff90611ea8565b6000825580601f10611b0f575050565b601f01602090049060005260206000209081019061079191905b5b80821115611aef5760008155600101611b2a565b6001600160e01b03198116811461079157600080fd5b600060208284031215611b6657600080fd5b8135610b2e81611b3e565b60005b83811015611b8c578181015183820152602001611b74565b838111156109445750506000910152565b60008151808452611bb5816020860160208601611b71565b601f01601f19169290920160200192915050565b602081526000610b2e6020830184611b9d565b600060208284031215611bee57600080fd5b5035919050565b80356001600160a01b0381168114611c0c57600080fd5b919050565b60008060408385031215611c2457600080fd5b611c2d83611bf5565b946020939093013593505050565b634e487b7160e01b600052604160045260246000fd5b600067ffffffffffffffff80841115611c6c57611c6c611c3b565b604051601f8501601f19908116603f01168101908282118183101715611c9457611c94611c3b565b81604052809350858152868686011115611cad57600080fd5b858560208301376000602087830101525050509392505050565b600082601f830112611cd857600080fd5b610b2e83833560208501611c51565b60008060408385031215611cfa57600080fd5b82359150602083013567ffffffffffffffff811115611d1857600080fd5b611d2485828601611cc7565b9150509250929050565b600080600060608486031215611d4357600080fd5b611d4c84611bf5565b9250611d5a60208501611bf5565b9150604084013590509250925092565b600060208284031215611d7c57600080fd5b610b2e82611bf5565b60008060408385031215611d9857600080fd5b611da183611bf5565b915060208301358015158114611db657600080fd5b809150509250929050565b60008060008060808587031215611dd757600080fd5b611de085611bf5565b9350611dee60208601611bf5565b925060408501359150606085013567ffffffffffffffff811115611e1157600080fd5b8501601f81018713611e2257600080fd5b611e3187823560208401611c51565b91505092959194509250565b60008060408385031215611e5057600080fd5b611e5983611bf5565b9150602083013567ffffffffffffffff811115611d1857600080fd5b60008060408385031215611e8857600080fd5b611e9183611bf5565b9150611e9f60208401611bf5565b90509250929050565b600181811c90821680611ebc57607f821691505b60208210811415611edd57634e487b7160e01b600052602260045260246000fd5b50919050565b6020808252601690820152754f6e6c792041646d696e20697320616c6c6f7765642160501b604082015260600190565b60208082526010908201526f14185d5cd8589b194e881c185d5cd95960821b604082015260600190565b60208082526031908201527f4552433732313a207472616e736665722063616c6c6572206973206e6f74206f6040820152701ddb995c881b9bdc88185c1c1c9bdd9959607a1b606082015260800190565b6020808252818101527f4f776e61626c653a2063616c6c6572206973206e6f7420746865206f776e6572604082015260600190565b634e487b7160e01b600052601160045260246000fd5b600082821015611feb57611feb611fc3565b500390565b6000821982111561200357612003611fc3565b500190565b60208082526032908201527f4552433732313a207472616e7366657220746f206e6f6e20455243373231526560408201527131b2b4bb32b91034b6b83632b6b2b73a32b960711b606082015260800190565b6020808252602b908201527f496e697469616c697a61626c653a20636f6e7472616374206973206e6f74206960408201526a6e697469616c697a696e6760a81b606082015260800190565b600083516120b7818460208801611b71565b8351908301906120cb818360208801611b71565b01949350505050565b6001600160a01b038581168252841660208201526040810183905260806060820181905260009061210790830184611b9d565b9695505050505050565b60006020828403121561212357600080fd5b8151610b2e81611b3e565b600060001982141561214257612142611fc3565b5060010190565b634e487b7160e01b600052601260045260246000fd5b60008261216e5761216e612149565b500490565b60008261218257612182612149565b500690565b634e487b7160e01b600052603260045260246000fdfea26469706673582212201c4189a18dfa38ed05acbabfeb462a8febb4fd3bb39888ac429818a0974f532664736f6c63430008090033",
  "linkReferences": {},
  "deployedLinkReferences": {}
}