{
  "address": "0x158f539764707f544F02181C72dF0F750358bBb4",
  "abi": [
    {
      "inputs": [],
      "stateMutability": "nonpayable",
      "type": "constructor"
    },
    {
      "anonymous": false,
      "inputs": [
        {
          "indexed": false,
          "internalType": "address",
          "name": "seller",
          "type": "address"
        },
        {
          "indexed": false,
          "internalType": "uint256",
          "name": "tokenId",
          "type": "uint256"
        }
      ],
      "name": "AskRemoved",
      "type": "event"
    },
    {
      "anonymous": false,
      "inputs": [
        {
          "indexed": false,
          "internalType": "uint256",
          "name": "tokenId",
          "type": "uint256"
        },
        {
          "indexed": false,
          "internalType": "address",
          "name": "seller",
          "type": "address"
        },
        {
          "indexed": false,
          "internalType": "uint256",
          "name": "askingPrice",
          "type": "uint256"
        }
      ],
      "name": "AskSetted",
      "type": "event"
    },
    {
      "anonymous": false,
      "inputs": [
        {
          "indexed": false,
          "internalType": "uint256",
          "name": "eventId",
          "type": "uint256"
        },
        {
          "indexed": false,
          "internalType": "address",
          "name": "organizer",
          "type": "address"
        }
      ],
      "name": "eventCreated",
      "type": "event"
    },
    {
      "anonymous": false,
      "inputs": [
        {
          "indexed": false,
          "internalType": "uint256",
          "name": "tokenId",
          "type": "uint256"
        },
        {
          "indexed": false,
          "internalType": "address",
          "name": "seller",
          "type": "address"
        },
        {
          "indexed": false,
          "internalType": "address",
          "name": "buyer",
          "type": "address"
        },
        {
          "indexed": false,
          "internalType": "uint256",
          "name": "price",
          "type": "uint256"
        }
      ],
      "name": "ticketBought",
      "type": "event"
    },
    {
      "inputs": [],
      "name": "MINIMUM_ASK",
      "outputs": [
        {
          "internalType": "uint256",
          "name": "",
          "type": "uint256"
        }
      ],
      "stateMutability": "view",
      "type": "function"
    },
    {
      "inputs": [],
      "name": "_owner",
      "outputs": [
        {
          "internalType": "address payable",
          "name": "",
          "type": "address"
        }
      ],
      "stateMutability": "view",
      "type": "function"
    },
    {
      "inputs": [
        {
          "internalType": "address",
          "name": "",
          "type": "address"
        },
        {
          "internalType": "uint256",
          "name": "",
          "type": "uint256"
        }
      ],
      "name": "askingPrices",
      "outputs": [
        {
          "internalType": "uint256",
          "name": "",
          "type": "uint256"
        }
      ],
      "stateMutability": "view",
      "type": "function"
    },
    {
      "inputs": [
        {
          "internalType": "uint256",
          "name": "tokenId",
          "type": "uint256"
        },
        {
          "internalType": "address",
          "name": "seller",
          "type": "address"
        }
      ],
      "name": "buyMarketTicket",
      "outputs": [],
      "stateMutability": "payable",
      "type": "function"
    },
    {
      "inputs": [
        {
          "internalType": "address",
          "name": "_fansNFTContract",
          "type": "address"
        }
      ],
      "name": "configure",
      "outputs": [],
      "stateMutability": "nonpayable",
      "type": "function"
    },
    {
      "inputs": [],
      "name": "createEvent",
      "outputs": [
        {
          "internalType": "uint256",
          "name": "",
          "type": "uint256"
        }
      ],
      "stateMutability": "nonpayable",
      "type": "function"
    },
    {
      "inputs": [
        {
          "internalType": "uint256",
          "name": "",
          "type": "uint256"
        }
      ],
      "name": "creatorRoyalties",
      "outputs": [
        {
          "internalType": "address payable",
          "name": "creator",
          "type": "address"
        },
        {
          "internalType": "uint256",
          "name": "royalty",
          "type": "uint256"
        }
      ],
      "stateMutability": "view",
      "type": "function"
    },
    {
      "inputs": [
        {
          "internalType": "uint256",
          "name": "",
          "type": "uint256"
        }
      ],
      "name": "events",
      "outputs": [
        {
          "internalType": "address",
          "name": "organizer",
          "type": "address"
        }
      ],
      "stateMutability": "view",
      "type": "function"
    },
    {
      "inputs": [],
      "name": "fansNFTContract",
      "outputs": [
        {
          "internalType": "address",
          "name": "",
          "type": "address"
        }
      ],
      "stateMutability": "view",
      "type": "function"
    },
    {
      "inputs": [
        {
          "internalType": "address",
          "name": "",
          "type": "address"
        },
        {
          "internalType": "uint256",
          "name": "",
          "type": "uint256"
        }
      ],
      "name": "globalBids",
      "outputs": [
        {
          "internalType": "uint256",
          "name": "",
          "type": "uint256"
        }
      ],
      "stateMutability": "view",
      "type": "function"
    },
    {
      "inputs": [
        {
          "internalType": "uint256",
          "name": "eventId",
          "type": "uint256"
        },
        {
          "internalType": "uint256",
          "name": "ticketTypesCount",
          "type": "uint256"
        },
        {
          "internalType": "uint256[]",
          "name": "ticketIds",
          "type": "uint256[]"
        },
        {
          "internalType": "uint256[]",
          "name": "publishingAskingPrices",
          "type": "uint256[]"
        },
        {
          "internalType": "uint256[]",
          "name": "publishingCreatorRoyalties",
          "type": "uint256[]"
        },
        {
          "internalType": "address payable",
          "name": "publisher",
          "type": "address"
        }
      ],
      "name": "publishEventTickets",
      "outputs": [],
      "stateMutability": "nonpayable",
      "type": "function"
    },
    {
      "inputs": [
        {
          "internalType": "uint256",
          "name": "tokenId",
          "type": "uint256"
        }
      ],
      "name": "removeAsk",
      "outputs": [],
      "stateMutability": "nonpayable",
      "type": "function"
    },
    {
      "inputs": [
        {
          "internalType": "uint256",
          "name": "tokenId",
          "type": "uint256"
        },
        {
          "internalType": "uint256",
          "name": "askingPrice",
          "type": "uint256"
        },
        {
          "internalType": "address",
          "name": "seller",
          "type": "address"
        }
      ],
      "name": "setAsk",
      "outputs": [],
      "stateMutability": "nonpayable",
      "type": "function"
    }
  ],
  "transactionHash": "0xbae9befad7d7a323e89d2779702ec73d21175fe97ba077b4653543c79144bfec",
  "args": [],
  "solcInputHash": "b5026c7d543e0a895b901585496e3872",
  "bytecode": "0x608060405234801561001057600080fd5b50600160008190555033600160006101000a81548173ffffffffffffffffffffffffffffffffffffffff021916908373ffffffffffffffffffffffffffffffffffffffff1602179055506125bc806100696000396000f3fe6080604052600436106100c25760003560e01c80635d080ba61161007f57806375cb26721161005957806375cb26721461027e578063b2bdfa7b146102a7578063b33eb0a0146102d2578063bae7fb13146102fd576100c2565b80635d080ba6146101f95780636c7555aa146102245780637373c11114610262576100c2565b80630b791430146100c75780631d563cdc1461010457806321a2875c1461012d57806328220f351461016a57806335cf4f15146101935780633b787897146101d0575b600080fd5b3480156100d357600080fd5b506100ee60048036038101906100e991906117bf565b610328565b6040516100fb9190611ba1565b60405180910390f35b34801561011057600080fd5b5061012b6004803603810190610126919061189c565b610366565b005b34801561013957600080fd5b50610154600480360381019061014f9190611783565b61081f565b6040516101619190611e21565b60405180910390f35b34801561017657600080fd5b50610191600480360381019061018c91906117bf565b610844565b005b34801561019f57600080fd5b506101ba60048036038101906101b59190611783565b6109c2565b6040516101c79190611e21565b60405180910390f35b3480156101dc57600080fd5b506101f760048036038101906101f2919061184d565b6109e7565b005b34801561020557600080fd5b5061020e610c44565b60405161021b9190611e21565b60405180910390f35b34801561023057600080fd5b5061024b600480360381019061024691906117bf565b610c4f565b604051610259929190611bd7565b60405180910390f35b61027c60048036038101906102779190611811565b610c93565b005b34801561028a57600080fd5b506102a560048036038101906102a0919061175a565b61117b565b005b3480156102b357600080fd5b506102bc611350565b6040516102c99190611bbc565b60405180910390f35b3480156102de57600080fd5b506102e7611376565b6040516102f49190611e21565b60405180910390f35b34801561030957600080fd5b50610312611546565b60405161031f9190611ba1565b60405180910390f35b60046020528060005260406000206000915090508060000160009054906101000a900473ffffffffffffffffffffffffffffffffffffffff16905081565b600260005414156103ac576040517f08c379a00000000000000000000000000000000000000000000000000000000081526004016103a390611e01565b60405180910390fd5b60026000819055503373ffffffffffffffffffffffffffffffffffffffff16600260009054906101000a900473ffffffffffffffffffffffffffffffffffffffff1673ffffffffffffffffffffffffffffffffffffffff1614610444576040517f08c379a000000000000000000000000000000000000000000000000000000000815260040161043b90611d81565b60405180910390fd5b600073ffffffffffffffffffffffffffffffffffffffff16600460008b815260200190815260200160002060000160009054906101000a900473ffffffffffffffffffffffffffffffffffffffff1673ffffffffffffffffffffffffffffffffffffffff1614156104ea576040517f08c379a00000000000000000000000000000000000000000000000000000000081526004016104e190611de1565b60405180910390fd5b8073ffffffffffffffffffffffffffffffffffffffff16600460008b815260200190815260200160002060000160009054906101000a900473ffffffffffffffffffffffffffffffffffffffff1673ffffffffffffffffffffffffffffffffffffffff161461058e576040517f08c379a000000000000000000000000000000000000000000000000000000000815260040161058590611d21565b60405180910390fd5b60005b8881101561080b5760405180604001604052808373ffffffffffffffffffffffffffffffffffffffff1681526020018585848181106105f9577f4e487b7100000000000000000000000000000000000000000000000000000000600052603260045260246000fd5b90506020020135815250600560008a8a85818110610640577f4e487b7100000000000000000000000000000000000000000000000000000000600052603260045260246000fd5b90506020020135815260200190815260200160002060008201518160000160006101000a81548173ffffffffffffffffffffffffffffffffffffffff021916908373ffffffffffffffffffffffffffffffffffffffff160217905550602082015181600101559050508585828181106106e2577f4e487b7100000000000000000000000000000000000000000000000000000000600052603260045260246000fd5b90506020020135600660008473ffffffffffffffffffffffffffffffffffffffff1673ffffffffffffffffffffffffffffffffffffffff16815260200190815260200160002060008a8a85818110610763577f4e487b7100000000000000000000000000000000000000000000000000000000600052603260045260246000fd5b90506020020135815260200190815260200160002081905550600460008b81526020019081526020016000206001018888838181106107cb577f4e487b7100000000000000000000000000000000000000000000000000000000600052603260045260246000fd5b905060200201359080600181540180825580915050600190039060005260206000200160009091909190915055808061080390612022565b915050610591565b506001600081905550505050505050505050565b6006602052816000526040600020602052806000526040600020600091509150505481565b6000600260009054906101000a900473ffffffffffffffffffffffffffffffffffffffff1673ffffffffffffffffffffffffffffffffffffffff1662fdd58e33846040518363ffffffff1660e01b81526004016108a2929190611c58565b60206040518083038186803b1580156108ba57600080fd5b505afa1580156108ce573d6000803e3d6000fd5b505050506040513d601f19601f820116820180604052508101906108f291906117e8565b11610932576040517f08c379a000000000000000000000000000000000000000000000000000000000815260040161092990611da1565b60405180910390fd5b600660003373ffffffffffffffffffffffffffffffffffffffff1673ffffffffffffffffffffffffffffffffffffffff1681526020019081526020016000206000828152602001908152602001600020600090557f1f2fa6bb5353160dec9640945a0fbf286bda8907835ad6b88dc06ff271382fc033826040516109b7929190611c58565b60405180910390a150565b6007602052816000526040600020602052806000526040600020600091509150505481565b3373ffffffffffffffffffffffffffffffffffffffff16600260009054906101000a900473ffffffffffffffffffffffffffffffffffffffff1673ffffffffffffffffffffffffffffffffffffffff1614610a77576040517f08c379a0000000000000000000000000000000000000000000000000000000008152600401610a6e90611d81565b60405180910390fd5b66b1a2bc2ec50000821015610ac1576040517f08c379a0000000000000000000000000000000000000000000000000000000008152600401610ab890611cc1565b60405180910390fd5b6000600260009054906101000a900473ffffffffffffffffffffffffffffffffffffffff1673ffffffffffffffffffffffffffffffffffffffff1662fdd58e83866040518363ffffffff1660e01b8152600401610b1f929190611c58565b60206040518083038186803b158015610b3757600080fd5b505afa158015610b4b573d6000803e3d6000fd5b505050506040513d601f19601f82011682018060405250810190610b6f91906117e8565b11610baf576040517f08c379a0000000000000000000000000000000000000000000000000000000008152600401610ba690611da1565b60405180910390fd5b81600660008373ffffffffffffffffffffffffffffffffffffffff1673ffffffffffffffffffffffffffffffffffffffff1681526020019081526020016000206000858152602001908152602001600020819055507fec18f780a0e43876e9c5593d23fd6d36ec8a8fdd0c74484d212eebcfd89306d5838284604051610c3793929190611eaa565b60405180910390a1505050565b6611c37937e0800081565b60056020528060005260406000206000915090508060000160009054906101000a900473ffffffffffffffffffffffffffffffffffffffff16908060010154905082565b60026000541415610cd9576040517f08c379a0000000000000000000000000000000000000000000000000000000008152600401610cd090611e01565b60405180910390fd5b60026000819055506000600260009054906101000a900473ffffffffffffffffffffffffffffffffffffffff1673ffffffffffffffffffffffffffffffffffffffff1662fdd58e83856040518363ffffffff1660e01b8152600401610d3f929190611c58565b60206040518083038186803b158015610d5757600080fd5b505afa158015610d6b573d6000803e3d6000fd5b505050506040513d601f19601f82011682018060405250810190610d8f91906117e8565b11610dcf576040517f08c379a0000000000000000000000000000000000000000000000000000000008152600401610dc690611d41565b60405180910390fd5b6611c37937e08000600660008373ffffffffffffffffffffffffffffffffffffffff1673ffffffffffffffffffffffffffffffffffffffff16815260200190815260200160002060008481526020019081526020016000205410158015610e855750600660008273ffffffffffffffffffffffffffffffffffffffff1673ffffffffffffffffffffffffffffffffffffffff16815260200190815260200160002060008381526020019081526020016000205434145b610ec4576040517f08c379a0000000000000000000000000000000000000000000000000000000008152600401610ebb90611c81565b60405180910390fd5b6000600660008373ffffffffffffffffffffffffffffffffffffffff1673ffffffffffffffffffffffffffffffffffffffff168152602001908152602001600020600084815260200190815260200160002054905060006005600085815260200190815260200160002060000160009054906101000a900473ffffffffffffffffffffffffffffffffffffffff1690506000610f613460fa61156c565b90506000610f8534600560008981526020019081526020016000206001015461156c565b90506000818334610f969190611f8e565b610fa09190611f8e565b90508573ffffffffffffffffffffffffffffffffffffffff166108fc829081150290604051600060405180830381858888f19350505050158015610fe8573d6000803e3d6000fd5b508373ffffffffffffffffffffffffffffffffffffffff166108fc839081150290604051600060405180830381858888f1935050505015801561102f573d6000803e3d6000fd5b50600160009054906101000a900473ffffffffffffffffffffffffffffffffffffffff1673ffffffffffffffffffffffffffffffffffffffff166108fc849081150290604051600060405180830381858888f19350505050158015611098573d6000803e3d6000fd5b50600260009054906101000a900473ffffffffffffffffffffffffffffffffffffffff1673ffffffffffffffffffffffffffffffffffffffff1663f242432a87338a60016040518563ffffffff1660e01b81526004016110fb9493929190611c00565b600060405180830381600087803b15801561111557600080fd5b505af1158015611129573d6000803e3d6000fd5b505050507f060f7dd92424d6f1af65d2fe9acba5b63d299cc26cd8eb26403ca371bc9fbfbb878733886040516111629493929190611e65565b60405180910390a1505050505060016000819055505050565b600073ffffffffffffffffffffffffffffffffffffffff16600260009054906101000a900473ffffffffffffffffffffffffffffffffffffffff1673ffffffffffffffffffffffffffffffffffffffff161461120c576040517f08c379a000000000000000000000000000000000000000000000000000000000815260040161120390611dc1565b60405180910390fd5b600160009054906101000a900473ffffffffffffffffffffffffffffffffffffffff1673ffffffffffffffffffffffffffffffffffffffff163373ffffffffffffffffffffffffffffffffffffffff161461129c576040517f08c379a000000000000000000000000000000000000000000000000000000000815260040161129390611d01565b60405180910390fd5b600073ffffffffffffffffffffffffffffffffffffffff168173ffffffffffffffffffffffffffffffffffffffff16141561130c576040517f08c379a000000000000000000000000000000000000000000000000000000000815260040161130390611ca1565b60405180910390fd5b80600260006101000a81548173ffffffffffffffffffffffffffffffffffffffff021916908373ffffffffffffffffffffffffffffffffffffffff16021790555050565b600160009054906101000a900473ffffffffffffffffffffffffffffffffffffffff1681565b6000600260005414156113be576040517f08c379a00000000000000000000000000000000000000000000000000000000081526004016113b590611e01565b60405180910390fd5b60026000819055506113d0600361162e565b60405180604001604052803373ffffffffffffffffffffffffffffffffffffffff168152602001600067ffffffffffffffff811115611438577f4e487b7100000000000000000000000000000000000000000000000000000000600052604160045260246000fd5b6040519080825280602002602001820160405280156114665781602001602082028036833780820191505090505b50815250600460006114786003611644565b815260200190815260200160002060008201518160000160006101000a81548173ffffffffffffffffffffffffffffffffffffffff021916908373ffffffffffffffffffffffffffffffffffffffff16021790555060208201518160010190805190602001906114e9929190611652565b509050507fe84a9bbfcbf8f5616a5ab8a7bbcccf7ebbefb9d3ff6cdc87f2cfab2d24afabb36115186003611644565b33604051611527929190611e3c565b60405180910390a16115396003611644565b9050600160008190555090565b600260009054906101000a900473ffffffffffffffffffffffffffffffffffffffff1681565b600082612710808561157e9190611f03565b6115889190611f34565b146115c8576040517f08c379a00000000000000000000000000000000000000000000000000000000081526004016115bf90611d61565b60405180910390fd5b61271082111561160d576040517f08c379a000000000000000000000000000000000000000000000000000000000815260040161160490611ce1565b60405180910390fd5b612710828461161c9190611f34565b6116269190611f03565b905092915050565b6001816000016000828254019250508190555050565b600081600001549050919050565b82805482825590600052602060002090810192821561168e579160200282015b8281111561168d578251825591602001919060010190611672565b5b50905061169b919061169f565b5090565b5b808211156116b85760008160009055506001016116a0565b5090565b6000813590506116cb81612541565b92915050565b6000813590506116e081612558565b92915050565b60008083601f8401126116f857600080fd5b8235905067ffffffffffffffff81111561171157600080fd5b60208301915083602082028301111561172957600080fd5b9250929050565b60008135905061173f8161256f565b92915050565b6000815190506117548161256f565b92915050565b60006020828403121561176c57600080fd5b600061177a848285016116bc565b91505092915050565b6000806040838503121561179657600080fd5b60006117a4858286016116bc565b92505060206117b585828601611730565b9150509250929050565b6000602082840312156117d157600080fd5b60006117df84828501611730565b91505092915050565b6000602082840312156117fa57600080fd5b600061180884828501611745565b91505092915050565b6000806040838503121561182457600080fd5b600061183285828601611730565b9250506020611843858286016116bc565b9150509250929050565b60008060006060848603121561186257600080fd5b600061187086828701611730565b935050602061188186828701611730565b9250506040611892868287016116bc565b9150509250925092565b600080600080600080600080600060c08a8c0312156118ba57600080fd5b60006118c88c828d01611730565b99505060206118d98c828d01611730565b98505060408a013567ffffffffffffffff8111156118f657600080fd5b6119028c828d016116e6565b975097505060608a013567ffffffffffffffff81111561192157600080fd5b61192d8c828d016116e6565b955095505060808a013567ffffffffffffffff81111561194c57600080fd5b6119588c828d016116e6565b935093505060a061196b8c828d016116d1565b9150509295985092959850929598565b61198481611fd4565b82525050565b61199381611fc2565b82525050565b6119a281612010565b82525050565b60006119b5605d83611ef2565b91506119c0826120c9565b606082019050919050565b60006119d8602c83611ef2565b91506119e38261213e565b604082019050919050565b60006119fb602f83611ef2565b9150611a068261218d565b604082019050919050565b6000611a1e603583611ef2565b9150611a29826121dc565b604082019050919050565b6000611a41604583611ef2565b9150611a4c8261222b565b606082019050919050565b6000611a64604a83611ef2565b9150611a6f826122a0565b606082019050919050565b6000611a87602a83611ef2565b9150611a9282612315565b604082019050919050565b6000611aaa603c83611ef2565b9150611ab582612364565b604082019050919050565b6000611acd603283611ef2565b9150611ad8826123b3565b604082019050919050565b6000611af0602a83611ef2565b9150611afb82612402565b604082019050919050565b6000611b13604383611ef2565b9150611b1e82612451565b606082019050919050565b6000611b36600083611ee1565b9150611b41826124c6565b600082019050919050565b6000611b59602883611ef2565b9150611b64826124c9565b604082019050919050565b6000611b7c601f83611ef2565b9150611b8782612518565b602082019050919050565b611b9b81612006565b82525050565b6000602082019050611bb6600083018461198a565b92915050565b6000602082019050611bd1600083018461197b565b92915050565b6000604082019050611bec600083018561197b565b611bf96020830184611b92565b9392505050565b600060a082019050611c15600083018761198a565b611c22602083018661198a565b611c2f6040830185611b92565b611c3c6060830184611999565b8181036080830152611c4d81611b29565b905095945050505050565b6000604082019050611c6d600083018561198a565b611c7a6020830184611b92565b9392505050565b60006020820190508181036000830152611c9a816119a8565b9050919050565b60006020820190508181036000830152611cba816119cb565b9050919050565b60006020820190508181036000830152611cda816119ee565b9050919050565b60006020820190508181036000830152611cfa81611a11565b9050919050565b60006020820190508181036000830152611d1a81611a34565b9050919050565b60006020820190508181036000830152611d3a81611a57565b9050919050565b60006020820190508181036000830152611d5a81611a7a565b9050919050565b60006020820190508181036000830152611d7a81611a9d565b9050919050565b60006020820190508181036000830152611d9a81611ac0565b9050919050565b60006020820190508181036000830152611dba81611ae3565b9050919050565b60006020820190508181036000830152611dda81611b06565b9050919050565b60006020820190508181036000830152611dfa81611b4c565b9050919050565b60006020820190508181036000830152611e1a81611b6f565b9050919050565b6000602082019050611e366000830184611b92565b92915050565b6000604082019050611e516000830185611b92565b611e5e602083018461198a565b9392505050565b6000608082019050611e7a6000830187611b92565b611e87602083018661198a565b611e94604083018561198a565b611ea16060830184611b92565b95945050505050565b6000606082019050611ebf6000830186611b92565b611ecc602083018561198a565b611ed96040830184611b92565b949350505050565b600082825260208201905092915050565b600082825260208201905092915050565b6000611f0e82612006565b9150611f1983612006565b925082611f2957611f2861209a565b5b828204905092915050565b6000611f3f82612006565b9150611f4a83612006565b9250817fffffffffffffffffffffffffffffffffffffffffffffffffffffffffffffffff0483118215151615611f8357611f8261206b565b5b828202905092915050565b6000611f9982612006565b9150611fa483612006565b925082821015611fb757611fb661206b565b5b828203905092915050565b6000611fcd82611fe6565b9050919050565b6000611fdf82611fe6565b9050919050565b600073ffffffffffffffffffffffffffffffffffffffff82169050919050565b6000819050919050565b600061201b82612006565b9050919050565b600061202d82612006565b91507fffffffffffffffffffffffffffffffffffffffffffffffffffffffffffffffff8214156120605761205f61206b565b5b600182019050919050565b7f4e487b7100000000000000000000000000000000000000000000000000000000600052601160045260246000fd5b7f4e487b7100000000000000000000000000000000000000000000000000000000600052601260045260246000fd5b7f46616e737a6f69644d61726b6574706c6163653a207469636b6574206973206e60008201527f6f7420666f722073616c65206f722041736b696e67207072696365207761732060208201527f6e6f74206d61746368656420696e206d6573736167652076616c75652e000000604082015250565b7f46616e737a6f69644d61726b6574706c6163653a206e6674436f6e747261637460008201527f2063616e6e6f7420626520300000000000000000000000000000000000000000602082015250565b7f46616e737a6f69644d61726b6574706c6163653a204d696e696d756d2061736b60008201527f20697320302e30352065746865722e0000000000000000000000000000000000602082015250565b7f46616e737a6f69644d61726b6574706c6163653a2066656520697320746f6f2060008201527f6c61726765206f6e2063616c63756c6174654665650000000000000000000000602082015250565b7f46616e737a6f69644d61726b6574706c6163653a204f6e6c79206f776e65722060008201527f63616e20636f6e666967757265207468652046616e737a6f69644d61726b657460208201527f706c616365000000000000000000000000000000000000000000000000000000604082015250565b7f46616e737a6f69644d61726b6574706c6163653a204f6e6c7920746865206f7260008201527f67616e697a65722063616e207075626c697368207469636b65747320666f722060208201527f746865206576656e742e00000000000000000000000000000000000000000000604082015250565b7f46616e737a6f69644d61726b6574706c6163653a2053656c6c6572206861732060008201527f6e6f207469636b65742e00000000000000000000000000000000000000000000602082015250565b7f46616e737a6f69644d61726b6574706c6163653a20616d6f756e74206973207460008201527f6f6f20736d616c6c206f6e20746f2063616c63756c6174652066656500000000602082015250565b7f46616e737a6f69644d61726b6574706c6163653a204f6e6c7920746865206e6660008201527f7420636f6e747261637420616c6c6f7765640000000000000000000000000000602082015250565b7f46616e737a6f69644d61726b6574706c6163653a2053656e646572206861732060008201527f6e6f207469636b65742e00000000000000000000000000000000000000000000602082015250565b7f46616e737a6f69644d61726b6574706c6163653a205468652046616e737a6f6960008201527f644d61726b6574706c6163652077617320616c726561647920636f6e6669677560208201527f7265640000000000000000000000000000000000000000000000000000000000604082015250565b50565b7f46616e737a6f69644d61726b6574706c6163653a204e6f6e2d6578697374616e60008201527f74206576656e742e000000000000000000000000000000000000000000000000602082015250565b7f5265656e7472616e637947756172643a207265656e7472616e742063616c6c00600082015250565b61254a81611fc2565b811461255557600080fd5b50565b61256181611fd4565b811461256c57600080fd5b50565b61257881612006565b811461258357600080fd5b5056fea2646970667358221220f33f216170d74d0e7ddd6ebd33522fd04e38adbba7b8f730d9951f66c03487d464736f6c63430008040033",
  "devdoc": {
    "kind": "dev",
    "methods": {},
    "version": 1
  },
  "userdoc": {
    "kind": "user",
    "methods": {},
    "version": 1
  },
  "storageLayout": {
    "storage": [
      {
        "astId": 10,
        "contract": "src/FanszoidMarketplace.sol:FanszoidMarketplace",
        "label": "_status",
        "offset": 0,
        "slot": "0",
        "type": "t_uint256"
      },
      {
        "astId": 9805,
        "contract": "src/FanszoidMarketplace.sol:FanszoidMarketplace",
        "label": "_owner",
        "offset": 0,
        "slot": "1",
        "type": "t_address_payable"
      },
      {
        "astId": 9807,
        "contract": "src/FanszoidMarketplace.sol:FanszoidMarketplace",
        "label": "fansNFTContract",
        "offset": 0,
        "slot": "2",
        "type": "t_address"
      },
      {
        "astId": 9810,
        "contract": "src/FanszoidMarketplace.sol:FanszoidMarketplace",
        "label": "_eventIds",
        "offset": 0,
        "slot": "3",
        "type": "t_struct(Counter)1623_storage"
      },
      {
        "astId": 9829,
        "contract": "src/FanszoidMarketplace.sol:FanszoidMarketplace",
        "label": "events",
        "offset": 0,
        "slot": "4",
        "type": "t_mapping(t_uint256,t_struct(Event)9824_storage)"
      },
      {
        "astId": 9834,
        "contract": "src/FanszoidMarketplace.sol:FanszoidMarketplace",
        "label": "creatorRoyalties",
        "offset": 0,
        "slot": "5",
        "type": "t_mapping(t_uint256,t_struct(CreatorRoyalty)9818_storage)"
      },
      {
        "astId": 9840,
        "contract": "src/FanszoidMarketplace.sol:FanszoidMarketplace",
        "label": "askingPrices",
        "offset": 0,
        "slot": "6",
        "type": "t_mapping(t_address,t_mapping(t_uint256,t_uint256))"
      },
      {
        "astId": 9846,
        "contract": "src/FanszoidMarketplace.sol:FanszoidMarketplace",
        "label": "globalBids",
        "offset": 0,
        "slot": "7",
        "type": "t_mapping(t_address,t_mapping(t_uint256,t_uint256))"
      }
    ],
    "types": {
      "t_address": {
        "encoding": "inplace",
        "label": "address",
        "numberOfBytes": "20"
      },
      "t_address_payable": {
        "encoding": "inplace",
        "label": "address payable",
        "numberOfBytes": "20"
      },
      "t_array(t_uint256)dyn_storage": {
        "base": "t_uint256",
        "encoding": "dynamic_array",
        "label": "uint256[]",
        "numberOfBytes": "32"
      },
      "t_mapping(t_address,t_mapping(t_uint256,t_uint256))": {
        "encoding": "mapping",
        "key": "t_address",
        "label": "mapping(address => mapping(uint256 => uint256))",
        "numberOfBytes": "32",
        "value": "t_mapping(t_uint256,t_uint256)"
      },
      "t_mapping(t_uint256,t_struct(CreatorRoyalty)9818_storage)": {
        "encoding": "mapping",
        "key": "t_uint256",
        "label": "mapping(uint256 => struct FanszoidMarketplace.CreatorRoyalty)",
        "numberOfBytes": "32",
        "value": "t_struct(CreatorRoyalty)9818_storage"
      },
      "t_mapping(t_uint256,t_struct(Event)9824_storage)": {
        "encoding": "mapping",
        "key": "t_uint256",
        "label": "mapping(uint256 => struct FanszoidMarketplace.Event)",
        "numberOfBytes": "32",
        "value": "t_struct(Event)9824_storage"
      },
      "t_mapping(t_uint256,t_uint256)": {
        "encoding": "mapping",
        "key": "t_uint256",
        "label": "mapping(uint256 => uint256)",
        "numberOfBytes": "32",
        "value": "t_uint256"
      },
      "t_struct(Counter)1623_storage": {
        "encoding": "inplace",
        "label": "struct Counters.Counter",
        "members": [
          {
            "astId": 1622,
            "contract": "src/FanszoidMarketplace.sol:FanszoidMarketplace",
            "label": "_value",
            "offset": 0,
            "slot": "0",
            "type": "t_uint256"
          }
        ],
        "numberOfBytes": "32"
      },
      "t_struct(CreatorRoyalty)9818_storage": {
        "encoding": "inplace",
        "label": "struct FanszoidMarketplace.CreatorRoyalty",
        "members": [
          {
            "astId": 9815,
            "contract": "src/FanszoidMarketplace.sol:FanszoidMarketplace",
            "label": "creator",
            "offset": 0,
            "slot": "0",
            "type": "t_address_payable"
          },
          {
            "astId": 9817,
            "contract": "src/FanszoidMarketplace.sol:FanszoidMarketplace",
            "label": "royalty",
            "offset": 0,
            "slot": "1",
            "type": "t_uint256"
          }
        ],
        "numberOfBytes": "64"
      },
      "t_struct(Event)9824_storage": {
        "encoding": "inplace",
        "label": "struct FanszoidMarketplace.Event",
        "members": [
          {
            "astId": 9820,
            "contract": "src/FanszoidMarketplace.sol:FanszoidMarketplace",
            "label": "organizer",
            "offset": 0,
            "slot": "0",
            "type": "t_address"
          },
          {
            "astId": 9823,
            "contract": "src/FanszoidMarketplace.sol:FanszoidMarketplace",
            "label": "ticketIds",
            "offset": 0,
            "slot": "1",
            "type": "t_array(t_uint256)dyn_storage"
          }
        ],
        "numberOfBytes": "64"
      },
      "t_uint256": {
        "encoding": "inplace",
        "label": "uint256",
        "numberOfBytes": "32"
      }
    }
  }
}