{
  "_format": "hh-sol-artifact-1",
  "contractName": "FanszoidMarketplace",
  "sourceName": "src/FanszoidMarketplace.sol",
  "abi": [
    {
      "anonymous": false,
      "inputs": [
        {
          "indexed": false,
          "internalType": "address",
          "name": "seller",
          "type": "address"
        },
        {
          "indexed": false,
          "internalType": "uint256",
          "name": "tokenId",
          "type": "uint256"
        }
      ],
      "name": "AskRemoved",
      "type": "event"
    },
    {
      "anonymous": false,
      "inputs": [
        {
          "indexed": false,
          "internalType": "uint256",
          "name": "tokenId",
          "type": "uint256"
        },
        {
          "indexed": false,
          "internalType": "address",
          "name": "seller",
          "type": "address"
        },
        {
          "indexed": false,
          "internalType": "uint256",
          "name": "askingPrice",
          "type": "uint256"
        }
      ],
      "name": "AskSetted",
      "type": "event"
    },
    {
      "anonymous": false,
      "inputs": [
        {
          "indexed": true,
          "internalType": "address",
          "name": "previousOwner",
          "type": "address"
        },
        {
          "indexed": true,
          "internalType": "address",
          "name": "newOwner",
          "type": "address"
        }
      ],
      "name": "OwnershipTransferred",
      "type": "event"
    },
    {
      "anonymous": false,
      "inputs": [
        {
          "indexed": false,
          "internalType": "address",
          "name": "account",
          "type": "address"
        }
      ],
      "name": "Paused",
      "type": "event"
    },
    {
      "anonymous": false,
      "inputs": [
        {
          "indexed": false,
          "internalType": "address",
          "name": "account",
          "type": "address"
        }
      ],
      "name": "Unpaused",
      "type": "event"
    },
    {
      "anonymous": false,
      "inputs": [
        {
          "indexed": false,
          "internalType": "uint256",
          "name": "eventId",
          "type": "uint256"
        },
        {
          "indexed": false,
          "internalType": "address",
          "name": "organizer",
          "type": "address"
        },
        {
          "indexed": false,
          "internalType": "string",
          "name": "uri",
          "type": "string"
        }
      ],
      "name": "eventCreated",
      "type": "event"
    },
    {
      "anonymous": false,
      "inputs": [
        {
          "indexed": false,
          "internalType": "uint256",
          "name": "eventId",
          "type": "uint256"
        },
        {
          "indexed": false,
          "internalType": "address",
          "name": "organizer",
          "type": "address"
        }
      ],
      "name": "eventDeleted",
      "type": "event"
    },
    {
      "anonymous": false,
      "inputs": [
        {
          "indexed": false,
          "internalType": "uint256",
          "name": "eventId",
          "type": "uint256"
        },
        {
          "indexed": false,
          "internalType": "address",
          "name": "organizer",
          "type": "address"
        },
        {
          "indexed": false,
          "internalType": "string",
          "name": "uri",
          "type": "string"
        }
      ],
      "name": "eventEdited",
      "type": "event"
    },
    {
      "anonymous": false,
      "inputs": [
        {
          "indexed": false,
          "internalType": "uint256",
          "name": "eventId",
          "type": "uint256"
        },
        {
          "indexed": false,
          "internalType": "uint256",
          "name": "newRoyalty",
          "type": "uint256"
        }
      ],
      "name": "marketRoyaltyModified",
      "type": "event"
    },
    {
      "anonymous": false,
      "inputs": [
        {
          "indexed": false,
          "internalType": "uint256",
          "name": "tokenId",
          "type": "uint256"
        },
        {
          "indexed": false,
          "internalType": "address",
          "name": "seller",
          "type": "address"
        },
        {
          "indexed": false,
          "internalType": "address",
          "name": "buyer",
          "type": "address"
        },
        {
          "indexed": false,
          "internalType": "uint256",
          "name": "price",
          "type": "uint256"
        }
      ],
      "name": "ticketBought",
      "type": "event"
    },
    {
      "inputs": [],
      "name": "DEFAULT_MARKETPLACE_ROYALTY",
      "outputs": [
        {
          "internalType": "uint256",
          "name": "",
          "type": "uint256"
        }
      ],
      "stateMutability": "view",
      "type": "function"
    },
    {
      "inputs": [],
      "name": "MINIMUM_ASK",
      "outputs": [
        {
          "internalType": "uint256",
          "name": "",
          "type": "uint256"
        }
      ],
      "stateMutability": "view",
      "type": "function"
    },
    {
      "inputs": [
        {
          "internalType": "address",
          "name": "",
          "type": "address"
        },
        {
          "internalType": "uint256",
          "name": "",
          "type": "uint256"
        }
      ],
      "name": "askingPrices",
      "outputs": [
        {
          "internalType": "uint256",
          "name": "",
          "type": "uint256"
        }
      ],
      "stateMutability": "view",
      "type": "function"
    },
    {
      "inputs": [
        {
          "internalType": "uint256",
          "name": "tokenId",
          "type": "uint256"
        },
        {
          "internalType": "address",
          "name": "seller",
          "type": "address"
        }
      ],
      "name": "buyMarketTicket",
      "outputs": [],
      "stateMutability": "payable",
      "type": "function"
    },
    {
      "inputs": [
        {
          "internalType": "address",
          "name": "_fansNFTContract",
          "type": "address"
        }
      ],
      "name": "configure",
      "outputs": [],
      "stateMutability": "nonpayable",
      "type": "function"
    },
    {
      "inputs": [
        {
          "internalType": "address",
          "name": "organizer",
          "type": "address"
        },
        {
          "internalType": "string",
          "name": "uri",
          "type": "string"
        }
      ],
      "name": "createEventForOrganizer",
      "outputs": [
        {
          "internalType": "uint256",
          "name": "",
          "type": "uint256"
        }
      ],
      "stateMutability": "nonpayable",
      "type": "function"
    },
    {
      "inputs": [
        {
          "internalType": "uint256",
          "name": "eventId",
          "type": "uint256"
        }
      ],
      "name": "deleteEvent",
      "outputs": [],
      "stateMutability": "nonpayable",
      "type": "function"
    },
    {
      "inputs": [
        {
          "internalType": "uint256",
          "name": "eventId",
          "type": "uint256"
        }
      ],
      "name": "eventUri",
      "outputs": [
        {
          "internalType": "string",
          "name": "",
          "type": "string"
        }
      ],
      "stateMutability": "view",
      "type": "function"
    },
    {
      "inputs": [
        {
          "internalType": "uint256",
          "name": "",
          "type": "uint256"
        }
      ],
      "name": "events",
      "outputs": [
        {
          "internalType": "address",
          "name": "organizer",
          "type": "address"
        },
        {
          "internalType": "string",
          "name": "_uri",
          "type": "string"
        }
      ],
      "stateMutability": "view",
      "type": "function"
    },
    {
      "inputs": [],
      "name": "fansNFTContract",
      "outputs": [
        {
          "internalType": "address",
          "name": "",
          "type": "address"
        }
      ],
      "stateMutability": "view",
      "type": "function"
    },
    {
      "inputs": [],
      "name": "initialize",
      "outputs": [],
      "stateMutability": "nonpayable",
      "type": "function"
    },
    {
      "inputs": [
        {
          "internalType": "uint256",
          "name": "eventId",
          "type": "uint256"
        },
        {
          "internalType": "uint256",
          "name": "newRoyalty",
          "type": "uint256"
        }
      ],
      "name": "modifyMarketRoyaltyOnEvent",
      "outputs": [],
      "stateMutability": "nonpayable",
      "type": "function"
    },
    {
      "inputs": [],
      "name": "owner",
      "outputs": [
        {
          "internalType": "address",
          "name": "",
          "type": "address"
        }
      ],
      "stateMutability": "view",
      "type": "function"
    },
    {
      "inputs": [],
      "name": "pause",
      "outputs": [],
      "stateMutability": "nonpayable",
      "type": "function"
    },
    {
      "inputs": [],
      "name": "paused",
      "outputs": [
        {
          "internalType": "bool",
          "name": "",
          "type": "bool"
        }
      ],
      "stateMutability": "view",
      "type": "function"
    },
    {
      "inputs": [
        {
          "internalType": "uint256",
          "name": "eventId",
          "type": "uint256"
        },
        {
          "internalType": "uint256",
          "name": "ticketTypesCount",
          "type": "uint256"
        },
        {
          "internalType": "uint256[]",
          "name": "ticketIds",
          "type": "uint256[]"
        },
        {
          "internalType": "uint256[]",
          "name": "publishingAskingPrices",
          "type": "uint256[]"
        },
        {
          "internalType": "uint256[]",
          "name": "publishingCreatorRoyalties",
          "type": "uint256[]"
        },
        {
          "internalType": "address payable",
          "name": "publisher",
          "type": "address"
        }
      ],
      "name": "publishEventTickets",
      "outputs": [],
      "stateMutability": "nonpayable",
      "type": "function"
    },
    {
      "inputs": [
        {
          "internalType": "uint256",
          "name": "tokenId",
          "type": "uint256"
        }
      ],
      "name": "removeAsk",
      "outputs": [],
      "stateMutability": "nonpayable",
      "type": "function"
    },
    {
      "inputs": [],
      "name": "renounceOwnership",
      "outputs": [],
      "stateMutability": "nonpayable",
      "type": "function"
    },
    {
      "inputs": [
        {
          "internalType": "uint256",
          "name": "",
          "type": "uint256"
        }
      ],
      "name": "sellingRoyalties",
      "outputs": [
        {
          "internalType": "address payable",
          "name": "creator",
          "type": "address"
        },
        {
          "internalType": "uint256",
          "name": "creatorRoyalty",
          "type": "uint256"
        },
        {
          "internalType": "uint256",
          "name": "marketRoyalty",
          "type": "uint256"
        }
      ],
      "stateMutability": "view",
      "type": "function"
    },
    {
      "inputs": [
        {
          "internalType": "uint256",
          "name": "tokenId",
          "type": "uint256"
        },
        {
          "internalType": "uint256",
          "name": "askingPrice",
          "type": "uint256"
        },
        {
          "internalType": "address",
          "name": "seller",
          "type": "address"
        }
      ],
      "name": "setAsk",
      "outputs": [],
      "stateMutability": "nonpayable",
      "type": "function"
    },
    {
      "inputs": [
        {
          "internalType": "uint256",
          "name": "eventId",
          "type": "uint256"
        },
        {
          "internalType": "string",
          "name": "uri",
          "type": "string"
        }
      ],
      "name": "setEventUri",
      "outputs": [],
      "stateMutability": "nonpayable",
      "type": "function"
    },
    {
      "inputs": [
        {
          "internalType": "address",
          "name": "newOwner",
          "type": "address"
        }
      ],
      "name": "transferOwnership",
      "outputs": [],
      "stateMutability": "nonpayable",
      "type": "function"
    },
    {
      "inputs": [],
      "name": "unpause",
      "outputs": [],
      "stateMutability": "nonpayable",
      "type": "function"
    }
  ],
  "bytecode": "0x608060405234801561001057600080fd5b5061415c806100206000396000f3fe6080604052600436106101405760003560e01c806375cb2672116100b6578063a7f9f0f11161006f578063a7f9f0f114610402578063a8844f561461042d578063bae7fb131461046a578063e8f0f58014610495578063f2fde38b146104be578063f8749a58146104e757610140565b806375cb26721461031a5780638129fc1c146103435780638456cb591461035a5780638da5cb5b14610371578063992bfd511461039c57806399e85b24146103d957610140565b80633f4ba83a116101085780633f4ba83a1461023b5780634cbcac3a146102525780635c975abb146102915780635d080ba6146102bc578063715018a6146102e75780637373c111146102fe57610140565b80630b791430146101455780631d563cdc1461018357806321a2875c146101ac57806328220f35146101e95780633b78789714610212575b600080fd5b34801561015157600080fd5b5061016c60048036038101906101679190612e2f565b610510565b60405161017a929190613488565b60405180910390f35b34801561018f57600080fd5b506101aa60048036038101906101a59190612f9c565b6105dc565b005b3480156101b857600080fd5b506101d360048036038101906101ce9190612df3565b610a99565b6040516101e0919061379e565b60405180910390f35b3480156101f557600080fd5b50610210600480360381019061020b9190612e2f565b610abe565b005b34801561021e57600080fd5b5061023960048036038101906102349190612f4d565b610c84565b005b34801561024757600080fd5b50610250610f24565b005b34801561025e57600080fd5b5061027960048036038101906102749190612e2f565b610faa565b604051610288939291906133f9565b60405180910390f35b34801561029d57600080fd5b506102a6610ff4565b6040516102b391906134e1565b60405180910390f35b3480156102c857600080fd5b506102d161100b565b6040516102de919061379e565b60405180910390f35b3480156102f357600080fd5b506102fc611011565b005b61031860048036038101906103139190612e81565b611099565b005b34801561032657600080fd5b50610341600480360381019061033c9190612d4d565b611705565b005b34801561034f57600080fd5b506103586118c6565b005b34801561036657600080fd5b5061036f611a1a565b005b34801561037d57600080fd5b50610386611aa0565b60405161039391906133de565b60405180910390f35b3480156103a857600080fd5b506103c360048036038101906103be9190612e2f565b611aca565b6040516103d091906134fc565b60405180910390f35b3480156103e557600080fd5b5061040060048036038101906103fb9190612f11565b611b72565b005b34801561040e57600080fd5b50610417611d58565b604051610424919061379e565b60405180910390f35b34801561043957600080fd5b50610454600480360381019061044f9190612d9f565b611d5e565b604051610461919061379e565b60405180910390f35b34801561047657600080fd5b5061047f611fd8565b60405161048c91906133de565b60405180910390f35b3480156104a157600080fd5b506104bc60048036038101906104b79190612ebd565b611ffe565b005b3480156104ca57600080fd5b506104e560048036038101906104e09190612d4d565b612154565b005b3480156104f357600080fd5b5061050e60048036038101906105099190612e2f565b61221d565b005b60ce6020528060005260406000206000915090508060000160009054906101000a900473ffffffffffffffffffffffffffffffffffffffff169080600201805461055990613ab5565b80601f016020809104026020016040519081016040528092919081815260200182805461058590613ab5565b80156105d25780601f106105a7576101008083540402835291602001916105d2565b820191906000526020600020905b8154815290600101906020018083116105b557829003601f168201915b5050505050905082565b6105e4610ff4565b15610624576040517f08c379a000000000000000000000000000000000000000000000000000000000815260040161061b906135de565b60405180910390fd5b3373ffffffffffffffffffffffffffffffffffffffff1660c960009054906101000a900473ffffffffffffffffffffffffffffffffffffffff1673ffffffffffffffffffffffffffffffffffffffff16146106b4576040517f08c379a00000000000000000000000000000000000000000000000000000000081526004016106ab9061367e565b60405180910390fd5b600073ffffffffffffffffffffffffffffffffffffffff1660ce60008b815260200190815260200160002060000160009054906101000a900473ffffffffffffffffffffffffffffffffffffffff1673ffffffffffffffffffffffffffffffffffffffff16141561075a576040517f08c379a0000000000000000000000000000000000000000000000000000000008152600401610751906136fe565b60405180910390fd5b8073ffffffffffffffffffffffffffffffffffffffff1660ce60008b815260200190815260200160002060000160009054906101000a900473ffffffffffffffffffffffffffffffffffffffff1673ffffffffffffffffffffffffffffffffffffffff16146107fe576040517f08c379a00000000000000000000000000000000000000000000000000000000081526004016107f59061357e565b60405180910390fd5b60005b88811015610a8d5760405180606001604052808373ffffffffffffffffffffffffffffffffffffffff168152602001858584818110610869577f4e487b7100000000000000000000000000000000000000000000000000000000600052603260045260246000fd5b90506020020135815260200160cb5481525060cf60008a8a858181106108b8577f4e487b7100000000000000000000000000000000000000000000000000000000600052603260045260246000fd5b90506020020135815260200190815260200160002060008201518160000160006101000a81548173ffffffffffffffffffffffffffffffffffffffff021916908373ffffffffffffffffffffffffffffffffffffffff1602179055506020820151816001015560408201518160020155905050858582818110610964577f4e487b7100000000000000000000000000000000000000000000000000000000600052603260045260246000fd5b9050602002013560d060008473ffffffffffffffffffffffffffffffffffffffff1673ffffffffffffffffffffffffffffffffffffffff16815260200190815260200160002060008a8a858181106109e5577f4e487b7100000000000000000000000000000000000000000000000000000000600052603260045260246000fd5b9050602002013581526020019081526020016000208190555060ce60008b8152602001908152602001600020600101888883818110610a4d577f4e487b7100000000000000000000000000000000000000000000000000000000600052603260045260246000fd5b9050602002013590806001815401808255809150506001900390600052602060002001600090919091909150558080610a8590613b18565b915050610801565b50505050505050505050565b60d0602052816000526040600020602052806000526040600020600091509150505481565b610ac6610ff4565b15610b06576040517f08c379a0000000000000000000000000000000000000000000000000000000008152600401610afd906135de565b60405180910390fd5b600060c960009054906101000a900473ffffffffffffffffffffffffffffffffffffffff1673ffffffffffffffffffffffffffffffffffffffff1662fdd58e33846040518363ffffffff1660e01b8152600401610b649291906134b8565b60206040518083038186803b158015610b7c57600080fd5b505afa158015610b90573d6000803e3d6000fd5b505050506040513d601f19601f82011682018060405250810190610bb49190612e58565b11610bf4576040517f08c379a0000000000000000000000000000000000000000000000000000000008152600401610beb9061371e565b60405180910390fd5b60d060003373ffffffffffffffffffffffffffffffffffffffff1673ffffffffffffffffffffffffffffffffffffffff1681526020019081526020016000206000828152602001908152602001600020600090557f1f2fa6bb5353160dec9640945a0fbf286bda8907835ad6b88dc06ff271382fc03382604051610c799291906134b8565b60405180910390a150565b610c8c610ff4565b15610ccc576040517f08c379a0000000000000000000000000000000000000000000000000000000008152600401610cc3906135de565b60405180910390fd5b3373ffffffffffffffffffffffffffffffffffffffff1660c960009054906101000a900473ffffffffffffffffffffffffffffffffffffffff1673ffffffffffffffffffffffffffffffffffffffff1614610d5c576040517f08c379a0000000000000000000000000000000000000000000000000000000008152600401610d539061367e565b60405180910390fd5b60ca54821015610da1576040517f08c379a0000000000000000000000000000000000000000000000000000000008152600401610d989061375e565b60405180910390fd5b600060c960009054906101000a900473ffffffffffffffffffffffffffffffffffffffff1673ffffffffffffffffffffffffffffffffffffffff1662fdd58e83866040518363ffffffff1660e01b8152600401610dff9291906134b8565b60206040518083038186803b158015610e1757600080fd5b505afa158015610e2b573d6000803e3d6000fd5b505050506040513d601f19601f82011682018060405250810190610e4f9190612e58565b11610e8f576040517f08c379a0000000000000000000000000000000000000000000000000000000008152600401610e869061371e565b60405180910390fd5b8160d060008373ffffffffffffffffffffffffffffffffffffffff1673ffffffffffffffffffffffffffffffffffffffff1681526020019081526020016000206000858152602001908152602001600020819055507fec18f780a0e43876e9c5593d23fd6d36ec8a8fdd0c74484d212eebcfd89306d5838284604051610f1793929190613865565b60405180910390a1505050565b610f2c61248b565b73ffffffffffffffffffffffffffffffffffffffff16610f4a611aa0565b73ffffffffffffffffffffffffffffffffffffffff1614610fa0576040517f08c379a0000000000000000000000000000000000000000000000000000000008152600401610f979061363e565b60405180910390fd5b610fa8612493565b565b60cf6020528060005260406000206000915090508060000160009054906101000a900473ffffffffffffffffffffffffffffffffffffffff16908060010154908060020154905083565b6000606560009054906101000a900460ff16905090565b60ca5481565b61101961248b565b73ffffffffffffffffffffffffffffffffffffffff16611037611aa0565b73ffffffffffffffffffffffffffffffffffffffff161461108d576040517f08c379a00000000000000000000000000000000000000000000000000000000081526004016110849061363e565b60405180910390fd5b6110976000612535565b565b6110a1610ff4565b156110e1576040517f08c379a00000000000000000000000000000000000000000000000000000000081526004016110d8906135de565b60405180910390fd5b60026097541415611127576040517f08c379a000000000000000000000000000000000000000000000000000000000815260040161111e9061377e565b60405180910390fd5b6002609781905550600060c960009054906101000a900473ffffffffffffffffffffffffffffffffffffffff1673ffffffffffffffffffffffffffffffffffffffff1662fdd58e83856040518363ffffffff1660e01b815260040161118d9291906134b8565b60206040518083038186803b1580156111a557600080fd5b505afa1580156111b9573d6000803e3d6000fd5b505050506040513d601f19601f820116820180604052508101906111dd9190612e58565b1161121d576040517f08c379a00000000000000000000000000000000000000000000000000000000081526004016112149061359e565b60405180910390fd5b60ca5460d060008373ffffffffffffffffffffffffffffffffffffffff1673ffffffffffffffffffffffffffffffffffffffff168152602001908152602001600020600084815260200190815260200160002054101580156112ce575060d060008273ffffffffffffffffffffffffffffffffffffffff1673ffffffffffffffffffffffffffffffffffffffff16815260200190815260200160002060008381526020019081526020016000205434145b61130d576040517f08c379a00000000000000000000000000000000000000000000000000000000081526004016113049061373e565b60405180910390fd5b600060d060008373ffffffffffffffffffffffffffffffffffffffff1673ffffffffffffffffffffffffffffffffffffffff1681526020019081526020016000206000848152602001908152602001600020549050600060cf600085815260200190815260200160002060000160009054906101000a900473ffffffffffffffffffffffffffffffffffffffff1690508073ffffffffffffffffffffffffffffffffffffffff168373ffffffffffffffffffffffffffffffffffffffff1614156114bc5760006113f33460cf6000888152602001908152602001600020600201546125fb565b90506000813461140391906139d3565b90508473ffffffffffffffffffffffffffffffffffffffff166108fc829081150290604051600060405180830381858888f1935050505015801561144b573d6000803e3d6000fd5b5060cd60009054906101000a900473ffffffffffffffffffffffffffffffffffffffff1673ffffffffffffffffffffffffffffffffffffffff166108fc839081150290604051600060405180830381858888f193505050501580156114b4573d6000803e3d6000fd5b505050611626565b60006114ea34600260cf6000898152602001908152602001600020600201546114e59190613948565b6125fb565b9050600061150e3460cf6000898152602001908152602001600020600101546125fb565b9050600081833461151f91906139d3565b61152991906139d3565b90508573ffffffffffffffffffffffffffffffffffffffff166108fc829081150290604051600060405180830381858888f19350505050158015611571573d6000803e3d6000fd5b508373ffffffffffffffffffffffffffffffffffffffff166108fc839081150290604051600060405180830381858888f193505050501580156115b8573d6000803e3d6000fd5b5060cd60009054906101000a900473ffffffffffffffffffffffffffffffffffffffff1673ffffffffffffffffffffffffffffffffffffffff166108fc849081150290604051600060405180830381858888f19350505050158015611621573d6000803e3d6000fd5b505050505b60c960009054906101000a900473ffffffffffffffffffffffffffffffffffffffff1673ffffffffffffffffffffffffffffffffffffffff1663f242432a84338760016040518563ffffffff1660e01b81526004016116889493929190613430565b600060405180830381600087803b1580156116a257600080fd5b505af11580156116b6573d6000803e3d6000fd5b505050507f060f7dd92424d6f1af65d2fe9acba5b63d299cc26cd8eb26403ca371bc9fbfbb848433856040516116ef94939291906137e2565b60405180910390a1505060016097819055505050565b61170d61248b565b73ffffffffffffffffffffffffffffffffffffffff1661172b611aa0565b73ffffffffffffffffffffffffffffffffffffffff1614611781576040517f08c379a00000000000000000000000000000000000000000000000000000000081526004016117789061363e565b60405180910390fd5b600073ffffffffffffffffffffffffffffffffffffffff1660c960009054906101000a900473ffffffffffffffffffffffffffffffffffffffff1673ffffffffffffffffffffffffffffffffffffffff1614611812576040517f08c379a00000000000000000000000000000000000000000000000000000000081526004016118099061361e565b60405180910390fd5b600073ffffffffffffffffffffffffffffffffffffffff168173ffffffffffffffffffffffffffffffffffffffff161415611882576040517f08c379a00000000000000000000000000000000000000000000000000000000081526004016118799061353e565b60405180910390fd5b8060c960006101000a81548173ffffffffffffffffffffffffffffffffffffffff021916908373ffffffffffffffffffffffffffffffffffffffff16021790555050565b600060019054906101000a900460ff166118ee5760008054906101000a900460ff16156118f7565b6118f66126bd565b5b611936576040517f08c379a000000000000000000000000000000000000000000000000000000000815260040161192d906135fe565b60405180910390fd5b60008060019054906101000a900460ff161590508015611986576001600060016101000a81548160ff02191690831515021790555060016000806101000a81548160ff0219169083151502179055505b6611c37937e0800060ca819055506105dc60cb819055503360cd60006101000a81548173ffffffffffffffffffffffffffffffffffffffff021916908373ffffffffffffffffffffffffffffffffffffffff1602179055506119e66126ce565b6119ee612727565b6119f6612780565b8015611a175760008060016101000a81548160ff0219169083151502179055505b50565b611a2261248b565b73ffffffffffffffffffffffffffffffffffffffff16611a40611aa0565b73ffffffffffffffffffffffffffffffffffffffff1614611a96576040517f08c379a0000000000000000000000000000000000000000000000000000000008152600401611a8d9061363e565b60405180910390fd5b611a9e6127d9565b565b6000603360009054906101000a900473ffffffffffffffffffffffffffffffffffffffff16905090565b606060ce60008381526020019081526020016000206002018054611aed90613ab5565b80601f0160208091040260200160405190810160405280929190818152602001828054611b1990613ab5565b8015611b665780601f10611b3b57610100808354040283529160200191611b66565b820191906000526020600020905b815481529060010190602001808311611b4957829003601f168201915b50505050509050919050565b611b7a61248b565b73ffffffffffffffffffffffffffffffffffffffff16611b98611aa0565b73ffffffffffffffffffffffffffffffffffffffff1614611bee576040517f08c379a0000000000000000000000000000000000000000000000000000000008152600401611be59061363e565b60405180910390fd5b611bf6610ff4565b15611c36576040517f08c379a0000000000000000000000000000000000000000000000000000000008152600401611c2d906135de565b60405180910390fd5b600060ce6000848152602001908152602001600020600101805480602002602001604051908101604052809291908181526020018280548015611c9857602002820191906000526020600020905b815481526020019060010190808311611c84575b5050505050905060005b8151811015611d19578260cf6000848481518110611ce9577f4e487b7100000000000000000000000000000000000000000000000000000000600052603260045260246000fd5b60200260200101518152602001908152602001600020600201819055508080611d1190613b18565b915050611ca2565b507f355c91924faa9950ee222fbed8c030724cddb6615c498c8cdbb33e3dc9753d448383604051611d4b92919061389c565b60405180910390a1505050565b60cb5481565b6000611d68610ff4565b15611da8576040517f08c379a0000000000000000000000000000000000000000000000000000000008152600401611d9f906135de565b60405180910390fd5b3373ffffffffffffffffffffffffffffffffffffffff1660c960009054906101000a900473ffffffffffffffffffffffffffffffffffffffff1673ffffffffffffffffffffffffffffffffffffffff1614611e38576040517f08c379a0000000000000000000000000000000000000000000000000000000008152600401611e2f9061367e565b60405180910390fd5b611e4260cc61287c565b60405180606001604052808473ffffffffffffffffffffffffffffffffffffffff168152602001600067ffffffffffffffff811115611eaa577f4e487b7100000000000000000000000000000000000000000000000000000000600052604160045260246000fd5b604051908082528060200260200182016040528015611ed85781602001602082028036833780820191505090505b5081526020018381525060ce6000611ef060cc612892565b815260200190815260200160002060008201518160000160006101000a81548173ffffffffffffffffffffffffffffffffffffffff021916908373ffffffffffffffffffffffffffffffffffffffff1602179055506020820151816001019080519060200190611f61929190612ae1565b506040820151816002019080519060200190611f7e929190612b2e565b509050507fe8e6c29a1d5198ecbd214ea55796d8ff7151608a3ad6a6284109ff7cea00f2f5611fad60cc612892565b8484604051611fbe93929190613827565b60405180910390a1611fd060cc612892565b905092915050565b60c960009054906101000a900473ffffffffffffffffffffffffffffffffffffffff1681565b612006610ff4565b15612046576040517f08c379a000000000000000000000000000000000000000000000000000000000815260040161203d906135de565b60405180910390fd5b3373ffffffffffffffffffffffffffffffffffffffff1660ce600084815260200190815260200160002060000160009054906101000a900473ffffffffffffffffffffffffffffffffffffffff1673ffffffffffffffffffffffffffffffffffffffff16146120ea576040517f08c379a00000000000000000000000000000000000000000000000000000000081526004016120e19061369e565b60405180910390fd5b8060ce60008481526020019081526020016000206002019080519060200190612114929190612b2e565b507f4ffa3b8f12e5ba6bc3f860a40bfc1142dd098d7b20394c577f8a609e4cf582b682338360405161214893929190613827565b60405180910390a15050565b61215c61248b565b73ffffffffffffffffffffffffffffffffffffffff1661217a611aa0565b73ffffffffffffffffffffffffffffffffffffffff16146121d0576040517f08c379a00000000000000000000000000000000000000000000000000000000081526004016121c79061363e565b60405180910390fd5b8060cd60006101000a81548173ffffffffffffffffffffffffffffffffffffffff021916908373ffffffffffffffffffffffffffffffffffffffff16021790555061221a816128a0565b50565b612225610ff4565b15612265576040517f08c379a000000000000000000000000000000000000000000000000000000000815260040161225c906135de565b60405180910390fd5b3373ffffffffffffffffffffffffffffffffffffffff1660ce600083815260200190815260200160002060000160009054906101000a900473ffffffffffffffffffffffffffffffffffffffff1673ffffffffffffffffffffffffffffffffffffffff16148061237d57503373ffffffffffffffffffffffffffffffffffffffff163073ffffffffffffffffffffffffffffffffffffffff16638da5cb5b6040518163ffffffff1660e01b815260040160206040518083038186803b15801561232d57600080fd5b505afa158015612341573d6000803e3d6000fd5b505050506040513d601f19601f820116820180604052508101906123659190612d76565b73ffffffffffffffffffffffffffffffffffffffff16145b6123bc576040517f08c379a00000000000000000000000000000000000000000000000000000000081526004016123b39061365e565b60405180910390fd5b60ce6000828152602001908152602001600020600080820160006101000a81549073ffffffffffffffffffffffffffffffffffffffff02191690556001820160006124079190612bb4565b6002820160006124179190612bd5565b50507f45a7d96854c83fc69e330612b9596a1ae169051ee91e6630be1d096cd8623b7f8160ce600084815260200190815260200160002060000160009054906101000a900473ffffffffffffffffffffffffffffffffffffffff166040516124809291906137b9565b60405180910390a150565b600033905090565b61249b610ff4565b6124da576040517f08c379a00000000000000000000000000000000000000000000000000000000081526004016124d19061351e565b60405180910390fd5b6000606560006101000a81548160ff0219169083151502179055507f5db9ee0a495bf2e6ff9c91a7834c1ba4fdd244a5e8aa4e537bd38aeae4b073aa61251e61248b565b60405161252b91906133de565b60405180910390a1565b6000603360009054906101000a900473ffffffffffffffffffffffffffffffffffffffff16905081603360006101000a81548173ffffffffffffffffffffffffffffffffffffffff021916908373ffffffffffffffffffffffffffffffffffffffff1602179055508173ffffffffffffffffffffffffffffffffffffffff168173ffffffffffffffffffffffffffffffffffffffff167f8be0079c531659141344cd1fd0a4f28419497f9722a3daafe3b4186f6b6457e060405160405180910390a35050565b600082612710808561260d9190613948565b6126179190613979565b14612657576040517f08c379a000000000000000000000000000000000000000000000000000000000815260040161264e906136de565b60405180910390fd5b61271082111561269c576040517f08c379a0000000000000000000000000000000000000000000000000000000008152600401612693906135be565b60405180910390fd5b61271082846126ab9190613979565b6126b59190613948565b905092915050565b60006126c830612998565b15905090565b600060019054906101000a900460ff1661271d576040517f08c379a0000000000000000000000000000000000000000000000000000000008152600401612714906136be565b60405180910390fd5b6127256129bb565b565b600060019054906101000a900460ff16612776576040517f08c379a000000000000000000000000000000000000000000000000000000000815260040161276d906136be565b60405180910390fd5b61277e612a1c565b565b600060019054906101000a900460ff166127cf576040517f08c379a00000000000000000000000000000000000000000000000000000000081526004016127c6906136be565b60405180910390fd5b6127d7612a88565b565b6127e1610ff4565b15612821576040517f08c379a0000000000000000000000000000000000000000000000000000000008152600401612818906135de565b60405180910390fd5b6001606560006101000a81548160ff0219169083151502179055507f62e78cea01bee320cd4e420270b5ea74000d11b0c9f74754ebdbfc544b05a25861286561248b565b60405161287291906133de565b60405180910390a1565b6001816000016000828254019250508190555050565b600081600001549050919050565b6128a861248b565b73ffffffffffffffffffffffffffffffffffffffff166128c6611aa0565b73ffffffffffffffffffffffffffffffffffffffff161461291c576040517f08c379a00000000000000000000000000000000000000000000000000000000081526004016129139061363e565b60405180910390fd5b600073ffffffffffffffffffffffffffffffffffffffff168173ffffffffffffffffffffffffffffffffffffffff16141561298c576040517f08c379a00000000000000000000000000000000000000000000000000000000081526004016129839061355e565b60405180910390fd5b61299581612535565b50565b6000808273ffffffffffffffffffffffffffffffffffffffff163b119050919050565b600060019054906101000a900460ff16612a0a576040517f08c379a0000000000000000000000000000000000000000000000000000000008152600401612a01906136be565b60405180910390fd5b612a1a612a1561248b565b612535565b565b600060019054906101000a900460ff16612a6b576040517f08c379a0000000000000000000000000000000000000000000000000000000008152600401612a62906136be565b60405180910390fd5b6000606560006101000a81548160ff021916908315150217905550565b600060019054906101000a900460ff16612ad7576040517f08c379a0000000000000000000000000000000000000000000000000000000008152600401612ace906136be565b60405180910390fd5b6001609781905550565b828054828255906000526020600020908101928215612b1d579160200282015b82811115612b1c578251825591602001919060010190612b01565b5b509050612b2a9190612c15565b5090565b828054612b3a90613ab5565b90600052602060002090601f016020900481019282612b5c5760008555612ba3565b82601f10612b7557805160ff1916838001178555612ba3565b82800160010185558215612ba3579182015b82811115612ba2578251825591602001919060010190612b87565b5b509050612bb09190612c15565b5090565b5080546000825590600052602060002090810190612bd29190612c15565b50565b508054612be190613ab5565b6000825580601f10612bf35750612c12565b601f016020900490600052602060002090810190612c119190612c15565b5b50565b5b80821115612c2e576000816000905550600101612c16565b5090565b6000612c45612c40846138ea565b6138c5565b905082815260208101848484011115612c5d57600080fd5b612c68848285613a73565b509392505050565b600081359050612c7f816140e1565b92915050565b600081519050612c94816140e1565b92915050565b600081359050612ca9816140f8565b92915050565b60008083601f840112612cc157600080fd5b8235905067ffffffffffffffff811115612cda57600080fd5b602083019150836020820283011115612cf257600080fd5b9250929050565b600082601f830112612d0a57600080fd5b8135612d1a848260208601612c32565b91505092915050565b600081359050612d328161410f565b92915050565b600081519050612d478161410f565b92915050565b600060208284031215612d5f57600080fd5b6000612d6d84828501612c70565b91505092915050565b600060208284031215612d8857600080fd5b6000612d9684828501612c85565b91505092915050565b60008060408385031215612db257600080fd5b6000612dc085828601612c70565b925050602083013567ffffffffffffffff811115612ddd57600080fd5b612de985828601612cf9565b9150509250929050565b60008060408385031215612e0657600080fd5b6000612e1485828601612c70565b9250506020612e2585828601612d23565b9150509250929050565b600060208284031215612e4157600080fd5b6000612e4f84828501612d23565b91505092915050565b600060208284031215612e6a57600080fd5b6000612e7884828501612d38565b91505092915050565b60008060408385031215612e9457600080fd5b6000612ea285828601612d23565b9250506020612eb385828601612c70565b9150509250929050565b60008060408385031215612ed057600080fd5b6000612ede85828601612d23565b925050602083013567ffffffffffffffff811115612efb57600080fd5b612f0785828601612cf9565b9150509250929050565b60008060408385031215612f2457600080fd5b6000612f3285828601612d23565b9250506020612f4385828601612d23565b9150509250929050565b600080600060608486031215612f6257600080fd5b6000612f7086828701612d23565b9350506020612f8186828701612d23565b9250506040612f9286828701612c70565b9150509250925092565b600080600080600080600080600060c08a8c031215612fba57600080fd5b6000612fc88c828d01612d23565b9950506020612fd98c828d01612d23565b98505060408a013567ffffffffffffffff811115612ff657600080fd5b6130028c828d01612caf565b975097505060608a013567ffffffffffffffff81111561302157600080fd5b61302d8c828d01612caf565b955095505060808a013567ffffffffffffffff81111561304c57600080fd5b6130588c828d01612caf565b935093505060a061306b8c828d01612c9a565b9150509295985092959850929598565b61308481613a19565b82525050565b61309381613a07565b82525050565b6130a281613a2b565b82525050565b6130b181613a61565b82525050565b60006130c28261391b565b6130cc8185613937565b93506130dc818560208601613a82565b6130e581613c1d565b840191505092915050565b60006130fd601483613937565b915061310882613c2e565b602082019050919050565b6000613120601783613937565b915061312b82613c57565b602082019050919050565b6000613143602683613937565b915061314e82613c80565b604082019050919050565b6000613166603583613937565b915061317182613ccf565b604082019050919050565b6000613189601583613937565b915061319482613d1e565b602082019050919050565b60006131ac602083613937565b91506131b782613d47565b602082019050919050565b60006131cf601083613937565b91506131da82613d70565b602082019050919050565b60006131f2602e83613937565b91506131fd82613d99565b604082019050919050565b6000613215602e83613937565b915061322082613de8565b604082019050919050565b6000613238602083613937565b915061324382613e37565b602082019050919050565b600061325b603883613937565b915061326682613e60565b604082019050919050565b600061327e601d83613937565b915061328982613eaf565b602082019050919050565b60006132a1600083613926565b91506132ac82613ed8565b600082019050919050565b60006132c4602583613937565b91506132cf82613edb565b604082019050919050565b60006132e7602b83613937565b91506132f282613f2a565b604082019050919050565b600061330a602483613937565b915061331582613f79565b604082019050919050565b600061332d601383613937565b915061333882613fc8565b602082019050919050565b6000613350601583613937565b915061335b82613ff1565b602082019050919050565b6000613373604883613937565b915061337e8261401a565b606082019050919050565b6000613396601b83613937565b91506133a18261408f565b602082019050919050565b60006133b9601f83613937565b91506133c4826140b8565b602082019050919050565b6133d881613a57565b82525050565b60006020820190506133f3600083018461308a565b92915050565b600060608201905061340e600083018661307b565b61341b60208301856133cf565b61342860408301846133cf565b949350505050565b600060a082019050613445600083018761308a565b613452602083018661308a565b61345f60408301856133cf565b61346c60608301846130a8565b818103608083015261347d81613294565b905095945050505050565b600060408201905061349d600083018561308a565b81810360208301526134af81846130b7565b90509392505050565b60006040820190506134cd600083018561308a565b6134da60208301846133cf565b9392505050565b60006020820190506134f66000830184613099565b92915050565b6000602082019050818103600083015261351681846130b7565b905092915050565b60006020820190508181036000830152613537816130f0565b9050919050565b6000602082019050818103600083015261355781613113565b9050919050565b6000602082019050818103600083015261357781613136565b9050919050565b6000602082019050818103600083015261359781613159565b9050919050565b600060208201905081810360008301526135b78161317c565b9050919050565b600060208201905081810360008301526135d78161319f565b9050919050565b600060208201905081810360008301526135f7816131c2565b9050919050565b60006020820190508181036000830152613617816131e5565b9050919050565b6000602082019050818103600083015261363781613208565b9050919050565b600060208201905081810360008301526136578161322b565b9050919050565b600060208201905081810360008301526136778161324e565b9050919050565b6000602082019050818103600083015261369781613271565b9050919050565b600060208201905081810360008301526136b7816132b7565b9050919050565b600060208201905081810360008301526136d7816132da565b9050919050565b600060208201905081810360008301526136f7816132fd565b9050919050565b6000602082019050818103600083015261371781613320565b9050919050565b6000602082019050818103600083015261373781613343565b9050919050565b6000602082019050818103600083015261375781613366565b9050919050565b6000602082019050818103600083015261377781613389565b9050919050565b60006020820190508181036000830152613797816133ac565b9050919050565b60006020820190506137b360008301846133cf565b92915050565b60006040820190506137ce60008301856133cf565b6137db602083018461308a565b9392505050565b60006080820190506137f760008301876133cf565b613804602083018661308a565b613811604083018561308a565b61381e60608301846133cf565b95945050505050565b600060608201905061383c60008301866133cf565b613849602083018561308a565b818103604083015261385b81846130b7565b9050949350505050565b600060608201905061387a60008301866133cf565b613887602083018561308a565b61389460408301846133cf565b949350505050565b60006040820190506138b160008301856133cf565b6138be60208301846133cf565b9392505050565b60006138cf6138e0565b90506138db8282613ae7565b919050565b6000604051905090565b600067ffffffffffffffff82111561390557613904613bee565b5b61390e82613c1d565b9050602081019050919050565b600081519050919050565b600082825260208201905092915050565b600082825260208201905092915050565b600061395382613a57565b915061395e83613a57565b92508261396e5761396d613b90565b5b828204905092915050565b600061398482613a57565b915061398f83613a57565b9250817fffffffffffffffffffffffffffffffffffffffffffffffffffffffffffffffff04831182151516156139c8576139c7613b61565b5b828202905092915050565b60006139de82613a57565b91506139e983613a57565b9250828210156139fc576139fb613b61565b5b828203905092915050565b6000613a1282613a37565b9050919050565b6000613a2482613a37565b9050919050565b60008115159050919050565b600073ffffffffffffffffffffffffffffffffffffffff82169050919050565b6000819050919050565b6000613a6c82613a57565b9050919050565b82818337600083830152505050565b60005b83811015613aa0578082015181840152602081019050613a85565b83811115613aaf576000848401525b50505050565b60006002820490506001821680613acd57607f821691505b60208210811415613ae157613ae0613bbf565b5b50919050565b613af082613c1d565b810181811067ffffffffffffffff82111715613b0f57613b0e613bee565b5b80604052505050565b6000613b2382613a57565b91507fffffffffffffffffffffffffffffffffffffffffffffffffffffffffffffffff821415613b5657613b55613b61565b5b600182019050919050565b7f4e487b7100000000000000000000000000000000000000000000000000000000600052601160045260246000fd5b7f4e487b7100000000000000000000000000000000000000000000000000000000600052601260045260246000fd5b7f4e487b7100000000000000000000000000000000000000000000000000000000600052602260045260246000fd5b7f4e487b7100000000000000000000000000000000000000000000000000000000600052604160045260246000fd5b6000601f19601f8301169050919050565b7f5061757361626c653a206e6f7420706175736564000000000000000000000000600082015250565b7f6e6674436f6e74726163742063616e6e6f742062652030000000000000000000600082015250565b7f4f776e61626c653a206e6577206f776e657220697320746865207a65726f206160008201527f6464726573730000000000000000000000000000000000000000000000000000602082015250565b7f4f6e6c7920746865206f7267616e697a65722063616e207075626c697368207460008201527f69636b65747320666f7220746865206576656e742e0000000000000000000000602082015250565b7f53656c6c657220686173206e6f207469636b65742e0000000000000000000000600082015250565b7f66656520697320746f6f206c61726765206f6e2063616c63756c617465466565600082015250565b7f5061757361626c653a2070617573656400000000000000000000000000000000600082015250565b7f496e697469616c697a61626c653a20636f6e747261637420697320616c72656160008201527f647920696e697469616c697a6564000000000000000000000000000000000000602082015250565b7f5468652046616e737a6f69644d61726b6574706c6163652077617320616c726560008201527f61647920636f6e66696775726564000000000000000000000000000000000000602082015250565b7f4f776e61626c653a2063616c6c6572206973206e6f7420746865206f776e6572600082015250565b7f4f6e6c79206f7267616e697a6572206f72204d61726b6574706c616365206f7760008201527f6e65722063616e2064656c65746520616e206576656e742e0000000000000000602082015250565b7f4f6e6c7920746865206e667420636f6e747261637420616c6c6f776564000000600082015250565b50565b7f4f6e6c79206f7267616e697a65722063616e206d6f64696679206576656e747360008201527f2075726973000000000000000000000000000000000000000000000000000000602082015250565b7f496e697469616c697a61626c653a20636f6e7472616374206973206e6f74206960008201527f6e697469616c697a696e67000000000000000000000000000000000000000000602082015250565b7f616d6f756e7420697320746f6f20736d616c6c20746f2063616c63756c61746560008201527f2066656500000000000000000000000000000000000000000000000000000000602082015250565b7f4e6f6e2d6578697374616e74206576656e742e00000000000000000000000000600082015250565b7f53656e64657220686173206e6f207469636b65742e0000000000000000000000600082015250565b7f7469636b6574206973206e6f7420666f722073616c65206f722041736b696e6760008201527f20707269636520776173206e6f74206d61746368656420696e206d657373616760208201527f652076616c75652e000000000000000000000000000000000000000000000000604082015250565b7f4d696e696d756d2061736b20697320302e3030352065746865722e0000000000600082015250565b7f5265656e7472616e637947756172643a207265656e7472616e742063616c6c00600082015250565b6140ea81613a07565b81146140f557600080fd5b50565b61410181613a19565b811461410c57600080fd5b50565b61411881613a57565b811461412357600080fd5b5056fea26469706673582212209734d4fc096767a38ab89f368f6f0d7f0ee32cb5ddab0cb48e885dddfdc985ee64736f6c63430008040033",
  "linkReferences": {},
  "deployedLinkReferences": {}
}