{
  "address": "0x149Ab150C823b9614a973ff7c60FB99a959d0668",
  "abi": [
    {
      "inputs": [],
      "stateMutability": "nonpayable",
      "type": "constructor"
    },
    {
      "anonymous": false,
      "inputs": [
        {
          "indexed": false,
          "internalType": "address",
          "name": "seller",
          "type": "address"
        },
        {
          "indexed": false,
          "internalType": "uint256",
          "name": "tokenId",
          "type": "uint256"
        }
      ],
      "name": "AskRemoved",
      "type": "event"
    },
    {
      "anonymous": false,
      "inputs": [
        {
          "indexed": false,
          "internalType": "uint256",
          "name": "tokenId",
          "type": "uint256"
        },
        {
          "indexed": false,
          "internalType": "address",
          "name": "seller",
          "type": "address"
        },
        {
          "indexed": false,
          "internalType": "uint256",
          "name": "askingPrice",
          "type": "uint256"
        }
      ],
      "name": "AskSetted",
      "type": "event"
    },
    {
      "anonymous": false,
      "inputs": [
        {
          "indexed": false,
          "internalType": "uint256",
          "name": "eventId",
          "type": "uint256"
        },
        {
          "indexed": false,
          "internalType": "address",
          "name": "organizer",
          "type": "address"
        },
        {
          "indexed": false,
          "internalType": "string",
          "name": "uri",
          "type": "string"
        }
      ],
      "name": "eventCreated",
      "type": "event"
    },
    {
      "anonymous": false,
      "inputs": [
        {
          "indexed": false,
          "internalType": "uint256",
          "name": "tokenId",
          "type": "uint256"
        },
        {
          "indexed": false,
          "internalType": "address",
          "name": "seller",
          "type": "address"
        },
        {
          "indexed": false,
          "internalType": "address",
          "name": "buyer",
          "type": "address"
        },
        {
          "indexed": false,
          "internalType": "uint256",
          "name": "price",
          "type": "uint256"
        }
      ],
      "name": "ticketBought",
      "type": "event"
    },
    {
      "inputs": [],
      "name": "MINIMUM_ASK",
      "outputs": [
        {
          "internalType": "uint256",
          "name": "",
          "type": "uint256"
        }
      ],
      "stateMutability": "view",
      "type": "function"
    },
    {
      "inputs": [],
      "name": "_owner",
      "outputs": [
        {
          "internalType": "address payable",
          "name": "",
          "type": "address"
        }
      ],
      "stateMutability": "view",
      "type": "function"
    },
    {
      "inputs": [
        {
          "internalType": "address",
          "name": "",
          "type": "address"
        },
        {
          "internalType": "uint256",
          "name": "",
          "type": "uint256"
        }
      ],
      "name": "askingPrices",
      "outputs": [
        {
          "internalType": "uint256",
          "name": "",
          "type": "uint256"
        }
      ],
      "stateMutability": "view",
      "type": "function"
    },
    {
      "inputs": [
        {
          "internalType": "uint256",
          "name": "tokenId",
          "type": "uint256"
        },
        {
          "internalType": "address",
          "name": "seller",
          "type": "address"
        }
      ],
      "name": "buyMarketTicket",
      "outputs": [],
      "stateMutability": "payable",
      "type": "function"
    },
    {
      "inputs": [
        {
          "internalType": "address",
          "name": "_fansNFTContract",
          "type": "address"
        }
      ],
      "name": "configure",
      "outputs": [],
      "stateMutability": "nonpayable",
      "type": "function"
    },
    {
      "inputs": [
        {
          "internalType": "address",
          "name": "organizer",
          "type": "address"
        },
        {
          "internalType": "string",
          "name": "uri",
          "type": "string"
        }
      ],
      "name": "createEventForOrganizer",
      "outputs": [
        {
          "internalType": "uint256",
          "name": "",
          "type": "uint256"
        }
      ],
      "stateMutability": "nonpayable",
      "type": "function"
    },
    {
      "inputs": [
        {
          "internalType": "uint256",
          "name": "",
          "type": "uint256"
        }
      ],
      "name": "creatorRoyalties",
      "outputs": [
        {
          "internalType": "address payable",
          "name": "creator",
          "type": "address"
        },
        {
          "internalType": "uint256",
          "name": "royalty",
          "type": "uint256"
        }
      ],
      "stateMutability": "view",
      "type": "function"
    },
    {
      "inputs": [
        {
          "internalType": "uint256",
          "name": "eventId",
          "type": "uint256"
        }
      ],
      "name": "eventUri",
      "outputs": [
        {
          "internalType": "string",
          "name": "",
          "type": "string"
        }
      ],
      "stateMutability": "view",
      "type": "function"
    },
    {
      "inputs": [
        {
          "internalType": "uint256",
          "name": "",
          "type": "uint256"
        }
      ],
      "name": "events",
      "outputs": [
        {
          "internalType": "address",
          "name": "organizer",
          "type": "address"
        },
        {
          "internalType": "string",
          "name": "_uri",
          "type": "string"
        }
      ],
      "stateMutability": "view",
      "type": "function"
    },
    {
      "inputs": [],
      "name": "fansNFTContract",
      "outputs": [
        {
          "internalType": "address",
          "name": "",
          "type": "address"
        }
      ],
      "stateMutability": "view",
      "type": "function"
    },
    {
      "inputs": [
        {
          "internalType": "address",
          "name": "",
          "type": "address"
        },
        {
          "internalType": "uint256",
          "name": "",
          "type": "uint256"
        }
      ],
      "name": "globalBids",
      "outputs": [
        {
          "internalType": "uint256",
          "name": "",
          "type": "uint256"
        }
      ],
      "stateMutability": "view",
      "type": "function"
    },
    {
      "inputs": [
        {
          "internalType": "uint256",
          "name": "eventId",
          "type": "uint256"
        },
        {
          "internalType": "uint256",
          "name": "ticketTypesCount",
          "type": "uint256"
        },
        {
          "internalType": "uint256[]",
          "name": "ticketIds",
          "type": "uint256[]"
        },
        {
          "internalType": "uint256[]",
          "name": "publishingAskingPrices",
          "type": "uint256[]"
        },
        {
          "internalType": "uint256[]",
          "name": "publishingCreatorRoyalties",
          "type": "uint256[]"
        },
        {
          "internalType": "address payable",
          "name": "publisher",
          "type": "address"
        }
      ],
      "name": "publishEventTickets",
      "outputs": [],
      "stateMutability": "nonpayable",
      "type": "function"
    },
    {
      "inputs": [
        {
          "internalType": "uint256",
          "name": "tokenId",
          "type": "uint256"
        }
      ],
      "name": "removeAsk",
      "outputs": [],
      "stateMutability": "nonpayable",
      "type": "function"
    },
    {
      "inputs": [
        {
          "internalType": "uint256",
          "name": "tokenId",
          "type": "uint256"
        },
        {
          "internalType": "uint256",
          "name": "askingPrice",
          "type": "uint256"
        },
        {
          "internalType": "address",
          "name": "seller",
          "type": "address"
        }
      ],
      "name": "setAsk",
      "outputs": [],
      "stateMutability": "nonpayable",
      "type": "function"
    },
    {
      "inputs": [
        {
          "internalType": "uint256",
          "name": "eventId",
          "type": "uint256"
        },
        {
          "internalType": "string",
          "name": "uri",
          "type": "string"
        }
      ],
      "name": "setEventUri",
      "outputs": [],
      "stateMutability": "nonpayable",
      "type": "function"
    }
  ],
  "transactionHash": "0x1eddad12db4e90997cd189e7e72d6d50170d99721e202cd1cc9ea64f4d706c1f",
  "args": [],
  "solcInputHash": "d9258e45a457327f708abf25c65518fe",
  "bytecode": "0x608060405234801561001057600080fd5b50600160008190555033600160006101000a81548173ffffffffffffffffffffffffffffffffffffffff021916908373ffffffffffffffffffffffffffffffffffffffff160217905550612d59806100696000396000f3fe6080604052600436106100e85760003560e01c80636c7555aa1161008a578063a8844f5611610059578063a8844f561461030b578063b2bdfa7b14610348578063bae7fb1314610373578063e8f0f5801461039e576100e8565b80636c7555aa1461024b5780637373c1111461028957806375cb2672146102a5578063992bfd51146102ce576100e8565b806328220f35116100c657806328220f351461019157806335cf4f15146101ba5780633b787897146101f75780635d080ba614610220576100e8565b80630b791430146100ed5780631d563cdc1461012b57806321a2875c14610154575b600080fd5b3480156100f957600080fd5b50610114600480360381019061010f9190611c61565b6103c7565b6040516101229291906121aa565b60405180910390f35b34801561013757600080fd5b50610152600480360381019061014d9190611d92565b610493565b005b34801561016057600080fd5b5061017b60048036038101906101769190611c25565b61094c565b60405161018891906123e5565b60405180910390f35b34801561019d57600080fd5b506101b860048036038101906101b39190611c61565b610971565b005b3480156101c657600080fd5b506101e160048036038101906101dc9190611c25565b610aef565b6040516101ee91906123e5565b60405180910390f35b34801561020357600080fd5b5061021e60048036038101906102199190611d43565b610b14565b005b34801561022c57600080fd5b50610235610d71565b60405161024291906123e5565b60405180910390f35b34801561025757600080fd5b50610272600480360381019061026d9190611c61565b610d7c565b604051610280929190612129565b60405180910390f35b6102a3600480360381019061029e9190611cb3565b610dc0565b005b3480156102b157600080fd5b506102cc60048036038101906102c79190611ba8565b6112a8565b005b3480156102da57600080fd5b506102f560048036038101906102f09190611c61565b61147d565b6040516103029190612203565b60405180910390f35b34801561031757600080fd5b50610332600480360381019061032d9190611bd1565b611525565b60405161033f91906123e5565b60405180910390f35b34801561035457600080fd5b5061035d6117ad565b60405161036a919061210e565b60405180910390f35b34801561037f57600080fd5b506103886117d3565b60405161039591906120f3565b60405180910390f35b3480156103aa57600080fd5b506103c560048036038101906103c09190611cef565b6117f9565b005b60046020528060005260406000206000915090508060000160009054906101000a900473ffffffffffffffffffffffffffffffffffffffff16908060020180546104109061269e565b80601f016020809104026020016040519081016040528092919081815260200182805461043c9061269e565b80156104895780601f1061045e57610100808354040283529160200191610489565b820191906000526020600020905b81548152906001019060200180831161046c57829003601f168201915b5050505050905082565b600260005414156104d9576040517f08c379a00000000000000000000000000000000000000000000000000000000081526004016104d0906123c5565b60405180910390fd5b60026000819055503373ffffffffffffffffffffffffffffffffffffffff16600260009054906101000a900473ffffffffffffffffffffffffffffffffffffffff1673ffffffffffffffffffffffffffffffffffffffff1614610571576040517f08c379a000000000000000000000000000000000000000000000000000000000815260040161056890612325565b60405180910390fd5b600073ffffffffffffffffffffffffffffffffffffffff16600460008b815260200190815260200160002060000160009054906101000a900473ffffffffffffffffffffffffffffffffffffffff1673ffffffffffffffffffffffffffffffffffffffff161415610617576040517f08c379a000000000000000000000000000000000000000000000000000000000815260040161060e906123a5565b60405180910390fd5b8073ffffffffffffffffffffffffffffffffffffffff16600460008b815260200190815260200160002060000160009054906101000a900473ffffffffffffffffffffffffffffffffffffffff1673ffffffffffffffffffffffffffffffffffffffff16146106bb576040517f08c379a00000000000000000000000000000000000000000000000000000000081526004016106b2906122c5565b60405180910390fd5b60005b888110156109385760405180604001604052808373ffffffffffffffffffffffffffffffffffffffff168152602001858584818110610726577f4e487b7100000000000000000000000000000000000000000000000000000000600052603260045260246000fd5b90506020020135815250600560008a8a8581811061076d577f4e487b7100000000000000000000000000000000000000000000000000000000600052603260045260246000fd5b90506020020135815260200190815260200160002060008201518160000160006101000a81548173ffffffffffffffffffffffffffffffffffffffff021916908373ffffffffffffffffffffffffffffffffffffffff1602179055506020820151816001015590505085858281811061080f577f4e487b7100000000000000000000000000000000000000000000000000000000600052603260045260246000fd5b90506020020135600660008473ffffffffffffffffffffffffffffffffffffffff1673ffffffffffffffffffffffffffffffffffffffff16815260200190815260200160002060008a8a85818110610890577f4e487b7100000000000000000000000000000000000000000000000000000000600052603260045260246000fd5b90506020020135815260200190815260200160002081905550600460008b81526020019081526020016000206001018888838181106108f8577f4e487b7100000000000000000000000000000000000000000000000000000000600052603260045260246000fd5b905060200201359080600181540180825580915050600190039060005260206000200160009091909190915055808061093090612701565b9150506106be565b506001600081905550505050505050505050565b6006602052816000526040600020602052806000526040600020600091509150505481565b6000600260009054906101000a900473ffffffffffffffffffffffffffffffffffffffff1673ffffffffffffffffffffffffffffffffffffffff1662fdd58e33846040518363ffffffff1660e01b81526004016109cf9291906121da565b60206040518083038186803b1580156109e757600080fd5b505afa1580156109fb573d6000803e3d6000fd5b505050506040513d601f19601f82011682018060405250810190610a1f9190611c8a565b11610a5f576040517f08c379a0000000000000000000000000000000000000000000000000000000008152600401610a5690612345565b60405180910390fd5b600660003373ffffffffffffffffffffffffffffffffffffffff1673ffffffffffffffffffffffffffffffffffffffff1681526020019081526020016000206000828152602001908152602001600020600090557f1f2fa6bb5353160dec9640945a0fbf286bda8907835ad6b88dc06ff271382fc03382604051610ae49291906121da565b60405180910390a150565b6007602052816000526040600020602052806000526040600020600091509150505481565b3373ffffffffffffffffffffffffffffffffffffffff16600260009054906101000a900473ffffffffffffffffffffffffffffffffffffffff1673ffffffffffffffffffffffffffffffffffffffff1614610ba4576040517f08c379a0000000000000000000000000000000000000000000000000000000008152600401610b9b90612325565b60405180910390fd5b66b1a2bc2ec50000821015610bee576040517f08c379a0000000000000000000000000000000000000000000000000000000008152600401610be590612265565b60405180910390fd5b6000600260009054906101000a900473ffffffffffffffffffffffffffffffffffffffff1673ffffffffffffffffffffffffffffffffffffffff1662fdd58e83866040518363ffffffff1660e01b8152600401610c4c9291906121da565b60206040518083038186803b158015610c6457600080fd5b505afa158015610c78573d6000803e3d6000fd5b505050506040513d601f19601f82011682018060405250810190610c9c9190611c8a565b11610cdc576040517f08c379a0000000000000000000000000000000000000000000000000000000008152600401610cd390612345565b60405180910390fd5b81600660008373ffffffffffffffffffffffffffffffffffffffff1673ffffffffffffffffffffffffffffffffffffffff1681526020019081526020016000206000858152602001908152602001600020819055507fec18f780a0e43876e9c5593d23fd6d36ec8a8fdd0c74484d212eebcfd89306d5838284604051610d6493929190612483565b60405180910390a1505050565b6611c37937e0800081565b60056020528060005260406000206000915090508060000160009054906101000a900473ffffffffffffffffffffffffffffffffffffffff16908060010154905082565b60026000541415610e06576040517f08c379a0000000000000000000000000000000000000000000000000000000008152600401610dfd906123c5565b60405180910390fd5b60026000819055506000600260009054906101000a900473ffffffffffffffffffffffffffffffffffffffff1673ffffffffffffffffffffffffffffffffffffffff1662fdd58e83856040518363ffffffff1660e01b8152600401610e6c9291906121da565b60206040518083038186803b158015610e8457600080fd5b505afa158015610e98573d6000803e3d6000fd5b505050506040513d601f19601f82011682018060405250810190610ebc9190611c8a565b11610efc576040517f08c379a0000000000000000000000000000000000000000000000000000000008152600401610ef3906122e5565b60405180910390fd5b6611c37937e08000600660008373ffffffffffffffffffffffffffffffffffffffff1673ffffffffffffffffffffffffffffffffffffffff16815260200190815260200160002060008481526020019081526020016000205410158015610fb25750600660008273ffffffffffffffffffffffffffffffffffffffff1673ffffffffffffffffffffffffffffffffffffffff16815260200190815260200160002060008381526020019081526020016000205434145b610ff1576040517f08c379a0000000000000000000000000000000000000000000000000000000008152600401610fe890612225565b60405180910390fd5b6000600660008373ffffffffffffffffffffffffffffffffffffffff1673ffffffffffffffffffffffffffffffffffffffff168152602001908152602001600020600084815260200190815260200160002054905060006005600085815260200190815260200160002060000160009054906101000a900473ffffffffffffffffffffffffffffffffffffffff169050600061108e3460fa6118cc565b905060006110b23460056000898152602001908152602001600020600101546118cc565b905060008183346110c391906125c8565b6110cd91906125c8565b90508573ffffffffffffffffffffffffffffffffffffffff166108fc829081150290604051600060405180830381858888f19350505050158015611115573d6000803e3d6000fd5b508373ffffffffffffffffffffffffffffffffffffffff166108fc839081150290604051600060405180830381858888f1935050505015801561115c573d6000803e3d6000fd5b50600160009054906101000a900473ffffffffffffffffffffffffffffffffffffffff1673ffffffffffffffffffffffffffffffffffffffff166108fc849081150290604051600060405180830381858888f193505050501580156111c5573d6000803e3d6000fd5b50600260009054906101000a900473ffffffffffffffffffffffffffffffffffffffff1673ffffffffffffffffffffffffffffffffffffffff1663f242432a87338a60016040518563ffffffff1660e01b81526004016112289493929190612152565b600060405180830381600087803b15801561124257600080fd5b505af1158015611256573d6000803e3d6000fd5b505050507f060f7dd92424d6f1af65d2fe9acba5b63d299cc26cd8eb26403ca371bc9fbfbb8787338860405161128f9493929190612400565b60405180910390a1505050505060016000819055505050565b600073ffffffffffffffffffffffffffffffffffffffff16600260009054906101000a900473ffffffffffffffffffffffffffffffffffffffff1673ffffffffffffffffffffffffffffffffffffffff1614611339576040517f08c379a000000000000000000000000000000000000000000000000000000000815260040161133090612365565b60405180910390fd5b600160009054906101000a900473ffffffffffffffffffffffffffffffffffffffff1673ffffffffffffffffffffffffffffffffffffffff163373ffffffffffffffffffffffffffffffffffffffff16146113c9576040517f08c379a00000000000000000000000000000000000000000000000000000000081526004016113c0906122a5565b60405180910390fd5b600073ffffffffffffffffffffffffffffffffffffffff168173ffffffffffffffffffffffffffffffffffffffff161415611439576040517f08c379a000000000000000000000000000000000000000000000000000000000815260040161143090612245565b60405180910390fd5b80600260006101000a81548173ffffffffffffffffffffffffffffffffffffffff021916908373ffffffffffffffffffffffffffffffffffffffff16021790555050565b60606004600083815260200190815260200160002060020180546114a09061269e565b80601f01602080910402602001604051908101604052809291908181526020018280546114cc9061269e565b80156115195780601f106114ee57610100808354040283529160200191611519565b820191906000526020600020905b8154815290600101906020018083116114fc57829003601f168201915b50505050509050919050565b60006002600054141561156d576040517f08c379a0000000000000000000000000000000000000000000000000000000008152600401611564906123c5565b60405180910390fd5b60026000819055503373ffffffffffffffffffffffffffffffffffffffff16600260009054906101000a900473ffffffffffffffffffffffffffffffffffffffff1673ffffffffffffffffffffffffffffffffffffffff1614611605576040517f08c379a00000000000000000000000000000000000000000000000000000000081526004016115fc90612325565b60405180910390fd5b61160f600361198e565b60405180606001604052808473ffffffffffffffffffffffffffffffffffffffff168152602001600067ffffffffffffffff811115611677577f4e487b7100000000000000000000000000000000000000000000000000000000600052604160045260246000fd5b6040519080825280602002602001820160405280156116a55781602001602082028036833780820191505090505b50815260200183815250600460006116bd60036119a4565b815260200190815260200160002060008201518160000160006101000a81548173ffffffffffffffffffffffffffffffffffffffff021916908373ffffffffffffffffffffffffffffffffffffffff160217905550602082015181600101908051906020019061172e9291906119b2565b50604082015181600201908051906020019061174b9291906119ff565b509050507fe8e6c29a1d5198ecbd214ea55796d8ff7151608a3ad6a6284109ff7cea00f2f561177a60036119a4565b848460405161178b93929190612445565b60405180910390a161179d60036119a4565b9050600160008190555092915050565b600160009054906101000a900473ffffffffffffffffffffffffffffffffffffffff1681565b600260009054906101000a900473ffffffffffffffffffffffffffffffffffffffff1681565b3373ffffffffffffffffffffffffffffffffffffffff166004600084815260200190815260200160002060000160009054906101000a900473ffffffffffffffffffffffffffffffffffffffff1673ffffffffffffffffffffffffffffffffffffffff161461189d576040517f08c379a000000000000000000000000000000000000000000000000000000000815260040161189490612385565b60405180910390fd5b806004600084815260200190815260200160002060020190805190602001906118c79291906119ff565b505050565b60008261271080856118de919061253d565b6118e8919061256e565b14611928576040517f08c379a000000000000000000000000000000000000000000000000000000000815260040161191f90612305565b60405180910390fd5b61271082111561196d576040517f08c379a000000000000000000000000000000000000000000000000000000000815260040161196490612285565b60405180910390fd5b612710828461197c919061256e565b611986919061253d565b905092915050565b6001816000016000828254019250508190555050565b600081600001549050919050565b8280548282559060005260206000209081019282156119ee579160200282015b828111156119ed5782518255916020019190600101906119d2565b5b5090506119fb9190611a85565b5090565b828054611a0b9061269e565b90600052602060002090601f016020900481019282611a2d5760008555611a74565b82601f10611a4657805160ff1916838001178555611a74565b82800160010185558215611a74579182015b82811115611a73578251825591602001919060010190611a58565b5b509050611a819190611a85565b5090565b5b80821115611a9e576000816000905550600101611a86565b5090565b6000611ab5611ab0846124df565b6124ba565b905082815260208101848484011115611acd57600080fd5b611ad884828561265c565b509392505050565b600081359050611aef81612cde565b92915050565b600081359050611b0481612cf5565b92915050565b60008083601f840112611b1c57600080fd5b8235905067ffffffffffffffff811115611b3557600080fd5b602083019150836020820283011115611b4d57600080fd5b9250929050565b600082601f830112611b6557600080fd5b8135611b75848260208601611aa2565b91505092915050565b600081359050611b8d81612d0c565b92915050565b600081519050611ba281612d0c565b92915050565b600060208284031215611bba57600080fd5b6000611bc884828501611ae0565b91505092915050565b60008060408385031215611be457600080fd5b6000611bf285828601611ae0565b925050602083013567ffffffffffffffff811115611c0f57600080fd5b611c1b85828601611b54565b9150509250929050565b60008060408385031215611c3857600080fd5b6000611c4685828601611ae0565b9250506020611c5785828601611b7e565b9150509250929050565b600060208284031215611c7357600080fd5b6000611c8184828501611b7e565b91505092915050565b600060208284031215611c9c57600080fd5b6000611caa84828501611b93565b91505092915050565b60008060408385031215611cc657600080fd5b6000611cd485828601611b7e565b9250506020611ce585828601611ae0565b9150509250929050565b60008060408385031215611d0257600080fd5b6000611d1085828601611b7e565b925050602083013567ffffffffffffffff811115611d2d57600080fd5b611d3985828601611b54565b9150509250929050565b600080600060608486031215611d5857600080fd5b6000611d6686828701611b7e565b9350506020611d7786828701611b7e565b9250506040611d8886828701611ae0565b9150509250925092565b600080600080600080600080600060c08a8c031215611db057600080fd5b6000611dbe8c828d01611b7e565b9950506020611dcf8c828d01611b7e565b98505060408a013567ffffffffffffffff811115611dec57600080fd5b611df88c828d01611b0a565b975097505060608a013567ffffffffffffffff811115611e1757600080fd5b611e238c828d01611b0a565b955095505060808a013567ffffffffffffffff811115611e4257600080fd5b611e4e8c828d01611b0a565b935093505060a0611e618c828d01611af5565b9150509295985092959850929598565b611e7a8161260e565b82525050565b611e89816125fc565b82525050565b611e988161264a565b82525050565b6000611ea982612510565b611eb3818561252c565b9350611ec381856020860161266b565b611ecc81612806565b840191505092915050565b6000611ee4605d8361252c565b9150611eef82612817565b606082019050919050565b6000611f07602c8361252c565b9150611f128261288c565b604082019050919050565b6000611f2a602f8361252c565b9150611f35826128db565b604082019050919050565b6000611f4d60358361252c565b9150611f588261292a565b604082019050919050565b6000611f7060458361252c565b9150611f7b82612979565b606082019050919050565b6000611f93604a8361252c565b9150611f9e826129ee565b606082019050919050565b6000611fb6602a8361252c565b9150611fc182612a63565b604082019050919050565b6000611fd9603c8361252c565b9150611fe482612ab2565b604082019050919050565b6000611ffc60328361252c565b915061200782612b01565b604082019050919050565b600061201f602a8361252c565b915061202a82612b50565b604082019050919050565b600061204260438361252c565b915061204d82612b9f565b606082019050919050565b600061206560008361251b565b915061207082612c14565b600082019050919050565b6000612088603b8361252c565b915061209382612c17565b604082019050919050565b60006120ab60288361252c565b91506120b682612c66565b604082019050919050565b60006120ce601f8361252c565b91506120d982612cb5565b602082019050919050565b6120ed81612640565b82525050565b60006020820190506121086000830184611e80565b92915050565b60006020820190506121236000830184611e71565b92915050565b600060408201905061213e6000830185611e71565b61214b60208301846120e4565b9392505050565b600060a0820190506121676000830187611e80565b6121746020830186611e80565b61218160408301856120e4565b61218e6060830184611e8f565b818103608083015261219f81612058565b905095945050505050565b60006040820190506121bf6000830185611e80565b81810360208301526121d18184611e9e565b90509392505050565b60006040820190506121ef6000830185611e80565b6121fc60208301846120e4565b9392505050565b6000602082019050818103600083015261221d8184611e9e565b905092915050565b6000602082019050818103600083015261223e81611ed7565b9050919050565b6000602082019050818103600083015261225e81611efa565b9050919050565b6000602082019050818103600083015261227e81611f1d565b9050919050565b6000602082019050818103600083015261229e81611f40565b9050919050565b600060208201905081810360008301526122be81611f63565b9050919050565b600060208201905081810360008301526122de81611f86565b9050919050565b600060208201905081810360008301526122fe81611fa9565b9050919050565b6000602082019050818103600083015261231e81611fcc565b9050919050565b6000602082019050818103600083015261233e81611fef565b9050919050565b6000602082019050818103600083015261235e81612012565b9050919050565b6000602082019050818103600083015261237e81612035565b9050919050565b6000602082019050818103600083015261239e8161207b565b9050919050565b600060208201905081810360008301526123be8161209e565b9050919050565b600060208201905081810360008301526123de816120c1565b9050919050565b60006020820190506123fa60008301846120e4565b92915050565b600060808201905061241560008301876120e4565b6124226020830186611e80565b61242f6040830185611e80565b61243c60608301846120e4565b95945050505050565b600060608201905061245a60008301866120e4565b6124676020830185611e80565b81810360408301526124798184611e9e565b9050949350505050565b600060608201905061249860008301866120e4565b6124a56020830185611e80565b6124b260408301846120e4565b949350505050565b60006124c46124d5565b90506124d082826126d0565b919050565b6000604051905090565b600067ffffffffffffffff8211156124fa576124f96127d7565b5b61250382612806565b9050602081019050919050565b600081519050919050565b600082825260208201905092915050565b600082825260208201905092915050565b600061254882612640565b915061255383612640565b92508261256357612562612779565b5b828204905092915050565b600061257982612640565b915061258483612640565b9250817fffffffffffffffffffffffffffffffffffffffffffffffffffffffffffffffff04831182151516156125bd576125bc61274a565b5b828202905092915050565b60006125d382612640565b91506125de83612640565b9250828210156125f1576125f061274a565b5b828203905092915050565b600061260782612620565b9050919050565b600061261982612620565b9050919050565b600073ffffffffffffffffffffffffffffffffffffffff82169050919050565b6000819050919050565b600061265582612640565b9050919050565b82818337600083830152505050565b60005b8381101561268957808201518184015260208101905061266e565b83811115612698576000848401525b50505050565b600060028204905060018216806126b657607f821691505b602082108114156126ca576126c96127a8565b5b50919050565b6126d982612806565b810181811067ffffffffffffffff821117156126f8576126f76127d7565b5b80604052505050565b600061270c82612640565b91507fffffffffffffffffffffffffffffffffffffffffffffffffffffffffffffffff82141561273f5761273e61274a565b5b600182019050919050565b7f4e487b7100000000000000000000000000000000000000000000000000000000600052601160045260246000fd5b7f4e487b7100000000000000000000000000000000000000000000000000000000600052601260045260246000fd5b7f4e487b7100000000000000000000000000000000000000000000000000000000600052602260045260246000fd5b7f4e487b7100000000000000000000000000000000000000000000000000000000600052604160045260246000fd5b6000601f19601f8301169050919050565b7f46616e737a6f69644d61726b6574706c6163653a207469636b6574206973206e60008201527f6f7420666f722073616c65206f722041736b696e67207072696365207761732060208201527f6e6f74206d61746368656420696e206d6573736167652076616c75652e000000604082015250565b7f46616e737a6f69644d61726b6574706c6163653a206e6674436f6e747261637460008201527f2063616e6e6f7420626520300000000000000000000000000000000000000000602082015250565b7f46616e737a6f69644d61726b6574706c6163653a204d696e696d756d2061736b60008201527f20697320302e30352065746865722e0000000000000000000000000000000000602082015250565b7f46616e737a6f69644d61726b6574706c6163653a2066656520697320746f6f2060008201527f6c61726765206f6e2063616c63756c6174654665650000000000000000000000602082015250565b7f46616e737a6f69644d61726b6574706c6163653a204f6e6c79206f776e65722060008201527f63616e20636f6e666967757265207468652046616e737a6f69644d61726b657460208201527f706c616365000000000000000000000000000000000000000000000000000000604082015250565b7f46616e737a6f69644d61726b6574706c6163653a204f6e6c7920746865206f7260008201527f67616e697a65722063616e207075626c697368207469636b65747320666f722060208201527f746865206576656e742e00000000000000000000000000000000000000000000604082015250565b7f46616e737a6f69644d61726b6574706c6163653a2053656c6c6572206861732060008201527f6e6f207469636b65742e00000000000000000000000000000000000000000000602082015250565b7f46616e737a6f69644d61726b6574706c6163653a20616d6f756e74206973207460008201527f6f6f20736d616c6c206f6e20746f2063616c63756c6174652066656500000000602082015250565b7f46616e737a6f69644d61726b6574706c6163653a204f6e6c7920746865206e6660008201527f7420636f6e747261637420616c6c6f7765640000000000000000000000000000602082015250565b7f46616e737a6f69644d61726b6574706c6163653a2053656e646572206861732060008201527f6e6f207469636b65742e00000000000000000000000000000000000000000000602082015250565b7f46616e737a6f69644d61726b6574706c6163653a205468652046616e737a6f6960008201527f644d61726b6574706c6163652077617320616c726561647920636f6e6669677560208201527f7265640000000000000000000000000000000000000000000000000000000000604082015250565b50565b7f46616e737a6f69644d61726b6574706c6163653a204f6e6c79206f7267616e6960008201527f7a65722063616e206d6f64696679206576656e74732773207572690000000000602082015250565b7f46616e737a6f69644d61726b6574706c6163653a204e6f6e2d6578697374616e60008201527f74206576656e742e000000000000000000000000000000000000000000000000602082015250565b7f5265656e7472616e637947756172643a207265656e7472616e742063616c6c00600082015250565b612ce7816125fc565b8114612cf257600080fd5b50565b612cfe8161260e565b8114612d0957600080fd5b50565b612d1581612640565b8114612d2057600080fd5b5056fea264697066735822122040306222839517edf17a0f1bdcb1332e6ba853749755e831c5756ce6403c193564736f6c63430008040033",
  "devdoc": {
    "kind": "dev",
    "methods": {},
    "version": 1
  },
  "userdoc": {
    "kind": "user",
    "methods": {},
    "version": 1
  },
  "storageLayout": {
    "storage": [
      {
        "astId": 10,
        "contract": "src/FanszoidMarketplace.sol:FanszoidMarketplace",
        "label": "_status",
        "offset": 0,
        "slot": "0",
        "type": "t_uint256"
      },
      {
        "astId": 9805,
        "contract": "src/FanszoidMarketplace.sol:FanszoidMarketplace",
        "label": "_owner",
        "offset": 0,
        "slot": "1",
        "type": "t_address_payable"
      },
      {
        "astId": 9807,
        "contract": "src/FanszoidMarketplace.sol:FanszoidMarketplace",
        "label": "fansNFTContract",
        "offset": 0,
        "slot": "2",
        "type": "t_address"
      },
      {
        "astId": 9810,
        "contract": "src/FanszoidMarketplace.sol:FanszoidMarketplace",
        "label": "_eventIds",
        "offset": 0,
        "slot": "3",
        "type": "t_struct(Counter)1623_storage"
      },
      {
        "astId": 9831,
        "contract": "src/FanszoidMarketplace.sol:FanszoidMarketplace",
        "label": "events",
        "offset": 0,
        "slot": "4",
        "type": "t_mapping(t_uint256,t_struct(Event)9826_storage)"
      },
      {
        "astId": 9836,
        "contract": "src/FanszoidMarketplace.sol:FanszoidMarketplace",
        "label": "creatorRoyalties",
        "offset": 0,
        "slot": "5",
        "type": "t_mapping(t_uint256,t_struct(CreatorRoyalty)9818_storage)"
      },
      {
        "astId": 9842,
        "contract": "src/FanszoidMarketplace.sol:FanszoidMarketplace",
        "label": "askingPrices",
        "offset": 0,
        "slot": "6",
        "type": "t_mapping(t_address,t_mapping(t_uint256,t_uint256))"
      },
      {
        "astId": 9848,
        "contract": "src/FanszoidMarketplace.sol:FanszoidMarketplace",
        "label": "globalBids",
        "offset": 0,
        "slot": "7",
        "type": "t_mapping(t_address,t_mapping(t_uint256,t_uint256))"
      }
    ],
    "types": {
      "t_address": {
        "encoding": "inplace",
        "label": "address",
        "numberOfBytes": "20"
      },
      "t_address_payable": {
        "encoding": "inplace",
        "label": "address payable",
        "numberOfBytes": "20"
      },
      "t_array(t_uint256)dyn_storage": {
        "base": "t_uint256",
        "encoding": "dynamic_array",
        "label": "uint256[]",
        "numberOfBytes": "32"
      },
      "t_mapping(t_address,t_mapping(t_uint256,t_uint256))": {
        "encoding": "mapping",
        "key": "t_address",
        "label": "mapping(address => mapping(uint256 => uint256))",
        "numberOfBytes": "32",
        "value": "t_mapping(t_uint256,t_uint256)"
      },
      "t_mapping(t_uint256,t_struct(CreatorRoyalty)9818_storage)": {
        "encoding": "mapping",
        "key": "t_uint256",
        "label": "mapping(uint256 => struct FanszoidMarketplace.CreatorRoyalty)",
        "numberOfBytes": "32",
        "value": "t_struct(CreatorRoyalty)9818_storage"
      },
      "t_mapping(t_uint256,t_struct(Event)9826_storage)": {
        "encoding": "mapping",
        "key": "t_uint256",
        "label": "mapping(uint256 => struct FanszoidMarketplace.Event)",
        "numberOfBytes": "32",
        "value": "t_struct(Event)9826_storage"
      },
      "t_mapping(t_uint256,t_uint256)": {
        "encoding": "mapping",
        "key": "t_uint256",
        "label": "mapping(uint256 => uint256)",
        "numberOfBytes": "32",
        "value": "t_uint256"
      },
      "t_string_storage": {
        "encoding": "bytes",
        "label": "string",
        "numberOfBytes": "32"
      },
      "t_struct(Counter)1623_storage": {
        "encoding": "inplace",
        "label": "struct Counters.Counter",
        "members": [
          {
            "astId": 1622,
            "contract": "src/FanszoidMarketplace.sol:FanszoidMarketplace",
            "label": "_value",
            "offset": 0,
            "slot": "0",
            "type": "t_uint256"
          }
        ],
        "numberOfBytes": "32"
      },
      "t_struct(CreatorRoyalty)9818_storage": {
        "encoding": "inplace",
        "label": "struct FanszoidMarketplace.CreatorRoyalty",
        "members": [
          {
            "astId": 9815,
            "contract": "src/FanszoidMarketplace.sol:FanszoidMarketplace",
            "label": "creator",
            "offset": 0,
            "slot": "0",
            "type": "t_address_payable"
          },
          {
            "astId": 9817,
            "contract": "src/FanszoidMarketplace.sol:FanszoidMarketplace",
            "label": "royalty",
            "offset": 0,
            "slot": "1",
            "type": "t_uint256"
          }
        ],
        "numberOfBytes": "64"
      },
      "t_struct(Event)9826_storage": {
        "encoding": "inplace",
        "label": "struct FanszoidMarketplace.Event",
        "members": [
          {
            "astId": 9820,
            "contract": "src/FanszoidMarketplace.sol:FanszoidMarketplace",
            "label": "organizer",
            "offset": 0,
            "slot": "0",
            "type": "t_address"
          },
          {
            "astId": 9823,
            "contract": "src/FanszoidMarketplace.sol:FanszoidMarketplace",
            "label": "ticketIds",
            "offset": 0,
            "slot": "1",
            "type": "t_array(t_uint256)dyn_storage"
          },
          {
            "astId": 9825,
            "contract": "src/FanszoidMarketplace.sol:FanszoidMarketplace",
            "label": "_uri",
            "offset": 0,
            "slot": "2",
            "type": "t_string_storage"
          }
        ],
        "numberOfBytes": "96"
      },
      "t_uint256": {
        "encoding": "inplace",
        "label": "uint256",
        "numberOfBytes": "32"
      }
    }
  }
}