{
  "_format": "hh-sol-artifact-1",
  "contractName": "Marketplace",
  "sourceName": "src/Marketplace.sol",
  "abi": [
    {
      "anonymous": false,
      "inputs": [
        {
          "indexed": false,
          "internalType": "address",
          "name": "seller",
          "type": "address"
        },
        {
          "indexed": false,
          "internalType": "uint256",
          "name": "ticketId",
          "type": "uint256"
        }
      ],
      "name": "AskRemoved",
      "type": "event"
    },
    {
      "anonymous": false,
      "inputs": [
        {
          "indexed": false,
          "internalType": "uint256",
          "name": "ticketId",
          "type": "uint256"
        },
        {
          "indexed": false,
          "internalType": "address",
          "name": "seller",
          "type": "address"
        },
        {
          "indexed": false,
          "internalType": "uint256",
          "name": "ticketPrice",
          "type": "uint256"
        },
        {
          "indexed": false,
          "internalType": "uint256",
          "name": "amount",
          "type": "uint256"
        }
      ],
      "name": "AskSetted",
      "type": "event"
    },
    {
      "anonymous": false,
      "inputs": [
        {
          "indexed": false,
          "internalType": "uint256",
          "name": "eventId",
          "type": "uint256"
        },
        {
          "indexed": false,
          "internalType": "uint256",
          "name": "newRoyalty",
          "type": "uint256"
        }
      ],
      "name": "CreatorRoyaltyModifiedOnEvent",
      "type": "event"
    },
    {
      "anonymous": false,
      "inputs": [
        {
          "indexed": false,
          "internalType": "uint256",
          "name": "ticketId",
          "type": "uint256"
        },
        {
          "indexed": false,
          "internalType": "uint256",
          "name": "newRoyalty",
          "type": "uint256"
        }
      ],
      "name": "CreatorRoyaltyModifiedOnTicket",
      "type": "event"
    },
    {
      "anonymous": false,
      "inputs": [
        {
          "indexed": false,
          "internalType": "uint256",
          "name": "eventId",
          "type": "uint256"
        },
        {
          "indexed": false,
          "internalType": "address",
          "name": "organizer",
          "type": "address"
        },
        {
          "indexed": false,
          "internalType": "string",
          "name": "uri",
          "type": "string"
        }
      ],
      "name": "EventCreated",
      "type": "event"
    },
    {
      "anonymous": false,
      "inputs": [
        {
          "indexed": false,
          "internalType": "uint256",
          "name": "eventId",
          "type": "uint256"
        }
      ],
      "name": "EventDeleted",
      "type": "event"
    },
    {
      "anonymous": false,
      "inputs": [
        {
          "indexed": false,
          "internalType": "uint256",
          "name": "eventId",
          "type": "uint256"
        },
        {
          "indexed": false,
          "internalType": "string",
          "name": "newUri",
          "type": "string"
        }
      ],
      "name": "EventEdited",
      "type": "event"
    },
    {
      "anonymous": false,
      "inputs": [
        {
          "indexed": false,
          "internalType": "uint256",
          "name": "eventId",
          "type": "uint256"
        },
        {
          "indexed": false,
          "internalType": "address",
          "name": "newOwner",
          "type": "address"
        }
      ],
      "name": "EventOwnershipTransferred",
      "type": "event"
    },
    {
      "anonymous": false,
      "inputs": [
        {
          "indexed": true,
          "internalType": "address",
          "name": "previousOwner",
          "type": "address"
        },
        {
          "indexed": true,
          "internalType": "address",
          "name": "newOwner",
          "type": "address"
        }
      ],
      "name": "OwnershipTransferred",
      "type": "event"
    },
    {
      "anonymous": false,
      "inputs": [
        {
          "indexed": false,
          "internalType": "address",
          "name": "account",
          "type": "address"
        }
      ],
      "name": "Paused",
      "type": "event"
    },
    {
      "anonymous": false,
      "inputs": [
        {
          "indexed": false,
          "internalType": "uint256",
          "name": "newRoyalty",
          "type": "uint256"
        }
      ],
      "name": "PrimaryMarketRoyaltyModified",
      "type": "event"
    },
    {
      "anonymous": false,
      "inputs": [
        {
          "indexed": false,
          "internalType": "uint256",
          "name": "eventId",
          "type": "uint256"
        },
        {
          "indexed": false,
          "internalType": "uint256",
          "name": "newRoyalty",
          "type": "uint256"
        }
      ],
      "name": "PrimaryMarketRoyaltyModifiedOnEvent",
      "type": "event"
    },
    {
      "anonymous": false,
      "inputs": [
        {
          "indexed": false,
          "internalType": "uint256",
          "name": "ticketId",
          "type": "uint256"
        },
        {
          "indexed": false,
          "internalType": "uint256",
          "name": "newRoyalty",
          "type": "uint256"
        }
      ],
      "name": "PrimaryMarketRoyaltyModifiedOnTicket",
      "type": "event"
    },
    {
      "anonymous": false,
      "inputs": [
        {
          "indexed": false,
          "internalType": "uint256",
          "name": "newRoyalty",
          "type": "uint256"
        }
      ],
      "name": "SecondaryMarketRoyaltyModified",
      "type": "event"
    },
    {
      "anonymous": false,
      "inputs": [
        {
          "indexed": false,
          "internalType": "uint256",
          "name": "eventId",
          "type": "uint256"
        },
        {
          "indexed": false,
          "internalType": "uint256",
          "name": "newRoyalty",
          "type": "uint256"
        }
      ],
      "name": "SecondaryMarketRoyaltyModifiedOnEvent",
      "type": "event"
    },
    {
      "anonymous": false,
      "inputs": [
        {
          "indexed": false,
          "internalType": "uint256",
          "name": "ticketId",
          "type": "uint256"
        },
        {
          "indexed": false,
          "internalType": "uint256",
          "name": "newRoyalty",
          "type": "uint256"
        }
      ],
      "name": "SecondaryMarketRoyaltyModifiedOnTicket",
      "type": "event"
    },
    {
      "anonymous": false,
      "inputs": [
        {
          "indexed": false,
          "internalType": "uint256",
          "name": "ticketId",
          "type": "uint256"
        },
        {
          "indexed": false,
          "internalType": "address",
          "name": "seller",
          "type": "address"
        },
        {
          "indexed": false,
          "internalType": "address",
          "name": "buyer",
          "type": "address"
        },
        {
          "indexed": false,
          "internalType": "uint256",
          "name": "price",
          "type": "uint256"
        },
        {
          "indexed": false,
          "internalType": "uint256",
          "name": "amount",
          "type": "uint256"
        }
      ],
      "name": "TicketBought",
      "type": "event"
    },
    {
      "anonymous": false,
      "inputs": [
        {
          "indexed": false,
          "internalType": "uint256",
          "name": "eventId",
          "type": "uint256"
        },
        {
          "indexed": false,
          "internalType": "address",
          "name": "owner",
          "type": "address"
        },
        {
          "indexed": false,
          "internalType": "uint256[]",
          "name": "ids",
          "type": "uint256[]"
        },
        {
          "indexed": false,
          "internalType": "uint256[]",
          "name": "amounts",
          "type": "uint256[]"
        }
      ],
      "name": "TicketDeleted",
      "type": "event"
    },
    {
      "anonymous": false,
      "inputs": [
        {
          "indexed": false,
          "internalType": "uint256",
          "name": "ticketId",
          "type": "uint256"
        },
        {
          "indexed": false,
          "internalType": "string",
          "name": "newUri",
          "type": "string"
        }
      ],
      "name": "TicketEdited",
      "type": "event"
    },
    {
      "anonymous": false,
      "inputs": [
        {
          "indexed": false,
          "internalType": "uint256",
          "name": "eventId",
          "type": "uint256"
        },
        {
          "indexed": false,
          "internalType": "address",
          "name": "organizer",
          "type": "address"
        },
        {
          "indexed": false,
          "internalType": "uint256",
          "name": "ticketId",
          "type": "uint256"
        },
        {
          "indexed": false,
          "internalType": "uint256",
          "name": "amount",
          "type": "uint256"
        },
        {
          "indexed": false,
          "internalType": "uint256",
          "name": "price",
          "type": "uint256"
        },
        {
          "indexed": false,
          "internalType": "uint256",
          "name": "creatorRoyalty",
          "type": "uint256"
        },
        {
          "indexed": false,
          "internalType": "uint256",
          "name": "amountToSell",
          "type": "uint256"
        },
        {
          "indexed": false,
          "internalType": "bool",
          "name": "isResellable",
          "type": "bool"
        },
        {
          "indexed": false,
          "internalType": "string",
          "name": "uri",
          "type": "string"
        }
      ],
      "name": "TicketPublished",
      "type": "event"
    },
    {
      "anonymous": false,
      "inputs": [
        {
          "indexed": false,
          "internalType": "address",
          "name": "account",
          "type": "address"
        }
      ],
      "name": "Unpaused",
      "type": "event"
    },
    {
      "inputs": [],
      "name": "HUNDRED_PERCENT",
      "outputs": [
        {
          "internalType": "uint16",
          "name": "",
          "type": "uint16"
        }
      ],
      "stateMutability": "view",
      "type": "function"
    },
    {
      "inputs": [],
      "name": "MAX_TICKET_TYPES",
      "outputs": [
        {
          "internalType": "uint32",
          "name": "",
          "type": "uint32"
        }
      ],
      "stateMutability": "view",
      "type": "function"
    },
    {
      "inputs": [],
      "name": "MINIMUM_ASK",
      "outputs": [
        {
          "internalType": "uint256",
          "name": "",
          "type": "uint256"
        }
      ],
      "stateMutability": "view",
      "type": "function"
    },
    {
      "inputs": [
        {
          "internalType": "uint256",
          "name": "ticketId",
          "type": "uint256"
        },
        {
          "internalType": "address",
          "name": "seller",
          "type": "address"
        },
        {
          "internalType": "uint256",
          "name": "amount",
          "type": "uint256"
        }
      ],
      "name": "buyMarketTicket",
      "outputs": [],
      "stateMutability": "payable",
      "type": "function"
    },
    {
      "inputs": [
        {
          "internalType": "uint256",
          "name": "eventId",
          "type": "uint256"
        },
        {
          "internalType": "address",
          "name": "newOwner",
          "type": "address"
        }
      ],
      "name": "changeEventOwnership",
      "outputs": [],
      "stateMutability": "nonpayable",
      "type": "function"
    },
    {
      "inputs": [
        {
          "internalType": "uint256",
          "name": "ticketId",
          "type": "uint256"
        },
        {
          "internalType": "address",
          "name": "seller",
          "type": "address"
        },
        {
          "internalType": "address",
          "name": "claimer",
          "type": "address"
        }
      ],
      "name": "claimFreeTicket",
      "outputs": [],
      "stateMutability": "nonpayable",
      "type": "function"
    },
    {
      "inputs": [
        {
          "internalType": "string",
          "name": "eventUri",
          "type": "string"
        },
        {
          "internalType": "uint256",
          "name": "ticketTypesCount",
          "type": "uint256"
        },
        {
          "components": [
            {
              "internalType": "uint256",
              "name": "amount",
              "type": "uint256"
            },
            {
              "internalType": "uint256",
              "name": "price",
              "type": "uint256"
            },
            {
              "internalType": "uint256",
              "name": "royalty",
              "type": "uint256"
            },
            {
              "internalType": "uint256",
              "name": "amountToSell",
              "type": "uint256"
            },
            {
              "internalType": "bool",
              "name": "isResellable",
              "type": "bool"
            },
            {
              "internalType": "string",
              "name": "uri",
              "type": "string"
            }
          ],
          "internalType": "struct Marketplace.NewTicketInfo[]",
          "name": "tickets",
          "type": "tuple[]"
        }
      ],
      "name": "createEvent",
      "outputs": [
        {
          "internalType": "uint256",
          "name": "",
          "type": "uint256"
        }
      ],
      "stateMutability": "nonpayable",
      "type": "function"
    },
    {
      "inputs": [
        {
          "internalType": "uint256",
          "name": "eventId",
          "type": "uint256"
        }
      ],
      "name": "deleteEvent",
      "outputs": [],
      "stateMutability": "nonpayable",
      "type": "function"
    },
    {
      "inputs": [
        {
          "internalType": "uint256",
          "name": "ticketId",
          "type": "uint256"
        },
        {
          "internalType": "uint256[]",
          "name": "ids",
          "type": "uint256[]"
        },
        {
          "internalType": "uint256[]",
          "name": "amounts",
          "type": "uint256[]"
        }
      ],
      "name": "deleteTicket",
      "outputs": [],
      "stateMutability": "nonpayable",
      "type": "function"
    },
    {
      "inputs": [],
      "name": "eventAddress",
      "outputs": [
        {
          "internalType": "address",
          "name": "",
          "type": "address"
        }
      ],
      "stateMutability": "view",
      "type": "function"
    },
    {
      "inputs": [
        {
          "internalType": "uint256",
          "name": "",
          "type": "uint256"
        },
        {
          "internalType": "uint256",
          "name": "",
          "type": "uint256"
        }
      ],
      "name": "eventTicket",
      "outputs": [
        {
          "internalType": "uint256",
          "name": "",
          "type": "uint256"
        }
      ],
      "stateMutability": "view",
      "type": "function"
    },
    {
      "inputs": [
        {
          "internalType": "address",
          "name": "_ticketAddress",
          "type": "address"
        },
        {
          "internalType": "address",
          "name": "_eventAddress",
          "type": "address"
        }
      ],
      "name": "initialize",
      "outputs": [],
      "stateMutability": "nonpayable",
      "type": "function"
    },
    {
      "inputs": [
        {
          "internalType": "uint256",
          "name": "eventId",
          "type": "uint256"
        },
        {
          "internalType": "uint256",
          "name": "newCreatorRoyalty",
          "type": "uint256"
        }
      ],
      "name": "modifyCreatorRoyaltyOnEvent",
      "outputs": [],
      "stateMutability": "nonpayable",
      "type": "function"
    },
    {
      "inputs": [
        {
          "internalType": "uint256",
          "name": "ticketId",
          "type": "uint256"
        },
        {
          "internalType": "uint256",
          "name": "newCreatorRoyalty",
          "type": "uint256"
        }
      ],
      "name": "modifyCreatorRoyaltyOnTicket",
      "outputs": [],
      "stateMutability": "nonpayable",
      "type": "function"
    },
    {
      "inputs": [
        {
          "internalType": "uint16",
          "name": "newMarketplaceRoyalty",
          "type": "uint16"
        }
      ],
      "name": "modifyPrimaryMarketplaceRoyalty",
      "outputs": [],
      "stateMutability": "nonpayable",
      "type": "function"
    },
    {
      "inputs": [
        {
          "internalType": "uint256",
          "name": "eventId",
          "type": "uint256"
        },
        {
          "internalType": "uint256",
          "name": "newMarketplaceRoyalty",
          "type": "uint256"
        }
      ],
      "name": "modifyPrimaryMarketplaceRoyaltyOnEvent",
      "outputs": [],
      "stateMutability": "nonpayable",
      "type": "function"
    },
    {
      "inputs": [
        {
          "internalType": "uint256",
          "name": "ticketId",
          "type": "uint256"
        },
        {
          "internalType": "uint256",
          "name": "newMarketplaceRoyalty",
          "type": "uint256"
        }
      ],
      "name": "modifyPrimaryMarketplaceRoyaltyOnTicket",
      "outputs": [],
      "stateMutability": "nonpayable",
      "type": "function"
    },
    {
      "inputs": [
        {
          "internalType": "uint16",
          "name": "newMarketplaceRoyalty",
          "type": "uint16"
        }
      ],
      "name": "modifySecondaryMarketplaceRoyalty",
      "outputs": [],
      "stateMutability": "nonpayable",
      "type": "function"
    },
    {
      "inputs": [
        {
          "internalType": "uint256",
          "name": "eventId",
          "type": "uint256"
        },
        {
          "internalType": "uint256",
          "name": "newMarketplaceRoyalty",
          "type": "uint256"
        }
      ],
      "name": "modifySecondaryMarketplaceRoyaltyOnEvent",
      "outputs": [],
      "stateMutability": "nonpayable",
      "type": "function"
    },
    {
      "inputs": [
        {
          "internalType": "uint256",
          "name": "ticketId",
          "type": "uint256"
        },
        {
          "internalType": "uint256",
          "name": "newMarketplaceRoyalty",
          "type": "uint256"
        }
      ],
      "name": "modifySecondaryMarketplaceRoyaltyOnTicket",
      "outputs": [],
      "stateMutability": "nonpayable",
      "type": "function"
    },
    {
      "inputs": [],
      "name": "owner",
      "outputs": [
        {
          "internalType": "address",
          "name": "",
          "type": "address"
        }
      ],
      "stateMutability": "view",
      "type": "function"
    },
    {
      "inputs": [],
      "name": "pause",
      "outputs": [],
      "stateMutability": "nonpayable",
      "type": "function"
    },
    {
      "inputs": [],
      "name": "paused",
      "outputs": [
        {
          "internalType": "bool",
          "name": "",
          "type": "bool"
        }
      ],
      "stateMutability": "view",
      "type": "function"
    },
    {
      "inputs": [],
      "name": "primaryMarketplaceRoyalty",
      "outputs": [
        {
          "internalType": "uint16",
          "name": "",
          "type": "uint16"
        }
      ],
      "stateMutability": "view",
      "type": "function"
    },
    {
      "inputs": [
        {
          "internalType": "uint256",
          "name": "eventId",
          "type": "uint256"
        },
        {
          "internalType": "uint256",
          "name": "ticketTypesCount",
          "type": "uint256"
        },
        {
          "components": [
            {
              "internalType": "uint256",
              "name": "amount",
              "type": "uint256"
            },
            {
              "internalType": "uint256",
              "name": "price",
              "type": "uint256"
            },
            {
              "internalType": "uint256",
              "name": "royalty",
              "type": "uint256"
            },
            {
              "internalType": "uint256",
              "name": "amountToSell",
              "type": "uint256"
            },
            {
              "internalType": "bool",
              "name": "isResellable",
              "type": "bool"
            },
            {
              "internalType": "string",
              "name": "uri",
              "type": "string"
            }
          ],
          "internalType": "struct Marketplace.NewTicketInfo[]",
          "name": "tickets",
          "type": "tuple[]"
        }
      ],
      "name": "publishTickets",
      "outputs": [
        {
          "internalType": "uint256[]",
          "name": "ticketIds",
          "type": "uint256[]"
        }
      ],
      "stateMutability": "nonpayable",
      "type": "function"
    },
    {
      "inputs": [
        {
          "internalType": "uint256",
          "name": "ticketId",
          "type": "uint256"
        }
      ],
      "name": "removeAsk",
      "outputs": [],
      "stateMutability": "nonpayable",
      "type": "function"
    },
    {
      "inputs": [],
      "name": "renounceOwnership",
      "outputs": [],
      "stateMutability": "nonpayable",
      "type": "function"
    },
    {
      "inputs": [],
      "name": "secondaryMarketplaceRoyalty",
      "outputs": [
        {
          "internalType": "uint16",
          "name": "",
          "type": "uint16"
        }
      ],
      "stateMutability": "view",
      "type": "function"
    },
    {
      "inputs": [
        {
          "internalType": "address",
          "name": "",
          "type": "address"
        },
        {
          "internalType": "uint256",
          "name": "",
          "type": "uint256"
        }
      ],
      "name": "sellingInfo",
      "outputs": [
        {
          "internalType": "uint256",
          "name": "amount",
          "type": "uint256"
        },
        {
          "internalType": "uint256",
          "name": "price",
          "type": "uint256"
        }
      ],
      "stateMutability": "view",
      "type": "function"
    },
    {
      "inputs": [
        {
          "internalType": "uint256",
          "name": "ticketId",
          "type": "uint256"
        },
        {
          "internalType": "uint256",
          "name": "ticketPrice",
          "type": "uint256"
        },
        {
          "internalType": "uint256",
          "name": "amount",
          "type": "uint256"
        }
      ],
      "name": "setAsk",
      "outputs": [],
      "stateMutability": "nonpayable",
      "type": "function"
    },
    {
      "inputs": [
        {
          "internalType": "uint256",
          "name": "eventId",
          "type": "uint256"
        },
        {
          "internalType": "string",
          "name": "newUri",
          "type": "string"
        }
      ],
      "name": "setEventUri",
      "outputs": [],
      "stateMutability": "nonpayable",
      "type": "function"
    },
    {
      "inputs": [
        {
          "internalType": "uint256",
          "name": "ticketId",
          "type": "uint256"
        },
        {
          "internalType": "string",
          "name": "newUri",
          "type": "string"
        }
      ],
      "name": "setTicketUri",
      "outputs": [],
      "stateMutability": "nonpayable",
      "type": "function"
    },
    {
      "inputs": [],
      "name": "ticketAddress",
      "outputs": [
        {
          "internalType": "address",
          "name": "",
          "type": "address"
        }
      ],
      "stateMutability": "view",
      "type": "function"
    },
    {
      "inputs": [
        {
          "internalType": "uint256",
          "name": "",
          "type": "uint256"
        }
      ],
      "name": "ticketsProperties",
      "outputs": [
        {
          "internalType": "uint256",
          "name": "creatorRoyalty",
          "type": "uint256"
        },
        {
          "internalType": "uint256",
          "name": "primaryMarketRoyalty",
          "type": "uint256"
        },
        {
          "internalType": "uint256",
          "name": "secondaryMarketRoyalty",
          "type": "uint256"
        },
        {
          "internalType": "address",
          "name": "creator",
          "type": "address"
        },
        {
          "internalType": "bool",
          "name": "isResellable",
          "type": "bool"
        }
      ],
      "stateMutability": "view",
      "type": "function"
    },
    {
      "inputs": [
        {
          "internalType": "address",
          "name": "newOwner",
          "type": "address"
        }
      ],
      "name": "transferOwnership",
      "outputs": [],
      "stateMutability": "nonpayable",
      "type": "function"
    },
    {
      "inputs": [],
      "name": "unpause",
      "outputs": [],
      "stateMutability": "nonpayable",
      "type": "function"
    }
  ],
  "bytecode": "0x608060405234801561001057600080fd5b50614184806100206000396000f3fe60806040526004361061020f5760003560e01c806376fb088511610118578063b13eb659116100a0578063e8f0f5801161006f578063e8f0f580146106ac578063e9e2bde6146106cc578063f2fde38b146106ec578063f8749a581461070c578063fad567791461072c57600080fd5b8063b13eb659146105b7578063d411a7c7146105d7578063d555ab04146105f7578063e5ff180e1461062257600080fd5b80638f5a5ab8116100e75780638f5a5ab8146104d55780639717bdcd14610529578063a696ac7b14610549578063a8047ea91461056a578063aa9d063b1461059757600080fd5b806376fb088514610462578063828a8615146104825780638456cb59146104a25780638da5cb5b146104b757600080fd5b806355e2b7931161019b5780635d080ba61161016a5780635d080ba6146103e15780636ed93dd0146103f7578063715018a61461040d57806373e988d01461042257806375ba13ed1461044257600080fd5b806355e2b7931461033f57806357a8e3fe1461035f5780635c975abb1461039e5780635ca1c659146103c157600080fd5b80633aa2669a116101e25780633aa2669a146102a95780633f4ba83a146102d757806343c5a544146102ec578063485cc955146102ff5780634c88afe41461031f57600080fd5b80630838fa3d146102145780630ba7edf914610236578063159e82131461026957806328220f3514610289575b600080fd5b34801561022057600080fd5b5061023461022f3660046136df565b61074c565b005b34801561024257600080fd5b5060c9546102519061ffff1681565b60405161ffff90911681526020015b60405180910390f35b34801561027557600080fd5b506102346102843660046137c8565b61082f565b34801561029557600080fd5b506102346102a4366004613835565b610a0a565b3480156102b557600080fd5b506102c96102c43660046136df565b610b48565b604051908152602001610260565b3480156102e357600080fd5b50610234610b79565b6102346102fa366004613863565b610bad565b34801561030b57600080fd5b5061023461031a36600461389b565b6110fd565b34801561032b57600080fd5b5061023461033a3660046138d4565b611217565b34801561034b57600080fd5b5061023461035a3660046138f8565b6112b2565b34801561036b57600080fd5b5060c95461038690600160201b90046001600160a01b031681565b6040516001600160a01b039091168152602001610260565b3480156103aa57600080fd5b5060655460ff166040519015158152602001610260565b3480156103cd57600080fd5b506102346103dc3660046138d4565b61142c565b3480156103ed57600080fd5b506102c961271081565b34801561040357600080fd5b5061025161271081565b34801561041957600080fd5b506102346114bd565b34801561042e57600080fd5b5061023461043d366004613974565b6114f1565b34801561044e57600080fd5b5061023461045d3660046136df565b611869565b34801561046e57600080fd5b5061023461047d3660046139b6565b6119fd565b34801561048e57600080fd5b5061023461049d3660046136df565b611c03565b3480156104ae57600080fd5b50610234611d97565b3480156104c357600080fd5b506033546001600160a01b0316610386565b3480156104e157600080fd5b506105146104f03660046139e2565b60cd6020908152600092835260408084209091529082529020805460019091015482565b60408051928352602083019190915201610260565b34801561053557600080fd5b506102c9610544366004613a5a565b611dc9565b34801561055557600080fd5b5060c9546102519062010000900461ffff1681565b34801561057657600080fd5b5061058a610585366004613b1e565b611f57565b6040516102609190613ba0565b3480156105a357600080fd5b506102346105b23660046136df565b6129c6565b3480156105c357600080fd5b506102346105d2366004613bb3565b612ad4565b3480156105e357600080fd5b506102346105f23660046136df565b612b99565b34801561060357600080fd5b5061060d61012c81565b60405163ffffffff9091168152602001610260565b34801561062e57600080fd5b5061067961063d366004613835565b60cc602052600090815260409020805460018201546002830154600390930154919290916001600160a01b03811690600160a01b900460ff1685565b604080519586526020860194909452928401919091526001600160a01b031660608301521515608082015260a001610260565b3480156106b857600080fd5b506102346106c73660046138f8565b612dc5565b3480156106d857600080fd5b506102346106e73660046136df565b612f95565b3480156106f857600080fd5b50610234610707366004613bd8565b613067565b34801561071857600080fd5b50610234610727366004613835565b613102565b34801561073857600080fd5b5060ca54610386906001600160a01b031681565b6033546001600160a01b0316331461077f5760405162461bcd60e51b815260040161077690613bf5565b60405180910390fd5b60655460ff16156107a25760405162461bcd60e51b815260040161077690613c2a565b600082815260cc60205260409020546107bd90612710613c6a565b8111156107dc5760405162461bcd60e51b815260040161077690613c81565b600082815260cc602090815260409182902060020183905581518481529081018390527f84e71f7023ae590f3bab8208ff1d33cf3a448db9257564172862655f7d36c1a591015b60405180910390a15050565b60655460ff16156108525760405162461bcd60e51b815260040161077690613c2a565b600083815260cc602052604090206003015483906001600160a01b03163314806108ee5750336001600160a01b0316306001600160a01b0316638da5cb5b6040518163ffffffff1660e01b8152600401602060405180830381865afa1580156108bf573d6000803e3d6000fd5b505050506040513d601f19601f820116820180604052508101906108e39190613ca6565b6001600160a01b0316145b61090a5760405162461bcd60e51b815260040161077690613cc3565b815183511461095b5760405162461bcd60e51b815260206004820152601f60248201527f49647320616e6420616d6f756e747320636f756e74206d69736d617463682e006044820152606401610776565b60c954604051631ac8311560e21b8152600160201b9091046001600160a01b031690636b20c4549061099590339087908790600401613ce9565b600060405180830381600087803b1580156109af57600080fd5b505af11580156109c3573d6000803e3d6000fd5b505050507fe72b601ab8f09daf8839bee1eca025771a89eabc489f498a7b40920bb31d5bd2843385856040516109fc9493929190613d29565b60405180910390a150505050565b60655460ff1615610a2d5760405162461bcd60e51b815260040161077690613c2a565b60c954604051627eeac760e11b815233600482015260248101839052600091600160201b90046001600160a01b03169062fdd58e90604401602060405180830381865afa158015610a82573d6000803e3d6000fd5b505050506040513d601f19601f82011682018060405250810190610aa69190613d65565b11610aeb5760405162461bcd60e51b815260206004820152601560248201527429b2b73232b9103430b9903737903a34b1b5b2ba1760591b6044820152606401610776565b33600081815260cd60209081526040808320858452825280832083815560010192909255815192835282018390527f1f2fa6bb5353160dec9640945a0fbf286bda8907835ad6b88dc06ff271382fc091015b60405180910390a150565b60cb6020528160005260406000208181548110610b6457600080fd5b90600052602060002001600091509150505481565b6033546001600160a01b03163314610ba35760405162461bcd60e51b815260040161077690613bf5565b610bab6132df565b565b60655460ff1615610bd05760405162461bcd60e51b815260040161077690613c2a565b60026097541415610c235760405162461bcd60e51b815260206004820152601f60248201527f5265656e7472616e637947756172643a207265656e7472616e742063616c6c006044820152606401610776565b600260975560c954604051627eeac760e11b81526001600160a01b038481166004830152602482018690528392600160201b9004169062fdd58e90604401602060405180830381865afa158015610c7e573d6000803e3d6000fd5b505050506040513d601f19601f82011682018060405250810190610ca29190613d65565b1015610cf05760405162461bcd60e51b815260206004820152601d60248201527f53656c6c657220686173206e6f7420656e6f756768207469636b65742e0000006044820152606401610776565b6001600160a01b038216600090815260cd60209081526040808320868452909152902054811115610d635760405162461bcd60e51b815260206004820152601a60248201527f4e6f7420656e6f756768207469636b657420666f722073616c650000000000006044820152606401610776565b6001600160a01b038216600090815260cd60209081526040808320868452909152902060010154610d949082613d7e565b3414610de25760405162461bcd60e51b815260206004820152601a60248201527f56616c756520646f6573206e6f74206d617463682070726963650000000000006044820152606401610776565b336001600160a01b0383161415610e3b5760405162461bcd60e51b815260206004820152601e60248201527f596f752063616e6e6f742062757920796f7572206f776e207469636b657400006044820152606401610776565b6001600160a01b03808316600090815260cd6020908152604080832087845282528083206001015460cc909252918290206003015460c9549251637921219560e11b8152919390811692600160201b9004169063f242432a90610ea890879033908a908990600401613d9d565b600060405180830381600087803b158015610ec257600080fd5b505af1158015610ed6573d6000803e3d6000fd5b505050506001600160a01b038416600090815260cd6020908152604080832088845290915281208054859290610f0d908490613c6a565b9091555047905082610f6e5783600114610f695760405162461bcd60e51b815260206004820152601c60248201527f43616e206f6e6c7920627579206f6e652066726565207469636b6574000000006044820152606401610776565b611083565b816001600160a01b0316856001600160a01b03161415610fee57600086815260cc6020526040812060010154610fa5908590613372565b90506000610fb38286613c6a565b9050610fc884610fc38884613d7e565b613392565b610fe7610fdd6033546001600160a01b031690565b610fc38489613d7e565b5050611083565b600086815260cc602052604081206002015461100b908590613372565b600088815260cc602052604081205491925090611029908690613372565b90506000816110388488613c6a565b6110429190613c6a565b905061105288610fc38984613d7e565b61106085610fc38985613d7e565b61107f6110756033546001600160a01b031690565b610fc38986613d7e565b5050505b3461108e4783613c6a565b1461109b5761109b613dd5565b604080518781526001600160a01b03871660208201523381830152606081018590526080810186905290517f59ef6c251d20f15e60164e5032dc81900d28bf7e44d7767fec8681019700b1299181900360a00190a15050600160975550505050565b600054610100900460ff166111185760005460ff161561111c565b303b155b61117f5760405162461bcd60e51b815260206004820152602e60248201527f496e697469616c697a61626c653a20636f6e747261637420697320616c72656160448201526d191e481a5b9a5d1a585b1a5e995960921b6064820152608401610776565b600054610100900460ff161580156111a1576000805461ffff19166101011790555b60c980546001600160a01b03808616600160201b026001600160c01b0319909216919091176302ee05dc1790915560ca80549184166001600160a01b03199092169190911790556111f061343a565b6111f8613469565b611200613498565b8015611212576000805461ff00191690555b505050565b6033546001600160a01b031633146112415760405162461bcd60e51b815260040161077690613bf5565b60655460ff16156112645760405162461bcd60e51b815260040161077690613c2a565b60c9805463ffff000019166201000061ffff8416908102919091179091556040519081527fbe506fe4f6285e680de20e9c021ddfae052ca462d3ca93429e3e3aac5ad8980390602001610b3d565b60655460ff16156112d55760405162461bcd60e51b815260040161077690613c2a565b600083815260cc602052604090206003015483906001600160a01b03163314806113715750336001600160a01b0316306001600160a01b0316638da5cb5b6040518163ffffffff1660e01b8152600401602060405180830381865afa158015611342573d6000803e3d6000fd5b505050506040513d601f19601f820116820180604052508101906113669190613ca6565b6001600160a01b0316145b61138d5760405162461bcd60e51b815260040161077690613cc3565b60c954604051633c17845760e11b8152600160201b9091046001600160a01b03169063782f08ae906113c790879087908790600401613deb565b600060405180830381600087803b1580156113e157600080fd5b505af11580156113f5573d6000803e3d6000fd5b505050507f755f9c78a46ac246d9eae160b9d066581ba2eae69b9b2fb7d5e14d160339cd078484846040516109fc93929190613deb565b6033546001600160a01b031633146114565760405162461bcd60e51b815260040161077690613bf5565b60655460ff16156114795760405162461bcd60e51b815260040161077690613c2a565b60c9805461ffff191661ffff83169081179091556040519081527f89ca5fa36586def428993c4a97cf7eea1a13531071f301bb5f1398008da9d3bc90602001610b3d565b6033546001600160a01b031633146114e75760405162461bcd60e51b815260040161077690613bf5565b610bab60006134c7565b60c954604051627eeac760e11b81526001600160a01b03848116600483015260248201869052600192600160201b9004169062fdd58e90604401602060405180830381865afa158015611548573d6000803e3d6000fd5b505050506040513d601f19601f8201168201806040525081019061156c9190613d65565b10156115ba5760405162461bcd60e51b815260206004820152601e60248201527f53656c6c657220686173206e6f7420656e6f756768207469636b6574732e00006044820152606401610776565b60c954604051627eeac760e11b81526001600160a01b03838116600483015260248201869052600160201b9092049091169062fdd58e90604401602060405180830381865afa158015611611573d6000803e3d6000fd5b505050506040513d601f19601f820116820180604052508101906116359190613d65565b156116825760405162461bcd60e51b815260206004820152601f60248201527f436c61696d657220616c726561647920686173206f6e65207469636b65742e006044820152606401610776565b6001600160a01b038216600090815260cd60209081526040808320868452909152902060010154156116ec5760405162461bcd60e51b81526020600482015260136024820152722a34b1b5b2ba1034b9903737ba10333932b29760691b6044820152606401610776565b6001600160a01b038216600090815260cd60209081526040808320868452909152902054600111156117605760405162461bcd60e51b815260206004820152601c60248201527f4e6f7420656e6f756768207469636b65747320666f7220636c61696d000000006044820152606401610776565b60c954604051637921219560e11b8152600160201b9091046001600160a01b03169063f242432a9061179d90859085908890600190600401613d9d565b600060405180830381600087803b1580156117b757600080fd5b505af11580156117cb573d6000803e3d6000fd5b505050506001600160a01b038216600090815260cd602090815260408083208684529091528120805460019290611803908490613c6a565b9091555050604080518481526001600160a01b03808516602083015283169181019190915260006060820152600160808201527f59ef6c251d20f15e60164e5032dc81900d28bf7e44d7767fec8681019700b1299060a0015b60405180910390a1505050565b6033546001600160a01b031633146118935760405162461bcd60e51b815260040161077690613bf5565b60655460ff16156118b65760405162461bcd60e51b815260040161077690613c2a565b600082815260cb602090815260408083208054825181850281018501909352808352919290919083018282801561190c57602002820191906000526020600020905b8154815260200190600101908083116118f8575b5050505050905060005b81518110156119c65760cc600083838151811061193557611935613e21565b602002602001015181526020019081526020016000206000015461271061ffff166119609190613c6a565b83111561197f5760405162461bcd60e51b815260040161077690613c81565b8260cc600084848151811061199657611996613e21565b602002602001015181526020019081526020016000206001018190555080806119be90613e37565b915050611916565b5060408051848152602081018490527f62407afae477b89fc8c3117bb9cac6508997317779c88bafc44a39ce69087534910161185c565b60655460ff1615611a205760405162461bcd60e51b815260040161077690613c2a565b612710821015611a695760405162461bcd60e51b8152602060048201526014602482015273283934b1b2903132b637bb9036b4b734b6bab69760611b6044820152606401610776565b60c954604051627eeac760e11b815233600482015260248101859052600091600160201b90046001600160a01b03169062fdd58e90604401602060405180830381865afa158015611abe573d6000803e3d6000fd5b505050506040513d601f19601f82011682018060405250810190611ae29190613d65565b11611b2f5760405162461bcd60e51b815260206004820152601c60248201527f53656e64657220646f6573206e6f742068617665207469636b65742e000000006044820152606401610776565b600083815260cc6020526040902060030154600160a01b900460ff161515600114611b9c5760405162461bcd60e51b815260206004820152601960248201527f5469636b6574206973206e6f7420726573656c6c61626c652e000000000000006044820152606401610776565b33600081815260cd60209081526040808320878452825291829020600181018690558490558151868152908101929092528101839052606081018290527f8ec7d10a665f515f3ad661c546d2be60646cad45663216169480028e51659e839060800161185c565b6033546001600160a01b03163314611c2d5760405162461bcd60e51b815260040161077690613bf5565b60655460ff1615611c505760405162461bcd60e51b815260040161077690613c2a565b600082815260cb6020908152604080832080548251818502810185019093528083529192909190830182828015611ca657602002820191906000526020600020905b815481526020019060010190808311611c92575b5050505050905060005b8151811015611d605760cc6000838381518110611ccf57611ccf613e21565b602002602001015181526020019081526020016000206000015461271061ffff16611cfa9190613c6a565b831115611d195760405162461bcd60e51b815260040161077690613c81565b8260cc6000848481518110611d3057611d30613e21565b60200260200101518152602001908152602001600020600201819055508080611d5890613e37565b915050611cb0565b5060408051848152602081018490527fc507616634d6a9a3a4cb4e5ef4b5eb461bc3c833f00d366a32d224204077df77910161185c565b6033546001600160a01b03163314611dc15760405162461bcd60e51b815260040161077690613bf5565b610bab613519565b6000611dd760655460ff1690565b15611df45760405162461bcd60e51b815260040161077690613c2a565b61012c841115611e3f5760405162461bcd60e51b8152602060048201526016602482015275546f6f206d756368207469636b65742074797065732160501b6044820152606401610776565b838214611e875760405162461bcd60e51b81526020600482015260166024820152755469636b657420636f756e74206d69736d617463682160501b6044820152606401610776565b60ca54604051636902622f60e11b81526000916001600160a01b03169063d204c45e90611eba9033908a90600401613e9f565b6020604051808303816000875af1158015611ed9573d6000803e3d6000fd5b505050506040513d601f19601f82011682018060405250810190611efd9190613d65565b90507ffc695dea2478fb938a11068aeedddd7046a5fe655f136e30a325d353fe187a45813388604051611f3293929190613ecb565b60405180910390a18415611f4e57611f4c81868686611f57565b505b95945050505050565b6060611f6560655460ff1690565b15611f825760405162461bcd60e51b815260040161077690613c2a565b60026097541415611fd55760405162461bcd60e51b815260206004820152601f60248201527f5265656e7472616e637947756172643a207265656e7472616e742063616c6c006044820152606401610776565b600260975560ca546040516331a9108f60e11b81526004810187905233916001600160a01b031690636352211e90602401602060405180830381865afa158015612023573d6000803e3d6000fd5b505050506040513d601f19601f820116820180604052508101906120479190613ca6565b6001600160a01b03161461206d5760405162461bcd60e51b815260040161077690613cc3565b600085815260cb602052604090205461012c9061208a9086613ef5565b11156120d15760405162461bcd60e51b8152602060048201526016602482015275546f6f206d756368207469636b65742074797065732160501b6044820152606401610776565b8382146121195760405162461bcd60e51b81526020600482015260166024820152755469636b657420636f756e74206d69736d617463682160501b6044820152606401610776565b60008467ffffffffffffffff81111561213457612134613701565b60405190808252806020026020018201604052801561215d578160200160208202803683370190505b50905060008567ffffffffffffffff81111561217b5761217b613701565b6040519080825280602002602001820160405280156121a4578160200160208202803683370190505b50905060008667ffffffffffffffff8111156121c2576121c2613701565b6040519080825280602002602001820160405280156121f557816020015b60608152602001906001900390816121e05790505b50905060005b878160ff16101561277b5760c95461221f9062010000900461ffff16612710613f0d565b61ffff1687878360ff1681811061223857612238613e21565b905060200281019061224a9190613f30565b60400135111561229c5760405162461bcd60e51b815260206004820181905260248201527f43726561746f7220726f79616c74792061626f766520746865206c696d69742e6044820152606401610776565b86868260ff168181106122b1576122b1613e21565b90506020028101906122c39190613f30565b6020013515806122ff575061271087878360ff168181106122e6576122e6613e21565b90506020028101906122f89190613f30565b6020013510155b61234b5760405162461bcd60e51b815260206004820152601b60248201527f41736b696e672070726963652062656c6f77206d696e696d756d2e00000000006044820152606401610776565b86868260ff1681811061236057612360613e21565b90506020028101906123729190613f30565b35878760ff841681811061238857612388613e21565b905060200281019061239a9190613f30565b6060013511156123ec5760405162461bcd60e51b815260206004820152601b60248201527f416d6f756e7420746f2073656c6c20697320746f6f20686967682e00000000006044820152606401610776565b86868260ff1681811061240157612401613e21565b90506020028101906124139190613f30565b6124249060a0810190608001613f50565b1515600114156124a55786868260ff1681811061244357612443613e21565b90506020028101906124559190613f30565b602001356124a55760405162461bcd60e51b815260206004820152601860248201527f4672656520617265206e6f7420726573656c6c61626c652e00000000000000006044820152606401610776565b6124b360ce80546001019055565b60006124be60ce5490565b90506040518060a0016040528089898560ff168181106124e0576124e0613e21565b90506020028101906124f29190613f30565b604090810135825260c95461ffff8082166020850152620100009091041690820152336060820152608001898960ff861681811061253257612532613e21565b90506020028101906125449190613f30565b6125559060a0810190608001613f50565b15159052600082815260cc6020908152604091829020835181559083015160018201558282015160028201556060830151600390910180546080909401511515600160a01b026001600160a81b03199094166001600160a01b039092169190911792909217909155805180820190915280898960ff86168181106125db576125db613e21565b90506020028101906125ed9190613f30565b60600135815260200189898560ff1681811061260b5761260b613e21565b905060200281019061261d9190613f30565b60209081013590915233600090815260cd82526040808220858352835290208251815591015160019091015584518190869060ff851690811061266257612662613e21565b60209081029190910181019190915260008b815260cb825260408120805460018101825590825291902001819055878760ff84168181106126a5576126a5613e21565b90506020028101906126b79190613f30565b60000135848360ff16815181106126d0576126d0613e21565b60200260200101818152505087878360ff168181106126f1576126f1613e21565b90506020028101906127039190613f30565b6127119060a0810190613f72565b8080601f01602080910402602001604051908101604052809392919081815260200183838082843760009201919091525050855186925060ff86169150811061275c5761275c613e21565b602002602001018190525050808061277390613fb9565b9150506121fb565b5060c954604051632e55c7a160e21b8152600160201b9091046001600160a01b03169063b9571e84906127b8903390879087908790600401613fd9565b600060405180830381600087803b1580156127d257600080fd5b505af11580156127e6573d6000803e3d6000fd5b5050505060005b878160ff16101561295a577fa9065510430a99df38e611390fd55c195efcb72c24db21d0080a482c8cb1829a8933868460ff168151811061283057612830613e21565b6020026020010151868560ff168151811061284d5761284d613e21565b60200260200101518b8b8760ff1681811061286a5761286a613e21565b905060200281019061287c9190613f30565b602001358c8c8860ff1681811061289557612895613e21565b90506020028101906128a79190613f30565b604001358d8d8960ff168181106128c0576128c0613e21565b90506020028101906128d29190613f30565b606001358e8e8a60ff168181106128eb576128eb613e21565b90506020028101906128fd9190613f30565b61290e9060a0810190608001613f50565b8a8a60ff168151811061292357612923613e21565b602002602001015160405161294099989796959493929190614082565b60405180910390a18061295281613fb9565b9150506127ed565b50600088815260cb6020908152604091829020805483518184028101840190945280845290918301828280156129af57602002820191906000526020600020905b81548152602001906001019080831161299b575b505050505093505050506001609755949350505050565b600082815260cc602052604090206003015482906001600160a01b03163314612a2c5760405162461bcd60e51b81526020600482015260186024820152774f6e6c792063726561746f7220697320616c6c6f7765642160401b6044820152606401610776565b60655460ff1615612a4f5760405162461bcd60e51b815260040161077690613c2a565b600083815260cc6020526040902060020154612a6d90612710613c6a565b821115612a8c5760405162461bcd60e51b815260040161077690613c81565b600083815260cc602090815260409182902084905581518581529081018490527fdc8db095897df5851484b49549ae8038c8fcc707cd3d5c973fc92d596391d6d6910161185c565b60655460ff1615612af75760405162461bcd60e51b815260040161077690613c2a565b60ca546001600160a01b03163314612b515760405162461bcd60e51b815260206004820152601f60248201527f4f6e6c79204576656e7420636f6e747261637420697320616c6c6f77656421006044820152606401610776565b612b5b8282613571565b604080518381526001600160a01b03831660208201527f74a10ab8b8106921a945137cc7bc5007a2618bbefe949f1e11e04fd07d59c26b9101610823565b60ca546040516331a9108f60e11b815260048101849052839133916001600160a01b0390911690636352211e90602401602060405180830381865afa158015612be6573d6000803e3d6000fd5b505050506040513d601f19601f82011682018060405250810190612c0a9190613ca6565b6001600160a01b031614612c5b5760405162461bcd60e51b81526020600482015260186024820152774f6e6c792063726561746f7220697320616c6c6f7765642160401b6044820152606401610776565b60655460ff1615612c7e5760405162461bcd60e51b815260040161077690613c2a565b600083815260cb6020908152604080832080548251818502810185019093528083529192909190830182828015612cd457602002820191906000526020600020905b815481526020019060010190808311612cc0575b5050505050905060005b8151811015612d8e5760cc6000838381518110612cfd57612cfd613e21565b602002602001015181526020019081526020016000206002015461271061ffff16612d289190613c6a565b841115612d475760405162461bcd60e51b815260040161077690613c81565b8360cc6000848481518110612d5e57612d5e613e21565b60200260200101518152602001908152602001600020600001819055508080612d8690613e37565b915050612cde565b5060408051858152602081018590527fc5bac6c600b65335a8baf4b0b32ed562307c63b916100134eea3629abae2042a91016109fc565b60655460ff1615612de85760405162461bcd60e51b815260040161077690613c2a565b60ca546040516331a9108f60e11b815260048101859052849133916001600160a01b0390911690636352211e90602401602060405180830381865afa158015612e35573d6000803e3d6000fd5b505050506040513d601f19601f82011682018060405250810190612e599190613ca6565b6001600160a01b03161480612ee05750336001600160a01b0316306001600160a01b0316638da5cb5b6040518163ffffffff1660e01b8152600401602060405180830381865afa158015612eb1573d6000803e3d6000fd5b505050506040513d601f19601f82011682018060405250810190612ed59190613ca6565b6001600160a01b0316145b612efc5760405162461bcd60e51b815260040161077690613cc3565b60ca54604051630588253160e21b81526001600160a01b039091169063162094c490612f3090879087908790600401613deb565b600060405180830381600087803b158015612f4a57600080fd5b505af1158015612f5e573d6000803e3d6000fd5b505050507f9f94ecc1e535a2ab156118309c2a92f77a424118d09ee982536ede8604d435798484846040516109fc93929190613deb565b6033546001600160a01b03163314612fbf5760405162461bcd60e51b815260040161077690613bf5565b60655460ff1615612fe25760405162461bcd60e51b815260040161077690613c2a565b600082815260cc6020526040902054612ffd90612710613c6a565b81111561301c5760405162461bcd60e51b815260040161077690613c81565b600082815260cc602090815260409182902060010183905581518481529081018390527f4ec5fda4d8c717377da927e0c4da7889152921b135d54cbd305a6b96c030f0b29101610823565b6033546001600160a01b031633146130915760405162461bcd60e51b815260040161077690613bf5565b6001600160a01b0381166130f65760405162461bcd60e51b815260206004820152602660248201527f4f776e61626c653a206e6577206f776e657220697320746865207a65726f206160448201526564647265737360d01b6064820152608401610776565b6130ff816134c7565b50565b60655460ff16156131255760405162461bcd60e51b815260040161077690613c2a565b60ca546040516331a9108f60e11b815260048101839052829133916001600160a01b0390911690636352211e90602401602060405180830381865afa158015613172573d6000803e3d6000fd5b505050506040513d601f19601f820116820180604052508101906131969190613ca6565b6001600160a01b0316148061321d5750336001600160a01b0316306001600160a01b0316638da5cb5b6040518163ffffffff1660e01b8152600401602060405180830381865afa1580156131ee573d6000803e3d6000fd5b505050506040513d601f19601f820116820180604052508101906132129190613ca6565b6001600160a01b0316145b6132395760405162461bcd60e51b815260040161077690613cc3565b60ca54604051630852cd8d60e31b8152600481018490526001600160a01b03909116906342966c6890602401600060405180830381600087803b15801561327f57600080fd5b505af1158015613293573d6000803e3d6000fd5b505050600083815260cb602052604081206132af9250906136ad565b6040518281527f24089da2b94d456671c6e08e154081718367fe1b3eb2bf048f9ded0b2ce2270a90602001610823565b60655460ff166133285760405162461bcd60e51b815260206004820152601460248201527314185d5cd8589b194e881b9bdd081c185d5cd95960621b6044820152606401610776565b6065805460ff191690557f5db9ee0a495bf2e6ff9c91a7834c1ba4fdd244a5e8aa4e537bd38aeae4b073aa335b6040516001600160a01b03909116815260200160405180910390a1565b60006127106133818385613d7e565b61338b91906140e1565b9392505050565b6000826001600160a01b031682610a2890604051600060405180830381858888f193505050503d80600081146133e4576040519150601f19603f3d011682016040523d82523d6000602084013e6133e9565b606091505b50509050806112125760405162461bcd60e51b815260206004820152601f60248201527f4572726f72207768696c6520706179696e6720746865207265636569766572006044820152606401610776565b600054610100900460ff166134615760405162461bcd60e51b815260040161077690614103565b610bab61361c565b600054610100900460ff166134905760405162461bcd60e51b815260040161077690614103565b610bab61364c565b600054610100900460ff166134bf5760405162461bcd60e51b815260040161077690614103565b610bab61367f565b603380546001600160a01b038381166001600160a01b0319831681179093556040519116919082907f8be0079c531659141344cd1fd0a4f28419497f9722a3daafe3b4186f6b6457e090600090a35050565b60655460ff161561353c5760405162461bcd60e51b815260040161077690613c2a565b6065805460ff191660011790557f62e78cea01bee320cd4e420270b5ea74000d11b0c9f74754ebdbfc544b05a2586133553390565b600082815260cb60209081526040808320805482518185028101850190935280835291929091908301828280156135c757602002820191906000526020600020905b8154815260200190600101908083116135b3575b5050505050905060005b815181101561361657600081815260cc6020526040902060030180546001600160a01b0319166001600160a01b0385161790558061360e81613e37565b9150506135d1565b50505050565b600054610100900460ff166136435760405162461bcd60e51b815260040161077690614103565b610bab336134c7565b600054610100900460ff166136735760405162461bcd60e51b815260040161077690614103565b6065805460ff19169055565b600054610100900460ff166136a65760405162461bcd60e51b815260040161077690614103565b6001609755565b50805460008255906000526020600020908101906130ff91905b808211156136db57600081556001016136c7565b5090565b600080604083850312156136f257600080fd5b50508035926020909101359150565b634e487b7160e01b600052604160045260246000fd5b604051601f8201601f1916810167ffffffffffffffff8111828210171561374057613740613701565b604052919050565b600082601f83011261375957600080fd5b8135602067ffffffffffffffff82111561377557613775613701565b8160051b613784828201613717565b928352848101820192828101908785111561379e57600080fd5b83870192505b848310156137bd578235825291830191908301906137a4565b979650505050505050565b6000806000606084860312156137dd57600080fd5b83359250602084013567ffffffffffffffff808211156137fc57600080fd5b61380887838801613748565b9350604086013591508082111561381e57600080fd5b5061382b86828701613748565b9150509250925092565b60006020828403121561384757600080fd5b5035919050565b6001600160a01b03811681146130ff57600080fd5b60008060006060848603121561387857600080fd5b83359250602084013561388a8161384e565b929592945050506040919091013590565b600080604083850312156138ae57600080fd5b82356138b98161384e565b915060208301356138c98161384e565b809150509250929050565b6000602082840312156138e657600080fd5b813561ffff8116811461338b57600080fd5b60008060006040848603121561390d57600080fd5b83359250602084013567ffffffffffffffff8082111561392c57600080fd5b818601915086601f83011261394057600080fd5b81358181111561394f57600080fd5b87602082850101111561396157600080fd5b6020830194508093505050509250925092565b60008060006060848603121561398957600080fd5b83359250602084013561399b8161384e565b915060408401356139ab8161384e565b809150509250925092565b6000806000606084860312156139cb57600080fd5b505081359360208301359350604090920135919050565b600080604083850312156139f557600080fd5b8235613a008161384e565b946020939093013593505050565b60008083601f840112613a2057600080fd5b50813567ffffffffffffffff811115613a3857600080fd5b6020830191508360208260051b8501011115613a5357600080fd5b9250929050565b60008060008060608587031215613a7057600080fd5b843567ffffffffffffffff80821115613a8857600080fd5b818701915087601f830112613a9c57600080fd5b8135602082821115613ab057613ab0613701565b613ac2601f8301601f19168201613717565b8281528a82848701011115613ad657600080fd5b8282860183830137600092810182019290925290965087013594506040870135915080821115613b0557600080fd5b50613b1287828801613a0e565b95989497509550505050565b60008060008060608587031215613b3457600080fd5b8435935060208501359250604085013567ffffffffffffffff811115613b5957600080fd5b613b1287828801613a0e565b600081518084526020808501945080840160005b83811015613b9557815187529582019590820190600101613b79565b509495945050505050565b60208152600061338b6020830184613b65565b60008060408385031215613bc657600080fd5b8235915060208301356138c98161384e565b600060208284031215613bea57600080fd5b813561338b8161384e565b6020808252818101527f4f776e61626c653a2063616c6c6572206973206e6f7420746865206f776e6572604082015260600190565b60208082526010908201526f14185d5cd8589b194e881c185d5cd95960821b604082015260600190565b634e487b7160e01b600052601160045260246000fd5b600082821015613c7c57613c7c613c54565b500390565b6020808252600b908201526a20b137bb3290189818129760a91b604082015260600190565b600060208284031215613cb857600080fd5b815161338b8161384e565b6020808252600c908201526b4e6f7420616c6c6f7765642160a01b604082015260600190565b6001600160a01b0384168152606060208201819052600090613d0d90830185613b65565b8281036040840152613d1f8185613b65565b9695505050505050565b8481526001600160a01b0384166020820152608060408201819052600090613d5390830185613b65565b82810360608401526137bd8185613b65565b600060208284031215613d7757600080fd5b5051919050565b6000816000190483118215151615613d9857613d98613c54565b500290565b6001600160a01b0394851681529290931660208301526040820152606081019190915260a06080820181905260009082015260c00190565b634e487b7160e01b600052600160045260246000fd5b83815260406020820152816040820152818360608301376000818301606090810191909152601f909201601f1916010192915050565b634e487b7160e01b600052603260045260246000fd5b6000600019821415613e4b57613e4b613c54565b5060010190565b6000815180845260005b81811015613e7857602081850181015186830182015201613e5c565b81811115613e8a576000602083870101525b50601f01601f19169290920160200192915050565b6001600160a01b0383168152604060208201819052600090613ec390830184613e52565b949350505050565b8381526001600160a01b0383166020820152606060408201819052600090611f4e90830184613e52565b60008219821115613f0857613f08613c54565b500190565b600061ffff83811690831681811015613f2857613f28613c54565b039392505050565b6000823560be19833603018112613f4657600080fd5b9190910192915050565b600060208284031215613f6257600080fd5b8135801515811461338b57600080fd5b6000808335601e19843603018112613f8957600080fd5b83018035915067ffffffffffffffff821115613fa457600080fd5b602001915036819003821315613a5357600080fd5b600060ff821660ff811415613fd057613fd0613c54565b60010192915050565b6001600160a01b038516815260a06020808301829052600091613ffe90840187613b65565b83810360408501526140108187613b65565b905083810360608501528085518083528383019150838160051b84010184880160005b8381101561406157601f1986840301855261404f838351613e52565b94870194925090860190600101614033565b5050868103608088015260008152602081019b9a5050505050505050505050565b60006101208b835260018060a01b038b1660208401528960408401528860608401528760808401528660a08401528560c084015284151560e0840152806101008401526140d181840185613e52565b9c9b505050505050505050505050565b6000826140fe57634e487b7160e01b600052601260045260246000fd5b500490565b6020808252602b908201527f496e697469616c697a61626c653a20636f6e7472616374206973206e6f74206960408201526a6e697469616c697a696e6760a81b60608201526080019056fea2646970667358221220cb9d51e72abc8fb88ddf96da541058f1bf427f0bb75f87803eb6e9d0b85201f164736f6c634300080c0033",
  "linkReferences": {},
  "deployedLinkReferences": {}
}