{
  "_format": "hh-sol-artifact-1",
  "contractName": "Membership",
  "sourceName": "src/Membership.sol",
  "abi": [
    {
      "anonymous": false,
      "inputs": [
        {
          "indexed": true,
          "internalType": "address",
          "name": "account",
          "type": "address"
        },
        {
          "indexed": true,
          "internalType": "address",
          "name": "operator",
          "type": "address"
        },
        {
          "indexed": false,
          "internalType": "bool",
          "name": "approved",
          "type": "bool"
        }
      ],
      "name": "ApprovalForAll",
      "type": "event"
    },
    {
      "anonymous": false,
      "inputs": [
        {
          "indexed": true,
          "internalType": "address",
          "name": "previousOwner",
          "type": "address"
        },
        {
          "indexed": true,
          "internalType": "address",
          "name": "newOwner",
          "type": "address"
        }
      ],
      "name": "OwnershipTransferred",
      "type": "event"
    },
    {
      "anonymous": false,
      "inputs": [
        {
          "indexed": false,
          "internalType": "address",
          "name": "account",
          "type": "address"
        }
      ],
      "name": "Paused",
      "type": "event"
    },
    {
      "anonymous": false,
      "inputs": [
        {
          "indexed": true,
          "internalType": "uint256",
          "name": "tokenId",
          "type": "uint256"
        },
        {
          "indexed": false,
          "internalType": "string",
          "name": "uri",
          "type": "string"
        }
      ],
      "name": "TokenURIChanged",
      "type": "event"
    },
    {
      "anonymous": false,
      "inputs": [
        {
          "indexed": true,
          "internalType": "address",
          "name": "operator",
          "type": "address"
        },
        {
          "indexed": true,
          "internalType": "address",
          "name": "from",
          "type": "address"
        },
        {
          "indexed": true,
          "internalType": "address",
          "name": "to",
          "type": "address"
        },
        {
          "indexed": false,
          "internalType": "uint256[]",
          "name": "ids",
          "type": "uint256[]"
        },
        {
          "indexed": false,
          "internalType": "uint256[]",
          "name": "values",
          "type": "uint256[]"
        }
      ],
      "name": "TransferBatch",
      "type": "event"
    },
    {
      "anonymous": false,
      "inputs": [
        {
          "indexed": true,
          "internalType": "address",
          "name": "operator",
          "type": "address"
        },
        {
          "indexed": true,
          "internalType": "address",
          "name": "from",
          "type": "address"
        },
        {
          "indexed": true,
          "internalType": "address",
          "name": "to",
          "type": "address"
        },
        {
          "indexed": false,
          "internalType": "uint256",
          "name": "id",
          "type": "uint256"
        },
        {
          "indexed": false,
          "internalType": "uint256",
          "name": "value",
          "type": "uint256"
        }
      ],
      "name": "TransferSingle",
      "type": "event"
    },
    {
      "anonymous": false,
      "inputs": [
        {
          "indexed": false,
          "internalType": "string",
          "name": "value",
          "type": "string"
        },
        {
          "indexed": true,
          "internalType": "uint256",
          "name": "id",
          "type": "uint256"
        }
      ],
      "name": "URI",
      "type": "event"
    },
    {
      "anonymous": false,
      "inputs": [
        {
          "indexed": false,
          "internalType": "address",
          "name": "account",
          "type": "address"
        }
      ],
      "name": "Unpaused",
      "type": "event"
    },
    {
      "inputs": [
        {
          "internalType": "address",
          "name": "account",
          "type": "address"
        },
        {
          "internalType": "uint256",
          "name": "id",
          "type": "uint256"
        }
      ],
      "name": "balanceOf",
      "outputs": [
        {
          "internalType": "uint256",
          "name": "",
          "type": "uint256"
        }
      ],
      "stateMutability": "view",
      "type": "function"
    },
    {
      "inputs": [
        {
          "internalType": "address[]",
          "name": "accounts",
          "type": "address[]"
        },
        {
          "internalType": "uint256[]",
          "name": "ids",
          "type": "uint256[]"
        }
      ],
      "name": "balanceOfBatch",
      "outputs": [
        {
          "internalType": "uint256[]",
          "name": "",
          "type": "uint256[]"
        }
      ],
      "stateMutability": "view",
      "type": "function"
    },
    {
      "inputs": [],
      "name": "baseURI",
      "outputs": [
        {
          "internalType": "string",
          "name": "",
          "type": "string"
        }
      ],
      "stateMutability": "view",
      "type": "function"
    },
    {
      "inputs": [
        {
          "internalType": "address",
          "name": "from",
          "type": "address"
        },
        {
          "internalType": "address[]",
          "name": "to",
          "type": "address[]"
        },
        {
          "internalType": "uint256",
          "name": "id",
          "type": "uint256"
        },
        {
          "internalType": "uint256[]",
          "name": "amounts",
          "type": "uint256[]"
        }
      ],
      "name": "bulkTransfer",
      "outputs": [],
      "stateMutability": "nonpayable",
      "type": "function"
    },
    {
      "inputs": [
        {
          "internalType": "address",
          "name": "account",
          "type": "address"
        },
        {
          "internalType": "uint256",
          "name": "id",
          "type": "uint256"
        },
        {
          "internalType": "uint256",
          "name": "amount",
          "type": "uint256"
        }
      ],
      "name": "burn",
      "outputs": [],
      "stateMutability": "nonpayable",
      "type": "function"
    },
    {
      "inputs": [
        {
          "internalType": "address",
          "name": "account",
          "type": "address"
        },
        {
          "internalType": "uint256[]",
          "name": "ids",
          "type": "uint256[]"
        },
        {
          "internalType": "uint256[]",
          "name": "amounts",
          "type": "uint256[]"
        }
      ],
      "name": "burnBatch",
      "outputs": [],
      "stateMutability": "nonpayable",
      "type": "function"
    },
    {
      "inputs": [
        {
          "internalType": "uint256",
          "name": "id",
          "type": "uint256"
        }
      ],
      "name": "exists",
      "outputs": [
        {
          "internalType": "bool",
          "name": "",
          "type": "bool"
        }
      ],
      "stateMutability": "view",
      "type": "function"
    },
    {
      "inputs": [
        {
          "internalType": "address",
          "name": "_marketplaceAddress",
          "type": "address"
        }
      ],
      "name": "initialize",
      "outputs": [],
      "stateMutability": "nonpayable",
      "type": "function"
    },
    {
      "inputs": [
        {
          "internalType": "address",
          "name": "account",
          "type": "address"
        },
        {
          "internalType": "address",
          "name": "operator",
          "type": "address"
        }
      ],
      "name": "isApprovedForAll",
      "outputs": [
        {
          "internalType": "bool",
          "name": "",
          "type": "bool"
        }
      ],
      "stateMutability": "view",
      "type": "function"
    },
    {
      "inputs": [],
      "name": "marketplaceAddress",
      "outputs": [
        {
          "internalType": "address",
          "name": "",
          "type": "address"
        }
      ],
      "stateMutability": "view",
      "type": "function"
    },
    {
      "inputs": [
        {
          "internalType": "address",
          "name": "to",
          "type": "address"
        },
        {
          "internalType": "uint256[]",
          "name": "ids",
          "type": "uint256[]"
        },
        {
          "internalType": "uint256[]",
          "name": "amounts",
          "type": "uint256[]"
        },
        {
          "internalType": "string[]",
          "name": "_uris",
          "type": "string[]"
        },
        {
          "internalType": "bytes",
          "name": "data",
          "type": "bytes"
        }
      ],
      "name": "mintBatch",
      "outputs": [],
      "stateMutability": "nonpayable",
      "type": "function"
    },
    {
      "inputs": [],
      "name": "name",
      "outputs": [
        {
          "internalType": "string",
          "name": "",
          "type": "string"
        }
      ],
      "stateMutability": "view",
      "type": "function"
    },
    {
      "inputs": [],
      "name": "owner",
      "outputs": [
        {
          "internalType": "address",
          "name": "",
          "type": "address"
        }
      ],
      "stateMutability": "view",
      "type": "function"
    },
    {
      "inputs": [],
      "name": "pause",
      "outputs": [],
      "stateMutability": "nonpayable",
      "type": "function"
    },
    {
      "inputs": [],
      "name": "paused",
      "outputs": [
        {
          "internalType": "bool",
          "name": "",
          "type": "bool"
        }
      ],
      "stateMutability": "view",
      "type": "function"
    },
    {
      "inputs": [],
      "name": "renounceOwnership",
      "outputs": [],
      "stateMutability": "nonpayable",
      "type": "function"
    },
    {
      "inputs": [
        {
          "internalType": "address",
          "name": "from",
          "type": "address"
        },
        {
          "internalType": "address",
          "name": "to",
          "type": "address"
        },
        {
          "internalType": "uint256[]",
          "name": "ids",
          "type": "uint256[]"
        },
        {
          "internalType": "uint256[]",
          "name": "amounts",
          "type": "uint256[]"
        },
        {
          "internalType": "bytes",
          "name": "data",
          "type": "bytes"
        }
      ],
      "name": "safeBatchTransferFrom",
      "outputs": [],
      "stateMutability": "nonpayable",
      "type": "function"
    },
    {
      "inputs": [
        {
          "internalType": "address",
          "name": "from",
          "type": "address"
        },
        {
          "internalType": "address",
          "name": "to",
          "type": "address"
        },
        {
          "internalType": "uint256",
          "name": "id",
          "type": "uint256"
        },
        {
          "internalType": "uint256",
          "name": "amount",
          "type": "uint256"
        },
        {
          "internalType": "bytes",
          "name": "data",
          "type": "bytes"
        }
      ],
      "name": "safeTransferFrom",
      "outputs": [],
      "stateMutability": "nonpayable",
      "type": "function"
    },
    {
      "inputs": [
        {
          "internalType": "address",
          "name": "operator",
          "type": "address"
        },
        {
          "internalType": "bool",
          "name": "approved",
          "type": "bool"
        }
      ],
      "name": "setApprovalForAll",
      "outputs": [],
      "stateMutability": "nonpayable",
      "type": "function"
    },
    {
      "inputs": [
        {
          "internalType": "uint256",
          "name": "tokenId",
          "type": "uint256"
        },
        {
          "internalType": "string",
          "name": "tokenURI",
          "type": "string"
        }
      ],
      "name": "setUri",
      "outputs": [],
      "stateMutability": "nonpayable",
      "type": "function"
    },
    {
      "inputs": [
        {
          "internalType": "bytes4",
          "name": "interfaceId",
          "type": "bytes4"
        }
      ],
      "name": "supportsInterface",
      "outputs": [
        {
          "internalType": "bool",
          "name": "",
          "type": "bool"
        }
      ],
      "stateMutability": "view",
      "type": "function"
    },
    {
      "inputs": [],
      "name": "symbol",
      "outputs": [
        {
          "internalType": "string",
          "name": "",
          "type": "string"
        }
      ],
      "stateMutability": "view",
      "type": "function"
    },
    {
      "inputs": [
        {
          "internalType": "uint256",
          "name": "id",
          "type": "uint256"
        }
      ],
      "name": "totalSupply",
      "outputs": [
        {
          "internalType": "uint256",
          "name": "",
          "type": "uint256"
        }
      ],
      "stateMutability": "view",
      "type": "function"
    },
    {
      "inputs": [
        {
          "internalType": "address",
          "name": "newOwner",
          "type": "address"
        }
      ],
      "name": "transferOwnership",
      "outputs": [],
      "stateMutability": "nonpayable",
      "type": "function"
    },
    {
      "inputs": [],
      "name": "unpause",
      "outputs": [],
      "stateMutability": "nonpayable",
      "type": "function"
    },
    {
      "inputs": [
        {
          "internalType": "uint256",
          "name": "tokenId",
          "type": "uint256"
        }
      ],
      "name": "uri",
      "outputs": [
        {
          "internalType": "string",
          "name": "",
          "type": "string"
        }
      ],
      "stateMutability": "view",
      "type": "function"
    },
    {
      "inputs": [
        {
          "internalType": "uint256",
          "name": "",
          "type": "uint256"
        }
      ],
      "name": "uris",
      "outputs": [
        {
          "internalType": "string",
          "name": "",
          "type": "string"
        }
      ],
      "stateMutability": "view",
      "type": "function"
    }
  ],
  "bytecode": "0x608060405234801561001057600080fd5b50612b45806100206000396000f3fe608060405234801561001057600080fd5b50600436106101a85760003560e01c8063782f08ae116100f9578063bd85b03911610097578063e985e9c511610071578063e985e9c514610386578063f242432a146103c2578063f2fde38b146103d5578063f5298aca146103e857600080fd5b8063bd85b0391461033f578063c4d66de81461035f578063daa17f491461037257600080fd5b806395d89b41116100d357806395d89b41146102fe578063a22cb46514610306578063a3a5bc8314610319578063b9571e841461032c57600080fd5b8063782f08ae146102be5780638456cb59146102d15780638da5cb5b146102d957600080fd5b80633f4ba83a116101665780635c975abb116101405780635c975abb146102905780636b20c4541461029b5780636c0360eb146102ae578063715018a6146102b657600080fd5b80633f4ba83a146102465780634e1273f41461024e5780634f558e791461026e57600080fd5b8062fdd58e146101ad57806301ffc9a7146101d357806306fdde03146101f65780630e89341c1461020b5780631253c5461461021e5780632eb2c2d614610231575b600080fd5b6101c06101bb366004611dd5565b6103fb565b6040519081526020015b60405180910390f35b6101e66101e1366004611e15565b610494565b60405190151581526020016101ca565b6101fe6104e6565b6040516101ca9190611e86565b6101fe610219366004611e99565b610575565b6101fe61022c366004611e99565b6105b1565b61024461023f366004611ffb565b6105cb565b005b610244610662565b61026161025c3660046120a4565b610696565b6040516101ca91906121a9565b6101e661027c366004611e99565b600090815260976020526040902054151590565b60fb5460ff166101e6565b6102446102a93660046121bc565b6107bf565b6101fe610837565b610244610845565b6102446102cc36600461222f565b610879565b610244610924565b60c9546001600160a01b03165b6040516001600160a01b0390911681526020016101ca565b6101fe610956565b61024461031436600461226b565b610964565b6102446103273660046122f2565b610973565b61024461033a36600461237b565b610a16565b6101c061034d366004611e99565b60009081526097602052604090205490565b61024461036d3660046124a8565b610b62565b61012f546102e6906001600160a01b031681565b6101e66103943660046124c3565b6001600160a01b03918216600090815260666020908152604080832093909416825291909152205460ff1690565b6102446103d03660046124f6565b610d89565b6102446103e33660046124a8565b610e10565b6102446103f636600461255a565b610eab565b60006001600160a01b03831661046c5760405162461bcd60e51b815260206004820152602b60248201527f455243313135353a2062616c616e636520717565727920666f7220746865207a60448201526a65726f206164647265737360a81b60648201526084015b60405180910390fd5b5060009081526065602090815260408083206001600160a01b03949094168352929052205490565b60006001600160e01b03198216636cdb3d1360e11b14806104c557506001600160e01b031982166303a24d0760e21b145b806104e057506301ffc9a760e01b6001600160e01b03198316145b92915050565b61013080546104f49061258d565b80601f01602080910402602001604051908101604052809291908181526020018280546105209061258d565b801561056d5780601f106105425761010080835404028352916020019161056d565b820191906000526020600020905b81548152906001019060200180831161055057829003601f168201915b505050505081565b600081815261012d6020908152604091829020915160609261059b9261012e9201612662565b6040516020818303038152906040529050919050565b61012d60205260009081526040902080546104f49061258d565b6001600160a01b0385163314806105e757506105e78533610394565b61064e5760405162461bcd60e51b815260206004820152603260248201527f455243313135353a207472616e736665722063616c6c6572206973206e6f74206044820152711bdddb995c881b9bdc88185c1c1c9bdd995960721b6064820152608401610463565b61065b8585858585610f04565b5050505050565b60c9546001600160a01b0316331461068c5760405162461bcd60e51b81526004016104639061267f565b6106946110a9565b565b606081518351146106fb5760405162461bcd60e51b815260206004820152602960248201527f455243313135353a206163636f756e747320616e6420696473206c656e677468604482015268040dad2e6dac2e8c6d60bb1b6064820152608401610463565b600083516001600160401b0381111561071657610716611eb2565b60405190808252806020026020018201604052801561073f578160200160208202803683370190505b50905060005b84518110156107b75761078a858281518110610763576107636126b4565b602002602001015185838151811061077d5761077d6126b4565b60200260200101516103fb565b82828151811061079c5761079c6126b4565b60209081029190910101526107b0816126e0565b9050610745565b509392505050565b61012f546001600160a01b031633146107ea5760405162461bcd60e51b8152600401610463906126fb565b60fb5460ff161561080d5760405162461bcd60e51b815260040161046390612732565b61081883838361113c565b61012f546108329084906001600160a01b031660016112cd565b505050565b61012e80546104f49061258d565b60c9546001600160a01b0316331461086f5760405162461bcd60e51b81526004016104639061267f565b61069460006113ae565b61012f546001600160a01b031633146108a45760405162461bcd60e51b8152600401610463906126fb565b60fb5460ff16156108c75760405162461bcd60e51b815260040161046390612732565b600082815261012d6020908152604090912082516108e792840190611d20565b50817f483621391b5e72d74eb03c7b5715531c486e326fb115ab3bcf34b133041854ce826040516109189190611e86565b60405180910390a25050565b60c9546001600160a01b0316331461094e5760405162461bcd60e51b81526004016104639061267f565b610694611400565b61013180546104f49061258d565b61096f3383836112cd565b5050565b60fb5460ff16156109965760405162461bcd60e51b815260040161046390612732565b60005b84811015610a0d576109fb878787848181106109b7576109b76126b4565b90506020020160208101906109cc91906124a8565b868686868181106109df576109df6126b4565b9050602002013560405180602001604052806000815250610d89565b80610a05816126e0565b915050610999565b50505050505050565b61012f546001600160a01b03163314610a415760405162461bcd60e51b8152600401610463906126fb565b60fb5460ff1615610a645760405162461bcd60e51b815260040161046390612732565b82518451148015610a76575081518451145b610abb5760405162461bcd60e51b815260206004820152601660248201527520b93930bc903632b733ba341036b4b9b6b0ba31b41760511b6044820152606401610463565b610ac785858584611458565b61012f54610ae19086906001600160a01b031660016112cd565b60005b8451811015610b5a57828181518110610aff57610aff6126b4565b602002602001015161012d6000878481518110610b1e57610b1e6126b4565b602002602001015181526020019081526020016000209080519060200190610b47929190611d20565b5080610b52816126e0565b915050610ae4565b505050505050565b600054610100900460ff16610b7d5760005460ff1615610b81565b303b155b610be45760405162461bcd60e51b815260206004820152602e60248201527f496e697469616c697a61626c653a20636f6e747261637420697320616c72656160448201526d191e481a5b9a5d1a585b1a5e995960921b6064820152608401610463565b600054610100900460ff16158015610c06576000805461ffff19166101011790555b61012f80546001600160a01b0319166001600160a01b03841617905560408051808201909152601f8082527f68747470733a2f2f697066732e66616e737a6f69642e636f6d2f697066732f006020909201918252610c679161012e91611d20565b5060408051808201909152601380825272046616e737a6f6964204d656d6265727368697606c1b6020909201918252610ca39161013091611d20565b50604080518082019091526003808252624d454d60e81b6020909201918252610ccf9161013191611d20565b50610d6461012e8054610ce19061258d565b80601f0160208091040260200160405190810160405280929190818152602001828054610d0d9061258d565b8015610d5a5780601f10610d2f57610100808354040283529160200191610d5a565b820191906000526020600020905b815481529060010190602001808311610d3d57829003601f168201915b50505050506115ed565b610d6c61161d565b610d7461164c565b801561096f576000805461ff00191690555050565b6001600160a01b038516331480610da55750610da58533610394565b610e035760405162461bcd60e51b815260206004820152602960248201527f455243313135353a2063616c6c6572206973206e6f74206f776e6572206e6f7260448201526808185c1c1c9bdd995960ba1b6064820152608401610463565b61065b858585858561167b565b60c9546001600160a01b03163314610e3a5760405162461bcd60e51b81526004016104639061267f565b6001600160a01b038116610e9f5760405162461bcd60e51b815260206004820152602660248201527f4f776e61626c653a206e6577206f776e657220697320746865207a65726f206160448201526564647265737360d01b6064820152608401610463565b610ea8816113ae565b50565b61012f546001600160a01b03163314610ed65760405162461bcd60e51b8152600401610463906126fb565b60fb5460ff1615610ef95760405162461bcd60e51b815260040161046390612732565b6108188383836117a2565b8151835114610f255760405162461bcd60e51b81526004016104639061275c565b6001600160a01b038416610f4b5760405162461bcd60e51b8152600401610463906127a4565b33610f5a8187878787876118a7565b60005b8451811015611043576000858281518110610f7a57610f7a6126b4565b602002602001015190506000858381518110610f9857610f986126b4565b60209081029190910181015160008481526065835260408082206001600160a01b038e168352909352919091205490915081811015610fe95760405162461bcd60e51b8152600401610463906127e9565b60008381526065602090815260408083206001600160a01b038e8116855292528083208585039055908b16825281208054849290611028908490612833565b925050819055505050508061103c906126e0565b9050610f5d565b50846001600160a01b0316866001600160a01b0316826001600160a01b03167f4a39dc06d4c0dbc64b70af90fd698a233a518aa5d07e595d983b8c0526c8f7fb878760405161109392919061284b565b60405180910390a4610b5a8187878787876118f2565b60fb5460ff166110f25760405162461bcd60e51b815260206004820152601460248201527314185d5cd8589b194e881b9bdd081c185d5cd95960621b6044820152606401610463565b60fb805460ff191690557f5db9ee0a495bf2e6ff9c91a7834c1ba4fdd244a5e8aa4e537bd38aeae4b073aa335b6040516001600160a01b03909116815260200160405180910390a1565b6001600160a01b0383166111625760405162461bcd60e51b815260040161046390612879565b80518251146111835760405162461bcd60e51b81526004016104639061275c565b60003390506111a6818560008686604051806020016040528060008152506118a7565b60005b835181101561126e5760008482815181106111c6576111c66126b4565b6020026020010151905060008483815181106111e4576111e46126b4565b60209081029190910181015160008481526065835260408082206001600160a01b038c1683529093529190912054909150818110156112355760405162461bcd60e51b8152600401610463906128bc565b60009283526065602090815260408085206001600160a01b038b1686529091529092209103905580611266816126e0565b9150506111a9565b5060006001600160a01b0316846001600160a01b0316826001600160a01b03167f4a39dc06d4c0dbc64b70af90fd698a233a518aa5d07e595d983b8c0526c8f7fb86866040516112bf92919061284b565b60405180910390a450505050565b816001600160a01b0316836001600160a01b031614156113415760405162461bcd60e51b815260206004820152602960248201527f455243313135353a2073657474696e6720617070726f76616c20737461747573604482015268103337b91039b2b63360b91b6064820152608401610463565b6001600160a01b03838116600081815260666020908152604080832094871680845294825291829020805460ff191686151590811790915591519182527f17307eab39ab6107e8899845ad3d59bd9653f200f220920489ca2b5937696c31910160405180910390a3505050565b60c980546001600160a01b038381166001600160a01b0319831681179093556040519116919082907f8be0079c531659141344cd1fd0a4f28419497f9722a3daafe3b4186f6b6457e090600090a35050565b60fb5460ff16156114235760405162461bcd60e51b815260040161046390612732565b60fb805460ff191660011790557f62e78cea01bee320cd4e420270b5ea74000d11b0c9f74754ebdbfc544b05a25861111f3390565b6001600160a01b0384166114b85760405162461bcd60e51b815260206004820152602160248201527f455243313135353a206d696e7420746f20746865207a65726f206164647265736044820152607360f81b6064820152608401610463565b81518351146114d95760405162461bcd60e51b81526004016104639061275c565b336114e9816000878787876118a7565b60005b845181101561158557838181518110611507576115076126b4565b602002602001015160656000878481518110611525576115256126b4565b602002602001015181526020019081526020016000206000886001600160a01b03166001600160a01b03168152602001908152602001600020600082825461156d9190612833565b9091555081905061157d816126e0565b9150506114ec565b50846001600160a01b031660006001600160a01b0316826001600160a01b03167f4a39dc06d4c0dbc64b70af90fd698a233a518aa5d07e595d983b8c0526c8f7fb87876040516115d692919061284b565b60405180910390a461065b816000878787876118f2565b600054610100900460ff166116145760405162461bcd60e51b815260040161046390612900565b610ea881611a5d565b600054610100900460ff166116445760405162461bcd60e51b815260040161046390612900565b610694611a8d565b600054610100900460ff166116735760405162461bcd60e51b815260040161046390612900565b610694611abd565b6001600160a01b0384166116a15760405162461bcd60e51b8152600401610463906127a4565b336116c08187876116b188611af0565b6116ba88611af0565b876118a7565b60008481526065602090815260408083206001600160a01b038a168452909152902054838110156117035760405162461bcd60e51b8152600401610463906127e9565b60008581526065602090815260408083206001600160a01b038b8116855292528083208785039055908816825281208054869290611742908490612833565b909155505060408051868152602081018690526001600160a01b03808916928a821692918616917fc3d58168c5ae7397731d063d5bbf3d657854427343f4c083240f7aacaa2d0f62910160405180910390a4610a0d828888888888611b3b565b6001600160a01b0383166117c85760405162461bcd60e51b815260040161046390612879565b336117f7818560006117d987611af0565b6117e287611af0565b604051806020016040528060008152506118a7565b60008381526065602090815260408083206001600160a01b03881684529091529020548281101561183a5760405162461bcd60e51b8152600401610463906128bc565b60008481526065602090815260408083206001600160a01b03898116808652918452828520888703905582518981529384018890529092908616917fc3d58168c5ae7397731d063d5bbf3d657854427343f4c083240f7aacaa2d0f62910160405180910390a45050505050565b60fb5460ff16156118ca5760405162461bcd60e51b815260040161046390612732565b6118d8868686868686611c05565b61012f54610b5a9085906001600160a01b031660016112cd565b6001600160a01b0384163b15610b5a5760405163bc197c8160e01b81526001600160a01b0385169063bc197c8190611936908990899088908890889060040161294b565b602060405180830381600087803b15801561195057600080fd5b505af1925050508015611980575060408051601f3d908101601f1916820190925261197d918101906129a9565b60015b611a2d5761198c6129c6565b806308c379a014156119c657506119a16129e2565b806119ac57506119c8565b8060405162461bcd60e51b81526004016104639190611e86565b505b60405162461bcd60e51b815260206004820152603460248201527f455243313135353a207472616e7366657220746f206e6f6e20455243313135356044820152732932b1b2b4bb32b91034b6b83632b6b2b73a32b960611b6064820152608401610463565b6001600160e01b0319811663bc197c8160e01b14610a0d5760405162461bcd60e51b815260040161046390612a6b565b600054610100900460ff16611a845760405162461bcd60e51b815260040161046390612900565b610ea881611d11565b600054610100900460ff16611ab45760405162461bcd60e51b815260040161046390612900565b610694336113ae565b600054610100900460ff16611ae45760405162461bcd60e51b815260040161046390612900565b60fb805460ff19169055565b60408051600180825281830190925260609160009190602080830190803683370190505090508281600081518110611b2a57611b2a6126b4565b602090810291909101015292915050565b6001600160a01b0384163b15610b5a5760405163f23a6e6160e01b81526001600160a01b0385169063f23a6e6190611b7f9089908990889088908890600401612ab3565b602060405180830381600087803b158015611b9957600080fd5b505af1925050508015611bc9575060408051601f3d908101601f19168201909252611bc6918101906129a9565b60015b611bd55761198c6129c6565b6001600160e01b0319811663f23a6e6160e01b14610a0d5760405162461bcd60e51b815260040161046390612a6b565b6001600160a01b038516611c8c5760005b8351811015611c8a57828181518110611c3157611c316126b4565b602002602001015160976000868481518110611c4f57611c4f6126b4565b602002602001015181526020019081526020016000206000828254611c749190612833565b90915550611c839050816126e0565b9050611c16565b505b6001600160a01b038416610b5a5760005b8351811015610a0d57828181518110611cb857611cb86126b4565b602002602001015160976000868481518110611cd657611cd66126b4565b602002602001015181526020019081526020016000206000828254611cfb9190612af8565b90915550611d0a9050816126e0565b9050611c9d565b805161096f9060679060208401905b828054611d2c9061258d565b90600052602060002090601f016020900481019282611d4e5760008555611d94565b82601f10611d6757805160ff1916838001178555611d94565b82800160010185558215611d94579182015b82811115611d94578251825591602001919060010190611d79565b50611da0929150611da4565b5090565b5b80821115611da05760008155600101611da5565b80356001600160a01b0381168114611dd057600080fd5b919050565b60008060408385031215611de857600080fd5b611df183611db9565b946020939093013593505050565b6001600160e01b031981168114610ea857600080fd5b600060208284031215611e2757600080fd5b8135611e3281611dff565b9392505050565b6000815180845260005b81811015611e5f57602081850181015186830182015201611e43565b81811115611e71576000602083870101525b50601f01601f19169290920160200192915050565b602081526000611e326020830184611e39565b600060208284031215611eab57600080fd5b5035919050565b634e487b7160e01b600052604160045260246000fd5b601f8201601f191681016001600160401b0381118282101715611eed57611eed611eb2565b6040525050565b60006001600160401b03821115611f0d57611f0d611eb2565b5060051b60200190565b600082601f830112611f2857600080fd5b81356020611f3582611ef4565b604051611f428282611ec8565b83815260059390931b8501820192828101915086841115611f6257600080fd5b8286015b84811015611f7d5780358352918301918301611f66565b509695505050505050565b600082601f830112611f9957600080fd5b81356001600160401b03811115611fb257611fb2611eb2565b604051611fc9601f8301601f191660200182611ec8565b818152846020838601011115611fde57600080fd5b816020850160208301376000918101602001919091529392505050565b600080600080600060a0868803121561201357600080fd5b61201c86611db9565b945061202a60208701611db9565b935060408601356001600160401b038082111561204657600080fd5b61205289838a01611f17565b9450606088013591508082111561206857600080fd5b61207489838a01611f17565b9350608088013591508082111561208a57600080fd5b5061209788828901611f88565b9150509295509295909350565b600080604083850312156120b757600080fd5b82356001600160401b03808211156120ce57600080fd5b818501915085601f8301126120e257600080fd5b813560206120ef82611ef4565b6040516120fc8282611ec8565b83815260059390931b850182019282810191508984111561211c57600080fd5b948201945b838610156121415761213286611db9565b82529482019490820190612121565b9650508601359250508082111561215757600080fd5b5061216485828601611f17565b9150509250929050565b600081518084526020808501945080840160005b8381101561219e57815187529582019590820190600101612182565b509495945050505050565b602081526000611e32602083018461216e565b6000806000606084860312156121d157600080fd5b6121da84611db9565b925060208401356001600160401b03808211156121f657600080fd5b61220287838801611f17565b9350604086013591508082111561221857600080fd5b5061222586828701611f17565b9150509250925092565b6000806040838503121561224257600080fd5b8235915060208301356001600160401b0381111561225f57600080fd5b61216485828601611f88565b6000806040838503121561227e57600080fd5b61228783611db9565b91506020830135801515811461229c57600080fd5b809150509250929050565b60008083601f8401126122b957600080fd5b5081356001600160401b038111156122d057600080fd5b6020830191508360208260051b85010111156122eb57600080fd5b9250929050565b6000806000806000806080878903121561230b57600080fd5b61231487611db9565b955060208701356001600160401b038082111561233057600080fd5b61233c8a838b016122a7565b909750955060408901359450606089013591508082111561235c57600080fd5b5061236989828a016122a7565b979a9699509497509295939492505050565b600080600080600060a0868803121561239357600080fd5b61239c86611db9565b94506020808701356001600160401b03808211156123b957600080fd5b6123c58a838b01611f17565b965060408901359150808211156123db57600080fd5b6123e78a838b01611f17565b955060608901359150808211156123fd57600080fd5b818901915089601f83011261241157600080fd5b813561241c81611ef4565b6040516124298282611ec8565b82815260059290921b840185019185810191508c83111561244957600080fd5b8585015b83811015612481578035858111156124655760008081fd5b6124738f89838a0101611f88565b84525091860191860161244d565b5096505050608089013592508083111561249a57600080fd5b505061209788828901611f88565b6000602082840312156124ba57600080fd5b611e3282611db9565b600080604083850312156124d657600080fd5b6124df83611db9565b91506124ed60208401611db9565b90509250929050565b600080600080600060a0868803121561250e57600080fd5b61251786611db9565b945061252560208701611db9565b9350604086013592506060860135915060808601356001600160401b0381111561254e57600080fd5b61209788828901611f88565b60008060006060848603121561256f57600080fd5b61257884611db9565b95602085013595506040909401359392505050565b600181811c908216806125a157607f821691505b602082108114156125c257634e487b7160e01b600052602260045260246000fd5b50919050565b8054600090600181811c90808316806125e257607f831692505b602080841082141561260457634e487b7160e01b600052602260045260246000fd5b818015612618576001811461262957612656565b60ff19861689528489019650612656565b60008881526020902060005b8681101561264e5781548b820152908501908301612635565b505084890196505b50505050505092915050565b600061267761267183866125c8565b846125c8565b949350505050565b6020808252818101527f4f776e61626c653a2063616c6c6572206973206e6f7420746865206f776e6572604082015260600190565b634e487b7160e01b600052603260045260246000fd5b634e487b7160e01b600052601160045260246000fd5b60006000198214156126f4576126f46126ca565b5060010190565b6020808252601c908201527f4f6e6c79204d61726b6574706c61636520697320616c6c6f7765642100000000604082015260600190565b60208082526010908201526f14185d5cd8589b194e881c185d5cd95960821b604082015260600190565b60208082526028908201527f455243313135353a2069647320616e6420616d6f756e7473206c656e677468206040820152670dad2e6dac2e8c6d60c31b606082015260800190565b60208082526025908201527f455243313135353a207472616e7366657220746f20746865207a65726f206164604082015264647265737360d81b606082015260800190565b6020808252602a908201527f455243313135353a20696e73756666696369656e742062616c616e636520666f60408201526939103a3930b739b332b960b11b606082015260800190565b60008219821115612846576128466126ca565b500190565b60408152600061285e604083018561216e565b8281036020840152612870818561216e565b95945050505050565b60208082526023908201527f455243313135353a206275726e2066726f6d20746865207a65726f206164647260408201526265737360e81b606082015260800190565b60208082526024908201527f455243313135353a206275726e20616d6f756e7420657863656564732062616c604082015263616e636560e01b606082015260800190565b6020808252602b908201527f496e697469616c697a61626c653a20636f6e7472616374206973206e6f74206960408201526a6e697469616c697a696e6760a81b606082015260800190565b6001600160a01b0386811682528516602082015260a0604082018190526000906129779083018661216e565b8281036060840152612989818661216e565b9050828103608084015261299d8185611e39565b98975050505050505050565b6000602082840312156129bb57600080fd5b8151611e3281611dff565b600060033d11156129df5760046000803e5060005160e01c5b90565b600060443d10156129f05790565b6040516003193d81016004833e81513d6001600160401b038160248401118184111715612a1f57505050505090565b8285019150815181811115612a375750505050505090565b843d8701016020828501011115612a515750505050505090565b612a6060208286010187611ec8565b509095945050505050565b60208082526028908201527f455243313135353a204552433131353552656365697665722072656a656374656040820152676420746f6b656e7360c01b606082015260800190565b6001600160a01b03868116825285166020820152604081018490526060810183905260a060808201819052600090612aed90830184611e39565b979650505050505050565b600082821015612b0a57612b0a6126ca565b50039056fea26469706673582212203895e7b948277a973bc721d4f9325003859b7f77dde7f29ff94e1ecfa62e9a8f64736f6c63430008090033",
  "linkReferences": {},
  "deployedLinkReferences": {}
}