{
  "_format": "hh-sol-artifact-1",
  "contractName": "MembershipsMarketplace",
  "sourceName": "src/MembershipsMarketplace.sol",
  "abi": [
    {
      "anonymous": false,
      "inputs": [
        {
          "indexed": true,
          "internalType": "address",
          "name": "seller",
          "type": "address"
        },
        {
          "indexed": true,
          "internalType": "uint256",
          "name": "membershipId",
          "type": "uint256"
        }
      ],
      "name": "AskRemoved",
      "type": "event"
    },
    {
      "anonymous": false,
      "inputs": [
        {
          "indexed": true,
          "internalType": "uint256",
          "name": "membershipId",
          "type": "uint256"
        },
        {
          "indexed": true,
          "internalType": "address",
          "name": "seller",
          "type": "address"
        },
        {
          "indexed": false,
          "internalType": "uint256",
          "name": "membershipPrice",
          "type": "uint256"
        },
        {
          "indexed": false,
          "internalType": "uint256",
          "name": "amount",
          "type": "uint256"
        }
      ],
      "name": "AskSetted",
      "type": "event"
    },
    {
      "anonymous": false,
      "inputs": [
        {
          "indexed": true,
          "internalType": "uint256",
          "name": "membershipId",
          "type": "uint256"
        },
        {
          "indexed": false,
          "internalType": "uint256",
          "name": "newRoyalty",
          "type": "uint256"
        }
      ],
      "name": "CreatorRoyaltyModifiedOnMembership",
      "type": "event"
    },
    {
      "anonymous": false,
      "inputs": [
        {
          "indexed": true,
          "internalType": "uint256",
          "name": "membershipId",
          "type": "uint256"
        },
        {
          "indexed": false,
          "internalType": "address",
          "name": "seller",
          "type": "address"
        },
        {
          "indexed": false,
          "internalType": "address",
          "name": "buyer",
          "type": "address"
        },
        {
          "indexed": false,
          "internalType": "uint256",
          "name": "price",
          "type": "uint256"
        },
        {
          "indexed": false,
          "internalType": "uint256",
          "name": "amount",
          "type": "uint256"
        }
      ],
      "name": "MembershipBought",
      "type": "event"
    },
    {
      "anonymous": false,
      "inputs": [
        {
          "indexed": true,
          "internalType": "uint256",
          "name": "membershipId",
          "type": "uint256"
        },
        {
          "indexed": false,
          "internalType": "address",
          "name": "owner",
          "type": "address"
        },
        {
          "indexed": false,
          "internalType": "uint256[]",
          "name": "ids",
          "type": "uint256[]"
        },
        {
          "indexed": false,
          "internalType": "uint256[]",
          "name": "amounts",
          "type": "uint256[]"
        }
      ],
      "name": "MembershipDeleted",
      "type": "event"
    },
    {
      "anonymous": false,
      "inputs": [
        {
          "indexed": true,
          "internalType": "uint256",
          "name": "membershipId",
          "type": "uint256"
        },
        {
          "indexed": false,
          "internalType": "string",
          "name": "newUri",
          "type": "string"
        }
      ],
      "name": "MembershipEdited",
      "type": "event"
    },
    {
      "anonymous": false,
      "inputs": [
        {
          "indexed": false,
          "internalType": "address",
          "name": "organizer",
          "type": "address"
        },
        {
          "indexed": true,
          "internalType": "uint256",
          "name": "membershipId",
          "type": "uint256"
        },
        {
          "indexed": false,
          "internalType": "uint256",
          "name": "amount",
          "type": "uint256"
        },
        {
          "indexed": false,
          "internalType": "uint256",
          "name": "price",
          "type": "uint256"
        },
        {
          "indexed": false,
          "internalType": "uint256",
          "name": "creatorRoyalty",
          "type": "uint256"
        },
        {
          "indexed": false,
          "internalType": "uint256",
          "name": "amountToSell",
          "type": "uint256"
        },
        {
          "indexed": false,
          "internalType": "bool",
          "name": "isResellable",
          "type": "bool"
        },
        {
          "indexed": false,
          "internalType": "string",
          "name": "uri",
          "type": "string"
        }
      ],
      "name": "MembershipPublished",
      "type": "event"
    },
    {
      "anonymous": false,
      "inputs": [
        {
          "indexed": true,
          "internalType": "address",
          "name": "previousOwner",
          "type": "address"
        },
        {
          "indexed": true,
          "internalType": "address",
          "name": "newOwner",
          "type": "address"
        }
      ],
      "name": "OwnershipTransferred",
      "type": "event"
    },
    {
      "anonymous": false,
      "inputs": [
        {
          "indexed": false,
          "internalType": "address",
          "name": "account",
          "type": "address"
        }
      ],
      "name": "Paused",
      "type": "event"
    },
    {
      "anonymous": false,
      "inputs": [
        {
          "indexed": true,
          "internalType": "uint256",
          "name": "membershipId",
          "type": "uint256"
        },
        {
          "indexed": false,
          "internalType": "uint256",
          "name": "newRoyalty",
          "type": "uint256"
        }
      ],
      "name": "PrimaryMarketRoyaltyModifiedOnMembership",
      "type": "event"
    },
    {
      "anonymous": false,
      "inputs": [
        {
          "indexed": true,
          "internalType": "uint256",
          "name": "membershipId",
          "type": "uint256"
        },
        {
          "indexed": false,
          "internalType": "uint256",
          "name": "newRoyalty",
          "type": "uint256"
        }
      ],
      "name": "SecondaryMarketRoyaltyModifiedOnMembership",
      "type": "event"
    },
    {
      "anonymous": false,
      "inputs": [
        {
          "indexed": false,
          "internalType": "address",
          "name": "account",
          "type": "address"
        }
      ],
      "name": "Unpaused",
      "type": "event"
    },
    {
      "inputs": [],
      "name": "adminAddress",
      "outputs": [
        {
          "internalType": "address",
          "name": "",
          "type": "address"
        }
      ],
      "stateMutability": "view",
      "type": "function"
    },
    {
      "inputs": [
        {
          "internalType": "uint256",
          "name": "membershipId",
          "type": "uint256"
        },
        {
          "internalType": "address",
          "name": "seller",
          "type": "address"
        },
        {
          "internalType": "uint256",
          "name": "amount",
          "type": "uint256"
        }
      ],
      "name": "buyMarketMembership",
      "outputs": [],
      "stateMutability": "payable",
      "type": "function"
    },
    {
      "inputs": [
        {
          "internalType": "uint256",
          "name": "membershipId",
          "type": "uint256"
        },
        {
          "internalType": "address",
          "name": "seller",
          "type": "address"
        },
        {
          "internalType": "address",
          "name": "claimer",
          "type": "address"
        }
      ],
      "name": "claimFreeMembership",
      "outputs": [],
      "stateMutability": "nonpayable",
      "type": "function"
    },
    {
      "inputs": [
        {
          "internalType": "uint256",
          "name": "membershipId",
          "type": "uint256"
        },
        {
          "internalType": "uint256[]",
          "name": "ids",
          "type": "uint256[]"
        },
        {
          "internalType": "uint256[]",
          "name": "amounts",
          "type": "uint256[]"
        }
      ],
      "name": "deleteMembership",
      "outputs": [],
      "stateMutability": "nonpayable",
      "type": "function"
    },
    {
      "inputs": [
        {
          "internalType": "address",
          "name": "_membershipAddress",
          "type": "address"
        },
        {
          "internalType": "address",
          "name": "_adminAddress",
          "type": "address"
        }
      ],
      "name": "initialize",
      "outputs": [],
      "stateMutability": "nonpayable",
      "type": "function"
    },
    {
      "inputs": [],
      "name": "membershipAddress",
      "outputs": [
        {
          "internalType": "address",
          "name": "",
          "type": "address"
        }
      ],
      "stateMutability": "view",
      "type": "function"
    },
    {
      "inputs": [
        {
          "internalType": "uint256",
          "name": "",
          "type": "uint256"
        }
      ],
      "name": "membershipsProperties",
      "outputs": [
        {
          "internalType": "uint256",
          "name": "creatorRoyalty",
          "type": "uint256"
        },
        {
          "internalType": "uint256",
          "name": "primaryMarketRoyalty",
          "type": "uint256"
        },
        {
          "internalType": "uint256",
          "name": "secondaryMarketRoyalty",
          "type": "uint256"
        },
        {
          "internalType": "address",
          "name": "creator",
          "type": "address"
        },
        {
          "internalType": "bool",
          "name": "isResellable",
          "type": "bool"
        }
      ],
      "stateMutability": "view",
      "type": "function"
    },
    {
      "inputs": [
        {
          "internalType": "uint256",
          "name": "membershipId",
          "type": "uint256"
        },
        {
          "internalType": "uint256",
          "name": "newCreatorRoyalty",
          "type": "uint256"
        }
      ],
      "name": "modifyCreatorRoyaltyOnMembership",
      "outputs": [],
      "stateMutability": "nonpayable",
      "type": "function"
    },
    {
      "inputs": [
        {
          "internalType": "uint256",
          "name": "membershipId",
          "type": "uint256"
        },
        {
          "internalType": "uint256",
          "name": "newMarketplaceRoyalty",
          "type": "uint256"
        }
      ],
      "name": "modifyPrimaryMarketplaceRoyaltyOnMembership",
      "outputs": [],
      "stateMutability": "nonpayable",
      "type": "function"
    },
    {
      "inputs": [
        {
          "internalType": "uint256",
          "name": "membershipId",
          "type": "uint256"
        },
        {
          "internalType": "uint256",
          "name": "newMarketplaceRoyalty",
          "type": "uint256"
        }
      ],
      "name": "modifySecondaryMarketplaceRoyaltyOnMembership",
      "outputs": [],
      "stateMutability": "nonpayable",
      "type": "function"
    },
    {
      "inputs": [
        {
          "internalType": "address",
          "name": "",
          "type": "address"
        },
        {
          "internalType": "uint256",
          "name": "",
          "type": "uint256"
        }
      ],
      "name": "offers",
      "outputs": [
        {
          "internalType": "uint256",
          "name": "amount",
          "type": "uint256"
        },
        {
          "internalType": "uint256",
          "name": "price",
          "type": "uint256"
        }
      ],
      "stateMutability": "view",
      "type": "function"
    },
    {
      "inputs": [
        {
          "internalType": "address",
          "name": "",
          "type": "address"
        },
        {
          "internalType": "uint256",
          "name": "",
          "type": "uint256"
        }
      ],
      "name": "organizerMemberships",
      "outputs": [
        {
          "internalType": "uint256",
          "name": "",
          "type": "uint256"
        }
      ],
      "stateMutability": "view",
      "type": "function"
    },
    {
      "inputs": [],
      "name": "owner",
      "outputs": [
        {
          "internalType": "address",
          "name": "",
          "type": "address"
        }
      ],
      "stateMutability": "view",
      "type": "function"
    },
    {
      "inputs": [],
      "name": "pause",
      "outputs": [],
      "stateMutability": "nonpayable",
      "type": "function"
    },
    {
      "inputs": [],
      "name": "paused",
      "outputs": [
        {
          "internalType": "bool",
          "name": "",
          "type": "bool"
        }
      ],
      "stateMutability": "view",
      "type": "function"
    },
    {
      "inputs": [
        {
          "components": [
            {
              "internalType": "uint256",
              "name": "amount",
              "type": "uint256"
            },
            {
              "internalType": "uint256",
              "name": "price",
              "type": "uint256"
            },
            {
              "internalType": "uint256",
              "name": "royalty",
              "type": "uint256"
            },
            {
              "internalType": "uint256",
              "name": "amountToSell",
              "type": "uint256"
            },
            {
              "internalType": "bool",
              "name": "isResellable",
              "type": "bool"
            },
            {
              "internalType": "string",
              "name": "uri",
              "type": "string"
            }
          ],
          "internalType": "struct NewAssetSaleInfo[]",
          "name": "memberships",
          "type": "tuple[]"
        }
      ],
      "name": "publishMemberships",
      "outputs": [
        {
          "internalType": "uint256[]",
          "name": "membershipIds",
          "type": "uint256[]"
        }
      ],
      "stateMutability": "nonpayable",
      "type": "function"
    },
    {
      "inputs": [
        {
          "internalType": "uint256",
          "name": "membershipId",
          "type": "uint256"
        }
      ],
      "name": "removeAsk",
      "outputs": [],
      "stateMutability": "nonpayable",
      "type": "function"
    },
    {
      "inputs": [],
      "name": "renounceOwnership",
      "outputs": [],
      "stateMutability": "nonpayable",
      "type": "function"
    },
    {
      "inputs": [
        {
          "internalType": "uint256",
          "name": "membershipId",
          "type": "uint256"
        },
        {
          "internalType": "uint256",
          "name": "membershipPrice",
          "type": "uint256"
        },
        {
          "internalType": "uint256",
          "name": "amount",
          "type": "uint256"
        }
      ],
      "name": "setAsk",
      "outputs": [],
      "stateMutability": "nonpayable",
      "type": "function"
    },
    {
      "inputs": [
        {
          "internalType": "uint256",
          "name": "membershipId",
          "type": "uint256"
        },
        {
          "internalType": "string",
          "name": "newUri",
          "type": "string"
        }
      ],
      "name": "setMembershipUri",
      "outputs": [],
      "stateMutability": "nonpayable",
      "type": "function"
    },
    {
      "inputs": [
        {
          "internalType": "uint256",
          "name": "membershipId",
          "type": "uint256"
        },
        {
          "internalType": "address",
          "name": "newOwner",
          "type": "address"
        }
      ],
      "name": "transferMembershipOwnership",
      "outputs": [],
      "stateMutability": "nonpayable",
      "type": "function"
    },
    {
      "inputs": [
        {
          "internalType": "address",
          "name": "newOwner",
          "type": "address"
        }
      ],
      "name": "transferOwnership",
      "outputs": [],
      "stateMutability": "nonpayable",
      "type": "function"
    },
    {
      "inputs": [],
      "name": "unpause",
      "outputs": [],
      "stateMutability": "nonpayable",
      "type": "function"
    }
  ],
  "bytecode": "0x608060405234801561001057600080fd5b5061334d806100206000396000f3fe6080604052600436106101405760003560e01c806376fb0885116100b657806396a04a151161006f57806396a04a15146103ce578063a2b9f516146103ee578063aa1a84111461041c578063ac820c4c14610470578063f2fde38b14610490578063fc6f9468146104b057600080fd5b806376fb08851461031b5780637f6bc6931461033b5780638456cb591461035b57806384be9ad5146103705780638da5cb5b14610390578063924b2a4d146103ae57600080fd5b80633f4ba83a116101085780633f4ba83a14610261578063485cc955146102765780634da91157146102965780634e23aed4146102b65780635c975abb146102e3578063715018a61461030657600080fd5b8063115a006314610145578063176a11c3146101d4578063188d9de8146101f65780631c8a1e201461020957806328220f3514610241575b600080fd5b34801561015157600080fd5b5061019c610160366004612a48565b60cc602052600090815260409020805460018201546002830154600390930154919290916001600160a01b03811690600160a01b900460ff1685565b604080519586526020860194909452928401919091526001600160a01b031660608301521515608082015260a0015b60405180910390f35b3480156101e057600080fd5b506101f46101ef366004612a76565b6104d0565b005b6101f4610204366004612ab8565b610858565b34801561021557600080fd5b5060c954610229906001600160a01b031681565b6040516001600160a01b0390911681526020016101cb565b34801561024d57600080fd5b506101f461025c366004612a48565b610e5d565b34801561026d57600080fd5b506101f4610f9c565b34801561028257600080fd5b506101f4610291366004612af0565b610fd0565b3480156102a257600080fd5b506101f46102b1366004612b29565b6110d3565b3480156102c257600080fd5b506102d66102d1366004612b4b565b6111ae565b6040516101cb9190612bfb565b3480156102ef57600080fd5b5060655460ff1660405190151581526020016101cb565b34801561031257600080fd5b506101f4611bfc565b34801561032757600080fd5b506101f4610336366004612c0e565b611c30565b34801561034757600080fd5b506101f4610356366004612c3a565b611e39565b34801561036757600080fd5b506101f46120ea565b34801561037c57600080fd5b506101f461038b366004612d10565b61211c565b34801561039c57600080fd5b506033546001600160a01b0316610229565b3480156103ba57600080fd5b506101f46103c9366004612b29565b61231e565b3480156103da57600080fd5b506101f46103e9366004612d7d565b612429565b3480156103fa57600080fd5b5061040e610409366004612df9565b6125ca565b6040519081526020016101cb565b34801561042857600080fd5b5061045b610437366004612df9565b60cd6020908152600092835260408084209091529082529020805460019091015482565b604080519283526020830191909152016101cb565b34801561047c57600080fd5b506101f461048b366004612b29565b6125fb565b34801561049c57600080fd5b506101f46104ab366004612e25565b6126ca565b3480156104bc57600080fd5b5060ca54610229906001600160a01b031681565b60c954604051627eeac760e11b81526001600160a01b03848116600483015260248201869052600192169062fdd58e9060440160206040518083038186803b15801561051b57600080fd5b505afa15801561052f573d6000803e3d6000fd5b505050506040513d601f19601f820116820180604052508101906105539190612e42565b10156105a65760405162461bcd60e51b815260206004820181905260248201527f53656c6c6572206861736e7420656e6f756768206d656d62657273686970732e60448201526064015b60405180910390fd5b60c954604051627eeac760e11b81526001600160a01b038381166004830152602482018690529091169062fdd58e9060440160206040518083038186803b1580156105f057600080fd5b505afa158015610604573d6000803e3d6000fd5b505050506040513d601f19601f820116820180604052508101906106289190612e42565b156106715760405162461bcd60e51b815260206004820152601960248201527821b630b4b6b2b9103430b990309036b2b6b132b939b434b81760391b604482015260640161059d565b6001600160a01b038216600090815260cd60209081526040808320868452909152902060010154156106e55760405162461bcd60e51b815260206004820152601760248201527f4d656d62657273686970206973206e6f7420667265652e000000000000000000604482015260640161059d565b6001600160a01b038216600090815260cd60209081526040808320868452909152902054600111156107595760405162461bcd60e51b815260206004820181905260248201527f4e6f7420656e6f756768206d656d626572736869707320666f7220636c61696d604482015260640161059d565b60c954604051637921219560e11b81526001600160a01b039091169063f242432a9061079090859085908890600190600401612e5b565b600060405180830381600087803b1580156107aa57600080fd5b505af11580156107be573d6000803e3d6000fd5b505050506001600160a01b038216600090815260cd6020908152604080832086845290915281208054600192906107f6908490612ea9565b9091555050604080516001600160a01b038085168252831660208201526000918101919091526001606082015283907f5854d85f864d8f52580571d83d20eaafb44a4e4a1434b1370e87bf1d8ff8bb76906080015b60405180910390a2505050565b60655460ff161561087b5760405162461bcd60e51b815260040161059d90612ec0565b600260975414156108ce5760405162461bcd60e51b815260206004820152601f60248201527f5265656e7472616e637947756172643a207265656e7472616e742063616c6c00604482015260640161059d565b600260975560c954604051627eeac760e11b81526001600160a01b038481166004830152602482018690528392169062fdd58e9060440160206040518083038186803b15801561091d57600080fd5b505afa158015610931573d6000803e3d6000fd5b505050506040513d601f19601f820116820180604052508101906109559190612e42565b10156109a35760405162461bcd60e51b815260206004820152601f60248201527f53656c6c6572206861736e7420656e6f756768206d656d626572736869702e00604482015260640161059d565b6001600160a01b038216600090815260cd60209081526040808320868452909152902054811115610a165760405162461bcd60e51b815260206004820152601e60248201527f4e6f7420656e6f756768206d656d6265727368697020666f722073616c650000604482015260640161059d565b6001600160a01b038216600090815260cd60209081526040808320868452909152902060010154610a479082612eea565b3414610a955760405162461bcd60e51b815260206004820152601a60248201527f56616c756520646f6573206e6f74206d61746368207072696365000000000000604482015260640161059d565b336001600160a01b0383161415610aee5760405162461bcd60e51b815260206004820181905260248201527f596f752063616e742062757920796f7572206f776e206d656d62657273686970604482015260640161059d565b6001600160a01b03828116600090815260cd60209081526040808320878452808352818420600181015460cc8552928520600301549190935282549194169247928692909190610b3f908490612ea9565b909155505082610c675783600114610b995760405162461bcd60e51b815260206004820181905260248201527f43616e206f6e6c7920627579206f6e652066726565206d656d62657273686970604482015260640161059d565b60c954604051627eeac760e11b8152336004820152602481018890526001600160a01b039091169062fdd58e9060440160206040518083038186803b158015610be157600080fd5b505afa158015610bf5573d6000803e3d6000fd5b505050506040513d601f19601f82011682018060405250810190610c199190612e42565b15610c625760405162461bcd60e51b815260206004820152601960248201527821b630b4b6b2b9103430b990309036b2b6b132b939b434b81760391b604482015260640161059d565b610d7c565b816001600160a01b0316856001600160a01b03161415610ce757600086815260cc6020526040812060010154610c9e908590612765565b90506000610cac8286612ea9565b9050610cc184610cbc8884612eea565b612785565b610ce0610cd66033546001600160a01b031690565b610cbc8489612eea565b5050610d7c565b600086815260cc6020526040812060020154610d04908590612765565b600088815260cc602052604081205491925090610d22908690612765565b9050600081610d318488612ea9565b610d3b9190612ea9565b9050610d4b88610cbc8984612eea565b610d5985610cbc8985612eea565b610d78610d6e6033546001600160a01b031690565b610cbc8986612eea565b5050505b60c954604051637921219560e11b81526001600160a01b039091169063f242432a90610db290889033908b908a90600401612e5b565b600060405180830381600087803b158015610dcc57600080fd5b505af1158015610de0573d6000803e3d6000fd5b50505050344782610df19190612ea9565b14610dfe57610dfe612f09565b604080516001600160a01b03871681523360208201529081018490526060810185905286907f5854d85f864d8f52580571d83d20eaafb44a4e4a1434b1370e87bf1d8ff8bb769060800160405180910390a25050600160975550505050565b60655460ff1615610e805760405162461bcd60e51b815260040161059d90612ec0565b60c954604051627eeac760e11b8152336004820152602481018390526000916001600160a01b03169062fdd58e9060440160206040518083038186803b158015610ec957600080fd5b505afa158015610edd573d6000803e3d6000fd5b505050506040513d601f19601f82011682018060405250810190610f019190612e42565b11610f4e5760405162461bcd60e51b815260206004820152601960248201527f53656e64657220686173206e6f206d656d626572736869702e00000000000000604482015260640161059d565b33600081815260cd60209081526040808320858452909152808220828155600101829055518392917f1f2fa6bb5353160dec9640945a0fbf286bda8907835ad6b88dc06ff271382fc091a350565b6033546001600160a01b03163314610fc65760405162461bcd60e51b815260040161059d90612f1f565b610fce6127ed565b565b600054610100900460ff16610feb5760005460ff1615610fef565b303b155b6110525760405162461bcd60e51b815260206004820152602e60248201527f496e697469616c697a61626c653a20636f6e747261637420697320616c72656160448201526d191e481a5b9a5d1a585b1a5e995960921b606482015260840161059d565b600054610100900460ff16158015611074576000805461ffff19166101011790555b60c980546001600160a01b038086166001600160a01b03199283161790925560ca8054928516929091169190911790556110ac612880565b6110b46128af565b6110bc6128de565b80156110ce576000805461ff00191690555b505050565b6033546001600160a01b031633146110fd5760405162461bcd60e51b815260040161059d90612f1f565b60655460ff16156111205760405162461bcd60e51b815260040161059d90612ec0565b600082815260cc602052604090205461113b90612710612ea9565b81111561115a5760405162461bcd60e51b815260040161059d90612f54565b600082815260cc6020526040908190206001018290555182907fbed32841fcb9dfcfcb2b88aa80781084e37fede9cdaad4e9c587b015c0f81276906111a29084815260200190565b60405180910390a25050565b60606111bc60655460ff1690565b156111d95760405162461bcd60e51b815260040161059d90612ec0565b6002609754141561122c5760405162461bcd60e51b815260206004820152601f60248201527f5265656e7472616e637947756172643a207265656e7472616e742063616c6c00604482015260640161059d565b60026097558160008167ffffffffffffffff81111561124d5761124d612c5f565b604051908082528060200260200182016040528015611276578160200160208202803683370190505b50905060008267ffffffffffffffff81111561129457611294612c5f565b6040519080825280602002602001820160405280156112bd578160200160208202803683370190505b50905060008367ffffffffffffffff8111156112db576112db612c5f565b60405190808252806020026020018201604052801561130e57816020015b60608152602001906001900390816112f95790505b50905060005b848110156119d25760ca60009054906101000a90046001600160a01b03166001600160a01b031663a696ac7b6040518163ffffffff1660e01b815260040160206040518083038186803b15801561136a57600080fd5b505afa15801561137e573d6000803e3d6000fd5b505050506040513d601f19601f820116820180604052508101906113a29190612f79565b6113ae90612710612f9d565b61ffff168888838181106113c4576113c4612fc0565b90506020028101906113d69190612fd6565b6040013511156114285760405162461bcd60e51b815260206004820181905260248201527f43726561746f7220726f79616c74792061626f766520746865206c696d69742e604482015260640161059d565b87878281811061143a5761143a612fc0565b905060200281019061144c9190612fd6565b602001351580611485575061271088888381811061146c5761146c612fc0565b905060200281019061147e9190612fd6565b6020013510155b6114d15760405162461bcd60e51b815260206004820152601b60248201527f41736b696e672070726963652062656c6f77206d696e696d756d2e0000000000604482015260640161059d565b8787828181106114e3576114e3612fc0565b90506020028101906114f59190612fd6565b3588888381811061150857611508612fc0565b905060200281019061151a9190612fd6565b60600135111561156c5760405162461bcd60e51b815260206004820152601b60248201527f416d6f756e7420746f2073656c6c20697320746f6f20686967682e0000000000604482015260640161059d565b87878281811061157e5761157e612fc0565b90506020028101906115909190612fd6565b6115a19060a0810190608001612ff6565b15156001141561161f578787828181106115bd576115bd612fc0565b90506020028101906115cf9190612fd6565b6020013561161f5760405162461bcd60e51b815260206004820152601860248201527f4672656520617265206e6f7420726573656c6c61626c652e0000000000000000604482015260640161059d565b61162d60ce80546001019055565b600061163860ce5490565b90506040518060a001604052808a8a8581811061165757611657612fc0565b90506020028101906116699190612fd6565b60400135815260200160ca60009054906101000a90046001600160a01b03166001600160a01b0316630ba7edf96040518163ffffffff1660e01b815260040160206040518083038186803b1580156116c057600080fd5b505afa1580156116d4573d6000803e3d6000fd5b505050506040513d601f19601f820116820180604052508101906116f89190612f79565b61ffff16815260ca546040805163a696ac7b60e01b815290516020938401936001600160a01b039093169263a696ac7b9260048082019391829003018186803b15801561174457600080fd5b505afa158015611758573d6000803e3d6000fd5b505050506040513d601f19601f8201168201806040525081019061177c9190612f79565b61ffff1681523360208201526040018a8a8581811061179d5761179d612fc0565b90506020028101906117af9190612fd6565b6117c09060a0810190608001612ff6565b15159052600082815260cc6020908152604091829020835181559083015160018201558282015160028201556060830151600390910180546080909401511515600160a01b026001600160a81b03199094166001600160a01b0390921691909117929092179091558051808201909152808a8a8581811061184357611843612fc0565b90506020028101906118559190612fd6565b6060013581526020018a8a8581811061187057611870612fc0565b90506020028101906118829190612fd6565b60209081013590915233600090815260cd825260408082208583528352902082518155910151600190910155845181908690849081106118c4576118c4612fc0565b60209081029190910181019190915233600090815260cb82526040812080546001810182559082529190200181905588888381811061190557611905612fc0565b90506020028101906119179190612fd6565b6000013584838151811061192d5761192d612fc0565b60200260200101818152505088888381811061194b5761194b612fc0565b905060200281019061195d9190612fd6565b61196b9060a0810190613018565b8080601f01602080910402602001604051908101604052809392919081815260200183838082843760009201919091525050855186925085915081106119b3576119b3612fc0565b60200260200101819052505080806119ca90613066565b915050611314565b5060c954604051632e55c7a160e21b81526001600160a01b039091169063b9571e8490611a099033908790879087906004016130ce565b600060405180830381600087803b158015611a2357600080fd5b505af1158015611a37573d6000803e3d6000fd5b5050505060005b84811015611b9057838181518110611a5857611a58612fc0565b60200260200101517f5d538cb0107ea3d68ab528bd7f9f371c413b798f7dc4b6eed892b3047ec81dc233858481518110611a9457611a94612fc0565b60200260200101518b8b86818110611aae57611aae612fc0565b9050602002810190611ac09190612fd6565b602001358c8c87818110611ad657611ad6612fc0565b9050602002810190611ae89190612fd6565b604001358d8d88818110611afe57611afe612fc0565b9050602002810190611b109190612fd6565b606001358e8e89818110611b2657611b26612fc0565b9050602002810190611b389190612fd6565b611b499060a0810190608001612ff6565b898981518110611b5b57611b5b612fc0565b6020026020010151604051611b769796959493929190613177565b60405180910390a280611b8881613066565b915050611a3e565b5033600090815260cb602090815260409182902080548351818402810184019094528084529091830182828015611be657602002820191906000526020600020905b815481526020019060010190808311611bd2575b5050505050945050505050600160975592915050565b6033546001600160a01b03163314611c265760405162461bcd60e51b815260040161059d90612f1f565b610fce600061290d565b60655460ff1615611c535760405162461bcd60e51b815260040161059d90612ec0565b612710821015611c9c5760405162461bcd60e51b8152602060048201526014602482015273283934b1b2903132b637bb9036b4b734b6bab69760611b604482015260640161059d565b60c954604051627eeac760e11b8152336004820152602481018590526000916001600160a01b03169062fdd58e9060440160206040518083038186803b158015611ce557600080fd5b505afa158015611cf9573d6000803e3d6000fd5b505050506040513d601f19601f82011682018060405250810190611d1d9190612e42565b11611d6a5760405162461bcd60e51b815260206004820181905260248201527f53656e64657220646f6573206e6f742068617665206d656d626572736869702e604482015260640161059d565b600083815260cc6020526040902060030154600160a01b900460ff161515600114611dd75760405162461bcd60e51b815260206004820152601d60248201527f4d656d62657273686970206973206e6f7420726573656c6c61626c652e000000604482015260640161059d565b33600081815260cd6020908152604080832087845282529182902060018101869055849055815185815290810184905285917f8ec7d10a665f515f3ad661c546d2be60646cad45663216169480028e51659e83910160405180910390a3505050565b600082815260cc602052604090206003015482906001600160a01b03163314611e9f5760405162461bcd60e51b81526020600482015260186024820152774f6e6c792063726561746f7220697320616c6c6f7765642160401b604482015260640161059d565b60655460ff1615611ec25760405162461bcd60e51b815260040161059d90612ec0565b33600081815260cd602090815260408083208784529091528082208281556001019190915560c9549051627eeac760e11b815260048101839052602481018690526001600160a01b039091169163f242432a9185908790859062fdd58e9060440160206040518083038186803b158015611f3b57600080fd5b505afa158015611f4f573d6000803e3d6000fd5b505050506040513d601f19601f82011682018060405250810190611f739190612e42565b6040518563ffffffff1660e01b8152600401611f929493929190612e5b565b600060405180830381600087803b158015611fac57600080fd5b505af1158015611fc0573d6000803e3d6000fd5b505050600084815260cc6020908152604080832060030180546001600160a01b0319166001600160a01b03881617905533835260cb825280832080548251818502810185019093528083529394509092909183018282801561204157602002820191906000526020600020905b81548152602001906001019080831161202d575b5050505050905060005b81518160ff1610156120c15784828260ff168151811061206d5761206d612fc0565b602002602001015114156120af5733600090815260cb60205260409020805460ff831690811061209f5761209f612fc0565b60009182526020822001556120c1565b806120b9816131c5565b91505061204b565b505033600090815260cb6020908152604082208054600181018255908352912001929092555050565b6033546001600160a01b031633146121145760405162461bcd60e51b815260040161059d90612f1f565b610fce61295f565b60655460ff161561213f5760405162461bcd60e51b815260040161059d90612ec0565b600083815260cc602052604090206003015483906001600160a01b03163314806121ea5750336001600160a01b0316306001600160a01b0316638da5cb5b6040518163ffffffff1660e01b815260040160206040518083038186803b1580156121a757600080fd5b505afa1580156121bb573d6000803e3d6000fd5b505050506040513d601f19601f820116820180604052508101906121df91906131e5565b6001600160a01b0316145b6122255760405162461bcd60e51b815260206004820152600c60248201526b4e6f7420616c6c6f7765642160a01b604482015260640161059d565b81518351146122765760405162461bcd60e51b815260206004820152601f60248201527f49647320616e6420616d6f756e747320636f756e74206d69736d617463682e00604482015260640161059d565b60c954604051631ac8311560e21b81526001600160a01b0390911690636b20c454906122aa90339087908790600401613202565b600060405180830381600087803b1580156122c457600080fd5b505af11580156122d8573d6000803e3d6000fd5b50505050837f0f56acc8481e633e90d367352961d2866fb23a87a04e4cc6705dfe4b5253647733858560405161231093929190613202565b60405180910390a250505050565b600082815260cc602052604090206003015482906001600160a01b031633146123845760405162461bcd60e51b81526020600482015260186024820152774f6e6c792063726561746f7220697320616c6c6f7765642160401b604482015260640161059d565b60655460ff16156123a75760405162461bcd60e51b815260040161059d90612ec0565b600083815260cc60205260409020600201546123c590612710612ea9565b8211156123e45760405162461bcd60e51b815260040161059d90612f54565b600083815260cc6020526040908190208390555183907f86ee7f298ad679313fca26366c144f244b007796d126d354d17aeae548f2d4239061084b9085815260200190565b60655460ff161561244c5760405162461bcd60e51b815260040161059d90612ec0565b600083815260cc602052604090206003015483906001600160a01b03163314806124f75750336001600160a01b0316306001600160a01b0316638da5cb5b6040518163ffffffff1660e01b815260040160206040518083038186803b1580156124b457600080fd5b505afa1580156124c8573d6000803e3d6000fd5b505050506040513d601f19601f820116820180604052508101906124ec91906131e5565b6001600160a01b0316145b6125325760405162461bcd60e51b815260206004820152600c60248201526b4e6f7420616c6c6f7765642160a01b604482015260640161059d565b60c954604051633c17845760e11b81526001600160a01b039091169063782f08ae906125669087908790879060040161326b565b600060405180830381600087803b15801561258057600080fd5b505af1158015612594573d6000803e3d6000fd5b50505050837fc241e7e9ffd0e2d65c22a830255600acd409400b2d68f6ba52c5fabc671fd476848460405161231092919061328e565b60cb60205281600052604060002081815481106125e657600080fd5b90600052602060002001600091509150505481565b6033546001600160a01b031633146126255760405162461bcd60e51b815260040161059d90612f1f565b60655460ff16156126485760405162461bcd60e51b815260040161059d90612ec0565b600082815260cc602052604090205461266390612710612ea9565b8111156126825760405162461bcd60e51b815260040161059d90612f54565b600082815260cc6020526040908190206002018290555182907f3e82792afe09fe5256c4532c73b38598f3bcfc60227891ffa6ad41b1ca10ac2c906111a29084815260200190565b6033546001600160a01b031633146126f45760405162461bcd60e51b815260040161059d90612f1f565b6001600160a01b0381166127595760405162461bcd60e51b815260206004820152602660248201527f4f776e61626c653a206e6577206f776e657220697320746865207a65726f206160448201526564647265737360d01b606482015260840161059d565b6127628161290d565b50565b60006127106127748385612eea565b61277e91906132aa565b9392505050565b6000826001600160a01b031682610a2890604051600060405180830381858888f193505050503d80600081146127d7576040519150601f19603f3d011682016040523d82523d6000602084013e6127dc565b606091505b50509050806110ce576110ce612f09565b60655460ff166128365760405162461bcd60e51b815260206004820152601460248201527314185d5cd8589b194e881b9bdd081c185d5cd95960621b604482015260640161059d565b6065805460ff191690557f5db9ee0a495bf2e6ff9c91a7834c1ba4fdd244a5e8aa4e537bd38aeae4b073aa335b6040516001600160a01b03909116815260200160405180910390a1565b600054610100900460ff166128a75760405162461bcd60e51b815260040161059d906132cc565b610fce6129b7565b600054610100900460ff166128d65760405162461bcd60e51b815260040161059d906132cc565b610fce6129e7565b600054610100900460ff166129055760405162461bcd60e51b815260040161059d906132cc565b610fce612a1a565b603380546001600160a01b038381166001600160a01b0319831681179093556040519116919082907f8be0079c531659141344cd1fd0a4f28419497f9722a3daafe3b4186f6b6457e090600090a35050565b60655460ff16156129825760405162461bcd60e51b815260040161059d90612ec0565b6065805460ff191660011790557f62e78cea01bee320cd4e420270b5ea74000d11b0c9f74754ebdbfc544b05a2586128633390565b600054610100900460ff166129de5760405162461bcd60e51b815260040161059d906132cc565b610fce3361290d565b600054610100900460ff16612a0e5760405162461bcd60e51b815260040161059d906132cc565b6065805460ff19169055565b600054610100900460ff16612a415760405162461bcd60e51b815260040161059d906132cc565b6001609755565b600060208284031215612a5a57600080fd5b5035919050565b6001600160a01b038116811461276257600080fd5b600080600060608486031215612a8b57600080fd5b833592506020840135612a9d81612a61565b91506040840135612aad81612a61565b809150509250925092565b600080600060608486031215612acd57600080fd5b833592506020840135612adf81612a61565b929592945050506040919091013590565b60008060408385031215612b0357600080fd5b8235612b0e81612a61565b91506020830135612b1e81612a61565b809150509250929050565b60008060408385031215612b3c57600080fd5b50508035926020909101359150565b60008060208385031215612b5e57600080fd5b823567ffffffffffffffff80821115612b7657600080fd5b818501915085601f830112612b8a57600080fd5b813581811115612b9957600080fd5b8660208260051b8501011115612bae57600080fd5b60209290920196919550909350505050565b600081518084526020808501945080840160005b83811015612bf057815187529582019590820190600101612bd4565b509495945050505050565b60208152600061277e6020830184612bc0565b600080600060608486031215612c2357600080fd5b505081359360208301359350604090920135919050565b60008060408385031215612c4d57600080fd5b823591506020830135612b1e81612a61565b634e487b7160e01b600052604160045260246000fd5b600082601f830112612c8657600080fd5b8135602067ffffffffffffffff80831115612ca357612ca3612c5f565b8260051b604051601f19603f83011681018181108482111715612cc857612cc8612c5f565b604052938452858101830193838101925087851115612ce657600080fd5b83870191505b84821015612d0557813583529183019190830190612cec565b979650505050505050565b600080600060608486031215612d2557600080fd5b83359250602084013567ffffffffffffffff80821115612d4457600080fd5b612d5087838801612c75565b93506040860135915080821115612d6657600080fd5b50612d7386828701612c75565b9150509250925092565b600080600060408486031215612d9257600080fd5b83359250602084013567ffffffffffffffff80821115612db157600080fd5b818601915086601f830112612dc557600080fd5b813581811115612dd457600080fd5b876020828501011115612de657600080fd5b6020830194508093505050509250925092565b60008060408385031215612e0c57600080fd5b8235612e1781612a61565b946020939093013593505050565b600060208284031215612e3757600080fd5b813561277e81612a61565b600060208284031215612e5457600080fd5b5051919050565b6001600160a01b0394851681529290931660208301526040820152606081019190915260a06080820181905260009082015260c00190565b634e487b7160e01b600052601160045260246000fd5b600082821015612ebb57612ebb612e93565b500390565b60208082526010908201526f14185d5cd8589b194e881c185d5cd95960821b604082015260600190565b6000816000190483118215151615612f0457612f04612e93565b500290565b634e487b7160e01b600052600160045260246000fd5b6020808252818101527f4f776e61626c653a2063616c6c6572206973206e6f7420746865206f776e6572604082015260600190565b6020808252600b908201526a20b137bb3290189818129760a91b604082015260600190565b600060208284031215612f8b57600080fd5b815161ffff8116811461277e57600080fd5b600061ffff83811690831681811015612fb857612fb8612e93565b039392505050565b634e487b7160e01b600052603260045260246000fd5b6000823560be19833603018112612fec57600080fd5b9190910192915050565b60006020828403121561300857600080fd5b8135801515811461277e57600080fd5b6000808335601e1984360301811261302f57600080fd5b83018035915067ffffffffffffffff82111561304a57600080fd5b60200191503681900382131561305f57600080fd5b9250929050565b600060001982141561307a5761307a612e93565b5060010190565b6000815180845260005b818110156130a75760208185018101518683018201520161308b565b818111156130b9576000602083870101525b50601f01601f19169290920160200192915050565b6001600160a01b038516815260a060208083018290526000916130f390840187612bc0565b83810360408501526131058187612bc0565b905083810360608501528085518083528383019150838160051b84010184880160005b8381101561315657601f19868403018552613144838351613081565b94870194925090860190600101613128565b5050868103608088015260008152602081019b9a5050505050505050505050565b60018060a01b038816815286602082015285604082015284606082015283608082015282151560a082015260e060c082015260006131b860e0830184613081565b9998505050505050505050565b600060ff821660ff8114156131dc576131dc612e93565b60010192915050565b6000602082840312156131f757600080fd5b815161277e81612a61565b6001600160a01b038416815260606020820181905260009061322690830185612bc0565b82810360408401526132388185612bc0565b9695505050505050565b81835281816020850137506000828201602090810191909152601f909101601f19169091010190565b838152604060208201526000613285604083018486613242565b95945050505050565b6020815260006132a2602083018486613242565b949350505050565b6000826132c757634e487b7160e01b600052601260045260246000fd5b500490565b6020808252602b908201527f496e697469616c697a61626c653a20636f6e7472616374206973206e6f74206960408201526a6e697469616c697a696e6760a81b60608201526080019056fea2646970667358221220b3501516fe633d84863cef87c722abbf5038da378193eced9d5dd201f629548864736f6c63430008090033",
  "linkReferences": {},
  "deployedLinkReferences": {}
}