{
  "_format": "hh-sol-artifact-1",
  "contractName": "MembershipsMarketplace",
  "sourceName": "src/MembershipsMarketplace.sol",
  "abi": [
    {
      "anonymous": false,
      "inputs": [
        {
          "indexed": true,
          "internalType": "uint256",
          "name": "membershipId",
          "type": "uint256"
        },
        {
          "indexed": true,
          "internalType": "uint256",
          "name": "allowanceId",
          "type": "uint256"
        },
        {
          "components": [
            {
              "internalType": "uint256",
              "name": "amount",
              "type": "uint256"
            },
            {
              "internalType": "address[]",
              "name": "allowedAddresses",
              "type": "address[]"
            }
          ],
          "indexed": false,
          "internalType": "struct AllowanceInput",
          "name": "allowance",
          "type": "tuple"
        }
      ],
      "name": "AllowanceAdded",
      "type": "event"
    },
    {
      "anonymous": false,
      "inputs": [
        {
          "indexed": true,
          "internalType": "uint256",
          "name": "allowanceId",
          "type": "uint256"
        }
      ],
      "name": "AllowanceConsumed",
      "type": "event"
    },
    {
      "anonymous": false,
      "inputs": [
        {
          "indexed": true,
          "internalType": "uint256",
          "name": "membershipId",
          "type": "uint256"
        },
        {
          "indexed": true,
          "internalType": "uint256",
          "name": "allowanceId",
          "type": "uint256"
        }
      ],
      "name": "AllowanceRemoved",
      "type": "event"
    },
    {
      "anonymous": false,
      "inputs": [
        {
          "indexed": true,
          "internalType": "address",
          "name": "seller",
          "type": "address"
        },
        {
          "indexed": true,
          "internalType": "uint256",
          "name": "membershipId",
          "type": "uint256"
        }
      ],
      "name": "AskRemoved",
      "type": "event"
    },
    {
      "anonymous": false,
      "inputs": [
        {
          "indexed": true,
          "internalType": "uint256",
          "name": "membershipId",
          "type": "uint256"
        },
        {
          "indexed": true,
          "internalType": "address",
          "name": "seller",
          "type": "address"
        },
        {
          "indexed": false,
          "internalType": "uint256",
          "name": "membershipPrice",
          "type": "uint256"
        },
        {
          "indexed": false,
          "internalType": "uint256",
          "name": "amount",
          "type": "uint256"
        }
      ],
      "name": "AskSetted",
      "type": "event"
    },
    {
      "anonymous": false,
      "inputs": [
        {
          "indexed": true,
          "internalType": "uint256",
          "name": "membershipId",
          "type": "uint256"
        },
        {
          "indexed": false,
          "internalType": "uint256",
          "name": "newRoyalty",
          "type": "uint256"
        }
      ],
      "name": "CreatorRoyaltyModifiedOnMembership",
      "type": "event"
    },
    {
      "anonymous": false,
      "inputs": [
        {
          "indexed": true,
          "internalType": "uint256",
          "name": "membershipId",
          "type": "uint256"
        },
        {
          "indexed": false,
          "internalType": "address",
          "name": "seller",
          "type": "address"
        },
        {
          "indexed": false,
          "internalType": "address",
          "name": "buyer",
          "type": "address"
        },
        {
          "indexed": false,
          "internalType": "uint256",
          "name": "price",
          "type": "uint256"
        },
        {
          "indexed": false,
          "internalType": "uint256",
          "name": "amount",
          "type": "uint256"
        }
      ],
      "name": "MembershipBought",
      "type": "event"
    },
    {
      "anonymous": false,
      "inputs": [
        {
          "indexed": true,
          "internalType": "uint256",
          "name": "membershipId",
          "type": "uint256"
        },
        {
          "indexed": false,
          "internalType": "string",
          "name": "newUri",
          "type": "string"
        }
      ],
      "name": "MembershipEdited",
      "type": "event"
    },
    {
      "anonymous": false,
      "inputs": [
        {
          "indexed": false,
          "internalType": "address",
          "name": "organizer",
          "type": "address"
        },
        {
          "indexed": true,
          "internalType": "uint256",
          "name": "membershipId",
          "type": "uint256"
        },
        {
          "indexed": false,
          "internalType": "uint256",
          "name": "amount",
          "type": "uint256"
        },
        {
          "components": [
            {
              "internalType": "uint256",
              "name": "amount",
              "type": "uint256"
            },
            {
              "internalType": "uint256",
              "name": "price",
              "type": "uint256"
            },
            {
              "internalType": "uint256",
              "name": "royalty",
              "type": "uint256"
            },
            {
              "internalType": "uint256",
              "name": "amountToSell",
              "type": "uint256"
            },
            {
              "internalType": "bool",
              "name": "isResellable",
              "type": "bool"
            },
            {
              "internalType": "string",
              "name": "uri",
              "type": "string"
            },
            {
              "internalType": "bool",
              "name": "isPrivate",
              "type": "bool"
            },
            {
              "components": [
                {
                  "internalType": "uint256",
                  "name": "amount",
                  "type": "uint256"
                },
                {
                  "internalType": "address[]",
                  "name": "allowedAddresses",
                  "type": "address[]"
                }
              ],
              "internalType": "struct AllowanceInput[]",
              "name": "allowances",
              "type": "tuple[]"
            }
          ],
          "indexed": false,
          "internalType": "struct NewAssetSaleInfo",
          "name": "saleInfo",
          "type": "tuple"
        },
        {
          "indexed": false,
          "internalType": "string",
          "name": "uri",
          "type": "string"
        }
      ],
      "name": "MembershipPublished",
      "type": "event"
    },
    {
      "anonymous": false,
      "inputs": [
        {
          "indexed": false,
          "internalType": "uint256[]",
          "name": "ids",
          "type": "uint256[]"
        },
        {
          "indexed": false,
          "internalType": "address",
          "name": "owner",
          "type": "address"
        },
        {
          "indexed": false,
          "internalType": "uint256[]",
          "name": "amounts",
          "type": "uint256[]"
        }
      ],
      "name": "MembershipsDeleted",
      "type": "event"
    },
    {
      "anonymous": false,
      "inputs": [
        {
          "indexed": true,
          "internalType": "address",
          "name": "previousOwner",
          "type": "address"
        },
        {
          "indexed": true,
          "internalType": "address",
          "name": "newOwner",
          "type": "address"
        }
      ],
      "name": "OwnershipTransferred",
      "type": "event"
    },
    {
      "anonymous": false,
      "inputs": [
        {
          "indexed": false,
          "internalType": "address",
          "name": "account",
          "type": "address"
        }
      ],
      "name": "Paused",
      "type": "event"
    },
    {
      "anonymous": false,
      "inputs": [
        {
          "indexed": true,
          "internalType": "uint256",
          "name": "membershipId",
          "type": "uint256"
        },
        {
          "indexed": false,
          "internalType": "uint256",
          "name": "newRoyalty",
          "type": "uint256"
        }
      ],
      "name": "PrimaryMarketRoyaltyModifiedOnMembership",
      "type": "event"
    },
    {
      "anonymous": false,
      "inputs": [
        {
          "indexed": true,
          "internalType": "uint256",
          "name": "membershipId",
          "type": "uint256"
        },
        {
          "indexed": false,
          "internalType": "uint256",
          "name": "newRoyalty",
          "type": "uint256"
        }
      ],
      "name": "SecondaryMarketRoyaltyModifiedOnMembership",
      "type": "event"
    },
    {
      "anonymous": false,
      "inputs": [
        {
          "indexed": false,
          "internalType": "address",
          "name": "account",
          "type": "address"
        }
      ],
      "name": "Unpaused",
      "type": "event"
    },
    {
      "inputs": [
        {
          "internalType": "uint256",
          "name": "membershipId",
          "type": "uint256"
        },
        {
          "components": [
            {
              "internalType": "uint256",
              "name": "amount",
              "type": "uint256"
            },
            {
              "internalType": "address[]",
              "name": "allowedAddresses",
              "type": "address[]"
            }
          ],
          "internalType": "struct AllowanceInput",
          "name": "allowance",
          "type": "tuple"
        }
      ],
      "name": "addAllowance",
      "outputs": [
        {
          "internalType": "uint256",
          "name": "",
          "type": "uint256"
        }
      ],
      "stateMutability": "nonpayable",
      "type": "function"
    },
    {
      "inputs": [],
      "name": "adminAddress",
      "outputs": [
        {
          "internalType": "address",
          "name": "",
          "type": "address"
        }
      ],
      "stateMutability": "view",
      "type": "function"
    },
    {
      "inputs": [
        {
          "internalType": "uint256",
          "name": "membershipId",
          "type": "uint256"
        },
        {
          "internalType": "uint256",
          "name": "allowanceId",
          "type": "uint256"
        }
      ],
      "name": "allowanceAmountLeft",
      "outputs": [
        {
          "internalType": "uint256",
          "name": "",
          "type": "uint256"
        }
      ],
      "stateMutability": "view",
      "type": "function"
    },
    {
      "inputs": [
        {
          "internalType": "uint256",
          "name": "",
          "type": "uint256"
        },
        {
          "internalType": "uint256",
          "name": "",
          "type": "uint256"
        }
      ],
      "name": "allowances",
      "outputs": [
        {
          "internalType": "uint256",
          "name": "amount",
          "type": "uint256"
        }
      ],
      "stateMutability": "view",
      "type": "function"
    },
    {
      "inputs": [
        {
          "internalType": "uint256",
          "name": "membershipId",
          "type": "uint256"
        },
        {
          "internalType": "address",
          "name": "seller",
          "type": "address"
        },
        {
          "internalType": "uint256",
          "name": "amount",
          "type": "uint256"
        },
        {
          "internalType": "uint256",
          "name": "allowanceId",
          "type": "uint256"
        }
      ],
      "name": "buyMarketMembership",
      "outputs": [],
      "stateMutability": "payable",
      "type": "function"
    },
    {
      "inputs": [
        {
          "internalType": "uint256",
          "name": "membershipId",
          "type": "uint256"
        },
        {
          "internalType": "address",
          "name": "claimer",
          "type": "address"
        },
        {
          "internalType": "uint256",
          "name": "allowanceId",
          "type": "uint256"
        }
      ],
      "name": "claimFreeMembership",
      "outputs": [],
      "stateMutability": "nonpayable",
      "type": "function"
    },
    {
      "inputs": [
        {
          "internalType": "uint256[]",
          "name": "ids",
          "type": "uint256[]"
        },
        {
          "internalType": "uint256[]",
          "name": "amounts",
          "type": "uint256[]"
        }
      ],
      "name": "deleteMemberships",
      "outputs": [],
      "stateMutability": "nonpayable",
      "type": "function"
    },
    {
      "inputs": [
        {
          "internalType": "address",
          "name": "_membershipAddress",
          "type": "address"
        },
        {
          "internalType": "address",
          "name": "_adminAddress",
          "type": "address"
        }
      ],
      "name": "initialize",
      "outputs": [],
      "stateMutability": "nonpayable",
      "type": "function"
    },
    {
      "inputs": [
        {
          "internalType": "uint256",
          "name": "membershipId",
          "type": "uint256"
        },
        {
          "internalType": "uint256",
          "name": "allowanceId",
          "type": "uint256"
        },
        {
          "internalType": "address",
          "name": "operator",
          "type": "address"
        }
      ],
      "name": "isAddressAllowed",
      "outputs": [
        {
          "internalType": "bool",
          "name": "",
          "type": "bool"
        }
      ],
      "stateMutability": "view",
      "type": "function"
    },
    {
      "inputs": [],
      "name": "membershipAddress",
      "outputs": [
        {
          "internalType": "address",
          "name": "",
          "type": "address"
        }
      ],
      "stateMutability": "view",
      "type": "function"
    },
    {
      "inputs": [
        {
          "internalType": "uint256",
          "name": "",
          "type": "uint256"
        }
      ],
      "name": "membershipsProperties",
      "outputs": [
        {
          "internalType": "uint256",
          "name": "creatorRoyalty",
          "type": "uint256"
        },
        {
          "internalType": "uint256",
          "name": "primaryMarketRoyalty",
          "type": "uint256"
        },
        {
          "internalType": "uint256",
          "name": "secondaryMarketRoyalty",
          "type": "uint256"
        },
        {
          "internalType": "address",
          "name": "creator",
          "type": "address"
        },
        {
          "internalType": "bool",
          "name": "isResellable",
          "type": "bool"
        }
      ],
      "stateMutability": "view",
      "type": "function"
    },
    {
      "inputs": [
        {
          "internalType": "uint256",
          "name": "membershipId",
          "type": "uint256"
        },
        {
          "internalType": "uint256",
          "name": "newCreatorRoyalty",
          "type": "uint256"
        }
      ],
      "name": "modifyCreatorRoyaltyOnMembership",
      "outputs": [],
      "stateMutability": "nonpayable",
      "type": "function"
    },
    {
      "inputs": [
        {
          "internalType": "uint256",
          "name": "membershipId",
          "type": "uint256"
        },
        {
          "internalType": "uint256",
          "name": "newMarketplaceRoyalty",
          "type": "uint256"
        }
      ],
      "name": "modifyPrimaryMarketplaceRoyaltyOnMembership",
      "outputs": [],
      "stateMutability": "nonpayable",
      "type": "function"
    },
    {
      "inputs": [
        {
          "internalType": "uint256",
          "name": "membershipId",
          "type": "uint256"
        },
        {
          "internalType": "uint256",
          "name": "newMarketplaceRoyalty",
          "type": "uint256"
        }
      ],
      "name": "modifySecondaryMarketplaceRoyaltyOnMembership",
      "outputs": [],
      "stateMutability": "nonpayable",
      "type": "function"
    },
    {
      "inputs": [
        {
          "internalType": "address",
          "name": "",
          "type": "address"
        },
        {
          "internalType": "uint256",
          "name": "",
          "type": "uint256"
        }
      ],
      "name": "offers",
      "outputs": [
        {
          "internalType": "uint256",
          "name": "amount",
          "type": "uint256"
        },
        {
          "internalType": "uint256",
          "name": "price",
          "type": "uint256"
        }
      ],
      "stateMutability": "view",
      "type": "function"
    },
    {
      "inputs": [
        {
          "internalType": "address",
          "name": "",
          "type": "address"
        },
        {
          "internalType": "uint256",
          "name": "",
          "type": "uint256"
        }
      ],
      "name": "organizerMemberships",
      "outputs": [
        {
          "internalType": "uint256",
          "name": "",
          "type": "uint256"
        }
      ],
      "stateMutability": "view",
      "type": "function"
    },
    {
      "inputs": [],
      "name": "owner",
      "outputs": [
        {
          "internalType": "address",
          "name": "",
          "type": "address"
        }
      ],
      "stateMutability": "view",
      "type": "function"
    },
    {
      "inputs": [],
      "name": "pause",
      "outputs": [],
      "stateMutability": "nonpayable",
      "type": "function"
    },
    {
      "inputs": [],
      "name": "paused",
      "outputs": [
        {
          "internalType": "bool",
          "name": "",
          "type": "bool"
        }
      ],
      "stateMutability": "view",
      "type": "function"
    },
    {
      "inputs": [
        {
          "internalType": "uint256",
          "name": "",
          "type": "uint256"
        }
      ],
      "name": "privateMemberships",
      "outputs": [
        {
          "internalType": "bool",
          "name": "",
          "type": "bool"
        }
      ],
      "stateMutability": "view",
      "type": "function"
    },
    {
      "inputs": [
        {
          "components": [
            {
              "internalType": "uint256",
              "name": "amount",
              "type": "uint256"
            },
            {
              "internalType": "uint256",
              "name": "price",
              "type": "uint256"
            },
            {
              "internalType": "uint256",
              "name": "royalty",
              "type": "uint256"
            },
            {
              "internalType": "uint256",
              "name": "amountToSell",
              "type": "uint256"
            },
            {
              "internalType": "bool",
              "name": "isResellable",
              "type": "bool"
            },
            {
              "internalType": "string",
              "name": "uri",
              "type": "string"
            },
            {
              "internalType": "bool",
              "name": "isPrivate",
              "type": "bool"
            },
            {
              "components": [
                {
                  "internalType": "uint256",
                  "name": "amount",
                  "type": "uint256"
                },
                {
                  "internalType": "address[]",
                  "name": "allowedAddresses",
                  "type": "address[]"
                }
              ],
              "internalType": "struct AllowanceInput[]",
              "name": "allowances",
              "type": "tuple[]"
            }
          ],
          "internalType": "struct NewAssetSaleInfo[]",
          "name": "memberships",
          "type": "tuple[]"
        }
      ],
      "name": "publishMemberships",
      "outputs": [
        {
          "internalType": "uint256[]",
          "name": "membershipIds",
          "type": "uint256[]"
        }
      ],
      "stateMutability": "nonpayable",
      "type": "function"
    },
    {
      "inputs": [
        {
          "internalType": "uint256",
          "name": "membershipId",
          "type": "uint256"
        },
        {
          "internalType": "uint256",
          "name": "allowanceId",
          "type": "uint256"
        }
      ],
      "name": "removeAllowance",
      "outputs": [],
      "stateMutability": "nonpayable",
      "type": "function"
    },
    {
      "inputs": [
        {
          "internalType": "uint256",
          "name": "membershipId",
          "type": "uint256"
        }
      ],
      "name": "removeAsk",
      "outputs": [],
      "stateMutability": "nonpayable",
      "type": "function"
    },
    {
      "inputs": [],
      "name": "renounceOwnership",
      "outputs": [],
      "stateMutability": "nonpayable",
      "type": "function"
    },
    {
      "inputs": [
        {
          "internalType": "uint256",
          "name": "membershipId",
          "type": "uint256"
        },
        {
          "internalType": "uint256",
          "name": "membershipPrice",
          "type": "uint256"
        },
        {
          "internalType": "uint256",
          "name": "amount",
          "type": "uint256"
        }
      ],
      "name": "setAsk",
      "outputs": [],
      "stateMutability": "nonpayable",
      "type": "function"
    },
    {
      "inputs": [
        {
          "internalType": "uint256",
          "name": "membershipId",
          "type": "uint256"
        },
        {
          "internalType": "string",
          "name": "newUri",
          "type": "string"
        }
      ],
      "name": "setMembershipUri",
      "outputs": [],
      "stateMutability": "nonpayable",
      "type": "function"
    },
    {
      "inputs": [
        {
          "internalType": "uint256",
          "name": "membershipId",
          "type": "uint256"
        },
        {
          "internalType": "address",
          "name": "newOwner",
          "type": "address"
        }
      ],
      "name": "transferMembershipOwnership",
      "outputs": [],
      "stateMutability": "nonpayable",
      "type": "function"
    },
    {
      "inputs": [
        {
          "internalType": "address",
          "name": "newOwner",
          "type": "address"
        }
      ],
      "name": "transferOwnership",
      "outputs": [],
      "stateMutability": "nonpayable",
      "type": "function"
    },
    {
      "inputs": [],
      "name": "unpause",
      "outputs": [],
      "stateMutability": "nonpayable",
      "type": "function"
    }
  ],
  "bytecode": "0x608060405234801561001057600080fd5b50613c6f806100206000396000f3fe6080604052600436106101c25760003560e01c80637f6bc693116100f7578063ac820c4c11610095578063f2fde38b11610064578063f2fde38b146105de578063f373a218146105fe578063f942b00a1461062e578063fc6f94681461066657600080fd5b8063ac820c4c1461052b578063cc441f971461054b578063ebbfd7861461059e578063f0f9b294146105be57600080fd5b8063924b2a4d116100d1578063924b2a4d1461047757806396a04a1514610497578063a2b9f516146104b7578063aa1a8411146104d757600080fd5b80637f6bc693146104245780638456cb59146104445780638da5cb5b1461045957600080fd5b80633f4ba83a116101645780635c975abb1161013e5780635c975abb146103b8578063715018a6146103dc57806375f05550146103f157806376fb08851461040457600080fd5b80633f4ba83a14610363578063485cc955146103785780634da911571461039857600080fd5b80631dcb1789116101a05780631dcb1789146102b057806328220f35146102f657806329370633146103165780632d9d19b21461034357600080fd5b806301f71a1c146101c7578063115a0063146101e95780631c8a1e2014610278575b600080fd5b3480156101d357600080fd5b506101e76101e2366004613042565b610686565b005b3480156101f557600080fd5b50610240610204366004613064565b60cc602052600090815260409020805460018201546002830154600390930154919290916001600160a01b03811690600160a01b900460ff1685565b604080519586526020860194909452928401919091526001600160a01b031660608301521515608082015260a0015b60405180910390f35b34801561028457600080fd5b5060c954610298906001600160a01b031681565b6040516001600160a01b03909116815260200161026f565b3480156102bc57600080fd5b506102e86102cb366004613042565b600091825260d16020908152604080842092845291905290205490565b60405190815260200161026f565b34801561030257600080fd5b506101e7610311366004613064565b6106d9565b34801561032257600080fd5b5061033661033136600461307d565b610818565b60405161026f919061312d565b34801561034f57600080fd5b506102e861035e366004613140565b6112e2565b34801561036f57600080fd5b506101e761132f565b34801561038457600080fd5b506101e76103933660046131a3565b611363565b3480156103a457600080fd5b506101e76103b3366004613042565b611465565b3480156103c457600080fd5b5060655460ff165b604051901515815260200161026f565b3480156103e857600080fd5b506101e7611506565b6101e76103ff3660046131d1565b61153a565b34801561041057600080fd5b506101e761041f36600461320e565b611b8c565b34801561043057600080fd5b506101e761043f36600461323a565b611d95565b34801561045057600080fd5b506101e761201f565b34801561046557600080fd5b506033546001600160a01b0316610298565b34801561048357600080fd5b506101e7610492366004613042565b612051565b3480156104a357600080fd5b506101e76104b236600461325f565b61215c565b3480156104c357600080fd5b506102e86104d23660046132db565b6122ec565b3480156104e357600080fd5b506105166104f23660046132db565b60cd6020908152600092835260408084209091529082529020805460019091015482565b6040805192835260208301919091520161026f565b34801561053757600080fd5b506101e7610546366004613042565b61231d565b34801561055757600080fd5b506103cc610566366004613307565b600083815260d16020908152604080832085845282528083206001600160a01b038516845260010190915290205460ff169392505050565b3480156105aa57600080fd5b506101e76105b93660046133f1565b61240a565b3480156105ca57600080fd5b506101e76105d9366004613455565b612632565b3480156105ea57600080fd5b506101e76105f936600461348d565b6129ea565b34801561060a57600080fd5b506103cc610619366004613064565b60cf6020526000908152604090205460ff1681565b34801561063a57600080fd5b506102e8610649366004613042565b60d160209081526000928352604080842090915290825290205481565b34801561067257600080fd5b5060ca54610298906001600160a01b031681565b600082815260cc602052604090206003015482906001600160a01b031633146106ca5760405162461bcd60e51b81526004016106c1906134aa565b60405180910390fd5b6106d48383612a85565b505050565b60655460ff16156106fc5760405162461bcd60e51b81526004016106c1906134e1565b60c954604051627eeac760e11b8152336004820152602481018390526000916001600160a01b03169062fdd58e9060440160206040518083038186803b15801561074557600080fd5b505afa158015610759573d6000803e3d6000fd5b505050506040513d601f19601f8201168201806040525081019061077d919061350b565b116107ca5760405162461bcd60e51b815260206004820152601960248201527f53656e64657220686173206e6f206d656d626572736869702e0000000000000060448201526064016106c1565b33600081815260cd60209081526040808320858452909152808220828155600101829055518392917f1f2fa6bb5353160dec9640945a0fbf286bda8907835ad6b88dc06ff271382fc091a350565b606061082660655460ff1690565b156108435760405162461bcd60e51b81526004016106c1906134e1565b600260975414156108965760405162461bcd60e51b815260206004820152601f60248201527f5265656e7472616e637947756172643a207265656e7472616e742063616c6c0060448201526064016106c1565b60026097558160008167ffffffffffffffff8111156108b7576108b7613340565b6040519080825280602002602001820160405280156108e0578160200160208202803683370190505b50905060008267ffffffffffffffff8111156108fe576108fe613340565b604051908082528060200260200182016040528015610927578160200160208202803683370190505b50905060008367ffffffffffffffff81111561094557610945613340565b60405190808252806020026020018201604052801561097857816020015b60608152602001906001900390816109635790505b50905060005b848110156111445760ca60009054906101000a90046001600160a01b03166001600160a01b031663a696ac7b6040518163ffffffff1660e01b815260040160206040518083038186803b1580156109d457600080fd5b505afa1580156109e8573d6000803e3d6000fd5b505050506040513d601f19601f82011682018060405250810190610a0c9190613524565b610a189061271061355e565b61ffff16888883818110610a2e57610a2e613581565b9050602002810190610a409190613597565b604001351115610a925760405162461bcd60e51b815260206004820181905260248201527f43726561746f7220726f79616c74792061626f766520746865206c696d69742e60448201526064016106c1565b878782818110610aa457610aa4613581565b9050602002810190610ab69190613597565b602001351580610aef5750612710888883818110610ad657610ad6613581565b9050602002810190610ae89190613597565b6020013510155b610b3b5760405162461bcd60e51b815260206004820152601b60248201527f41736b696e672070726963652062656c6f77206d696e696d756d2e000000000060448201526064016106c1565b878782818110610b4d57610b4d613581565b9050602002810190610b5f9190613597565b35888883818110610b7257610b72613581565b9050602002810190610b849190613597565b606001351115610bd65760405162461bcd60e51b815260206004820152601b60248201527f416d6f756e7420746f2073656c6c20697320746f6f20686967682e000000000060448201526064016106c1565b878782818110610be857610be8613581565b9050602002810190610bfa9190613597565b610c0b9060a08101906080016135cc565b151560011415610c8957878782818110610c2757610c27613581565b9050602002810190610c399190613597565b60200135610c895760405162461bcd60e51b815260206004820152601860248201527f4672656520617265206e6f7420726573656c6c61626c652e000000000000000060448201526064016106c1565b610c9760ce80546001019055565b6000610ca260ce5490565b90506040518060a001604052808a8a85818110610cc157610cc1613581565b9050602002810190610cd39190613597565b60400135815260200160ca60009054906101000a90046001600160a01b03166001600160a01b0316630ba7edf96040518163ffffffff1660e01b815260040160206040518083038186803b158015610d2a57600080fd5b505afa158015610d3e573d6000803e3d6000fd5b505050506040513d601f19601f82011682018060405250810190610d629190613524565b61ffff16815260ca546040805163a696ac7b60e01b815290516020938401936001600160a01b039093169263a696ac7b9260048082019391829003018186803b158015610dae57600080fd5b505afa158015610dc2573d6000803e3d6000fd5b505050506040513d601f19601f82011682018060405250810190610de69190613524565b61ffff1681523360208201526040018a8a85818110610e0757610e07613581565b9050602002810190610e199190613597565b610e2a9060a08101906080016135cc565b15159052600082815260cc6020908152604091829020835181559083015160018201558282015160028201556060830151600390910180546080909401511515600160a01b026001600160a81b03199094166001600160a01b0390921691909117929092179091558051808201909152808a8a85818110610ead57610ead613581565b9050602002810190610ebf9190613597565b6060013581526020018a8a85818110610eda57610eda613581565b9050602002810190610eec9190613597565b60209081013590915233600090815260cd82526040808220858352835290208251815591015160019091015584518190869084908110610f2e57610f2e613581565b60209081029190910181019190915233600090815260cb825260408120805460018101825590825291902001819055888883818110610f6f57610f6f613581565b9050602002810190610f819190613597565b60000135848381518110610f9757610f97613581565b602002602001018181525050888883818110610fb557610fb5613581565b9050602002810190610fc79190613597565b610fd59060a08101906135e7565b8080601f016020809104026020016040519081016040528093929190818152602001838380828437600092019190915250508551869250859150811061101d5761101d613581565b602002602001018190525088888381811061103a5761103a613581565b905060200281019061104c9190613597565b61105d9060e081019060c0016135cc565b15156001141561108157600081815260cf60205260409020805460ff191660011790555b60005b89898481811061109657611096613581565b90506020028101906110a89190613597565b6110b69060e0810190613635565b905081101561112f5761111c828b8b868181106110d5576110d5613581565b90506020028101906110e79190613597565b6110f59060e0810190613635565b8481811061110557611105613581565b9050602002810190611117919061367f565b612acf565b508061112781613695565b915050611084565b5050808061113c90613695565b91505061097e565b5060c954604051632e55c7a160e21b81526001600160a01b039091169063b9571e849061117b9033908790879087906004016136fd565b600060405180830381600087803b15801561119557600080fd5b505af11580156111a9573d6000803e3d6000fd5b5050505060005b84811015611276578381815181106111ca576111ca613581565b60200260200101517fa3687af907a72640b306eb23797c9923794060533172fb25fb903c565500c88c3385848151811061120657611206613581565b60200260200101518b8b8681811061122057611220613581565b90506020028101906112329190613597565b86868151811061124457611244613581565b602002602001015160405161125c9493929190613925565b60405180910390a28061126e81613695565b9150506111b0565b5033600090815260cb6020908152604091829020805483518184028101840190945280845290918301828280156112cc57602002820191906000526020600020905b8154815260200190600101908083116112b8575b5050505050945050505050600160975592915050565b600082815260cc602052604081206003015483906001600160a01b0316331461131d5760405162461bcd60e51b81526004016106c1906134aa565b6113278484612acf565b949350505050565b6033546001600160a01b031633146113595760405162461bcd60e51b81526004016106c1906139f2565b611361612bef565b565b600054610100900460ff1661137e5760005460ff1615611382565b303b155b6113e55760405162461bcd60e51b815260206004820152602e60248201527f496e697469616c697a61626c653a20636f6e747261637420697320616c72656160448201526d191e481a5b9a5d1a585b1a5e995960921b60648201526084016106c1565b600054610100900460ff16158015611407576000805461ffff19166101011790555b60c980546001600160a01b038086166001600160a01b03199283161790925560ca80549285169290911691909117905561143f612c82565b611447612cb1565b61144f612ce0565b80156106d4576000805461ff0019169055505050565b6033546001600160a01b0316331461148f5760405162461bcd60e51b81526004016106c1906139f2565b60655460ff16156114b25760405162461bcd60e51b81526004016106c1906134e1565b600082815260cc6020526040908190206001018290555182907fbed32841fcb9dfcfcb2b88aa80781084e37fede9cdaad4e9c587b015c0f81276906114fa9084815260200190565b60405180910390a25050565b6033546001600160a01b031633146115305760405162461bcd60e51b81526004016106c1906139f2565b6113616000612d0f565b60655460ff161561155d5760405162461bcd60e51b81526004016106c1906134e1565b600260975414156115b05760405162461bcd60e51b815260206004820152601f60248201527f5265656e7472616e637947756172643a207265656e7472616e742063616c6c0060448201526064016106c1565b600260975560c954604051627eeac760e11b81526001600160a01b038581166004830152602482018790528492169062fdd58e9060440160206040518083038186803b1580156115ff57600080fd5b505afa158015611613573d6000803e3d6000fd5b505050506040513d601f19601f82011682018060405250810190611637919061350b565b10156116855760405162461bcd60e51b815260206004820152601f60248201527f53656c6c6572206861736e7420656e6f756768206d656d626572736869702e0060448201526064016106c1565b6001600160a01b038316600090815260cd602090815260408083208784529091529020548211156116f85760405162461bcd60e51b815260206004820152601e60248201527f4e6f7420656e6f756768206d656d6265727368697020666f722073616c65000060448201526064016106c1565b6001600160a01b038316600090815260cd602090815260408083208784529091529020600101546117299083613a27565b34146117775760405162461bcd60e51b815260206004820152601a60248201527f56616c756520646f6573206e6f74206d6174636820707269636500000000000060448201526064016106c1565b336001600160a01b03841614156117d05760405162461bcd60e51b815260206004820181905260248201527f596f752063616e742062757920796f7572206f776e206d656d6265727368697060448201526064016106c1565b600084815260cc602090815260408083206003015460cf909252909120546001600160a01b039091169060ff161515600114801561181f5750806001600160a01b0316846001600160a01b0316145b1561182f5761182f858385612d61565b6001600160a01b038416600090815260cd6020908152604080832088845290915281206001810154815490924792879290919061186d908490613a46565b90915550508161199557846001146118c75760405162461bcd60e51b815260206004820181905260248201527f43616e206f6e6c7920627579206f6e652066726565206d656d6265727368697060448201526064016106c1565b60c954604051627eeac760e11b8152336004820152602481018990526001600160a01b039091169062fdd58e9060440160206040518083038186803b15801561190f57600080fd5b505afa158015611923573d6000803e3d6000fd5b505050506040513d601f19601f82011682018060405250810190611947919061350b565b156119905760405162461bcd60e51b815260206004820152601960248201527821b630b4b6b2b9103430b990309036b2b6b132b939b434b81760391b60448201526064016106c1565b611aaa565b826001600160a01b0316866001600160a01b03161415611a1557600087815260cc60205260408120600101546119cc908490612e72565b905060006119da8285613a46565b90506119ef856119ea8984613a27565b612e92565b611a0e611a046033546001600160a01b031690565b6119ea848a613a27565b5050611aaa565b600087815260cc6020526040812060020154611a32908490612e72565b600089815260cc602052604081205491925090611a50908590612e72565b9050600081611a5f8487613a46565b611a699190613a46565b9050611a79896119ea8a84613a27565b611a87866119ea8a85613a27565b611aa6611a9c6033546001600160a01b031690565b6119ea8a86613a27565b5050505b60c954604051637921219560e11b81526001600160a01b039091169063f242432a90611ae090899033908c908b90600401613a5d565b600060405180830381600087803b158015611afa57600080fd5b505af1158015611b0e573d6000803e3d6000fd5b50505050344782611b1f9190613a46565b14611b2c57611b2c613a95565b604080516001600160a01b03881681523360208201529081018390526060810186905287907f5854d85f864d8f52580571d83d20eaafb44a4e4a1434b1370e87bf1d8ff8bb769060800160405180910390a2505060016097555050505050565b60655460ff1615611baf5760405162461bcd60e51b81526004016106c1906134e1565b612710821015611bf85760405162461bcd60e51b8152602060048201526014602482015273283934b1b2903132b637bb9036b4b734b6bab69760611b60448201526064016106c1565b60c954604051627eeac760e11b81523360048201526024810185905282916001600160a01b03169062fdd58e9060440160206040518083038186803b158015611c4057600080fd5b505afa158015611c54573d6000803e3d6000fd5b505050506040513d601f19601f82011682018060405250810190611c78919061350b565b1015611cc65760405162461bcd60e51b815260206004820181905260248201527f53656e64657220646f6573206e6f742068617665206d656d626572736869702e60448201526064016106c1565b600083815260cc6020526040902060030154600160a01b900460ff161515600114611d335760405162461bcd60e51b815260206004820152601d60248201527f4d656d62657273686970206973206e6f7420726573656c6c61626c652e00000060448201526064016106c1565b33600081815260cd6020908152604080832087845282529182902060018101869055849055815185815290810184905285917f8ec7d10a665f515f3ad661c546d2be60646cad45663216169480028e51659e83910160405180910390a3505050565b600082815260cc602052604090206003015482906001600160a01b03163314611dd05760405162461bcd60e51b81526004016106c1906134aa565b60655460ff1615611df35760405162461bcd60e51b81526004016106c1906134e1565b33600081815260cd602090815260408083208784529091528082208281556001019190915560c9549051627eeac760e11b815260048101839052602481018690526001600160a01b039091169163f242432a9185908790859062fdd58e9060440160206040518083038186803b158015611e6c57600080fd5b505afa158015611e80573d6000803e3d6000fd5b505050506040513d601f19601f82011682018060405250810190611ea4919061350b565b6040518563ffffffff1660e01b8152600401611ec39493929190613a5d565b600060405180830381600087803b158015611edd57600080fd5b505af1158015611ef1573d6000803e3d6000fd5b505050600084815260cc6020908152604080832060030180546001600160a01b0319166001600160a01b03881617905533835260cb8252808320805482518185028101850190935280835293945090929091830182828015611f7257602002820191906000526020600020905b815481526020019060010190808311611f5e575b5050505050905060005b81518160ff161015611ff25784828260ff1681518110611f9e57611f9e613581565b60200260200101511415611fe05733600090815260cb60205260409020805460ff8316908110611fd057611fd0613581565b6000918252602082200155611ff2565b80611fea81613aab565b915050611f7c565b5050506001600160a01b0316600090815260cb602090815260408220805460018101825590835291200155565b6033546001600160a01b031633146120495760405162461bcd60e51b81526004016106c1906139f2565b611361612efa565b600082815260cc602052604090206003015482906001600160a01b0316331461208c5760405162461bcd60e51b81526004016106c1906134aa565b60655460ff16156120af5760405162461bcd60e51b81526004016106c1906134e1565b600083815260cc60205260409020600201546120cd90612710613a46565b82111561210a5760405162461bcd60e51b815260206004820152600b60248201526a20b137bb3290189818129760a91b60448201526064016106c1565b600083815260cc6020526040908190208390555183907f86ee7f298ad679313fca26366c144f244b007796d126d354d17aeae548f2d4239061214f9085815260200190565b60405180910390a2505050565b60655460ff161561217f5760405162461bcd60e51b81526004016106c1906134e1565b600083815260cc602052604090206003015483906001600160a01b031633148061222a5750336001600160a01b0316306001600160a01b0316638da5cb5b6040518163ffffffff1660e01b815260040160206040518083038186803b1580156121e757600080fd5b505afa1580156121fb573d6000803e3d6000fd5b505050506040513d601f19601f8201168201806040525081019061221f9190613acb565b6001600160a01b0316145b6122465760405162461bcd60e51b81526004016106c190613ae8565b60c954604051633c17845760e11b81526001600160a01b039091169063782f08ae9061227a90879087908790600401613b0e565b600060405180830381600087803b15801561229457600080fd5b505af11580156122a8573d6000803e3d6000fd5b50505050837fc241e7e9ffd0e2d65c22a830255600acd409400b2d68f6ba52c5fabc671fd47684846040516122de929190613b31565b60405180910390a250505050565b60cb602052816000526040600020818154811061230857600080fd5b90600052602060002001600091509150505481565b6033546001600160a01b031633146123475760405162461bcd60e51b81526004016106c1906139f2565b60655460ff161561236a5760405162461bcd60e51b81526004016106c1906134e1565b600082815260cc602052604090205461238590612710613a46565b8111156123c25760405162461bcd60e51b815260206004820152600b60248201526a20b137bb3290189818129760a91b60448201526064016106c1565b600082815260cc6020526040908190206002018290555182907f3e82792afe09fe5256c4532c73b38598f3bcfc60227891ffa6ad41b1ca10ac2c906114fa9084815260200190565b60655460ff161561242d5760405162461bcd60e51b81526004016106c1906134e1565b805182511461247e5760405162461bcd60e51b815260206004820152601f60248201527f49647320616e6420616d6f756e747320636f756e74206d69736d617463682e0060448201526064016106c1565b60005b825181101561258c57336001600160a01b031660cc60008584815181106124aa576124aa613581565b6020908102919091018101518252810191909152604001600020600301546001600160a01b0316148061255e5750336001600160a01b0316306001600160a01b0316638da5cb5b6040518163ffffffff1660e01b815260040160206040518083038186803b15801561251b57600080fd5b505afa15801561252f573d6000803e3d6000fd5b505050506040513d601f19601f820116820180604052508101906125539190613acb565b6001600160a01b0316145b61257a5760405162461bcd60e51b81526004016106c190613ae8565b8061258481613695565b915050612481565b5060c954604051631ac8311560e21b81526001600160a01b0390911690636b20c454906125c190339086908690600401613b45565b600060405180830381600087803b1580156125db57600080fd5b505af11580156125ef573d6000803e3d6000fd5b505050507f379120673f4eb7134cfec95191314f97e895be5482339574c2dc27911a85538f82338360405161262693929190613b85565b60405180910390a15050565b600083815260cc6020526040908190206003015460c9549151627eeac760e11b81526001600160a01b03918216600482018190526024820187905292600192169062fdd58e9060440160206040518083038186803b15801561269357600080fd5b505afa1580156126a7573d6000803e3d6000fd5b505050506040513d601f19601f820116820180604052508101906126cb919061350b565b10156127195760405162461bcd60e51b815260206004820181905260248201527f4e6f7420656e6f756768206d656d626572736869707320617661696c61626c6560448201526064016106c1565b60c954604051627eeac760e11b81526001600160a01b038581166004830152602482018790529091169062fdd58e9060440160206040518083038186803b15801561276357600080fd5b505afa158015612777573d6000803e3d6000fd5b505050506040513d601f19601f8201168201806040525081019061279b919061350b565b156127e45760405162461bcd60e51b815260206004820152601960248201527821b630b4b6b2b9103430b990309036b2b6b132b939b434b81760391b60448201526064016106c1565b6001600160a01b038116600090815260cd60209081526040808320878452909152902060010154156128585760405162461bcd60e51b815260206004820152601760248201527f4d656d62657273686970206973206e6f7420667265652e00000000000000000060448201526064016106c1565b6001600160a01b038116600090815260cd60209081526040808320878452909152902054600111156128cc5760405162461bcd60e51b815260206004820181905260248201527f4e6f7420656e6f756768206d656d626572736869707320666f7220636c61696d60448201526064016106c1565b600084815260cf602052604090205460ff161515600114156128f4576128f484836001612d61565b60c954604051637921219560e11b81526001600160a01b039091169063f242432a9061292b90849087908990600190600401613a5d565b600060405180830381600087803b15801561294557600080fd5b505af1158015612959573d6000803e3d6000fd5b505050506001600160a01b038116600090815260cd602090815260408083208784529091528120805460019290612991908490613a46565b9091555050604080516001600160a01b038084168252851660208201526000918101919091526001606082015284907f5854d85f864d8f52580571d83d20eaafb44a4e4a1434b1370e87bf1d8ff8bb76906080016122de565b6033546001600160a01b03163314612a145760405162461bcd60e51b81526004016106c1906139f2565b6001600160a01b038116612a795760405162461bcd60e51b815260206004820152602660248201527f4f776e61626c653a206e6577206f776e657220697320746865207a65726f206160448201526564647265737360d01b60648201526084016106c1565b612a8281612d0f565b50565b600082815260d16020908152604080832084845290915280822082905551829184917f9f51c84c988e8d00ca89f1b35e6d26d574b3137d03fff093efd59a7929eaa8189190a35050565b600080612adb60d05490565b9050612aeb60d080546001019055565b60005b612afb6020850185613635565b9050811015612b8e57600085815260d1602090815260408083208584528252822060019290830191612b2f90880188613635565b85818110612b3f57612b3f613581565b9050602002016020810190612b54919061348d565b6001600160a01b031681526020810191909152604001600020805460ff191691151591909117905580612b8681613695565b915050612aee565b50600084815260d160209081526040808320848452909152908190208435905551819085907fd1acf8f717cf7fa787583c13edc94b43cf2d5e3df650e592aa3c7bb9222899fc90612be0908790613bb9565b60405180910390a39392505050565b60655460ff16612c385760405162461bcd60e51b815260206004820152601460248201527314185d5cd8589b194e881b9bdd081c185d5cd95960621b60448201526064016106c1565b6065805460ff191690557f5db9ee0a495bf2e6ff9c91a7834c1ba4fdd244a5e8aa4e537bd38aeae4b073aa335b6040516001600160a01b03909116815260200160405180910390a1565b600054610100900460ff16612ca95760405162461bcd60e51b81526004016106c190613bcc565b611361612f52565b600054610100900460ff16612cd85760405162461bcd60e51b81526004016106c190613bcc565b611361612f82565b600054610100900460ff16612d075760405162461bcd60e51b81526004016106c190613bcc565b611361612fb5565b603380546001600160a01b038381166001600160a01b0319831681179093556040519116919082907f8be0079c531659141344cd1fd0a4f28419497f9722a3daafe3b4186f6b6457e090600090a35050565b612d6c338484612fe3565b612d885760405162461bcd60e51b81526004016106c190613ae8565b600083815260d160209081526040808320858452909152902054811115612df15760405162461bcd60e51b815260206004820152601f60248201527f417661696c61626c6520616d6f756e74206973206e6f7420656e6f7567682e0060448201526064016106c1565b600083815260d16020908152604080832085845290915281208054839290612e1a908490613a46565b909155505060405182907f890e09616dae8880ed9eec2b0396bcdd94da58b4c103940f381e71b272f356f790600090a2600083815260d1602090815260408083208584529091529020546106d4576106d48383612a85565b6000612710612e818385613a27565b612e8b9190613c17565b9392505050565b6000826001600160a01b031682610a2890604051600060405180830381858888f193505050503d8060008114612ee4576040519150601f19603f3d011682016040523d82523d6000602084013e612ee9565b606091505b50509050806106d4576106d4613a95565b60655460ff1615612f1d5760405162461bcd60e51b81526004016106c1906134e1565b6065805460ff191660011790557f62e78cea01bee320cd4e420270b5ea74000d11b0c9f74754ebdbfc544b05a258612c653390565b600054610100900460ff16612f795760405162461bcd60e51b81526004016106c190613bcc565b61136133612d0f565b600054610100900460ff16612fa95760405162461bcd60e51b81526004016106c190613bcc565b6065805460ff19169055565b600054610100900460ff16612fdc5760405162461bcd60e51b81526004016106c190613bcc565b6001609755565b600082815260d16020908152604080832084845282528083206001600160a01b0387168452600190810190925282205460ff161515148015611327575050600091825260d1602090815260408084209284529190529020541515919050565b6000806040838503121561305557600080fd5b50508035926020909101359150565b60006020828403121561307657600080fd5b5035919050565b6000806020838503121561309057600080fd5b823567ffffffffffffffff808211156130a857600080fd5b818501915085601f8301126130bc57600080fd5b8135818111156130cb57600080fd5b8660208260051b85010111156130e057600080fd5b60209290920196919550909350505050565b600081518084526020808501945080840160005b8381101561312257815187529582019590820190600101613106565b509495945050505050565b602081526000612e8b60208301846130f2565b6000806040838503121561315357600080fd5b82359150602083013567ffffffffffffffff81111561317157600080fd5b83016040818603121561318357600080fd5b809150509250929050565b6001600160a01b0381168114612a8257600080fd5b600080604083850312156131b657600080fd5b82356131c18161318e565b915060208301356131838161318e565b600080600080608085870312156131e757600080fd5b8435935060208501356131f98161318e565b93969395505050506040820135916060013590565b60008060006060848603121561322357600080fd5b505081359360208301359350604090920135919050565b6000806040838503121561324d57600080fd5b8235915060208301356131838161318e565b60008060006040848603121561327457600080fd5b83359250602084013567ffffffffffffffff8082111561329357600080fd5b818601915086601f8301126132a757600080fd5b8135818111156132b657600080fd5b8760208285010111156132c857600080fd5b6020830194508093505050509250925092565b600080604083850312156132ee57600080fd5b82356132f98161318e565b946020939093013593505050565b60008060006060848603121561331c57600080fd5b833592506020840135915060408401356133358161318e565b809150509250925092565b634e487b7160e01b600052604160045260246000fd5b600082601f83011261336757600080fd5b8135602067ffffffffffffffff8083111561338457613384613340565b8260051b604051601f19603f830116810181811084821117156133a9576133a9613340565b6040529384528581018301938381019250878511156133c757600080fd5b83870191505b848210156133e6578135835291830191908301906133cd565b979650505050505050565b6000806040838503121561340457600080fd5b823567ffffffffffffffff8082111561341c57600080fd5b61342886838701613356565b9350602085013591508082111561343e57600080fd5b5061344b85828601613356565b9150509250929050565b60008060006060848603121561346a57600080fd5b83359250602084013561347c8161318e565b929592945050506040919091013590565b60006020828403121561349f57600080fd5b8135612e8b8161318e565b60208082526018908201527f4f6e6c792063726561746f7220697320616c6c6f776564210000000000000000604082015260600190565b60208082526010908201526f14185d5cd8589b194e881c185d5cd95960821b604082015260600190565b60006020828403121561351d57600080fd5b5051919050565b60006020828403121561353657600080fd5b815161ffff81168114612e8b57600080fd5b634e487b7160e01b600052601160045260246000fd5b600061ffff8381169083168181101561357957613579613548565b039392505050565b634e487b7160e01b600052603260045260246000fd5b6000823560fe198336030181126135ad57600080fd5b9190910192915050565b803580151581146135c757600080fd5b919050565b6000602082840312156135de57600080fd5b612e8b826135b7565b6000808335601e198436030181126135fe57600080fd5b83018035915067ffffffffffffffff82111561361957600080fd5b60200191503681900382131561362e57600080fd5b9250929050565b6000808335601e1984360301811261364c57600080fd5b83018035915067ffffffffffffffff82111561366757600080fd5b6020019150600581901b360382131561362e57600080fd5b60008235603e198336030181126135ad57600080fd5b60006000198214156136a9576136a9613548565b5060010190565b6000815180845260005b818110156136d6576020818501810151868301820152016136ba565b818111156136e8576000602083870101525b50601f01601f19169290920160200192915050565b6001600160a01b038516815260a06020808301829052600091613722908401876130f2565b838103604085015261373481876130f2565b905083810360608501528085518083528383019150838160051b84010184880160005b8381101561378557601f198684030185526137738383516136b0565b94870194925090860190600101613757565b5050868103608088015260008152602081019b9a5050505050505050505050565b6000808335601e198436030181126137bd57600080fd5b830160208101925035905067ffffffffffffffff8111156137dd57600080fd5b80360383131561362e57600080fd5b81835281816020850137506000828201602090810191909152601f909101601f19169091010190565b6000808335601e1984360301811261382c57600080fd5b830160208101925035905067ffffffffffffffff81111561384c57600080fd5b8060051b360383131561362e57600080fd5b60006040830182358452602061387681850185613815565b6040878401529283905291600090606087015b818310156133e657843561389c8161318e565b6001600160a01b0316815293830193600192909201918301613889565b60008383855260208086019550808560051b830101846000805b8881101561391757858403601f19018a52823536899003603e190181126138f8578283fd5b613904858a830161385e565b9a86019a945050918401916001016138d3565b509198975050505050505050565b60018060a01b03851681528360208201526080604082015282356080820152602083013560a0820152604083013560c0820152606083013560e08201526000613970608085016135b7565b6101008115158185015261398760a08701876137a6565b92508161012086015261399f610180860184836137ec565b925050506139af60c086016135b7565b15156101408401526139c460e0860186613815565b848303607f19016101608601526139dc8382846138b9565b9250505082810360608401526133e681856136b0565b6020808252818101527f4f776e61626c653a2063616c6c6572206973206e6f7420746865206f776e6572604082015260600190565b6000816000190483118215151615613a4157613a41613548565b500290565b600082821015613a5857613a58613548565b500390565b6001600160a01b0394851681529290931660208301526040820152606081019190915260a06080820181905260009082015260c00190565b634e487b7160e01b600052600160045260246000fd5b600060ff821660ff811415613ac257613ac2613548565b60010192915050565b600060208284031215613add57600080fd5b8151612e8b8161318e565b6020808252600c908201526b4e6f7420616c6c6f7765642160a01b604082015260600190565b838152604060208201526000613b286040830184866137ec565b95945050505050565b6020815260006113276020830184866137ec565b6001600160a01b0384168152606060208201819052600090613b69908301856130f2565b8281036040840152613b7b81856130f2565b9695505050505050565b606081526000613b9860608301866130f2565b6001600160a01b03851660208401528281036040840152613b7b81856130f2565b602081526000612e8b602083018461385e565b6020808252602b908201527f496e697469616c697a61626c653a20636f6e7472616374206973206e6f74206960408201526a6e697469616c697a696e6760a81b606082015260800190565b600082613c3457634e487b7160e01b600052601260045260246000fd5b50049056fea26469706673582212200c938c1dc6bb877d39a8ef0bb3565dafe292d5f4dc284a0ca34d17508176b7fa64736f6c63430008090033",
  "linkReferences": {},
  "deployedLinkReferences": {}
}