{
  "address": "0x435Cb748fd8A3421b981e3E99f60a66ddb37de44",
  "abi": [
    {
      "inputs": [
        {
          "internalType": "address",
          "name": "_marketplaceAddress",
          "type": "address"
        }
      ],
      "stateMutability": "nonpayable",
      "type": "constructor"
    },
    {
      "anonymous": false,
      "inputs": [
        {
          "indexed": true,
          "internalType": "address",
          "name": "account",
          "type": "address"
        },
        {
          "indexed": true,
          "internalType": "address",
          "name": "operator",
          "type": "address"
        },
        {
          "indexed": false,
          "internalType": "bool",
          "name": "approved",
          "type": "bool"
        }
      ],
      "name": "ApprovalForAll",
      "type": "event"
    },
    {
      "anonymous": false,
      "inputs": [
        {
          "indexed": true,
          "internalType": "address",
          "name": "operator",
          "type": "address"
        },
        {
          "indexed": true,
          "internalType": "address",
          "name": "from",
          "type": "address"
        },
        {
          "indexed": true,
          "internalType": "address",
          "name": "to",
          "type": "address"
        },
        {
          "indexed": false,
          "internalType": "uint256[]",
          "name": "ids",
          "type": "uint256[]"
        },
        {
          "indexed": false,
          "internalType": "uint256[]",
          "name": "values",
          "type": "uint256[]"
        }
      ],
      "name": "TransferBatch",
      "type": "event"
    },
    {
      "anonymous": false,
      "inputs": [
        {
          "indexed": true,
          "internalType": "address",
          "name": "operator",
          "type": "address"
        },
        {
          "indexed": true,
          "internalType": "address",
          "name": "from",
          "type": "address"
        },
        {
          "indexed": true,
          "internalType": "address",
          "name": "to",
          "type": "address"
        },
        {
          "indexed": false,
          "internalType": "uint256",
          "name": "id",
          "type": "uint256"
        },
        {
          "indexed": false,
          "internalType": "uint256",
          "name": "value",
          "type": "uint256"
        }
      ],
      "name": "TransferSingle",
      "type": "event"
    },
    {
      "anonymous": false,
      "inputs": [
        {
          "indexed": false,
          "internalType": "string",
          "name": "value",
          "type": "string"
        },
        {
          "indexed": true,
          "internalType": "uint256",
          "name": "id",
          "type": "uint256"
        }
      ],
      "name": "URI",
      "type": "event"
    },
    {
      "anonymous": false,
      "inputs": [
        {
          "indexed": false,
          "internalType": "uint256",
          "name": "eventId",
          "type": "uint256"
        },
        {
          "indexed": false,
          "internalType": "uint256",
          "name": "ticketTypesCount",
          "type": "uint256"
        },
        {
          "indexed": false,
          "internalType": "uint256[]",
          "name": "newTokenIds",
          "type": "uint256[]"
        },
        {
          "indexed": false,
          "internalType": "uint256[]",
          "name": "amounts",
          "type": "uint256[]"
        },
        {
          "indexed": false,
          "internalType": "uint256[]",
          "name": "askingPrices",
          "type": "uint256[]"
        },
        {
          "indexed": false,
          "internalType": "uint256[]",
          "name": "creatorRoyalties",
          "type": "uint256[]"
        },
        {
          "indexed": false,
          "internalType": "address",
          "name": "publisher",
          "type": "address"
        }
      ],
      "name": "ticketsPublished",
      "type": "event"
    },
    {
      "inputs": [],
      "name": "MINIMUM_ASK",
      "outputs": [
        {
          "internalType": "uint256",
          "name": "",
          "type": "uint256"
        }
      ],
      "stateMutability": "view",
      "type": "function"
    },
    {
      "inputs": [
        {
          "internalType": "address",
          "name": "account",
          "type": "address"
        },
        {
          "internalType": "uint256",
          "name": "id",
          "type": "uint256"
        }
      ],
      "name": "balanceOf",
      "outputs": [
        {
          "internalType": "uint256",
          "name": "",
          "type": "uint256"
        }
      ],
      "stateMutability": "view",
      "type": "function"
    },
    {
      "inputs": [
        {
          "internalType": "address[]",
          "name": "accounts",
          "type": "address[]"
        },
        {
          "internalType": "uint256[]",
          "name": "ids",
          "type": "uint256[]"
        }
      ],
      "name": "balanceOfBatch",
      "outputs": [
        {
          "internalType": "uint256[]",
          "name": "",
          "type": "uint256[]"
        }
      ],
      "stateMutability": "view",
      "type": "function"
    },
    {
      "inputs": [
        {
          "internalType": "address",
          "name": "account",
          "type": "address"
        },
        {
          "internalType": "address",
          "name": "operator",
          "type": "address"
        }
      ],
      "name": "isApprovedForAll",
      "outputs": [
        {
          "internalType": "bool",
          "name": "",
          "type": "bool"
        }
      ],
      "stateMutability": "view",
      "type": "function"
    },
    {
      "inputs": [],
      "name": "marketplaceAddress",
      "outputs": [
        {
          "internalType": "address",
          "name": "",
          "type": "address"
        }
      ],
      "stateMutability": "view",
      "type": "function"
    },
    {
      "inputs": [
        {
          "internalType": "uint256",
          "name": "eventId",
          "type": "uint256"
        },
        {
          "internalType": "uint256",
          "name": "ticketTypesCount",
          "type": "uint256"
        },
        {
          "internalType": "uint256[]",
          "name": "amounts",
          "type": "uint256[]"
        },
        {
          "internalType": "uint256[]",
          "name": "askingPrices",
          "type": "uint256[]"
        },
        {
          "internalType": "uint256[]",
          "name": "creatorRoyalties",
          "type": "uint256[]"
        }
      ],
      "name": "publishEventTickets",
      "outputs": [],
      "stateMutability": "nonpayable",
      "type": "function"
    },
    {
      "inputs": [
        {
          "internalType": "uint256",
          "name": "tokenId",
          "type": "uint256"
        }
      ],
      "name": "removeAsk",
      "outputs": [],
      "stateMutability": "nonpayable",
      "type": "function"
    },
    {
      "inputs": [
        {
          "internalType": "address",
          "name": "from",
          "type": "address"
        },
        {
          "internalType": "address",
          "name": "to",
          "type": "address"
        },
        {
          "internalType": "uint256[]",
          "name": "ids",
          "type": "uint256[]"
        },
        {
          "internalType": "uint256[]",
          "name": "amounts",
          "type": "uint256[]"
        },
        {
          "internalType": "bytes",
          "name": "data",
          "type": "bytes"
        }
      ],
      "name": "safeBatchTransferFrom",
      "outputs": [],
      "stateMutability": "nonpayable",
      "type": "function"
    },
    {
      "inputs": [
        {
          "internalType": "address",
          "name": "from",
          "type": "address"
        },
        {
          "internalType": "address",
          "name": "to",
          "type": "address"
        },
        {
          "internalType": "uint256",
          "name": "id",
          "type": "uint256"
        },
        {
          "internalType": "uint256",
          "name": "amount",
          "type": "uint256"
        },
        {
          "internalType": "bytes",
          "name": "data",
          "type": "bytes"
        }
      ],
      "name": "safeTransferFrom",
      "outputs": [],
      "stateMutability": "nonpayable",
      "type": "function"
    },
    {
      "inputs": [
        {
          "internalType": "address",
          "name": "operator",
          "type": "address"
        },
        {
          "internalType": "bool",
          "name": "approved",
          "type": "bool"
        }
      ],
      "name": "setApprovalForAll",
      "outputs": [],
      "stateMutability": "nonpayable",
      "type": "function"
    },
    {
      "inputs": [
        {
          "internalType": "uint256",
          "name": "tokenId",
          "type": "uint256"
        },
        {
          "internalType": "uint256",
          "name": "askingPrice",
          "type": "uint256"
        }
      ],
      "name": "setAsk",
      "outputs": [],
      "stateMutability": "nonpayable",
      "type": "function"
    },
    {
      "inputs": [
        {
          "internalType": "bytes4",
          "name": "interfaceId",
          "type": "bytes4"
        }
      ],
      "name": "supportsInterface",
      "outputs": [
        {
          "internalType": "bool",
          "name": "",
          "type": "bool"
        }
      ],
      "stateMutability": "view",
      "type": "function"
    },
    {
      "inputs": [
        {
          "internalType": "uint256",
          "name": "",
          "type": "uint256"
        }
      ],
      "name": "uri",
      "outputs": [
        {
          "internalType": "string",
          "name": "",
          "type": "string"
        }
      ],
      "stateMutability": "view",
      "type": "function"
    }
  ],
  "transactionHash": "0x793903143ac2447f0a476f7fab3974ac7611b8234178b89c0d7cefb3e90f6db0",
  "args": [
    "0x158f539764707f544F02181C72dF0F750358bBb4"
  ],
  "solcInputHash": "8c0b70492f3d8ff10ece22b4be6fac93",
  "bytecode": "0x60806040523480156200001157600080fd5b506040516200385a3803806200385a833981810160405281019062000037919062000196565b60405180606001604052806022815260200162003838602291396200006281620000b360201b60201c565b50600160038190555080600560006101000a81548173ffffffffffffffffffffffffffffffffffffffff021916908373ffffffffffffffffffffffffffffffffffffffff1602179055505062000275565b8060029080519060200190620000cb929190620000cf565b5050565b828054620000dd90620001f6565b90600052602060002090601f0160209004810192826200010157600085556200014d565b82601f106200011c57805160ff19168380011785556200014d565b828001600101855582156200014d579182015b828111156200014c5782518255916020019190600101906200012f565b5b5090506200015c919062000160565b5090565b5b808211156200017b57600081600090555060010162000161565b5090565b60008151905062000190816200025b565b92915050565b600060208284031215620001a957600080fd5b6000620001b9848285016200017f565b91505092915050565b6000620001cf82620001d6565b9050919050565b600073ffffffffffffffffffffffffffffffffffffffff82169050919050565b600060028204905060018216806200020f57607f821691505b602082108114156200022657620002256200022c565b5b50919050565b7f4e487b7100000000000000000000000000000000000000000000000000000000600052602260045260246000fd5b6200026681620001c2565b81146200027257600080fd5b50565b6135b380620002856000396000f3fe608060405234801561001057600080fd5b50600436106100ce5760003560e01c80634e1273f41161008c578063daa17f4911610066578063daa17f4914610221578063e49f87681461023f578063e985e9c51461025b578063f242432a1461028b576100ce565b80634e1273f4146101b75780635d080ba6146101e7578063a22cb46514610205576100ce565b8062fdd58e146100d357806301ffc9a7146101035780630e89341c1461013357806328220f35146101635780632eb2c2d61461017f5780634d5da01d1461019b575b600080fd5b6100ed60048036038101906100e891906121e4565b6102a7565b6040516100fa9190612afa565b60405180910390f35b61011d6004803603810190610118919061228c565b610370565b60405161012a91906128dd565b60405180910390f35b61014d600480360381019061014891906122de565b610452565b60405161015a91906128f8565b60405180910390f35b61017d600480360381019061017891906122de565b6104e6565b005b6101996004803603810190610194919061205a565b6105cc565b005b6101b560048036038101906101b09190612343565b61066d565b005b6101d160048036038101906101cc9190612220565b610a96565b6040516101de9190612884565b60405180910390f35b6101ef610c47565b6040516101fc9190612afa565b60405180910390f35b61021f600480360381019061021a91906121a8565b610c52565b005b610229610dd3565b60405161023691906127a7565b60405180910390f35b61025960048036038101906102549190612307565b610df9565b005b6102756004803603810190610270919061201e565b610f11565b60405161028291906128dd565b60405180910390f35b6102a560048036038101906102a09190612119565b610fa5565b005b60008073ffffffffffffffffffffffffffffffffffffffff168373ffffffffffffffffffffffffffffffffffffffff161415610318576040517f08c379a000000000000000000000000000000000000000000000000000000000815260040161030f9061295a565b60405180910390fd5b60008083815260200190815260200160002060008473ffffffffffffffffffffffffffffffffffffffff1673ffffffffffffffffffffffffffffffffffffffff16815260200190815260200160002054905092915050565b60007fd9b67a26000000000000000000000000000000000000000000000000000000007bffffffffffffffffffffffffffffffffffffffffffffffffffffffff1916827bffffffffffffffffffffffffffffffffffffffffffffffffffffffff1916148061043b57507f0e89341c000000000000000000000000000000000000000000000000000000007bffffffffffffffffffffffffffffffffffffffffffffffffffffffff1916827bffffffffffffffffffffffffffffffffffffffffffffffffffffffff1916145b8061044b575061044a82611046565b5b9050919050565b60606002805461046190612ebd565b80601f016020809104026020016040519081016040528092919081815260200182805461048d90612ebd565b80156104da5780601f106104af576101008083540402835291602001916104da565b820191906000526020600020905b8154815290600101906020018083116104bd57829003601f168201915b50505050509050919050565b6002600354141561052c576040517f08c379a000000000000000000000000000000000000000000000000000000000815260040161052390612ada565b60405180910390fd5b6002600381905550600560009054906101000a900473ffffffffffffffffffffffffffffffffffffffff1673ffffffffffffffffffffffffffffffffffffffff166328220f35826040518263ffffffff1660e01b815260040161058f9190612afa565b600060405180830381600087803b1580156105a957600080fd5b505af11580156105bd573d6000803e3d6000fd5b50505050600160038190555050565b6105d46110b0565b73ffffffffffffffffffffffffffffffffffffffff168573ffffffffffffffffffffffffffffffffffffffff16148061061a5750610619856106146110b0565b610f11565b5b610659576040517f08c379a0000000000000000000000000000000000000000000000000000000008152600401610650906129da565b60405180910390fd5b61066685858585856110b8565b5050505050565b600260035414156106b3576040517f08c379a00000000000000000000000000000000000000000000000000000000081526004016106aa90612ada565b60405180910390fd5b600260038190555060648711156106ff576040517f08c379a00000000000000000000000000000000000000000000000000000000081526004016106f690612a3a565b60405180910390fd5b60005b8781101561082a576101f4838383818110610746577f4e487b7100000000000000000000000000000000000000000000000000000000600052603260045260246000fd5b90506020020135111561078e576040517f08c379a00000000000000000000000000000000000000000000000000000000081526004016107859061297a565b60405180910390fd5b6611c37937e080008585838181106107cf577f4e487b7100000000000000000000000000000000000000000000000000000000600052603260045260246000fd5b905060200201351015610817576040517f08c379a000000000000000000000000000000000000000000000000000000000815260040161080e906129fa565b60405180910390fd5b808061082290612f20565b915050610702565b5060008767ffffffffffffffff81111561086d577f4e487b7100000000000000000000000000000000000000000000000000000000600052604160045260246000fd5b60405190808252806020026020018201604052801561089b5781602001602082028036833780820191505090505b50905060005b88811015610915576108b36004611418565b6108bd600461142e565b8282815181106108f6577f4e487b7100000000000000000000000000000000000000000000000000000000600052603260045260246000fd5b602002602001018181525050808061090d90612f20565b9150506108a1565b506109723382898980806020026020016040519081016040528093929190818152602001838360200280828437600081840152601f19601f820116905080830192505050505050506040518060200160405280600081525061143c565b61099f600560009054906101000a900473ffffffffffffffffffffffffffffffffffffffff166001610c52565b600560009054906101000a900473ffffffffffffffffffffffffffffffffffffffff1673ffffffffffffffffffffffffffffffffffffffff16631d563cdc8a8a8489898989336040518963ffffffff1660e01b8152600401610a08989796959493929190612b75565b600060405180830381600087803b158015610a2257600080fd5b505af1158015610a36573d6000803e3d6000fd5b505050507f08c1de2b5eaa2dc848168ee0ccc383f33b7a6cfc449de0d852dda6b875e488cc8989838a8a8a8a8a8a33604051610a7b9a99989796959493929190612bef565b60405180910390a15060016003819055505050505050505050565b60608151835114610adc576040517f08c379a0000000000000000000000000000000000000000000000000000000008152600401610ad390612a7a565b60405180910390fd5b6000835167ffffffffffffffff811115610b1f577f4e487b7100000000000000000000000000000000000000000000000000000000600052604160045260246000fd5b604051908082528060200260200182016040528015610b4d5781602001602082028036833780820191505090505b50905060005b8451811015610c3c57610be6858281518110610b98577f4e487b7100000000000000000000000000000000000000000000000000000000600052603260045260246000fd5b6020026020010151858381518110610bd9577f4e487b7100000000000000000000000000000000000000000000000000000000600052603260045260246000fd5b60200260200101516102a7565b828281518110610c1f577f4e487b7100000000000000000000000000000000000000000000000000000000600052603260045260246000fd5b60200260200101818152505080610c3590612f20565b9050610b53565b508091505092915050565b6611c37937e0800081565b8173ffffffffffffffffffffffffffffffffffffffff16610c716110b0565b73ffffffffffffffffffffffffffffffffffffffff161415610cc8576040517f08c379a0000000000000000000000000000000000000000000000000000000008152600401610cbf90612a5a565b60405180910390fd5b8060016000610cd56110b0565b73ffffffffffffffffffffffffffffffffffffffff1673ffffffffffffffffffffffffffffffffffffffff16815260200190815260200160002060008473ffffffffffffffffffffffffffffffffffffffff1673ffffffffffffffffffffffffffffffffffffffff16815260200190815260200160002060006101000a81548160ff0219169083151502179055508173ffffffffffffffffffffffffffffffffffffffff16610d826110b0565b73ffffffffffffffffffffffffffffffffffffffff167f17307eab39ab6107e8899845ad3d59bd9653f200f220920489ca2b5937696c3183604051610dc791906128dd565b60405180910390a35050565b600560009054906101000a900473ffffffffffffffffffffffffffffffffffffffff1681565b60026003541415610e3f576040517f08c379a0000000000000000000000000000000000000000000000000000000008152600401610e3690612ada565b60405180910390fd5b6002600381905550600560009054906101000a900473ffffffffffffffffffffffffffffffffffffffff1673ffffffffffffffffffffffffffffffffffffffff16633b7878978383336040518463ffffffff1660e01b8152600401610ea693929190612b3e565b600060405180830381600087803b158015610ec057600080fd5b505af1158015610ed4573d6000803e3d6000fd5b50505050610f05600560009054906101000a900473ffffffffffffffffffffffffffffffffffffffff166001610c52565b60016003819055505050565b6000600160008473ffffffffffffffffffffffffffffffffffffffff1673ffffffffffffffffffffffffffffffffffffffff16815260200190815260200160002060008373ffffffffffffffffffffffffffffffffffffffff1673ffffffffffffffffffffffffffffffffffffffff16815260200190815260200160002060009054906101000a900460ff16905092915050565b610fad6110b0565b73ffffffffffffffffffffffffffffffffffffffff168573ffffffffffffffffffffffffffffffffffffffff161480610ff35750610ff285610fed6110b0565b610f11565b5b611032576040517f08c379a00000000000000000000000000000000000000000000000000000000081526004016110299061299a565b60405180910390fd5b61103f85858585856116a6565b5050505050565b60007f01ffc9a7000000000000000000000000000000000000000000000000000000007bffffffffffffffffffffffffffffffffffffffffffffffffffffffff1916827bffffffffffffffffffffffffffffffffffffffffffffffffffffffff1916149050919050565b600033905090565b81518351146110fc576040517f08c379a00000000000000000000000000000000000000000000000000000000081526004016110f390612a9a565b60405180910390fd5b600073ffffffffffffffffffffffffffffffffffffffff168473ffffffffffffffffffffffffffffffffffffffff16141561116c576040517f08c379a0000000000000000000000000000000000000000000000000000000008152600401611163906129ba565b60405180910390fd5b60006111766110b0565b9050611186818787878787611928565b60005b84518110156113835760008582815181106111cd577f4e487b7100000000000000000000000000000000000000000000000000000000600052603260045260246000fd5b602002602001015190506000858381518110611212577f4e487b7100000000000000000000000000000000000000000000000000000000600052603260045260246000fd5b60200260200101519050600080600084815260200190815260200160002060008b73ffffffffffffffffffffffffffffffffffffffff1673ffffffffffffffffffffffffffffffffffffffff168152602001908152602001600020549050818110156112b3576040517f08c379a00000000000000000000000000000000000000000000000000000000081526004016112aa90612a1a565b60405180910390fd5b81810360008085815260200190815260200160002060008c73ffffffffffffffffffffffffffffffffffffffff1673ffffffffffffffffffffffffffffffffffffffff168152602001908152602001600020819055508160008085815260200190815260200160002060008b73ffffffffffffffffffffffffffffffffffffffff1673ffffffffffffffffffffffffffffffffffffffff16815260200190815260200160002060008282546113689190612d9f565b925050819055505050508061137c90612f20565b9050611189565b508473ffffffffffffffffffffffffffffffffffffffff168673ffffffffffffffffffffffffffffffffffffffff168273ffffffffffffffffffffffffffffffffffffffff167f4a39dc06d4c0dbc64b70af90fd698a233a518aa5d07e595d983b8c0526c8f7fb87876040516113fa9291906128a6565b60405180910390a4611410818787878787611930565b505050505050565b6001816000016000828254019250508190555050565b600081600001549050919050565b600073ffffffffffffffffffffffffffffffffffffffff168473ffffffffffffffffffffffffffffffffffffffff1614156114ac576040517f08c379a00000000000000000000000000000000000000000000000000000000081526004016114a390612aba565b60405180910390fd5b81518351146114f0576040517f08c379a00000000000000000000000000000000000000000000000000000000081526004016114e790612a9a565b60405180910390fd5b60006114fa6110b0565b905061150b81600087878787611928565b60005b845181101561161057838181518110611550577f4e487b7100000000000000000000000000000000000000000000000000000000600052603260045260246000fd5b6020026020010151600080878481518110611594577f4e487b7100000000000000000000000000000000000000000000000000000000600052603260045260246000fd5b6020026020010151815260200190815260200160002060008873ffffffffffffffffffffffffffffffffffffffff1673ffffffffffffffffffffffffffffffffffffffff16815260200190815260200160002060008282546115f69190612d9f565b92505081905550808061160890612f20565b91505061150e565b508473ffffffffffffffffffffffffffffffffffffffff16600073ffffffffffffffffffffffffffffffffffffffff168273ffffffffffffffffffffffffffffffffffffffff167f4a39dc06d4c0dbc64b70af90fd698a233a518aa5d07e595d983b8c0526c8f7fb87876040516116889291906128a6565b60405180910390a461169f81600087878787611930565b5050505050565b600073ffffffffffffffffffffffffffffffffffffffff168473ffffffffffffffffffffffffffffffffffffffff161415611716576040517f08c379a000000000000000000000000000000000000000000000000000000000815260040161170d906129ba565b60405180910390fd5b60006117206110b0565b905061174081878761173188611b17565b61173a88611b17565b87611928565b600080600086815260200190815260200160002060008873ffffffffffffffffffffffffffffffffffffffff1673ffffffffffffffffffffffffffffffffffffffff168152602001908152602001600020549050838110156117d7576040517f08c379a00000000000000000000000000000000000000000000000000000000081526004016117ce90612a1a565b60405180910390fd5b83810360008087815260200190815260200160002060008973ffffffffffffffffffffffffffffffffffffffff1673ffffffffffffffffffffffffffffffffffffffff168152602001908152602001600020819055508360008087815260200190815260200160002060008873ffffffffffffffffffffffffffffffffffffffff1673ffffffffffffffffffffffffffffffffffffffff168152602001908152602001600020600082825461188c9190612d9f565b925050819055508573ffffffffffffffffffffffffffffffffffffffff168773ffffffffffffffffffffffffffffffffffffffff168373ffffffffffffffffffffffffffffffffffffffff167fc3d58168c5ae7397731d063d5bbf3d657854427343f4c083240f7aacaa2d0f628888604051611909929190612b15565b60405180910390a461191f828888888888611bdd565b50505050505050565b505050505050565b61194f8473ffffffffffffffffffffffffffffffffffffffff16611dc4565b15611b0f578373ffffffffffffffffffffffffffffffffffffffff1663bc197c8187878686866040518663ffffffff1660e01b81526004016119959594939291906127c2565b602060405180830381600087803b1580156119af57600080fd5b505af19250505080156119e057506040513d601f19601f820116820180604052508101906119dd91906122b5565b60015b611a86576119ec612ff6565b806308c379a01415611a495750611a0161348b565b80611a0c5750611a4b565b806040517f08c379a0000000000000000000000000000000000000000000000000000000008152600401611a4091906128f8565b60405180910390fd5b505b6040517f08c379a0000000000000000000000000000000000000000000000000000000008152600401611a7d9061291a565b60405180910390fd5b63bc197c8160e01b7bffffffffffffffffffffffffffffffffffffffffffffffffffffffff1916817bffffffffffffffffffffffffffffffffffffffffffffffffffffffff191614611b0d576040517f08c379a0000000000000000000000000000000000000000000000000000000008152600401611b049061293a565b60405180910390fd5b505b505050505050565b60606000600167ffffffffffffffff811115611b5c577f4e487b7100000000000000000000000000000000000000000000000000000000600052604160045260246000fd5b604051908082528060200260200182016040528015611b8a5781602001602082028036833780820191505090505b5090508281600081518110611bc8577f4e487b7100000000000000000000000000000000000000000000000000000000600052603260045260246000fd5b60200260200101818152505080915050919050565b611bfc8473ffffffffffffffffffffffffffffffffffffffff16611dc4565b15611dbc578373ffffffffffffffffffffffffffffffffffffffff1663f23a6e6187878686866040518663ffffffff1660e01b8152600401611c4295949392919061282a565b602060405180830381600087803b158015611c5c57600080fd5b505af1925050508015611c8d57506040513d601f19601f82011682018060405250810190611c8a91906122b5565b60015b611d3357611c99612ff6565b806308c379a01415611cf65750611cae61348b565b80611cb95750611cf8565b806040517f08c379a0000000000000000000000000000000000000000000000000000000008152600401611ced91906128f8565b60405180910390fd5b505b6040517f08c379a0000000000000000000000000000000000000000000000000000000008152600401611d2a9061291a565b60405180910390fd5b63f23a6e6160e01b7bffffffffffffffffffffffffffffffffffffffffffffffffffffffff1916817bffffffffffffffffffffffffffffffffffffffffffffffffffffffff191614611dba576040517f08c379a0000000000000000000000000000000000000000000000000000000008152600401611db19061293a565b60405180910390fd5b505b505050505050565b600080823b905060008111915050919050565b6000611dea611de584612ca5565b612c80565b90508083825260208201905082856020860282011115611e0957600080fd5b60005b85811015611e395781611e1f8882611eed565b845260208401935060208301925050600181019050611e0c565b5050509392505050565b6000611e56611e5184612cd1565b612c80565b90508083825260208201905082856020860282011115611e7557600080fd5b60005b85811015611ea55781611e8b8882612009565b845260208401935060208301925050600181019050611e78565b5050509392505050565b6000611ec2611ebd84612cfd565b612c80565b905082815260208101848484011115611eda57600080fd5b611ee5848285612e7b565b509392505050565b600081359050611efc81613521565b92915050565b600082601f830112611f1357600080fd5b8135611f23848260208601611dd7565b91505092915050565b60008083601f840112611f3e57600080fd5b8235905067ffffffffffffffff811115611f5757600080fd5b602083019150836020820283011115611f6f57600080fd5b9250929050565b600082601f830112611f8757600080fd5b8135611f97848260208601611e43565b91505092915050565b600081359050611faf81613538565b92915050565b600081359050611fc48161354f565b92915050565b600081519050611fd98161354f565b92915050565b600082601f830112611ff057600080fd5b8135612000848260208601611eaf565b91505092915050565b60008135905061201881613566565b92915050565b6000806040838503121561203157600080fd5b600061203f85828601611eed565b925050602061205085828601611eed565b9150509250929050565b600080600080600060a0868803121561207257600080fd5b600061208088828901611eed565b955050602061209188828901611eed565b945050604086013567ffffffffffffffff8111156120ae57600080fd5b6120ba88828901611f76565b935050606086013567ffffffffffffffff8111156120d757600080fd5b6120e388828901611f76565b925050608086013567ffffffffffffffff81111561210057600080fd5b61210c88828901611fdf565b9150509295509295909350565b600080600080600060a0868803121561213157600080fd5b600061213f88828901611eed565b955050602061215088828901611eed565b945050604061216188828901612009565b935050606061217288828901612009565b925050608086013567ffffffffffffffff81111561218f57600080fd5b61219b88828901611fdf565b9150509295509295909350565b600080604083850312156121bb57600080fd5b60006121c985828601611eed565b92505060206121da85828601611fa0565b9150509250929050565b600080604083850312156121f757600080fd5b600061220585828601611eed565b925050602061221685828601612009565b9150509250929050565b6000806040838503121561223357600080fd5b600083013567ffffffffffffffff81111561224d57600080fd5b61225985828601611f02565b925050602083013567ffffffffffffffff81111561227657600080fd5b61228285828601611f76565b9150509250929050565b60006020828403121561229e57600080fd5b60006122ac84828501611fb5565b91505092915050565b6000602082840312156122c757600080fd5b60006122d584828501611fca565b91505092915050565b6000602082840312156122f057600080fd5b60006122fe84828501612009565b91505092915050565b6000806040838503121561231a57600080fd5b600061232885828601612009565b925050602061233985828601612009565b9150509250929050565b60008060008060008060008060a0898b03121561235f57600080fd5b600061236d8b828c01612009565b985050602061237e8b828c01612009565b975050604089013567ffffffffffffffff81111561239b57600080fd5b6123a78b828c01611f2c565b9650965050606089013567ffffffffffffffff8111156123c657600080fd5b6123d28b828c01611f2c565b9450945050608089013567ffffffffffffffff8111156123f157600080fd5b6123fd8b828c01611f2c565b92509250509295985092959890939650565b600061241b8383612789565b60208301905092915050565b61243081612e07565b82525050565b61243f81612df5565b82525050565b60006124518385612d6c565b93507f07ffffffffffffffffffffffffffffffffffffffffffffffffffffffffffffff83111561248057600080fd5b602083029250612491838584612e7b565b82840190509392505050565b60006124a882612d3e565b6124b28185612d6c565b93506124bd83612d2e565b8060005b838110156124ee5781516124d5888261240f565b97506124e083612d5f565b9250506001810190506124c1565b5085935050505092915050565b61250481612e19565b82525050565b600061251582612d49565b61251f8185612d7d565b935061252f818560208601612e8a565b61253881613018565b840191505092915050565b600061254e82612d54565b6125588185612d8e565b9350612568818560208601612e8a565b61257181613018565b840191505092915050565b6000612589603483612d8e565b915061259482613036565b604082019050919050565b60006125ac602883612d8e565b91506125b782613085565b604082019050919050565b60006125cf602b83612d8e565b91506125da826130d4565b604082019050919050565b60006125f2602e83612d8e565b91506125fd82613123565b604082019050919050565b6000612615602983612d8e565b915061262082613172565b604082019050919050565b6000612638602583612d8e565b9150612643826131c1565b604082019050919050565b600061265b603283612d8e565b915061266682613210565b604082019050919050565b600061267e602d83612d8e565b91506126898261325f565b604082019050919050565b60006126a1602a83612d8e565b91506126ac826132ae565b604082019050919050565b60006126c4601d83612d8e565b91506126cf826132fd565b602082019050919050565b60006126e7602983612d8e565b91506126f282613326565b604082019050919050565b600061270a602983612d8e565b915061271582613375565b604082019050919050565b600061272d602883612d8e565b9150612738826133c4565b604082019050919050565b6000612750602183612d8e565b915061275b82613413565b604082019050919050565b6000612773601f83612d8e565b915061277e82613462565b602082019050919050565b61279281612e71565b82525050565b6127a181612e71565b82525050565b60006020820190506127bc6000830184612436565b92915050565b600060a0820190506127d76000830188612436565b6127e46020830187612436565b81810360408301526127f6818661249d565b9050818103606083015261280a818561249d565b9050818103608083015261281e818461250a565b90509695505050505050565b600060a08201905061283f6000830188612436565b61284c6020830187612436565b6128596040830186612798565b6128666060830185612798565b8181036080830152612878818461250a565b90509695505050505050565b6000602082019050818103600083015261289e818461249d565b905092915050565b600060408201905081810360008301526128c0818561249d565b905081810360208301526128d4818461249d565b90509392505050565b60006020820190506128f260008301846124fb565b92915050565b600060208201905081810360008301526129128184612543565b905092915050565b600060208201905081810360008301526129338161257c565b9050919050565b600060208201905081810360008301526129538161259f565b9050919050565b60006020820190508181036000830152612973816125c2565b9050919050565b60006020820190508181036000830152612993816125e5565b9050919050565b600060208201905081810360008301526129b381612608565b9050919050565b600060208201905081810360008301526129d38161262b565b9050919050565b600060208201905081810360008301526129f38161264e565b9050919050565b60006020820190508181036000830152612a1381612671565b9050919050565b60006020820190508181036000830152612a3381612694565b9050919050565b60006020820190508181036000830152612a53816126b7565b9050919050565b60006020820190508181036000830152612a73816126da565b9050919050565b60006020820190508181036000830152612a93816126fd565b9050919050565b60006020820190508181036000830152612ab381612720565b9050919050565b60006020820190508181036000830152612ad381612743565b9050919050565b60006020820190508181036000830152612af381612766565b9050919050565b6000602082019050612b0f6000830184612798565b92915050565b6000604082019050612b2a6000830185612798565b612b376020830184612798565b9392505050565b6000606082019050612b536000830186612798565b612b606020830185612798565b612b6d6040830184612436565b949350505050565b600060c082019050612b8a600083018b612798565b612b97602083018a612798565b8181036040830152612ba9818961249d565b90508181036060830152612bbe818789612445565b90508181036080830152612bd3818587612445565b9050612be260a0830184612427565b9998505050505050505050565b600060e082019050612c04600083018d612798565b612c11602083018c612798565b8181036040830152612c23818b61249d565b90508181036060830152612c3881898b612445565b90508181036080830152612c4d818789612445565b905081810360a0830152612c62818587612445565b9050612c7160c0830184612436565b9b9a5050505050505050505050565b6000612c8a612c9b565b9050612c968282612eef565b919050565b6000604051905090565b600067ffffffffffffffff821115612cc057612cbf612fc7565b5b602082029050602081019050919050565b600067ffffffffffffffff821115612cec57612ceb612fc7565b5b602082029050602081019050919050565b600067ffffffffffffffff821115612d1857612d17612fc7565b5b612d2182613018565b9050602081019050919050565b6000819050602082019050919050565b600081519050919050565b600081519050919050565b600081519050919050565b6000602082019050919050565b600082825260208201905092915050565b600082825260208201905092915050565b600082825260208201905092915050565b6000612daa82612e71565b9150612db583612e71565b9250827fffffffffffffffffffffffffffffffffffffffffffffffffffffffffffffffff03821115612dea57612de9612f69565b5b828201905092915050565b6000612e0082612e51565b9050919050565b6000612e1282612e51565b9050919050565b60008115159050919050565b60007fffffffff0000000000000000000000000000000000000000000000000000000082169050919050565b600073ffffffffffffffffffffffffffffffffffffffff82169050919050565b6000819050919050565b82818337600083830152505050565b60005b83811015612ea8578082015181840152602081019050612e8d565b83811115612eb7576000848401525b50505050565b60006002820490506001821680612ed557607f821691505b60208210811415612ee957612ee8612f98565b5b50919050565b612ef882613018565b810181811067ffffffffffffffff82111715612f1757612f16612fc7565b5b80604052505050565b6000612f2b82612e71565b91507fffffffffffffffffffffffffffffffffffffffffffffffffffffffffffffffff821415612f5e57612f5d612f69565b5b600182019050919050565b7f4e487b7100000000000000000000000000000000000000000000000000000000600052601160045260246000fd5b7f4e487b7100000000000000000000000000000000000000000000000000000000600052602260045260246000fd5b7f4e487b7100000000000000000000000000000000000000000000000000000000600052604160045260246000fd5b600060033d11156130155760046000803e613012600051613029565b90505b90565b6000601f19601f8301169050919050565b60008160e01c9050919050565b7f455243313135353a207472616e7366657220746f206e6f6e204552433131353560008201527f526563656976657220696d706c656d656e746572000000000000000000000000602082015250565b7f455243313135353a204552433131353552656365697665722072656a6563746560008201527f6420746f6b656e73000000000000000000000000000000000000000000000000602082015250565b7f455243313135353a2062616c616e636520717565727920666f7220746865207a60008201527f65726f2061646472657373000000000000000000000000000000000000000000602082015250565b7f5469636b6574734e46543a206d61782063726561746f72526f79616c7479207360008201527f7570706f72746564206973203525000000000000000000000000000000000000602082015250565b7f455243313135353a2063616c6c6572206973206e6f74206f776e6572206e6f7260008201527f20617070726f7665640000000000000000000000000000000000000000000000602082015250565b7f455243313135353a207472616e7366657220746f20746865207a65726f20616460008201527f6472657373000000000000000000000000000000000000000000000000000000602082015250565b7f455243313135353a207472616e736665722063616c6c6572206973206e6f742060008201527f6f776e6572206e6f7220617070726f7665640000000000000000000000000000602082015250565b7f5469636b6574734e46543a206d696e696d756d2061736b696e6720707269636560008201527f206e6f74206d6174636865642e00000000000000000000000000000000000000602082015250565b7f455243313135353a20696e73756666696369656e742062616c616e636520666f60008201527f72207472616e7366657200000000000000000000000000000000000000000000602082015250565b7f5469636b6574734e46543a20546f6f206d756368207469636b65747321000000600082015250565b7f455243313135353a2073657474696e6720617070726f76616c2073746174757360008201527f20666f722073656c660000000000000000000000000000000000000000000000602082015250565b7f455243313135353a206163636f756e747320616e6420696473206c656e67746860008201527f206d69736d617463680000000000000000000000000000000000000000000000602082015250565b7f455243313135353a2069647320616e6420616d6f756e7473206c656e6774682060008201527f6d69736d61746368000000000000000000000000000000000000000000000000602082015250565b7f455243313135353a206d696e7420746f20746865207a65726f2061646472657360008201527f7300000000000000000000000000000000000000000000000000000000000000602082015250565b7f5265656e7472616e637947756172643a207265656e7472616e742063616c6c00600082015250565b600060443d101561349b5761351e565b6134a3612c9b565b60043d036004823e80513d602482011167ffffffffffffffff821117156134cb57505061351e565b808201805167ffffffffffffffff8111156134e9575050505061351e565b80602083010160043d03850181111561350657505050505061351e565b61351582602001850186612eef565b82955050505050505b90565b61352a81612df5565b811461353557600080fd5b50565b61354181612e19565b811461354c57600080fd5b50565b61355881612e25565b811461356357600080fd5b50565b61356f81612e71565b811461357a57600080fd5b5056fea2646970667358221220eb7438780cdb0bfdc4681c1c5186c68f4904d2af21f589e62e499e240e064c1f64736f6c6343000804003368747470733a2f2f66616e737a6f69642e636f6d2f6170692f7b69647d2e6a736f6e",
  "devdoc": {
    "kind": "dev",
    "methods": {
      "balanceOf(address,uint256)": {
        "details": "See {IERC1155-balanceOf}. Requirements: - `account` cannot be the zero address."
      },
      "balanceOfBatch(address[],uint256[])": {
        "details": "See {IERC1155-balanceOfBatch}. Requirements: - `accounts` and `ids` must have the same length."
      },
      "isApprovedForAll(address,address)": {
        "details": "See {IERC1155-isApprovedForAll}."
      },
      "safeBatchTransferFrom(address,address,uint256[],uint256[],bytes)": {
        "details": "See {IERC1155-safeBatchTransferFrom}."
      },
      "safeTransferFrom(address,address,uint256,uint256,bytes)": {
        "details": "See {IERC1155-safeTransferFrom}."
      },
      "setApprovalForAll(address,bool)": {
        "details": "See {IERC1155-setApprovalForAll}."
      },
      "supportsInterface(bytes4)": {
        "details": "See {IERC165-supportsInterface}."
      },
      "uri(uint256)": {
        "details": "See {IERC1155MetadataURI-uri}. This implementation returns the same URI for *all* token types. It relies on the token type ID substitution mechanism https://eips.ethereum.org/EIPS/eip-1155#metadata[defined in the EIP]. Clients calling this function must replace the `\\{id\\}` substring with the actual token type ID."
      }
    },
    "version": 1
  },
  "userdoc": {
    "kind": "user",
    "methods": {},
    "version": 1
  },
  "storageLayout": {
    "storage": [
      {
        "astId": 65,
        "contract": "src/TicketsNFT.sol:TicketsNFT",
        "label": "_balances",
        "offset": 0,
        "slot": "0",
        "type": "t_mapping(t_uint256,t_mapping(t_address,t_uint256))"
      },
      {
        "astId": 71,
        "contract": "src/TicketsNFT.sol:TicketsNFT",
        "label": "_operatorApprovals",
        "offset": 0,
        "slot": "1",
        "type": "t_mapping(t_address,t_mapping(t_address,t_bool))"
      },
      {
        "astId": 73,
        "contract": "src/TicketsNFT.sol:TicketsNFT",
        "label": "_uri",
        "offset": 0,
        "slot": "2",
        "type": "t_string_storage"
      },
      {
        "astId": 10,
        "contract": "src/TicketsNFT.sol:TicketsNFT",
        "label": "_status",
        "offset": 0,
        "slot": "3",
        "type": "t_uint256"
      },
      {
        "astId": 10341,
        "contract": "src/TicketsNFT.sol:TicketsNFT",
        "label": "_tokenIds",
        "offset": 0,
        "slot": "4",
        "type": "t_struct(Counter)1623_storage"
      },
      {
        "astId": 10343,
        "contract": "src/TicketsNFT.sol:TicketsNFT",
        "label": "marketplaceAddress",
        "offset": 0,
        "slot": "5",
        "type": "t_address"
      }
    ],
    "types": {
      "t_address": {
        "encoding": "inplace",
        "label": "address",
        "numberOfBytes": "20"
      },
      "t_bool": {
        "encoding": "inplace",
        "label": "bool",
        "numberOfBytes": "1"
      },
      "t_mapping(t_address,t_bool)": {
        "encoding": "mapping",
        "key": "t_address",
        "label": "mapping(address => bool)",
        "numberOfBytes": "32",
        "value": "t_bool"
      },
      "t_mapping(t_address,t_mapping(t_address,t_bool))": {
        "encoding": "mapping",
        "key": "t_address",
        "label": "mapping(address => mapping(address => bool))",
        "numberOfBytes": "32",
        "value": "t_mapping(t_address,t_bool)"
      },
      "t_mapping(t_address,t_uint256)": {
        "encoding": "mapping",
        "key": "t_address",
        "label": "mapping(address => uint256)",
        "numberOfBytes": "32",
        "value": "t_uint256"
      },
      "t_mapping(t_uint256,t_mapping(t_address,t_uint256))": {
        "encoding": "mapping",
        "key": "t_uint256",
        "label": "mapping(uint256 => mapping(address => uint256))",
        "numberOfBytes": "32",
        "value": "t_mapping(t_address,t_uint256)"
      },
      "t_string_storage": {
        "encoding": "bytes",
        "label": "string",
        "numberOfBytes": "32"
      },
      "t_struct(Counter)1623_storage": {
        "encoding": "inplace",
        "label": "struct Counters.Counter",
        "members": [
          {
            "astId": 1622,
            "contract": "src/TicketsNFT.sol:TicketsNFT",
            "label": "_value",
            "offset": 0,
            "slot": "0",
            "type": "t_uint256"
          }
        ],
        "numberOfBytes": "32"
      },
      "t_uint256": {
        "encoding": "inplace",
        "label": "uint256",
        "numberOfBytes": "32"
      }
    }
  }
}