{
  "address": "0xD9b15f3258B0C7b3f69AcDBb5BCFf4D89495F6c3",
  "abi": [
    {
      "inputs": [
        {
          "internalType": "address",
          "name": "_marketplaceAddress",
          "type": "address"
        }
      ],
      "stateMutability": "nonpayable",
      "type": "constructor"
    },
    {
      "anonymous": false,
      "inputs": [
        {
          "indexed": true,
          "internalType": "address",
          "name": "account",
          "type": "address"
        },
        {
          "indexed": true,
          "internalType": "address",
          "name": "operator",
          "type": "address"
        },
        {
          "indexed": false,
          "internalType": "bool",
          "name": "approved",
          "type": "bool"
        }
      ],
      "name": "ApprovalForAll",
      "type": "event"
    },
    {
      "anonymous": false,
      "inputs": [
        {
          "indexed": true,
          "internalType": "address",
          "name": "operator",
          "type": "address"
        },
        {
          "indexed": true,
          "internalType": "address",
          "name": "from",
          "type": "address"
        },
        {
          "indexed": true,
          "internalType": "address",
          "name": "to",
          "type": "address"
        },
        {
          "indexed": false,
          "internalType": "uint256[]",
          "name": "ids",
          "type": "uint256[]"
        },
        {
          "indexed": false,
          "internalType": "uint256[]",
          "name": "values",
          "type": "uint256[]"
        }
      ],
      "name": "TransferBatch",
      "type": "event"
    },
    {
      "anonymous": false,
      "inputs": [
        {
          "indexed": true,
          "internalType": "address",
          "name": "operator",
          "type": "address"
        },
        {
          "indexed": true,
          "internalType": "address",
          "name": "from",
          "type": "address"
        },
        {
          "indexed": true,
          "internalType": "address",
          "name": "to",
          "type": "address"
        },
        {
          "indexed": false,
          "internalType": "uint256",
          "name": "id",
          "type": "uint256"
        },
        {
          "indexed": false,
          "internalType": "uint256",
          "name": "value",
          "type": "uint256"
        }
      ],
      "name": "TransferSingle",
      "type": "event"
    },
    {
      "anonymous": false,
      "inputs": [
        {
          "indexed": false,
          "internalType": "string",
          "name": "value",
          "type": "string"
        },
        {
          "indexed": true,
          "internalType": "uint256",
          "name": "id",
          "type": "uint256"
        }
      ],
      "name": "URI",
      "type": "event"
    },
    {
      "anonymous": false,
      "inputs": [
        {
          "indexed": false,
          "internalType": "uint256",
          "name": "eventId",
          "type": "uint256"
        },
        {
          "indexed": false,
          "internalType": "uint256",
          "name": "ticketTypesCount",
          "type": "uint256"
        },
        {
          "indexed": false,
          "internalType": "uint256[]",
          "name": "newTokenIds",
          "type": "uint256[]"
        },
        {
          "indexed": false,
          "internalType": "uint256[]",
          "name": "amounts",
          "type": "uint256[]"
        },
        {
          "indexed": false,
          "internalType": "uint256[]",
          "name": "askingPrices",
          "type": "uint256[]"
        },
        {
          "indexed": false,
          "internalType": "uint256[]",
          "name": "creatorRoyalties",
          "type": "uint256[]"
        },
        {
          "indexed": false,
          "internalType": "address",
          "name": "publisher",
          "type": "address"
        }
      ],
      "name": "ticketsPublished",
      "type": "event"
    },
    {
      "inputs": [],
      "name": "MINIMUM_ASK",
      "outputs": [
        {
          "internalType": "uint256",
          "name": "",
          "type": "uint256"
        }
      ],
      "stateMutability": "view",
      "type": "function"
    },
    {
      "inputs": [],
      "name": "_owner",
      "outputs": [
        {
          "internalType": "address payable",
          "name": "",
          "type": "address"
        }
      ],
      "stateMutability": "view",
      "type": "function"
    },
    {
      "inputs": [],
      "name": "_uri",
      "outputs": [
        {
          "internalType": "string",
          "name": "",
          "type": "string"
        }
      ],
      "stateMutability": "view",
      "type": "function"
    },
    {
      "inputs": [
        {
          "internalType": "address",
          "name": "account",
          "type": "address"
        },
        {
          "internalType": "uint256",
          "name": "id",
          "type": "uint256"
        }
      ],
      "name": "balanceOf",
      "outputs": [
        {
          "internalType": "uint256",
          "name": "",
          "type": "uint256"
        }
      ],
      "stateMutability": "view",
      "type": "function"
    },
    {
      "inputs": [
        {
          "internalType": "address[]",
          "name": "accounts",
          "type": "address[]"
        },
        {
          "internalType": "uint256[]",
          "name": "ids",
          "type": "uint256[]"
        }
      ],
      "name": "balanceOfBatch",
      "outputs": [
        {
          "internalType": "uint256[]",
          "name": "",
          "type": "uint256[]"
        }
      ],
      "stateMutability": "view",
      "type": "function"
    },
    {
      "inputs": [
        {
          "internalType": "address",
          "name": "account",
          "type": "address"
        },
        {
          "internalType": "address",
          "name": "operator",
          "type": "address"
        }
      ],
      "name": "isApprovedForAll",
      "outputs": [
        {
          "internalType": "bool",
          "name": "",
          "type": "bool"
        }
      ],
      "stateMutability": "view",
      "type": "function"
    },
    {
      "inputs": [],
      "name": "marketplaceAddress",
      "outputs": [
        {
          "internalType": "address",
          "name": "",
          "type": "address"
        }
      ],
      "stateMutability": "view",
      "type": "function"
    },
    {
      "inputs": [
        {
          "internalType": "uint256",
          "name": "eventId",
          "type": "uint256"
        },
        {
          "internalType": "uint256",
          "name": "ticketTypesCount",
          "type": "uint256"
        },
        {
          "internalType": "uint256[]",
          "name": "amounts",
          "type": "uint256[]"
        },
        {
          "internalType": "uint256[]",
          "name": "askingPrices",
          "type": "uint256[]"
        },
        {
          "internalType": "uint256[]",
          "name": "creatorRoyalties",
          "type": "uint256[]"
        }
      ],
      "name": "publishEventTickets",
      "outputs": [],
      "stateMutability": "nonpayable",
      "type": "function"
    },
    {
      "inputs": [
        {
          "internalType": "uint256",
          "name": "tokenId",
          "type": "uint256"
        }
      ],
      "name": "removeAsk",
      "outputs": [],
      "stateMutability": "nonpayable",
      "type": "function"
    },
    {
      "inputs": [
        {
          "internalType": "address",
          "name": "from",
          "type": "address"
        },
        {
          "internalType": "address",
          "name": "to",
          "type": "address"
        },
        {
          "internalType": "uint256[]",
          "name": "ids",
          "type": "uint256[]"
        },
        {
          "internalType": "uint256[]",
          "name": "amounts",
          "type": "uint256[]"
        },
        {
          "internalType": "bytes",
          "name": "data",
          "type": "bytes"
        }
      ],
      "name": "safeBatchTransferFrom",
      "outputs": [],
      "stateMutability": "nonpayable",
      "type": "function"
    },
    {
      "inputs": [
        {
          "internalType": "address",
          "name": "from",
          "type": "address"
        },
        {
          "internalType": "address",
          "name": "to",
          "type": "address"
        },
        {
          "internalType": "uint256",
          "name": "id",
          "type": "uint256"
        },
        {
          "internalType": "uint256",
          "name": "amount",
          "type": "uint256"
        },
        {
          "internalType": "bytes",
          "name": "data",
          "type": "bytes"
        }
      ],
      "name": "safeTransferFrom",
      "outputs": [],
      "stateMutability": "nonpayable",
      "type": "function"
    },
    {
      "inputs": [
        {
          "internalType": "address",
          "name": "operator",
          "type": "address"
        },
        {
          "internalType": "bool",
          "name": "approved",
          "type": "bool"
        }
      ],
      "name": "setApprovalForAll",
      "outputs": [],
      "stateMutability": "nonpayable",
      "type": "function"
    },
    {
      "inputs": [
        {
          "internalType": "uint256",
          "name": "tokenId",
          "type": "uint256"
        },
        {
          "internalType": "uint256",
          "name": "askingPrice",
          "type": "uint256"
        }
      ],
      "name": "setAsk",
      "outputs": [],
      "stateMutability": "nonpayable",
      "type": "function"
    },
    {
      "inputs": [
        {
          "internalType": "string",
          "name": "uri",
          "type": "string"
        }
      ],
      "name": "setTokenUri",
      "outputs": [],
      "stateMutability": "nonpayable",
      "type": "function"
    },
    {
      "inputs": [
        {
          "internalType": "bytes4",
          "name": "interfaceId",
          "type": "bytes4"
        }
      ],
      "name": "supportsInterface",
      "outputs": [
        {
          "internalType": "bool",
          "name": "",
          "type": "bool"
        }
      ],
      "stateMutability": "view",
      "type": "function"
    },
    {
      "inputs": [
        {
          "internalType": "uint256",
          "name": "",
          "type": "uint256"
        }
      ],
      "name": "uri",
      "outputs": [
        {
          "internalType": "string",
          "name": "",
          "type": "string"
        }
      ],
      "stateMutability": "view",
      "type": "function"
    }
  ],
  "transactionHash": "0x0eb4f10f686ac900319309373e82342170170863574ca545ade5722fa1e91bed",
  "args": [
    "0x158f539764707f544F02181C72dF0F750358bBb4"
  ],
  "solcInputHash": "fcf04872aed6364ccd94d2d960cdde8a",
  "bytecode": "0x60806040523480156200001157600080fd5b5060405162003cde38038062003cde833981810160405281019062000037919062000209565b60405180606001604052806022815260200162003cbc6022913962000062816200012660201b60201c565b50600160038190555080600760006101000a81548173ffffffffffffffffffffffffffffffffffffffff021916908373ffffffffffffffffffffffffffffffffffffffff16021790555060405180606001604052806022815260200162003cbc6022913960069080519060200190620000dd92919062000142565b5033600560006101000a81548173ffffffffffffffffffffffffffffffffffffffff021916908373ffffffffffffffffffffffffffffffffffffffff16021790555050620002e8565b80600290805190602001906200013e92919062000142565b5050565b828054620001509062000269565b90600052602060002090601f016020900481019282620001745760008555620001c0565b82601f106200018f57805160ff1916838001178555620001c0565b82800160010185558215620001c0579182015b82811115620001bf578251825591602001919060010190620001a2565b5b509050620001cf9190620001d3565b5090565b5b80821115620001ee576000816000905550600101620001d4565b5090565b6000815190506200020381620002ce565b92915050565b6000602082840312156200021c57600080fd5b60006200022c84828501620001f2565b91505092915050565b6000620002428262000249565b9050919050565b600073ffffffffffffffffffffffffffffffffffffffff82169050919050565b600060028204905060018216806200028257607f821691505b602082108114156200029957620002986200029f565b5b50919050565b7f4e487b7100000000000000000000000000000000000000000000000000000000600052602260045260246000fd5b620002d98162000235565b8114620002e557600080fd5b50565b6139c480620002f86000396000f3fe608060405234801561001057600080fd5b50600436106100ff5760003560e01c80634e1273f411610097578063daa17f4911610066578063daa17f49146102aa578063e49f8768146102c8578063e985e9c5146102e4578063f242432a14610314576100ff565b80634e1273f4146102225780635d080ba614610252578063a22cb46514610270578063b2bdfa7b1461028c576100ff565b80630e89341c116100d35780630e89341c1461019e57806328220f35146101ce5780632eb2c2d6146101ea5780634d5da01d14610206576100ff565b8062fdd58e1461010457806301ffc9a7146101345780630675b7c6146101645780630dccc9ad14610180575b600080fd5b61011e600480360381019061011991906124d6565b610330565b60405161012b9190612e8b565b60405180910390f35b61014e6004803603810190610149919061257e565b6103f9565b60405161015b9190612c4e565b60405180910390f35b61017e600480360381019061017991906125d0565b6104db565b005b610188610585565b6040516101959190612c69565b60405180910390f35b6101b860048036038101906101b39190612611565b610613565b6040516101c59190612c69565b60405180910390f35b6101e860048036038101906101e39190612611565b6106a7565b005b61020460048036038101906101ff919061234c565b61078d565b005b610220600480360381019061021b9190612676565b61082e565b005b61023c60048036038101906102379190612512565b610c57565b6040516102499190612bf5565b60405180910390f35b61025a610e08565b6040516102679190612e8b565b60405180910390f35b61028a6004803603810190610285919061249a565b610e13565b005b610294610f94565b6040516102a19190612b18565b60405180910390f35b6102b2610fba565b6040516102bf9190612afd565b60405180910390f35b6102e260048036038101906102dd919061263a565b610fe0565b005b6102fe60048036038101906102f99190612310565b6110f8565b60405161030b9190612c4e565b60405180910390f35b61032e6004803603810190610329919061240b565b61118c565b005b60008073ffffffffffffffffffffffffffffffffffffffff168373ffffffffffffffffffffffffffffffffffffffff1614156103a1576040517f08c379a000000000000000000000000000000000000000000000000000000000815260040161039890612ccb565b60405180910390fd5b60008083815260200190815260200160002060008473ffffffffffffffffffffffffffffffffffffffff1673ffffffffffffffffffffffffffffffffffffffff16815260200190815260200160002054905092915050565b60007fd9b67a26000000000000000000000000000000000000000000000000000000007bffffffffffffffffffffffffffffffffffffffffffffffffffffffff1916827bffffffffffffffffffffffffffffffffffffffffffffffffffffffff191614806104c457507f0e89341c000000000000000000000000000000000000000000000000000000007bffffffffffffffffffffffffffffffffffffffffffffffffffffffff1916827bffffffffffffffffffffffffffffffffffffffffffffffffffffffff1916145b806104d457506104d38261122d565b5b9050919050565b600560009054906101000a900473ffffffffffffffffffffffffffffffffffffffff1673ffffffffffffffffffffffffffffffffffffffff163373ffffffffffffffffffffffffffffffffffffffff161461056b576040517f08c379a000000000000000000000000000000000000000000000000000000000815260040161056290612d2b565b60405180910390fd5b8060069080519060200190610581929190611fbe565b5050565b600680546105929061327f565b80601f01602080910402602001604051908101604052809291908181526020018280546105be9061327f565b801561060b5780601f106105e05761010080835404028352916020019161060b565b820191906000526020600020905b8154815290600101906020018083116105ee57829003601f168201915b505050505081565b6060600280546106229061327f565b80601f016020809104026020016040519081016040528092919081815260200182805461064e9061327f565b801561069b5780601f106106705761010080835404028352916020019161069b565b820191906000526020600020905b81548152906001019060200180831161067e57829003601f168201915b50505050509050919050565b600260035414156106ed576040517f08c379a00000000000000000000000000000000000000000000000000000000081526004016106e490612e6b565b60405180910390fd5b6002600381905550600760009054906101000a900473ffffffffffffffffffffffffffffffffffffffff1673ffffffffffffffffffffffffffffffffffffffff166328220f35826040518263ffffffff1660e01b81526004016107509190612e8b565b600060405180830381600087803b15801561076a57600080fd5b505af115801561077e573d6000803e3d6000fd5b50505050600160038190555050565b610795611297565b73ffffffffffffffffffffffffffffffffffffffff168573ffffffffffffffffffffffffffffffffffffffff1614806107db57506107da856107d5611297565b6110f8565b5b61081a576040517f08c379a000000000000000000000000000000000000000000000000000000000815260040161081190612d6b565b60405180910390fd5b610827858585858561129f565b5050505050565b60026003541415610874576040517f08c379a000000000000000000000000000000000000000000000000000000000815260040161086b90612e6b565b60405180910390fd5b600260038190555060648711156108c0576040517f08c379a00000000000000000000000000000000000000000000000000000000081526004016108b790612dcb565b60405180910390fd5b60005b878110156109eb576101f4838383818110610907577f4e487b7100000000000000000000000000000000000000000000000000000000600052603260045260246000fd5b90506020020135111561094f576040517f08c379a000000000000000000000000000000000000000000000000000000000815260040161094690612ceb565b60405180910390fd5b6611c37937e08000858583818110610990577f4e487b7100000000000000000000000000000000000000000000000000000000600052603260045260246000fd5b9050602002013510156109d8576040517f08c379a00000000000000000000000000000000000000000000000000000000081526004016109cf90612d8b565b60405180910390fd5b80806109e3906132e2565b9150506108c3565b5060008767ffffffffffffffff811115610a2e577f4e487b7100000000000000000000000000000000000000000000000000000000600052604160045260246000fd5b604051908082528060200260200182016040528015610a5c5781602001602082028036833780820191505090505b50905060005b88811015610ad657610a7460046115ff565b610a7e6004611615565b828281518110610ab7577f4e487b7100000000000000000000000000000000000000000000000000000000600052603260045260246000fd5b6020026020010181815250508080610ace906132e2565b915050610a62565b50610b333382898980806020026020016040519081016040528093929190818152602001838360200280828437600081840152601f19601f8201169050808301925050505050505060405180602001604052806000815250611623565b610b60600760009054906101000a900473ffffffffffffffffffffffffffffffffffffffff166001610e13565b600760009054906101000a900473ffffffffffffffffffffffffffffffffffffffff1673ffffffffffffffffffffffffffffffffffffffff16631d563cdc8a8a8489898989336040518963ffffffff1660e01b8152600401610bc9989796959493929190612f06565b600060405180830381600087803b158015610be357600080fd5b505af1158015610bf7573d6000803e3d6000fd5b505050507f08c1de2b5eaa2dc848168ee0ccc383f33b7a6cfc449de0d852dda6b875e488cc8989838a8a8a8a8a8a33604051610c3c9a99989796959493929190612f80565b60405180910390a15060016003819055505050505050505050565b60608151835114610c9d576040517f08c379a0000000000000000000000000000000000000000000000000000000008152600401610c9490612e0b565b60405180910390fd5b6000835167ffffffffffffffff811115610ce0577f4e487b7100000000000000000000000000000000000000000000000000000000600052604160045260246000fd5b604051908082528060200260200182016040528015610d0e5781602001602082028036833780820191505090505b50905060005b8451811015610dfd57610da7858281518110610d59577f4e487b7100000000000000000000000000000000000000000000000000000000600052603260045260246000fd5b6020026020010151858381518110610d9a577f4e487b7100000000000000000000000000000000000000000000000000000000600052603260045260246000fd5b6020026020010151610330565b828281518110610de0577f4e487b7100000000000000000000000000000000000000000000000000000000600052603260045260246000fd5b60200260200101818152505080610df6906132e2565b9050610d14565b508091505092915050565b6611c37937e0800081565b8173ffffffffffffffffffffffffffffffffffffffff16610e32611297565b73ffffffffffffffffffffffffffffffffffffffff161415610e89576040517f08c379a0000000000000000000000000000000000000000000000000000000008152600401610e8090612deb565b60405180910390fd5b8060016000610e96611297565b73ffffffffffffffffffffffffffffffffffffffff1673ffffffffffffffffffffffffffffffffffffffff16815260200190815260200160002060008473ffffffffffffffffffffffffffffffffffffffff1673ffffffffffffffffffffffffffffffffffffffff16815260200190815260200160002060006101000a81548160ff0219169083151502179055508173ffffffffffffffffffffffffffffffffffffffff16610f43611297565b73ffffffffffffffffffffffffffffffffffffffff167f17307eab39ab6107e8899845ad3d59bd9653f200f220920489ca2b5937696c3183604051610f889190612c4e565b60405180910390a35050565b600560009054906101000a900473ffffffffffffffffffffffffffffffffffffffff1681565b600760009054906101000a900473ffffffffffffffffffffffffffffffffffffffff1681565b60026003541415611026576040517f08c379a000000000000000000000000000000000000000000000000000000000815260040161101d90612e6b565b60405180910390fd5b6002600381905550600760009054906101000a900473ffffffffffffffffffffffffffffffffffffffff1673ffffffffffffffffffffffffffffffffffffffff16633b7878978383336040518463ffffffff1660e01b815260040161108d93929190612ecf565b600060405180830381600087803b1580156110a757600080fd5b505af11580156110bb573d6000803e3d6000fd5b505050506110ec600760009054906101000a900473ffffffffffffffffffffffffffffffffffffffff166001610e13565b60016003819055505050565b6000600160008473ffffffffffffffffffffffffffffffffffffffff1673ffffffffffffffffffffffffffffffffffffffff16815260200190815260200160002060008373ffffffffffffffffffffffffffffffffffffffff1673ffffffffffffffffffffffffffffffffffffffff16815260200190815260200160002060009054906101000a900460ff16905092915050565b611194611297565b73ffffffffffffffffffffffffffffffffffffffff168573ffffffffffffffffffffffffffffffffffffffff1614806111da57506111d9856111d4611297565b6110f8565b5b611219576040517f08c379a000000000000000000000000000000000000000000000000000000000815260040161121090612d0b565b60405180910390fd5b611226858585858561188d565b5050505050565b60007f01ffc9a7000000000000000000000000000000000000000000000000000000007bffffffffffffffffffffffffffffffffffffffffffffffffffffffff1916827bffffffffffffffffffffffffffffffffffffffffffffffffffffffff1916149050919050565b600033905090565b81518351146112e3576040517f08c379a00000000000000000000000000000000000000000000000000000000081526004016112da90612e2b565b60405180910390fd5b600073ffffffffffffffffffffffffffffffffffffffff168473ffffffffffffffffffffffffffffffffffffffff161415611353576040517f08c379a000000000000000000000000000000000000000000000000000000000815260040161134a90612d4b565b60405180910390fd5b600061135d611297565b905061136d818787878787611b0f565b60005b845181101561156a5760008582815181106113b4577f4e487b7100000000000000000000000000000000000000000000000000000000600052603260045260246000fd5b6020026020010151905060008583815181106113f9577f4e487b7100000000000000000000000000000000000000000000000000000000600052603260045260246000fd5b60200260200101519050600080600084815260200190815260200160002060008b73ffffffffffffffffffffffffffffffffffffffff1673ffffffffffffffffffffffffffffffffffffffff1681526020019081526020016000205490508181101561149a576040517f08c379a000000000000000000000000000000000000000000000000000000000815260040161149190612dab565b60405180910390fd5b81810360008085815260200190815260200160002060008c73ffffffffffffffffffffffffffffffffffffffff1673ffffffffffffffffffffffffffffffffffffffff168152602001908152602001600020819055508160008085815260200190815260200160002060008b73ffffffffffffffffffffffffffffffffffffffff1673ffffffffffffffffffffffffffffffffffffffff168152602001908152602001600020600082825461154f9190613161565b9250508190555050505080611563906132e2565b9050611370565b508473ffffffffffffffffffffffffffffffffffffffff168673ffffffffffffffffffffffffffffffffffffffff168273ffffffffffffffffffffffffffffffffffffffff167f4a39dc06d4c0dbc64b70af90fd698a233a518aa5d07e595d983b8c0526c8f7fb87876040516115e1929190612c17565b60405180910390a46115f7818787878787611b17565b505050505050565b6001816000016000828254019250508190555050565b600081600001549050919050565b600073ffffffffffffffffffffffffffffffffffffffff168473ffffffffffffffffffffffffffffffffffffffff161415611693576040517f08c379a000000000000000000000000000000000000000000000000000000000815260040161168a90612e4b565b60405180910390fd5b81518351146116d7576040517f08c379a00000000000000000000000000000000000000000000000000000000081526004016116ce90612e2b565b60405180910390fd5b60006116e1611297565b90506116f281600087878787611b0f565b60005b84518110156117f757838181518110611737577f4e487b7100000000000000000000000000000000000000000000000000000000600052603260045260246000fd5b602002602001015160008087848151811061177b577f4e487b7100000000000000000000000000000000000000000000000000000000600052603260045260246000fd5b6020026020010151815260200190815260200160002060008873ffffffffffffffffffffffffffffffffffffffff1673ffffffffffffffffffffffffffffffffffffffff16815260200190815260200160002060008282546117dd9190613161565b9250508190555080806117ef906132e2565b9150506116f5565b508473ffffffffffffffffffffffffffffffffffffffff16600073ffffffffffffffffffffffffffffffffffffffff168273ffffffffffffffffffffffffffffffffffffffff167f4a39dc06d4c0dbc64b70af90fd698a233a518aa5d07e595d983b8c0526c8f7fb878760405161186f929190612c17565b60405180910390a461188681600087878787611b17565b5050505050565b600073ffffffffffffffffffffffffffffffffffffffff168473ffffffffffffffffffffffffffffffffffffffff1614156118fd576040517f08c379a00000000000000000000000000000000000000000000000000000000081526004016118f490612d4b565b60405180910390fd5b6000611907611297565b905061192781878761191888611cfe565b61192188611cfe565b87611b0f565b600080600086815260200190815260200160002060008873ffffffffffffffffffffffffffffffffffffffff1673ffffffffffffffffffffffffffffffffffffffff168152602001908152602001600020549050838110156119be576040517f08c379a00000000000000000000000000000000000000000000000000000000081526004016119b590612dab565b60405180910390fd5b83810360008087815260200190815260200160002060008973ffffffffffffffffffffffffffffffffffffffff1673ffffffffffffffffffffffffffffffffffffffff168152602001908152602001600020819055508360008087815260200190815260200160002060008873ffffffffffffffffffffffffffffffffffffffff1673ffffffffffffffffffffffffffffffffffffffff1681526020019081526020016000206000828254611a739190613161565b925050819055508573ffffffffffffffffffffffffffffffffffffffff168773ffffffffffffffffffffffffffffffffffffffff168373ffffffffffffffffffffffffffffffffffffffff167fc3d58168c5ae7397731d063d5bbf3d657854427343f4c083240f7aacaa2d0f628888604051611af0929190612ea6565b60405180910390a4611b06828888888888611dc4565b50505050505050565b505050505050565b611b368473ffffffffffffffffffffffffffffffffffffffff16611fab565b15611cf6578373ffffffffffffffffffffffffffffffffffffffff1663bc197c8187878686866040518663ffffffff1660e01b8152600401611b7c959493929190612b33565b602060405180830381600087803b158015611b9657600080fd5b505af1925050508015611bc757506040513d601f19601f82011682018060405250810190611bc491906125a7565b60015b611c6d57611bd36133b8565b806308c379a01415611c305750611be861389c565b80611bf35750611c32565b806040517f08c379a0000000000000000000000000000000000000000000000000000000008152600401611c279190612c69565b60405180910390fd5b505b6040517f08c379a0000000000000000000000000000000000000000000000000000000008152600401611c6490612c8b565b60405180910390fd5b63bc197c8160e01b7bffffffffffffffffffffffffffffffffffffffffffffffffffffffff1916817bffffffffffffffffffffffffffffffffffffffffffffffffffffffff191614611cf4576040517f08c379a0000000000000000000000000000000000000000000000000000000008152600401611ceb90612cab565b60405180910390fd5b505b505050505050565b60606000600167ffffffffffffffff811115611d43577f4e487b7100000000000000000000000000000000000000000000000000000000600052604160045260246000fd5b604051908082528060200260200182016040528015611d715781602001602082028036833780820191505090505b5090508281600081518110611daf577f4e487b7100000000000000000000000000000000000000000000000000000000600052603260045260246000fd5b60200260200101818152505080915050919050565b611de38473ffffffffffffffffffffffffffffffffffffffff16611fab565b15611fa3578373ffffffffffffffffffffffffffffffffffffffff1663f23a6e6187878686866040518663ffffffff1660e01b8152600401611e29959493929190612b9b565b602060405180830381600087803b158015611e4357600080fd5b505af1925050508015611e7457506040513d601f19601f82011682018060405250810190611e7191906125a7565b60015b611f1a57611e806133b8565b806308c379a01415611edd5750611e9561389c565b80611ea05750611edf565b806040517f08c379a0000000000000000000000000000000000000000000000000000000008152600401611ed49190612c69565b60405180910390fd5b505b6040517f08c379a0000000000000000000000000000000000000000000000000000000008152600401611f1190612c8b565b60405180910390fd5b63f23a6e6160e01b7bffffffffffffffffffffffffffffffffffffffffffffffffffffffff1916817bffffffffffffffffffffffffffffffffffffffffffffffffffffffff191614611fa1576040517f08c379a0000000000000000000000000000000000000000000000000000000008152600401611f9890612cab565b60405180910390fd5b505b505050505050565b600080823b905060008111915050919050565b828054611fca9061327f565b90600052602060002090601f016020900481019282611fec5760008555612033565b82601f1061200557805160ff1916838001178555612033565b82800160010185558215612033579182015b82811115612032578251825591602001919060010190612017565b5b5090506120409190612044565b5090565b5b8082111561205d576000816000905550600101612045565b5090565b600061207461206f84613036565b613011565b9050808382526020820190508285602086028201111561209357600080fd5b60005b858110156120c357816120a988826121b5565b845260208401935060208301925050600181019050612096565b5050509392505050565b60006120e06120db84613062565b613011565b905080838252602082019050828560208602820111156120ff57600080fd5b60005b8581101561212f578161211588826122fb565b845260208401935060208301925050600181019050612102565b5050509392505050565b600061214c6121478461308e565b613011565b90508281526020810184848401111561216457600080fd5b61216f84828561323d565b509392505050565b600061218a612185846130bf565b613011565b9050828152602081018484840111156121a257600080fd5b6121ad84828561323d565b509392505050565b6000813590506121c481613932565b92915050565b600082601f8301126121db57600080fd5b81356121eb848260208601612061565b91505092915050565b60008083601f84011261220657600080fd5b8235905067ffffffffffffffff81111561221f57600080fd5b60208301915083602082028301111561223757600080fd5b9250929050565b600082601f83011261224f57600080fd5b813561225f8482602086016120cd565b91505092915050565b60008135905061227781613949565b92915050565b60008135905061228c81613960565b92915050565b6000815190506122a181613960565b92915050565b600082601f8301126122b857600080fd5b81356122c8848260208601612139565b91505092915050565b600082601f8301126122e257600080fd5b81356122f2848260208601612177565b91505092915050565b60008135905061230a81613977565b92915050565b6000806040838503121561232357600080fd5b6000612331858286016121b5565b9250506020612342858286016121b5565b9150509250929050565b600080600080600060a0868803121561236457600080fd5b6000612372888289016121b5565b9550506020612383888289016121b5565b945050604086013567ffffffffffffffff8111156123a057600080fd5b6123ac8882890161223e565b935050606086013567ffffffffffffffff8111156123c957600080fd5b6123d58882890161223e565b925050608086013567ffffffffffffffff8111156123f257600080fd5b6123fe888289016122a7565b9150509295509295909350565b600080600080600060a0868803121561242357600080fd5b6000612431888289016121b5565b9550506020612442888289016121b5565b9450506040612453888289016122fb565b9350506060612464888289016122fb565b925050608086013567ffffffffffffffff81111561248157600080fd5b61248d888289016122a7565b9150509295509295909350565b600080604083850312156124ad57600080fd5b60006124bb858286016121b5565b92505060206124cc85828601612268565b9150509250929050565b600080604083850312156124e957600080fd5b60006124f7858286016121b5565b9250506020612508858286016122fb565b9150509250929050565b6000806040838503121561252557600080fd5b600083013567ffffffffffffffff81111561253f57600080fd5b61254b858286016121ca565b925050602083013567ffffffffffffffff81111561256857600080fd5b6125748582860161223e565b9150509250929050565b60006020828403121561259057600080fd5b600061259e8482850161227d565b91505092915050565b6000602082840312156125b957600080fd5b60006125c784828501612292565b91505092915050565b6000602082840312156125e257600080fd5b600082013567ffffffffffffffff8111156125fc57600080fd5b612608848285016122d1565b91505092915050565b60006020828403121561262357600080fd5b6000612631848285016122fb565b91505092915050565b6000806040838503121561264d57600080fd5b600061265b858286016122fb565b925050602061266c858286016122fb565b9150509250929050565b60008060008060008060008060a0898b03121561269257600080fd5b60006126a08b828c016122fb565b98505060206126b18b828c016122fb565b975050604089013567ffffffffffffffff8111156126ce57600080fd5b6126da8b828c016121f4565b9650965050606089013567ffffffffffffffff8111156126f957600080fd5b6127058b828c016121f4565b9450945050608089013567ffffffffffffffff81111561272457600080fd5b6127308b828c016121f4565b92509250509295985092959890939650565b600061274e8383612adf565b60208301905092915050565b612763816131c9565b82525050565b612772816131b7565b82525050565b6000612784838561312e565b93507f07ffffffffffffffffffffffffffffffffffffffffffffffffffffffffffffff8311156127b357600080fd5b6020830292506127c483858461323d565b82840190509392505050565b60006127db82613100565b6127e5818561312e565b93506127f0836130f0565b8060005b838110156128215781516128088882612742565b975061281383613121565b9250506001810190506127f4565b5085935050505092915050565b612837816131db565b82525050565b60006128488261310b565b612852818561313f565b935061286281856020860161324c565b61286b816133da565b840191505092915050565b600061288182613116565b61288b8185613150565b935061289b81856020860161324c565b6128a4816133da565b840191505092915050565b60006128bc603483613150565b91506128c7826133f8565b604082019050919050565b60006128df602883613150565b91506128ea82613447565b604082019050919050565b6000612902602b83613150565b915061290d82613496565b604082019050919050565b6000612925602e83613150565b9150612930826134e5565b604082019050919050565b6000612948602983613150565b915061295382613534565b604082019050919050565b600061296b602f83613150565b915061297682613583565b604082019050919050565b600061298e602583613150565b9150612999826135d2565b604082019050919050565b60006129b1603283613150565b91506129bc82613621565b604082019050919050565b60006129d4602d83613150565b91506129df82613670565b604082019050919050565b60006129f7602a83613150565b9150612a02826136bf565b604082019050919050565b6000612a1a601d83613150565b9150612a258261370e565b602082019050919050565b6000612a3d602983613150565b9150612a4882613737565b604082019050919050565b6000612a60602983613150565b9150612a6b82613786565b604082019050919050565b6000612a83602883613150565b9150612a8e826137d5565b604082019050919050565b6000612aa6602183613150565b9150612ab182613824565b604082019050919050565b6000612ac9601f83613150565b9150612ad482613873565b602082019050919050565b612ae881613233565b82525050565b612af781613233565b82525050565b6000602082019050612b126000830184612769565b92915050565b6000602082019050612b2d600083018461275a565b92915050565b600060a082019050612b486000830188612769565b612b556020830187612769565b8181036040830152612b6781866127d0565b90508181036060830152612b7b81856127d0565b90508181036080830152612b8f818461283d565b90509695505050505050565b600060a082019050612bb06000830188612769565b612bbd6020830187612769565b612bca6040830186612aee565b612bd76060830185612aee565b8181036080830152612be9818461283d565b90509695505050505050565b60006020820190508181036000830152612c0f81846127d0565b905092915050565b60006040820190508181036000830152612c3181856127d0565b90508181036020830152612c4581846127d0565b90509392505050565b6000602082019050612c63600083018461282e565b92915050565b60006020820190508181036000830152612c838184612876565b905092915050565b60006020820190508181036000830152612ca4816128af565b9050919050565b60006020820190508181036000830152612cc4816128d2565b9050919050565b60006020820190508181036000830152612ce4816128f5565b9050919050565b60006020820190508181036000830152612d0481612918565b9050919050565b60006020820190508181036000830152612d248161293b565b9050919050565b60006020820190508181036000830152612d448161295e565b9050919050565b60006020820190508181036000830152612d6481612981565b9050919050565b60006020820190508181036000830152612d84816129a4565b9050919050565b60006020820190508181036000830152612da4816129c7565b9050919050565b60006020820190508181036000830152612dc4816129ea565b9050919050565b60006020820190508181036000830152612de481612a0d565b9050919050565b60006020820190508181036000830152612e0481612a30565b9050919050565b60006020820190508181036000830152612e2481612a53565b9050919050565b60006020820190508181036000830152612e4481612a76565b9050919050565b60006020820190508181036000830152612e6481612a99565b9050919050565b60006020820190508181036000830152612e8481612abc565b9050919050565b6000602082019050612ea06000830184612aee565b92915050565b6000604082019050612ebb6000830185612aee565b612ec86020830184612aee565b9392505050565b6000606082019050612ee46000830186612aee565b612ef16020830185612aee565b612efe6040830184612769565b949350505050565b600060c082019050612f1b600083018b612aee565b612f28602083018a612aee565b8181036040830152612f3a81896127d0565b90508181036060830152612f4f818789612778565b90508181036080830152612f64818587612778565b9050612f7360a083018461275a565b9998505050505050505050565b600060e082019050612f95600083018d612aee565b612fa2602083018c612aee565b8181036040830152612fb4818b6127d0565b90508181036060830152612fc981898b612778565b90508181036080830152612fde818789612778565b905081810360a0830152612ff3818587612778565b905061300260c0830184612769565b9b9a5050505050505050505050565b600061301b61302c565b905061302782826132b1565b919050565b6000604051905090565b600067ffffffffffffffff82111561305157613050613389565b5b602082029050602081019050919050565b600067ffffffffffffffff82111561307d5761307c613389565b5b602082029050602081019050919050565b600067ffffffffffffffff8211156130a9576130a8613389565b5b6130b2826133da565b9050602081019050919050565b600067ffffffffffffffff8211156130da576130d9613389565b5b6130e3826133da565b9050602081019050919050565b6000819050602082019050919050565b600081519050919050565b600081519050919050565b600081519050919050565b6000602082019050919050565b600082825260208201905092915050565b600082825260208201905092915050565b600082825260208201905092915050565b600061316c82613233565b915061317783613233565b9250827fffffffffffffffffffffffffffffffffffffffffffffffffffffffffffffffff038211156131ac576131ab61332b565b5b828201905092915050565b60006131c282613213565b9050919050565b60006131d482613213565b9050919050565b60008115159050919050565b60007fffffffff0000000000000000000000000000000000000000000000000000000082169050919050565b600073ffffffffffffffffffffffffffffffffffffffff82169050919050565b6000819050919050565b82818337600083830152505050565b60005b8381101561326a57808201518184015260208101905061324f565b83811115613279576000848401525b50505050565b6000600282049050600182168061329757607f821691505b602082108114156132ab576132aa61335a565b5b50919050565b6132ba826133da565b810181811067ffffffffffffffff821117156132d9576132d8613389565b5b80604052505050565b60006132ed82613233565b91507fffffffffffffffffffffffffffffffffffffffffffffffffffffffffffffffff8214156133205761331f61332b565b5b600182019050919050565b7f4e487b7100000000000000000000000000000000000000000000000000000000600052601160045260246000fd5b7f4e487b7100000000000000000000000000000000000000000000000000000000600052602260045260246000fd5b7f4e487b7100000000000000000000000000000000000000000000000000000000600052604160045260246000fd5b600060033d11156133d75760046000803e6133d46000516133eb565b90505b90565b6000601f19601f8301169050919050565b60008160e01c9050919050565b7f455243313135353a207472616e7366657220746f206e6f6e204552433131353560008201527f526563656976657220696d706c656d656e746572000000000000000000000000602082015250565b7f455243313135353a204552433131353552656365697665722072656a6563746560008201527f6420746f6b656e73000000000000000000000000000000000000000000000000602082015250565b7f455243313135353a2062616c616e636520717565727920666f7220746865207a60008201527f65726f2061646472657373000000000000000000000000000000000000000000602082015250565b7f5469636b6574734e46543a206d61782063726561746f72526f79616c7479207360008201527f7570706f72746564206973203525000000000000000000000000000000000000602082015250565b7f455243313135353a2063616c6c6572206973206e6f74206f776e6572206e6f7260008201527f20617070726f7665640000000000000000000000000000000000000000000000602082015250565b7f5469636b6574734e46543a204f6e6c79206f776e65722063616e206d6f64696660008201527f792074686520746f6b656e207572690000000000000000000000000000000000602082015250565b7f455243313135353a207472616e7366657220746f20746865207a65726f20616460008201527f6472657373000000000000000000000000000000000000000000000000000000602082015250565b7f455243313135353a207472616e736665722063616c6c6572206973206e6f742060008201527f6f776e6572206e6f7220617070726f7665640000000000000000000000000000602082015250565b7f5469636b6574734e46543a206d696e696d756d2061736b696e6720707269636560008201527f206e6f74206d6174636865642e00000000000000000000000000000000000000602082015250565b7f455243313135353a20696e73756666696369656e742062616c616e636520666f60008201527f72207472616e7366657200000000000000000000000000000000000000000000602082015250565b7f5469636b6574734e46543a20546f6f206d756368207469636b65747321000000600082015250565b7f455243313135353a2073657474696e6720617070726f76616c2073746174757360008201527f20666f722073656c660000000000000000000000000000000000000000000000602082015250565b7f455243313135353a206163636f756e747320616e6420696473206c656e67746860008201527f206d69736d617463680000000000000000000000000000000000000000000000602082015250565b7f455243313135353a2069647320616e6420616d6f756e7473206c656e6774682060008201527f6d69736d61746368000000000000000000000000000000000000000000000000602082015250565b7f455243313135353a206d696e7420746f20746865207a65726f2061646472657360008201527f7300000000000000000000000000000000000000000000000000000000000000602082015250565b7f5265656e7472616e637947756172643a207265656e7472616e742063616c6c00600082015250565b600060443d10156138ac5761392f565b6138b461302c565b60043d036004823e80513d602482011167ffffffffffffffff821117156138dc57505061392f565b808201805167ffffffffffffffff8111156138fa575050505061392f565b80602083010160043d03850181111561391757505050505061392f565b613926826020018501866132b1565b82955050505050505b90565b61393b816131b7565b811461394657600080fd5b50565b613952816131db565b811461395d57600080fd5b50565b613969816131e7565b811461397457600080fd5b50565b61398081613233565b811461398b57600080fd5b5056fea2646970667358221220376120caa0ebb200645c5ecc5194c59f243015a0f2b92642688cadce637a3d5164736f6c6343000804003368747470733a2f2f66616e737a6f69642e636f6d2f6170692f7b69647d2e6a736f6e",
  "devdoc": {
    "kind": "dev",
    "methods": {
      "balanceOf(address,uint256)": {
        "details": "See {IERC1155-balanceOf}. Requirements: - `account` cannot be the zero address."
      },
      "balanceOfBatch(address[],uint256[])": {
        "details": "See {IERC1155-balanceOfBatch}. Requirements: - `accounts` and `ids` must have the same length."
      },
      "isApprovedForAll(address,address)": {
        "details": "See {IERC1155-isApprovedForAll}."
      },
      "safeBatchTransferFrom(address,address,uint256[],uint256[],bytes)": {
        "details": "See {IERC1155-safeBatchTransferFrom}."
      },
      "safeTransferFrom(address,address,uint256,uint256,bytes)": {
        "details": "See {IERC1155-safeTransferFrom}."
      },
      "setApprovalForAll(address,bool)": {
        "details": "See {IERC1155-setApprovalForAll}."
      },
      "supportsInterface(bytes4)": {
        "details": "See {IERC165-supportsInterface}."
      },
      "uri(uint256)": {
        "details": "See {IERC1155MetadataURI-uri}. This implementation returns the same URI for *all* token types. It relies on the token type ID substitution mechanism https://eips.ethereum.org/EIPS/eip-1155#metadata[defined in the EIP]. Clients calling this function must replace the `\\{id\\}` substring with the actual token type ID."
      }
    },
    "version": 1
  },
  "userdoc": {
    "kind": "user",
    "methods": {},
    "version": 1
  },
  "storageLayout": {
    "storage": [
      {
        "astId": 65,
        "contract": "src/TicketsNFT.sol:TicketsNFT",
        "label": "_balances",
        "offset": 0,
        "slot": "0",
        "type": "t_mapping(t_uint256,t_mapping(t_address,t_uint256))"
      },
      {
        "astId": 71,
        "contract": "src/TicketsNFT.sol:TicketsNFT",
        "label": "_operatorApprovals",
        "offset": 0,
        "slot": "1",
        "type": "t_mapping(t_address,t_mapping(t_address,t_bool))"
      },
      {
        "astId": 73,
        "contract": "src/TicketsNFT.sol:TicketsNFT",
        "label": "_uri",
        "offset": 0,
        "slot": "2",
        "type": "t_string_storage"
      },
      {
        "astId": 10,
        "contract": "src/TicketsNFT.sol:TicketsNFT",
        "label": "_status",
        "offset": 0,
        "slot": "3",
        "type": "t_uint256"
      },
      {
        "astId": 10341,
        "contract": "src/TicketsNFT.sol:TicketsNFT",
        "label": "_tokenIds",
        "offset": 0,
        "slot": "4",
        "type": "t_struct(Counter)1623_storage"
      },
      {
        "astId": 10343,
        "contract": "src/TicketsNFT.sol:TicketsNFT",
        "label": "_owner",
        "offset": 0,
        "slot": "5",
        "type": "t_address_payable"
      },
      {
        "astId": 10345,
        "contract": "src/TicketsNFT.sol:TicketsNFT",
        "label": "_uri",
        "offset": 0,
        "slot": "6",
        "type": "t_string_storage"
      },
      {
        "astId": 10347,
        "contract": "src/TicketsNFT.sol:TicketsNFT",
        "label": "marketplaceAddress",
        "offset": 0,
        "slot": "7",
        "type": "t_address"
      }
    ],
    "types": {
      "t_address": {
        "encoding": "inplace",
        "label": "address",
        "numberOfBytes": "20"
      },
      "t_address_payable": {
        "encoding": "inplace",
        "label": "address payable",
        "numberOfBytes": "20"
      },
      "t_bool": {
        "encoding": "inplace",
        "label": "bool",
        "numberOfBytes": "1"
      },
      "t_mapping(t_address,t_bool)": {
        "encoding": "mapping",
        "key": "t_address",
        "label": "mapping(address => bool)",
        "numberOfBytes": "32",
        "value": "t_bool"
      },
      "t_mapping(t_address,t_mapping(t_address,t_bool))": {
        "encoding": "mapping",
        "key": "t_address",
        "label": "mapping(address => mapping(address => bool))",
        "numberOfBytes": "32",
        "value": "t_mapping(t_address,t_bool)"
      },
      "t_mapping(t_address,t_uint256)": {
        "encoding": "mapping",
        "key": "t_address",
        "label": "mapping(address => uint256)",
        "numberOfBytes": "32",
        "value": "t_uint256"
      },
      "t_mapping(t_uint256,t_mapping(t_address,t_uint256))": {
        "encoding": "mapping",
        "key": "t_uint256",
        "label": "mapping(uint256 => mapping(address => uint256))",
        "numberOfBytes": "32",
        "value": "t_mapping(t_address,t_uint256)"
      },
      "t_string_storage": {
        "encoding": "bytes",
        "label": "string",
        "numberOfBytes": "32"
      },
      "t_struct(Counter)1623_storage": {
        "encoding": "inplace",
        "label": "struct Counters.Counter",
        "members": [
          {
            "astId": 1622,
            "contract": "src/TicketsNFT.sol:TicketsNFT",
            "label": "_value",
            "offset": 0,
            "slot": "0",
            "type": "t_uint256"
          }
        ],
        "numberOfBytes": "32"
      },
      "t_uint256": {
        "encoding": "inplace",
        "label": "uint256",
        "numberOfBytes": "32"
      }
    }
  }
}