{
  "_format": "hh-sol-artifact-1",
  "contractName": "TicketsMarketplace",
  "sourceName": "src/TicketsMarketplace.sol",
  "abi": [
    {
      "anonymous": false,
      "inputs": [
        {
          "indexed": true,
          "internalType": "address",
          "name": "seller",
          "type": "address"
        },
        {
          "indexed": true,
          "internalType": "uint256",
          "name": "ticketId",
          "type": "uint256"
        }
      ],
      "name": "AskRemoved",
      "type": "event"
    },
    {
      "anonymous": false,
      "inputs": [
        {
          "indexed": true,
          "internalType": "uint256",
          "name": "ticketId",
          "type": "uint256"
        },
        {
          "indexed": true,
          "internalType": "address",
          "name": "seller",
          "type": "address"
        },
        {
          "indexed": false,
          "internalType": "uint256",
          "name": "ticketPrice",
          "type": "uint256"
        },
        {
          "indexed": false,
          "internalType": "uint256",
          "name": "amount",
          "type": "uint256"
        }
      ],
      "name": "AskSetted",
      "type": "event"
    },
    {
      "anonymous": false,
      "inputs": [
        {
          "indexed": true,
          "internalType": "uint256",
          "name": "ticketId",
          "type": "uint256"
        },
        {
          "indexed": false,
          "internalType": "uint256",
          "name": "newRoyalty",
          "type": "uint256"
        }
      ],
      "name": "CreatorRoyaltyModifiedOnTicket",
      "type": "event"
    },
    {
      "anonymous": false,
      "inputs": [
        {
          "indexed": true,
          "internalType": "address",
          "name": "previousOwner",
          "type": "address"
        },
        {
          "indexed": true,
          "internalType": "address",
          "name": "newOwner",
          "type": "address"
        }
      ],
      "name": "OwnershipTransferred",
      "type": "event"
    },
    {
      "anonymous": false,
      "inputs": [
        {
          "indexed": false,
          "internalType": "address",
          "name": "account",
          "type": "address"
        }
      ],
      "name": "Paused",
      "type": "event"
    },
    {
      "anonymous": false,
      "inputs": [
        {
          "indexed": true,
          "internalType": "uint256",
          "name": "ticketId",
          "type": "uint256"
        },
        {
          "indexed": false,
          "internalType": "uint256",
          "name": "newRoyalty",
          "type": "uint256"
        }
      ],
      "name": "PrimaryMarketRoyaltyModifiedOnTicket",
      "type": "event"
    },
    {
      "anonymous": false,
      "inputs": [
        {
          "indexed": true,
          "internalType": "uint256",
          "name": "ticketId",
          "type": "uint256"
        },
        {
          "indexed": false,
          "internalType": "uint256",
          "name": "newRoyalty",
          "type": "uint256"
        }
      ],
      "name": "SecondaryMarketRoyaltyModifiedOnTicket",
      "type": "event"
    },
    {
      "anonymous": false,
      "inputs": [
        {
          "indexed": true,
          "internalType": "uint256",
          "name": "ticketId",
          "type": "uint256"
        },
        {
          "indexed": false,
          "internalType": "address",
          "name": "seller",
          "type": "address"
        },
        {
          "indexed": false,
          "internalType": "address",
          "name": "buyer",
          "type": "address"
        },
        {
          "indexed": false,
          "internalType": "uint256",
          "name": "price",
          "type": "uint256"
        },
        {
          "indexed": false,
          "internalType": "uint256",
          "name": "amount",
          "type": "uint256"
        }
      ],
      "name": "TicketBought",
      "type": "event"
    },
    {
      "anonymous": false,
      "inputs": [
        {
          "indexed": true,
          "internalType": "uint256",
          "name": "ticketId",
          "type": "uint256"
        },
        {
          "indexed": false,
          "internalType": "address",
          "name": "seller",
          "type": "address"
        },
        {
          "indexed": false,
          "internalType": "address",
          "name": "buyer",
          "type": "address"
        }
      ],
      "name": "TicketClaimed",
      "type": "event"
    },
    {
      "anonymous": false,
      "inputs": [
        {
          "indexed": true,
          "internalType": "uint256",
          "name": "eventId",
          "type": "uint256"
        },
        {
          "indexed": false,
          "internalType": "address",
          "name": "owner",
          "type": "address"
        },
        {
          "indexed": false,
          "internalType": "uint256[]",
          "name": "ids",
          "type": "uint256[]"
        },
        {
          "indexed": false,
          "internalType": "uint256[]",
          "name": "amounts",
          "type": "uint256[]"
        }
      ],
      "name": "TicketDeleted",
      "type": "event"
    },
    {
      "anonymous": false,
      "inputs": [
        {
          "indexed": true,
          "internalType": "uint256",
          "name": "ticketId",
          "type": "uint256"
        },
        {
          "indexed": false,
          "internalType": "string",
          "name": "newUri",
          "type": "string"
        }
      ],
      "name": "TicketEdited",
      "type": "event"
    },
    {
      "anonymous": false,
      "inputs": [
        {
          "indexed": true,
          "internalType": "uint256",
          "name": "eventId",
          "type": "uint256"
        },
        {
          "indexed": false,
          "internalType": "address",
          "name": "organizer",
          "type": "address"
        },
        {
          "indexed": true,
          "internalType": "uint256",
          "name": "ticketId",
          "type": "uint256"
        },
        {
          "indexed": false,
          "internalType": "uint256",
          "name": "amount",
          "type": "uint256"
        },
        {
          "indexed": false,
          "internalType": "uint256",
          "name": "price",
          "type": "uint256"
        },
        {
          "indexed": false,
          "internalType": "uint256",
          "name": "creatorRoyalty",
          "type": "uint256"
        },
        {
          "indexed": false,
          "internalType": "uint256",
          "name": "amountToSell",
          "type": "uint256"
        },
        {
          "indexed": false,
          "internalType": "bool",
          "name": "isResellable",
          "type": "bool"
        },
        {
          "indexed": false,
          "internalType": "string",
          "name": "uri",
          "type": "string"
        }
      ],
      "name": "TicketPublished",
      "type": "event"
    },
    {
      "anonymous": false,
      "inputs": [
        {
          "indexed": false,
          "internalType": "address",
          "name": "account",
          "type": "address"
        }
      ],
      "name": "Unpaused",
      "type": "event"
    },
    {
      "inputs": [],
      "name": "adminAddress",
      "outputs": [
        {
          "internalType": "address",
          "name": "",
          "type": "address"
        }
      ],
      "stateMutability": "view",
      "type": "function"
    },
    {
      "inputs": [
        {
          "internalType": "uint256",
          "name": "ticketId",
          "type": "uint256"
        },
        {
          "internalType": "address",
          "name": "seller",
          "type": "address"
        },
        {
          "internalType": "uint256",
          "name": "amount",
          "type": "uint256"
        }
      ],
      "name": "buyMarketTicket",
      "outputs": [],
      "stateMutability": "payable",
      "type": "function"
    },
    {
      "inputs": [
        {
          "internalType": "uint256",
          "name": "eventId",
          "type": "uint256"
        },
        {
          "internalType": "address",
          "name": "newOwner",
          "type": "address"
        }
      ],
      "name": "changeEventOwnerInTicketsForEvent",
      "outputs": [],
      "stateMutability": "nonpayable",
      "type": "function"
    },
    {
      "inputs": [
        {
          "internalType": "uint256",
          "name": "ticketId",
          "type": "uint256"
        },
        {
          "internalType": "address",
          "name": "seller",
          "type": "address"
        },
        {
          "internalType": "address",
          "name": "claimer",
          "type": "address"
        }
      ],
      "name": "claimFreeTicket",
      "outputs": [],
      "stateMutability": "nonpayable",
      "type": "function"
    },
    {
      "inputs": [
        {
          "internalType": "uint256",
          "name": "ticketId",
          "type": "uint256"
        },
        {
          "internalType": "address",
          "name": "contractAddress",
          "type": "address"
        },
        {
          "internalType": "uint256",
          "name": "tokenId",
          "type": "uint256"
        }
      ],
      "name": "claimTicketByMembership",
      "outputs": [],
      "stateMutability": "nonpayable",
      "type": "function"
    },
    {
      "inputs": [
        {
          "internalType": "uint256",
          "name": "eventId",
          "type": "uint256"
        }
      ],
      "name": "deleteEvent",
      "outputs": [],
      "stateMutability": "nonpayable",
      "type": "function"
    },
    {
      "inputs": [
        {
          "internalType": "uint256",
          "name": "ticketId",
          "type": "uint256"
        },
        {
          "internalType": "uint256[]",
          "name": "ids",
          "type": "uint256[]"
        },
        {
          "internalType": "uint256[]",
          "name": "amounts",
          "type": "uint256[]"
        }
      ],
      "name": "deleteTicket",
      "outputs": [],
      "stateMutability": "nonpayable",
      "type": "function"
    },
    {
      "inputs": [],
      "name": "eventAddress",
      "outputs": [
        {
          "internalType": "address",
          "name": "",
          "type": "address"
        }
      ],
      "stateMutability": "view",
      "type": "function"
    },
    {
      "inputs": [
        {
          "internalType": "uint256",
          "name": "",
          "type": "uint256"
        },
        {
          "internalType": "uint256",
          "name": "",
          "type": "uint256"
        }
      ],
      "name": "eventTickets",
      "outputs": [
        {
          "internalType": "uint256",
          "name": "",
          "type": "uint256"
        }
      ],
      "stateMutability": "view",
      "type": "function"
    },
    {
      "inputs": [
        {
          "internalType": "address",
          "name": "_ticketAddress",
          "type": "address"
        },
        {
          "internalType": "address",
          "name": "_eventAddress",
          "type": "address"
        },
        {
          "internalType": "address",
          "name": "_adminAddress",
          "type": "address"
        },
        {
          "internalType": "address",
          "name": "_membershipAddress",
          "type": "address"
        }
      ],
      "name": "initialize",
      "outputs": [],
      "stateMutability": "nonpayable",
      "type": "function"
    },
    {
      "inputs": [],
      "name": "membershipAddress",
      "outputs": [
        {
          "internalType": "address",
          "name": "",
          "type": "address"
        }
      ],
      "stateMutability": "view",
      "type": "function"
    },
    {
      "inputs": [
        {
          "internalType": "uint256",
          "name": "eventId",
          "type": "uint256"
        },
        {
          "internalType": "uint256",
          "name": "newCreatorRoyalty",
          "type": "uint256"
        }
      ],
      "name": "modifyCreatorRoyaltyOnEvent",
      "outputs": [],
      "stateMutability": "nonpayable",
      "type": "function"
    },
    {
      "inputs": [
        {
          "internalType": "uint256",
          "name": "ticketId",
          "type": "uint256"
        },
        {
          "internalType": "uint256",
          "name": "newCreatorRoyalty",
          "type": "uint256"
        }
      ],
      "name": "modifyCreatorRoyaltyOnTicket",
      "outputs": [],
      "stateMutability": "nonpayable",
      "type": "function"
    },
    {
      "inputs": [
        {
          "internalType": "uint256",
          "name": "ticketId",
          "type": "uint256"
        },
        {
          "internalType": "uint256",
          "name": "newMarketplaceRoyalty",
          "type": "uint256"
        }
      ],
      "name": "modifyPrimaryMarketplaceRoyaltyOnTicket",
      "outputs": [],
      "stateMutability": "nonpayable",
      "type": "function"
    },
    {
      "inputs": [
        {
          "internalType": "uint256",
          "name": "ticketId",
          "type": "uint256"
        },
        {
          "internalType": "uint256",
          "name": "newMarketplaceRoyalty",
          "type": "uint256"
        }
      ],
      "name": "modifySecondaryMarketplaceRoyaltyOnTicket",
      "outputs": [],
      "stateMutability": "nonpayable",
      "type": "function"
    },
    {
      "inputs": [
        {
          "internalType": "address",
          "name": "",
          "type": "address"
        },
        {
          "internalType": "uint256",
          "name": "",
          "type": "uint256"
        }
      ],
      "name": "offers",
      "outputs": [
        {
          "internalType": "uint256",
          "name": "amount",
          "type": "uint256"
        },
        {
          "internalType": "uint256",
          "name": "price",
          "type": "uint256"
        }
      ],
      "stateMutability": "view",
      "type": "function"
    },
    {
      "inputs": [],
      "name": "owner",
      "outputs": [
        {
          "internalType": "address",
          "name": "",
          "type": "address"
        }
      ],
      "stateMutability": "view",
      "type": "function"
    },
    {
      "inputs": [],
      "name": "pause",
      "outputs": [],
      "stateMutability": "nonpayable",
      "type": "function"
    },
    {
      "inputs": [],
      "name": "paused",
      "outputs": [
        {
          "internalType": "bool",
          "name": "",
          "type": "bool"
        }
      ],
      "stateMutability": "view",
      "type": "function"
    },
    {
      "inputs": [
        {
          "internalType": "uint256",
          "name": "eventId",
          "type": "uint256"
        },
        {
          "components": [
            {
              "internalType": "uint256",
              "name": "amount",
              "type": "uint256"
            },
            {
              "internalType": "uint256",
              "name": "price",
              "type": "uint256"
            },
            {
              "internalType": "uint256",
              "name": "royalty",
              "type": "uint256"
            },
            {
              "internalType": "uint256",
              "name": "amountToSell",
              "type": "uint256"
            },
            {
              "internalType": "bool",
              "name": "isResellable",
              "type": "bool"
            },
            {
              "internalType": "string",
              "name": "uri",
              "type": "string"
            }
          ],
          "internalType": "struct NewAssetSaleInfo[]",
          "name": "tickets",
          "type": "tuple[]"
        }
      ],
      "name": "publishTickets",
      "outputs": [
        {
          "internalType": "uint256[]",
          "name": "ticketIds",
          "type": "uint256[]"
        }
      ],
      "stateMutability": "nonpayable",
      "type": "function"
    },
    {
      "inputs": [
        {
          "internalType": "uint256",
          "name": "eventId",
          "type": "uint256"
        },
        {
          "internalType": "address",
          "name": "organizer",
          "type": "address"
        },
        {
          "components": [
            {
              "internalType": "uint256",
              "name": "amount",
              "type": "uint256"
            },
            {
              "internalType": "uint256",
              "name": "price",
              "type": "uint256"
            },
            {
              "internalType": "uint256",
              "name": "royalty",
              "type": "uint256"
            },
            {
              "internalType": "uint256",
              "name": "amountToSell",
              "type": "uint256"
            },
            {
              "internalType": "bool",
              "name": "isResellable",
              "type": "bool"
            },
            {
              "internalType": "string",
              "name": "uri",
              "type": "string"
            }
          ],
          "internalType": "struct NewAssetSaleInfo[]",
          "name": "tickets",
          "type": "tuple[]"
        }
      ],
      "name": "publishTicketsForOrganizer",
      "outputs": [
        {
          "internalType": "uint256[]",
          "name": "ticketIds",
          "type": "uint256[]"
        }
      ],
      "stateMutability": "nonpayable",
      "type": "function"
    },
    {
      "inputs": [
        {
          "internalType": "uint256",
          "name": "ticketId",
          "type": "uint256"
        }
      ],
      "name": "removeAsk",
      "outputs": [],
      "stateMutability": "nonpayable",
      "type": "function"
    },
    {
      "inputs": [],
      "name": "renounceOwnership",
      "outputs": [],
      "stateMutability": "nonpayable",
      "type": "function"
    },
    {
      "inputs": [
        {
          "internalType": "uint256",
          "name": "ticketId",
          "type": "uint256"
        },
        {
          "internalType": "uint256",
          "name": "ticketPrice",
          "type": "uint256"
        },
        {
          "internalType": "uint256",
          "name": "amount",
          "type": "uint256"
        }
      ],
      "name": "setAsk",
      "outputs": [],
      "stateMutability": "nonpayable",
      "type": "function"
    },
    {
      "inputs": [
        {
          "internalType": "uint256",
          "name": "ticketId",
          "type": "uint256"
        },
        {
          "internalType": "string",
          "name": "newUri",
          "type": "string"
        }
      ],
      "name": "setTicketUri",
      "outputs": [],
      "stateMutability": "nonpayable",
      "type": "function"
    },
    {
      "inputs": [],
      "name": "ticketAddress",
      "outputs": [
        {
          "internalType": "address",
          "name": "",
          "type": "address"
        }
      ],
      "stateMutability": "view",
      "type": "function"
    },
    {
      "inputs": [
        {
          "internalType": "uint256",
          "name": "ticketId",
          "type": "uint256"
        }
      ],
      "name": "ticketCreator",
      "outputs": [
        {
          "internalType": "address",
          "name": "",
          "type": "address"
        }
      ],
      "stateMutability": "view",
      "type": "function"
    },
    {
      "inputs": [
        {
          "internalType": "uint256",
          "name": "",
          "type": "uint256"
        }
      ],
      "name": "ticketsProperties",
      "outputs": [
        {
          "internalType": "uint256",
          "name": "creatorRoyalty",
          "type": "uint256"
        },
        {
          "internalType": "uint256",
          "name": "primaryMarketRoyalty",
          "type": "uint256"
        },
        {
          "internalType": "uint256",
          "name": "secondaryMarketRoyalty",
          "type": "uint256"
        },
        {
          "internalType": "address",
          "name": "creator",
          "type": "address"
        },
        {
          "internalType": "bool",
          "name": "isResellable",
          "type": "bool"
        }
      ],
      "stateMutability": "view",
      "type": "function"
    },
    {
      "inputs": [
        {
          "internalType": "address",
          "name": "newOwner",
          "type": "address"
        }
      ],
      "name": "transferOwnership",
      "outputs": [],
      "stateMutability": "nonpayable",
      "type": "function"
    },
    {
      "inputs": [],
      "name": "unpause",
      "outputs": [],
      "stateMutability": "nonpayable",
      "type": "function"
    }
  ],
  "bytecode": "0x608060405234801561001057600080fd5b50614504806100206000396000f3fe6080604052600436106101cd5760003560e01c80638456cb59116100f7578063e389171311610095578063f8749a5811610064578063f8749a58146105da578063f8c8765e146105fa578063fad567791461061a578063fc6f94681461063a57600080fd5b8063e3891713146104f0578063e5ff180e14610510578063e9e2bde61461059a578063f2fde38b146105ba57600080fd5b80638e921d80116100d15780638e921d801461043c578063aa1a84111461045c578063aa9d063b146104b0578063d411a7c7146104d057600080fd5b80638456cb59146103e95780638a0c7701146103fe5780638da5cb5b1461041e57600080fd5b806355e2b7931161016f57806373e988d01161013e57806373e988d01461034257806376fb088514610362578063779cea77146103825780637b41686d146103b057600080fd5b806355e2b793146102ca57806357a8e3fe146102ea5780635c975abb1461030a578063715018a61461032d57600080fd5b80631c8a1e20116101ab5780631c8a1e201461024a57806328220f35146102825780633f4ba83a146102a257806343c5a544146102b757600080fd5b80630838fa3d146101d25780630f2f2c79146101f4578063159e82131461022a575b600080fd5b3480156101de57600080fd5b506101f26101ed366004613869565b61065a565b005b34801561020057600080fd5b5061021461020f366004613904565b61073e565b60405161022191906139c5565b60405180910390f35b34801561023657600080fd5b506101f2610245366004613a89565b611356565b34801561025657600080fd5b5060cc5461026a906001600160a01b031681565b6040516001600160a01b039091168152602001610221565b34801561028e57600080fd5b506101f261029d366004613af6565b611558565b3480156102ae57600080fd5b506101f261168f565b6101f26102c5366004613b0f565b6116c3565b3480156102d657600080fd5b506101f26102e5366004613b47565b611c9c565b3480156102f657600080fd5b5060c95461026a906001600160a01b031681565b34801561031657600080fd5b5060655460ff166040519015158152602001610221565b34801561033957600080fd5b506101f2611e3d565b34801561034e57600080fd5b506101f261035d366004613bc3565b611e71565b34801561036e57600080fd5b506101f261037d366004613c05565b6121e1565b34801561038e57600080fd5b506103a261039d366004613869565b6123ea565b604051908152602001610221565b3480156103bc57600080fd5b5061026a6103cb366004613af6565b600090815260ce60205260409020600301546001600160a01b031690565b3480156103f557600080fd5b506101f261241b565b34801561040a57600080fd5b506101f2610419366004613c31565b61244d565b34801561042a57600080fd5b506033546001600160a01b031661026a565b34801561044857600080fd5b506101f2610457366004613b0f565b612545565b34801561046857600080fd5b5061049b610477366004613c61565b60cf6020908152600092835260408084209091529082529020805460019091015482565b60408051928352602083019190915201610221565b3480156104bc57600080fd5b506101f26104cb366004613869565b612e96565b3480156104dc57600080fd5b506101f26104eb366004613869565b612fa6565b3480156104fc57600080fd5b5061021461050b366004613c8d565b613103565b34801561051c57600080fd5b5061056761052b366004613af6565b60ce602052600090815260409020805460018201546002830154600390930154919290916001600160a01b03811690600160a01b900460ff1685565b604080519586526020860194909452928401919091526001600160a01b031660608301521515608082015260a001610221565b3480156105a657600080fd5b506101f26105b5366004613869565b613144565b3480156105c657600080fd5b506101f26105d5366004613d00565b613213565b3480156105e657600080fd5b506101f26105f5366004613af6565b6132ae565b34801561060657600080fd5b506101f2610615366004613d24565b613312565b34801561062657600080fd5b5060ca5461026a906001600160a01b031681565b34801561064657600080fd5b5060cb5461026a906001600160a01b031681565b6033546001600160a01b0316331461068d5760405162461bcd60e51b815260040161068490613d80565b60405180910390fd5b60655460ff16156106b05760405162461bcd60e51b815260040161068490613db5565b600082815260ce60205260409020546106cb90612710613df5565b8111156106ea5760405162461bcd60e51b815260040161068490613e0c565b600082815260ce6020526040908190206002018290555182907f84e71f7023ae590f3bab8208ff1d33cf3a448db9257564172862655f7d36c1a5906107329084815260200190565b60405180910390a25050565b606061074c60655460ff1690565b156107695760405162461bcd60e51b815260040161068490613db5565b600260975414156107bc5760405162461bcd60e51b815260206004820152601f60248201527f5265656e7472616e637947756172643a207265656e7472616e742063616c6c006044820152606401610684565b600260975560cb5486906001600160a01b0316331480610868575060ca546040516331a9108f60e11b8152600481018390526001600160a01b0390911690636352211e9060240160206040518083038186803b15801561081b57600080fd5b505afa15801561082f573d6000803e3d6000fd5b505050506040513d601f19601f820116820180604052508101906108539190613e31565b6001600160a01b0316336001600160a01b0316145b6108b45760405162461bcd60e51b815260206004820152601860248201527f4f6e6c792041646d696e206f72206f7267616e697a65722100000000000000006044820152606401610684565b60408051606081019091528490600090808367ffffffffffffffff8111156108de576108de6139d8565b604051908082528060200260200182016040528015610907578160200160208202803683370190505b5081526020018367ffffffffffffffff811115610926576109266139d8565b60405190808252806020026020018201604052801561094f578160200160208202803683370190505b5081526020018367ffffffffffffffff81111561096e5761096e6139d8565b6040519080825280602002602001820160405280156109a157816020015b606081526020019060019003908161098c5790505b509052905060005b828110156110805760cb60009054906101000a90046001600160a01b03166001600160a01b031663a696ac7b6040518163ffffffff1660e01b815260040160206040518083038186803b1580156109ff57600080fd5b505afa158015610a13573d6000803e3d6000fd5b505050506040513d601f19601f82011682018060405250810190610a379190613e4e565b610a4390612710613e72565b61ffff16888883818110610a5957610a59613e95565b9050602002810190610a6b9190613eab565b604001351115610abd5760405162461bcd60e51b815260206004820181905260248201527f43726561746f7220726f79616c74792061626f766520746865206c696d69742e6044820152606401610684565b878782818110610acf57610acf613e95565b9050602002810190610ae19190613eab565b602001351580610b1a5750612710888883818110610b0157610b01613e95565b9050602002810190610b139190613eab565b6020013510155b610b665760405162461bcd60e51b815260206004820152601b60248201527f41736b696e672070726963652062656c6f77206d696e696d756d2e00000000006044820152606401610684565b878782818110610b7857610b78613e95565b9050602002810190610b8a9190613eab565b35888883818110610b9d57610b9d613e95565b9050602002810190610baf9190613eab565b606001351115610c015760405162461bcd60e51b815260206004820152601b60248201527f416d6f756e7420746f2073656c6c20697320746f6f20686967682e00000000006044820152606401610684565b878782818110610c1357610c13613e95565b9050602002810190610c259190613eab565b610c369060a0810190608001613ed9565b151560011415610cb457878782818110610c5257610c52613e95565b9050602002810190610c649190613eab565b60200135610cb45760405162461bcd60e51b815260206004820152601860248201527f4672656520617265206e6f7420726573656c6c61626c652e00000000000000006044820152606401610684565b610cc260d080546001019055565b6000610ccd60d05490565b90506040518060a001604052808a8a85818110610cec57610cec613e95565b9050602002810190610cfe9190613eab565b60400135815260200160cb60009054906101000a90046001600160a01b03166001600160a01b0316630ba7edf96040518163ffffffff1660e01b815260040160206040518083038186803b158015610d5557600080fd5b505afa158015610d69573d6000803e3d6000fd5b505050506040513d601f19601f82011682018060405250810190610d8d9190613e4e565b61ffff16815260cb546040805163a696ac7b60e01b815290516020938401936001600160a01b039093169263a696ac7b9260048082019391829003018186803b158015610dd957600080fd5b505afa158015610ded573d6000803e3d6000fd5b505050506040513d601f19601f82011682018060405250810190610e119190613e4e565b61ffff1681526020018b6001600160a01b031681526020018a8a85818110610e3b57610e3b613e95565b9050602002810190610e4d9190613eab565b610e5e9060a0810190608001613ed9565b15159052600082815260ce6020908152604091829020835181559083015160018201558282015160028201556060830151600390910180546080909401511515600160a01b026001600160a81b03199094166001600160a01b0390921691909117929092179091558051808201909152808a8a85818110610ee157610ee1613e95565b9050602002810190610ef39190613eab565b6060013581526020018a8a85818110610f0e57610f0e613e95565b9050602002810190610f209190613eab565b6020908101359091526001600160a01b038c16600090815260cf8252604080822085835283529020825181559101516001909101558251805182919084908110610f6c57610f6c613e95565b60209081029190910181019190915260008c815260cd825260408120805460018101825590825291902001819055888883818110610fac57610fac613e95565b9050602002810190610fbe9190613eab565b6000013583602001518381518110610fd857610fd8613e95565b602002602001018181525050888883818110610ff657610ff6613e95565b90506020028101906110089190613eab565b6110169060a0810190613ef6565b8080601f016020809104026020016040519081016040528093929190818152602001838380828437600092019190915250505050604084015180518490811061106157611061613e95565b602002602001018190525050808061107890613f3d565b9150506109a9565b50600061108d8680613f58565b905011156111165760cb5481516001600160a01b03909116906310e6e83e906110b68880613f58565b6110c360208b018b613f58565b6040518663ffffffff1660e01b81526004016110e39594939291906140a7565b600060405180830381600087803b1580156110fd57600080fd5b505af1158015611111573d6000803e3d6000fd5b505050505b60c954815160208301516040808501519051632e55c7a160e21b81526001600160a01b039094169363b9571e8493611157938e9391929091906004016141bc565b600060405180830381600087803b15801561117157600080fd5b505af1158015611185573d6000803e3d6000fd5b5050505060005b828110156112e95781518051829081106111a8576111a8613e95565b60200260200101518a7fa9065510430a99df38e611390fd55c195efcb72c24db21d0080a482c8cb1829a8b856020015185815181106111e9576111e9613e95565b60200260200101518c8c8781811061120357611203613e95565b90506020028101906112159190613eab565b602001358d8d8881811061122b5761122b613e95565b905060200281019061123d9190613eab565b604001358e8e8981811061125357611253613e95565b90506020028101906112659190613eab565b606001358f8f8a81811061127b5761127b613e95565b905060200281019061128d9190613eab565b61129e9060a0810190608001613ed9565b8a604001518a815181106112b4576112b4613e95565b60200260200101516040516112cf979695949392919061425b565b60405180910390a3806112e181613f3d565b91505061118c565b50600089815260cd60209081526040918290208054835181840281018401909452808452909183018282801561133e57602002820191906000526020600020905b81548152602001906001019080831161132a575b50505050509350505050600160975595945050505050565b60655460ff16156113795760405162461bcd60e51b815260040161068490613db5565b600083815260ce602052604090206003015483906001600160a01b03163314806114245750336001600160a01b0316306001600160a01b0316638da5cb5b6040518163ffffffff1660e01b815260040160206040518083038186803b1580156113e157600080fd5b505afa1580156113f5573d6000803e3d6000fd5b505050506040513d601f19601f820116820180604052508101906114199190613e31565b6001600160a01b0316145b61145f5760405162461bcd60e51b815260206004820152600c60248201526b4e6f7420616c6c6f7765642160a01b6044820152606401610684565b81518351146114b05760405162461bcd60e51b815260206004820152601f60248201527f49647320616e6420616d6f756e747320636f756e74206d69736d617463682e006044820152606401610684565b60c954604051631ac8311560e21b81526001600160a01b0390911690636b20c454906114e4903390879087906004016142a9565b600060405180830381600087803b1580156114fe57600080fd5b505af1158015611512573d6000803e3d6000fd5b50505050837fe72b601ab8f09daf8839bee1eca025771a89eabc489f498a7b40920bb31d5bd233858560405161154a939291906142a9565b60405180910390a250505050565b60655460ff161561157b5760405162461bcd60e51b815260040161068490613db5565b60c954604051627eeac760e11b8152336004820152602481018390526000916001600160a01b03169062fdd58e9060440160206040518083038186803b1580156115c457600080fd5b505afa1580156115d8573d6000803e3d6000fd5b505050506040513d601f19601f820116820180604052508101906115fc91906142df565b116116415760405162461bcd60e51b815260206004820152601560248201527429b2b73232b9103430b9903737903a34b1b5b2ba1760591b6044820152606401610684565b33600081815260cf60209081526040808320858452909152808220828155600101829055518392917f1f2fa6bb5353160dec9640945a0fbf286bda8907835ad6b88dc06ff271382fc091a350565b6033546001600160a01b031633146116b95760405162461bcd60e51b815260040161068490613d80565b6116c1613431565b565b60655460ff16156116e65760405162461bcd60e51b815260040161068490613db5565b600260975414156117395760405162461bcd60e51b815260206004820152601f60248201527f5265656e7472616e637947756172643a207265656e7472616e742063616c6c006044820152606401610684565b600260975560c954604051627eeac760e11b81526001600160a01b038481166004830152602482018690528392169062fdd58e9060440160206040518083038186803b15801561178857600080fd5b505afa15801561179c573d6000803e3d6000fd5b505050506040513d601f19601f820116820180604052508101906117c091906142df565b101561180e5760405162461bcd60e51b815260206004820152601b60248201527f53656c6c6572206861736e7420656e6f756768207469636b65742e00000000006044820152606401610684565b6001600160a01b038216600090815260cf602090815260408083208684529091529020548111156118815760405162461bcd60e51b815260206004820152601a60248201527f4e6f7420656e6f756768207469636b657420666f722073616c650000000000006044820152606401610684565b6001600160a01b038216600090815260cf602090815260408083208684529091529020600101546118b290826142f8565b34146119005760405162461bcd60e51b815260206004820152601a60248201527f56616c756520646f6573206e6f74206d617463682070726963650000000000006044820152606401610684565b336001600160a01b03831614156119595760405162461bcd60e51b815260206004820152601c60248201527f596f752063616e742062757920796f7572206f776e207469636b6574000000006044820152606401610684565b6001600160a01b03828116600090815260cf60209081526040808320878452808352818420600181015460ce85529285206003015491909352825491941692479286929091906119aa908490613df5565b909155505082611aa65783600114611a045760405162461bcd60e51b815260206004820152601c60248201527f43616e206f6e6c7920627579206f6e652066726565207469636b6574000000006044820152606401610684565b60c954604051627eeac760e11b8152336004820152602481018890526001600160a01b039091169062fdd58e9060440160206040518083038186803b158015611a4c57600080fd5b505afa158015611a60573d6000803e3d6000fd5b505050506040513d601f19601f82011682018060405250810190611a8491906142df565b15611aa15760405162461bcd60e51b815260040161068490614317565b611bbb565b816001600160a01b0316856001600160a01b03161415611b2657600086815260ce6020526040812060010154611add9085906134c4565b90506000611aeb8286613df5565b9050611b0084611afb88846142f8565b6134e6565b611b1f611b156033546001600160a01b031690565b611afb84896142f8565b5050611bbb565b600086815260ce6020526040812060020154611b439085906134c4565b600088815260ce602052604081205491925090611b619086906134c4565b9050600081611b708488613df5565b611b7a9190613df5565b9050611b8a88611afb89846142f8565b611b9885611afb89856142f8565b611bb7611bad6033546001600160a01b031690565b611afb89866142f8565b5050505b60c954604051637921219560e11b81526001600160a01b039091169063f242432a90611bf190889033908b908a9060040161434e565b600060405180830381600087803b158015611c0b57600080fd5b505af1158015611c1f573d6000803e3d6000fd5b50505050344782611c309190613df5565b14611c3d57611c3d614386565b604080516001600160a01b03871681523360208201529081018490526060810185905286907f59ef6c251d20f15e60164e5032dc81900d28bf7e44d7767fec8681019700b1299060800160405180910390a25050600160975550505050565b60655460ff1615611cbf5760405162461bcd60e51b815260040161068490613db5565b600083815260ce602052604090206003015483906001600160a01b0316331480611d6a5750336001600160a01b0316306001600160a01b0316638da5cb5b6040518163ffffffff1660e01b815260040160206040518083038186803b158015611d2757600080fd5b505afa158015611d3b573d6000803e3d6000fd5b505050506040513d601f19601f82011682018060405250810190611d5f9190613e31565b6001600160a01b0316145b611da55760405162461bcd60e51b815260206004820152600c60248201526b4e6f7420616c6c6f7765642160a01b6044820152606401610684565b60c954604051633c17845760e11b81526001600160a01b039091169063782f08ae90611dd9908790879087906004016143c5565b600060405180830381600087803b158015611df357600080fd5b505af1158015611e07573d6000803e3d6000fd5b50505050837f755f9c78a46ac246d9eae160b9d066581ba2eae69b9b2fb7d5e14d160339cd07848460405161154a9291906143df565b6033546001600160a01b03163314611e675760405162461bcd60e51b815260040161068490613d80565b6116c16000613553565b60655460ff1615611e945760405162461bcd60e51b815260040161068490613db5565b60c954604051627eeac760e11b81526001600160a01b03848116600483015260248201869052600192169062fdd58e9060440160206040518083038186803b158015611edf57600080fd5b505afa158015611ef3573d6000803e3d6000fd5b505050506040513d601f19601f82011682018060405250810190611f1791906142df565b1015611f655760405162461bcd60e51b815260206004820152601c60248201527f53656c6c6572206861736e7420656e6f756768207469636b6574732e000000006044820152606401610684565b60c954604051627eeac760e11b81526001600160a01b038381166004830152602482018690529091169062fdd58e9060440160206040518083038186803b158015611faf57600080fd5b505afa158015611fc3573d6000803e3d6000fd5b505050506040513d601f19601f82011682018060405250810190611fe791906142df565b156120045760405162461bcd60e51b815260040161068490614317565b6001600160a01b038216600090815260cf602090815260408083208684529091529020600101541561206e5760405162461bcd60e51b81526020600482015260136024820152722a34b1b5b2ba1034b9903737ba10333932b29760691b6044820152606401610684565b6001600160a01b038216600090815260cf60209081526040808320868452909152902054600111156120e25760405162461bcd60e51b815260206004820152601c60248201527f4e6f7420656e6f756768207469636b65747320666f7220636c61696d000000006044820152606401610684565b60c954604051637921219560e11b81526001600160a01b039091169063f242432a906121199085908590889060019060040161434e565b600060405180830381600087803b15801561213357600080fd5b505af1158015612147573d6000803e3d6000fd5b505050506001600160a01b038216600090815260cf60209081526040808320868452909152812080546001929061217f908490613df5565b9091555050604080516001600160a01b038085168252831660208201526000918101919091526001606082015283907f59ef6c251d20f15e60164e5032dc81900d28bf7e44d7767fec8681019700b129906080015b60405180910390a2505050565b60655460ff16156122045760405162461bcd60e51b815260040161068490613db5565b61271082101561224d5760405162461bcd60e51b8152602060048201526014602482015273283934b1b2903132b637bb9036b4b734b6bab69760611b6044820152606401610684565b60c954604051627eeac760e11b8152336004820152602481018590526000916001600160a01b03169062fdd58e9060440160206040518083038186803b15801561229657600080fd5b505afa1580156122aa573d6000803e3d6000fd5b505050506040513d601f19601f820116820180604052508101906122ce91906142df565b1161231b5760405162461bcd60e51b815260206004820152601c60248201527f53656e64657220646f6573206e6f742068617665207469636b65742e000000006044820152606401610684565b600083815260ce6020526040902060030154600160a01b900460ff1615156001146123885760405162461bcd60e51b815260206004820152601960248201527f5469636b6574206973206e6f7420726573656c6c61626c652e000000000000006044820152606401610684565b33600081815260cf6020908152604080832087845282529182902060018101869055849055815185815290810184905285917f8ec7d10a665f515f3ad661c546d2be60646cad45663216169480028e51659e83910160405180910390a3505050565b60cd602052816000526040600020818154811061240657600080fd5b90600052602060002001600091509150505481565b6033546001600160a01b031633146124455760405162461bcd60e51b815260040161068490613d80565b6116c16135a5565b60cb546001600160a01b031633146124775760405162461bcd60e51b8152600401610684906143fb565b60655460ff161561249a5760405162461bcd60e51b815260040161068490613db5565b600082815260cd60209081526040808320805482518185028101850190935280835291929091908301828280156124f057602002820191906000526020600020905b8154815260200190600101908083116124dc575b5050505050905060005b815181101561253f57600081815260ce6020526040902060030180546001600160a01b0319166001600160a01b0385161790558061253781613f3d565b9150506124fa565b50505050565b60cb5460405163f363fb0560e01b8152600481018590526001600160a01b0380851660248301528592859285929091169063f363fb059060440160206040518083038186803b15801561259757600080fd5b505afa1580156125ab573d6000803e3d6000fd5b505050506040513d601f19601f820116820180604052508101906125cf9190614432565b61261b5760405162461bcd60e51b815260206004820152601760248201527f4d656d62657273686970206e6f7420616c6c6f776564210000000000000000006044820152606401610684565b8015806126ae575060cb5460405163c8be174f60e01b8152600481018590526001600160a01b038481166024830152604482018490529091169063c8be174f9060640160206040518083038186803b15801561267657600080fd5b505afa15801561268a573d6000803e3d6000fd5b505050506040513d601f19601f820116820180604052508101906126ae9190614432565b6126fa5760405162461bcd60e51b815260206004820152601d60248201527f4d656d6265727368697020746f6b656e206e6f7420616c6c6f776564210000006044820152606401610684565b612703826135fd565b801561280c57506040516301ffc9a760e01b81526380ac58cd60e01b60048201526001600160a01b038316906301ffc9a79060240160206040518083038186803b15801561275057600080fd5b505afa158015612764573d6000803e3d6000fd5b505050506040513d601f19601f820116820180604052508101906127889190614432565b8061280c57506040516301ffc9a760e01b8152636cdb3d1360e11b60048201526001600160a01b038316906301ffc9a79060240160206040518083038186803b1580156127d457600080fd5b505afa1580156127e8573d6000803e3d6000fd5b505050506040513d601f19601f8201168201806040525081019061280c9190614432565b6128585760405162461bcd60e51b815260206004820152601d60248201527f436f6e747261637420646f6e7420737570706f727420455243313635210000006044820152606401610684565b6040516301ffc9a760e01b81526380ac58cd60e01b60048201526001600160a01b038316906301ffc9a79060240160206040518083038186803b15801561289e57600080fd5b505afa1580156128b2573d6000803e3d6000fd5b505050506040513d601f19601f820116820180604052508101906128d69190614432565b15612a7457806129a4576040516370a0823160e01b81523360048201526000906001600160a01b038416906370a082319060240160206040518083038186803b15801561292257600080fd5b505afa158015612936573d6000803e3d6000fd5b505050506040513d601f19601f8201168201806040525081019061295a91906142df565b1161299f5760405162461bcd60e51b81526020600482015260156024820152744d656d62657273686970206e6f74206f776e65642160581b6044820152606401610684565b612b8d565b6040516331a9108f60e11b81526004810182905233906001600160a01b03841690636352211e9060240160206040518083038186803b1580156129e657600080fd5b505afa1580156129fa573d6000803e3d6000fd5b505050506040513d601f19601f82011682018060405250810190612a1e9190613e31565b6001600160a01b03161461299f5760405162461bcd60e51b815260206004820152601b60248201527f4d656d6265727368697020746f6b656e206e6f74206f776e65642100000000006044820152606401610684565b80612ac15760405162461bcd60e51b815260206004820152601b60248201527f546f6b656e4964206e656564656420666f7220455243313135352e00000000006044820152606401610684565b604051627eeac760e11b8152336004820152602481018290526000906001600160a01b0384169062fdd58e9060440160206040518083038186803b158015612b0857600080fd5b505afa158015612b1c573d6000803e3d6000fd5b505050506040513d601f19601f82011682018060405250810190612b4091906142df565b11612b8d5760405162461bcd60e51b815260206004820152601b60248201527f4d656d6265727368697020746f6b656e206e6f74206f776e65642100000000006044820152606401610684565b60655460ff1615612bb05760405162461bcd60e51b815260040161068490613db5565b600086815260ce6020526040908190206003015460c9549151627eeac760e11b81526001600160a01b0391821660048201819052602482018a905292600192169062fdd58e9060440160206040518083038186803b158015612c1157600080fd5b505afa158015612c25573d6000803e3d6000fd5b505050506040513d601f19601f82011682018060405250810190612c4991906142df565b1015612c975760405162461bcd60e51b815260206004820152601d60248201527f43726561746f72206861736e7420656e6f756768207469636b6574732e0000006044820152606401610684565b60c954604051627eeac760e11b8152336004820152602481018990526001600160a01b039091169062fdd58e9060440160206040518083038186803b158015612cdf57600080fd5b505afa158015612cf3573d6000803e3d6000fd5b505050506040513d601f19601f82011682018060405250810190612d1791906142df565b15612d345760405162461bcd60e51b815260040161068490614317565b6001600160a01b038116600090815260cf602090815260408083208a845290915290205460011115612da85760405162461bcd60e51b815260206004820152601c60248201527f4e6f7420656e6f756768207469636b65747320666f7220636c61696d000000006044820152606401610684565b60c954604051637921219560e11b81526001600160a01b039091169063f242432a90612ddf90849033908c9060019060040161434e565b600060405180830381600087803b158015612df957600080fd5b505af1158015612e0d573d6000803e3d6000fd5b505050506001600160a01b038116600090815260cf602090815260408083208a84529091528120805460019290612e45908490613df5565b9091555050604080516001600160a01b038316815233602082015288917fbec67dae650ba995d3e520e598b144a09d57fdb5455aa6ae3219fc27b4274109910160405180910390a250505050505050565b600082815260ce602052604090206003015482906001600160a01b03163314612f015760405162461bcd60e51b815260206004820152601860248201527f4f6e6c792063726561746f7220697320616c6c6f7765642100000000000000006044820152606401610684565b60655460ff1615612f245760405162461bcd60e51b815260040161068490613db5565b600083815260ce6020526040902060020154612f4290612710613df5565b821115612f615760405162461bcd60e51b815260040161068490613e0c565b600083815260ce6020526040908190208390555183907fdc8db095897df5851484b49549ae8038c8fcc707cd3d5c973fc92d596391d6d6906121d49085815260200190565b60cb546001600160a01b03163314612fd05760405162461bcd60e51b8152600401610684906143fb565b60655460ff1615612ff35760405162461bcd60e51b815260040161068490613db5565b600082815260cd602090815260408083208054825181850281018501909352808352919290919083018282801561304957602002820191906000526020600020905b815481526020019060010190808311613035575b5050505050905060005b815181101561253f5760ce600083838151811061307257613072613e95565b602002602001015181526020019081526020016000206002015461271061ffff1661309d9190613df5565b8311156130bc5760405162461bcd60e51b815260040161068490613e0c565b8260ce60008484815181106130d3576130d3613e95565b602002602001015181526020019081526020016000206000018190555080806130fb90613f3d565b915050613053565b606061311160655460ff1690565b1561312e5760405162461bcd60e51b815260040161068490613db5565b61313b853386868661073e565b95945050505050565b6033546001600160a01b0316331461316e5760405162461bcd60e51b815260040161068490613d80565b60655460ff16156131915760405162461bcd60e51b815260040161068490613db5565b600082815260ce60205260409020546131ac90612710613df5565b8111156131cb5760405162461bcd60e51b815260040161068490613e0c565b600082815260ce6020526040908190206001018290555182907f4ec5fda4d8c717377da927e0c4da7889152921b135d54cbd305a6b96c030f0b2906107329084815260200190565b6033546001600160a01b0316331461323d5760405162461bcd60e51b815260040161068490613d80565b6001600160a01b0381166132a25760405162461bcd60e51b815260206004820152602660248201527f4f776e61626c653a206e6577206f776e657220697320746865207a65726f206160448201526564647265737360d01b6064820152608401610684565b6132ab81613553565b50565b60cb546001600160a01b031633146132d85760405162461bcd60e51b8152600401610684906143fb565b60655460ff16156132fb5760405162461bcd60e51b815260040161068490613db5565b600081815260cd602052604081206132ab91613837565b600054610100900460ff1661332d5760005460ff1615613331565b303b155b6133945760405162461bcd60e51b815260206004820152602e60248201527f496e697469616c697a61626c653a20636f6e747261637420697320616c72656160448201526d191e481a5b9a5d1a585b1a5e995960921b6064820152608401610684565b600054610100900460ff161580156133b6576000805461ffff19166101011790555b60c980546001600160a01b038088166001600160a01b03199283161790925560ca805487841690831617905560cb805486841690831617905560cc805492851692909116919091179055613408613630565b61341061365f565b61341861368e565b801561342a576000805461ff00191690555b5050505050565b60655460ff1661347a5760405162461bcd60e51b815260206004820152601460248201527314185d5cd8589b194e881b9bdd081c185d5cd95960621b6044820152606401610684565b6065805460ff191690557f5db9ee0a495bf2e6ff9c91a7834c1ba4fdd244a5e8aa4e537bd38aeae4b073aa335b6040516001600160a01b03909116815260200160405180910390a1565b60006127106134d383856142f8565b6134dd919061444f565b90505b92915050565b6000826001600160a01b031682610a2890604051600060405180830381858888f193505050503d8060008114613538576040519150601f19603f3d011682016040523d82523d6000602084013e61353d565b606091505b505090508061354e5761354e614386565b505050565b603380546001600160a01b038381166001600160a01b0319831681179093556040519116919082907f8be0079c531659141344cd1fd0a4f28419497f9722a3daafe3b4186f6b6457e090600090a35050565b60655460ff16156135c85760405162461bcd60e51b815260040161068490613db5565b6065805460ff191660011790557f62e78cea01bee320cd4e420270b5ea74000d11b0c9f74754ebdbfc544b05a2586134a73390565b6000613610826301ffc9a760e01b6136bd565b80156134e05750613629826001600160e01b03196136bd565b1592915050565b600054610100900460ff166136575760405162461bcd60e51b815260040161068490614471565b6116c16137a6565b600054610100900460ff166136865760405162461bcd60e51b815260040161068490614471565b6116c16137d6565b600054610100900460ff166136b55760405162461bcd60e51b815260040161068490614471565b6116c1613809565b604080516001600160e01b0319831660248083019190915282518083039091018152604490910182526020810180516001600160e01b03166301ffc9a760e01b179052905160009190829081906001600160a01b03871690617530906137249086906144bc565b6000604051808303818686fa925050503d8060008114613760576040519150601f19603f3d011682016040523d82523d6000602084013e613765565b606091505b509150915060208151101561378057600093505050506134e0565b81801561379c57508080602001905181019061379c9190614432565b9695505050505050565b600054610100900460ff166137cd5760405162461bcd60e51b815260040161068490614471565b6116c133613553565b600054610100900460ff166137fd5760405162461bcd60e51b815260040161068490614471565b6065805460ff19169055565b600054610100900460ff166138305760405162461bcd60e51b815260040161068490614471565b6001609755565b50805460008255906000526020600020908101906132ab91905b808211156138655760008155600101613851565b5090565b6000806040838503121561387c57600080fd5b50508035926020909101359150565b6001600160a01b03811681146132ab57600080fd5b60008083601f8401126138b257600080fd5b50813567ffffffffffffffff8111156138ca57600080fd5b6020830191508360208260051b85010111156138e557600080fd5b9250929050565b6000604082840312156138fe57600080fd5b50919050565b60008060008060006080868803121561391c57600080fd5b85359450602086013561392e8161388b565b9350604086013567ffffffffffffffff8082111561394b57600080fd5b61395789838a016138a0565b9095509350606088013591508082111561397057600080fd5b5061397d888289016138ec565b9150509295509295909350565b600081518084526020808501945080840160005b838110156139ba5781518752958201959082019060010161399e565b509495945050505050565b6020815260006134dd602083018461398a565b634e487b7160e01b600052604160045260246000fd5b600082601f8301126139ff57600080fd5b8135602067ffffffffffffffff80831115613a1c57613a1c6139d8565b8260051b604051601f19603f83011681018181108482111715613a4157613a416139d8565b604052938452858101830193838101925087851115613a5f57600080fd5b83870191505b84821015613a7e57813583529183019190830190613a65565b979650505050505050565b600080600060608486031215613a9e57600080fd5b83359250602084013567ffffffffffffffff80821115613abd57600080fd5b613ac9878388016139ee565b93506040860135915080821115613adf57600080fd5b50613aec868287016139ee565b9150509250925092565b600060208284031215613b0857600080fd5b5035919050565b600080600060608486031215613b2457600080fd5b833592506020840135613b368161388b565b929592945050506040919091013590565b600080600060408486031215613b5c57600080fd5b83359250602084013567ffffffffffffffff80821115613b7b57600080fd5b818601915086601f830112613b8f57600080fd5b813581811115613b9e57600080fd5b876020828501011115613bb057600080fd5b6020830194508093505050509250925092565b600080600060608486031215613bd857600080fd5b833592506020840135613bea8161388b565b91506040840135613bfa8161388b565b809150509250925092565b600080600060608486031215613c1a57600080fd5b505081359360208301359350604090920135919050565b60008060408385031215613c4457600080fd5b823591506020830135613c568161388b565b809150509250929050565b60008060408385031215613c7457600080fd5b8235613c7f8161388b565b946020939093013593505050565b60008060008060608587031215613ca357600080fd5b84359350602085013567ffffffffffffffff80821115613cc257600080fd5b613cce888389016138a0565b90955093506040870135915080821115613ce757600080fd5b50613cf4878288016138ec565b91505092959194509250565b600060208284031215613d1257600080fd5b8135613d1d8161388b565b9392505050565b60008060008060808587031215613d3a57600080fd5b8435613d458161388b565b93506020850135613d558161388b565b92506040850135613d658161388b565b91506060850135613d758161388b565b939692955090935050565b6020808252818101527f4f776e61626c653a2063616c6c6572206973206e6f7420746865206f776e6572604082015260600190565b60208082526010908201526f14185d5cd8589b194e881c185d5cd95960821b604082015260600190565b634e487b7160e01b600052601160045260246000fd5b600082821015613e0757613e07613ddf565b500390565b6020808252600b908201526a20b137bb3290189818129760a91b604082015260600190565b600060208284031215613e4357600080fd5b8151613d1d8161388b565b600060208284031215613e6057600080fd5b815161ffff81168114613d1d57600080fd5b600061ffff83811690831681811015613e8d57613e8d613ddf565b039392505050565b634e487b7160e01b600052603260045260246000fd5b6000823560be19833603018112613ec157600080fd5b9190910192915050565b80151581146132ab57600080fd5b600060208284031215613eeb57600080fd5b8135613d1d81613ecb565b6000808335601e19843603018112613f0d57600080fd5b83018035915067ffffffffffffffff821115613f2857600080fd5b6020019150368190038213156138e557600080fd5b6000600019821415613f5157613f51613ddf565b5060010190565b6000808335601e19843603018112613f6f57600080fd5b83018035915067ffffffffffffffff821115613f8a57600080fd5b6020019150600581901b36038213156138e557600080fd5b6000808335601e19843603018112613fb957600080fd5b830160208101925035905067ffffffffffffffff811115613fd957600080fd5b8060051b36038313156138e557600080fd5b81835260006020808501945084600585811b87018560005b88811015614099578483038a5261401a8289613fa2565b80855287850181871b860189018360005b8481101561408257888303601f190184526140468287613fa2565b8085526001600160fb1b0381111561405d57600080fd5b808c1b905080828f870137600094018d0193845250928b0192908b019060010161402b565b50509c89019c955050509186019150600101614003565b509098975050505050505050565b6060815260006140ba606083018861398a565b602083820381850152818783528183019050818860051b840101896000805b8b81101561413f57868403601f190185526140f4838e613fa2565b808652878601845b8281101561412a57833561410f8161388b565b6001600160a01b0316825292890192908901906001016140fc565b509688019695505050918501916001016140d9565b505050858103604087015261415581888a613feb565b9b9a5050505050505050505050565b60005b8381101561417f578181015183820152602001614167565b8381111561253f5750506000910152565b600081518084526141a8816020860160208601614164565b601f01601f19169290920160200192915050565b6001600160a01b038516815260a060208083018290526000916141e19084018761398a565b83810360408501526141f3818761398a565b905083810360608501528085518083528383019150838160051b84010184880160005b8381101561424457601f19868403018552614232838351614190565b94870194925090860190600101614216565b505086810360808801526000815260208101614155565b60018060a01b038816815286602082015285604082015284606082015283608082015282151560a082015260e060c0820152600061429c60e0830184614190565b9998505050505050505050565b6001600160a01b03841681526060602082018190526000906142cd9083018561398a565b828103604084015261379c818561398a565b6000602082840312156142f157600080fd5b5051919050565b600081600019048311821515161561431257614312613ddf565b500290565b60208082526017908201527f436c61696d657220686173206f6e65207469636b65742e000000000000000000604082015260600190565b6001600160a01b0394851681529290931660208301526040820152606081019190915260a06080820181905260009082015260c00190565b634e487b7160e01b600052600160045260246000fd5b81835281816020850137506000828201602090810191909152601f909101601f19169091010190565b83815260406020820152600061313b60408301848661439c565b6020815260006143f360208301848661439c565b949350505050565b6020808252601f908201527f4f6e6c792041646d696e20636f6e747261637420697320616c6c6f7765642100604082015260600190565b60006020828403121561444457600080fd5b8151613d1d81613ecb565b60008261446c57634e487b7160e01b600052601260045260246000fd5b500490565b6020808252602b908201527f496e697469616c697a61626c653a20636f6e7472616374206973206e6f74206960408201526a6e697469616c697a696e6760a81b606082015260800190565b60008251613ec181846020870161416456fea2646970667358221220038395659f5d67f9a163554196ab753026714e507031e566e3533639934bd43464736f6c63430008090033",
  "linkReferences": {},
  "deployedLinkReferences": {}
}