{
  "address": "0xc4a8B7fCFb11Dd80171bd2d129f9f2140DB20423",
  "abi": [
    {
      "inputs": [
        {
          "internalType": "address",
          "name": "_marketplaceAddress",
          "type": "address"
        }
      ],
      "stateMutability": "nonpayable",
      "type": "constructor"
    },
    {
      "anonymous": false,
      "inputs": [
        {
          "indexed": true,
          "internalType": "address",
          "name": "account",
          "type": "address"
        },
        {
          "indexed": true,
          "internalType": "address",
          "name": "operator",
          "type": "address"
        },
        {
          "indexed": false,
          "internalType": "bool",
          "name": "approved",
          "type": "bool"
        }
      ],
      "name": "ApprovalForAll",
      "type": "event"
    },
    {
      "anonymous": false,
      "inputs": [
        {
          "indexed": true,
          "internalType": "address",
          "name": "operator",
          "type": "address"
        },
        {
          "indexed": true,
          "internalType": "address",
          "name": "from",
          "type": "address"
        },
        {
          "indexed": true,
          "internalType": "address",
          "name": "to",
          "type": "address"
        },
        {
          "indexed": false,
          "internalType": "uint256[]",
          "name": "ids",
          "type": "uint256[]"
        },
        {
          "indexed": false,
          "internalType": "uint256[]",
          "name": "values",
          "type": "uint256[]"
        }
      ],
      "name": "TransferBatch",
      "type": "event"
    },
    {
      "anonymous": false,
      "inputs": [
        {
          "indexed": true,
          "internalType": "address",
          "name": "operator",
          "type": "address"
        },
        {
          "indexed": true,
          "internalType": "address",
          "name": "from",
          "type": "address"
        },
        {
          "indexed": true,
          "internalType": "address",
          "name": "to",
          "type": "address"
        },
        {
          "indexed": false,
          "internalType": "uint256",
          "name": "id",
          "type": "uint256"
        },
        {
          "indexed": false,
          "internalType": "uint256",
          "name": "value",
          "type": "uint256"
        }
      ],
      "name": "TransferSingle",
      "type": "event"
    },
    {
      "anonymous": false,
      "inputs": [
        {
          "indexed": false,
          "internalType": "string",
          "name": "value",
          "type": "string"
        },
        {
          "indexed": true,
          "internalType": "uint256",
          "name": "id",
          "type": "uint256"
        }
      ],
      "name": "URI",
      "type": "event"
    },
    {
      "anonymous": false,
      "inputs": [
        {
          "indexed": false,
          "internalType": "uint256",
          "name": "eventId",
          "type": "uint256"
        },
        {
          "indexed": false,
          "internalType": "uint256",
          "name": "ticketTypesCount",
          "type": "uint256"
        },
        {
          "indexed": false,
          "internalType": "uint256[]",
          "name": "newTokenIds",
          "type": "uint256[]"
        },
        {
          "indexed": false,
          "internalType": "uint256[]",
          "name": "amounts",
          "type": "uint256[]"
        },
        {
          "indexed": false,
          "internalType": "uint256[]",
          "name": "askingPrices",
          "type": "uint256[]"
        },
        {
          "indexed": false,
          "internalType": "uint256[]",
          "name": "creatorRoyalties",
          "type": "uint256[]"
        },
        {
          "indexed": false,
          "internalType": "string[]",
          "name": "uris",
          "type": "string[]"
        },
        {
          "indexed": false,
          "internalType": "address",
          "name": "publisher",
          "type": "address"
        }
      ],
      "name": "ticketsPublished",
      "type": "event"
    },
    {
      "inputs": [],
      "name": "MINIMUM_ASK",
      "outputs": [
        {
          "internalType": "uint256",
          "name": "",
          "type": "uint256"
        }
      ],
      "stateMutability": "view",
      "type": "function"
    },
    {
      "inputs": [],
      "name": "_owner",
      "outputs": [
        {
          "internalType": "address payable",
          "name": "",
          "type": "address"
        }
      ],
      "stateMutability": "view",
      "type": "function"
    },
    {
      "inputs": [
        {
          "internalType": "address",
          "name": "account",
          "type": "address"
        },
        {
          "internalType": "uint256",
          "name": "id",
          "type": "uint256"
        }
      ],
      "name": "balanceOf",
      "outputs": [
        {
          "internalType": "uint256",
          "name": "",
          "type": "uint256"
        }
      ],
      "stateMutability": "view",
      "type": "function"
    },
    {
      "inputs": [
        {
          "internalType": "address[]",
          "name": "accounts",
          "type": "address[]"
        },
        {
          "internalType": "uint256[]",
          "name": "ids",
          "type": "uint256[]"
        }
      ],
      "name": "balanceOfBatch",
      "outputs": [
        {
          "internalType": "uint256[]",
          "name": "",
          "type": "uint256[]"
        }
      ],
      "stateMutability": "view",
      "type": "function"
    },
    {
      "inputs": [
        {
          "internalType": "string",
          "name": "metadataUri",
          "type": "string"
        }
      ],
      "name": "createEvent",
      "outputs": [
        {
          "internalType": "uint256",
          "name": "",
          "type": "uint256"
        }
      ],
      "stateMutability": "nonpayable",
      "type": "function"
    },
    {
      "inputs": [
        {
          "internalType": "string",
          "name": "eventMetadataUri",
          "type": "string"
        },
        {
          "internalType": "uint256",
          "name": "ticketTypesCount",
          "type": "uint256"
        },
        {
          "internalType": "uint256[]",
          "name": "amounts",
          "type": "uint256[]"
        },
        {
          "internalType": "uint256[]",
          "name": "askingPrices",
          "type": "uint256[]"
        },
        {
          "internalType": "uint256[]",
          "name": "creatorRoyalties",
          "type": "uint256[]"
        },
        {
          "internalType": "string[]",
          "name": "uris",
          "type": "string[]"
        }
      ],
      "name": "createEventAndPublishTickets",
      "outputs": [],
      "stateMutability": "nonpayable",
      "type": "function"
    },
    {
      "inputs": [
        {
          "internalType": "address",
          "name": "account",
          "type": "address"
        },
        {
          "internalType": "address",
          "name": "operator",
          "type": "address"
        }
      ],
      "name": "isApprovedForAll",
      "outputs": [
        {
          "internalType": "bool",
          "name": "",
          "type": "bool"
        }
      ],
      "stateMutability": "view",
      "type": "function"
    },
    {
      "inputs": [],
      "name": "marketplaceAddress",
      "outputs": [
        {
          "internalType": "address",
          "name": "",
          "type": "address"
        }
      ],
      "stateMutability": "view",
      "type": "function"
    },
    {
      "inputs": [
        {
          "internalType": "uint256",
          "name": "eventId",
          "type": "uint256"
        },
        {
          "internalType": "uint256",
          "name": "ticketTypesCount",
          "type": "uint256"
        },
        {
          "internalType": "uint256[]",
          "name": "amounts",
          "type": "uint256[]"
        },
        {
          "internalType": "uint256[]",
          "name": "askingPrices",
          "type": "uint256[]"
        },
        {
          "internalType": "uint256[]",
          "name": "creatorRoyalties",
          "type": "uint256[]"
        },
        {
          "internalType": "string[]",
          "name": "uris",
          "type": "string[]"
        }
      ],
      "name": "publishEventTickets",
      "outputs": [],
      "stateMutability": "nonpayable",
      "type": "function"
    },
    {
      "inputs": [
        {
          "internalType": "uint256",
          "name": "tokenId",
          "type": "uint256"
        }
      ],
      "name": "removeAsk",
      "outputs": [],
      "stateMutability": "nonpayable",
      "type": "function"
    },
    {
      "inputs": [
        {
          "internalType": "address",
          "name": "from",
          "type": "address"
        },
        {
          "internalType": "address",
          "name": "to",
          "type": "address"
        },
        {
          "internalType": "uint256[]",
          "name": "ids",
          "type": "uint256[]"
        },
        {
          "internalType": "uint256[]",
          "name": "amounts",
          "type": "uint256[]"
        },
        {
          "internalType": "bytes",
          "name": "data",
          "type": "bytes"
        }
      ],
      "name": "safeBatchTransferFrom",
      "outputs": [],
      "stateMutability": "nonpayable",
      "type": "function"
    },
    {
      "inputs": [
        {
          "internalType": "address",
          "name": "from",
          "type": "address"
        },
        {
          "internalType": "address",
          "name": "to",
          "type": "address"
        },
        {
          "internalType": "uint256",
          "name": "id",
          "type": "uint256"
        },
        {
          "internalType": "uint256",
          "name": "amount",
          "type": "uint256"
        },
        {
          "internalType": "bytes",
          "name": "data",
          "type": "bytes"
        }
      ],
      "name": "safeTransferFrom",
      "outputs": [],
      "stateMutability": "nonpayable",
      "type": "function"
    },
    {
      "inputs": [
        {
          "internalType": "address",
          "name": "operator",
          "type": "address"
        },
        {
          "internalType": "bool",
          "name": "approved",
          "type": "bool"
        }
      ],
      "name": "setApprovalForAll",
      "outputs": [],
      "stateMutability": "nonpayable",
      "type": "function"
    },
    {
      "inputs": [
        {
          "internalType": "uint256",
          "name": "tokenId",
          "type": "uint256"
        },
        {
          "internalType": "uint256",
          "name": "askingPrice",
          "type": "uint256"
        }
      ],
      "name": "setAsk",
      "outputs": [],
      "stateMutability": "nonpayable",
      "type": "function"
    },
    {
      "inputs": [
        {
          "internalType": "bytes4",
          "name": "interfaceId",
          "type": "bytes4"
        }
      ],
      "name": "supportsInterface",
      "outputs": [
        {
          "internalType": "bool",
          "name": "",
          "type": "bool"
        }
      ],
      "stateMutability": "view",
      "type": "function"
    },
    {
      "inputs": [
        {
          "internalType": "uint256",
          "name": "tokenId",
          "type": "uint256"
        }
      ],
      "name": "uri",
      "outputs": [
        {
          "internalType": "string",
          "name": "",
          "type": "string"
        }
      ],
      "stateMutability": "view",
      "type": "function"
    }
  ],
  "transactionHash": "0x9d35e3120ac60299301fb1b435d51d97cf27ba30cc0cf11447b9ccc7117328d4",
  "args": [
    "0x149Ab150C823b9614a973ff7c60FB99a959d0668"
  ],
  "solcInputHash": "d9258e45a457327f708abf25c65518fe",
  "bytecode": "0x60806040523480156200001157600080fd5b506040516200457e3803806200457e8339818101604052810190620000379190620001d7565b6040518060600160405280602281526020016200455c602291396200006281620000f460201b60201c565b50600160038190555080600760006101000a81548173ffffffffffffffffffffffffffffffffffffffff021916908373ffffffffffffffffffffffffffffffffffffffff16021790555033600560006101000a81548173ffffffffffffffffffffffffffffffffffffffff021916908373ffffffffffffffffffffffffffffffffffffffff16021790555050620002b6565b80600290805190602001906200010c92919062000110565b5050565b8280546200011e9062000237565b90600052602060002090601f0160209004810192826200014257600085556200018e565b82601f106200015d57805160ff19168380011785556200018e565b828001600101855582156200018e579182015b828111156200018d57825182559160200191906001019062000170565b5b5090506200019d9190620001a1565b5090565b5b80821115620001bc576000816000905550600101620001a2565b5090565b600081519050620001d1816200029c565b92915050565b600060208284031215620001ea57600080fd5b6000620001fa84828501620001c0565b91505092915050565b6000620002108262000217565b9050919050565b600073ffffffffffffffffffffffffffffffffffffffff82169050919050565b600060028204905060018216806200025057607f821691505b602082108114156200026757620002666200026d565b5b50919050565b7f4e487b7100000000000000000000000000000000000000000000000000000000600052602260045260246000fd5b620002a78162000203565b8114620002b357600080fd5b50565b61429680620002c66000396000f3fe608060405234801561001057600080fd5b50600436106100ff5760003560e01c80639bc2bc7111610097578063dbdebcba11610066578063dbdebcba146102be578063e49f8768146102da578063e985e9c5146102f6578063f242432a14610326576100ff565b80639bc2bc7114610236578063a22cb46514610266578063b2bdfa7b14610282578063daa17f49146102a0576100ff565b80632eb2c2d6116100d35780632eb2c2d6146101b0578063384c57a9146101cc5780634e1273f4146101e85780635d080ba614610218576100ff565b8062fdd58e1461010457806301ffc9a7146101345780630e89341c1461016457806328220f3514610194575b600080fd5b61011e60048036038101906101199190612b59565b610342565b60405161012b9190613720565b60405180910390f35b61014e60048036038101906101499190612c01565b61040b565b60405161015b9190613503565b60405180910390f35b61017e60048036038101906101799190612da3565b6104ed565b60405161018b919061351e565b60405180910390f35b6101ae60048036038101906101a99190612da3565b610592565b005b6101ca60048036038101906101c591906129cf565b610678565b005b6101e660048036038101906101e19190612c94565b610719565b005b61020260048036038101906101fd9190612b95565b610c6a565b60405161020f91906134aa565b60405180910390f35b610220610e1b565b60405161022d9190613720565b60405180910390f35b610250600480360381019061024b9190612c53565b610e26565b60405161025d9190613720565b60405180910390f35b610280600480360381019061027b9190612b1d565b610f34565b005b61028a6110b5565b604051610297919061339d565b60405180910390f35b6102a86110db565b6040516102b59190613382565b60405180910390f35b6102d860048036038101906102d39190612e31565b611101565b005b6102f460048036038101906102ef9190612df5565b61159e565b005b610310600480360381019061030b9190612993565b6116b6565b60405161031d9190613503565b60405180910390f35b610340600480360381019061033b9190612a8e565b61174a565b005b60008073ffffffffffffffffffffffffffffffffffffffff168373ffffffffffffffffffffffffffffffffffffffff1614156103b3576040517f08c379a00000000000000000000000000000000000000000000000000000000081526004016103aa90613580565b60405180910390fd5b60008083815260200190815260200160002060008473ffffffffffffffffffffffffffffffffffffffff1673ffffffffffffffffffffffffffffffffffffffff16815260200190815260200160002054905092915050565b60007fd9b67a26000000000000000000000000000000000000000000000000000000007bffffffffffffffffffffffffffffffffffffffffffffffffffffffff1916827bffffffffffffffffffffffffffffffffffffffffffffffffffffffff191614806104d657507f0e89341c000000000000000000000000000000000000000000000000000000007bffffffffffffffffffffffffffffffffffffffffffffffffffffffff1916827bffffffffffffffffffffffffffffffffffffffffffffffffffffffff1916145b806104e657506104e5826117eb565b5b9050919050565b606060066000838152602001908152602001600020805461050d90613ba0565b80601f016020809104026020016040519081016040528092919081815260200182805461053990613ba0565b80156105865780601f1061055b57610100808354040283529160200191610586565b820191906000526020600020905b81548152906001019060200180831161056957829003601f168201915b50505050509050919050565b600260035414156105d8576040517f08c379a00000000000000000000000000000000000000000000000000000000081526004016105cf90613700565b60405180910390fd5b6002600381905550600760009054906101000a900473ffffffffffffffffffffffffffffffffffffffff1673ffffffffffffffffffffffffffffffffffffffff166328220f35826040518263ffffffff1660e01b815260040161063b9190613720565b600060405180830381600087803b15801561065557600080fd5b505af1158015610669573d6000803e3d6000fd5b50505050600160038190555050565b610680611855565b73ffffffffffffffffffffffffffffffffffffffff168573ffffffffffffffffffffffffffffffffffffffff1614806106c657506106c5856106c0611855565b6116b6565b5b610705576040517f08c379a00000000000000000000000000000000000000000000000000000000081526004016106fc90613600565b60405180910390fd5b610712858585858561185d565b5050505050565b6002600354141561075f576040517f08c379a000000000000000000000000000000000000000000000000000000000815260040161075690613700565b60405180910390fd5b600260038190555060648811156107ab576040517f08c379a00000000000000000000000000000000000000000000000000000000081526004016107a290613660565b60405180910390fd5b60005b888110156108d6576101f48484838181106107f2577f4e487b7100000000000000000000000000000000000000000000000000000000600052603260045260246000fd5b90506020020135111561083a576040517f08c379a0000000000000000000000000000000000000000000000000000000008152600401610831906135a0565b60405180910390fd5b6611c37937e0800086868381811061087b577f4e487b7100000000000000000000000000000000000000000000000000000000600052603260045260246000fd5b9050602002013510156108c3576040517f08c379a00000000000000000000000000000000000000000000000000000000081526004016108ba90613620565b60405180910390fd5b80806108ce90613c03565b9150506107ae565b506000600760009054906101000a900473ffffffffffffffffffffffffffffffffffffffff1673ffffffffffffffffffffffffffffffffffffffff1663a8844f56338c6040518363ffffffff1660e01b815260040161093692919061347a565b602060405180830381600087803b15801561095057600080fd5b505af1158015610964573d6000803e3d6000fd5b505050506040513d601f19601f820116820180604052508101906109889190612dcc565b905060008967ffffffffffffffff8111156109cc577f4e487b7100000000000000000000000000000000000000000000000000000000600052604160045260246000fd5b6040519080825280602002602001820160405280156109fa5781602001602082028036833780820191505090505b50905060005b8a811015610ae557610a126004611bbd565b610a1c6004611bd3565b828281518110610a55577f4e487b7100000000000000000000000000000000000000000000000000000000600052603260045260246000fd5b602002602001018181525050838181518110610a9a577f4e487b7100000000000000000000000000000000000000000000000000000000600052603260045260246000fd5b602002602001015160066000610ab06004611bd3565b81526020019081526020016000209080519060200190610ad192919061257c565b508080610add90613c03565b915050610a00565b50610b4233828b8b80806020026020016040519081016040528093929190818152602001838360200280828437600081840152601f19601f8201169050808301925050505050505060405180602001604052806000815250611be1565b610b6f600760009054906101000a900473ffffffffffffffffffffffffffffffffffffffff166001610f34565b600760009054906101000a900473ffffffffffffffffffffffffffffffffffffffff1673ffffffffffffffffffffffffffffffffffffffff16631d563cdc838c848b8b8b8b336040518963ffffffff1660e01b8152600401610bd898979695949392919061379b565b600060405180830381600087803b158015610bf257600080fd5b505af1158015610c06573d6000803e3d6000fd5b505050507f09bf61b1b04a4dde211b95216e3e95ac945c7dc361a0b44b7a9accb73514ab9c828b838c8c8c8c8c8c8c33604051610c4d9b9a99989796959493929190613815565b60405180910390a150506001600381905550505050505050505050565b60608151835114610cb0576040517f08c379a0000000000000000000000000000000000000000000000000000000008152600401610ca7906136a0565b60405180910390fd5b6000835167ffffffffffffffff811115610cf3577f4e487b7100000000000000000000000000000000000000000000000000000000600052604160045260246000fd5b604051908082528060200260200182016040528015610d215781602001602082028036833780820191505090505b50905060005b8451811015610e1057610dba858281518110610d6c577f4e487b7100000000000000000000000000000000000000000000000000000000600052603260045260246000fd5b6020026020010151858381518110610dad577f4e487b7100000000000000000000000000000000000000000000000000000000600052603260045260246000fd5b6020026020010151610342565b828281518110610df3577f4e487b7100000000000000000000000000000000000000000000000000000000600052603260045260246000fd5b60200260200101818152505080610e0990613c03565b9050610d27565b508091505092915050565b6611c37937e0800081565b600060026003541415610e6e576040517f08c379a0000000000000000000000000000000000000000000000000000000008152600401610e6590613700565b60405180910390fd5b6002600381905550600760009054906101000a900473ffffffffffffffffffffffffffffffffffffffff1673ffffffffffffffffffffffffffffffffffffffff1663a8844f5633846040518363ffffffff1660e01b8152600401610ed392919061347a565b602060405180830381600087803b158015610eed57600080fd5b505af1158015610f01573d6000803e3d6000fd5b505050506040513d601f19601f82011682018060405250810190610f259190612dcc565b90506001600381905550919050565b8173ffffffffffffffffffffffffffffffffffffffff16610f53611855565b73ffffffffffffffffffffffffffffffffffffffff161415610faa576040517f08c379a0000000000000000000000000000000000000000000000000000000008152600401610fa190613680565b60405180910390fd5b8060016000610fb7611855565b73ffffffffffffffffffffffffffffffffffffffff1673ffffffffffffffffffffffffffffffffffffffff16815260200190815260200160002060008473ffffffffffffffffffffffffffffffffffffffff1673ffffffffffffffffffffffffffffffffffffffff16815260200190815260200160002060006101000a81548160ff0219169083151502179055508173ffffffffffffffffffffffffffffffffffffffff16611064611855565b73ffffffffffffffffffffffffffffffffffffffff167f17307eab39ab6107e8899845ad3d59bd9653f200f220920489ca2b5937696c31836040516110a99190613503565b60405180910390a35050565b600560009054906101000a900473ffffffffffffffffffffffffffffffffffffffff1681565b600760009054906101000a900473ffffffffffffffffffffffffffffffffffffffff1681565b60026003541415611147576040517f08c379a000000000000000000000000000000000000000000000000000000000815260040161113e90613700565b60405180910390fd5b60026003819055506064881115611193576040517f08c379a000000000000000000000000000000000000000000000000000000000815260040161118a90613660565b60405180910390fd5b60005b888110156112be576101f48484838181106111da577f4e487b7100000000000000000000000000000000000000000000000000000000600052603260045260246000fd5b905060200201351115611222576040517f08c379a0000000000000000000000000000000000000000000000000000000008152600401611219906135a0565b60405180910390fd5b6611c37937e08000868683818110611263577f4e487b7100000000000000000000000000000000000000000000000000000000600052603260045260246000fd5b9050602002013510156112ab576040517f08c379a00000000000000000000000000000000000000000000000000000000081526004016112a290613620565b60405180910390fd5b80806112b690613c03565b915050611196565b5060008867ffffffffffffffff811115611301577f4e487b7100000000000000000000000000000000000000000000000000000000600052604160045260246000fd5b60405190808252806020026020018201604052801561132f5781602001602082028036833780820191505090505b50905060005b8981101561141a576113476004611bbd565b6113516004611bd3565b82828151811061138a577f4e487b7100000000000000000000000000000000000000000000000000000000600052603260045260246000fd5b6020026020010181815250508281815181106113cf577f4e487b7100000000000000000000000000000000000000000000000000000000600052603260045260246000fd5b6020026020010151600660006113e56004611bd3565b8152602001908152602001600020908051906020019061140692919061257c565b50808061141290613c03565b915050611335565b5061147733828a8a80806020026020016040519081016040528093929190818152602001838360200280828437600081840152601f19601f8201169050808301925050505050505060405180602001604052806000815250611be1565b6114a4600760009054906101000a900473ffffffffffffffffffffffffffffffffffffffff166001610f34565b600760009054906101000a900473ffffffffffffffffffffffffffffffffffffffff1673ffffffffffffffffffffffffffffffffffffffff16631d563cdc8b8b848a8a8a8a336040518963ffffffff1660e01b815260040161150d98979695949392919061379b565b600060405180830381600087803b15801561152757600080fd5b505af115801561153b573d6000803e3d6000fd5b505050507f09bf61b1b04a4dde211b95216e3e95ac945c7dc361a0b44b7a9accb73514ab9c8a8a838b8b8b8b8b8b8b336040516115829b9a99989796959493929190613815565b60405180910390a1506001600381905550505050505050505050565b600260035414156115e4576040517f08c379a00000000000000000000000000000000000000000000000000000000081526004016115db90613700565b60405180910390fd5b6002600381905550600760009054906101000a900473ffffffffffffffffffffffffffffffffffffffff1673ffffffffffffffffffffffffffffffffffffffff16633b7878978383336040518463ffffffff1660e01b815260040161164b93929190613764565b600060405180830381600087803b15801561166557600080fd5b505af1158015611679573d6000803e3d6000fd5b505050506116aa600760009054906101000a900473ffffffffffffffffffffffffffffffffffffffff166001610f34565b60016003819055505050565b6000600160008473ffffffffffffffffffffffffffffffffffffffff1673ffffffffffffffffffffffffffffffffffffffff16815260200190815260200160002060008373ffffffffffffffffffffffffffffffffffffffff1673ffffffffffffffffffffffffffffffffffffffff16815260200190815260200160002060009054906101000a900460ff16905092915050565b611752611855565b73ffffffffffffffffffffffffffffffffffffffff168573ffffffffffffffffffffffffffffffffffffffff161480611798575061179785611792611855565b6116b6565b5b6117d7576040517f08c379a00000000000000000000000000000000000000000000000000000000081526004016117ce906135c0565b60405180910390fd5b6117e48585858585611e4b565b5050505050565b60007f01ffc9a7000000000000000000000000000000000000000000000000000000007bffffffffffffffffffffffffffffffffffffffffffffffffffffffff1916827bffffffffffffffffffffffffffffffffffffffffffffffffffffffff1916149050919050565b600033905090565b81518351146118a1576040517f08c379a0000000000000000000000000000000000000000000000000000000008152600401611898906136c0565b60405180910390fd5b600073ffffffffffffffffffffffffffffffffffffffff168473ffffffffffffffffffffffffffffffffffffffff161415611911576040517f08c379a0000000000000000000000000000000000000000000000000000000008152600401611908906135e0565b60405180910390fd5b600061191b611855565b905061192b8187878787876120cd565b60005b8451811015611b28576000858281518110611972577f4e487b7100000000000000000000000000000000000000000000000000000000600052603260045260246000fd5b6020026020010151905060008583815181106119b7577f4e487b7100000000000000000000000000000000000000000000000000000000600052603260045260246000fd5b60200260200101519050600080600084815260200190815260200160002060008b73ffffffffffffffffffffffffffffffffffffffff1673ffffffffffffffffffffffffffffffffffffffff16815260200190815260200160002054905081811015611a58576040517f08c379a0000000000000000000000000000000000000000000000000000000008152600401611a4f90613640565b60405180910390fd5b81810360008085815260200190815260200160002060008c73ffffffffffffffffffffffffffffffffffffffff1673ffffffffffffffffffffffffffffffffffffffff168152602001908152602001600020819055508160008085815260200190815260200160002060008b73ffffffffffffffffffffffffffffffffffffffff1673ffffffffffffffffffffffffffffffffffffffff1681526020019081526020016000206000828254611b0d9190613a82565b9250508190555050505080611b2190613c03565b905061192e565b508473ffffffffffffffffffffffffffffffffffffffff168673ffffffffffffffffffffffffffffffffffffffff168273ffffffffffffffffffffffffffffffffffffffff167f4a39dc06d4c0dbc64b70af90fd698a233a518aa5d07e595d983b8c0526c8f7fb8787604051611b9f9291906134cc565b60405180910390a4611bb58187878787876120d5565b505050505050565b6001816000016000828254019250508190555050565b600081600001549050919050565b600073ffffffffffffffffffffffffffffffffffffffff168473ffffffffffffffffffffffffffffffffffffffff161415611c51576040517f08c379a0000000000000000000000000000000000000000000000000000000008152600401611c48906136e0565b60405180910390fd5b8151835114611c95576040517f08c379a0000000000000000000000000000000000000000000000000000000008152600401611c8c906136c0565b60405180910390fd5b6000611c9f611855565b9050611cb0816000878787876120cd565b60005b8451811015611db557838181518110611cf5577f4e487b7100000000000000000000000000000000000000000000000000000000600052603260045260246000fd5b6020026020010151600080878481518110611d39577f4e487b7100000000000000000000000000000000000000000000000000000000600052603260045260246000fd5b6020026020010151815260200190815260200160002060008873ffffffffffffffffffffffffffffffffffffffff1673ffffffffffffffffffffffffffffffffffffffff1681526020019081526020016000206000828254611d9b9190613a82565b925050819055508080611dad90613c03565b915050611cb3565b508473ffffffffffffffffffffffffffffffffffffffff16600073ffffffffffffffffffffffffffffffffffffffff168273ffffffffffffffffffffffffffffffffffffffff167f4a39dc06d4c0dbc64b70af90fd698a233a518aa5d07e595d983b8c0526c8f7fb8787604051611e2d9291906134cc565b60405180910390a4611e44816000878787876120d5565b5050505050565b600073ffffffffffffffffffffffffffffffffffffffff168473ffffffffffffffffffffffffffffffffffffffff161415611ebb576040517f08c379a0000000000000000000000000000000000000000000000000000000008152600401611eb2906135e0565b60405180910390fd5b6000611ec5611855565b9050611ee5818787611ed6886122bc565b611edf886122bc565b876120cd565b600080600086815260200190815260200160002060008873ffffffffffffffffffffffffffffffffffffffff1673ffffffffffffffffffffffffffffffffffffffff16815260200190815260200160002054905083811015611f7c576040517f08c379a0000000000000000000000000000000000000000000000000000000008152600401611f7390613640565b60405180910390fd5b83810360008087815260200190815260200160002060008973ffffffffffffffffffffffffffffffffffffffff1673ffffffffffffffffffffffffffffffffffffffff168152602001908152602001600020819055508360008087815260200190815260200160002060008873ffffffffffffffffffffffffffffffffffffffff1673ffffffffffffffffffffffffffffffffffffffff16815260200190815260200160002060008282546120319190613a82565b925050819055508573ffffffffffffffffffffffffffffffffffffffff168773ffffffffffffffffffffffffffffffffffffffff168373ffffffffffffffffffffffffffffffffffffffff167fc3d58168c5ae7397731d063d5bbf3d657854427343f4c083240f7aacaa2d0f6288886040516120ae92919061373b565b60405180910390a46120c4828888888888612382565b50505050505050565b505050505050565b6120f48473ffffffffffffffffffffffffffffffffffffffff16612569565b156122b4578373ffffffffffffffffffffffffffffffffffffffff1663bc197c8187878686866040518663ffffffff1660e01b815260040161213a9594939291906133b8565b602060405180830381600087803b15801561215457600080fd5b505af192505050801561218557506040513d601f19601f820116820180604052508101906121829190612c2a565b60015b61222b57612191613cd9565b806308c379a014156121ee57506121a661416e565b806121b157506121f0565b806040517f08c379a00000000000000000000000000000000000000000000000000000000081526004016121e5919061351e565b60405180910390fd5b505b6040517f08c379a000000000000000000000000000000000000000000000000000000000815260040161222290613540565b60405180910390fd5b63bc197c8160e01b7bffffffffffffffffffffffffffffffffffffffffffffffffffffffff1916817bffffffffffffffffffffffffffffffffffffffffffffffffffffffff1916146122b2576040517f08c379a00000000000000000000000000000000000000000000000000000000081526004016122a990613560565b60405180910390fd5b505b505050505050565b60606000600167ffffffffffffffff811115612301577f4e487b7100000000000000000000000000000000000000000000000000000000600052604160045260246000fd5b60405190808252806020026020018201604052801561232f5781602001602082028036833780820191505090505b509050828160008151811061236d577f4e487b7100000000000000000000000000000000000000000000000000000000600052603260045260246000fd5b60200260200101818152505080915050919050565b6123a18473ffffffffffffffffffffffffffffffffffffffff16612569565b15612561578373ffffffffffffffffffffffffffffffffffffffff1663f23a6e6187878686866040518663ffffffff1660e01b81526004016123e7959493929190613420565b602060405180830381600087803b15801561240157600080fd5b505af192505050801561243257506040513d601f19601f8201168201806040525081019061242f9190612c2a565b60015b6124d85761243e613cd9565b806308c379a0141561249b575061245361416e565b8061245e575061249d565b806040517f08c379a0000000000000000000000000000000000000000000000000000000008152600401612492919061351e565b60405180910390fd5b505b6040517f08c379a00000000000000000000000000000000000000000000000000000000081526004016124cf90613540565b60405180910390fd5b63f23a6e6160e01b7bffffffffffffffffffffffffffffffffffffffffffffffffffffffff1916817bffffffffffffffffffffffffffffffffffffffffffffffffffffffff19161461255f576040517f08c379a000000000000000000000000000000000000000000000000000000000815260040161255690613560565b60405180910390fd5b505b505050505050565b600080823b905060008111915050919050565b82805461258890613ba0565b90600052602060002090601f0160209004810192826125aa57600085556125f1565b82601f106125c357805160ff19168380011785556125f1565b828001600101855582156125f1579182015b828111156125f05782518255916020019190600101906125d5565b5b5090506125fe9190612602565b5090565b5b8082111561261b576000816000905550600101612603565b5090565b600061263261262d846138e1565b6138bc565b9050808382526020820190508285602086028201111561265157600080fd5b60005b85811015612681578161266788826127f9565b845260208401935060208301925050600181019050612654565b5050509392505050565b600061269e6126998461390d565b6138bc565b905080838252602082019050828560208602820111156126bd57600080fd5b60005b8581101561270757813567ffffffffffffffff8111156126df57600080fd5b8086016126ec898261293f565b855260208501945060208401935050506001810190506126c0565b5050509392505050565b600061272461271f84613939565b6138bc565b9050808382526020820190508285602086028201111561274357600080fd5b60005b8581101561277357816127598882612969565b845260208401935060208301925050600181019050612746565b5050509392505050565b600061279061278b84613965565b6138bc565b9050828152602081018484840111156127a857600080fd5b6127b3848285613b5e565b509392505050565b60006127ce6127c984613996565b6138bc565b9050828152602081018484840111156127e657600080fd5b6127f1848285613b5e565b509392505050565b60008135905061280881614204565b92915050565b600082601f83011261281f57600080fd5b813561282f84826020860161261f565b91505092915050565b600082601f83011261284957600080fd5b813561285984826020860161268b565b91505092915050565b60008083601f84011261287457600080fd5b8235905067ffffffffffffffff81111561288d57600080fd5b6020830191508360208202830111156128a557600080fd5b9250929050565b600082601f8301126128bd57600080fd5b81356128cd848260208601612711565b91505092915050565b6000813590506128e58161421b565b92915050565b6000813590506128fa81614232565b92915050565b60008151905061290f81614232565b92915050565b600082601f83011261292657600080fd5b813561293684826020860161277d565b91505092915050565b600082601f83011261295057600080fd5b81356129608482602086016127bb565b91505092915050565b60008135905061297881614249565b92915050565b60008151905061298d81614249565b92915050565b600080604083850312156129a657600080fd5b60006129b4858286016127f9565b92505060206129c5858286016127f9565b9150509250929050565b600080600080600060a086880312156129e757600080fd5b60006129f5888289016127f9565b9550506020612a06888289016127f9565b945050604086013567ffffffffffffffff811115612a2357600080fd5b612a2f888289016128ac565b935050606086013567ffffffffffffffff811115612a4c57600080fd5b612a58888289016128ac565b925050608086013567ffffffffffffffff811115612a7557600080fd5b612a8188828901612915565b9150509295509295909350565b600080600080600060a08688031215612aa657600080fd5b6000612ab4888289016127f9565b9550506020612ac5888289016127f9565b9450506040612ad688828901612969565b9350506060612ae788828901612969565b925050608086013567ffffffffffffffff811115612b0457600080fd5b612b1088828901612915565b9150509295509295909350565b60008060408385031215612b3057600080fd5b6000612b3e858286016127f9565b9250506020612b4f858286016128d6565b9150509250929050565b60008060408385031215612b6c57600080fd5b6000612b7a858286016127f9565b9250506020612b8b85828601612969565b9150509250929050565b60008060408385031215612ba857600080fd5b600083013567ffffffffffffffff811115612bc257600080fd5b612bce8582860161280e565b925050602083013567ffffffffffffffff811115612beb57600080fd5b612bf7858286016128ac565b9150509250929050565b600060208284031215612c1357600080fd5b6000612c21848285016128eb565b91505092915050565b600060208284031215612c3c57600080fd5b6000612c4a84828501612900565b91505092915050565b600060208284031215612c6557600080fd5b600082013567ffffffffffffffff811115612c7f57600080fd5b612c8b8482850161293f565b91505092915050565b600080600080600080600080600060c08a8c031215612cb257600080fd5b60008a013567ffffffffffffffff811115612ccc57600080fd5b612cd88c828d0161293f565b9950506020612ce98c828d01612969565b98505060408a013567ffffffffffffffff811115612d0657600080fd5b612d128c828d01612862565b975097505060608a013567ffffffffffffffff811115612d3157600080fd5b612d3d8c828d01612862565b955095505060808a013567ffffffffffffffff811115612d5c57600080fd5b612d688c828d01612862565b935093505060a08a013567ffffffffffffffff811115612d8757600080fd5b612d938c828d01612838565b9150509295985092959850929598565b600060208284031215612db557600080fd5b6000612dc384828501612969565b91505092915050565b600060208284031215612dde57600080fd5b6000612dec8482850161297e565b91505092915050565b60008060408385031215612e0857600080fd5b6000612e1685828601612969565b9250506020612e2785828601612969565b9150509250929050565b600080600080600080600080600060c08a8c031215612e4f57600080fd5b6000612e5d8c828d01612969565b9950506020612e6e8c828d01612969565b98505060408a013567ffffffffffffffff811115612e8b57600080fd5b612e978c828d01612862565b975097505060608a013567ffffffffffffffff811115612eb657600080fd5b612ec28c828d01612862565b955095505060808a013567ffffffffffffffff811115612ee157600080fd5b612eed8c828d01612862565b935093505060a08a013567ffffffffffffffff811115612f0c57600080fd5b612f188c828d01612838565b9150509295985092959850929598565b6000612f3483836130e5565b905092915050565b6000612f488383613364565b60208301905092915050565b612f5d81613aea565b82525050565b612f6c81613ad8565b82525050565b6000612f7d826139e7565b612f878185613a2d565b935083602082028501612f99856139c7565b8060005b85811015612fd55784840389528151612fb68582612f28565b9450612fc183613a13565b925060208a01995050600181019050612f9d565b50829750879550505050505092915050565b6000612ff38385613a3e565b93507f07ffffffffffffffffffffffffffffffffffffffffffffffffffffffffffffff83111561302257600080fd5b602083029250613033838584613b5e565b82840190509392505050565b600061304a826139f2565b6130548185613a3e565b935061305f836139d7565b8060005b838110156130905781516130778882612f3c565b975061308283613a20565b925050600181019050613063565b5085935050505092915050565b6130a681613afc565b82525050565b60006130b7826139fd565b6130c18185613a4f565b93506130d1818560208601613b6d565b6130da81613cfb565b840191505092915050565b60006130f082613a08565b6130fa8185613a60565b935061310a818560208601613b6d565b61311381613cfb565b840191505092915050565b600061312982613a08565b6131338185613a71565b9350613143818560208601613b6d565b61314c81613cfb565b840191505092915050565b6000613164603483613a71565b915061316f82613d19565b604082019050919050565b6000613187602883613a71565b915061319282613d68565b604082019050919050565b60006131aa602b83613a71565b91506131b582613db7565b604082019050919050565b60006131cd602e83613a71565b91506131d882613e06565b604082019050919050565b60006131f0602983613a71565b91506131fb82613e55565b604082019050919050565b6000613213602583613a71565b915061321e82613ea4565b604082019050919050565b6000613236603283613a71565b915061324182613ef3565b604082019050919050565b6000613259602d83613a71565b915061326482613f42565b604082019050919050565b600061327c602a83613a71565b915061328782613f91565b604082019050919050565b600061329f601d83613a71565b91506132aa82613fe0565b602082019050919050565b60006132c2602983613a71565b91506132cd82614009565b604082019050919050565b60006132e5602983613a71565b91506132f082614058565b604082019050919050565b6000613308602883613a71565b9150613313826140a7565b604082019050919050565b600061332b602183613a71565b9150613336826140f6565b604082019050919050565b600061334e601f83613a71565b915061335982614145565b602082019050919050565b61336d81613b54565b82525050565b61337c81613b54565b82525050565b60006020820190506133976000830184612f63565b92915050565b60006020820190506133b26000830184612f54565b92915050565b600060a0820190506133cd6000830188612f63565b6133da6020830187612f63565b81810360408301526133ec818661303f565b90508181036060830152613400818561303f565b9050818103608083015261341481846130ac565b90509695505050505050565b600060a0820190506134356000830188612f63565b6134426020830187612f63565b61344f6040830186613373565b61345c6060830185613373565b818103608083015261346e81846130ac565b90509695505050505050565b600060408201905061348f6000830185612f63565b81810360208301526134a1818461311e565b90509392505050565b600060208201905081810360008301526134c4818461303f565b905092915050565b600060408201905081810360008301526134e6818561303f565b905081810360208301526134fa818461303f565b90509392505050565b6000602082019050613518600083018461309d565b92915050565b60006020820190508181036000830152613538818461311e565b905092915050565b6000602082019050818103600083015261355981613157565b9050919050565b600060208201905081810360008301526135798161317a565b9050919050565b600060208201905081810360008301526135998161319d565b9050919050565b600060208201905081810360008301526135b9816131c0565b9050919050565b600060208201905081810360008301526135d9816131e3565b9050919050565b600060208201905081810360008301526135f981613206565b9050919050565b6000602082019050818103600083015261361981613229565b9050919050565b600060208201905081810360008301526136398161324c565b9050919050565b600060208201905081810360008301526136598161326f565b9050919050565b6000602082019050818103600083015261367981613292565b9050919050565b60006020820190508181036000830152613699816132b5565b9050919050565b600060208201905081810360008301526136b9816132d8565b9050919050565b600060208201905081810360008301526136d9816132fb565b9050919050565b600060208201905081810360008301526136f98161331e565b9050919050565b6000602082019050818103600083015261371981613341565b9050919050565b60006020820190506137356000830184613373565b92915050565b60006040820190506137506000830185613373565b61375d6020830184613373565b9392505050565b60006060820190506137796000830186613373565b6137866020830185613373565b6137936040830184612f63565b949350505050565b600060c0820190506137b0600083018b613373565b6137bd602083018a613373565b81810360408301526137cf818961303f565b905081810360608301526137e4818789612fe7565b905081810360808301526137f9818587612fe7565b905061380860a0830184612f54565b9998505050505050505050565b60006101008201905061382b600083018e613373565b613838602083018d613373565b818103604083015261384a818c61303f565b9050818103606083015261385f818a8c612fe7565b9050818103608083015261387481888a612fe7565b905081810360a0830152613889818688612fe7565b905081810360c083015261389d8185612f72565b90506138ac60e0830184612f63565b9c9b505050505050505050505050565b60006138c66138d7565b90506138d28282613bd2565b919050565b6000604051905090565b600067ffffffffffffffff8211156138fc576138fb613caa565b5b602082029050602081019050919050565b600067ffffffffffffffff82111561392857613927613caa565b5b602082029050602081019050919050565b600067ffffffffffffffff82111561395457613953613caa565b5b602082029050602081019050919050565b600067ffffffffffffffff8211156139805761397f613caa565b5b61398982613cfb565b9050602081019050919050565b600067ffffffffffffffff8211156139b1576139b0613caa565b5b6139ba82613cfb565b9050602081019050919050565b6000819050602082019050919050565b6000819050602082019050919050565b600081519050919050565b600081519050919050565b600081519050919050565b600081519050919050565b6000602082019050919050565b6000602082019050919050565b600082825260208201905092915050565b600082825260208201905092915050565b600082825260208201905092915050565b600082825260208201905092915050565b600082825260208201905092915050565b6000613a8d82613b54565b9150613a9883613b54565b9250827fffffffffffffffffffffffffffffffffffffffffffffffffffffffffffffffff03821115613acd57613acc613c4c565b5b828201905092915050565b6000613ae382613b34565b9050919050565b6000613af582613b34565b9050919050565b60008115159050919050565b60007fffffffff0000000000000000000000000000000000000000000000000000000082169050919050565b600073ffffffffffffffffffffffffffffffffffffffff82169050919050565b6000819050919050565b82818337600083830152505050565b60005b83811015613b8b578082015181840152602081019050613b70565b83811115613b9a576000848401525b50505050565b60006002820490506001821680613bb857607f821691505b60208210811415613bcc57613bcb613c7b565b5b50919050565b613bdb82613cfb565b810181811067ffffffffffffffff82111715613bfa57613bf9613caa565b5b80604052505050565b6000613c0e82613b54565b91507fffffffffffffffffffffffffffffffffffffffffffffffffffffffffffffffff821415613c4157613c40613c4c565b5b600182019050919050565b7f4e487b7100000000000000000000000000000000000000000000000000000000600052601160045260246000fd5b7f4e487b7100000000000000000000000000000000000000000000000000000000600052602260045260246000fd5b7f4e487b7100000000000000000000000000000000000000000000000000000000600052604160045260246000fd5b600060033d1115613cf85760046000803e613cf5600051613d0c565b90505b90565b6000601f19601f8301169050919050565b60008160e01c9050919050565b7f455243313135353a207472616e7366657220746f206e6f6e204552433131353560008201527f526563656976657220696d706c656d656e746572000000000000000000000000602082015250565b7f455243313135353a204552433131353552656365697665722072656a6563746560008201527f6420746f6b656e73000000000000000000000000000000000000000000000000602082015250565b7f455243313135353a2062616c616e636520717565727920666f7220746865207a60008201527f65726f2061646472657373000000000000000000000000000000000000000000602082015250565b7f5469636b6574734e46543a206d61782063726561746f72526f79616c7479207360008201527f7570706f72746564206973203525000000000000000000000000000000000000602082015250565b7f455243313135353a2063616c6c6572206973206e6f74206f776e6572206e6f7260008201527f20617070726f7665640000000000000000000000000000000000000000000000602082015250565b7f455243313135353a207472616e7366657220746f20746865207a65726f20616460008201527f6472657373000000000000000000000000000000000000000000000000000000602082015250565b7f455243313135353a207472616e736665722063616c6c6572206973206e6f742060008201527f6f776e6572206e6f7220617070726f7665640000000000000000000000000000602082015250565b7f5469636b6574734e46543a206d696e696d756d2061736b696e6720707269636560008201527f206e6f74206d6174636865642e00000000000000000000000000000000000000602082015250565b7f455243313135353a20696e73756666696369656e742062616c616e636520666f60008201527f72207472616e7366657200000000000000000000000000000000000000000000602082015250565b7f5469636b6574734e46543a20546f6f206d756368207469636b65747321000000600082015250565b7f455243313135353a2073657474696e6720617070726f76616c2073746174757360008201527f20666f722073656c660000000000000000000000000000000000000000000000602082015250565b7f455243313135353a206163636f756e747320616e6420696473206c656e67746860008201527f206d69736d617463680000000000000000000000000000000000000000000000602082015250565b7f455243313135353a2069647320616e6420616d6f756e7473206c656e6774682060008201527f6d69736d61746368000000000000000000000000000000000000000000000000602082015250565b7f455243313135353a206d696e7420746f20746865207a65726f2061646472657360008201527f7300000000000000000000000000000000000000000000000000000000000000602082015250565b7f5265656e7472616e637947756172643a207265656e7472616e742063616c6c00600082015250565b600060443d101561417e57614201565b6141866138d7565b60043d036004823e80513d602482011167ffffffffffffffff821117156141ae575050614201565b808201805167ffffffffffffffff8111156141cc5750505050614201565b80602083010160043d0385018111156141e9575050505050614201565b6141f882602001850186613bd2565b82955050505050505b90565b61420d81613ad8565b811461421857600080fd5b50565b61422481613afc565b811461422f57600080fd5b50565b61423b81613b08565b811461424657600080fd5b50565b61425281613b54565b811461425d57600080fd5b5056fea264697066735822122025cbad083078991f5ff2eb0d5906c5272df4cc5afb45267f626dee77d7337de764736f6c6343000804003368747470733a2f2f66616e737a6f69642e636f6d2f6170692f7b69647d2e6a736f6e",
  "devdoc": {
    "kind": "dev",
    "methods": {
      "balanceOf(address,uint256)": {
        "details": "See {IERC1155-balanceOf}. Requirements: - `account` cannot be the zero address."
      },
      "balanceOfBatch(address[],uint256[])": {
        "details": "See {IERC1155-balanceOfBatch}. Requirements: - `accounts` and `ids` must have the same length."
      },
      "isApprovedForAll(address,address)": {
        "details": "See {IERC1155-isApprovedForAll}."
      },
      "safeBatchTransferFrom(address,address,uint256[],uint256[],bytes)": {
        "details": "See {IERC1155-safeBatchTransferFrom}."
      },
      "safeTransferFrom(address,address,uint256,uint256,bytes)": {
        "details": "See {IERC1155-safeTransferFrom}."
      },
      "setApprovalForAll(address,bool)": {
        "details": "See {IERC1155-setApprovalForAll}."
      },
      "supportsInterface(bytes4)": {
        "details": "See {IERC165-supportsInterface}."
      }
    },
    "version": 1
  },
  "userdoc": {
    "kind": "user",
    "methods": {},
    "version": 1
  },
  "storageLayout": {
    "storage": [
      {
        "astId": 65,
        "contract": "src/TicketsNFT.sol:TicketsNFT",
        "label": "_balances",
        "offset": 0,
        "slot": "0",
        "type": "t_mapping(t_uint256,t_mapping(t_address,t_uint256))"
      },
      {
        "astId": 71,
        "contract": "src/TicketsNFT.sol:TicketsNFT",
        "label": "_operatorApprovals",
        "offset": 0,
        "slot": "1",
        "type": "t_mapping(t_address,t_mapping(t_address,t_bool))"
      },
      {
        "astId": 73,
        "contract": "src/TicketsNFT.sol:TicketsNFT",
        "label": "_uri",
        "offset": 0,
        "slot": "2",
        "type": "t_string_storage"
      },
      {
        "astId": 10,
        "contract": "src/TicketsNFT.sol:TicketsNFT",
        "label": "_status",
        "offset": 0,
        "slot": "3",
        "type": "t_uint256"
      },
      {
        "astId": 10391,
        "contract": "src/TicketsNFT.sol:TicketsNFT",
        "label": "_tokenIds",
        "offset": 0,
        "slot": "4",
        "type": "t_struct(Counter)1623_storage"
      },
      {
        "astId": 10393,
        "contract": "src/TicketsNFT.sol:TicketsNFT",
        "label": "_owner",
        "offset": 0,
        "slot": "5",
        "type": "t_address_payable"
      },
      {
        "astId": 10397,
        "contract": "src/TicketsNFT.sol:TicketsNFT",
        "label": "_uris",
        "offset": 0,
        "slot": "6",
        "type": "t_mapping(t_uint256,t_string_storage)"
      },
      {
        "astId": 10399,
        "contract": "src/TicketsNFT.sol:TicketsNFT",
        "label": "marketplaceAddress",
        "offset": 0,
        "slot": "7",
        "type": "t_address"
      }
    ],
    "types": {
      "t_address": {
        "encoding": "inplace",
        "label": "address",
        "numberOfBytes": "20"
      },
      "t_address_payable": {
        "encoding": "inplace",
        "label": "address payable",
        "numberOfBytes": "20"
      },
      "t_bool": {
        "encoding": "inplace",
        "label": "bool",
        "numberOfBytes": "1"
      },
      "t_mapping(t_address,t_bool)": {
        "encoding": "mapping",
        "key": "t_address",
        "label": "mapping(address => bool)",
        "numberOfBytes": "32",
        "value": "t_bool"
      },
      "t_mapping(t_address,t_mapping(t_address,t_bool))": {
        "encoding": "mapping",
        "key": "t_address",
        "label": "mapping(address => mapping(address => bool))",
        "numberOfBytes": "32",
        "value": "t_mapping(t_address,t_bool)"
      },
      "t_mapping(t_address,t_uint256)": {
        "encoding": "mapping",
        "key": "t_address",
        "label": "mapping(address => uint256)",
        "numberOfBytes": "32",
        "value": "t_uint256"
      },
      "t_mapping(t_uint256,t_mapping(t_address,t_uint256))": {
        "encoding": "mapping",
        "key": "t_uint256",
        "label": "mapping(uint256 => mapping(address => uint256))",
        "numberOfBytes": "32",
        "value": "t_mapping(t_address,t_uint256)"
      },
      "t_mapping(t_uint256,t_string_storage)": {
        "encoding": "mapping",
        "key": "t_uint256",
        "label": "mapping(uint256 => string)",
        "numberOfBytes": "32",
        "value": "t_string_storage"
      },
      "t_string_storage": {
        "encoding": "bytes",
        "label": "string",
        "numberOfBytes": "32"
      },
      "t_struct(Counter)1623_storage": {
        "encoding": "inplace",
        "label": "struct Counters.Counter",
        "members": [
          {
            "astId": 1622,
            "contract": "src/TicketsNFT.sol:TicketsNFT",
            "label": "_value",
            "offset": 0,
            "slot": "0",
            "type": "t_uint256"
          }
        ],
        "numberOfBytes": "32"
      },
      "t_uint256": {
        "encoding": "inplace",
        "label": "uint256",
        "numberOfBytes": "32"
      }
    }
  }
}