{
  "_format": "hh-sol-artifact-1",
  "contractName": "Ticket",
  "sourceName": "src/Ticket.sol",
  "abi": [
    {
      "anonymous": false,
      "inputs": [
        {
          "indexed": true,
          "internalType": "address",
          "name": "account",
          "type": "address"
        },
        {
          "indexed": true,
          "internalType": "address",
          "name": "operator",
          "type": "address"
        },
        {
          "indexed": false,
          "internalType": "bool",
          "name": "approved",
          "type": "bool"
        }
      ],
      "name": "ApprovalForAll",
      "type": "event"
    },
    {
      "anonymous": false,
      "inputs": [
        {
          "indexed": true,
          "internalType": "address",
          "name": "previousOwner",
          "type": "address"
        },
        {
          "indexed": true,
          "internalType": "address",
          "name": "newOwner",
          "type": "address"
        }
      ],
      "name": "OwnershipTransferred",
      "type": "event"
    },
    {
      "anonymous": false,
      "inputs": [
        {
          "indexed": false,
          "internalType": "address",
          "name": "account",
          "type": "address"
        }
      ],
      "name": "Paused",
      "type": "event"
    },
    {
      "anonymous": false,
      "inputs": [
        {
          "indexed": true,
          "internalType": "address",
          "name": "operator",
          "type": "address"
        },
        {
          "indexed": true,
          "internalType": "address",
          "name": "from",
          "type": "address"
        },
        {
          "indexed": true,
          "internalType": "address",
          "name": "to",
          "type": "address"
        },
        {
          "indexed": false,
          "internalType": "uint256[]",
          "name": "ids",
          "type": "uint256[]"
        },
        {
          "indexed": false,
          "internalType": "uint256[]",
          "name": "values",
          "type": "uint256[]"
        }
      ],
      "name": "TransferBatch",
      "type": "event"
    },
    {
      "anonymous": false,
      "inputs": [
        {
          "indexed": true,
          "internalType": "address",
          "name": "operator",
          "type": "address"
        },
        {
          "indexed": true,
          "internalType": "address",
          "name": "from",
          "type": "address"
        },
        {
          "indexed": true,
          "internalType": "address",
          "name": "to",
          "type": "address"
        },
        {
          "indexed": false,
          "internalType": "uint256",
          "name": "id",
          "type": "uint256"
        },
        {
          "indexed": false,
          "internalType": "uint256",
          "name": "value",
          "type": "uint256"
        }
      ],
      "name": "TransferSingle",
      "type": "event"
    },
    {
      "anonymous": false,
      "inputs": [
        {
          "indexed": false,
          "internalType": "string",
          "name": "value",
          "type": "string"
        },
        {
          "indexed": true,
          "internalType": "uint256",
          "name": "id",
          "type": "uint256"
        }
      ],
      "name": "URI",
      "type": "event"
    },
    {
      "anonymous": false,
      "inputs": [
        {
          "indexed": false,
          "internalType": "address",
          "name": "account",
          "type": "address"
        }
      ],
      "name": "Unpaused",
      "type": "event"
    },
    {
      "inputs": [
        {
          "internalType": "address",
          "name": "account",
          "type": "address"
        },
        {
          "internalType": "uint256",
          "name": "id",
          "type": "uint256"
        }
      ],
      "name": "balanceOf",
      "outputs": [
        {
          "internalType": "uint256",
          "name": "",
          "type": "uint256"
        }
      ],
      "stateMutability": "view",
      "type": "function"
    },
    {
      "inputs": [
        {
          "internalType": "address[]",
          "name": "accounts",
          "type": "address[]"
        },
        {
          "internalType": "uint256[]",
          "name": "ids",
          "type": "uint256[]"
        }
      ],
      "name": "balanceOfBatch",
      "outputs": [
        {
          "internalType": "uint256[]",
          "name": "",
          "type": "uint256[]"
        }
      ],
      "stateMutability": "view",
      "type": "function"
    },
    {
      "inputs": [],
      "name": "baseURI",
      "outputs": [
        {
          "internalType": "string",
          "name": "",
          "type": "string"
        }
      ],
      "stateMutability": "view",
      "type": "function"
    },
    {
      "inputs": [
        {
          "internalType": "address",
          "name": "from",
          "type": "address"
        },
        {
          "internalType": "address[]",
          "name": "to",
          "type": "address[]"
        },
        {
          "internalType": "uint256",
          "name": "id",
          "type": "uint256"
        },
        {
          "internalType": "uint256[]",
          "name": "amounts",
          "type": "uint256[]"
        }
      ],
      "name": "bulkTransfer",
      "outputs": [],
      "stateMutability": "nonpayable",
      "type": "function"
    },
    {
      "inputs": [
        {
          "internalType": "address",
          "name": "account",
          "type": "address"
        },
        {
          "internalType": "uint256",
          "name": "id",
          "type": "uint256"
        },
        {
          "internalType": "uint256",
          "name": "amount",
          "type": "uint256"
        }
      ],
      "name": "burn",
      "outputs": [],
      "stateMutability": "nonpayable",
      "type": "function"
    },
    {
      "inputs": [
        {
          "internalType": "address",
          "name": "account",
          "type": "address"
        },
        {
          "internalType": "uint256[]",
          "name": "ids",
          "type": "uint256[]"
        },
        {
          "internalType": "uint256[]",
          "name": "amounts",
          "type": "uint256[]"
        }
      ],
      "name": "burnBatch",
      "outputs": [],
      "stateMutability": "nonpayable",
      "type": "function"
    },
    {
      "inputs": [
        {
          "internalType": "uint256",
          "name": "id",
          "type": "uint256"
        }
      ],
      "name": "exists",
      "outputs": [
        {
          "internalType": "bool",
          "name": "",
          "type": "bool"
        }
      ],
      "stateMutability": "view",
      "type": "function"
    },
    {
      "inputs": [
        {
          "internalType": "address",
          "name": "_marketplaceAddress",
          "type": "address"
        }
      ],
      "name": "initialize",
      "outputs": [],
      "stateMutability": "nonpayable",
      "type": "function"
    },
    {
      "inputs": [
        {
          "internalType": "address",
          "name": "account",
          "type": "address"
        },
        {
          "internalType": "address",
          "name": "operator",
          "type": "address"
        }
      ],
      "name": "isApprovedForAll",
      "outputs": [
        {
          "internalType": "bool",
          "name": "",
          "type": "bool"
        }
      ],
      "stateMutability": "view",
      "type": "function"
    },
    {
      "inputs": [],
      "name": "marketplaceAddress",
      "outputs": [
        {
          "internalType": "address",
          "name": "",
          "type": "address"
        }
      ],
      "stateMutability": "view",
      "type": "function"
    },
    {
      "inputs": [
        {
          "internalType": "address",
          "name": "to",
          "type": "address"
        },
        {
          "internalType": "uint256[]",
          "name": "ids",
          "type": "uint256[]"
        },
        {
          "internalType": "uint256[]",
          "name": "amounts",
          "type": "uint256[]"
        },
        {
          "internalType": "string[]",
          "name": "_uris",
          "type": "string[]"
        },
        {
          "internalType": "bytes",
          "name": "data",
          "type": "bytes"
        }
      ],
      "name": "mintBatch",
      "outputs": [],
      "stateMutability": "nonpayable",
      "type": "function"
    },
    {
      "inputs": [],
      "name": "owner",
      "outputs": [
        {
          "internalType": "address",
          "name": "",
          "type": "address"
        }
      ],
      "stateMutability": "view",
      "type": "function"
    },
    {
      "inputs": [],
      "name": "pause",
      "outputs": [],
      "stateMutability": "nonpayable",
      "type": "function"
    },
    {
      "inputs": [],
      "name": "paused",
      "outputs": [
        {
          "internalType": "bool",
          "name": "",
          "type": "bool"
        }
      ],
      "stateMutability": "view",
      "type": "function"
    },
    {
      "inputs": [],
      "name": "renounceOwnership",
      "outputs": [],
      "stateMutability": "nonpayable",
      "type": "function"
    },
    {
      "inputs": [
        {
          "internalType": "address",
          "name": "from",
          "type": "address"
        },
        {
          "internalType": "address",
          "name": "to",
          "type": "address"
        },
        {
          "internalType": "uint256[]",
          "name": "ids",
          "type": "uint256[]"
        },
        {
          "internalType": "uint256[]",
          "name": "amounts",
          "type": "uint256[]"
        },
        {
          "internalType": "bytes",
          "name": "data",
          "type": "bytes"
        }
      ],
      "name": "safeBatchTransferFrom",
      "outputs": [],
      "stateMutability": "nonpayable",
      "type": "function"
    },
    {
      "inputs": [
        {
          "internalType": "address",
          "name": "from",
          "type": "address"
        },
        {
          "internalType": "address",
          "name": "to",
          "type": "address"
        },
        {
          "internalType": "uint256",
          "name": "id",
          "type": "uint256"
        },
        {
          "internalType": "uint256",
          "name": "amount",
          "type": "uint256"
        },
        {
          "internalType": "bytes",
          "name": "data",
          "type": "bytes"
        }
      ],
      "name": "safeTransferFrom",
      "outputs": [],
      "stateMutability": "nonpayable",
      "type": "function"
    },
    {
      "inputs": [
        {
          "internalType": "address",
          "name": "operator",
          "type": "address"
        },
        {
          "internalType": "bool",
          "name": "approved",
          "type": "bool"
        }
      ],
      "name": "setApprovalForAll",
      "outputs": [],
      "stateMutability": "nonpayable",
      "type": "function"
    },
    {
      "inputs": [
        {
          "internalType": "uint256",
          "name": "tokenId",
          "type": "uint256"
        },
        {
          "internalType": "string",
          "name": "tokenURI",
          "type": "string"
        }
      ],
      "name": "setUri",
      "outputs": [],
      "stateMutability": "nonpayable",
      "type": "function"
    },
    {
      "inputs": [
        {
          "internalType": "bytes4",
          "name": "interfaceId",
          "type": "bytes4"
        }
      ],
      "name": "supportsInterface",
      "outputs": [
        {
          "internalType": "bool",
          "name": "",
          "type": "bool"
        }
      ],
      "stateMutability": "view",
      "type": "function"
    },
    {
      "inputs": [
        {
          "internalType": "uint256",
          "name": "id",
          "type": "uint256"
        }
      ],
      "name": "totalSupply",
      "outputs": [
        {
          "internalType": "uint256",
          "name": "",
          "type": "uint256"
        }
      ],
      "stateMutability": "view",
      "type": "function"
    },
    {
      "inputs": [
        {
          "internalType": "address",
          "name": "newOwner",
          "type": "address"
        }
      ],
      "name": "transferOwnership",
      "outputs": [],
      "stateMutability": "nonpayable",
      "type": "function"
    },
    {
      "inputs": [],
      "name": "unpause",
      "outputs": [],
      "stateMutability": "nonpayable",
      "type": "function"
    },
    {
      "inputs": [
        {
          "internalType": "uint256",
          "name": "tokenId",
          "type": "uint256"
        }
      ],
      "name": "uri",
      "outputs": [
        {
          "internalType": "string",
          "name": "",
          "type": "string"
        }
      ],
      "stateMutability": "view",
      "type": "function"
    },
    {
      "inputs": [
        {
          "internalType": "uint256",
          "name": "",
          "type": "uint256"
        }
      ],
      "name": "uris",
      "outputs": [
        {
          "internalType": "string",
          "name": "",
          "type": "string"
        }
      ],
      "stateMutability": "view",
      "type": "function"
    }
  ],
  "bytecode": "0x608060405234801561001057600080fd5b50612a18806100206000396000f3fe608060405234801561001057600080fd5b50600436106101725760003560e01c8063782f08ae116100de578063bd85b03911610097578063e985e9c511610071578063e985e9c514610340578063f242432a1461037c578063f2fde38b1461038f578063f5298aca146103a257600080fd5b8063bd85b039146102f9578063c4d66de814610319578063daa17f491461032c57600080fd5b8063782f08ae146102805780638456cb59146102935780638da5cb5b1461029b578063a22cb465146102c0578063a3a5bc83146102d3578063b9571e84146102e657600080fd5b80634e1273f4116101305780634e1273f4146102105780634f558e79146102305780635c975abb146102525780636b20c4541461025d5780636c0360eb14610270578063715018a61461027857600080fd5b8062fdd58e1461017757806301ffc9a71461019d5780630e89341c146101c05780631253c546146101e05780632eb2c2d6146101f35780633f4ba83a14610208575b600080fd5b61018a610185366004611ca8565b6103b5565b6040519081526020015b60405180910390f35b6101b06101ab366004611ce8565b61044e565b6040519015158152602001610194565b6101d36101ce366004611d0c565b6104a0565b6040516101949190611d72565b6101d36101ee366004611d0c565b6104dc565b610206610201366004611ece565b610577565b005b61020661060e565b61022361021e366004611f77565b610642565b604051610194919061207c565b6101b061023e366004611d0c565b600090815260976020526040902054151590565b60fb5460ff166101b0565b61020661026b36600461208f565b61076b565b6101d36107e3565b6102066107f1565b61020661028e366004612102565b610825565b610206610893565b60c9546001600160a01b03165b6040516001600160a01b039091168152602001610194565b6102066102ce36600461213e565b6108c5565b6102066102e13660046121c5565b6108d4565b6102066102f436600461224e565b610977565b61018a610307366004611d0c565b60009081526097602052604090205490565b61020661032736600461237b565b610ac3565b61012f546102a8906001600160a01b031681565b6101b061034e366004612396565b6001600160a01b03918216600090815260666020908152604080832093909416825291909152205460ff1690565b61020661038a3660046123c9565b610c7a565b61020661039d36600461237b565b610d01565b6102066103b036600461242d565b610d9c565b60006001600160a01b0383166104265760405162461bcd60e51b815260206004820152602b60248201527f455243313135353a2062616c616e636520717565727920666f7220746865207a60448201526a65726f206164647265737360a81b60648201526084015b60405180910390fd5b5060009081526065602090815260408083206001600160a01b03949094168352929052205490565b60006001600160e01b03198216636cdb3d1360e11b148061047f57506001600160e01b031982166303a24d0760e21b145b8061049a57506301ffc9a760e01b6001600160e01b03198316145b92915050565b600081815261012d602090815260409182902091516060926104c69261012e9201612535565b6040516020818303038152906040529050919050565b61012d60205260009081526040902080546104f690612460565b80601f016020809104026020016040519081016040528092919081815260200182805461052290612460565b801561056f5780601f106105445761010080835404028352916020019161056f565b820191906000526020600020905b81548152906001019060200180831161055257829003601f168201915b505050505081565b6001600160a01b0385163314806105935750610593853361034e565b6105fa5760405162461bcd60e51b815260206004820152603260248201527f455243313135353a207472616e736665722063616c6c6572206973206e6f74206044820152711bdddb995c881b9bdc88185c1c1c9bdd995960721b606482015260840161041d565b6106078585858585610df5565b5050505050565b60c9546001600160a01b031633146106385760405162461bcd60e51b815260040161041d90612552565b610640610f9a565b565b606081518351146106a75760405162461bcd60e51b815260206004820152602960248201527f455243313135353a206163636f756e747320616e6420696473206c656e677468604482015268040dad2e6dac2e8c6d60bb1b606482015260840161041d565b600083516001600160401b038111156106c2576106c2611d85565b6040519080825280602002602001820160405280156106eb578160200160208202803683370190505b50905060005b84518110156107635761073685828151811061070f5761070f612587565b602002602001015185838151811061072957610729612587565b60200260200101516103b5565b82828151811061074857610748612587565b602090810291909101015261075c816125b3565b90506106f1565b509392505050565b61012f546001600160a01b031633146107965760405162461bcd60e51b815260040161041d906125ce565b60fb5460ff16156107b95760405162461bcd60e51b815260040161041d90612605565b6107c483838361102d565b61012f546107de9084906001600160a01b031660016111be565b505050565b61012e80546104f690612460565b60c9546001600160a01b0316331461081b5760405162461bcd60e51b815260040161041d90612552565b610640600061129f565b61012f546001600160a01b031633146108505760405162461bcd60e51b815260040161041d906125ce565b60fb5460ff16156108735760405162461bcd60e51b815260040161041d90612605565b600082815261012d6020908152604090912082516107de92840190611bf3565b60c9546001600160a01b031633146108bd5760405162461bcd60e51b815260040161041d90612552565b6106406112f1565b6108d03383836111be565b5050565b60fb5460ff16156108f75760405162461bcd60e51b815260040161041d90612605565b60005b8481101561096e5761095c8787878481811061091857610918612587565b905060200201602081019061092d919061237b565b8686868681811061094057610940612587565b9050602002013560405180602001604052806000815250610c7a565b80610966816125b3565b9150506108fa565b50505050505050565b61012f546001600160a01b031633146109a25760405162461bcd60e51b815260040161041d906125ce565b60fb5460ff16156109c55760405162461bcd60e51b815260040161041d90612605565b825184511480156109d7575081518451145b610a1c5760405162461bcd60e51b815260206004820152601660248201527520b93930bc903632b733ba341036b4b9b6b0ba31b41760511b604482015260640161041d565b610a2885858584611349565b61012f54610a429086906001600160a01b031660016111be565b60005b8451811015610abb57828181518110610a6057610a60612587565b602002602001015161012d6000878481518110610a7f57610a7f612587565b602002602001015181526020019081526020016000209080519060200190610aa8929190611bf3565b5080610ab3816125b3565b915050610a45565b505050505050565b600054610100900460ff16610ade5760005460ff1615610ae2565b303b155b610b455760405162461bcd60e51b815260206004820152602e60248201527f496e697469616c697a61626c653a20636f6e747261637420697320616c72656160448201526d191e481a5b9a5d1a585b1a5e995960921b606482015260840161041d565b600054610100900460ff16158015610b67576000805461ffff19166101011790555b61012f80546001600160a01b0319166001600160a01b0384161790556040805180820190915260158082527468747470733a2f2f697066732e696f2f697066732f60581b6020909201918252610bc09161012e91611bf3565b50610c5561012e8054610bd290612460565b80601f0160208091040260200160405190810160405280929190818152602001828054610bfe90612460565b8015610c4b5780601f10610c2057610100808354040283529160200191610c4b565b820191906000526020600020905b815481529060010190602001808311610c2e57829003601f168201915b50505050506114de565b610c5d61150e565b610c6561153d565b80156108d0576000805461ff00191690555050565b6001600160a01b038516331480610c965750610c96853361034e565b610cf45760405162461bcd60e51b815260206004820152602960248201527f455243313135353a2063616c6c6572206973206e6f74206f776e6572206e6f7260448201526808185c1c1c9bdd995960ba1b606482015260840161041d565b610607858585858561156c565b60c9546001600160a01b03163314610d2b5760405162461bcd60e51b815260040161041d90612552565b6001600160a01b038116610d905760405162461bcd60e51b815260206004820152602660248201527f4f776e61626c653a206e6577206f776e657220697320746865207a65726f206160448201526564647265737360d01b606482015260840161041d565b610d998161129f565b50565b61012f546001600160a01b03163314610dc75760405162461bcd60e51b815260040161041d906125ce565b60fb5460ff1615610dea5760405162461bcd60e51b815260040161041d90612605565b6107c4838383611693565b8151835114610e165760405162461bcd60e51b815260040161041d9061262f565b6001600160a01b038416610e3c5760405162461bcd60e51b815260040161041d90612677565b33610e4b818787878787611798565b60005b8451811015610f34576000858281518110610e6b57610e6b612587565b602002602001015190506000858381518110610e8957610e89612587565b60209081029190910181015160008481526065835260408082206001600160a01b038e168352909352919091205490915081811015610eda5760405162461bcd60e51b815260040161041d906126bc565b60008381526065602090815260408083206001600160a01b038e8116855292528083208585039055908b16825281208054849290610f19908490612706565b9250508190555050505080610f2d906125b3565b9050610e4e565b50846001600160a01b0316866001600160a01b0316826001600160a01b03167f4a39dc06d4c0dbc64b70af90fd698a233a518aa5d07e595d983b8c0526c8f7fb8787604051610f8492919061271e565b60405180910390a4610abb8187878787876117e3565b60fb5460ff16610fe35760405162461bcd60e51b815260206004820152601460248201527314185d5cd8589b194e881b9bdd081c185d5cd95960621b604482015260640161041d565b60fb805460ff191690557f5db9ee0a495bf2e6ff9c91a7834c1ba4fdd244a5e8aa4e537bd38aeae4b073aa335b6040516001600160a01b03909116815260200160405180910390a1565b6001600160a01b0383166110535760405162461bcd60e51b815260040161041d9061274c565b80518251146110745760405162461bcd60e51b815260040161041d9061262f565b600033905061109781856000868660405180602001604052806000815250611798565b60005b835181101561115f5760008482815181106110b7576110b7612587565b6020026020010151905060008483815181106110d5576110d5612587565b60209081029190910181015160008481526065835260408082206001600160a01b038c1683529093529190912054909150818110156111265760405162461bcd60e51b815260040161041d9061278f565b60009283526065602090815260408085206001600160a01b038b1686529091529092209103905580611157816125b3565b91505061109a565b5060006001600160a01b0316846001600160a01b0316826001600160a01b03167f4a39dc06d4c0dbc64b70af90fd698a233a518aa5d07e595d983b8c0526c8f7fb86866040516111b092919061271e565b60405180910390a450505050565b816001600160a01b0316836001600160a01b031614156112325760405162461bcd60e51b815260206004820152602960248201527f455243313135353a2073657474696e6720617070726f76616c20737461747573604482015268103337b91039b2b63360b91b606482015260840161041d565b6001600160a01b03838116600081815260666020908152604080832094871680845294825291829020805460ff191686151590811790915591519182527f17307eab39ab6107e8899845ad3d59bd9653f200f220920489ca2b5937696c31910160405180910390a3505050565b60c980546001600160a01b038381166001600160a01b0319831681179093556040519116919082907f8be0079c531659141344cd1fd0a4f28419497f9722a3daafe3b4186f6b6457e090600090a35050565b60fb5460ff16156113145760405162461bcd60e51b815260040161041d90612605565b60fb805460ff191660011790557f62e78cea01bee320cd4e420270b5ea74000d11b0c9f74754ebdbfc544b05a2586110103390565b6001600160a01b0384166113a95760405162461bcd60e51b815260206004820152602160248201527f455243313135353a206d696e7420746f20746865207a65726f206164647265736044820152607360f81b606482015260840161041d565b81518351146113ca5760405162461bcd60e51b815260040161041d9061262f565b336113da81600087878787611798565b60005b8451811015611476578381815181106113f8576113f8612587565b60200260200101516065600087848151811061141657611416612587565b602002602001015181526020019081526020016000206000886001600160a01b03166001600160a01b03168152602001908152602001600020600082825461145e9190612706565b9091555081905061146e816125b3565b9150506113dd565b50846001600160a01b031660006001600160a01b0316826001600160a01b03167f4a39dc06d4c0dbc64b70af90fd698a233a518aa5d07e595d983b8c0526c8f7fb87876040516114c792919061271e565b60405180910390a4610607816000878787876117e3565b600054610100900460ff166115055760405162461bcd60e51b815260040161041d906127d3565b610d998161193f565b600054610100900460ff166115355760405162461bcd60e51b815260040161041d906127d3565b61064061196f565b600054610100900460ff166115645760405162461bcd60e51b815260040161041d906127d3565b61064061199f565b6001600160a01b0384166115925760405162461bcd60e51b815260040161041d90612677565b336115b18187876115a2886119d2565b6115ab886119d2565b87611798565b60008481526065602090815260408083206001600160a01b038a168452909152902054838110156115f45760405162461bcd60e51b815260040161041d906126bc565b60008581526065602090815260408083206001600160a01b038b8116855292528083208785039055908816825281208054869290611633908490612706565b909155505060408051868152602081018690526001600160a01b03808916928a821692918616917fc3d58168c5ae7397731d063d5bbf3d657854427343f4c083240f7aacaa2d0f62910160405180910390a461096e828888888888611a1d565b6001600160a01b0383166116b95760405162461bcd60e51b815260040161041d9061274c565b336116e8818560006116ca876119d2565b6116d3876119d2565b60405180602001604052806000815250611798565b60008381526065602090815260408083206001600160a01b03881684529091529020548281101561172b5760405162461bcd60e51b815260040161041d9061278f565b60008481526065602090815260408083206001600160a01b03898116808652918452828520888703905582518981529384018890529092908616917fc3d58168c5ae7397731d063d5bbf3d657854427343f4c083240f7aacaa2d0f62910160405180910390a45050505050565b60fb5460ff16156117bb5760405162461bcd60e51b815260040161041d90612605565b6117c9868686868686611ad8565b61012f54610abb9085906001600160a01b031660016111be565b6001600160a01b0384163b15610abb5760405163bc197c8160e01b81526001600160a01b0385169063bc197c8190611827908990899088908890889060040161281e565b6020604051808303816000875af1925050508015611862575060408051601f3d908101601f1916820190925261185f9181019061287c565b60015b61190f5761186e612899565b806308c379a014156118a857506118836128b5565b8061188e57506118aa565b8060405162461bcd60e51b815260040161041d9190611d72565b505b60405162461bcd60e51b815260206004820152603460248201527f455243313135353a207472616e7366657220746f206e6f6e20455243313135356044820152732932b1b2b4bb32b91034b6b83632b6b2b73a32b960611b606482015260840161041d565b6001600160e01b0319811663bc197c8160e01b1461096e5760405162461bcd60e51b815260040161041d9061293e565b600054610100900460ff166119665760405162461bcd60e51b815260040161041d906127d3565b610d9981611be4565b600054610100900460ff166119965760405162461bcd60e51b815260040161041d906127d3565b6106403361129f565b600054610100900460ff166119c65760405162461bcd60e51b815260040161041d906127d3565b60fb805460ff19169055565b60408051600180825281830190925260609160009190602080830190803683370190505090508281600081518110611a0c57611a0c612587565b602090810291909101015292915050565b6001600160a01b0384163b15610abb5760405163f23a6e6160e01b81526001600160a01b0385169063f23a6e6190611a619089908990889088908890600401612986565b6020604051808303816000875af1925050508015611a9c575060408051601f3d908101601f19168201909252611a999181019061287c565b60015b611aa85761186e612899565b6001600160e01b0319811663f23a6e6160e01b1461096e5760405162461bcd60e51b815260040161041d9061293e565b6001600160a01b038516611b5f5760005b8351811015611b5d57828181518110611b0457611b04612587565b602002602001015160976000868481518110611b2257611b22612587565b602002602001015181526020019081526020016000206000828254611b479190612706565b90915550611b569050816125b3565b9050611ae9565b505b6001600160a01b038416610abb5760005b835181101561096e57828181518110611b8b57611b8b612587565b602002602001015160976000868481518110611ba957611ba9612587565b602002602001015181526020019081526020016000206000828254611bce91906129cb565b90915550611bdd9050816125b3565b9050611b70565b80516108d09060679060208401905b828054611bff90612460565b90600052602060002090601f016020900481019282611c215760008555611c67565b82601f10611c3a57805160ff1916838001178555611c67565b82800160010185558215611c67579182015b82811115611c67578251825591602001919060010190611c4c565b50611c73929150611c77565b5090565b5b80821115611c735760008155600101611c78565b80356001600160a01b0381168114611ca357600080fd5b919050565b60008060408385031215611cbb57600080fd5b611cc483611c8c565b946020939093013593505050565b6001600160e01b031981168114610d9957600080fd5b600060208284031215611cfa57600080fd5b8135611d0581611cd2565b9392505050565b600060208284031215611d1e57600080fd5b5035919050565b6000815180845260005b81811015611d4b57602081850181015186830182015201611d2f565b81811115611d5d576000602083870101525b50601f01601f19169290920160200192915050565b602081526000611d056020830184611d25565b634e487b7160e01b600052604160045260246000fd5b601f8201601f191681016001600160401b0381118282101715611dc057611dc0611d85565b6040525050565b60006001600160401b03821115611de057611de0611d85565b5060051b60200190565b600082601f830112611dfb57600080fd5b81356020611e0882611dc7565b604051611e158282611d9b565b83815260059390931b8501820192828101915086841115611e3557600080fd5b8286015b84811015611e505780358352918301918301611e39565b509695505050505050565b600082601f830112611e6c57600080fd5b81356001600160401b03811115611e8557611e85611d85565b604051611e9c601f8301601f191660200182611d9b565b818152846020838601011115611eb157600080fd5b816020850160208301376000918101602001919091529392505050565b600080600080600060a08688031215611ee657600080fd5b611eef86611c8c565b9450611efd60208701611c8c565b935060408601356001600160401b0380821115611f1957600080fd5b611f2589838a01611dea565b94506060880135915080821115611f3b57600080fd5b611f4789838a01611dea565b93506080880135915080821115611f5d57600080fd5b50611f6a88828901611e5b565b9150509295509295909350565b60008060408385031215611f8a57600080fd5b82356001600160401b0380821115611fa157600080fd5b818501915085601f830112611fb557600080fd5b81356020611fc282611dc7565b604051611fcf8282611d9b565b83815260059390931b8501820192828101915089841115611fef57600080fd5b948201945b838610156120145761200586611c8c565b82529482019490820190611ff4565b9650508601359250508082111561202a57600080fd5b5061203785828601611dea565b9150509250929050565b600081518084526020808501945080840160005b8381101561207157815187529582019590820190600101612055565b509495945050505050565b602081526000611d056020830184612041565b6000806000606084860312156120a457600080fd5b6120ad84611c8c565b925060208401356001600160401b03808211156120c957600080fd5b6120d587838801611dea565b935060408601359150808211156120eb57600080fd5b506120f886828701611dea565b9150509250925092565b6000806040838503121561211557600080fd5b8235915060208301356001600160401b0381111561213257600080fd5b61203785828601611e5b565b6000806040838503121561215157600080fd5b61215a83611c8c565b91506020830135801515811461216f57600080fd5b809150509250929050565b60008083601f84011261218c57600080fd5b5081356001600160401b038111156121a357600080fd5b6020830191508360208260051b85010111156121be57600080fd5b9250929050565b600080600080600080608087890312156121de57600080fd5b6121e787611c8c565b955060208701356001600160401b038082111561220357600080fd5b61220f8a838b0161217a565b909750955060408901359450606089013591508082111561222f57600080fd5b5061223c89828a0161217a565b979a9699509497509295939492505050565b600080600080600060a0868803121561226657600080fd5b61226f86611c8c565b94506020808701356001600160401b038082111561228c57600080fd5b6122988a838b01611dea565b965060408901359150808211156122ae57600080fd5b6122ba8a838b01611dea565b955060608901359150808211156122d057600080fd5b818901915089601f8301126122e457600080fd5b81356122ef81611dc7565b6040516122fc8282611d9b565b82815260059290921b840185019185810191508c83111561231c57600080fd5b8585015b83811015612354578035858111156123385760008081fd5b6123468f89838a0101611e5b565b845250918601918601612320565b5096505050608089013592508083111561236d57600080fd5b5050611f6a88828901611e5b565b60006020828403121561238d57600080fd5b611d0582611c8c565b600080604083850312156123a957600080fd5b6123b283611c8c565b91506123c060208401611c8c565b90509250929050565b600080600080600060a086880312156123e157600080fd5b6123ea86611c8c565b94506123f860208701611c8c565b9350604086013592506060860135915060808601356001600160401b0381111561242157600080fd5b611f6a88828901611e5b565b60008060006060848603121561244257600080fd5b61244b84611c8c565b95602085013595506040909401359392505050565b600181811c9082168061247457607f821691505b6020821081141561249557634e487b7160e01b600052602260045260246000fd5b50919050565b8054600090600181811c90808316806124b557607f831692505b60208084108214156124d757634e487b7160e01b600052602260045260246000fd5b8180156124eb57600181146124fc57612529565b60ff19861689528489019650612529565b60008881526020902060005b868110156125215781548b820152908501908301612508565b505084890196505b50505050505092915050565b600061254a612544838661249b565b8461249b565b949350505050565b6020808252818101527f4f776e61626c653a2063616c6c6572206973206e6f7420746865206f776e6572604082015260600190565b634e487b7160e01b600052603260045260246000fd5b634e487b7160e01b600052601160045260246000fd5b60006000198214156125c7576125c761259d565b5060010190565b6020808252601c908201527f4f6e6c79204d61726b6574706c61636520697320616c6c6f7765642100000000604082015260600190565b60208082526010908201526f14185d5cd8589b194e881c185d5cd95960821b604082015260600190565b60208082526028908201527f455243313135353a2069647320616e6420616d6f756e7473206c656e677468206040820152670dad2e6dac2e8c6d60c31b606082015260800190565b60208082526025908201527f455243313135353a207472616e7366657220746f20746865207a65726f206164604082015264647265737360d81b606082015260800190565b6020808252602a908201527f455243313135353a20696e73756666696369656e742062616c616e636520666f60408201526939103a3930b739b332b960b11b606082015260800190565b600082198211156127195761271961259d565b500190565b6040815260006127316040830185612041565b82810360208401526127438185612041565b95945050505050565b60208082526023908201527f455243313135353a206275726e2066726f6d20746865207a65726f206164647260408201526265737360e81b606082015260800190565b60208082526024908201527f455243313135353a206275726e20616d6f756e7420657863656564732062616c604082015263616e636560e01b606082015260800190565b6020808252602b908201527f496e697469616c697a61626c653a20636f6e7472616374206973206e6f74206960408201526a6e697469616c697a696e6760a81b606082015260800190565b6001600160a01b0386811682528516602082015260a06040820181905260009061284a90830186612041565b828103606084015261285c8186612041565b905082810360808401526128708185611d25565b98975050505050505050565b60006020828403121561288e57600080fd5b8151611d0581611cd2565b600060033d11156128b25760046000803e5060005160e01c5b90565b600060443d10156128c35790565b6040516003193d81016004833e81513d6001600160401b0381602484011181841117156128f257505050505090565b828501915081518181111561290a5750505050505090565b843d87010160208285010111156129245750505050505090565b61293360208286010187611d9b565b509095945050505050565b60208082526028908201527f455243313135353a204552433131353552656365697665722072656a656374656040820152676420746f6b656e7360c01b606082015260800190565b6001600160a01b03868116825285166020820152604081018490526060810183905260a0608082018190526000906129c090830184611d25565b979650505050505050565b6000828210156129dd576129dd61259d565b50039056fea2646970667358221220538a495a63618bdfb0f8723a5ea0c6475b1d9e83260b54b155dc71d752e57c2764736f6c634300080c0033",
  "linkReferences": {},
  "deployedLinkReferences": {}
}