{
  "_format": "hh-sol-artifact-1",
  "contractName": "TicketsNFT",
  "sourceName": "src/TicketsNFT.sol",
  "abi": [
    {
      "anonymous": false,
      "inputs": [
        {
          "indexed": true,
          "internalType": "address",
          "name": "account",
          "type": "address"
        },
        {
          "indexed": true,
          "internalType": "address",
          "name": "operator",
          "type": "address"
        },
        {
          "indexed": false,
          "internalType": "bool",
          "name": "approved",
          "type": "bool"
        }
      ],
      "name": "ApprovalForAll",
      "type": "event"
    },
    {
      "anonymous": false,
      "inputs": [
        {
          "indexed": true,
          "internalType": "address",
          "name": "previousOwner",
          "type": "address"
        },
        {
          "indexed": true,
          "internalType": "address",
          "name": "newOwner",
          "type": "address"
        }
      ],
      "name": "OwnershipTransferred",
      "type": "event"
    },
    {
      "anonymous": false,
      "inputs": [
        {
          "indexed": false,
          "internalType": "address",
          "name": "account",
          "type": "address"
        }
      ],
      "name": "Paused",
      "type": "event"
    },
    {
      "anonymous": false,
      "inputs": [
        {
          "indexed": true,
          "internalType": "address",
          "name": "operator",
          "type": "address"
        },
        {
          "indexed": true,
          "internalType": "address",
          "name": "from",
          "type": "address"
        },
        {
          "indexed": true,
          "internalType": "address",
          "name": "to",
          "type": "address"
        },
        {
          "indexed": false,
          "internalType": "uint256[]",
          "name": "ids",
          "type": "uint256[]"
        },
        {
          "indexed": false,
          "internalType": "uint256[]",
          "name": "values",
          "type": "uint256[]"
        }
      ],
      "name": "TransferBatch",
      "type": "event"
    },
    {
      "anonymous": false,
      "inputs": [
        {
          "indexed": true,
          "internalType": "address",
          "name": "operator",
          "type": "address"
        },
        {
          "indexed": true,
          "internalType": "address",
          "name": "from",
          "type": "address"
        },
        {
          "indexed": true,
          "internalType": "address",
          "name": "to",
          "type": "address"
        },
        {
          "indexed": false,
          "internalType": "uint256",
          "name": "id",
          "type": "uint256"
        },
        {
          "indexed": false,
          "internalType": "uint256",
          "name": "value",
          "type": "uint256"
        }
      ],
      "name": "TransferSingle",
      "type": "event"
    },
    {
      "anonymous": false,
      "inputs": [
        {
          "indexed": false,
          "internalType": "string",
          "name": "value",
          "type": "string"
        },
        {
          "indexed": true,
          "internalType": "uint256",
          "name": "id",
          "type": "uint256"
        }
      ],
      "name": "URI",
      "type": "event"
    },
    {
      "anonymous": false,
      "inputs": [
        {
          "indexed": false,
          "internalType": "address",
          "name": "account",
          "type": "address"
        }
      ],
      "name": "Unpaused",
      "type": "event"
    },
    {
      "anonymous": false,
      "inputs": [
        {
          "indexed": false,
          "internalType": "uint256",
          "name": "eventId",
          "type": "uint256"
        },
        {
          "indexed": false,
          "internalType": "uint256",
          "name": "ticketTypesCount",
          "type": "uint256"
        },
        {
          "indexed": false,
          "internalType": "uint256[]",
          "name": "newTokenIds",
          "type": "uint256[]"
        },
        {
          "indexed": false,
          "internalType": "uint256[]",
          "name": "amounts",
          "type": "uint256[]"
        },
        {
          "indexed": false,
          "internalType": "uint256[]",
          "name": "askingPrices",
          "type": "uint256[]"
        },
        {
          "indexed": false,
          "internalType": "uint256[]",
          "name": "creatorRoyalties",
          "type": "uint256[]"
        },
        {
          "indexed": false,
          "internalType": "string[]",
          "name": "uris",
          "type": "string[]"
        },
        {
          "indexed": false,
          "internalType": "address",
          "name": "publisher",
          "type": "address"
        }
      ],
      "name": "ticketsPublished",
      "type": "event"
    },
    {
      "inputs": [],
      "name": "MINIMUM_ASK",
      "outputs": [
        {
          "internalType": "uint256",
          "name": "",
          "type": "uint256"
        }
      ],
      "stateMutability": "view",
      "type": "function"
    },
    {
      "inputs": [
        {
          "internalType": "address",
          "name": "account",
          "type": "address"
        },
        {
          "internalType": "uint256",
          "name": "id",
          "type": "uint256"
        }
      ],
      "name": "balanceOf",
      "outputs": [
        {
          "internalType": "uint256",
          "name": "",
          "type": "uint256"
        }
      ],
      "stateMutability": "view",
      "type": "function"
    },
    {
      "inputs": [
        {
          "internalType": "address[]",
          "name": "accounts",
          "type": "address[]"
        },
        {
          "internalType": "uint256[]",
          "name": "ids",
          "type": "uint256[]"
        }
      ],
      "name": "balanceOfBatch",
      "outputs": [
        {
          "internalType": "uint256[]",
          "name": "",
          "type": "uint256[]"
        }
      ],
      "stateMutability": "view",
      "type": "function"
    },
    {
      "inputs": [
        {
          "internalType": "string",
          "name": "metadataUri",
          "type": "string"
        }
      ],
      "name": "createEvent",
      "outputs": [
        {
          "internalType": "uint256",
          "name": "",
          "type": "uint256"
        }
      ],
      "stateMutability": "nonpayable",
      "type": "function"
    },
    {
      "inputs": [
        {
          "internalType": "string",
          "name": "eventMetadataUri",
          "type": "string"
        },
        {
          "internalType": "uint256",
          "name": "ticketTypesCount",
          "type": "uint256"
        },
        {
          "internalType": "uint256[]",
          "name": "amounts",
          "type": "uint256[]"
        },
        {
          "internalType": "uint256[]",
          "name": "askingPrices",
          "type": "uint256[]"
        },
        {
          "internalType": "uint256[]",
          "name": "creatorRoyalties",
          "type": "uint256[]"
        },
        {
          "internalType": "string[]",
          "name": "uris",
          "type": "string[]"
        }
      ],
      "name": "createEventAndPublishTickets",
      "outputs": [],
      "stateMutability": "nonpayable",
      "type": "function"
    },
    {
      "inputs": [
        {
          "internalType": "address",
          "name": "_marketplaceAddress",
          "type": "address"
        }
      ],
      "name": "initialize",
      "outputs": [],
      "stateMutability": "nonpayable",
      "type": "function"
    },
    {
      "inputs": [
        {
          "internalType": "address",
          "name": "account",
          "type": "address"
        },
        {
          "internalType": "address",
          "name": "operator",
          "type": "address"
        }
      ],
      "name": "isApprovedForAll",
      "outputs": [
        {
          "internalType": "bool",
          "name": "",
          "type": "bool"
        }
      ],
      "stateMutability": "view",
      "type": "function"
    },
    {
      "inputs": [],
      "name": "marketplaceAddress",
      "outputs": [
        {
          "internalType": "address",
          "name": "",
          "type": "address"
        }
      ],
      "stateMutability": "view",
      "type": "function"
    },
    {
      "inputs": [],
      "name": "owner",
      "outputs": [
        {
          "internalType": "address",
          "name": "",
          "type": "address"
        }
      ],
      "stateMutability": "view",
      "type": "function"
    },
    {
      "inputs": [],
      "name": "pause",
      "outputs": [],
      "stateMutability": "nonpayable",
      "type": "function"
    },
    {
      "inputs": [],
      "name": "paused",
      "outputs": [
        {
          "internalType": "bool",
          "name": "",
          "type": "bool"
        }
      ],
      "stateMutability": "view",
      "type": "function"
    },
    {
      "inputs": [
        {
          "internalType": "uint256",
          "name": "eventId",
          "type": "uint256"
        },
        {
          "internalType": "uint256",
          "name": "ticketTypesCount",
          "type": "uint256"
        },
        {
          "internalType": "uint256[]",
          "name": "amounts",
          "type": "uint256[]"
        },
        {
          "internalType": "uint256[]",
          "name": "askingPrices",
          "type": "uint256[]"
        },
        {
          "internalType": "uint256[]",
          "name": "creatorRoyalties",
          "type": "uint256[]"
        },
        {
          "internalType": "string[]",
          "name": "uris",
          "type": "string[]"
        }
      ],
      "name": "publishEventTickets",
      "outputs": [],
      "stateMutability": "nonpayable",
      "type": "function"
    },
    {
      "inputs": [
        {
          "internalType": "uint256",
          "name": "tokenId",
          "type": "uint256"
        }
      ],
      "name": "removeAsk",
      "outputs": [],
      "stateMutability": "nonpayable",
      "type": "function"
    },
    {
      "inputs": [],
      "name": "renounceOwnership",
      "outputs": [],
      "stateMutability": "nonpayable",
      "type": "function"
    },
    {
      "inputs": [
        {
          "internalType": "address",
          "name": "from",
          "type": "address"
        },
        {
          "internalType": "address",
          "name": "to",
          "type": "address"
        },
        {
          "internalType": "uint256[]",
          "name": "ids",
          "type": "uint256[]"
        },
        {
          "internalType": "uint256[]",
          "name": "amounts",
          "type": "uint256[]"
        },
        {
          "internalType": "bytes",
          "name": "data",
          "type": "bytes"
        }
      ],
      "name": "safeBatchTransferFrom",
      "outputs": [],
      "stateMutability": "nonpayable",
      "type": "function"
    },
    {
      "inputs": [
        {
          "internalType": "address",
          "name": "from",
          "type": "address"
        },
        {
          "internalType": "address",
          "name": "to",
          "type": "address"
        },
        {
          "internalType": "uint256",
          "name": "id",
          "type": "uint256"
        },
        {
          "internalType": "uint256",
          "name": "amount",
          "type": "uint256"
        },
        {
          "internalType": "bytes",
          "name": "data",
          "type": "bytes"
        }
      ],
      "name": "safeTransferFrom",
      "outputs": [],
      "stateMutability": "nonpayable",
      "type": "function"
    },
    {
      "inputs": [
        {
          "internalType": "address",
          "name": "operator",
          "type": "address"
        },
        {
          "internalType": "bool",
          "name": "approved",
          "type": "bool"
        }
      ],
      "name": "setApprovalForAll",
      "outputs": [],
      "stateMutability": "nonpayable",
      "type": "function"
    },
    {
      "inputs": [
        {
          "internalType": "uint256",
          "name": "tokenId",
          "type": "uint256"
        },
        {
          "internalType": "uint256",
          "name": "askingPrice",
          "type": "uint256"
        }
      ],
      "name": "setAsk",
      "outputs": [],
      "stateMutability": "nonpayable",
      "type": "function"
    },
    {
      "inputs": [
        {
          "internalType": "string",
          "name": "newuri",
          "type": "string"
        }
      ],
      "name": "setURI",
      "outputs": [],
      "stateMutability": "nonpayable",
      "type": "function"
    },
    {
      "inputs": [
        {
          "internalType": "bytes4",
          "name": "interfaceId",
          "type": "bytes4"
        }
      ],
      "name": "supportsInterface",
      "outputs": [
        {
          "internalType": "bool",
          "name": "",
          "type": "bool"
        }
      ],
      "stateMutability": "view",
      "type": "function"
    },
    {
      "inputs": [
        {
          "internalType": "address",
          "name": "newOwner",
          "type": "address"
        }
      ],
      "name": "transferOwnership",
      "outputs": [],
      "stateMutability": "nonpayable",
      "type": "function"
    },
    {
      "inputs": [],
      "name": "unpause",
      "outputs": [],
      "stateMutability": "nonpayable",
      "type": "function"
    },
    {
      "inputs": [
        {
          "internalType": "uint256",
          "name": "tokenId",
          "type": "uint256"
        }
      ],
      "name": "uri",
      "outputs": [
        {
          "internalType": "string",
          "name": "",
          "type": "string"
        }
      ],
      "stateMutability": "view",
      "type": "function"
    }
  ],
  "bytecode": "0x608060405234801561001057600080fd5b50614de4806100206000396000f3fe608060405234801561001057600080fd5b506004361061014c5760003560e01c8063715018a6116100c3578063daa17f491161007c578063daa17f4914610361578063dbdebcba1461037f578063e49f87681461039b578063e985e9c5146103b7578063f242432a146103e7578063f2fde38b146104035761014c565b8063715018a6146102c75780638456cb59146102d15780638da5cb5b146102db5780639bc2bc71146102f9578063a22cb46514610329578063c4d66de8146103455761014c565b80632eb2c2d6116101155780632eb2c2d614610219578063384c57a9146102355780633f4ba83a146102515780634e1273f41461025b5780635c975abb1461028b5780635d080ba6146102a95761014c565b8062fdd58e1461015157806301ffc9a71461018157806302fe5305146101b15780630e89341c146101cd57806328220f35146101fd575b600080fd5b61016b6004803603810190610166919061340a565b61041f565b6040516101789190614105565b60405180910390f35b61019b600480360381019061019691906134b2565b6104e9565b6040516101a89190613e48565b60405180910390f35b6101cb60048036038101906101c69190613504565b6105cb565b005b6101e760048036038101906101e29190613654565b610653565b6040516101f49190613e63565b60405180910390f35b61021760048036038101906102129190613654565b6106f9565b005b610233600480360381019061022e9190613280565b6107d2565b005b61024f600480360381019061024a9190613545565b610873565b005b610259610b48565b005b61027560048036038101906102709190613446565b610bce565b6040516102829190613def565b60405180910390f35b610293610d7f565b6040516102a09190613e48565b60405180910390f35b6102b1610d96565b6040516102be9190614105565b60405180910390f35b6102cf610d9d565b005b6102d9610e25565b005b6102e3610eab565b6040516102f09190613ce2565b60405180910390f35b610313600480360381019061030e9190613504565b610ed5565b6040516103209190614105565b60405180910390f35b610343600480360381019061033e91906133ce565b610fd6565b005b61035f600480360381019061035a919061321b565b610fec565b005b61036961115b565b6040516103769190613ce2565b60405180910390f35b610399600480360381019061039491906136e2565b611182565b005b6103b560048036038101906103b091906136a6565b6113a2565b005b6103d160048036038101906103cc9190613244565b6114ae565b6040516103de9190613e48565b60405180910390f35b61040160048036038101906103fc919061333f565b611542565b005b61041d6004803603810190610418919061321b565b6115e3565b005b60008073ffffffffffffffffffffffffffffffffffffffff168373ffffffffffffffffffffffffffffffffffffffff161415610490576040517f08c379a000000000000000000000000000000000000000000000000000000000815260040161048790613f05565b60405180910390fd5b6065600083815260200190815260200160002060008473ffffffffffffffffffffffffffffffffffffffff1673ffffffffffffffffffffffffffffffffffffffff16815260200190815260200160002054905092915050565b60007fd9b67a26000000000000000000000000000000000000000000000000000000007bffffffffffffffffffffffffffffffffffffffffffffffffffffffff1916827bffffffffffffffffffffffffffffffffffffffffffffffffffffffff191614806105b457507f0e89341c000000000000000000000000000000000000000000000000000000007bffffffffffffffffffffffffffffffffffffffffffffffffffffffff1916827bffffffffffffffffffffffffffffffffffffffffffffffffffffffff1916145b806105c457506105c3826116db565b5b9050919050565b6105d3611745565b73ffffffffffffffffffffffffffffffffffffffff166105f1610eab565b73ffffffffffffffffffffffffffffffffffffffff1614610647576040517f08c379a000000000000000000000000000000000000000000000000000000000815260040161063e90614045565b60405180910390fd5b6106508161174d565b50565b606061012e6000838152602001908152602001600020805461067490614585565b80601f01602080910402602001604051908101604052809291908181526020018280546106a090614585565b80156106ed5780601f106106c2576101008083540402835291602001916106ed565b820191906000526020600020905b8154815290600101906020018083116106d057829003601f168201915b50505050509050919050565b610701610d7f565b15610741576040517f08c379a000000000000000000000000000000000000000000000000000000000815260040161073890613f85565b60405180910390fd5b61012f60009054906101000a900473ffffffffffffffffffffffffffffffffffffffff1673ffffffffffffffffffffffffffffffffffffffff166328220f35826040518263ffffffff1660e01b815260040161079d9190614105565b600060405180830381600087803b1580156107b757600080fd5b505af11580156107cb573d6000803e3d6000fd5b5050505050565b6107da611745565b73ffffffffffffffffffffffffffffffffffffffff168573ffffffffffffffffffffffffffffffffffffffff161480610820575061081f8561081a611745565b6114ae565b5b61085f576040517f08c379a000000000000000000000000000000000000000000000000000000000815260040161085690613fc5565b60405180910390fd5b61086c8585858585611767565b5050505050565b61087b610d7f565b156108bb576040517f08c379a00000000000000000000000000000000000000000000000000000000081526004016108b290613f85565b60405180910390fd5b60648811156108ff576040517f08c379a00000000000000000000000000000000000000000000000000000000081526004016108f690613ee5565b60405180910390fd5b60005b88811015610a26576101f4848483818110610946577f4e487b7100000000000000000000000000000000000000000000000000000000600052603260045260246000fd5b90506020020135111561098e576040517f08c379a000000000000000000000000000000000000000000000000000000000815260040161098590613f65565b60405180910390fd5b610130548686838181106109cb577f4e487b7100000000000000000000000000000000000000000000000000000000600052603260045260246000fd5b905060200201351015610a13576040517f08c379a0000000000000000000000000000000000000000000000000000000008152600401610a0a90614005565b60405180910390fd5b8080610a1e906145e8565b915050610902565b50600061012f60009054906101000a900473ffffffffffffffffffffffffffffffffffffffff1673ffffffffffffffffffffffffffffffffffffffff1663a8844f56338c6040518363ffffffff1660e01b8152600401610a87929190613dbf565b602060405180830381600087803b158015610aa157600080fd5b505af1158015610ab5573d6000803e3d6000fd5b505050506040513d601f19601f82011682018060405250810190610ad9919061367d565b90506000610aee828b8b8b8b8b8b8b8b611aca565b90507f09bf61b1b04a4dde211b95216e3e95ac945c7dc361a0b44b7a9accb73514ab9c828b838c8c8c8c8c8c8c33604051610b339b9a999897969594939291906141fa565b60405180910390a15050505050505050505050565b610b50611745565b73ffffffffffffffffffffffffffffffffffffffff16610b6e610eab565b73ffffffffffffffffffffffffffffffffffffffff1614610bc4576040517f08c379a0000000000000000000000000000000000000000000000000000000008152600401610bbb90614045565b60405180910390fd5b610bcc611d63565b565b60608151835114610c14576040517f08c379a0000000000000000000000000000000000000000000000000000000008152600401610c0b906140a5565b60405180910390fd5b6000835167ffffffffffffffff811115610c57577f4e487b7100000000000000000000000000000000000000000000000000000000600052604160045260246000fd5b604051908082528060200260200182016040528015610c855781602001602082028036833780820191505090505b50905060005b8451811015610d7457610d1e858281518110610cd0577f4e487b7100000000000000000000000000000000000000000000000000000000600052603260045260246000fd5b6020026020010151858381518110610d11577f4e487b7100000000000000000000000000000000000000000000000000000000600052603260045260246000fd5b602002602001015161041f565b828281518110610d57577f4e487b7100000000000000000000000000000000000000000000000000000000600052603260045260246000fd5b60200260200101818152505080610d6d906145e8565b9050610c8b565b508091505092915050565b600060c960009054906101000a900460ff16905090565b6101305481565b610da5611745565b73ffffffffffffffffffffffffffffffffffffffff16610dc3610eab565b73ffffffffffffffffffffffffffffffffffffffff1614610e19576040517f08c379a0000000000000000000000000000000000000000000000000000000008152600401610e1090614045565b60405180910390fd5b610e236000611e05565b565b610e2d611745565b73ffffffffffffffffffffffffffffffffffffffff16610e4b610eab565b73ffffffffffffffffffffffffffffffffffffffff1614610ea1576040517f08c379a0000000000000000000000000000000000000000000000000000000008152600401610e9890614045565b60405180910390fd5b610ea9611ecb565b565b6000609760009054906101000a900473ffffffffffffffffffffffffffffffffffffffff16905090565b6000610edf610d7f565b15610f1f576040517f08c379a0000000000000000000000000000000000000000000000000000000008152600401610f1690613f85565b60405180910390fd5b61012f60009054906101000a900473ffffffffffffffffffffffffffffffffffffffff1673ffffffffffffffffffffffffffffffffffffffff1663a8844f5633846040518363ffffffff1660e01b8152600401610f7d929190613dbf565b602060405180830381600087803b158015610f9757600080fd5b505af1158015610fab573d6000803e3d6000fd5b505050506040513d601f19601f82011682018060405250810190610fcf919061367d565b9050919050565b610fe8610fe1611745565b8383611f6e565b5050565b600060019054906101000a900460ff166110145760008054906101000a900460ff161561101d565b61101c6120db565b5b61105c576040517f08c379a000000000000000000000000000000000000000000000000000000000815260040161105390613fe5565b60405180910390fd5b60008060019054906101000a900460ff1615905080156110ac576001600060016101000a81548160ff02191690831515021790555060016000806101000a81548160ff0219169083151502179055505b8161012f60006101000a81548173ffffffffffffffffffffffffffffffffffffffff021916908373ffffffffffffffffffffffffffffffffffffffff1602179055506611c37937e080006101308190555061111e6040518060600160405280602a8152602001614d85602a91396120ec565b611126612147565b61112e6121a0565b6111366121f9565b80156111575760008060016101000a81548160ff0219169083151502179055505b5050565b61012f60009054906101000a900473ffffffffffffffffffffffffffffffffffffffff1681565b61118a610d7f565b156111ca576040517f08c379a00000000000000000000000000000000000000000000000000000000081526004016111c190613f85565b60405180910390fd5b606488111561120e576040517f08c379a000000000000000000000000000000000000000000000000000000000815260040161120590613ee5565b60405180910390fd5b60005b88811015611335576101f4848483818110611255577f4e487b7100000000000000000000000000000000000000000000000000000000600052603260045260246000fd5b90506020020135111561129d576040517f08c379a000000000000000000000000000000000000000000000000000000000815260040161129490613f65565b60405180910390fd5b610130548686838181106112da577f4e487b7100000000000000000000000000000000000000000000000000000000600052603260045260246000fd5b905060200201351015611322576040517f08c379a000000000000000000000000000000000000000000000000000000000815260040161131990614005565b60405180910390fd5b808061132d906145e8565b915050611211565b5060006113498a8a8a8a8a8a8a8a8a611aca565b90507f09bf61b1b04a4dde211b95216e3e95ac945c7dc361a0b44b7a9accb73514ab9c8a8a838b8b8b8b8b8b8b3360405161138e9b9a999897969594939291906141fa565b60405180910390a150505050505050505050565b6113aa610d7f565b156113ea576040517f08c379a00000000000000000000000000000000000000000000000000000000081526004016113e190613f85565b60405180910390fd5b61012f60009054906101000a900473ffffffffffffffffffffffffffffffffffffffff1673ffffffffffffffffffffffffffffffffffffffff16633b7878978383336040518463ffffffff1660e01b815260040161144a93929190614149565b600060405180830381600087803b15801561146457600080fd5b505af1158015611478573d6000803e3d6000fd5b505050506114aa61012f60009054906101000a900473ffffffffffffffffffffffffffffffffffffffff166001610fd6565b5050565b6000606660008473ffffffffffffffffffffffffffffffffffffffff1673ffffffffffffffffffffffffffffffffffffffff16815260200190815260200160002060008373ffffffffffffffffffffffffffffffffffffffff1673ffffffffffffffffffffffffffffffffffffffff16815260200190815260200160002060009054906101000a900460ff16905092915050565b61154a611745565b73ffffffffffffffffffffffffffffffffffffffff168573ffffffffffffffffffffffffffffffffffffffff161480611590575061158f8561158a611745565b6114ae565b5b6115cf576040517f08c379a00000000000000000000000000000000000000000000000000000000081526004016115c690613f45565b60405180910390fd5b6115dc8585858585612252565b5050505050565b6115eb611745565b73ffffffffffffffffffffffffffffffffffffffff16611609610eab565b73ffffffffffffffffffffffffffffffffffffffff161461165f576040517f08c379a000000000000000000000000000000000000000000000000000000000815260040161165690614045565b60405180910390fd5b600073ffffffffffffffffffffffffffffffffffffffff168173ffffffffffffffffffffffffffffffffffffffff1614156116cf576040517f08c379a00000000000000000000000000000000000000000000000000000000081526004016116c690613f25565b60405180910390fd5b6116d881611e05565b50565b60007f01ffc9a7000000000000000000000000000000000000000000000000000000007bffffffffffffffffffffffffffffffffffffffffffffffffffffffff1916827bffffffffffffffffffffffffffffffffffffffffffffffffffffffff1916149050919050565b600033905090565b8060679080519060200190611763929190612e04565b5050565b81518351146117ab576040517f08c379a00000000000000000000000000000000000000000000000000000000081526004016117a2906140c5565b60405180910390fd5b600073ffffffffffffffffffffffffffffffffffffffff168473ffffffffffffffffffffffffffffffffffffffff16141561181b576040517f08c379a000000000000000000000000000000000000000000000000000000000815260040161181290613fa5565b60405180910390fd5b6000611825611745565b90506118358187878787876124d7565b60005b8451811015611a3557600085828151811061187c577f4e487b7100000000000000000000000000000000000000000000000000000000600052603260045260246000fd5b6020026020010151905060008583815181106118c1577f4e487b7100000000000000000000000000000000000000000000000000000000600052603260045260246000fd5b6020026020010151905060006065600084815260200190815260200160002060008b73ffffffffffffffffffffffffffffffffffffffff1673ffffffffffffffffffffffffffffffffffffffff16815260200190815260200160002054905081811015611963576040517f08c379a000000000000000000000000000000000000000000000000000000000815260040161195a90614025565b60405180910390fd5b8181036065600085815260200190815260200160002060008c73ffffffffffffffffffffffffffffffffffffffff1673ffffffffffffffffffffffffffffffffffffffff16815260200190815260200160002081905550816065600085815260200190815260200160002060008b73ffffffffffffffffffffffffffffffffffffffff1673ffffffffffffffffffffffffffffffffffffffff1681526020019081526020016000206000828254611a1a9190614467565b9250508190555050505080611a2e906145e8565b9050611838565b508473ffffffffffffffffffffffffffffffffffffffff168673ffffffffffffffffffffffffffffffffffffffff168273ffffffffffffffffffffffffffffffffffffffff167f4a39dc06d4c0dbc64b70af90fd698a233a518aa5d07e595d983b8c0526c8f7fb8787604051611aac929190613e11565b60405180910390a4611ac2818787878787612535565b505050505050565b606060008967ffffffffffffffff811115611b0e577f4e487b7100000000000000000000000000000000000000000000000000000000600052604160045260246000fd5b604051908082528060200260200182016040528015611b3c5781602001602082028036833780820191505090505b50905060005b8a811015611c2b57611b5561012d61271c565b611b6061012d612732565b828281518110611b99577f4e487b7100000000000000000000000000000000000000000000000000000000600052603260045260246000fd5b602002602001018181525050838181518110611bde577f4e487b7100000000000000000000000000000000000000000000000000000000600052603260045260246000fd5b602002602001015161012e6000611bf661012d612732565b81526020019081526020016000209080519060200190611c17929190612e04565b508080611c23906145e8565b915050611b42565b50611c8833828b8b80806020026020016040519081016040528093929190818152602001838360200280828437600081840152601f19601f8201169050808301925050505050505060405180602001604052806000815250612740565b611cb661012f60009054906101000a900473ffffffffffffffffffffffffffffffffffffffff166001610fd6565b61012f60009054906101000a900473ffffffffffffffffffffffffffffffffffffffff1673ffffffffffffffffffffffffffffffffffffffff16631d563cdc8c8c848b8b8b8b336040518963ffffffff1660e01b8152600401611d20989796959493929190614180565b600060405180830381600087803b158015611d3a57600080fd5b505af1158015611d4e573d6000803e3d6000fd5b50505050809150509998505050505050505050565b611d6b610d7f565b611daa576040517f08c379a0000000000000000000000000000000000000000000000000000000008152600401611da190613ec5565b60405180910390fd5b600060c960006101000a81548160ff0219169083151502179055507f5db9ee0a495bf2e6ff9c91a7834c1ba4fdd244a5e8aa4e537bd38aeae4b073aa611dee611745565b604051611dfb9190613ce2565b60405180910390a1565b6000609760009054906101000a900473ffffffffffffffffffffffffffffffffffffffff16905081609760006101000a81548173ffffffffffffffffffffffffffffffffffffffff021916908373ffffffffffffffffffffffffffffffffffffffff1602179055508173ffffffffffffffffffffffffffffffffffffffff168173ffffffffffffffffffffffffffffffffffffffff167f8be0079c531659141344cd1fd0a4f28419497f9722a3daafe3b4186f6b6457e060405160405180910390a35050565b611ed3610d7f565b15611f13576040517f08c379a0000000000000000000000000000000000000000000000000000000008152600401611f0a90613f85565b60405180910390fd5b600160c960006101000a81548160ff0219169083151502179055507f62e78cea01bee320cd4e420270b5ea74000d11b0c9f74754ebdbfc544b05a258611f57611745565b604051611f649190613ce2565b60405180910390a1565b8173ffffffffffffffffffffffffffffffffffffffff168373ffffffffffffffffffffffffffffffffffffffff161415611fdd576040517f08c379a0000000000000000000000000000000000000000000000000000000008152600401611fd490614085565b60405180910390fd5b80606660008573ffffffffffffffffffffffffffffffffffffffff1673ffffffffffffffffffffffffffffffffffffffff16815260200190815260200160002060008473ffffffffffffffffffffffffffffffffffffffff1673ffffffffffffffffffffffffffffffffffffffff16815260200190815260200160002060006101000a81548160ff0219169083151502179055508173ffffffffffffffffffffffffffffffffffffffff168373ffffffffffffffffffffffffffffffffffffffff167f17307eab39ab6107e8899845ad3d59bd9653f200f220920489ca2b5937696c31836040516120ce9190613e48565b60405180910390a3505050565b60006120e6306129ab565b15905090565b600060019054906101000a900460ff1661213b576040517f08c379a000000000000000000000000000000000000000000000000000000000815260040161213290614065565b60405180910390fd5b612144816129ce565b50565b600060019054906101000a900460ff16612196576040517f08c379a000000000000000000000000000000000000000000000000000000000815260040161218d90614065565b60405180910390fd5b61219e612a29565b565b600060019054906101000a900460ff166121ef576040517f08c379a00000000000000000000000000000000000000000000000000000000081526004016121e690614065565b60405180910390fd5b6121f7612a8a565b565b600060019054906101000a900460ff16612248576040517f08c379a000000000000000000000000000000000000000000000000000000000815260040161223f90614065565b60405180910390fd5b612250612af6565b565b600073ffffffffffffffffffffffffffffffffffffffff168473ffffffffffffffffffffffffffffffffffffffff1614156122c2576040517f08c379a00000000000000000000000000000000000000000000000000000000081526004016122b990613fa5565b60405180910390fd5b60006122cc611745565b90506122ec8187876122dd88612b4f565b6122e688612b4f565b876124d7565b60006065600086815260200190815260200160002060008873ffffffffffffffffffffffffffffffffffffffff1673ffffffffffffffffffffffffffffffffffffffff16815260200190815260200160002054905083811015612384576040517f08c379a000000000000000000000000000000000000000000000000000000000815260040161237b90614025565b60405180910390fd5b8381036065600087815260200190815260200160002060008973ffffffffffffffffffffffffffffffffffffffff1673ffffffffffffffffffffffffffffffffffffffff16815260200190815260200160002081905550836065600087815260200190815260200160002060008873ffffffffffffffffffffffffffffffffffffffff1673ffffffffffffffffffffffffffffffffffffffff168152602001908152602001600020600082825461243b9190614467565b925050819055508573ffffffffffffffffffffffffffffffffffffffff168773ffffffffffffffffffffffffffffffffffffffff168373ffffffffffffffffffffffffffffffffffffffff167fc3d58168c5ae7397731d063d5bbf3d657854427343f4c083240f7aacaa2d0f6288886040516124b8929190614120565b60405180910390a46124ce828888888888612c15565b50505050505050565b6124df610d7f565b1561251f576040517f08c379a000000000000000000000000000000000000000000000000000000000815260040161251690613f85565b60405180910390fd5b61252d868686868686612dfc565b505050505050565b6125548473ffffffffffffffffffffffffffffffffffffffff166129ab565b15612714578373ffffffffffffffffffffffffffffffffffffffff1663bc197c8187878686866040518663ffffffff1660e01b815260040161259a959493929190613cfd565b602060405180830381600087803b1580156125b457600080fd5b505af19250505080156125e557506040513d601f19601f820116820180604052508101906125e291906134db565b60015b61268b576125f16146be565b806308c379a0141561264e5750612606614c92565b806126115750612650565b806040517f08c379a00000000000000000000000000000000000000000000000000000000081526004016126459190613e63565b60405180910390fd5b505b6040517f08c379a000000000000000000000000000000000000000000000000000000000815260040161268290613e85565b60405180910390fd5b63bc197c8160e01b7bffffffffffffffffffffffffffffffffffffffffffffffffffffffff1916817bffffffffffffffffffffffffffffffffffffffffffffffffffffffff191614612712576040517f08c379a000000000000000000000000000000000000000000000000000000000815260040161270990613ea5565b60405180910390fd5b505b505050505050565b6001816000016000828254019250508190555050565b600081600001549050919050565b600073ffffffffffffffffffffffffffffffffffffffff168473ffffffffffffffffffffffffffffffffffffffff1614156127b0576040517f08c379a00000000000000000000000000000000000000000000000000000000081526004016127a7906140e5565b60405180910390fd5b81518351146127f4576040517f08c379a00000000000000000000000000000000000000000000000000000000081526004016127eb906140c5565b60405180910390fd5b60006127fe611745565b905061280f816000878787876124d7565b60005b845181101561291557838181518110612854577f4e487b7100000000000000000000000000000000000000000000000000000000600052603260045260246000fd5b602002602001015160656000878481518110612899577f4e487b7100000000000000000000000000000000000000000000000000000000600052603260045260246000fd5b6020026020010151815260200190815260200160002060008873ffffffffffffffffffffffffffffffffffffffff1673ffffffffffffffffffffffffffffffffffffffff16815260200190815260200160002060008282546128fb9190614467565b92505081905550808061290d906145e8565b915050612812565b508473ffffffffffffffffffffffffffffffffffffffff16600073ffffffffffffffffffffffffffffffffffffffff168273ffffffffffffffffffffffffffffffffffffffff167f4a39dc06d4c0dbc64b70af90fd698a233a518aa5d07e595d983b8c0526c8f7fb878760405161298d929190613e11565b60405180910390a46129a481600087878787612535565b5050505050565b6000808273ffffffffffffffffffffffffffffffffffffffff163b119050919050565b600060019054906101000a900460ff16612a1d576040517f08c379a0000000000000000000000000000000000000000000000000000000008152600401612a1490614065565b60405180910390fd5b612a268161174d565b50565b600060019054906101000a900460ff16612a78576040517f08c379a0000000000000000000000000000000000000000000000000000000008152600401612a6f90614065565b60405180910390fd5b612a88612a83611745565b611e05565b565b600060019054906101000a900460ff16612ad9576040517f08c379a0000000000000000000000000000000000000000000000000000000008152600401612ad090614065565b60405180910390fd5b600060c960006101000a81548160ff021916908315150217905550565b600060019054906101000a900460ff16612b45576040517f08c379a0000000000000000000000000000000000000000000000000000000008152600401612b3c90614065565b60405180910390fd5b600160fb81905550565b60606000600167ffffffffffffffff811115612b94577f4e487b7100000000000000000000000000000000000000000000000000000000600052604160045260246000fd5b604051908082528060200260200182016040528015612bc25781602001602082028036833780820191505090505b5090508281600081518110612c00577f4e487b7100000000000000000000000000000000000000000000000000000000600052603260045260246000fd5b60200260200101818152505080915050919050565b612c348473ffffffffffffffffffffffffffffffffffffffff166129ab565b15612df4578373ffffffffffffffffffffffffffffffffffffffff1663f23a6e6187878686866040518663ffffffff1660e01b8152600401612c7a959493929190613d65565b602060405180830381600087803b158015612c9457600080fd5b505af1925050508015612cc557506040513d601f19601f82011682018060405250810190612cc291906134db565b60015b612d6b57612cd16146be565b806308c379a01415612d2e5750612ce6614c92565b80612cf15750612d30565b806040517f08c379a0000000000000000000000000000000000000000000000000000000008152600401612d259190613e63565b60405180910390fd5b505b6040517f08c379a0000000000000000000000000000000000000000000000000000000008152600401612d6290613e85565b60405180910390fd5b63f23a6e6160e01b7bffffffffffffffffffffffffffffffffffffffffffffffffffffffff1916817bffffffffffffffffffffffffffffffffffffffffffffffffffffffff191614612df2576040517f08c379a0000000000000000000000000000000000000000000000000000000008152600401612de990613ea5565b60405180910390fd5b505b505050505050565b505050505050565b828054612e1090614585565b90600052602060002090601f016020900481019282612e325760008555612e79565b82601f10612e4b57805160ff1916838001178555612e79565b82800160010185558215612e79579182015b82811115612e78578251825591602001919060010190612e5d565b5b509050612e869190612e8a565b5090565b5b80821115612ea3576000816000905550600101612e8b565b5090565b6000612eba612eb5846142c6565b6142a1565b90508083825260208201905082856020860282011115612ed957600080fd5b60005b85811015612f095781612eef8882613081565b845260208401935060208301925050600181019050612edc565b5050509392505050565b6000612f26612f21846142f2565b6142a1565b90508083825260208201905082856020860282011115612f4557600080fd5b60005b85811015612f8f57813567ffffffffffffffff811115612f6757600080fd5b808601612f7489826131c7565b85526020850194506020840193505050600181019050612f48565b5050509392505050565b6000612fac612fa78461431e565b6142a1565b90508083825260208201905082856020860282011115612fcb57600080fd5b60005b85811015612ffb5781612fe188826131f1565b845260208401935060208301925050600181019050612fce565b5050509392505050565b60006130186130138461434a565b6142a1565b90508281526020810184848401111561303057600080fd5b61303b848285614543565b509392505050565b60006130566130518461437b565b6142a1565b90508281526020810184848401111561306e57600080fd5b613079848285614543565b509392505050565b60008135905061309081614d28565b92915050565b600082601f8301126130a757600080fd5b81356130b7848260208601612ea7565b91505092915050565b600082601f8301126130d157600080fd5b81356130e1848260208601612f13565b91505092915050565b60008083601f8401126130fc57600080fd5b8235905067ffffffffffffffff81111561311557600080fd5b60208301915083602082028301111561312d57600080fd5b9250929050565b600082601f83011261314557600080fd5b8135613155848260208601612f99565b91505092915050565b60008135905061316d81614d3f565b92915050565b60008135905061318281614d56565b92915050565b60008151905061319781614d56565b92915050565b600082601f8301126131ae57600080fd5b81356131be848260208601613005565b91505092915050565b600082601f8301126131d857600080fd5b81356131e8848260208601613043565b91505092915050565b60008135905061320081614d6d565b92915050565b60008151905061321581614d6d565b92915050565b60006020828403121561322d57600080fd5b600061323b84828501613081565b91505092915050565b6000806040838503121561325757600080fd5b600061326585828601613081565b925050602061327685828601613081565b9150509250929050565b600080600080600060a0868803121561329857600080fd5b60006132a688828901613081565b95505060206132b788828901613081565b945050604086013567ffffffffffffffff8111156132d457600080fd5b6132e088828901613134565b935050606086013567ffffffffffffffff8111156132fd57600080fd5b61330988828901613134565b925050608086013567ffffffffffffffff81111561332657600080fd5b6133328882890161319d565b9150509295509295909350565b600080600080600060a0868803121561335757600080fd5b600061336588828901613081565b955050602061337688828901613081565b9450506040613387888289016131f1565b9350506060613398888289016131f1565b925050608086013567ffffffffffffffff8111156133b557600080fd5b6133c18882890161319d565b9150509295509295909350565b600080604083850312156133e157600080fd5b60006133ef85828601613081565b92505060206134008582860161315e565b9150509250929050565b6000806040838503121561341d57600080fd5b600061342b85828601613081565b925050602061343c858286016131f1565b9150509250929050565b6000806040838503121561345957600080fd5b600083013567ffffffffffffffff81111561347357600080fd5b61347f85828601613096565b925050602083013567ffffffffffffffff81111561349c57600080fd5b6134a885828601613134565b9150509250929050565b6000602082840312156134c457600080fd5b60006134d284828501613173565b91505092915050565b6000602082840312156134ed57600080fd5b60006134fb84828501613188565b91505092915050565b60006020828403121561351657600080fd5b600082013567ffffffffffffffff81111561353057600080fd5b61353c848285016131c7565b91505092915050565b600080600080600080600080600060c08a8c03121561356357600080fd5b60008a013567ffffffffffffffff81111561357d57600080fd5b6135898c828d016131c7565b995050602061359a8c828d016131f1565b98505060408a013567ffffffffffffffff8111156135b757600080fd5b6135c38c828d016130ea565b975097505060608a013567ffffffffffffffff8111156135e257600080fd5b6135ee8c828d016130ea565b955095505060808a013567ffffffffffffffff81111561360d57600080fd5b6136198c828d016130ea565b935093505060a08a013567ffffffffffffffff81111561363857600080fd5b6136448c828d016130c0565b9150509295985092959850929598565b60006020828403121561366657600080fd5b6000613674848285016131f1565b91505092915050565b60006020828403121561368f57600080fd5b600061369d84828501613206565b91505092915050565b600080604083850312156136b957600080fd5b60006136c7858286016131f1565b92505060206136d8858286016131f1565b9150509250929050565b600080600080600080600080600060c08a8c03121561370057600080fd5b600061370e8c828d016131f1565b995050602061371f8c828d016131f1565b98505060408a013567ffffffffffffffff81111561373c57600080fd5b6137488c828d016130ea565b975097505060608a013567ffffffffffffffff81111561376757600080fd5b6137738c828d016130ea565b955095505060808a013567ffffffffffffffff81111561379257600080fd5b61379e8c828d016130ea565b935093505060a08a013567ffffffffffffffff8111156137bd57600080fd5b6137c98c828d016130c0565b9150509295985092959850929598565b60006137e58383613996565b905092915050565b60006137f98383613cc4565b60208301905092915050565b61380e816144cf565b82525050565b61381d816144bd565b82525050565b600061382e826143cc565b6138388185614412565b93508360208202850161384a856143ac565b8060005b85811015613886578484038952815161386785826137d9565b9450613872836143f8565b925060208a0199505060018101905061384e565b50829750879550505050505092915050565b60006138a48385614423565b93507f07ffffffffffffffffffffffffffffffffffffffffffffffffffffffffffffff8311156138d357600080fd5b6020830292506138e4838584614543565b82840190509392505050565b60006138fb826143d7565b6139058185614423565b9350613910836143bc565b8060005b8381101561394157815161392888826137ed565b975061393383614405565b925050600181019050613914565b5085935050505092915050565b613957816144e1565b82525050565b6000613968826143e2565b6139728185614434565b9350613982818560208601614552565b61398b816146e0565b840191505092915050565b60006139a1826143ed565b6139ab8185614445565b93506139bb818560208601614552565b6139c4816146e0565b840191505092915050565b60006139da826143ed565b6139e48185614456565b93506139f4818560208601614552565b6139fd816146e0565b840191505092915050565b6000613a15603483614456565b9150613a20826146fe565b604082019050919050565b6000613a38602883614456565b9150613a438261474d565b604082019050919050565b6000613a5b601483614456565b9150613a668261479c565b602082019050919050565b6000613a7e601183614456565b9150613a89826147c5565b602082019050919050565b6000613aa1602b83614456565b9150613aac826147ee565b604082019050919050565b6000613ac4602683614456565b9150613acf8261483d565b604082019050919050565b6000613ae7602983614456565b9150613af28261488c565b604082019050919050565b6000613b0a602283614456565b9150613b15826148db565b604082019050919050565b6000613b2d601083614456565b9150613b388261492a565b602082019050919050565b6000613b50602583614456565b9150613b5b82614953565b604082019050919050565b6000613b73603283614456565b9150613b7e826149a2565b604082019050919050565b6000613b96602e83614456565b9150613ba1826149f1565b604082019050919050565b6000613bb9602183614456565b9150613bc482614a40565b604082019050919050565b6000613bdc602a83614456565b9150613be782614a8f565b604082019050919050565b6000613bff602083614456565b9150613c0a82614ade565b602082019050919050565b6000613c22602b83614456565b9150613c2d82614b07565b604082019050919050565b6000613c45602983614456565b9150613c5082614b56565b604082019050919050565b6000613c68602983614456565b9150613c7382614ba5565b604082019050919050565b6000613c8b602883614456565b9150613c9682614bf4565b604082019050919050565b6000613cae602183614456565b9150613cb982614c43565b604082019050919050565b613ccd81614539565b82525050565b613cdc81614539565b82525050565b6000602082019050613cf76000830184613814565b92915050565b600060a082019050613d126000830188613814565b613d1f6020830187613814565b8181036040830152613d3181866138f0565b90508181036060830152613d4581856138f0565b90508181036080830152613d59818461395d565b90509695505050505050565b600060a082019050613d7a6000830188613814565b613d876020830187613814565b613d946040830186613cd3565b613da16060830185613cd3565b8181036080830152613db3818461395d565b90509695505050505050565b6000604082019050613dd46000830185613814565b8181036020830152613de681846139cf565b90509392505050565b60006020820190508181036000830152613e0981846138f0565b905092915050565b60006040820190508181036000830152613e2b81856138f0565b90508181036020830152613e3f81846138f0565b90509392505050565b6000602082019050613e5d600083018461394e565b92915050565b60006020820190508181036000830152613e7d81846139cf565b905092915050565b60006020820190508181036000830152613e9e81613a08565b9050919050565b60006020820190508181036000830152613ebe81613a2b565b9050919050565b60006020820190508181036000830152613ede81613a4e565b9050919050565b60006020820190508181036000830152613efe81613a71565b9050919050565b60006020820190508181036000830152613f1e81613a94565b9050919050565b60006020820190508181036000830152613f3e81613ab7565b9050919050565b60006020820190508181036000830152613f5e81613ada565b9050919050565b60006020820190508181036000830152613f7e81613afd565b9050919050565b60006020820190508181036000830152613f9e81613b20565b9050919050565b60006020820190508181036000830152613fbe81613b43565b9050919050565b60006020820190508181036000830152613fde81613b66565b9050919050565b60006020820190508181036000830152613ffe81613b89565b9050919050565b6000602082019050818103600083015261401e81613bac565b9050919050565b6000602082019050818103600083015261403e81613bcf565b9050919050565b6000602082019050818103600083015261405e81613bf2565b9050919050565b6000602082019050818103600083015261407e81613c15565b9050919050565b6000602082019050818103600083015261409e81613c38565b9050919050565b600060208201905081810360008301526140be81613c5b565b9050919050565b600060208201905081810360008301526140de81613c7e565b9050919050565b600060208201905081810360008301526140fe81613ca1565b9050919050565b600060208201905061411a6000830184613cd3565b92915050565b60006040820190506141356000830185613cd3565b6141426020830184613cd3565b9392505050565b600060608201905061415e6000830186613cd3565b61416b6020830185613cd3565b6141786040830184613814565b949350505050565b600060c082019050614195600083018b613cd3565b6141a2602083018a613cd3565b81810360408301526141b481896138f0565b905081810360608301526141c9818789613898565b905081810360808301526141de818587613898565b90506141ed60a0830184613805565b9998505050505050505050565b600061010082019050614210600083018e613cd3565b61421d602083018d613cd3565b818103604083015261422f818c6138f0565b90508181036060830152614244818a8c613898565b9050818103608083015261425981888a613898565b905081810360a083015261426e818688613898565b905081810360c08301526142828185613823565b905061429160e0830184613814565b9c9b505050505050505050505050565b60006142ab6142bc565b90506142b782826145b7565b919050565b6000604051905090565b600067ffffffffffffffff8211156142e1576142e061468f565b5b602082029050602081019050919050565b600067ffffffffffffffff82111561430d5761430c61468f565b5b602082029050602081019050919050565b600067ffffffffffffffff8211156143395761433861468f565b5b602082029050602081019050919050565b600067ffffffffffffffff8211156143655761436461468f565b5b61436e826146e0565b9050602081019050919050565b600067ffffffffffffffff8211156143965761439561468f565b5b61439f826146e0565b9050602081019050919050565b6000819050602082019050919050565b6000819050602082019050919050565b600081519050919050565b600081519050919050565b600081519050919050565b600081519050919050565b6000602082019050919050565b6000602082019050919050565b600082825260208201905092915050565b600082825260208201905092915050565b600082825260208201905092915050565b600082825260208201905092915050565b600082825260208201905092915050565b600061447282614539565b915061447d83614539565b9250827fffffffffffffffffffffffffffffffffffffffffffffffffffffffffffffffff038211156144b2576144b1614631565b5b828201905092915050565b60006144c882614519565b9050919050565b60006144da82614519565b9050919050565b60008115159050919050565b60007fffffffff0000000000000000000000000000000000000000000000000000000082169050919050565b600073ffffffffffffffffffffffffffffffffffffffff82169050919050565b6000819050919050565b82818337600083830152505050565b60005b83811015614570578082015181840152602081019050614555565b8381111561457f576000848401525b50505050565b6000600282049050600182168061459d57607f821691505b602082108114156145b1576145b0614660565b5b50919050565b6145c0826146e0565b810181811067ffffffffffffffff821117156145df576145de61468f565b5b80604052505050565b60006145f382614539565b91507fffffffffffffffffffffffffffffffffffffffffffffffffffffffffffffffff82141561462657614625614631565b5b600182019050919050565b7f4e487b7100000000000000000000000000000000000000000000000000000000600052601160045260246000fd5b7f4e487b7100000000000000000000000000000000000000000000000000000000600052602260045260246000fd5b7f4e487b7100000000000000000000000000000000000000000000000000000000600052604160045260246000fd5b600060033d11156146dd5760046000803e6146da6000516146f1565b90505b90565b6000601f19601f8301169050919050565b60008160e01c9050919050565b7f455243313135353a207472616e7366657220746f206e6f6e204552433131353560008201527f526563656976657220696d706c656d656e746572000000000000000000000000602082015250565b7f455243313135353a204552433131353552656365697665722072656a6563746560008201527f6420746f6b656e73000000000000000000000000000000000000000000000000602082015250565b7f5061757361626c653a206e6f7420706175736564000000000000000000000000600082015250565b7f546f6f206d756368207469636b65747321000000000000000000000000000000600082015250565b7f455243313135353a2062616c616e636520717565727920666f7220746865207a60008201527f65726f2061646472657373000000000000000000000000000000000000000000602082015250565b7f4f776e61626c653a206e6577206f776e657220697320746865207a65726f206160008201527f6464726573730000000000000000000000000000000000000000000000000000602082015250565b7f455243313135353a2063616c6c6572206973206e6f74206f776e6572206e6f7260008201527f20617070726f7665640000000000000000000000000000000000000000000000602082015250565b7f6d61782063726561746f72526f79616c747920737570706f727465642069732060008201527f3525000000000000000000000000000000000000000000000000000000000000602082015250565b7f5061757361626c653a2070617573656400000000000000000000000000000000600082015250565b7f455243313135353a207472616e7366657220746f20746865207a65726f20616460008201527f6472657373000000000000000000000000000000000000000000000000000000602082015250565b7f455243313135353a207472616e736665722063616c6c6572206973206e6f742060008201527f6f776e6572206e6f7220617070726f7665640000000000000000000000000000602082015250565b7f496e697469616c697a61626c653a20636f6e747261637420697320616c72656160008201527f647920696e697469616c697a6564000000000000000000000000000000000000602082015250565b7f6d696e696d756d2061736b696e67207072696365206e6f74206d61746368656460008201527f2e00000000000000000000000000000000000000000000000000000000000000602082015250565b7f455243313135353a20696e73756666696369656e742062616c616e636520666f60008201527f72207472616e7366657200000000000000000000000000000000000000000000602082015250565b7f4f776e61626c653a2063616c6c6572206973206e6f7420746865206f776e6572600082015250565b7f496e697469616c697a61626c653a20636f6e7472616374206973206e6f74206960008201527f6e697469616c697a696e67000000000000000000000000000000000000000000602082015250565b7f455243313135353a2073657474696e6720617070726f76616c2073746174757360008201527f20666f722073656c660000000000000000000000000000000000000000000000602082015250565b7f455243313135353a206163636f756e747320616e6420696473206c656e67746860008201527f206d69736d617463680000000000000000000000000000000000000000000000602082015250565b7f455243313135353a2069647320616e6420616d6f756e7473206c656e6774682060008201527f6d69736d61746368000000000000000000000000000000000000000000000000602082015250565b7f455243313135353a206d696e7420746f20746865207a65726f2061646472657360008201527f7300000000000000000000000000000000000000000000000000000000000000602082015250565b600060443d1015614ca257614d25565b614caa6142bc565b60043d036004823e80513d602482011167ffffffffffffffff82111715614cd2575050614d25565b808201805167ffffffffffffffff811115614cf05750505050614d25565b80602083010160043d038501811115614d0d575050505050614d25565b614d1c826020018501866145b7565b82955050505050505b90565b614d31816144bd565b8114614d3c57600080fd5b50565b614d48816144e1565b8114614d5357600080fd5b50565b614d5f816144ed565b8114614d6a57600080fd5b50565b614d7681614539565b8114614d8157600080fd5b5056fe68747470733a2f2f6170692e66616e737a6f69642e636f6d2f7469636b6574732f7b69647d2e6a736f6ea26469706673582212204fc53f03d33f3fab9b9c0a4a60c8c9f455a98ad3e11ba90fd893b01b6556ecab64736f6c63430008040033",
  "linkReferences": {},
  "deployedLinkReferences": {}
}