{
  "_format": "hh-sol-artifact-1",
  "contractName": "TicketsMarketplace",
  "sourceName": "src/TicketsMarketplace.sol",
  "abi": [
    {
      "anonymous": false,
      "inputs": [
        {
          "indexed": true,
          "internalType": "uint256",
          "name": "ticketId",
          "type": "uint256"
        },
        {
          "indexed": true,
          "internalType": "uint256",
          "name": "allowanceId",
          "type": "uint256"
        },
        {
          "components": [
            {
              "internalType": "uint256",
              "name": "amount",
              "type": "uint256"
            },
            {
              "internalType": "address[]",
              "name": "allowedAddresses",
              "type": "address[]"
            }
          ],
          "indexed": false,
          "internalType": "struct AllowanceInput",
          "name": "allowance",
          "type": "tuple"
        }
      ],
      "name": "AllowanceAdded",
      "type": "event"
    },
    {
      "anonymous": false,
      "inputs": [
        {
          "indexed": true,
          "internalType": "uint256",
          "name": "allowanceId",
          "type": "uint256"
        }
      ],
      "name": "AllowanceConsumed",
      "type": "event"
    },
    {
      "anonymous": false,
      "inputs": [
        {
          "indexed": true,
          "internalType": "uint256",
          "name": "ticketId",
          "type": "uint256"
        },
        {
          "indexed": true,
          "internalType": "uint256",
          "name": "allowanceId",
          "type": "uint256"
        }
      ],
      "name": "AllowanceRemoved",
      "type": "event"
    },
    {
      "anonymous": false,
      "inputs": [
        {
          "indexed": true,
          "internalType": "address",
          "name": "seller",
          "type": "address"
        },
        {
          "indexed": true,
          "internalType": "uint256",
          "name": "ticketId",
          "type": "uint256"
        }
      ],
      "name": "AskRemoved",
      "type": "event"
    },
    {
      "anonymous": false,
      "inputs": [
        {
          "indexed": true,
          "internalType": "uint256",
          "name": "ticketId",
          "type": "uint256"
        },
        {
          "indexed": true,
          "internalType": "address",
          "name": "seller",
          "type": "address"
        },
        {
          "indexed": false,
          "internalType": "uint256",
          "name": "ticketPrice",
          "type": "uint256"
        },
        {
          "indexed": false,
          "internalType": "uint256",
          "name": "amount",
          "type": "uint256"
        }
      ],
      "name": "AskSetted",
      "type": "event"
    },
    {
      "anonymous": false,
      "inputs": [
        {
          "indexed": true,
          "internalType": "uint256",
          "name": "ticketId",
          "type": "uint256"
        },
        {
          "indexed": false,
          "internalType": "uint256",
          "name": "newRoyalty",
          "type": "uint256"
        }
      ],
      "name": "CreatorRoyaltyModifiedOnTicket",
      "type": "event"
    },
    {
      "anonymous": false,
      "inputs": [
        {
          "indexed": true,
          "internalType": "address",
          "name": "previousOwner",
          "type": "address"
        },
        {
          "indexed": true,
          "internalType": "address",
          "name": "newOwner",
          "type": "address"
        }
      ],
      "name": "OwnershipTransferred",
      "type": "event"
    },
    {
      "anonymous": false,
      "inputs": [
        {
          "indexed": false,
          "internalType": "address",
          "name": "account",
          "type": "address"
        }
      ],
      "name": "Paused",
      "type": "event"
    },
    {
      "anonymous": false,
      "inputs": [
        {
          "indexed": true,
          "internalType": "uint256",
          "name": "ticketId",
          "type": "uint256"
        },
        {
          "indexed": false,
          "internalType": "uint256",
          "name": "newRoyalty",
          "type": "uint256"
        }
      ],
      "name": "PrimaryMarketRoyaltyModifiedOnTicket",
      "type": "event"
    },
    {
      "anonymous": false,
      "inputs": [
        {
          "indexed": true,
          "internalType": "uint256",
          "name": "ticketId",
          "type": "uint256"
        },
        {
          "indexed": false,
          "internalType": "uint256",
          "name": "newRoyalty",
          "type": "uint256"
        }
      ],
      "name": "SecondaryMarketRoyaltyModifiedOnTicket",
      "type": "event"
    },
    {
      "anonymous": false,
      "inputs": [
        {
          "indexed": true,
          "internalType": "uint256",
          "name": "ticketId",
          "type": "uint256"
        },
        {
          "indexed": false,
          "internalType": "address",
          "name": "seller",
          "type": "address"
        },
        {
          "indexed": false,
          "internalType": "address",
          "name": "buyer",
          "type": "address"
        },
        {
          "indexed": false,
          "internalType": "uint256",
          "name": "price",
          "type": "uint256"
        },
        {
          "indexed": false,
          "internalType": "uint256",
          "name": "amount",
          "type": "uint256"
        }
      ],
      "name": "TicketBought",
      "type": "event"
    },
    {
      "anonymous": false,
      "inputs": [
        {
          "indexed": true,
          "internalType": "uint256",
          "name": "ticketId",
          "type": "uint256"
        },
        {
          "indexed": false,
          "internalType": "address",
          "name": "seller",
          "type": "address"
        },
        {
          "indexed": false,
          "internalType": "address",
          "name": "buyer",
          "type": "address"
        }
      ],
      "name": "TicketClaimed",
      "type": "event"
    },
    {
      "anonymous": false,
      "inputs": [
        {
          "indexed": true,
          "internalType": "uint256",
          "name": "ticketId",
          "type": "uint256"
        },
        {
          "indexed": false,
          "internalType": "string",
          "name": "newUri",
          "type": "string"
        }
      ],
      "name": "TicketEdited",
      "type": "event"
    },
    {
      "anonymous": false,
      "inputs": [
        {
          "indexed": true,
          "internalType": "uint256",
          "name": "eventId",
          "type": "uint256"
        },
        {
          "indexed": false,
          "internalType": "address",
          "name": "organizer",
          "type": "address"
        },
        {
          "indexed": true,
          "internalType": "uint256",
          "name": "ticketId",
          "type": "uint256"
        },
        {
          "indexed": false,
          "internalType": "uint256",
          "name": "amount",
          "type": "uint256"
        },
        {
          "components": [
            {
              "internalType": "uint256",
              "name": "amount",
              "type": "uint256"
            },
            {
              "internalType": "uint256",
              "name": "price",
              "type": "uint256"
            },
            {
              "internalType": "uint256",
              "name": "royalty",
              "type": "uint256"
            },
            {
              "internalType": "uint256",
              "name": "amountToSell",
              "type": "uint256"
            },
            {
              "internalType": "bool",
              "name": "isResellable",
              "type": "bool"
            },
            {
              "internalType": "string",
              "name": "uri",
              "type": "string"
            },
            {
              "internalType": "bool",
              "name": "isPrivate",
              "type": "bool"
            },
            {
              "components": [
                {
                  "internalType": "uint256",
                  "name": "amount",
                  "type": "uint256"
                },
                {
                  "internalType": "address[]",
                  "name": "allowedAddresses",
                  "type": "address[]"
                }
              ],
              "internalType": "struct AllowanceInput[]",
              "name": "allowances",
              "type": "tuple[]"
            }
          ],
          "indexed": false,
          "internalType": "struct NewAssetSaleInfo",
          "name": "saleInfo",
          "type": "tuple"
        },
        {
          "indexed": false,
          "internalType": "string",
          "name": "uri",
          "type": "string"
        }
      ],
      "name": "TicketPublished",
      "type": "event"
    },
    {
      "anonymous": false,
      "inputs": [
        {
          "indexed": false,
          "internalType": "uint256[]",
          "name": "ids",
          "type": "uint256[]"
        },
        {
          "indexed": false,
          "internalType": "address",
          "name": "owner",
          "type": "address"
        },
        {
          "indexed": false,
          "internalType": "uint256[]",
          "name": "amounts",
          "type": "uint256[]"
        }
      ],
      "name": "TicketsDeleted",
      "type": "event"
    },
    {
      "anonymous": false,
      "inputs": [
        {
          "indexed": false,
          "internalType": "address",
          "name": "account",
          "type": "address"
        }
      ],
      "name": "Unpaused",
      "type": "event"
    },
    {
      "inputs": [
        {
          "internalType": "uint256",
          "name": "ticketId",
          "type": "uint256"
        },
        {
          "components": [
            {
              "internalType": "uint256",
              "name": "amount",
              "type": "uint256"
            },
            {
              "internalType": "address[]",
              "name": "allowedAddresses",
              "type": "address[]"
            }
          ],
          "internalType": "struct AllowanceInput",
          "name": "allowance",
          "type": "tuple"
        }
      ],
      "name": "addAllowance",
      "outputs": [
        {
          "internalType": "uint256",
          "name": "",
          "type": "uint256"
        }
      ],
      "stateMutability": "nonpayable",
      "type": "function"
    },
    {
      "inputs": [],
      "name": "adminAddress",
      "outputs": [
        {
          "internalType": "address",
          "name": "",
          "type": "address"
        }
      ],
      "stateMutability": "view",
      "type": "function"
    },
    {
      "inputs": [
        {
          "internalType": "uint256",
          "name": "ticketId",
          "type": "uint256"
        },
        {
          "internalType": "uint256",
          "name": "allowanceId",
          "type": "uint256"
        }
      ],
      "name": "allowanceAmountLeft",
      "outputs": [
        {
          "internalType": "uint256",
          "name": "",
          "type": "uint256"
        }
      ],
      "stateMutability": "view",
      "type": "function"
    },
    {
      "inputs": [
        {
          "internalType": "uint256",
          "name": "",
          "type": "uint256"
        },
        {
          "internalType": "uint256",
          "name": "",
          "type": "uint256"
        }
      ],
      "name": "allowances",
      "outputs": [
        {
          "internalType": "uint256",
          "name": "amount",
          "type": "uint256"
        }
      ],
      "stateMutability": "view",
      "type": "function"
    },
    {
      "inputs": [
        {
          "internalType": "uint256",
          "name": "ticketId",
          "type": "uint256"
        },
        {
          "internalType": "address",
          "name": "seller",
          "type": "address"
        },
        {
          "internalType": "uint256",
          "name": "amount",
          "type": "uint256"
        },
        {
          "internalType": "uint256",
          "name": "allowanceId",
          "type": "uint256"
        }
      ],
      "name": "buyMarketTicket",
      "outputs": [],
      "stateMutability": "payable",
      "type": "function"
    },
    {
      "inputs": [
        {
          "internalType": "uint256",
          "name": "eventId",
          "type": "uint256"
        },
        {
          "internalType": "address",
          "name": "newOwner",
          "type": "address"
        }
      ],
      "name": "changeEventOwnerInTicketsForEvent",
      "outputs": [],
      "stateMutability": "nonpayable",
      "type": "function"
    },
    {
      "inputs": [
        {
          "internalType": "uint256",
          "name": "ticketId",
          "type": "uint256"
        },
        {
          "internalType": "address",
          "name": "claimer",
          "type": "address"
        },
        {
          "internalType": "uint256",
          "name": "allowanceId",
          "type": "uint256"
        }
      ],
      "name": "claimFreeTicket",
      "outputs": [],
      "stateMutability": "nonpayable",
      "type": "function"
    },
    {
      "inputs": [
        {
          "internalType": "uint256",
          "name": "ticketId",
          "type": "uint256"
        },
        {
          "internalType": "address",
          "name": "contractAddress",
          "type": "address"
        },
        {
          "internalType": "uint256",
          "name": "tokenId",
          "type": "uint256"
        },
        {
          "internalType": "address",
          "name": "claimer",
          "type": "address"
        },
        {
          "internalType": "uint256",
          "name": "allowanceId",
          "type": "uint256"
        }
      ],
      "name": "claimTicketByMembership",
      "outputs": [],
      "stateMutability": "nonpayable",
      "type": "function"
    },
    {
      "inputs": [
        {
          "internalType": "uint256",
          "name": "eventId",
          "type": "uint256"
        }
      ],
      "name": "deleteEvent",
      "outputs": [],
      "stateMutability": "nonpayable",
      "type": "function"
    },
    {
      "inputs": [
        {
          "internalType": "uint256[]",
          "name": "ids",
          "type": "uint256[]"
        },
        {
          "internalType": "uint256[]",
          "name": "amounts",
          "type": "uint256[]"
        }
      ],
      "name": "deleteTickets",
      "outputs": [],
      "stateMutability": "nonpayable",
      "type": "function"
    },
    {
      "inputs": [],
      "name": "eventAddress",
      "outputs": [
        {
          "internalType": "address",
          "name": "",
          "type": "address"
        }
      ],
      "stateMutability": "view",
      "type": "function"
    },
    {
      "inputs": [
        {
          "internalType": "uint256",
          "name": "",
          "type": "uint256"
        }
      ],
      "name": "eventOfTicket",
      "outputs": [
        {
          "internalType": "uint256",
          "name": "",
          "type": "uint256"
        }
      ],
      "stateMutability": "view",
      "type": "function"
    },
    {
      "inputs": [
        {
          "internalType": "uint256",
          "name": "",
          "type": "uint256"
        },
        {
          "internalType": "uint256",
          "name": "",
          "type": "uint256"
        }
      ],
      "name": "eventTickets",
      "outputs": [
        {
          "internalType": "uint256",
          "name": "",
          "type": "uint256"
        }
      ],
      "stateMutability": "view",
      "type": "function"
    },
    {
      "inputs": [
        {
          "internalType": "address",
          "name": "_ticketAddress",
          "type": "address"
        },
        {
          "internalType": "address",
          "name": "_eventAddress",
          "type": "address"
        },
        {
          "internalType": "address",
          "name": "_adminAddress",
          "type": "address"
        },
        {
          "internalType": "address",
          "name": "_membershipAddress",
          "type": "address"
        }
      ],
      "name": "initialize",
      "outputs": [],
      "stateMutability": "nonpayable",
      "type": "function"
    },
    {
      "inputs": [
        {
          "internalType": "uint256",
          "name": "ticketId",
          "type": "uint256"
        },
        {
          "internalType": "uint256",
          "name": "allowanceId",
          "type": "uint256"
        },
        {
          "internalType": "address",
          "name": "operator",
          "type": "address"
        }
      ],
      "name": "isAddressAllowed",
      "outputs": [
        {
          "internalType": "bool",
          "name": "",
          "type": "bool"
        }
      ],
      "stateMutability": "view",
      "type": "function"
    },
    {
      "inputs": [],
      "name": "membershipAddress",
      "outputs": [
        {
          "internalType": "address",
          "name": "",
          "type": "address"
        }
      ],
      "stateMutability": "view",
      "type": "function"
    },
    {
      "inputs": [
        {
          "internalType": "uint256",
          "name": "eventId",
          "type": "uint256"
        },
        {
          "internalType": "uint256",
          "name": "newCreatorRoyalty",
          "type": "uint256"
        }
      ],
      "name": "modifyCreatorRoyaltyOnEvent",
      "outputs": [],
      "stateMutability": "nonpayable",
      "type": "function"
    },
    {
      "inputs": [
        {
          "internalType": "uint256",
          "name": "ticketId",
          "type": "uint256"
        },
        {
          "internalType": "uint256",
          "name": "newCreatorRoyalty",
          "type": "uint256"
        }
      ],
      "name": "modifyCreatorRoyaltyOnTicket",
      "outputs": [],
      "stateMutability": "nonpayable",
      "type": "function"
    },
    {
      "inputs": [
        {
          "internalType": "uint256",
          "name": "ticketId",
          "type": "uint256"
        },
        {
          "internalType": "uint256",
          "name": "newMarketplaceRoyalty",
          "type": "uint256"
        }
      ],
      "name": "modifyPrimaryMarketplaceRoyaltyOnTicket",
      "outputs": [],
      "stateMutability": "nonpayable",
      "type": "function"
    },
    {
      "inputs": [
        {
          "internalType": "uint256",
          "name": "ticketId",
          "type": "uint256"
        },
        {
          "internalType": "uint256",
          "name": "newMarketplaceRoyalty",
          "type": "uint256"
        }
      ],
      "name": "modifySecondaryMarketplaceRoyaltyOnTicket",
      "outputs": [],
      "stateMutability": "nonpayable",
      "type": "function"
    },
    {
      "inputs": [
        {
          "internalType": "address",
          "name": "",
          "type": "address"
        },
        {
          "internalType": "uint256",
          "name": "",
          "type": "uint256"
        }
      ],
      "name": "offers",
      "outputs": [
        {
          "internalType": "uint256",
          "name": "amount",
          "type": "uint256"
        },
        {
          "internalType": "uint256",
          "name": "price",
          "type": "uint256"
        }
      ],
      "stateMutability": "view",
      "type": "function"
    },
    {
      "inputs": [],
      "name": "owner",
      "outputs": [
        {
          "internalType": "address",
          "name": "",
          "type": "address"
        }
      ],
      "stateMutability": "view",
      "type": "function"
    },
    {
      "inputs": [],
      "name": "pause",
      "outputs": [],
      "stateMutability": "nonpayable",
      "type": "function"
    },
    {
      "inputs": [],
      "name": "paused",
      "outputs": [
        {
          "internalType": "bool",
          "name": "",
          "type": "bool"
        }
      ],
      "stateMutability": "view",
      "type": "function"
    },
    {
      "inputs": [
        {
          "internalType": "uint256",
          "name": "ticketId",
          "type": "uint256"
        }
      ],
      "name": "pausedEvents",
      "outputs": [
        {
          "internalType": "bool",
          "name": "",
          "type": "bool"
        }
      ],
      "stateMutability": "view",
      "type": "function"
    },
    {
      "inputs": [
        {
          "internalType": "uint256",
          "name": "",
          "type": "uint256"
        }
      ],
      "name": "privateTickets",
      "outputs": [
        {
          "internalType": "bool",
          "name": "",
          "type": "bool"
        }
      ],
      "stateMutability": "view",
      "type": "function"
    },
    {
      "inputs": [
        {
          "internalType": "uint256",
          "name": "eventId",
          "type": "uint256"
        },
        {
          "components": [
            {
              "internalType": "uint256",
              "name": "amount",
              "type": "uint256"
            },
            {
              "internalType": "uint256",
              "name": "price",
              "type": "uint256"
            },
            {
              "internalType": "uint256",
              "name": "royalty",
              "type": "uint256"
            },
            {
              "internalType": "uint256",
              "name": "amountToSell",
              "type": "uint256"
            },
            {
              "internalType": "bool",
              "name": "isResellable",
              "type": "bool"
            },
            {
              "internalType": "string",
              "name": "uri",
              "type": "string"
            },
            {
              "internalType": "bool",
              "name": "isPrivate",
              "type": "bool"
            },
            {
              "components": [
                {
                  "internalType": "uint256",
                  "name": "amount",
                  "type": "uint256"
                },
                {
                  "internalType": "address[]",
                  "name": "allowedAddresses",
                  "type": "address[]"
                }
              ],
              "internalType": "struct AllowanceInput[]",
              "name": "allowances",
              "type": "tuple[]"
            }
          ],
          "internalType": "struct NewAssetSaleInfo[]",
          "name": "tickets",
          "type": "tuple[]"
        }
      ],
      "name": "publishTickets",
      "outputs": [
        {
          "internalType": "uint256[]",
          "name": "ticketIds",
          "type": "uint256[]"
        }
      ],
      "stateMutability": "nonpayable",
      "type": "function"
    },
    {
      "inputs": [
        {
          "internalType": "uint256",
          "name": "eventId",
          "type": "uint256"
        },
        {
          "internalType": "address",
          "name": "organizer",
          "type": "address"
        },
        {
          "components": [
            {
              "internalType": "uint256",
              "name": "amount",
              "type": "uint256"
            },
            {
              "internalType": "uint256",
              "name": "price",
              "type": "uint256"
            },
            {
              "internalType": "uint256",
              "name": "royalty",
              "type": "uint256"
            },
            {
              "internalType": "uint256",
              "name": "amountToSell",
              "type": "uint256"
            },
            {
              "internalType": "bool",
              "name": "isResellable",
              "type": "bool"
            },
            {
              "internalType": "string",
              "name": "uri",
              "type": "string"
            },
            {
              "internalType": "bool",
              "name": "isPrivate",
              "type": "bool"
            },
            {
              "components": [
                {
                  "internalType": "uint256",
                  "name": "amount",
                  "type": "uint256"
                },
                {
                  "internalType": "address[]",
                  "name": "allowedAddresses",
                  "type": "address[]"
                }
              ],
              "internalType": "struct AllowanceInput[]",
              "name": "allowances",
              "type": "tuple[]"
            }
          ],
          "internalType": "struct NewAssetSaleInfo[]",
          "name": "tickets",
          "type": "tuple[]"
        }
      ],
      "name": "publishTicketsForOrganizer",
      "outputs": [
        {
          "internalType": "uint256[]",
          "name": "ticketIds",
          "type": "uint256[]"
        }
      ],
      "stateMutability": "nonpayable",
      "type": "function"
    },
    {
      "inputs": [
        {
          "internalType": "uint256",
          "name": "ticketId",
          "type": "uint256"
        },
        {
          "internalType": "uint256",
          "name": "allowanceId",
          "type": "uint256"
        }
      ],
      "name": "removeAllowance",
      "outputs": [],
      "stateMutability": "nonpayable",
      "type": "function"
    },
    {
      "inputs": [
        {
          "internalType": "uint256",
          "name": "ticketId",
          "type": "uint256"
        }
      ],
      "name": "removeAsk",
      "outputs": [],
      "stateMutability": "nonpayable",
      "type": "function"
    },
    {
      "inputs": [],
      "name": "renounceOwnership",
      "outputs": [],
      "stateMutability": "nonpayable",
      "type": "function"
    },
    {
      "inputs": [
        {
          "internalType": "uint256",
          "name": "ticketId",
          "type": "uint256"
        },
        {
          "internalType": "uint256",
          "name": "ticketPrice",
          "type": "uint256"
        },
        {
          "internalType": "uint256",
          "name": "amount",
          "type": "uint256"
        }
      ],
      "name": "setAsk",
      "outputs": [],
      "stateMutability": "nonpayable",
      "type": "function"
    },
    {
      "inputs": [
        {
          "internalType": "uint256",
          "name": "ticketId",
          "type": "uint256"
        },
        {
          "internalType": "string",
          "name": "newUri",
          "type": "string"
        }
      ],
      "name": "setTicketUri",
      "outputs": [],
      "stateMutability": "nonpayable",
      "type": "function"
    },
    {
      "inputs": [],
      "name": "ticketAddress",
      "outputs": [
        {
          "internalType": "address",
          "name": "",
          "type": "address"
        }
      ],
      "stateMutability": "view",
      "type": "function"
    },
    {
      "inputs": [
        {
          "internalType": "uint256",
          "name": "ticketId",
          "type": "uint256"
        }
      ],
      "name": "ticketCreator",
      "outputs": [
        {
          "internalType": "address",
          "name": "",
          "type": "address"
        }
      ],
      "stateMutability": "view",
      "type": "function"
    },
    {
      "inputs": [
        {
          "internalType": "uint256",
          "name": "",
          "type": "uint256"
        }
      ],
      "name": "ticketsProperties",
      "outputs": [
        {
          "internalType": "uint256",
          "name": "creatorRoyalty",
          "type": "uint256"
        },
        {
          "internalType": "uint256",
          "name": "primaryMarketRoyalty",
          "type": "uint256"
        },
        {
          "internalType": "uint256",
          "name": "secondaryMarketRoyalty",
          "type": "uint256"
        },
        {
          "internalType": "address",
          "name": "creator",
          "type": "address"
        },
        {
          "internalType": "bool",
          "name": "isResellable",
          "type": "bool"
        }
      ],
      "stateMutability": "view",
      "type": "function"
    },
    {
      "inputs": [
        {
          "internalType": "address",
          "name": "newOwner",
          "type": "address"
        }
      ],
      "name": "transferOwnership",
      "outputs": [],
      "stateMutability": "nonpayable",
      "type": "function"
    },
    {
      "inputs": [],
      "name": "unpause",
      "outputs": [],
      "stateMutability": "nonpayable",
      "type": "function"
    }
  ],
  "bytecode": "0x608060405234801561001057600080fd5b50615492806100206000396000f3fe6080604052600436106102245760003560e01c80638da5cb5b11610123578063e5ff180e116100ab578063f8c8765e1161006f578063f8c8765e14610787578063f942b00a146107a7578063fad56779146107df578063fc6f9468146107ff578063fc74386d1461081f57600080fd5b8063e5ff180e1461067d578063e9e2bde614610707578063f2fde38b14610727578063f7cf5fe714610747578063f8749a581461076757600080fd5b8063c24ea72a116100f2578063c24ea72a14610590578063cc441f97146105bd578063ce6d9f1714610610578063d25697681461063d578063d411a7c71461065d57600080fd5b80638da5cb5b146104de578063910dc066146104fc578063aa1a84111461051c578063aa9d063b1461057057600080fd5b80633f4ba83a116101b157806376fb08851161017557806376fb088514610430578063779cea77146104505780637b41686d146104705780638456cb59146104a95780638a0c7701146104be57600080fd5b80633f4ba83a146103ae57806355e2b793146103c357806357a8e3fe146103e35780635c975abb14610403578063715018a61461041b57600080fd5b80631c8a1e20116101f85780631c8a1e20146102d05780631dcb178914610308578063269731531461034e57806328220f351461036e5780632d9d19b21461038e57600080fd5b80620e82db1461022957806301f71a1c1461026e5780630838fa3d146102905780631552a855146102b0575b600080fd5b34801561023557600080fd5b50610259610244366004614534565b60d26020526000908152604090205460ff1681565b60405190151581526020015b60405180910390f35b34801561027a57600080fd5b5061028e61028936600461454d565b610832565b005b34801561029c57600080fd5b5061028e6102ab36600461454d565b610950565b3480156102bc57600080fd5b506102596102cb366004614534565b610a2b565b3480156102dc57600080fd5b5060cc546102f0906001600160a01b031681565b6040516001600160a01b039091168152602001610265565b34801561031457600080fd5b5061034061032336600461454d565b600091825260d46020908152604080842092845291905290205490565b604051908152602001610265565b34801561035a57600080fd5b5061028e610369366004614584565b610ac2565b34801561037a57600080fd5b5061028e610389366004614534565b610f17565b34801561039a57600080fd5b506103406103a93660046145d4565b6110fd565b3480156103ba57600080fd5b5061028e611219565b3480156103cf57600080fd5b5061028e6103de36600461461a565b61124d565b3480156103ef57600080fd5b5060c9546102f0906001600160a01b031681565b34801561040f57600080fd5b5060655460ff16610259565b34801561042757600080fd5b5061028e6113cf565b34801561043c57600080fd5b5061028e61044b366004614695565b611403565b34801561045c57600080fd5b5061034061046b36600461454d565b6116df565b34801561047c57600080fd5b506102f061048b366004614534565b600090815260ce60205260409020600301546001600160a01b031690565b3480156104b557600080fd5b5061028e611710565b3480156104ca57600080fd5b5061028e6104d93660046146c1565b611742565b3480156104ea57600080fd5b506033546001600160a01b03166102f0565b34801561050857600080fd5b5061028e6105173660046146f1565b611865565b34801561052857600080fd5b5061055b610537366004614743565b60cf6020908152600092835260408084209091529082529020805460019091015482565b60408051928352602083019190915201610265565b34801561057c57600080fd5b5061028e61058b36600461454d565b6122ce565b34801561059c57600080fd5b506103406105ab366004614534565b60d16020526000908152604090205481565b3480156105c957600080fd5b506102596105d836600461476f565b600083815260d46020908152604080832085845282528083206001600160a01b038516845260010190915290205460ff169392505050565b34801561061c57600080fd5b5061063061062b3660046147f3565b6123eb565b60405161026591906148b3565b34801561064957600080fd5b5061028e610658366004614976565b613089565b34801561066957600080fd5b5061028e61067836600461454d565b6132b1565b34801561068957600080fd5b506106d4610698366004614534565b60ce602052600090815260409020805460018201546002830154600390930154919290916001600160a01b03811690600160a01b900460ff1685565b604080519586526020860194909452928401919091526001600160a01b031660608301521515608082015260a001610265565b34801561071357600080fd5b5061028e61072236600461454d565b613460565b34801561073357600080fd5b5061028e6107423660046149cf565b6134f5565b34801561075357600080fd5b506106306107623660046149ec565b613590565b34801561077357600080fd5b5061028e610782366004614534565b6135d1565b34801561079357600080fd5b5061028e6107a2366004614a5e565b613635565b3480156107b357600080fd5b506103406107c236600461454d565b60d460209081526000928352604080842090915290825290205481565b3480156107eb57600080fd5b5060ca546102f0906001600160a01b031681565b34801561080b57600080fd5b5060cb546102f0906001600160a01b031681565b61028e61082d366004614aba565b613754565b600082815260ce602052604090206003015482906001600160a01b03163314806108f0575060cb54600082815260d1602052604090819020549051631368e7c360e01b815260048101919091523360248201526001600160a01b0390911690631368e7c39060440160206040518083038186803b1580156108b257600080fd5b505afa1580156108c6573d6000803e3d6000fd5b505050506040513d601f19601f820116820180604052508101906108ea9190614b05565b15156001145b6109415760405162461bcd60e51b815260206004820152601d60248201527f4f6e6c7920636f6c6c61626f7261746f7220697320616c6c6f7765642100000060448201526064015b60405180910390fd5b61094b8383613e29565b505050565b6033546001600160a01b0316331461097a5760405162461bcd60e51b815260040161093890614b22565b60655460ff161561099d5760405162461bcd60e51b815260040161093890614b57565b600082815260ce60205260409020546109b890612710614b97565b8111156109d75760405162461bcd60e51b815260040161093890614bae565b600082815260ce6020526040908190206002018290555182907f84e71f7023ae590f3bab8208ff1d33cf3a448db9257564172862655f7d36c1a590610a1f9084815260200190565b60405180910390a25050565b60cb54600082815260d16020526040808220549051631552a85560e01b815291926001600160a01b031691631552a85591610a6c9160040190815260200190565b60206040518083038186803b158015610a8457600080fd5b505afa158015610a98573d6000803e3d6000fd5b505050506040513d601f19601f82011682018060405250810190610abc9190614b05565b92915050565b60655460ff1615610ae55760405162461bcd60e51b815260040161093890614b57565b600083815260ce602090815260408083206003015460cb5460d190935292819020549051631552a85560e01b815260048101919091526001600160a01b039283169290911690631552a8559060240160206040518083038186803b158015610b4c57600080fd5b505afa158015610b60573d6000803e3d6000fd5b505050506040513d601f19601f82011682018060405250810190610b849190614b05565b15610ba15760405162461bcd60e51b815260040161093890614bd3565b60c954604051627eeac760e11b81526001600160a01b03838116600483015260248201879052600192169062fdd58e9060440160206040518083038186803b158015610bec57600080fd5b505afa158015610c00573d6000803e3d6000fd5b505050506040513d601f19601f82011682018060405250810190610c249190614bfd565b1015610c725760405162461bcd60e51b815260206004820152601d60248201527f43726561746f72206861736e7420656e6f756768207469636b6574732e0000006044820152606401610938565b60c954604051627eeac760e11b81526001600160a01b038581166004830152602482018790529091169062fdd58e9060440160206040518083038186803b158015610cbc57600080fd5b505afa158015610cd0573d6000803e3d6000fd5b505050506040513d601f19601f82011682018060405250810190610cf49190614bfd565b15610d115760405162461bcd60e51b815260040161093890614c16565b6001600160a01b038116600090815260cf6020908152604080832087845290915290206001015415610d7b5760405162461bcd60e51b81526020600482015260136024820152722a34b1b5b2ba1034b9903737ba10333932b29760691b6044820152606401610938565b6001600160a01b038116600090815260cf6020908152604080832087845290915290205460011115610def5760405162461bcd60e51b815260206004820152601c60248201527f4e6f7420656e6f756768207469636b65747320666f7220636c61696d000000006044820152606401610938565b600084815260d2602052604090205460ff16151560011415610e1757610e1784836001613e73565b60c954604051637921219560e11b81526001600160a01b039091169063f242432a90610e4e90849087908990600190600401614c4d565b600060405180830381600087803b158015610e6857600080fd5b505af1158015610e7c573d6000803e3d6000fd5b505050506001600160a01b038116600090815260cf602090815260408083208784529091528120805460019290610eb4908490614b97565b9091555050604080516001600160a01b038084168252851660208201526000918101919091526001606082015284907f59ef6c251d20f15e60164e5032dc81900d28bf7e44d7767fec8681019700b129906080015b60405180910390a250505050565b60655460ff1615610f3a5760405162461bcd60e51b815260040161093890614b57565b60cb54600082815260d1602052604090819020549051631552a85560e01b81526001600160a01b0390921691631552a85591610f7c9160040190815260200190565b60206040518083038186803b158015610f9457600080fd5b505afa158015610fa8573d6000803e3d6000fd5b505050506040513d601f19601f82011682018060405250810190610fcc9190614b05565b15610fe95760405162461bcd60e51b815260040161093890614bd3565b60c954604051627eeac760e11b8152336004820152602481018390526000916001600160a01b03169062fdd58e9060440160206040518083038186803b15801561103257600080fd5b505afa158015611046573d6000803e3d6000fd5b505050506040513d601f19601f8201168201806040525081019061106a9190614bfd565b116110af5760405162461bcd60e51b815260206004820152601560248201527429b2b73232b9103430b9903737903a34b1b5b2ba1760591b6044820152606401610938565b33600081815260cf60209081526040808320858452909152808220828155600101829055518392917f1f2fa6bb5353160dec9640945a0fbf286bda8907835ad6b88dc06ff271382fc091a350565b600082815260ce602052604081206003015483906001600160a01b03163314806111bb575060cb54600082815260d1602052604090819020549051631368e7c360e01b815260048101919091523360248201526001600160a01b0390911690631368e7c39060440160206040518083038186803b15801561117d57600080fd5b505afa158015611191573d6000803e3d6000fd5b505050506040513d601f19601f820116820180604052508101906111b59190614b05565b15156001145b6112075760405162461bcd60e51b815260206004820152601d60248201527f4f6e6c7920636f6c6c61626f7261746f7220697320616c6c6f776564210000006044820152606401610938565b6112118484613f84565b949350505050565b6033546001600160a01b031633146112435760405162461bcd60e51b815260040161093890614b22565b61124b6140a4565b565b60655460ff16156112705760405162461bcd60e51b815260040161093890614b57565b600083815260ce602052604090206003015483906001600160a01b031633148061131b5750336001600160a01b0316306001600160a01b0316638da5cb5b6040518163ffffffff1660e01b815260040160206040518083038186803b1580156112d857600080fd5b505afa1580156112ec573d6000803e3d6000fd5b505050506040513d601f19601f820116820180604052508101906113109190614c85565b6001600160a01b0316145b6113375760405162461bcd60e51b815260040161093890614ca2565b60c954604051633c17845760e11b81526001600160a01b039091169063782f08ae9061136b90879087908790600401614cf1565b600060405180830381600087803b15801561138557600080fd5b505af1158015611399573d6000803e3d6000fd5b50505050837f755f9c78a46ac246d9eae160b9d066581ba2eae69b9b2fb7d5e14d160339cd078484604051610f09929190614d0b565b6033546001600160a01b031633146113f95760405162461bcd60e51b815260040161093890614b22565b61124b6000614137565b60655460ff16156114265760405162461bcd60e51b815260040161093890614b57565b60cb54600084815260d1602052604090819020549051631552a85560e01b81526001600160a01b0390921691631552a855916114689160040190815260200190565b60206040518083038186803b15801561148057600080fd5b505afa158015611494573d6000803e3d6000fd5b505050506040513d601f19601f820116820180604052508101906114b89190614b05565b156114d55760405162461bcd60e51b815260040161093890614bd3565b61271082101561151e5760405162461bcd60e51b8152602060048201526014602482015273283934b1b2903132b637bb9036b4b734b6bab69760611b6044820152606401610938565b60c954604051627eeac760e11b81523360048201526024810185905282916001600160a01b03169062fdd58e9060440160206040518083038186803b15801561156657600080fd5b505afa15801561157a573d6000803e3d6000fd5b505050506040513d601f19601f8201168201806040525081019061159e9190614bfd565b10156115ec5760405162461bcd60e51b815260206004820152601c60248201527f53656e64657220646f6573206e6f742068617665207469636b65742e000000006044820152606401610938565b600083815260ce6020526040902060030154600160a01b900460ff161515600114806116315750600083815260ce60205260409020600301546001600160a01b031633145b61167d5760405162461bcd60e51b815260206004820152601960248201527f5469636b6574206973206e6f7420726573656c6c61626c652e000000000000006044820152606401610938565b33600081815260cf6020908152604080832087845282529182902060018101869055849055815185815290810184905285917f8ec7d10a665f515f3ad661c546d2be60646cad45663216169480028e51659e83910160405180910390a3505050565b60cd60205281600052604060002081815481106116fb57600080fd5b90600052602060002001600091509150505481565b6033546001600160a01b0316331461173a5760405162461bcd60e51b815260040161093890614b22565b61124b614189565b60cb546001600160a01b0316331461176c5760405162461bcd60e51b815260040161093890614d1f565b60655460ff161561178f5760405162461bcd60e51b815260040161093890614b57565b600082815260cd60209081526040808320805482518185028101850190935280835291929091908301828280156117e557602002820191906000526020600020905b8154815260200190600101908083116117d1575b5050505050905060005b815181101561185f578260ce600084848151811061180f5761180f614d56565b6020026020010151815260200190815260200160002060030160006101000a8154816001600160a01b0302191690836001600160a01b03160217905550808061185790614d6c565b9150506117ef565b50505050565b60cb5460405163061a0fcd60e11b8152600481018790526001600160a01b0380871660248301528792879287926000921690630c341f9a9060440160206040518083038186803b1580156118b857600080fd5b505afa1580156118cc573d6000803e3d6000fd5b505050506040513d601f19601f820116820180604052508101906118f09190614b05565b60cb5460405163f363fb0560e01b8152600481018790526001600160a01b03868116602483015292935091169063f363fb059060440160206040518083038186803b15801561193e57600080fd5b505afa158015611952573d6000803e3d6000fd5b505050506040513d601f19601f820116820180604052508101906119769190614b05565b6119c25760405162461bcd60e51b815260206004820152601760248201527f4d656d62657273686970206e6f7420616c6c6f776564210000000000000000006044820152606401610938565b801580611a55575060cb5460405163c8be174f60e01b8152600481018690526001600160a01b038581166024830152604482018590529091169063c8be174f9060640160206040518083038186803b158015611a1d57600080fd5b505afa158015611a31573d6000803e3d6000fd5b505050506040513d601f19601f82011682018060405250810190611a559190614b05565b611aa15760405162461bcd60e51b815260206004820152601d60248201527f4d656d6265727368697020746f6b656e206e6f7420616c6c6f776564210000006044820152606401610938565b611aaa836141e1565b8015611bb357506040516301ffc9a760e01b81526380ac58cd60e01b60048201526001600160a01b038416906301ffc9a79060240160206040518083038186803b158015611af757600080fd5b505afa158015611b0b573d6000803e3d6000fd5b505050506040513d601f19601f82011682018060405250810190611b2f9190614b05565b80611bb357506040516301ffc9a760e01b8152636cdb3d1360e11b60048201526001600160a01b038416906301ffc9a79060240160206040518083038186803b158015611b7b57600080fd5b505afa158015611b8f573d6000803e3d6000fd5b505050506040513d601f19601f82011682018060405250810190611bb39190614b05565b611bff5760405162461bcd60e51b815260206004820152601d60248201527f436f6e747261637420646f6e7420737570706f727420455243313635210000006044820152606401610938565b6040516301ffc9a760e01b81526380ac58cd60e01b60048201526001600160a01b038416906301ffc9a79060240160206040518083038186803b158015611c4557600080fd5b505afa158015611c59573d6000803e3d6000fd5b505050506040513d601f19601f82011682018060405250810190611c7d9190614b05565b15611e1b5780611d4b576040516370a0823160e01b81523360048201526000906001600160a01b038516906370a082319060240160206040518083038186803b158015611cc957600080fd5b505afa158015611cdd573d6000803e3d6000fd5b505050506040513d601f19601f82011682018060405250810190611d019190614bfd565b11611d465760405162461bcd60e51b81526020600482015260156024820152744d656d62657273686970206e6f74206f776e65642160581b6044820152606401610938565b611ee7565b6040516331a9108f60e11b81526004810183905233906001600160a01b03851690636352211e9060240160206040518083038186803b158015611d8d57600080fd5b505afa158015611da1573d6000803e3d6000fd5b505050506040513d601f19601f82011682018060405250810190611dc59190614c85565b6001600160a01b031614611d465760405162461bcd60e51b815260206004820152601b60248201527f4d656d6265727368697020746f6b656e206e6f74206f776e65642100000000006044820152606401610938565b604051627eeac760e11b8152336004820152602481018390526000906001600160a01b0385169062fdd58e9060440160206040518083038186803b158015611e6257600080fd5b505afa158015611e76573d6000803e3d6000fd5b505050506040513d601f19601f82011682018060405250810190611e9a9190614bfd565b11611ee75760405162461bcd60e51b815260206004820152601b60248201527f4d656d6265727368697020746f6b656e206e6f74206f776e65642100000000006044820152606401610938565b60655460ff1615611f0a5760405162461bcd60e51b815260040161093890614b57565b60cb5460008a815260d1602052604090819020549051631552a85560e01b81526001600160a01b0390921691631552a85591611f4c9160040190815260200190565b60206040518083038186803b158015611f6457600080fd5b505afa158015611f78573d6000803e3d6000fd5b505050506040513d601f19601f82011682018060405250810190611f9c9190614b05565b15611fb95760405162461bcd60e51b815260040161093890614bd3565b600089815260ce6020526040908190206003015460c9549151627eeac760e11b81526001600160a01b0391821660048201819052602482018d905292600192169062fdd58e9060440160206040518083038186803b15801561201a57600080fd5b505afa15801561202e573d6000803e3d6000fd5b505050506040513d601f19601f820116820180604052508101906120529190614bfd565b10156120a05760405162461bcd60e51b815260206004820152601d60248201527f43726561746f72206861736e7420656e6f756768207469636b6574732e0000006044820152606401610938565b60c954604051627eeac760e11b81526001600160a01b038981166004830152602482018d90529091169062fdd58e9060440160206040518083038186803b1580156120ea57600080fd5b505afa1580156120fe573d6000803e3d6000fd5b505050506040513d601f19601f820116820180604052508101906121229190614bfd565b1561213f5760405162461bcd60e51b815260040161093890614c16565b6001600160a01b038116600090815260cf602090815260408083208d8452909152902054600111156121b35760405162461bcd60e51b815260206004820152601c60248201527f4e6f7420656e6f756768207469636b65747320666f7220636c61696d000000006044820152606401610938565b60008a815260d2602052604090205460ff161515600114156121db576121db8a876001613e73565b60c954604051637921219560e11b81526001600160a01b039091169063f242432a906122129084908b908f90600190600401614c4d565b600060405180830381600087803b15801561222c57600080fd5b505af1158015612240573d6000803e3d6000fd5b505050506001600160a01b038116600090815260cf602090815260408083208d84529091528120805460019290612278908490614b97565b9091555050604080516001600160a01b038084168252891660208201528b917fbec67dae650ba995d3e520e598b144a09d57fdb5455aa6ae3219fc27b4274109910160405180910390a250505050505050505050565b600082815260ce602052604090206003015482906001600160a01b031633146123395760405162461bcd60e51b815260206004820152601860248201527f4f6e6c792063726561746f7220697320616c6c6f7765642100000000000000006044820152606401610938565b60655460ff161561235c5760405162461bcd60e51b815260040161093890614b57565b600083815260ce602052604090206002015461237a90612710614b97565b8211156123995760405162461bcd60e51b815260040161093890614bae565b600083815260ce6020526040908190208390555183907fdc8db095897df5851484b49549ae8038c8fcc707cd3d5c973fc92d596391d6d6906123de9085815260200190565b60405180910390a2505050565b60606123f960655460ff1690565b156124165760405162461bcd60e51b815260040161093890614b57565b600260975414156124695760405162461bcd60e51b815260206004820152601f60248201527f5265656e7472616e637947756172643a207265656e7472616e742063616c6c006044820152606401610938565b600260975560cb5486906001600160a01b0316331480612515575060ca546040516331a9108f60e11b8152600481018390526001600160a01b0390911690636352211e9060240160206040518083038186803b1580156124c857600080fd5b505afa1580156124dc573d6000803e3d6000fd5b505050506040513d601f19601f820116820180604052508101906125009190614c85565b6001600160a01b0316336001600160a01b0316145b6125615760405162461bcd60e51b815260206004820152601860248201527f4f6e6c792041646d696e206f72206f7267616e697a65722100000000000000006044820152606401610938565b6040805160608101909152849060009080836001600160401b0381111561258a5761258a6148c6565b6040519080825280602002602001820160405280156125b3578160200160208202803683370190505b508152602001836001600160401b038111156125d1576125d16148c6565b6040519080825280602002602001820160405280156125fa578160200160208202803683370190505b508152602001836001600160401b03811115612618576126186148c6565b60405190808252806020026020018201604052801561264b57816020015b60608152602001906001900390816126365790505b509052905060005b82811015612e3f5760cb60009054906101000a90046001600160a01b03166001600160a01b031663a696ac7b6040518163ffffffff1660e01b815260040160206040518083038186803b1580156126a957600080fd5b505afa1580156126bd573d6000803e3d6000fd5b505050506040513d601f19601f820116820180604052508101906126e19190614d87565b6126ed90612710614dab565b61ffff1688888381811061270357612703614d56565b90506020028101906127159190614dce565b6040013511156127675760405162461bcd60e51b815260206004820181905260248201527f43726561746f7220726f79616c74792061626f766520746865206c696d69742e6044820152606401610938565b87878281811061277957612779614d56565b905060200281019061278b9190614dce565b6020013515806127c457506127108888838181106127ab576127ab614d56565b90506020028101906127bd9190614dce565b6020013510155b6128105760405162461bcd60e51b815260206004820152601b60248201527f41736b696e672070726963652062656c6f77206d696e696d756d2e00000000006044820152606401610938565b87878281811061282257612822614d56565b90506020028101906128349190614dce565b3588888381811061284757612847614d56565b90506020028101906128599190614dce565b6060013511156128ab5760405162461bcd60e51b815260206004820152601b60248201527f416d6f756e7420746f2073656c6c20697320746f6f20686967682e00000000006044820152606401610938565b8787828181106128bd576128bd614d56565b90506020028101906128cf9190614dce565b6128e09060a0810190608001614dfe565b15156001141561295e578787828181106128fc576128fc614d56565b905060200281019061290e9190614dce565b6020013561295e5760405162461bcd60e51b815260206004820152601860248201527f4672656520617265206e6f7420726573656c6c61626c652e00000000000000006044820152606401610938565b61296c60d080546001019055565b600061297760d05490565b90506040518060a001604052808a8a8581811061299657612996614d56565b90506020028101906129a89190614dce565b60400135815260200160cb60009054906101000a90046001600160a01b03166001600160a01b0316630ba7edf96040518163ffffffff1660e01b815260040160206040518083038186803b1580156129ff57600080fd5b505afa158015612a13573d6000803e3d6000fd5b505050506040513d601f19601f82011682018060405250810190612a379190614d87565b61ffff16815260cb546040805163a696ac7b60e01b815290516020938401936001600160a01b039093169263a696ac7b9260048082019391829003018186803b158015612a8357600080fd5b505afa158015612a97573d6000803e3d6000fd5b505050506040513d601f19601f82011682018060405250810190612abb9190614d87565b61ffff1681526020018b6001600160a01b031681526020018a8a85818110612ae557612ae5614d56565b9050602002810190612af79190614dce565b612b089060a0810190608001614dfe565b15159052600082815260ce6020908152604091829020835181559083015160018201558282015160028201556060830151600390910180546080909401511515600160a01b026001600160a81b03199094166001600160a01b0390921691909117929092179091558051808201909152808a8a85818110612b8b57612b8b614d56565b9050602002810190612b9d9190614dce565b6060013581526020018a8a85818110612bb857612bb8614d56565b9050602002810190612bca9190614dce565b6020908101359091526001600160a01b038c16600090815260cf8252604080822085835283529020825181559101516001909101558251805182919084908110612c1657612c16614d56565b60209081029190910181019190915260008c815260cd8252604080822080546001810182559083528383200184905583825260d1909252208b9055888883818110612c6357612c63614d56565b9050602002810190612c759190614dce565b6000013583602001518381518110612c8f57612c8f614d56565b602002602001018181525050888883818110612cad57612cad614d56565b9050602002810190612cbf9190614dce565b612ccd9060a0810190614e1b565b8080601f0160208091040260200160405190810160405280939291908181526020018383808284376000920191909152505050506040840151805184908110612d1857612d18614d56565b6020026020010181905250888883818110612d3557612d35614d56565b9050602002810190612d479190614dce565b612d589060e081019060c001614dfe565b151560011415612d7c57600081815260d260205260409020805460ff191660011790555b60005b898984818110612d9157612d91614d56565b9050602002810190612da39190614dce565b612db19060e0810190614e61565b9050811015612e2a57612e17828b8b86818110612dd057612dd0614d56565b9050602002810190612de29190614dce565b612df09060e0810190614e61565b84818110612e0057612e00614d56565b9050602002810190612e129190614eaa565b613f84565b5080612e2281614d6c565b915050612d7f565b50508080612e3790614d6c565b915050612653565b506000612e4c8680614e61565b90501115612ed55760cb5481516001600160a01b03909116906310e6e83e90612e758880614e61565b612e8260208b018b614e61565b6040518663ffffffff1660e01b8152600401612ea2959493929190614f46565b600060405180830381600087803b158015612ebc57600080fd5b505af1158015612ed0573d6000803e3d6000fd5b505050505b60c954815160208301516040808501519051632e55c7a160e21b81526001600160a01b039094169363b9571e8493612f16938e9391929091906004016150d8565b600060405180830381600087803b158015612f3057600080fd5b505af1158015612f44573d6000803e3d6000fd5b5050505060005b8281101561301c578151805182908110612f6757612f67614d56565b60200260200101518a7f1ea5155295a023d6d8048f1057a9212b4cc6af60cd0e4ee2d25985c1f4da81828b85602001518581518110612fa857612fa8614d56565b60200260200101518c8c87818110612fc257612fc2614d56565b9050602002810190612fd49190614dce565b87604001518781518110612fea57612fea614d56565b60200260200101516040516130029493929190615256565b60405180910390a38061301481614d6c565b915050612f4b565b50600089815260cd60209081526040918290208054835181840281018401909452808452909183018282801561307157602002820191906000526020600020905b81548152602001906001019080831161305d575b50505050509350505050600160975595945050505050565b60655460ff16156130ac5760405162461bcd60e51b815260040161093890614b57565b80518251146130fd5760405162461bcd60e51b815260206004820152601f60248201527f49647320616e6420616d6f756e747320636f756e74206d69736d617463682e006044820152606401610938565b60005b825181101561320b57336001600160a01b031660ce600085848151811061312957613129614d56565b6020908102919091018101518252810191909152604001600020600301546001600160a01b031614806131dd5750336001600160a01b0316306001600160a01b0316638da5cb5b6040518163ffffffff1660e01b815260040160206040518083038186803b15801561319a57600080fd5b505afa1580156131ae573d6000803e3d6000fd5b505050506040513d601f19601f820116820180604052508101906131d29190614c85565b6001600160a01b0316145b6131f95760405162461bcd60e51b815260040161093890614ca2565b8061320381614d6c565b915050613100565b5060c954604051631ac8311560e21b81526001600160a01b0390911690636b20c454906132409033908690869060040161532b565b600060405180830381600087803b15801561325a57600080fd5b505af115801561326e573d6000803e3d6000fd5b505050507f22540c60e10ff6eb4a421c505cf18dfd7f3f686a3d8345024f49ffbdc92ee7ea8233836040516132a593929190615361565b60405180910390a15050565b60cb546001600160a01b031633146132db5760405162461bcd60e51b815260040161093890614d1f565b60655460ff16156132fe5760405162461bcd60e51b815260040161093890614b57565b600082815260cd602090815260408083208054825181850281018501909352808352919290919083018282801561335457602002820191906000526020600020905b815481526020019060010190808311613340575b5050505050905060005b815181101561185f5760ce600083838151811061337d5761337d614d56565b602002602001015181526020019081526020016000206002015461271061ffff166133a89190614b97565b8311156133c75760405162461bcd60e51b815260040161093890614bae565b8260ce60008484815181106133de576133de614d56565b602002602001015181526020019081526020016000206000018190555081818151811061340d5761340d614d56565b60200260200101517fdc8db095897df5851484b49549ae8038c8fcc707cd3d5c973fc92d596391d6d68460405161344691815260200190565b60405180910390a28061345881614d6c565b91505061335e565b6033546001600160a01b0316331461348a5760405162461bcd60e51b815260040161093890614b22565b60655460ff16156134ad5760405162461bcd60e51b815260040161093890614b57565b600082815260ce6020526040908190206001018290555182907f4ec5fda4d8c717377da927e0c4da7889152921b135d54cbd305a6b96c030f0b290610a1f9084815260200190565b6033546001600160a01b0316331461351f5760405162461bcd60e51b815260040161093890614b22565b6001600160a01b0381166135845760405162461bcd60e51b815260206004820152602660248201527f4f776e61626c653a206e6577206f776e657220697320746865207a65726f206160448201526564647265737360d01b6064820152608401610938565b61358d81614137565b50565b606061359e60655460ff1690565b156135bb5760405162461bcd60e51b815260040161093890614b57565b6135c885338686866123eb565b95945050505050565b60cb546001600160a01b031633146135fb5760405162461bcd60e51b815260040161093890614d1f565b60655460ff161561361e5760405162461bcd60e51b815260040161093890614b57565b600081815260cd6020526040812061358d91614502565b600054610100900460ff166136505760005460ff1615613654565b303b155b6136b75760405162461bcd60e51b815260206004820152602e60248201527f496e697469616c697a61626c653a20636f6e747261637420697320616c72656160448201526d191e481a5b9a5d1a585b1a5e995960921b6064820152608401610938565b600054610100900460ff161580156136d9576000805461ffff19166101011790555b60c980546001600160a01b038088166001600160a01b03199283161790925560ca805487841690831617905560cb805486841690831617905560cc80549285169290911691909117905561372b614214565b613733614243565b61373b614272565b801561374d576000805461ff00191690555b5050505050565b60655460ff16156137775760405162461bcd60e51b815260040161093890614b57565b600260975414156137ca5760405162461bcd60e51b815260206004820152601f60248201527f5265656e7472616e637947756172643a207265656e7472616e742063616c6c006044820152606401610938565b600260975560cb54600085815260d1602052604090819020549051631552a85560e01b81526001600160a01b0390921691631552a855916138119160040190815260200190565b60206040518083038186803b15801561382957600080fd5b505afa15801561383d573d6000803e3d6000fd5b505050506040513d601f19601f820116820180604052508101906138619190614b05565b1561387e5760405162461bcd60e51b815260040161093890614bd3565b60c954604051627eeac760e11b81526001600160a01b038581166004830152602482018790528492169062fdd58e9060440160206040518083038186803b1580156138c857600080fd5b505afa1580156138dc573d6000803e3d6000fd5b505050506040513d601f19601f820116820180604052508101906139009190614bfd565b101561394e5760405162461bcd60e51b815260206004820152601b60248201527f53656c6c6572206861736e7420656e6f756768207469636b65742e00000000006044820152606401610938565b6001600160a01b038316600090815260cf602090815260408083208784529091529020548211156139c15760405162461bcd60e51b815260206004820152601a60248201527f4e6f7420656e6f756768207469636b657420666f722073616c650000000000006044820152606401610938565b6001600160a01b038316600090815260cf602090815260408083208784529091529020600101546139f29083615395565b3414613a405760405162461bcd60e51b815260206004820152601a60248201527f56616c756520646f6573206e6f74206d617463682070726963650000000000006044820152606401610938565b336001600160a01b0384161415613a995760405162461bcd60e51b815260206004820152601c60248201527f596f752063616e742062757920796f7572206f776e207469636b6574000000006044820152606401610938565b600084815260ce602090815260408083206003015460d2909252909120546001600160a01b039091169060ff1615156001148015613ae85750806001600160a01b0316846001600160a01b0316145b15613af857613af8858385613e73565b6001600160a01b038416600090815260cf60209081526040808320888452909152812060018101548154909247928792909190613b36908490614b97565b909155505081613c325784600114613b905760405162461bcd60e51b815260206004820152601c60248201527f43616e206f6e6c7920627579206f6e652066726565207469636b6574000000006044820152606401610938565b60c954604051627eeac760e11b8152336004820152602481018990526001600160a01b039091169062fdd58e9060440160206040518083038186803b158015613bd857600080fd5b505afa158015613bec573d6000803e3d6000fd5b505050506040513d601f19601f82011682018060405250810190613c109190614bfd565b15613c2d5760405162461bcd60e51b815260040161093890614c16565b613d47565b826001600160a01b0316866001600160a01b03161415613cb257600087815260ce6020526040812060010154613c699084906142a1565b90506000613c778285614b97565b9050613c8c85613c878984615395565b6142c1565b613cab613ca16033546001600160a01b031690565b613c87848a615395565b5050613d47565b600087815260ce6020526040812060020154613ccf9084906142a1565b600089815260ce602052604081205491925090613ced9085906142a1565b9050600081613cfc8487614b97565b613d069190614b97565b9050613d1689613c878a84615395565b613d2486613c878a85615395565b613d43613d396033546001600160a01b031690565b613c878a86615395565b5050505b60c954604051637921219560e11b81526001600160a01b039091169063f242432a90613d7d90899033908c908b90600401614c4d565b600060405180830381600087803b158015613d9757600080fd5b505af1158015613dab573d6000803e3d6000fd5b50505050344782613dbc9190614b97565b14613dc957613dc96153b4565b604080516001600160a01b03881681523360208201529081018390526060810186905287907f59ef6c251d20f15e60164e5032dc81900d28bf7e44d7767fec8681019700b1299060800160405180910390a2505060016097555050505050565b600082815260d46020908152604080832084845290915280822082905551829184917f9f51c84c988e8d00ca89f1b35e6d26d574b3137d03fff093efd59a7929eaa8189190a35050565b613e7e338484614329565b613e9a5760405162461bcd60e51b815260040161093890614ca2565b600083815260d460209081526040808320858452909152902054811115613f035760405162461bcd60e51b815260206004820152601f60248201527f417661696c61626c6520616d6f756e74206973206e6f7420656e6f7567682e006044820152606401610938565b600083815260d46020908152604080832085845290915281208054839290613f2c908490614b97565b909155505060405182907f890e09616dae8880ed9eec2b0396bcdd94da58b4c103940f381e71b272f356f790600090a2600083815260d46020908152604080832085845290915290205461094b5761094b8383613e29565b600080613f9060d35490565b9050613fa060d380546001019055565b60005b613fb06020850185614e61565b905081101561404357600085815260d4602090815260408083208584528252822060019290830191613fe490880188614e61565b85818110613ff457613ff4614d56565b905060200201602081019061400991906149cf565b6001600160a01b031681526020810191909152604001600020805460ff19169115159190911790558061403b81614d6c565b915050613fa3565b50600084815260d460209081526040808320848452909152908190208435905551819085907fd1acf8f717cf7fa787583c13edc94b43cf2d5e3df650e592aa3c7bb9222899fc906140959087906153ca565b60405180910390a39392505050565b60655460ff166140ed5760405162461bcd60e51b815260206004820152601460248201527314185d5cd8589b194e881b9bdd081c185d5cd95960621b6044820152606401610938565b6065805460ff191690557f5db9ee0a495bf2e6ff9c91a7834c1ba4fdd244a5e8aa4e537bd38aeae4b073aa335b6040516001600160a01b03909116815260200160405180910390a1565b603380546001600160a01b038381166001600160a01b0319831681179093556040519116919082907f8be0079c531659141344cd1fd0a4f28419497f9722a3daafe3b4186f6b6457e090600090a35050565b60655460ff16156141ac5760405162461bcd60e51b815260040161093890614b57565b6065805460ff191660011790557f62e78cea01bee320cd4e420270b5ea74000d11b0c9f74754ebdbfc544b05a25861411a3390565b60006141f4826301ffc9a760e01b614388565b8015610abc575061420d826001600160e01b0319614388565b1592915050565b600054610100900460ff1661423b5760405162461bcd60e51b8152600401610938906153dd565b61124b614471565b600054610100900460ff1661426a5760405162461bcd60e51b8152600401610938906153dd565b61124b6144a1565b600054610100900460ff166142995760405162461bcd60e51b8152600401610938906153dd565b61124b6144d4565b60006127106142b08385615395565b6142ba9190615428565b9392505050565b6000826001600160a01b031682610a2890604051600060405180830381858888f193505050503d8060008114614313576040519150601f19603f3d011682016040523d82523d6000602084013e614318565b606091505b505090508061094b5761094b6153b4565b600082815260d46020908152604080832084845282528083206001600160a01b0387168452600190810190925282205460ff161515148015611211575050600091825260d4602090815260408084209284529190529020541515919050565b604080516001600160e01b0319831660248083019190915282518083039091018152604490910182526020810180516001600160e01b03166301ffc9a760e01b179052905160009190829081906001600160a01b03871690617530906143ef90869061544a565b6000604051808303818686fa925050503d806000811461442b576040519150601f19603f3d011682016040523d82523d6000602084013e614430565b606091505b509150915060208151101561444b5760009350505050610abc565b8180156144675750808060200190518101906144679190614b05565b9695505050505050565b600054610100900460ff166144985760405162461bcd60e51b8152600401610938906153dd565b61124b33614137565b600054610100900460ff166144c85760405162461bcd60e51b8152600401610938906153dd565b6065805460ff19169055565b600054610100900460ff166144fb5760405162461bcd60e51b8152600401610938906153dd565b6001609755565b508054600082559060005260206000209081019061358d91905b80821115614530576000815560010161451c565b5090565b60006020828403121561454657600080fd5b5035919050565b6000806040838503121561456057600080fd5b50508035926020909101359150565b6001600160a01b038116811461358d57600080fd5b60008060006060848603121561459957600080fd5b8335925060208401356145ab8161456f565b929592945050506040919091013590565b6000604082840312156145ce57600080fd5b50919050565b600080604083850312156145e757600080fd5b8235915060208301356001600160401b0381111561460457600080fd5b614610858286016145bc565b9150509250929050565b60008060006040848603121561462f57600080fd5b8335925060208401356001600160401b038082111561464d57600080fd5b818601915086601f83011261466157600080fd5b81358181111561467057600080fd5b87602082850101111561468257600080fd5b6020830194508093505050509250925092565b6000806000606084860312156146aa57600080fd5b505081359360208301359350604090920135919050565b600080604083850312156146d457600080fd5b8235915060208301356146e68161456f565b809150509250929050565b600080600080600060a0868803121561470957600080fd5b85359450602086013561471b8161456f565b93506040860135925060608601356147328161456f565b949793965091946080013592915050565b6000806040838503121561475657600080fd5b82356147618161456f565b946020939093013593505050565b60008060006060848603121561478457600080fd5b8335925060208401359150604084013561479d8161456f565b809150509250925092565b60008083601f8401126147ba57600080fd5b5081356001600160401b038111156147d157600080fd5b6020830191508360208260051b85010111156147ec57600080fd5b9250929050565b60008060008060006080868803121561480b57600080fd5b85359450602086013561481d8161456f565b935060408601356001600160401b038082111561483957600080fd5b61484589838a016147a8565b9095509350606088013591508082111561485e57600080fd5b5061486b888289016145bc565b9150509295509295909350565b600081518084526020808501945080840160005b838110156148a85781518752958201959082019060010161488c565b509495945050505050565b6020815260006142ba6020830184614878565b634e487b7160e01b600052604160045260246000fd5b600082601f8301126148ed57600080fd5b813560206001600160401b0380831115614909576149096148c6565b8260051b604051601f19603f8301168101818110848211171561492e5761492e6148c6565b60405293845285810183019383810192508785111561494c57600080fd5b83870191505b8482101561496b57813583529183019190830190614952565b979650505050505050565b6000806040838503121561498957600080fd5b82356001600160401b03808211156149a057600080fd5b6149ac868387016148dc565b935060208501359150808211156149c257600080fd5b50614610858286016148dc565b6000602082840312156149e157600080fd5b81356142ba8161456f565b60008060008060608587031215614a0257600080fd5b8435935060208501356001600160401b0380821115614a2057600080fd5b614a2c888389016147a8565b90955093506040870135915080821115614a4557600080fd5b50614a52878288016145bc565b91505092959194509250565b60008060008060808587031215614a7457600080fd5b8435614a7f8161456f565b93506020850135614a8f8161456f565b92506040850135614a9f8161456f565b91506060850135614aaf8161456f565b939692955090935050565b60008060008060808587031215614ad057600080fd5b843593506020850135614ae28161456f565b93969395505050506040820135916060013590565b801515811461358d57600080fd5b600060208284031215614b1757600080fd5b81516142ba81614af7565b6020808252818101527f4f776e61626c653a2063616c6c6572206973206e6f7420746865206f776e6572604082015260600190565b60208082526010908201526f14185d5cd8589b194e881c185d5cd95960821b604082015260600190565b634e487b7160e01b600052601160045260246000fd5b600082821015614ba957614ba9614b81565b500390565b6020808252600b908201526a20b137bb3290189818129760a91b604082015260600190565b60208082526010908201526f22bb32b73a1034b9903830bab9b2b21760811b604082015260600190565b600060208284031215614c0f57600080fd5b5051919050565b60208082526017908201527f436c61696d657220686173206f6e65207469636b65742e000000000000000000604082015260600190565b6001600160a01b0394851681529290931660208301526040820152606081019190915260a06080820181905260009082015260c00190565b600060208284031215614c9757600080fd5b81516142ba8161456f565b6020808252600c908201526b4e6f7420616c6c6f7765642160a01b604082015260600190565b81835281816020850137506000828201602090810191909152601f909101601f19169091010190565b8381526040602082015260006135c8604083018486614cc8565b602081526000611211602083018486614cc8565b6020808252601f908201527f4f6e6c792041646d696e20636f6e747261637420697320616c6c6f7765642100604082015260600190565b634e487b7160e01b600052603260045260246000fd5b6000600019821415614d8057614d80614b81565b5060010190565b600060208284031215614d9957600080fd5b815161ffff811681146142ba57600080fd5b600061ffff83811690831681811015614dc657614dc6614b81565b039392505050565b6000823560fe19833603018112614de457600080fd5b9190910192915050565b8035614df981614af7565b919050565b600060208284031215614e1057600080fd5b81356142ba81614af7565b6000808335601e19843603018112614e3257600080fd5b8301803591506001600160401b03821115614e4c57600080fd5b6020019150368190038213156147ec57600080fd5b6000808335601e19843603018112614e7857600080fd5b8301803591506001600160401b03821115614e9257600080fd5b6020019150600581901b36038213156147ec57600080fd5b60008235603e19833603018112614de457600080fd5b8183526000602080850194508260005b858110156148a8578135614ee38161456f565b6001600160a01b031687529582019590820190600101614ed0565b6000808335601e19843603018112614f1557600080fd5b83016020810192503590506001600160401b03811115614f3457600080fd5b8060051b36038313156147ec57600080fd5b606081526000614f596060830188614878565b602083820381850152818783528183019050818860051b8401018960005b8a811015614fb157858303601f19018452614f92828d614efe565b614f9d858284614ec0565b958701959450505090840190600101614f77565b505085810360408701528681528281019350600587901b8101830191508760005b8881101561506f57601f1980848603018752614fee838c614efe565b808752878701600582901b880189018360005b8481101561505757868b840301845261501a8287614efe565b8085526001600160fb1b0381111561503157600080fd5b8060051b905080828f870137600094018d0193845250928b0192908b0190600101615001565b50509989019997505050928601925050600101614fd2565b50919b9a5050505050505050505050565b60005b8381101561509b578181015183820152602001615083565b8381111561185f5750506000910152565b600081518084526150c4816020860160208601615080565b601f01601f19169290920160200192915050565b6001600160a01b038516815260a060208083018290526000916150fd90840187614878565b838103604085015261510f8187614878565b905083810360608501528085518083528383019150838160051b84010184880160005b8381101561516057601f1986840301855261514e8383516150ac565b94870194925090860190600101615132565b5050868103608088015260008152602081019b9a5050505050505050505050565b6000808335601e1984360301811261519857600080fd5b83016020810192503590506001600160401b038111156151b757600080fd5b8036038313156147ec57600080fd5b8035825260006151d96020830183614efe565b604060208601526135c8604086018284614ec0565b81835260006020808501808196508560051b81019150846000805b88811015615248578385038a528235603e19893603018112615229578283fd5b615235868a83016151c6565b9a87019a95505091850191600101615209565b509298975050505050505050565b60018060a01b03851681528360208201526080604082015282356080820152602083013560a0820152604083013560c0820152606083013560e0820152600060808401356152a381614af7565b6101006152b38185018315159052565b6152c060a0870187615181565b9250816101208601526152d861018086018483614cc8565b925050506152e860c08601614dee565b15156101408401526152fd60e0860186614efe565b848303607f19016101608601526153158382846151ee565b92505050828103606084015261496b81856150ac565b6001600160a01b038416815260606020820181905260009061534f90830185614878565b82810360408401526144678185614878565b6060815260006153746060830186614878565b6001600160a01b038516602084015282810360408401526144678185614878565b60008160001904831182151516156153af576153af614b81565b500290565b634e487b7160e01b600052600160045260246000fd5b6020815260006142ba60208301846151c6565b6020808252602b908201527f496e697469616c697a61626c653a20636f6e7472616374206973206e6f74206960408201526a6e697469616c697a696e6760a81b606082015260800190565b60008261544557634e487b7160e01b600052601260045260246000fd5b500490565b60008251614de481846020870161508056fea2646970667358221220d91f3a3c17eb117d9f7c9c3303039f16f5eea59d59a487d8ff94243fe1b5338d64736f6c63430008090033",
  "linkReferences": {},
  "deployedLinkReferences": {}
}