{
  "_format": "hh-sol-artifact-1",
  "contractName": "Ticket",
  "sourceName": "src/Ticket.sol",
  "abi": [
    {
      "anonymous": false,
      "inputs": [
        {
          "indexed": true,
          "internalType": "address",
          "name": "account",
          "type": "address"
        },
        {
          "indexed": true,
          "internalType": "address",
          "name": "operator",
          "type": "address"
        },
        {
          "indexed": false,
          "internalType": "bool",
          "name": "approved",
          "type": "bool"
        }
      ],
      "name": "ApprovalForAll",
      "type": "event"
    },
    {
      "anonymous": false,
      "inputs": [
        {
          "indexed": true,
          "internalType": "address",
          "name": "previousOwner",
          "type": "address"
        },
        {
          "indexed": true,
          "internalType": "address",
          "name": "newOwner",
          "type": "address"
        }
      ],
      "name": "OwnershipTransferred",
      "type": "event"
    },
    {
      "anonymous": false,
      "inputs": [
        {
          "indexed": false,
          "internalType": "address",
          "name": "account",
          "type": "address"
        }
      ],
      "name": "Paused",
      "type": "event"
    },
    {
      "anonymous": false,
      "inputs": [
        {
          "indexed": true,
          "internalType": "address",
          "name": "operator",
          "type": "address"
        },
        {
          "indexed": true,
          "internalType": "address",
          "name": "from",
          "type": "address"
        },
        {
          "indexed": true,
          "internalType": "address",
          "name": "to",
          "type": "address"
        },
        {
          "indexed": false,
          "internalType": "uint256[]",
          "name": "ids",
          "type": "uint256[]"
        },
        {
          "indexed": false,
          "internalType": "uint256[]",
          "name": "values",
          "type": "uint256[]"
        }
      ],
      "name": "TransferBatch",
      "type": "event"
    },
    {
      "anonymous": false,
      "inputs": [
        {
          "indexed": true,
          "internalType": "address",
          "name": "operator",
          "type": "address"
        },
        {
          "indexed": true,
          "internalType": "address",
          "name": "from",
          "type": "address"
        },
        {
          "indexed": true,
          "internalType": "address",
          "name": "to",
          "type": "address"
        },
        {
          "indexed": false,
          "internalType": "uint256",
          "name": "id",
          "type": "uint256"
        },
        {
          "indexed": false,
          "internalType": "uint256",
          "name": "value",
          "type": "uint256"
        }
      ],
      "name": "TransferSingle",
      "type": "event"
    },
    {
      "anonymous": false,
      "inputs": [
        {
          "indexed": false,
          "internalType": "string",
          "name": "value",
          "type": "string"
        },
        {
          "indexed": true,
          "internalType": "uint256",
          "name": "id",
          "type": "uint256"
        }
      ],
      "name": "URI",
      "type": "event"
    },
    {
      "anonymous": false,
      "inputs": [
        {
          "indexed": false,
          "internalType": "address",
          "name": "account",
          "type": "address"
        }
      ],
      "name": "Unpaused",
      "type": "event"
    },
    {
      "inputs": [
        {
          "internalType": "address",
          "name": "account",
          "type": "address"
        },
        {
          "internalType": "uint256",
          "name": "id",
          "type": "uint256"
        }
      ],
      "name": "balanceOf",
      "outputs": [
        {
          "internalType": "uint256",
          "name": "",
          "type": "uint256"
        }
      ],
      "stateMutability": "view",
      "type": "function"
    },
    {
      "inputs": [
        {
          "internalType": "address[]",
          "name": "accounts",
          "type": "address[]"
        },
        {
          "internalType": "uint256[]",
          "name": "ids",
          "type": "uint256[]"
        }
      ],
      "name": "balanceOfBatch",
      "outputs": [
        {
          "internalType": "uint256[]",
          "name": "",
          "type": "uint256[]"
        }
      ],
      "stateMutability": "view",
      "type": "function"
    },
    {
      "inputs": [],
      "name": "baseURI",
      "outputs": [
        {
          "internalType": "string",
          "name": "",
          "type": "string"
        }
      ],
      "stateMutability": "view",
      "type": "function"
    },
    {
      "inputs": [
        {
          "internalType": "address",
          "name": "from",
          "type": "address"
        },
        {
          "internalType": "address[]",
          "name": "to",
          "type": "address[]"
        },
        {
          "internalType": "uint256",
          "name": "id",
          "type": "uint256"
        },
        {
          "internalType": "uint256[]",
          "name": "amounts",
          "type": "uint256[]"
        }
      ],
      "name": "bulkTransfer",
      "outputs": [],
      "stateMutability": "nonpayable",
      "type": "function"
    },
    {
      "inputs": [
        {
          "internalType": "address",
          "name": "account",
          "type": "address"
        },
        {
          "internalType": "uint256",
          "name": "id",
          "type": "uint256"
        },
        {
          "internalType": "uint256",
          "name": "amount",
          "type": "uint256"
        }
      ],
      "name": "burn",
      "outputs": [],
      "stateMutability": "nonpayable",
      "type": "function"
    },
    {
      "inputs": [
        {
          "internalType": "address",
          "name": "account",
          "type": "address"
        },
        {
          "internalType": "uint256[]",
          "name": "ids",
          "type": "uint256[]"
        },
        {
          "internalType": "uint256[]",
          "name": "amounts",
          "type": "uint256[]"
        }
      ],
      "name": "burnBatch",
      "outputs": [],
      "stateMutability": "nonpayable",
      "type": "function"
    },
    {
      "inputs": [
        {
          "internalType": "uint256",
          "name": "id",
          "type": "uint256"
        }
      ],
      "name": "exists",
      "outputs": [
        {
          "internalType": "bool",
          "name": "",
          "type": "bool"
        }
      ],
      "stateMutability": "view",
      "type": "function"
    },
    {
      "inputs": [
        {
          "internalType": "address",
          "name": "_marketplaceAddress",
          "type": "address"
        }
      ],
      "name": "initialize",
      "outputs": [],
      "stateMutability": "nonpayable",
      "type": "function"
    },
    {
      "inputs": [
        {
          "internalType": "address",
          "name": "account",
          "type": "address"
        },
        {
          "internalType": "address",
          "name": "operator",
          "type": "address"
        }
      ],
      "name": "isApprovedForAll",
      "outputs": [
        {
          "internalType": "bool",
          "name": "",
          "type": "bool"
        }
      ],
      "stateMutability": "view",
      "type": "function"
    },
    {
      "inputs": [],
      "name": "marketplaceAddress",
      "outputs": [
        {
          "internalType": "address",
          "name": "",
          "type": "address"
        }
      ],
      "stateMutability": "view",
      "type": "function"
    },
    {
      "inputs": [
        {
          "internalType": "address",
          "name": "to",
          "type": "address"
        },
        {
          "internalType": "uint256[]",
          "name": "ids",
          "type": "uint256[]"
        },
        {
          "internalType": "uint256[]",
          "name": "amounts",
          "type": "uint256[]"
        },
        {
          "internalType": "string[]",
          "name": "_uris",
          "type": "string[]"
        },
        {
          "internalType": "bytes",
          "name": "data",
          "type": "bytes"
        }
      ],
      "name": "mintBatch",
      "outputs": [],
      "stateMutability": "nonpayable",
      "type": "function"
    },
    {
      "inputs": [],
      "name": "name",
      "outputs": [
        {
          "internalType": "string",
          "name": "",
          "type": "string"
        }
      ],
      "stateMutability": "view",
      "type": "function"
    },
    {
      "inputs": [],
      "name": "owner",
      "outputs": [
        {
          "internalType": "address",
          "name": "",
          "type": "address"
        }
      ],
      "stateMutability": "view",
      "type": "function"
    },
    {
      "inputs": [],
      "name": "pause",
      "outputs": [],
      "stateMutability": "nonpayable",
      "type": "function"
    },
    {
      "inputs": [],
      "name": "paused",
      "outputs": [
        {
          "internalType": "bool",
          "name": "",
          "type": "bool"
        }
      ],
      "stateMutability": "view",
      "type": "function"
    },
    {
      "inputs": [],
      "name": "renounceOwnership",
      "outputs": [],
      "stateMutability": "nonpayable",
      "type": "function"
    },
    {
      "inputs": [
        {
          "internalType": "address",
          "name": "from",
          "type": "address"
        },
        {
          "internalType": "address",
          "name": "to",
          "type": "address"
        },
        {
          "internalType": "uint256[]",
          "name": "ids",
          "type": "uint256[]"
        },
        {
          "internalType": "uint256[]",
          "name": "amounts",
          "type": "uint256[]"
        },
        {
          "internalType": "bytes",
          "name": "data",
          "type": "bytes"
        }
      ],
      "name": "safeBatchTransferFrom",
      "outputs": [],
      "stateMutability": "nonpayable",
      "type": "function"
    },
    {
      "inputs": [
        {
          "internalType": "address",
          "name": "from",
          "type": "address"
        },
        {
          "internalType": "address",
          "name": "to",
          "type": "address"
        },
        {
          "internalType": "uint256",
          "name": "id",
          "type": "uint256"
        },
        {
          "internalType": "uint256",
          "name": "amount",
          "type": "uint256"
        },
        {
          "internalType": "bytes",
          "name": "data",
          "type": "bytes"
        }
      ],
      "name": "safeTransferFrom",
      "outputs": [],
      "stateMutability": "nonpayable",
      "type": "function"
    },
    {
      "inputs": [
        {
          "internalType": "address",
          "name": "operator",
          "type": "address"
        },
        {
          "internalType": "bool",
          "name": "approved",
          "type": "bool"
        }
      ],
      "name": "setApprovalForAll",
      "outputs": [],
      "stateMutability": "nonpayable",
      "type": "function"
    },
    {
      "inputs": [
        {
          "internalType": "uint256",
          "name": "tokenId",
          "type": "uint256"
        },
        {
          "internalType": "string",
          "name": "tokenURI",
          "type": "string"
        }
      ],
      "name": "setUri",
      "outputs": [],
      "stateMutability": "nonpayable",
      "type": "function"
    },
    {
      "inputs": [
        {
          "internalType": "bytes4",
          "name": "interfaceId",
          "type": "bytes4"
        }
      ],
      "name": "supportsInterface",
      "outputs": [
        {
          "internalType": "bool",
          "name": "",
          "type": "bool"
        }
      ],
      "stateMutability": "view",
      "type": "function"
    },
    {
      "inputs": [],
      "name": "symbol",
      "outputs": [
        {
          "internalType": "string",
          "name": "",
          "type": "string"
        }
      ],
      "stateMutability": "view",
      "type": "function"
    },
    {
      "inputs": [
        {
          "internalType": "uint256",
          "name": "id",
          "type": "uint256"
        }
      ],
      "name": "totalSupply",
      "outputs": [
        {
          "internalType": "uint256",
          "name": "",
          "type": "uint256"
        }
      ],
      "stateMutability": "view",
      "type": "function"
    },
    {
      "inputs": [
        {
          "internalType": "address",
          "name": "newOwner",
          "type": "address"
        }
      ],
      "name": "transferOwnership",
      "outputs": [],
      "stateMutability": "nonpayable",
      "type": "function"
    },
    {
      "inputs": [],
      "name": "unpause",
      "outputs": [],
      "stateMutability": "nonpayable",
      "type": "function"
    },
    {
      "inputs": [
        {
          "internalType": "uint256",
          "name": "tokenId",
          "type": "uint256"
        }
      ],
      "name": "uri",
      "outputs": [
        {
          "internalType": "string",
          "name": "",
          "type": "string"
        }
      ],
      "stateMutability": "view",
      "type": "function"
    },
    {
      "inputs": [
        {
          "internalType": "uint256",
          "name": "",
          "type": "uint256"
        }
      ],
      "name": "uris",
      "outputs": [
        {
          "internalType": "string",
          "name": "",
          "type": "string"
        }
      ],
      "stateMutability": "view",
      "type": "function"
    }
  ],
  "bytecode": "0x608060405234801561001057600080fd5b50612c9f806100206000396000f3fe608060405234801561001057600080fd5b50600436106101a85760003560e01c8063782f08ae116100f9578063bd85b03911610097578063e985e9c511610071578063e985e9c514610386578063f242432a146103c2578063f2fde38b146103d5578063f5298aca146103e857600080fd5b8063bd85b0391461033f578063c4d66de81461035f578063daa17f491461037257600080fd5b806395d89b41116100d357806395d89b41146102fe578063a22cb46514610306578063a3a5bc8314610319578063b9571e841461032c57600080fd5b8063782f08ae146102be5780638456cb59146102d15780638da5cb5b146102d957600080fd5b80633f4ba83a116101665780635c975abb116101405780635c975abb146102905780636b20c4541461029b5780636c0360eb146102ae578063715018a6146102b657600080fd5b80633f4ba83a146102465780634e1273f41461024e5780634f558e791461026e57600080fd5b8062fdd58e146101ad57806301ffc9a7146101d357806306fdde03146101f65780630e89341c1461020b5780631253c5461461021e5780632eb2c2d614610231575b600080fd5b6101c06101bb366004611f09565b6103fb565b6040519081526020015b60405180910390f35b6101e66101e1366004611f49565b610494565b60405190151581526020016101ca565b6101fe6104e6565b6040516101ca9190611fba565b6101fe610219366004611fcd565b610575565b6101fe61022c366004611fcd565b6105b1565b61024461023f36600461212f565b6105cb565b005b610244610662565b61026161025c3660046121d8565b610696565b6040516101ca91906122dd565b6101e661027c366004611fcd565b600090815260976020526040902054151590565b60fb5460ff166101e6565b6102446102a93660046122f0565b6107bf565b6101fe610837565b610244610845565b6102446102cc366004612363565b610879565b6102446108e7565b60c9546001600160a01b03165b6040516001600160a01b0390911681526020016101ca565b6101fe610919565b6102446103143660046123ad565b610927565b61024461032736600461242f565b610936565b61024461033a3660046124b8565b6109d9565b6101c061034d366004611fcd565b60009081526097602052604090205490565b61024461036d3660046125e5565b610b25565b61012f546102e6906001600160a01b031681565b6101e6610394366004612600565b6001600160a01b03918216600090815260666020908152604080832093909416825291909152205460ff1690565b6102446103d0366004612633565b610d44565b6102446103e33660046125e5565b610dcb565b6102446103f6366004612697565b610e66565b60006001600160a01b03831661046c5760405162461bcd60e51b815260206004820152602b60248201527f455243313135353a2062616c616e636520717565727920666f7220746865207a60448201526a65726f206164647265737360a81b60648201526084015b60405180910390fd5b5060009081526065602090815260408083206001600160a01b03949094168352929052205490565b60006001600160e01b03198216636cdb3d1360e11b14806104c557506001600160e01b031982166303a24d0760e21b145b806104e057506301ffc9a760e01b6001600160e01b03198316145b92915050565b61013080546104f4906126ca565b80601f0160208091040260200160405190810160405280929190818152602001828054610520906126ca565b801561056d5780601f106105425761010080835404028352916020019161056d565b820191906000526020600020905b81548152906001019060200180831161055057829003601f168201915b505050505081565b600081815261012d6020908152604091829020915160609261059b9261012e920161279f565b6040516020818303038152906040529050919050565b61012d60205260009081526040902080546104f4906126ca565b6001600160a01b0385163314806105e757506105e78533610394565b61064e5760405162461bcd60e51b815260206004820152603260248201527f455243313135353a207472616e736665722063616c6c6572206973206e6f74206044820152711bdddb995c881b9bdc88185c1c1c9bdd995960721b6064820152608401610463565b61065b8585858585610ebf565b5050505050565b60c9546001600160a01b0316331461068c5760405162461bcd60e51b8152600401610463906127bc565b610694611064565b565b606081518351146106fb5760405162461bcd60e51b815260206004820152602960248201527f455243313135353a206163636f756e747320616e6420696473206c656e677468604482015268040dad2e6dac2e8c6d60bb1b6064820152608401610463565b600083516001600160401b0381111561071657610716611fe6565b60405190808252806020026020018201604052801561073f578160200160208202803683370190505b50905060005b84518110156107b75761078a858281518110610763576107636127f1565b602002602001015185838151811061077d5761077d6127f1565b60200260200101516103fb565b82828151811061079c5761079c6127f1565b60209081029190910101526107b08161281d565b9050610745565b509392505050565b61012f546001600160a01b031633146107ea5760405162461bcd60e51b815260040161046390612838565b60fb5460ff161561080d5760405162461bcd60e51b81526004016104639061286f565b6108188383836110f7565b61012f546108329084906001600160a01b03166001611288565b505050565b61012e80546104f4906126ca565b60c9546001600160a01b0316331461086f5760405162461bcd60e51b8152600401610463906127bc565b6106946000611369565b61012f546001600160a01b031633146108a45760405162461bcd60e51b815260040161046390612838565b60fb5460ff16156108c75760405162461bcd60e51b81526004016104639061286f565b600082815261012d60209081526040909120825161083292840190611e54565b60c9546001600160a01b031633146109115760405162461bcd60e51b8152600401610463906127bc565b6106946113bb565b61013180546104f4906126ca565b610932338383611288565b5050565b60fb5460ff16156109595760405162461bcd60e51b81526004016104639061286f565b60005b848110156109d0576109be8787878481811061097a5761097a6127f1565b905060200201602081019061098f91906125e5565b868686868181106109a2576109a26127f1565b9050602002013560405180602001604052806000815250610d44565b806109c88161281d565b91505061095c565b50505050505050565b61012f546001600160a01b03163314610a045760405162461bcd60e51b815260040161046390612838565b60fb5460ff1615610a275760405162461bcd60e51b81526004016104639061286f565b82518451148015610a39575081518451145b610a7e5760405162461bcd60e51b815260206004820152601660248201527520b93930bc903632b733ba341036b4b9b6b0ba31b41760511b6044820152606401610463565b610a8a85858584611413565b61012f54610aa49086906001600160a01b03166001611288565b60005b8451811015610b1d57828181518110610ac257610ac26127f1565b602002602001015161012d6000878481518110610ae157610ae16127f1565b602002602001015181526020019081526020016000209080519060200190610b0a929190611e54565b5080610b158161281d565b915050610aa7565b505050505050565b600054610100900460ff16610b405760005460ff1615610b44565b303b155b610ba75760405162461bcd60e51b815260206004820152602e60248201527f496e697469616c697a61626c653a20636f6e747261637420697320616c72656160448201526d191e481a5b9a5d1a585b1a5e995960921b6064820152608401610463565b600054610100900460ff16158015610bc9576000805461ffff19166101011790555b61012f80546001600160a01b0319166001600160a01b03841617905560408051808201909152601f8082527f68747470733a2f2f697066732e66616e737a6f69642e636f6d2f697066732f006020909201918252610c2a9161012e91611e54565b5060408051808201909152600b8082526a11985b9e88151a58dad95d60aa1b6020909201918252610c5e9161013091611e54565b50604080518082019091526003808252621512d560ea1b6020909201918252610c8a9161013191611e54565b50610d1f61012e8054610c9c906126ca565b80601f0160208091040260200160405190810160405280929190818152602001828054610cc8906126ca565b8015610d155780601f10610cea57610100808354040283529160200191610d15565b820191906000526020600020905b815481529060010190602001808311610cf857829003601f168201915b50505050506115a8565b610d276115d8565b610d2f611607565b8015610932576000805461ff00191690555050565b6001600160a01b038516331480610d605750610d608533610394565b610dbe5760405162461bcd60e51b815260206004820152602960248201527f455243313135353a2063616c6c6572206973206e6f74206f776e6572206e6f7260448201526808185c1c1c9bdd995960ba1b6064820152608401610463565b61065b8585858585611636565b60c9546001600160a01b03163314610df55760405162461bcd60e51b8152600401610463906127bc565b6001600160a01b038116610e5a5760405162461bcd60e51b815260206004820152602660248201527f4f776e61626c653a206e6577206f776e657220697320746865207a65726f206160448201526564647265737360d01b6064820152608401610463565b610e6381611369565b50565b61012f546001600160a01b03163314610e915760405162461bcd60e51b815260040161046390612838565b60fb5460ff1615610eb45760405162461bcd60e51b81526004016104639061286f565b61081883838361175d565b8151835114610ee05760405162461bcd60e51b815260040161046390612899565b6001600160a01b038416610f065760405162461bcd60e51b8152600401610463906128e1565b33610f15818787878787611862565b60005b8451811015610ffe576000858281518110610f3557610f356127f1565b602002602001015190506000858381518110610f5357610f536127f1565b60209081029190910181015160008481526065835260408082206001600160a01b038e168352909352919091205490915081811015610fa45760405162461bcd60e51b815260040161046390612926565b60008381526065602090815260408083206001600160a01b038e8116855292528083208585039055908b16825281208054849290610fe3908490612970565b9250508190555050505080610ff79061281d565b9050610f18565b50846001600160a01b0316866001600160a01b0316826001600160a01b03167f4a39dc06d4c0dbc64b70af90fd698a233a518aa5d07e595d983b8c0526c8f7fb878760405161104e929190612988565b60405180910390a4610b1d818787878787611a26565b60fb5460ff166110ad5760405162461bcd60e51b815260206004820152601460248201527314185d5cd8589b194e881b9bdd081c185d5cd95960621b6044820152606401610463565b60fb805460ff191690557f5db9ee0a495bf2e6ff9c91a7834c1ba4fdd244a5e8aa4e537bd38aeae4b073aa335b6040516001600160a01b03909116815260200160405180910390a1565b6001600160a01b03831661111d5760405162461bcd60e51b8152600401610463906129b6565b805182511461113e5760405162461bcd60e51b815260040161046390612899565b600033905061116181856000868660405180602001604052806000815250611862565b60005b8351811015611229576000848281518110611181576111816127f1565b60200260200101519050600084838151811061119f5761119f6127f1565b60209081029190910181015160008481526065835260408082206001600160a01b038c1683529093529190912054909150818110156111f05760405162461bcd60e51b8152600401610463906129f9565b60009283526065602090815260408085206001600160a01b038b16865290915290922091039055806112218161281d565b915050611164565b5060006001600160a01b0316846001600160a01b0316826001600160a01b03167f4a39dc06d4c0dbc64b70af90fd698a233a518aa5d07e595d983b8c0526c8f7fb868660405161127a929190612988565b60405180910390a450505050565b816001600160a01b0316836001600160a01b031614156112fc5760405162461bcd60e51b815260206004820152602960248201527f455243313135353a2073657474696e6720617070726f76616c20737461747573604482015268103337b91039b2b63360b91b6064820152608401610463565b6001600160a01b03838116600081815260666020908152604080832094871680845294825291829020805460ff191686151590811790915591519182527f17307eab39ab6107e8899845ad3d59bd9653f200f220920489ca2b5937696c31910160405180910390a3505050565b60c980546001600160a01b038381166001600160a01b0319831681179093556040519116919082907f8be0079c531659141344cd1fd0a4f28419497f9722a3daafe3b4186f6b6457e090600090a35050565b60fb5460ff16156113de5760405162461bcd60e51b81526004016104639061286f565b60fb805460ff191660011790557f62e78cea01bee320cd4e420270b5ea74000d11b0c9f74754ebdbfc544b05a2586110da3390565b6001600160a01b0384166114735760405162461bcd60e51b815260206004820152602160248201527f455243313135353a206d696e7420746f20746865207a65726f206164647265736044820152607360f81b6064820152608401610463565b81518351146114945760405162461bcd60e51b815260040161046390612899565b336114a481600087878787611862565b60005b8451811015611540578381815181106114c2576114c26127f1565b6020026020010151606560008784815181106114e0576114e06127f1565b602002602001015181526020019081526020016000206000886001600160a01b03166001600160a01b0316815260200190815260200160002060008282546115289190612970565b909155508190506115388161281d565b9150506114a7565b50846001600160a01b031660006001600160a01b0316826001600160a01b03167f4a39dc06d4c0dbc64b70af90fd698a233a518aa5d07e595d983b8c0526c8f7fb8787604051611591929190612988565b60405180910390a461065b81600087878787611a26565b600054610100900460ff166115cf5760405162461bcd60e51b815260040161046390612a3d565b610e6381611b91565b600054610100900460ff166115ff5760405162461bcd60e51b815260040161046390612a3d565b610694611bc1565b600054610100900460ff1661162e5760405162461bcd60e51b815260040161046390612a3d565b610694611bf1565b6001600160a01b03841661165c5760405162461bcd60e51b8152600401610463906128e1565b3361167b81878761166c88611c24565b61167588611c24565b87611862565b60008481526065602090815260408083206001600160a01b038a168452909152902054838110156116be5760405162461bcd60e51b815260040161046390612926565b60008581526065602090815260408083206001600160a01b038b81168552925280832087850390559088168252812080548692906116fd908490612970565b909155505060408051868152602081018690526001600160a01b03808916928a821692918616917fc3d58168c5ae7397731d063d5bbf3d657854427343f4c083240f7aacaa2d0f62910160405180910390a46109d0828888888888611c6f565b6001600160a01b0383166117835760405162461bcd60e51b8152600401610463906129b6565b336117b28185600061179487611c24565b61179d87611c24565b60405180602001604052806000815250611862565b60008381526065602090815260408083206001600160a01b0388168452909152902054828110156117f55760405162461bcd60e51b8152600401610463906129f9565b60008481526065602090815260408083206001600160a01b03898116808652918452828520888703905582518981529384018890529092908616917fc3d58168c5ae7397731d063d5bbf3d657854427343f4c083240f7aacaa2d0f62910160405180910390a45050505050565b60fb5460ff16156118855760405162461bcd60e51b81526004016104639061286f565b60005b83518110156119fd5761012f5484516001600160a01b0390911690631552a855908690849081106118bb576118bb6127f1565b60200260200101516040518263ffffffff1660e01b81526004016118e191815260200190565b60206040518083038186803b1580156118f957600080fd5b505afa15801561190d573d6000803e3d6000fd5b505050506040513d601f19601f820116820180604052508101906119319190612a88565b156119715760405162461bcd60e51b815260206004820152601060248201526f22bb32b73a1034b9903830bab9b2b21760811b6044820152606401610463565b856001600160a01b0316876001600160a01b0316148061199f575061012f546001600160a01b038881169116145b6119eb5760405162461bcd60e51b815260206004820152601e60248201527f4f70657261746f72206973206e6f74206d6b74206e6f72206f776e65722e00006044820152606401610463565b806119f58161281d565b915050611888565b50611a0c868686868686611d39565b61012f54610b1d9085906001600160a01b03166001611288565b6001600160a01b0384163b15610b1d5760405163bc197c8160e01b81526001600160a01b0385169063bc197c8190611a6a9089908990889088908890600401612aa5565b602060405180830381600087803b158015611a8457600080fd5b505af1925050508015611ab4575060408051601f3d908101601f19168201909252611ab191810190612b03565b60015b611b6157611ac0612b20565b806308c379a01415611afa5750611ad5612b3c565b80611ae05750611afc565b8060405162461bcd60e51b81526004016104639190611fba565b505b60405162461bcd60e51b815260206004820152603460248201527f455243313135353a207472616e7366657220746f206e6f6e20455243313135356044820152732932b1b2b4bb32b91034b6b83632b6b2b73a32b960611b6064820152608401610463565b6001600160e01b0319811663bc197c8160e01b146109d05760405162461bcd60e51b815260040161046390612bc5565b600054610100900460ff16611bb85760405162461bcd60e51b815260040161046390612a3d565b610e6381611e45565b600054610100900460ff16611be85760405162461bcd60e51b815260040161046390612a3d565b61069433611369565b600054610100900460ff16611c185760405162461bcd60e51b815260040161046390612a3d565b60fb805460ff19169055565b60408051600180825281830190925260609160009190602080830190803683370190505090508281600081518110611c5e57611c5e6127f1565b602090810291909101015292915050565b6001600160a01b0384163b15610b1d5760405163f23a6e6160e01b81526001600160a01b0385169063f23a6e6190611cb39089908990889088908890600401612c0d565b602060405180830381600087803b158015611ccd57600080fd5b505af1925050508015611cfd575060408051601f3d908101601f19168201909252611cfa91810190612b03565b60015b611d0957611ac0612b20565b6001600160e01b0319811663f23a6e6160e01b146109d05760405162461bcd60e51b815260040161046390612bc5565b6001600160a01b038516611dc05760005b8351811015611dbe57828181518110611d6557611d656127f1565b602002602001015160976000868481518110611d8357611d836127f1565b602002602001015181526020019081526020016000206000828254611da89190612970565b90915550611db790508161281d565b9050611d4a565b505b6001600160a01b038416610b1d5760005b83518110156109d057828181518110611dec57611dec6127f1565b602002602001015160976000868481518110611e0a57611e0a6127f1565b602002602001015181526020019081526020016000206000828254611e2f9190612c52565b90915550611e3e90508161281d565b9050611dd1565b80516109329060679060208401905b828054611e60906126ca565b90600052602060002090601f016020900481019282611e825760008555611ec8565b82601f10611e9b57805160ff1916838001178555611ec8565b82800160010185558215611ec8579182015b82811115611ec8578251825591602001919060010190611ead565b50611ed4929150611ed8565b5090565b5b80821115611ed45760008155600101611ed9565b80356001600160a01b0381168114611f0457600080fd5b919050565b60008060408385031215611f1c57600080fd5b611f2583611eed565b946020939093013593505050565b6001600160e01b031981168114610e6357600080fd5b600060208284031215611f5b57600080fd5b8135611f6681611f33565b9392505050565b6000815180845260005b81811015611f9357602081850181015186830182015201611f77565b81811115611fa5576000602083870101525b50601f01601f19169290920160200192915050565b602081526000611f666020830184611f6d565b600060208284031215611fdf57600080fd5b5035919050565b634e487b7160e01b600052604160045260246000fd5b601f8201601f191681016001600160401b038111828210171561202157612021611fe6565b6040525050565b60006001600160401b0382111561204157612041611fe6565b5060051b60200190565b600082601f83011261205c57600080fd5b8135602061206982612028565b6040516120768282611ffc565b83815260059390931b850182019282810191508684111561209657600080fd5b8286015b848110156120b1578035835291830191830161209a565b509695505050505050565b600082601f8301126120cd57600080fd5b81356001600160401b038111156120e6576120e6611fe6565b6040516120fd601f8301601f191660200182611ffc565b81815284602083860101111561211257600080fd5b816020850160208301376000918101602001919091529392505050565b600080600080600060a0868803121561214757600080fd5b61215086611eed565b945061215e60208701611eed565b935060408601356001600160401b038082111561217a57600080fd5b61218689838a0161204b565b9450606088013591508082111561219c57600080fd5b6121a889838a0161204b565b935060808801359150808211156121be57600080fd5b506121cb888289016120bc565b9150509295509295909350565b600080604083850312156121eb57600080fd5b82356001600160401b038082111561220257600080fd5b818501915085601f83011261221657600080fd5b8135602061222382612028565b6040516122308282611ffc565b83815260059390931b850182019282810191508984111561225057600080fd5b948201945b838610156122755761226686611eed565b82529482019490820190612255565b9650508601359250508082111561228b57600080fd5b506122988582860161204b565b9150509250929050565b600081518084526020808501945080840160005b838110156122d2578151875295820195908201906001016122b6565b509495945050505050565b602081526000611f6660208301846122a2565b60008060006060848603121561230557600080fd5b61230e84611eed565b925060208401356001600160401b038082111561232a57600080fd5b6123368783880161204b565b9350604086013591508082111561234c57600080fd5b506123598682870161204b565b9150509250925092565b6000806040838503121561237657600080fd5b8235915060208301356001600160401b0381111561239357600080fd5b612298858286016120bc565b8015158114610e6357600080fd5b600080604083850312156123c057600080fd5b6123c983611eed565b915060208301356123d98161239f565b809150509250929050565b60008083601f8401126123f657600080fd5b5081356001600160401b0381111561240d57600080fd5b6020830191508360208260051b850101111561242857600080fd5b9250929050565b6000806000806000806080878903121561244857600080fd5b61245187611eed565b955060208701356001600160401b038082111561246d57600080fd5b6124798a838b016123e4565b909750955060408901359450606089013591508082111561249957600080fd5b506124a689828a016123e4565b979a9699509497509295939492505050565b600080600080600060a086880312156124d057600080fd5b6124d986611eed565b94506020808701356001600160401b03808211156124f657600080fd5b6125028a838b0161204b565b9650604089013591508082111561251857600080fd5b6125248a838b0161204b565b9550606089013591508082111561253a57600080fd5b818901915089601f83011261254e57600080fd5b813561255981612028565b6040516125668282611ffc565b82815260059290921b840185019185810191508c83111561258657600080fd5b8585015b838110156125be578035858111156125a25760008081fd5b6125b08f89838a01016120bc565b84525091860191860161258a565b509650505060808901359250808311156125d757600080fd5b50506121cb888289016120bc565b6000602082840312156125f757600080fd5b611f6682611eed565b6000806040838503121561261357600080fd5b61261c83611eed565b915061262a60208401611eed565b90509250929050565b600080600080600060a0868803121561264b57600080fd5b61265486611eed565b945061266260208701611eed565b9350604086013592506060860135915060808601356001600160401b0381111561268b57600080fd5b6121cb888289016120bc565b6000806000606084860312156126ac57600080fd5b6126b584611eed565b95602085013595506040909401359392505050565b600181811c908216806126de57607f821691505b602082108114156126ff57634e487b7160e01b600052602260045260246000fd5b50919050565b8054600090600181811c908083168061271f57607f831692505b602080841082141561274157634e487b7160e01b600052602260045260246000fd5b818015612755576001811461276657612793565b60ff19861689528489019650612793565b60008881526020902060005b8681101561278b5781548b820152908501908301612772565b505084890196505b50505050505092915050565b60006127b46127ae8386612705565b84612705565b949350505050565b6020808252818101527f4f776e61626c653a2063616c6c6572206973206e6f7420746865206f776e6572604082015260600190565b634e487b7160e01b600052603260045260246000fd5b634e487b7160e01b600052601160045260246000fd5b600060001982141561283157612831612807565b5060010190565b6020808252601c908201527f4f6e6c79204d61726b6574706c61636520697320616c6c6f7765642100000000604082015260600190565b60208082526010908201526f14185d5cd8589b194e881c185d5cd95960821b604082015260600190565b60208082526028908201527f455243313135353a2069647320616e6420616d6f756e7473206c656e677468206040820152670dad2e6dac2e8c6d60c31b606082015260800190565b60208082526025908201527f455243313135353a207472616e7366657220746f20746865207a65726f206164604082015264647265737360d81b606082015260800190565b6020808252602a908201527f455243313135353a20696e73756666696369656e742062616c616e636520666f60408201526939103a3930b739b332b960b11b606082015260800190565b6000821982111561298357612983612807565b500190565b60408152600061299b60408301856122a2565b82810360208401526129ad81856122a2565b95945050505050565b60208082526023908201527f455243313135353a206275726e2066726f6d20746865207a65726f206164647260408201526265737360e81b606082015260800190565b60208082526024908201527f455243313135353a206275726e20616d6f756e7420657863656564732062616c604082015263616e636560e01b606082015260800190565b6020808252602b908201527f496e697469616c697a61626c653a20636f6e7472616374206973206e6f74206960408201526a6e697469616c697a696e6760a81b606082015260800190565b600060208284031215612a9a57600080fd5b8151611f668161239f565b6001600160a01b0386811682528516602082015260a060408201819052600090612ad1908301866122a2565b8281036060840152612ae381866122a2565b90508281036080840152612af78185611f6d565b98975050505050505050565b600060208284031215612b1557600080fd5b8151611f6681611f33565b600060033d1115612b395760046000803e5060005160e01c5b90565b600060443d1015612b4a5790565b6040516003193d81016004833e81513d6001600160401b038160248401118184111715612b7957505050505090565b8285019150815181811115612b915750505050505090565b843d8701016020828501011115612bab5750505050505090565b612bba60208286010187611ffc565b509095945050505050565b60208082526028908201527f455243313135353a204552433131353552656365697665722072656a656374656040820152676420746f6b656e7360c01b606082015260800190565b6001600160a01b03868116825285166020820152604081018490526060810183905260a060808201819052600090612c4790830184611f6d565b979650505050505050565b600082821015612c6457612c64612807565b50039056fea2646970667358221220a2eb212b6c2a2f3b5d641aca0135fd74e25eff464b5db91b55a05085d1d4ede864736f6c63430008090033",
  "linkReferences": {},
  "deployedLinkReferences": {}
}